{
  "contractName": "DecolonizeAfrica",
  "abi": [
    {
      "inputs": [],
      "stateMutability": "nonpayable",
      "type": "constructor"
    },
    {
      "anonymous": false,
      "inputs": [
        {
          "indexed": true,
          "internalType": "address",
          "name": "owner",
          "type": "address"
        },
        {
          "indexed": true,
          "internalType": "address",
          "name": "approved",
          "type": "address"
        },
        {
          "indexed": true,
          "internalType": "uint256",
          "name": "tokenId",
          "type": "uint256"
        }
      ],
      "name": "Approval",
      "type": "event"
    },
    {
      "anonymous": false,
      "inputs": [
        {
          "indexed": true,
          "internalType": "address",
          "name": "owner",
          "type": "address"
        },
        {
          "indexed": true,
          "internalType": "address",
          "name": "operator",
          "type": "address"
        },
        {
          "indexed": false,
          "internalType": "bool",
          "name": "approved",
          "type": "bool"
        }
      ],
      "name": "ApprovalForAll",
      "type": "event"
    },
    {
      "anonymous": false,
      "inputs": [
        {
          "indexed": true,
          "internalType": "address",
          "name": "previousOwner",
          "type": "address"
        },
        {
          "indexed": true,
          "internalType": "address",
          "name": "newOwner",
          "type": "address"
        }
      ],
      "name": "OwnershipTransferred",
      "type": "event"
    },
    {
      "anonymous": false,
      "inputs": [
        {
          "indexed": true,
          "internalType": "address",
          "name": "from",
          "type": "address"
        },
        {
          "indexed": true,
          "internalType": "address",
          "name": "to",
          "type": "address"
        },
        {
          "indexed": true,
          "internalType": "uint256",
          "name": "tokenId",
          "type": "uint256"
        }
      ],
      "name": "Transfer",
      "type": "event"
    },
    {
      "inputs": [
        {
          "internalType": "address",
          "name": "",
          "type": "address"
        },
        {
          "internalType": "uint256",
          "name": "",
          "type": "uint256"
        }
      ],
      "name": "addressToNFTMeta",
      "outputs": [
        {
          "internalType": "uint256",
          "name": "tokenId",
          "type": "uint256"
        },
        {
          "internalType": "address",
          "name": "staker",
          "type": "address"
        },
        {
          "internalType": "address",
          "name": "og",
          "type": "address"
        },
        {
          "internalType": "bytes32",
          "name": "upcHash",
          "type": "bytes32"
        },
        {
          "internalType": "string",
          "name": "word",
          "type": "string"
        },
        {
          "internalType": "string",
          "name": "ipfs",
          "type": "string"
        },
        {
          "internalType": "string",
          "name": "vr",
          "type": "string"
        },
        {
          "internalType": "string",
          "name": "humanReadableName",
          "type": "string"
        },
        {
          "internalType": "bool",
          "name": "minted",
          "type": "bool"
        },
        {
          "internalType": "bool",
          "name": "bought",
          "type": "bool"
        },
        {
          "internalType": "uint256",
          "name": "tld",
          "type": "uint256"
        },
        {
          "internalType": "uint256",
          "name": "createdTimestamp",
          "type": "uint256"
        },
        {
          "internalType": "uint256",
          "name": "latestTimestamp",
          "type": "uint256"
        }
      ],
      "stateMutability": "view",
      "type": "function"
    },
    {
      "inputs": [
        {
          "internalType": "string",
          "name": "",
          "type": "string"
        }
      ],
      "name": "afroDomainToNftLookup",
      "outputs": [
        {
          "internalType": "uint256",
          "name": "",
          "type": "uint256"
        }
      ],
      "stateMutability": "view",
      "type": "function"
    },
    {
      "inputs": [
        {
          "internalType": "address",
          "name": "to",
          "type": "address"
        },
        {
          "internalType": "uint256",
          "name": "tokenId",
          "type": "uint256"
        }
      ],
      "name": "approve",
      "outputs": [],
      "stateMutability": "nonpayable",
      "type": "function"
    },
    {
      "inputs": [
        {
          "internalType": "address",
          "name": "owner",
          "type": "address"
        }
      ],
      "name": "balanceOf",
      "outputs": [
        {
          "internalType": "uint256",
          "name": "",
          "type": "uint256"
        }
      ],
      "stateMutability": "view",
      "type": "function"
    },
    {
      "inputs": [
        {
          "internalType": "string",
          "name": "upcId",
          "type": "string"
        },
        {
          "internalType": "string",
          "name": "humanReadableName",
          "type": "string"
        },
        {
          "internalType": "uint256",
          "name": "_tld",
          "type": "uint256"
        }
      ],
      "name": "buyNft",
      "outputs": [],
      "stateMutability": "payable",
      "type": "function"
    },
    {
      "inputs": [],
      "name": "defaultIpfs",
      "outputs": [
        {
          "internalType": "string",
          "name": "",
          "type": "string"
        }
      ],
      "stateMutability": "view",
      "type": "function"
    },
    {
      "inputs": [],
      "name": "defaultProtocol",
      "outputs": [
        {
          "internalType": "string",
          "name": "",
          "type": "string"
        }
      ],
      "stateMutability": "view",
      "type": "function"
    },
    {
      "inputs": [],
      "name": "defaultVr",
      "outputs": [
        {
          "internalType": "string",
          "name": "",
          "type": "string"
        }
      ],
      "stateMutability": "view",
      "type": "function"
    },
    {
      "inputs": [
        {
          "internalType": "address",
          "name": "owner",
          "type": "address"
        },
        {
          "internalType": "uint256",
          "name": "tokenId",
          "type": "uint256"
        }
      ],
      "name": "findTokenIndexByAddress",
      "outputs": [
        {
          "internalType": "int256",
          "name": "",
          "type": "int256"
        }
      ],
      "stateMutability": "view",
      "type": "function"
    },
    {
      "inputs": [
        {
          "internalType": "string",
          "name": "",
          "type": "string"
        }
      ],
      "name": "fireDomainToNftLookup",
      "outputs": [
        {
          "internalType": "uint256",
          "name": "",
          "type": "uint256"
        }
      ],
      "stateMutability": "view",
      "type": "function"
    },
    {
      "inputs": [
        {
          "internalType": "uint256",
          "name": "tokenId",
          "type": "uint256"
        }
      ],
      "name": "getApproved",
      "outputs": [
        {
          "internalType": "address",
          "name": "",
          "type": "address"
        }
      ],
      "stateMutability": "view",
      "type": "function"
    },
    {
      "inputs": [
        {
          "internalType": "bytes32",
          "name": "upcHash",
          "type": "bytes32"
        }
      ],
      "name": "getHumanReadableNameByHash",
      "outputs": [
        {
          "internalType": "string",
          "name": "",
          "type": "string"
        }
      ],
      "stateMutability": "view",
      "type": "function"
    },
    {
      "inputs": [
        {
          "internalType": "bytes32",
          "name": "upcHash",
          "type": "bytes32"
        }
      ],
      "name": "getIpfsByHash",
      "outputs": [
        {
          "internalType": "string",
          "name": "",
          "type": "string"
        }
      ],
      "stateMutability": "view",
      "type": "function"
    },
    {
      "inputs": [],
      "name": "getMyNfts",
      "outputs": [
        {
          "components": [
            {
              "internalType": "uint256",
              "name": "tokenId",
              "type": "uint256"
            },
            {
              "internalType": "address",
              "name": "staker",
              "type": "address"
            },
            {
              "internalType": "address",
              "name": "og",
              "type": "address"
            },
            {
              "internalType": "bytes32",
              "name": "upcHash",
              "type": "bytes32"
            },
            {
              "internalType": "string",
              "name": "word",
              "type": "string"
            },
            {
              "internalType": "string",
              "name": "ipfs",
              "type": "string"
            },
            {
              "internalType": "string",
              "name": "vr",
              "type": "string"
            },
            {
              "internalType": "string",
              "name": "humanReadableName",
              "type": "string"
            },
            {
              "internalType": "bool",
              "name": "minted",
              "type": "bool"
            },
            {
              "internalType": "bool",
              "name": "bought",
              "type": "bool"
            },
            {
              "internalType": "uint256",
              "name": "tld",
              "type": "uint256"
            },
            {
              "internalType": "uint256",
              "name": "createdTimestamp",
              "type": "uint256"
            },
            {
              "internalType": "uint256",
              "name": "latestTimestamp",
              "type": "uint256"
            }
          ],
          "internalType": "struct UPCNFT.NFTMeta[]",
          "name": "",
          "type": "tuple[]"
        }
      ],
      "stateMutability": "view",
      "type": "function"
    },
    {
      "inputs": [
        {
          "internalType": "string",
          "name": "upcId",
          "type": "string"
        }
      ],
      "name": "getUpcOwner",
      "outputs": [
        {
          "internalType": "address",
          "name": "",
          "type": "address"
        }
      ],
      "stateMutability": "view",
      "type": "function"
    },
    {
      "inputs": [
        {
          "internalType": "bytes32",
          "name": "upcHash",
          "type": "bytes32"
        }
      ],
      "name": "getVrByHash",
      "outputs": [
        {
          "internalType": "string",
          "name": "",
          "type": "string"
        }
      ],
      "stateMutability": "view",
      "type": "function"
    },
    {
      "inputs": [
        {
          "internalType": "string",
          "name": "upcId",
          "type": "string"
        }
      ],
      "name": "getVrByUpcId",
      "outputs": [
        {
          "internalType": "string",
          "name": "",
          "type": "string"
        }
      ],
      "stateMutability": "view",
      "type": "function"
    },
    {
      "inputs": [
        {
          "internalType": "string",
          "name": "upcId",
          "type": "string"
        }
      ],
      "name": "hasBeenMinted",
      "outputs": [
        {
          "internalType": "bool",
          "name": "",
          "type": "bool"
        }
      ],
      "stateMutability": "view",
      "type": "function"
    },
    {
      "inputs": [
        {
          "internalType": "address",
          "name": "owner",
          "type": "address"
        },
        {
          "internalType": "address",
          "name": "operator",
          "type": "address"
        }
      ],
      "name": "isApprovedForAll",
      "outputs": [
        {
          "internalType": "bool",
          "name": "",
          "type": "bool"
        }
      ],
      "stateMutability": "view",
      "type": "function"
    },
    {
      "inputs": [],
      "name": "latestTokenId",
      "outputs": [
        {
          "internalType": "uint256",
          "name": "",
          "type": "uint256"
        }
      ],
      "stateMutability": "view",
      "type": "function"
    },
    {
      "inputs": [
        {
          "internalType": "string",
          "name": "upcId",
          "type": "string"
        }
      ],
      "name": "mintNft",
      "outputs": [
        {
          "internalType": "uint256",
          "name": "",
          "type": "uint256"
        }
      ],
      "stateMutability": "payable",
      "type": "function"
    },
    {
      "inputs": [],
      "name": "name",
      "outputs": [
        {
          "internalType": "string",
          "name": "",
          "type": "string"
        }
      ],
      "stateMutability": "view",
      "type": "function"
    },
    {
      "inputs": [
        {
          "internalType": "uint256",
          "name": "",
          "type": "uint256"
        }
      ],
      "name": "nftIdLookup",
      "outputs": [
        {
          "internalType": "uint256",
          "name": "tokenId",
          "type": "uint256"
        },
        {
          "internalType": "address",
          "name": "staker",
          "type": "address"
        },
        {
          "internalType": "address",
          "name": "og",
          "type": "address"
        },
        {
          "internalType": "bytes32",
          "name": "upcHash",
          "type": "bytes32"
        },
        {
          "internalType": "string",
          "name": "word",
          "type": "string"
        },
        {
          "internalType": "string",
          "name": "ipfs",
          "type": "string"
        },
        {
          "internalType": "string",
          "name": "vr",
          "type": "string"
        },
        {
          "internalType": "string",
          "name": "humanReadableName",
          "type": "string"
        },
        {
          "internalType": "bool",
          "name": "minted",
          "type": "bool"
        },
        {
          "internalType": "bool",
          "name": "bought",
          "type": "bool"
        },
        {
          "internalType": "uint256",
          "name": "tld",
          "type": "uint256"
        },
        {
          "internalType": "uint256",
          "name": "createdTimestamp",
          "type": "uint256"
        },
        {
          "internalType": "uint256",
          "name": "latestTimestamp",
          "type": "uint256"
        }
      ],
      "stateMutability": "view",
      "type": "function"
    },
    {
      "inputs": [
        {
          "internalType": "uint256",
          "name": "nftId",
          "type": "uint256"
        }
      ],
      "name": "nftInfo",
      "outputs": [
        {
          "components": [
            {
              "internalType": "uint256",
              "name": "tokenId",
              "type": "uint256"
            },
            {
              "internalType": "address",
              "name": "staker",
              "type": "address"
            },
            {
              "internalType": "address",
              "name": "og",
              "type": "address"
            },
            {
              "internalType": "bytes32",
              "name": "upcHash",
              "type": "bytes32"
            },
            {
              "internalType": "string",
              "name": "word",
              "type": "string"
            },
            {
              "internalType": "string",
              "name": "ipfs",
              "type": "string"
            },
            {
              "internalType": "string",
              "name": "vr",
              "type": "string"
            },
            {
              "internalType": "string",
              "name": "humanReadableName",
              "type": "string"
            },
            {
              "internalType": "bool",
              "name": "minted",
              "type": "bool"
            },
            {
              "internalType": "bool",
              "name": "bought",
              "type": "bool"
            },
            {
              "internalType": "uint256",
              "name": "tld",
              "type": "uint256"
            },
            {
              "internalType": "uint256",
              "name": "createdTimestamp",
              "type": "uint256"
            },
            {
              "internalType": "uint256",
              "name": "latestTimestamp",
              "type": "uint256"
            }
          ],
          "internalType": "struct UPCNFT.NFTMeta",
          "name": "",
          "type": "tuple"
        }
      ],
      "stateMutability": "view",
      "type": "function"
    },
    {
      "inputs": [
        {
          "internalType": "address",
          "name": "",
          "type": "address"
        },
        {
          "internalType": "uint256",
          "name": "",
          "type": "uint256"
        }
      ],
      "name": "nftsToMintByAddress",
      "outputs": [
        {
          "internalType": "uint256",
          "name": "tokenId",
          "type": "uint256"
        },
        {
          "internalType": "address",
          "name": "staker",
          "type": "address"
        },
        {
          "internalType": "address",
          "name": "og",
          "type": "address"
        },
        {
          "internalType": "bytes32",
          "name": "upcHash",
          "type": "bytes32"
        },
        {
          "internalType": "string",
          "name": "word",
          "type": "string"
        },
        {
          "internalType": "string",
          "name": "ipfs",
          "type": "string"
        },
        {
          "internalType": "string",
          "name": "vr",
          "type": "string"
        },
        {
          "internalType": "string",
          "name": "humanReadableName",
          "type": "string"
        },
        {
          "internalType": "bool",
          "name": "minted",
          "type": "bool"
        },
        {
          "internalType": "bool",
          "name": "bought",
          "type": "bool"
        },
        {
          "internalType": "uint256",
          "name": "tld",
          "type": "uint256"
        },
        {
          "internalType": "uint256",
          "name": "createdTimestamp",
          "type": "uint256"
        },
        {
          "internalType": "uint256",
          "name": "latestTimestamp",
          "type": "uint256"
        }
      ],
      "stateMutability": "view",
      "type": "function"
    },
    {
      "inputs": [
        {
          "internalType": "bytes32",
          "name": "",
          "type": "bytes32"
        }
      ],
      "name": "nftsToMintByHash",
      "outputs": [
        {
          "internalType": "address",
          "name": "staker",
          "type": "address"
        },
        {
          "internalType": "address",
          "name": "og",
          "type": "address"
        },
        {
          "internalType": "bool",
          "name": "minted",
          "type": "bool"
        },
        {
          "internalType": "bytes32",
          "name": "upcHash",
          "type": "bytes32"
        },
        {
          "internalType": "string",
          "name": "word",
          "type": "string"
        },
        {
          "internalType": "string",
          "name": "ipfs",
          "type": "string"
        },
        {
          "internalType": "string",
          "name": "vr",
          "type": "string"
        },
        {
          "internalType": "string",
          "name": "humanReadableName",
          "type": "string"
        },
        {
          "internalType": "uint256",
          "name": "tokenId",
          "type": "uint256"
        },
        {
          "internalType": "bool",
          "name": "bought",
          "type": "bool"
        },
        {
          "internalType": "uint256",
          "name": "tld",
          "type": "uint256"
        },
        {
          "internalType": "uint256",
          "name": "createdTimestamp",
          "type": "uint256"
        },
        {
          "internalType": "uint256",
          "name": "latestTimestamp",
          "type": "uint256"
        }
      ],
      "stateMutability": "view",
      "type": "function"
    },
    {
      "inputs": [],
      "name": "owner",
      "outputs": [
        {
          "internalType": "address",
          "name": "",
          "type": "address"
        }
      ],
      "stateMutability": "view",
      "type": "function"
    },
    {
      "inputs": [
        {
          "internalType": "uint256",
          "name": "tokenId",
          "type": "uint256"
        }
      ],
      "name": "ownerOf",
      "outputs": [
        {
          "internalType": "address",
          "name": "",
          "type": "address"
        }
      ],
      "stateMutability": "view",
      "type": "function"
    },
    {
      "inputs": [],
      "name": "renounceOwnership",
      "outputs": [],
      "stateMutability": "nonpayable",
      "type": "function"
    },
    {
      "inputs": [
        {
          "internalType": "string",
          "name": "humanReadableName",
          "type": "string"
        },
        {
          "internalType": "uint256",
          "name": "tld",
          "type": "uint256"
        }
      ],
      "name": "resolveDomain",
      "outputs": [
        {
          "components": [
            {
              "internalType": "uint256",
              "name": "tokenId",
              "type": "uint256"
            },
            {
              "internalType": "address",
              "name": "staker",
              "type": "address"
            },
            {
              "internalType": "address",
              "name": "og",
              "type": "address"
            },
            {
              "internalType": "bytes32",
              "name": "upcHash",
              "type": "bytes32"
            },
            {
              "internalType": "string",
              "name": "word",
              "type": "string"
            },
            {
              "internalType": "string",
              "name": "ipfs",
              "type": "string"
            },
            {
              "internalType": "string",
              "name": "vr",
              "type": "string"
            },
            {
              "internalType": "string",
              "name": "humanReadableName",
              "type": "string"
            },
            {
              "internalType": "bool",
              "name": "minted",
              "type": "bool"
            },
            {
              "internalType": "bool",
              "name": "bought",
              "type": "bool"
            },
            {
              "internalType": "uint256",
              "name": "tld",
              "type": "uint256"
            },
            {
              "internalType": "uint256",
              "name": "createdTimestamp",
              "type": "uint256"
            },
            {
              "internalType": "uint256",
              "name": "latestTimestamp",
              "type": "uint256"
            }
          ],
          "internalType": "struct UPCNFT.NFTMeta",
          "name": "",
          "type": "tuple"
        }
      ],
      "stateMutability": "view",
      "type": "function"
    },
    {
      "inputs": [
        {
          "internalType": "address",
          "name": "from",
          "type": "address"
        },
        {
          "internalType": "address",
          "name": "to",
          "type": "address"
        },
        {
          "internalType": "uint256",
          "name": "tokenId",
          "type": "uint256"
        }
      ],
      "name": "safeTransferFrom",
      "outputs": [],
      "stateMutability": "nonpayable",
      "type": "function"
    },
    {
      "inputs": [
        {
          "internalType": "address",
          "name": "from",
          "type": "address"
        },
        {
          "internalType": "address",
          "name": "to",
          "type": "address"
        },
        {
          "internalType": "uint256",
          "name": "tokenId",
          "type": "uint256"
        },
        {
          "internalType": "bytes",
          "name": "_data",
          "type": "bytes"
        }
      ],
      "name": "safeTransferFrom",
      "outputs": [],
      "stateMutability": "nonpayable",
      "type": "function"
    },
    {
      "inputs": [
        {
          "internalType": "address",
          "name": "operator",
          "type": "address"
        },
        {
          "internalType": "bool",
          "name": "approved",
          "type": "bool"
        }
      ],
      "name": "setApprovalForAll",
      "outputs": [],
      "stateMutability": "nonpayable",
      "type": "function"
    },
    {
      "inputs": [
        {
          "internalType": "uint256",
          "name": "_price",
          "type": "uint256"
        }
      ],
      "name": "setCurrentNftPrice",
      "outputs": [],
      "stateMutability": "nonpayable",
      "type": "function"
    },
    {
      "inputs": [
        {
          "internalType": "string",
          "name": "upcId",
          "type": "string"
        },
        {
          "internalType": "string",
          "name": "_ipfs",
          "type": "string"
        }
      ],
      "name": "setIpfs",
      "outputs": [],
      "stateMutability": "nonpayable",
      "type": "function"
    },
    {
      "inputs": [
        {
          "internalType": "address",
          "name": "addy",
          "type": "address"
        }
      ],
      "name": "setPayToken",
      "outputs": [],
      "stateMutability": "nonpayable",
      "type": "function"
    },
    {
      "inputs": [
        {
          "internalType": "string",
          "name": "upcId",
          "type": "string"
        },
        {
          "internalType": "string",
          "name": "_vr",
          "type": "string"
        }
      ],
      "name": "setVr",
      "outputs": [],
      "stateMutability": "nonpayable",
      "type": "function"
    },
    {
      "inputs": [
        {
          "internalType": "bytes4",
          "name": "interfaceId",
          "type": "bytes4"
        }
      ],
      "name": "supportsInterface",
      "outputs": [
        {
          "internalType": "bool",
          "name": "",
          "type": "bool"
        }
      ],
      "stateMutability": "view",
      "type": "function"
    },
    {
      "inputs": [],
      "name": "symbol",
      "outputs": [
        {
          "internalType": "string",
          "name": "",
          "type": "string"
        }
      ],
      "stateMutability": "view",
      "type": "function"
    },
    {
      "inputs": [
        {
          "internalType": "uint256",
          "name": "",
          "type": "uint256"
        }
      ],
      "name": "tlds",
      "outputs": [
        {
          "internalType": "string",
          "name": "",
          "type": "string"
        }
      ],
      "stateMutability": "view",
      "type": "function"
    },
    {
      "inputs": [
        {
          "internalType": "uint256",
          "name": "tokenId",
          "type": "uint256"
        }
      ],
      "name": "tokenURI",
      "outputs": [
        {
          "internalType": "string",
          "name": "",
          "type": "string"
        }
      ],
      "stateMutability": "view",
      "type": "function"
    },
    {
      "inputs": [],
      "name": "totalBalance",
      "outputs": [
        {
          "internalType": "uint256",
          "name": "",
          "type": "uint256"
        }
      ],
      "stateMutability": "view",
      "type": "function"
    },
    {
      "inputs": [
        {
          "internalType": "address",
          "name": "from",
          "type": "address"
        },
        {
          "internalType": "address",
          "name": "to",
          "type": "address"
        },
        {
          "internalType": "uint256",
          "name": "tokenId",
          "type": "uint256"
        }
      ],
      "name": "transferFrom",
      "outputs": [],
      "stateMutability": "nonpayable",
      "type": "function"
    },
    {
      "inputs": [
        {
          "internalType": "address",
          "name": "newOwner",
          "type": "address"
        }
      ],
      "name": "transferOwnership",
      "outputs": [],
      "stateMutability": "nonpayable",
      "type": "function"
    },
    {
      "inputs": [
        {
          "internalType": "string",
          "name": "",
          "type": "string"
        }
      ],
      "name": "upcDomainToNftLookup",
      "outputs": [
        {
          "internalType": "uint256",
          "name": "",
          "type": "uint256"
        }
      ],
      "stateMutability": "view",
      "type": "function"
    },
    {
      "inputs": [
        {
          "internalType": "string",
          "name": "",
          "type": "string"
        }
      ],
      "name": "upcIdLookup",
      "outputs": [
        {
          "internalType": "uint256",
          "name": "tokenId",
          "type": "uint256"
        },
        {
          "internalType": "address",
          "name": "staker",
          "type": "address"
        },
        {
          "internalType": "address",
          "name": "og",
          "type": "address"
        },
        {
          "internalType": "bytes32",
          "name": "upcHash",
          "type": "bytes32"
        },
        {
          "internalType": "string",
          "name": "word",
          "type": "string"
        },
        {
          "internalType": "string",
          "name": "ipfs",
          "type": "string"
        },
        {
          "internalType": "string",
          "name": "vr",
          "type": "string"
        },
        {
          "internalType": "string",
          "name": "humanReadableName",
          "type": "string"
        },
        {
          "internalType": "bool",
          "name": "minted",
          "type": "bool"
        },
        {
          "internalType": "bool",
          "name": "bought",
          "type": "bool"
        },
        {
          "internalType": "uint256",
          "name": "tld",
          "type": "uint256"
        },
        {
          "internalType": "uint256",
          "name": "createdTimestamp",
          "type": "uint256"
        },
        {
          "internalType": "uint256",
          "name": "latestTimestamp",
          "type": "uint256"
        }
      ],
      "stateMutability": "view",
      "type": "function"
    },
    {
      "inputs": [
        {
          "internalType": "string",
          "name": "upcId",
          "type": "string"
        }
      ],
      "name": "upcInfo",
      "outputs": [
        {
          "components": [
            {
              "internalType": "uint256",
              "name": "tokenId",
              "type": "uint256"
            },
            {
              "internalType": "address",
              "name": "staker",
              "type": "address"
            },
            {
              "internalType": "address",
              "name": "og",
              "type": "address"
            },
            {
              "internalType": "bytes32",
              "name": "upcHash",
              "type": "bytes32"
            },
            {
              "internalType": "string",
              "name": "word",
              "type": "string"
            },
            {
              "internalType": "string",
              "name": "ipfs",
              "type": "string"
            },
            {
              "internalType": "string",
              "name": "vr",
              "type": "string"
            },
            {
              "internalType": "string",
              "name": "humanReadableName",
              "type": "string"
            },
            {
              "internalType": "bool",
              "name": "minted",
              "type": "bool"
            },
            {
              "internalType": "bool",
              "name": "bought",
              "type": "bool"
            },
            {
              "internalType": "uint256",
              "name": "tld",
              "type": "uint256"
            },
            {
              "internalType": "uint256",
              "name": "createdTimestamp",
              "type": "uint256"
            },
            {
              "internalType": "uint256",
              "name": "latestTimestamp",
              "type": "uint256"
            }
          ],
          "internalType": "struct UPCNFT.NFTMeta",
          "name": "",
          "type": "tuple"
        }
      ],
      "stateMutability": "view",
      "type": "function"
    }
  ],
  "bytecode": "0x60806040523480156200001157600080fd5b506040518060400160405280600681526020017f5550434e465400000000000000000000000000000000000000000000000000008152506040518060400160405280600481526020017f5550434e000000000000000000000000000000000000000000000000000000008152508160009080519060200190620000969291906200025a565b508060019080519060200190620000af9291906200025a565b505050620000d2620000c66200018c60201b60201c565b6200019460201b60201c565b33600f60006101000a81548173ffffffffffffffffffffffffffffffffffffffff021916908373ffffffffffffffffffffffffffffffffffffffff1602179055506040518060600160405280602e8152602001620065ba602e9139600d9080519060200190620001449291906200025a565b50604051806060016040528060388152602001620065e860389139600e9080519060200190620001769291906200025a565b50670de0b6b3a76400006011819055506200036f565b600033905090565b6000600660009054906101000a900473ffffffffffffffffffffffffffffffffffffffff16905081600660006101000a81548173ffffffffffffffffffffffffffffffffffffffff021916908373ffffffffffffffffffffffffffffffffffffffff1602179055508173ffffffffffffffffffffffffffffffffffffffff168173ffffffffffffffffffffffffffffffffffffffff167f8be0079c531659141344cd1fd0a4f28419497f9722a3daafe3b4186f6b6457e060405160405180910390a35050565b82805462000268906200030a565b90600052602060002090601f0160209004810192826200028c5760008555620002d8565b82601f10620002a757805160ff1916838001178555620002d8565b82800160010185558215620002d8579182015b82811115620002d7578251825591602001919060010190620002ba565b5b509050620002e79190620002eb565b5090565b5b8082111562000306576000816000905550600101620002ec565b5090565b600060028204905060018216806200032357607f821691505b602082108114156200033a576200033962000340565b5b50919050565b7f4e487b7100000000000000000000000000000000000000000000000000000000600052602260045260246000fd5b61623b806200037f6000396000f3fe60806040526004361061020f5760003560e01c80637165553611610118578063b67b79e0116100a0578063da86f4a91161006f578063da86f4a914610827578063e985e9c514610857578063eaca3b3414610894578063f2fde38b146108d1578063fcd22751146108fa5761020f565b8063b67b79e014610747578063b88d4fde14610784578063bcefdd1c146107ad578063c87b56dd146107ea5761020f565b806395d89b41116100e757806395d89b411461066d578063a22cb46514610698578063ad7a672f146106c1578063ae1c9d2b146106ec578063b0b9979e1461071c5761020f565b806371655536146105aa578063771ee481146105ee5780638ccd5ed8146106195780638da5cb5b146106425761020f565b80634335a81f1161019b5780636352211e1161016a5780636352211e146104b35780636f96e99c146104f0578063707e009f1461051957806370a0823114610556578063715018a6146105935761020f565b80634335a81f146103c557806345446b821461040257806348ff00631461042b578063569a5fb41461046f5761020f565b8063081812fc116101e2578063081812fc146102e4578063095ea7b31461032157806323b872dd1461034a57806342842e0e146103735780634332bf771461039c5761020f565b806301ffc9a7146102145780630384c4ed14610251578063047b07bf1461028e57806306fdde03146102b9575b600080fd5b34801561022057600080fd5b5061023b600480360381019061023691906149ea565b610923565b6040516102489190615308565b60405180910390f35b34801561025d57600080fd5b5061027860048036038101906102739190614934565b610a05565b604051610285919061533e565b60405180910390f35b34801561029a57600080fd5b506102a3610aa5565b6040516102b091906152e6565b60405180910390f35b3480156102c557600080fd5b506102ce610e0f565b6040516102db919061533e565b60405180910390f35b3480156102f057600080fd5b5061030b60048036038101906103069190614b05565b610ea1565b60405161031891906151ae565b60405180910390f35b34801561032d57600080fd5b50610348600480360381019061034391906148c7565b610f26565b005b34801561035657600080fd5b50610371600480360381019061036c91906147b1565b61103e565b005b34801561037f57600080fd5b5061039a600480360381019061039591906147b1565b61109e565b005b3480156103a857600080fd5b506103c360048036038101906103be919061498e565b6110be565b005b3480156103d157600080fd5b506103ec60048036038101906103e79190614934565b6111db565b6040516103f9919061533e565b60405180910390f35b34801561040e57600080fd5b506104296004803603810190610424919061498e565b611283565b005b34801561043757600080fd5b50610452600480360381019061044d9190614934565b6113a0565b60405161046698979695949392919061524c565b60405180910390f35b34801561047b57600080fd5b50610496600480360381019061049191906148c7565b611635565b6040516104aa98979695949392919061567b565b60405180910390f35b3480156104bf57600080fd5b506104da60048036038101906104d59190614b05565b6118e7565b6040516104e791906151ae565b60405180910390f35b3480156104fc57600080fd5b5061051760048036038101906105129190614744565b611999565b005b34801561052557600080fd5b50610540600480360381019061053b9190614934565b611a59565b60405161054d919061533e565b60405180910390f35b34801561056257600080fd5b5061057d60048036038101906105789190614744565b611b01565b60405161058a9190615660565b60405180910390f35b34801561059f57600080fd5b506105a8611bb9565b005b3480156105b657600080fd5b506105d160048036038101906105cc91906148c7565b611c41565b6040516105e598979695949392919061567b565b60405180910390f35b3480156105fa57600080fd5b50610603611ef3565b604051610610919061533e565b60405180910390f35b34801561062557600080fd5b50610640600480360381019061063b9190614a8d565b611f81565b005b34801561064e57600080fd5b50610657612690565b60405161066491906151ae565b60405180910390f35b34801561067957600080fd5b506106826126ba565b60405161068f919061533e565b60405180910390f35b3480156106a457600080fd5b506106bf60048036038101906106ba9190614887565b61274c565b005b3480156106cd57600080fd5b506106d66128cd565b6040516106e39190615660565b60405180910390f35b610706600480360381019061070191906148c7565b6128d3565b6040516107139190615323565b60405180910390f35b34801561072857600080fd5b506107316129da565b60405161073e919061533e565b60405180910390f35b34801561075357600080fd5b5061076e60048036038101906107699190614a44565b612a68565b60405161077b919061533e565b60405180910390f35b34801561079057600080fd5b506107ab60048036038101906107a69190614804565b612b1e565b005b3480156107b957600080fd5b506107d460048036038101906107cf9190614934565b612b80565b6040516107e1919061533e565b60405180910390f35b3480156107f657600080fd5b50610811600480360381019061080c9190614b05565b612c28565b60405161081e919061533e565b60405180910390f35b610841600480360381019061083c9190614a44565b612ccf565b60405161084e9190615660565b60405180910390f35b34801561086357600080fd5b5061087e60048036038101906108799190614771565b613519565b60405161088b9190615308565b60405180910390f35b3480156108a057600080fd5b506108bb60048036038101906108b69190614a44565b6135ad565b6040516108c8919061533e565b60405180910390f35b3480156108dd57600080fd5b506108f860048036038101906108f39190614744565b6136c9565b005b34801561090657600080fd5b50610921600480360381019061091c9190614b05565b6137c1565b005b60007f80ac58cd000000000000000000000000000000000000000000000000000000007bffffffffffffffffffffffffffffffffffffffffffffffffffffffff1916827bffffffffffffffffffffffffffffffffffffffffffffffffffffffff191614806109ee57507f5b5e139f000000000000000000000000000000000000000000000000000000007bffffffffffffffffffffffffffffffffffffffffffffffffffffffff1916827bffffffffffffffffffffffffffffffffffffffffffffffffffffffff1916145b806109fe57506109fd82613847565b5b9050919050565b60096020528060005260406000206000915090508054610a24906159b9565b80601f0160208091040260200160405190810160405280929190818152602001828054610a50906159b9565b8015610a9d5780601f10610a7257610100808354040283529160200191610a9d565b820191906000526020600020905b815481529060010190602001808311610a8057829003601f168201915b505050505081565b6060600a60003373ffffffffffffffffffffffffffffffffffffffff1673ffffffffffffffffffffffffffffffffffffffff168152602001908152602001600020805480602002602001604051908101604052809291908181526020016000905b82821015610e06578382906000526020600020906008020160405180610100016040529081600082015481526020016001820160009054906101000a900473ffffffffffffffffffffffffffffffffffffffff1673ffffffffffffffffffffffffffffffffffffffff1673ffffffffffffffffffffffffffffffffffffffff16815260200160028201548152602001600382018054610ba4906159b9565b80601f0160208091040260200160405190810160405280929190818152602001828054610bd0906159b9565b8015610c1d5780601f10610bf257610100808354040283529160200191610c1d565b820191906000526020600020905b815481529060010190602001808311610c0057829003601f168201915b50505050508152602001600482018054610c36906159b9565b80601f0160208091040260200160405190810160405280929190818152602001828054610c62906159b9565b8015610caf5780601f10610c8457610100808354040283529160200191610caf565b820191906000526020600020905b815481529060010190602001808311610c9257829003601f168201915b50505050508152602001600582018054610cc8906159b9565b80601f0160208091040260200160405190810160405280929190818152602001828054610cf4906159b9565b8015610d415780601f10610d1657610100808354040283529160200191610d41565b820191906000526020600020905b815481529060010190602001808311610d2457829003601f168201915b50505050508152602001600682018054610d5a906159b9565b80601f0160208091040260200160405190810160405280929190818152602001828054610d86906159b9565b8015610dd35780601f10610da857610100808354040283529160200191610dd3565b820191906000526020600020905b815481529060010190602001808311610db657829003601f168201915b505050505081526020016007820160009054906101000a900460ff16151515158152505081526020019060010190610b06565b50505050905090565b606060008054610e1e906159b9565b80601f0160208091040260200160405190810160405280929190818152602001828054610e4a906159b9565b8015610e975780601f10610e6c57610100808354040283529160200191610e97565b820191906000526020600020905b815481529060010190602001808311610e7a57829003601f168201915b5050505050905090565b6000610eac826138b1565b610eeb576040517f08c379a0000000000000000000000000000000000000000000000000000000008152600401610ee290615560565b60405180910390fd5b6004600083815260200190815260200160002060009054906101000a900473ffffffffffffffffffffffffffffffffffffffff169050919050565b6000610f31826118e7565b90508073ffffffffffffffffffffffffffffffffffffffff168373ffffffffffffffffffffffffffffffffffffffff161415610fa2576040517f08c379a0000000000000000000000000000000000000000000000000000000008152600401610f99906155e0565b60405180910390fd5b8073ffffffffffffffffffffffffffffffffffffffff16610fc161391d565b73ffffffffffffffffffffffffffffffffffffffff161480610ff05750610fef81610fea61391d565b613519565b5b61102f576040517f08c379a0000000000000000000000000000000000000000000000000000000008152600401611026906154a0565b60405180910390fd5b6110398383613925565b505050565b61104f61104961391d565b826139de565b61108e576040517f08c379a000000000000000000000000000000000000000000000000000000000815260040161108590615600565b60405180910390fd5b611099838383613abc565b505050565b6110b983838360405180602001604052806000815250612b1e565b505050565b600c600083815260200190815260200160002060000160009054906101000a900473ffffffffffffffffffffffffffffffffffffffff1673ffffffffffffffffffffffffffffffffffffffff163373ffffffffffffffffffffffffffffffffffffffff1614611162576040517f08c379a000000000000000000000000000000000000000000000000000000000815260040161115990615620565b60405180910390fd5b600081905060008151116111ab576040517f08c379a00000000000000000000000000000000000000000000000000000000081526004016111a290615380565b60405180910390fd5b81600c600085815260200190815260200160002060030190805190602001906111d59291906143cc565b50505050565b6060600c600083815260200190815260200160002060040180546111fe906159b9565b80601f016020809104026020016040519081016040528092919081815260200182805461122a906159b9565b80156112775780601f1061124c57610100808354040283529160200191611277565b820191906000526020600020905b81548152906001019060200180831161125a57829003601f168201915b50505050509050919050565b600c600083815260200190815260200160002060000160009054906101000a900473ffffffffffffffffffffffffffffffffffffffff1673ffffffffffffffffffffffffffffffffffffffff163373ffffffffffffffffffffffffffffffffffffffff1614611327576040517f08c379a000000000000000000000000000000000000000000000000000000000815260040161131e906154c0565b60405180910390fd5b60008190506000815111611370576040517f08c379a000000000000000000000000000000000000000000000000000000000815260040161136790615540565b60405180910390fd5b81600c6000858152602001908152602001600020600401908051906020019061139a9291906143cc565b50505050565b600c6020528060005260406000206000915090508060000160009054906101000a900473ffffffffffffffffffffffffffffffffffffffff16908060000160149054906101000a900460ff1690806001015490806002018054611402906159b9565b80601f016020809104026020016040519081016040528092919081815260200182805461142e906159b9565b801561147b5780601f106114505761010080835404028352916020019161147b565b820191906000526020600020905b81548152906001019060200180831161145e57829003601f168201915b505050505090806003018054611490906159b9565b80601f01602080910402602001604051908101604052809291908181526020018280546114bc906159b9565b80156115095780601f106114de57610100808354040283529160200191611509565b820191906000526020600020905b8154815290600101906020018083116114ec57829003601f168201915b50505050509080600401805461151e906159b9565b80601f016020809104026020016040519081016040528092919081815260200182805461154a906159b9565b80156115975780601f1061156c57610100808354040283529160200191611597565b820191906000526020600020905b81548152906001019060200180831161157a57829003601f168201915b5050505050908060050180546115ac906159b9565b80601f01602080910402602001604051908101604052809291908181526020018280546115d8906159b9565b80156116255780601f106115fa57610100808354040283529160200191611625565b820191906000526020600020905b81548152906001019060200180831161160857829003601f168201915b5050505050908060060154905088565b600b602052816000526040600020818154811061165157600080fd5b9060005260206000209060080201600091509150508060000154908060010160009054906101000a900473ffffffffffffffffffffffffffffffffffffffff16908060020154908060030180546116a7906159b9565b80601f01602080910402602001604051908101604052809291908181526020018280546116d3906159b9565b80156117205780601f106116f557610100808354040283529160200191611720565b820191906000526020600020905b81548152906001019060200180831161170357829003601f168201915b505050505090806004018054611735906159b9565b80601f0160208091040260200160405190810160405280929190818152602001828054611761906159b9565b80156117ae5780601f10611783576101008083540402835291602001916117ae565b820191906000526020600020905b81548152906001019060200180831161179157829003601f168201915b5050505050908060050180546117c3906159b9565b80601f01602080910402602001604051908101604052809291908181526020018280546117ef906159b9565b801561183c5780601f106118115761010080835404028352916020019161183c565b820191906000526020600020905b81548152906001019060200180831161181f57829003601f168201915b505050505090806006018054611851906159b9565b80601f016020809104026020016040519081016040528092919081815260200182805461187d906159b9565b80156118ca5780601f1061189f576101008083540402835291602001916118ca565b820191906000526020600020905b8154815290600101906020018083116118ad57829003601f168201915b5050505050908060070160009054906101000a900460ff16905088565b6000806002600084815260200190815260200160002060009054906101000a900473ffffffffffffffffffffffffffffffffffffffff169050600073ffffffffffffffffffffffffffffffffffffffff168173ffffffffffffffffffffffffffffffffffffffff161415611990576040517f08c379a000000000000000000000000000000000000000000000000000000000815260040161198790615500565b60405180910390fd5b80915050919050565b6119a161391d565b73ffffffffffffffffffffffffffffffffffffffff166119bf612690565b73ffffffffffffffffffffffffffffffffffffffff1614611a15576040517f08c379a0000000000000000000000000000000000000000000000000000000008152600401611a0c90615580565b60405180910390fd5b80601260006101000a81548173ffffffffffffffffffffffffffffffffffffffff021916908373ffffffffffffffffffffffffffffffffffffffff16021790555050565b6060600c60008381526020019081526020016000206005018054611a7c906159b9565b80601f0160208091040260200160405190810160405280929190818152602001828054611aa8906159b9565b8015611af55780601f10611aca57610100808354040283529160200191611af5565b820191906000526020600020905b815481529060010190602001808311611ad857829003601f168201915b50505050509050919050565b60008073ffffffffffffffffffffffffffffffffffffffff168273ffffffffffffffffffffffffffffffffffffffff161415611b72576040517f08c379a0000000000000000000000000000000000000000000000000000000008152600401611b69906154e0565b60405180910390fd5b600360008373ffffffffffffffffffffffffffffffffffffffff1673ffffffffffffffffffffffffffffffffffffffff168152602001908152602001600020549050919050565b611bc161391d565b73ffffffffffffffffffffffffffffffffffffffff16611bdf612690565b73ffffffffffffffffffffffffffffffffffffffff1614611c35576040517f08c379a0000000000000000000000000000000000000000000000000000000008152600401611c2c90615580565b60405180910390fd5b611c3f6000613d18565b565b600a6020528160005260406000208181548110611c5d57600080fd5b9060005260206000209060080201600091509150508060000154908060010160009054906101000a900473ffffffffffffffffffffffffffffffffffffffff1690806002015490806003018054611cb3906159b9565b80601f0160208091040260200160405190810160405280929190818152602001828054611cdf906159b9565b8015611d2c5780601f10611d0157610100808354040283529160200191611d2c565b820191906000526020600020905b815481529060010190602001808311611d0f57829003601f168201915b505050505090806004018054611d41906159b9565b80601f0160208091040260200160405190810160405280929190818152602001828054611d6d906159b9565b8015611dba5780601f10611d8f57610100808354040283529160200191611dba565b820191906000526020600020905b815481529060010190602001808311611d9d57829003601f168201915b505050505090806005018054611dcf906159b9565b80601f0160208091040260200160405190810160405280929190818152602001828054611dfb906159b9565b8015611e485780601f10611e1d57610100808354040283529160200191611e48565b820191906000526020600020905b815481529060010190602001808311611e2b57829003601f168201915b505050505090806006018054611e5d906159b9565b80601f0160208091040260200160405190810160405280929190818152602001828054611e89906159b9565b8015611ed65780601f10611eab57610100808354040283529160200191611ed6565b820191906000526020600020905b815481529060010190602001808311611eb957829003601f168201915b5050505050908060070160009054906101000a900460ff16905088565b600e8054611f00906159b9565b80601f0160208091040260200160405190810160405280929190818152602001828054611f2c906159b9565b8015611f795780601f10611f4e57610100808354040283529160200191611f79565b820191906000526020600020905b815481529060010190602001808311611f5c57829003601f168201915b505050505081565b60008190506000815111611fca576040517f08c379a0000000000000000000000000000000000000000000000000000000008152600401611fc190615360565b60405180910390fd5b601260009054906101000a900473ffffffffffffffffffffffffffffffffffffffff1673ffffffffffffffffffffffffffffffffffffffff166323b872dd33306011546040518463ffffffff1660e01b815260040161202b939291906151c9565b602060405180830381600087803b15801561204557600080fd5b505af1158015612059573d6000803e3d6000fd5b505050506040513d601f19601f8201168201806040525081019061207d9190614907565b5060006002846040516020016120939190615173565b6040516020818303038152906040526040516120af919061515c565b602060405180830381855afa1580156120cc573d6000803e3d6000fd5b5050506040513d601f19601f820116820180604052508101906120ef9190614961565b90506120fb6007613dde565b60006121076007613df4565b9050612111614452565b8181600001818152505033816020019073ffffffffffffffffffffffffffffffffffffffff16908173ffffffffffffffffffffffffffffffffffffffff168152505082816040018181525050858160600181905250600d8054612173906159b9565b80601f016020809104026020016040519081016040528092919081815260200182805461219f906159b9565b80156121ec5780601f106121c1576101008083540402835291602001916121ec565b820191906000526020600020905b8154815290600101906020018083116121cf57829003601f168201915b50505050508160800181905250848160c0018190525060008160e0019015159081151581525050600e8054612220906159b9565b80601f016020809104026020016040519081016040528092919081815260200182805461224c906159b9565b80156122995780601f1061226e57610100808354040283529160200191612299565b820191906000526020600020905b81548152906001019060200180831161227c57829003601f168201915b50505050508160a00181905250600b60003373ffffffffffffffffffffffffffffffffffffffff1673ffffffffffffffffffffffffffffffffffffffff1681526020019081526020016000208190806001815401808255809150506001900390600052602060002090600802016000909190919091506000820151816000015560208201518160010160006101000a81548173ffffffffffffffffffffffffffffffffffffffff021916908373ffffffffffffffffffffffffffffffffffffffff1602179055506040820151816002015560608201518160030190805190602001906123869291906143cc565b5060808201518160040190805190602001906123a39291906143cc565b5060a08201518160050190805190602001906123c09291906143cc565b5060c08201518160060190805190602001906123dd9291906143cc565b5060e08201518160070160006101000a81548160ff02191690831515021790555050506124086144b2565b828160e0018181525050600081602001901515908115158152505033816000019073ffffffffffffffffffffffffffffffffffffffff16908173ffffffffffffffffffffffffffffffffffffffff1681525050600d8054612468906159b9565b80601f0160208091040260200160405190810160405280929190818152602001828054612494906159b9565b80156124e15780601f106124b6576101008083540402835291602001916124e1565b820191906000526020600020905b8154815290600101906020018083116124c457829003601f168201915b50505050508160800181905250600e80546124fb906159b9565b80601f0160208091040260200160405190810160405280929190818152602001828054612527906159b9565b80156125745780601f1061254957610100808354040283529160200191612574565b820191906000526020600020905b81548152906001019060200180831161255757829003601f168201915b50505050508160a0018190525080600c600086815260200190815260200160002060008201518160000160006101000a81548173ffffffffffffffffffffffffffffffffffffffff021916908373ffffffffffffffffffffffffffffffffffffffff16021790555060208201518160000160146101000a81548160ff0219169083151502179055506040820151816001015560608201518160020190805190602001906126229291906143cc565b50608082015181600301908051906020019061263f9291906143cc565b5060a082015181600401908051906020019061265c9291906143cc565b5060c08201518160050190805190602001906126799291906143cc565b5060e0820151816006015590505050505050505050565b6000600660009054906101000a900473ffffffffffffffffffffffffffffffffffffffff16905090565b6060600180546126c9906159b9565b80601f01602080910402602001604051908101604052809291908181526020018280546126f5906159b9565b80156127425780601f1061271757610100808354040283529160200191612742565b820191906000526020600020905b81548152906001019060200180831161272557829003601f168201915b5050505050905090565b61275461391d565b73ffffffffffffffffffffffffffffffffffffffff168273ffffffffffffffffffffffffffffffffffffffff1614156127c2576040517f08c379a00000000000000000000000000000000000000000000000000000000081526004016127b990615460565b60405180910390fd5b80600560006127cf61391d565b73ffffffffffffffffffffffffffffffffffffffff1673ffffffffffffffffffffffffffffffffffffffff16815260200190815260200160002060008473ffffffffffffffffffffffffffffffffffffffff1673ffffffffffffffffffffffffffffffffffffffff16815260200190815260200160002060006101000a81548160ff0219169083151502179055508173ffffffffffffffffffffffffffffffffffffffff1661287c61391d565b73ffffffffffffffffffffffffffffffffffffffff167f17307eab39ab6107e8899845ad3d59bd9653f200f220920489ca2b5937696c31836040516128c19190615308565b60405180910390a35050565b60105481565b6000806000905060007fffffffffffffffffffffffffffffffffffffffffffffffffffffffffffffffff9050600091505b600b60008673ffffffffffffffffffffffffffffffffffffffff1673ffffffffffffffffffffffffffffffffffffffff168152602001908152602001600020805490508210156129cf5783600b60008773ffffffffffffffffffffffffffffffffffffffff1673ffffffffffffffffffffffffffffffffffffffff16815260200190815260200160002083815481106129a05761299f615b23565b5b90600052602060002090600802016000015414156129bc578190505b81806129c790615a1c565b925050612904565b809250505092915050565b600d80546129e7906159b9565b80601f0160208091040260200160405190810160405280929190818152602001828054612a13906159b9565b8015612a605780601f10612a3557610100808354040283529160200191612a60565b820191906000526020600020905b815481529060010190602001808311612a4357829003601f168201915b505050505081565b6008818051602081018201805184825260208301602085012081835280955050505050506000915090508054612a9d906159b9565b80601f0160208091040260200160405190810160405280929190818152602001828054612ac9906159b9565b8015612b165780601f10612aeb57610100808354040283529160200191612b16565b820191906000526020600020905b815481529060010190602001808311612af957829003601f168201915b505050505081565b612b2f612b2961391d565b836139de565b612b6e576040517f08c379a0000000000000000000000000000000000000000000000000000000008152600401612b6590615600565b60405180910390fd5b612b7a84848484613e02565b50505050565b6060600c60008381526020019081526020016000206003018054612ba3906159b9565b80601f0160208091040260200160405190810160405280929190818152602001828054612bcf906159b9565b8015612c1c5780601f10612bf157610100808354040283529160200191612c1c565b820191906000526020600020905b815481529060010190602001808311612bff57829003601f168201915b50505050509050919050565b6060612c33826138b1565b612c72576040517f08c379a0000000000000000000000000000000000000000000000000000000008152600401612c69906155c0565b60405180910390fd5b6000612c7c613e5e565b90506000815111612c9c5760405180602001604052806000815250612cc7565b80612ca684613e75565b604051602001612cb792919061518a565b6040516020818303038152906040525b915050919050565b6000803390506000600284604051602001612cea9190615173565b604051602081830303815290604052604051612d06919061515c565b602060405180830381855afa158015612d23573d6000803e3d6000fd5b5050506040513d601f19601f82011682018060405250810190612d469190614961565b9050600c600082815260200190815260200160002060000160009054906101000a900473ffffffffffffffffffffffffffffffffffffffff1673ffffffffffffffffffffffffffffffffffffffff163373ffffffffffffffffffffffffffffffffffffffff1614612dec576040517f08c379a0000000000000000000000000000000000000000000000000000000008152600401612de3906153a0565b60405180910390fd5b60001515600c600083815260200190815260200160002060000160149054906101000a900460ff16151514612e56576040517f08c379a0000000000000000000000000000000000000000000000000000000008152600401612e4d90615440565b60405180910390fd5b6000600c6000838152602001908152602001600020600601549050612e79614452565b6000612e8533846128d3565b90506000811215612ecb576040517f08c379a0000000000000000000000000000000000000000000000000000000008152600401612ec290615640565b60405180910390fd5b600b60003373ffffffffffffffffffffffffffffffffffffffff1673ffffffffffffffffffffffffffffffffffffffff1681526020019081526020016000208181548110612f1c57612f1b615b23565b5b906000526020600020906008020160405180610100016040529081600082015481526020016001820160009054906101000a900473ffffffffffffffffffffffffffffffffffffffff1673ffffffffffffffffffffffffffffffffffffffff1673ffffffffffffffffffffffffffffffffffffffff16815260200160028201548152602001600382018054612fb0906159b9565b80601f0160208091040260200160405190810160405280929190818152602001828054612fdc906159b9565b80156130295780601f10612ffe57610100808354040283529160200191613029565b820191906000526020600020905b81548152906001019060200180831161300c57829003601f168201915b50505050508152602001600482018054613042906159b9565b80601f016020809104026020016040519081016040528092919081815260200182805461306e906159b9565b80156130bb5780601f10613090576101008083540402835291602001916130bb565b820191906000526020600020905b81548152906001019060200180831161309e57829003601f168201915b505050505081526020016005820180546130d4906159b9565b80601f0160208091040260200160405190810160405280929190818152602001828054613100906159b9565b801561314d5780601f106131225761010080835404028352916020019161314d565b820191906000526020600020905b81548152906001019060200180831161313057829003601f168201915b50505050508152602001600682018054613166906159b9565b80601f0160208091040260200160405190810160405280929190818152602001828054613192906159b9565b80156131df5780601f106131b4576101008083540402835291602001916131df565b820191906000526020600020905b8154815290600101906020018083116131c257829003601f168201915b505050505081526020016007820160009054906101000a900460ff161515151581525050915061320d614452565b82600001518160000181815250508260200151816020019073ffffffffffffffffffffffffffffffffffffffff16908173ffffffffffffffffffffffffffffffffffffffff1681525050826040015181604001818152505082606001518160600181905250826080015181608001819052508260c001518160c00181905250600a60008773ffffffffffffffffffffffffffffffffffffffff1673ffffffffffffffffffffffffffffffffffffffff1681526020019081526020016000208190806001815401808255809150506001900390600052602060002090600802016000909190919091506000820151816000015560208201518160010160006101000a81548173ffffffffffffffffffffffffffffffffffffffff021916908373ffffffffffffffffffffffffffffffffffffffff16021790555060408201518160020155606082015181600301908051906020019061336c9291906143cc565b5060808201518160040190805190602001906133899291906143cc565b5060a08201518160050190805190602001906133a69291906143cc565b5060c08201518160060190805190602001906133c39291906143cc565b5060e08201518160070160006101000a81548160ff0219169083151502179055505050600d60088460c001516040516133fc9190615173565b9081526020016040518091039020908054613416906159b9565b613421929190614512565b508260c0015160096000878152602001908152602001600020908051906020019061344d9291906143cc565b506001600c600087815260200190815260200160002060000160146101000a81548160ff02191690831515021790555033600c600087815260200190815260200160002060000160006101000a81548173ffffffffffffffffffffffffffffffffffffffff021916908373ffffffffffffffffffffffffffffffffffffffff1602179055508260c00151600c600087815260200190815260200160002060050190805190602001906135009291906143cc565b5061350b8685613fd6565b839650505050505050919050565b6000600560008473ffffffffffffffffffffffffffffffffffffffff1673ffffffffffffffffffffffffffffffffffffffff16815260200190815260200160002060008373ffffffffffffffffffffffffffffffffffffffff1673ffffffffffffffffffffffffffffffffffffffff16815260200190815260200160002060009054906101000a900460ff16905092915050565b606060006002836040516020016135c49190615173565b6040516020818303038152906040526040516135e0919061515c565b602060405180830381855afa1580156135fd573d6000803e3d6000fd5b5050506040513d601f19601f820116820180604052508101906136209190614961565b9050600c60008281526020019081526020016000206004018054613643906159b9565b80601f016020809104026020016040519081016040528092919081815260200182805461366f906159b9565b80156136bc5780601f10613691576101008083540402835291602001916136bc565b820191906000526020600020905b81548152906001019060200180831161369f57829003601f168201915b5050505050915050919050565b6136d161391d565b73ffffffffffffffffffffffffffffffffffffffff166136ef612690565b73ffffffffffffffffffffffffffffffffffffffff1614613745576040517f08c379a000000000000000000000000000000000000000000000000000000000815260040161373c90615580565b60405180910390fd5b600073ffffffffffffffffffffffffffffffffffffffff168173ffffffffffffffffffffffffffffffffffffffff1614156137b5576040517f08c379a00000000000000000000000000000000000000000000000000000000081526004016137ac906153e0565b60405180910390fd5b6137be81613d18565b50565b6137c961391d565b73ffffffffffffffffffffffffffffffffffffffff166137e7612690565b73ffffffffffffffffffffffffffffffffffffffff161461383d576040517f08c379a000000000000000000000000000000000000000000000000000000000815260040161383490615580565b60405180910390fd5b8060118190555050565b60007f01ffc9a7000000000000000000000000000000000000000000000000000000007bffffffffffffffffffffffffffffffffffffffffffffffffffffffff1916827bffffffffffffffffffffffffffffffffffffffffffffffffffffffff1916149050919050565b60008073ffffffffffffffffffffffffffffffffffffffff166002600084815260200190815260200160002060009054906101000a900473ffffffffffffffffffffffffffffffffffffffff1673ffffffffffffffffffffffffffffffffffffffff1614159050919050565b600033905090565b816004600083815260200190815260200160002060006101000a81548173ffffffffffffffffffffffffffffffffffffffff021916908373ffffffffffffffffffffffffffffffffffffffff160217905550808273ffffffffffffffffffffffffffffffffffffffff16613998836118e7565b73ffffffffffffffffffffffffffffffffffffffff167f8c5be1e5ebec7d5bd14f71427d1e84f3dd0314c0f7b2291e5b200ac8c7c3b92560405160405180910390a45050565b60006139e9826138b1565b613a28576040517f08c379a0000000000000000000000000000000000000000000000000000000008152600401613a1f90615480565b60405180910390fd5b6000613a33836118e7565b90508073ffffffffffffffffffffffffffffffffffffffff168473ffffffffffffffffffffffffffffffffffffffff161480613aa257508373ffffffffffffffffffffffffffffffffffffffff16613a8a84610ea1565b73ffffffffffffffffffffffffffffffffffffffff16145b80613ab35750613ab28185613519565b5b91505092915050565b8273ffffffffffffffffffffffffffffffffffffffff16613adc826118e7565b73ffffffffffffffffffffffffffffffffffffffff1614613b32576040517f08c379a0000000000000000000000000000000000000000000000000000000008152600401613b29906155a0565b60405180910390fd5b600073ffffffffffffffffffffffffffffffffffffffff168273ffffffffffffffffffffffffffffffffffffffff161415613ba2576040517f08c379a0000000000000000000000000000000000000000000000000000000008152600401613b9990615420565b60405180910390fd5b613bad838383613ff4565b613bb8600082613925565b6001600360008573ffffffffffffffffffffffffffffffffffffffff1673ffffffffffffffffffffffffffffffffffffffff1681526020019081526020016000206000828254613c0891906158bb565b925050819055506001600360008473ffffffffffffffffffffffffffffffffffffffff1673ffffffffffffffffffffffffffffffffffffffff1681526020019081526020016000206000828254613c5f9190615834565b92505081905550816002600083815260200190815260200160002060006101000a81548173ffffffffffffffffffffffffffffffffffffffff021916908373ffffffffffffffffffffffffffffffffffffffff160217905550808273ffffffffffffffffffffffffffffffffffffffff168473ffffffffffffffffffffffffffffffffffffffff167fddf252ad1be2c89b69c2b068fc378daa952ba7f163c4a11628f55a4df523b3ef60405160405180910390a4505050565b6000600660009054906101000a900473ffffffffffffffffffffffffffffffffffffffff16905081600660006101000a81548173ffffffffffffffffffffffffffffffffffffffff021916908373ffffffffffffffffffffffffffffffffffffffff1602179055508173ffffffffffffffffffffffffffffffffffffffff168173ffffffffffffffffffffffffffffffffffffffff167f8be0079c531659141344cd1fd0a4f28419497f9722a3daafe3b4186f6b6457e060405160405180910390a35050565b6001816000016000828254019250508190555050565b600081600001549050919050565b613e0d848484613abc565b613e1984848484613ff9565b613e58576040517f08c379a0000000000000000000000000000000000000000000000000000000008152600401613e4f906153c0565b60405180910390fd5b50505050565b606060405180602001604052806000815250905090565b60606000821415613ebd576040518060400160405280600181526020017f30000000000000000000000000000000000000000000000000000000000000008152509050613fd1565b600082905060005b60008214613eef578080613ed890615a1c565b915050600a82613ee8919061588a565b9150613ec5565b60008167ffffffffffffffff811115613f0b57613f0a615b52565b5b6040519080825280601f01601f191660200182016040528015613f3d5781602001600182028036833780820191505090505b5090505b60008514613fca57600182613f5691906158bb565b9150600a85613f659190615a65565b6030613f719190615834565b60f81b818381518110613f8757613f86615b23565b5b60200101907effffffffffffffffffffffffffffffffffffffffffffffffffffffffffffff1916908160001a905350600a85613fc3919061588a565b9450613f41565b8093505050505b919050565b613ff0828260405180602001604052806000815250614190565b5050565b505050565b600061401a8473ffffffffffffffffffffffffffffffffffffffff166141eb565b15614183578373ffffffffffffffffffffffffffffffffffffffff1663150b7a0261404361391d565b8786866040518563ffffffff1660e01b81526004016140659493929190615200565b602060405180830381600087803b15801561407f57600080fd5b505af19250505080156140b057506040513d601f19601f820116820180604052508101906140ad9190614a17565b60015b614133573d80600081146140e0576040519150601f19603f3d011682016040523d82523d6000602084013e6140e5565b606091505b5060008151141561412b576040517f08c379a0000000000000000000000000000000000000000000000000000000008152600401614122906153c0565b60405180910390fd5b805181602001fd5b63150b7a0260e01b7bffffffffffffffffffffffffffffffffffffffffffffffffffffffff1916817bffffffffffffffffffffffffffffffffffffffffffffffffffffffff191614915050614188565b600190505b949350505050565b61419a83836141fe565b6141a76000848484613ff9565b6141e6576040517f08c379a00000000000000000000000000000000000000000000000000000000081526004016141dd906153c0565b60405180910390fd5b505050565b600080823b905060008111915050919050565b600073ffffffffffffffffffffffffffffffffffffffff168273ffffffffffffffffffffffffffffffffffffffff16141561426e576040517f08c379a000000000000000000000000000000000000000000000000000000000815260040161426590615520565b60405180910390fd5b614277816138b1565b156142b7576040517f08c379a00000000000000000000000000000000000000000000000000000000081526004016142ae90615400565b60405180910390fd5b6142c360008383613ff4565b6001600360008473ffffffffffffffffffffffffffffffffffffffff1673ffffffffffffffffffffffffffffffffffffffff16815260200190815260200160002060008282546143139190615834565b92505081905550816002600083815260200190815260200160002060006101000a81548173ffffffffffffffffffffffffffffffffffffffff021916908373ffffffffffffffffffffffffffffffffffffffff160217905550808273ffffffffffffffffffffffffffffffffffffffff16600073ffffffffffffffffffffffffffffffffffffffff167fddf252ad1be2c89b69c2b068fc378daa952ba7f163c4a11628f55a4df523b3ef60405160405180910390a45050565b8280546143d8906159b9565b90600052602060002090601f0160209004810192826143fa5760008555614441565b82601f1061441357805160ff1916838001178555614441565b82800160010185558215614441579182015b82811115614440578251825591602001919060010190614425565b5b50905061444e919061459f565b5090565b60405180610100016040528060008152602001600073ffffffffffffffffffffffffffffffffffffffff16815260200160008019168152602001606081526020016060815260200160608152602001606081526020016000151581525090565b604051806101000160405280600073ffffffffffffffffffffffffffffffffffffffff1681526020016000151581526020016000801916815260200160608152602001606081526020016060815260200160608152602001600081525090565b82805461451e906159b9565b90600052602060002090601f016020900481019282614540576000855561458e565b82601f10614551578054855561458e565b8280016001018555821561458e57600052602060002091601f016020900482015b8281111561458d578254825591600101919060010190614572565b5b50905061459b919061459f565b5090565b5b808211156145b85760008160009055506001016145a0565b5090565b60006145cf6145ca8461573a565b615715565b9050828152602081018484840111156145eb576145ea615b86565b5b6145f6848285615977565b509392505050565b600061461161460c8461576b565b615715565b90508281526020810184848401111561462d5761462c615b86565b5b614638848285615977565b509392505050565b60008135905061464f81616192565b92915050565b600081359050614664816161a9565b92915050565b600081519050614679816161a9565b92915050565b60008135905061468e816161c0565b92915050565b6000815190506146a3816161c0565b92915050565b6000813590506146b8816161d7565b92915050565b6000815190506146cd816161d7565b92915050565b600082601f8301126146e8576146e7615b81565b5b81356146f88482602086016145bc565b91505092915050565b600082601f83011261471657614715615b81565b5b81356147268482602086016145fe565b91505092915050565b60008135905061473e816161ee565b92915050565b60006020828403121561475a57614759615b90565b5b600061476884828501614640565b91505092915050565b6000806040838503121561478857614787615b90565b5b600061479685828601614640565b92505060206147a785828601614640565b9150509250929050565b6000806000606084860312156147ca576147c9615b90565b5b60006147d886828701614640565b93505060206147e986828701614640565b92505060406147fa8682870161472f565b9150509250925092565b6000806000806080858703121561481e5761481d615b90565b5b600061482c87828801614640565b945050602061483d87828801614640565b935050604061484e8782880161472f565b925050606085013567ffffffffffffffff81111561486f5761486e615b8b565b5b61487b878288016146d3565b91505092959194509250565b6000806040838503121561489e5761489d615b90565b5b60006148ac85828601614640565b92505060206148bd85828601614655565b9150509250929050565b600080604083850312156148de576148dd615b90565b5b60006148ec85828601614640565b92505060206148fd8582860161472f565b9150509250929050565b60006020828403121561491d5761491c615b90565b5b600061492b8482850161466a565b91505092915050565b60006020828403121561494a57614949615b90565b5b60006149588482850161467f565b91505092915050565b60006020828403121561497757614976615b90565b5b600061498584828501614694565b91505092915050565b600080604083850312156149a5576149a4615b90565b5b60006149b38582860161467f565b925050602083013567ffffffffffffffff8111156149d4576149d3615b8b565b5b6149e085828601614701565b9150509250929050565b600060208284031215614a00576149ff615b90565b5b6000614a0e848285016146a9565b91505092915050565b600060208284031215614a2d57614a2c615b90565b5b6000614a3b848285016146be565b91505092915050565b600060208284031215614a5a57614a59615b90565b5b600082013567ffffffffffffffff811115614a7857614a77615b8b565b5b614a8484828501614701565b91505092915050565b60008060408385031215614aa457614aa3615b90565b5b600083013567ffffffffffffffff811115614ac257614ac1615b8b565b5b614ace85828601614701565b925050602083013567ffffffffffffffff811115614aef57614aee615b8b565b5b614afb85828601614701565b9150509250929050565b600060208284031215614b1b57614b1a615b90565b5b6000614b298482850161472f565b91505092915050565b6000614b3e8383615079565b905092915050565b614b4f816158ef565b82525050565b614b5e816158ef565b82525050565b6000614b6f826157ac565b614b7981856157da565b935083602082028501614b8b8561579c565b8060005b85811015614bc75784840389528151614ba88582614b32565b9450614bb3836157cd565b925060208a01995050600181019050614b8f565b50829750879550505050505092915050565b614be281615901565b82525050565b614bf181615901565b82525050565b614c008161590d565b82525050565b614c0f8161590d565b82525050565b6000614c20826157b7565b614c2a81856157eb565b9350614c3a818560208601615986565b614c4381615b95565b840191505092915050565b6000614c59826157b7565b614c6381856157fc565b9350614c73818560208601615986565b80840191505092915050565b614c8881615943565b82525050565b6000614c99826157c2565b614ca38185615807565b9350614cb3818560208601615986565b614cbc81615b95565b840191505092915050565b6000614cd2826157c2565b614cdc8185615818565b9350614cec818560208601615986565b614cf581615b95565b840191505092915050565b6000614d0b826157c2565b614d158185615829565b9350614d25818560208601615986565b80840191505092915050565b6000614d3e602783615818565b9150614d4982615ba6565b604082019050919050565b6000614d61601683615818565b9150614d6c82615bf5565b602082019050919050565b6000614d84601c83615818565b9150614d8f82615c1e565b602082019050919050565b6000614da7603283615818565b9150614db282615c47565b604082019050919050565b6000614dca602683615818565b9150614dd582615c96565b604082019050919050565b6000614ded601c83615818565b9150614df882615ce5565b602082019050919050565b6000614e10602483615818565b9150614e1b82615d0e565b604082019050919050565b6000614e33601283615818565b9150614e3e82615d5d565b602082019050919050565b6000614e56601983615818565b9150614e6182615d86565b602082019050919050565b6000614e79602c83615818565b9150614e8482615daf565b604082019050919050565b6000614e9c603883615818565b9150614ea782615dfe565b604082019050919050565b6000614ebf601583615818565b9150614eca82615e4d565b602082019050919050565b6000614ee2602a83615818565b9150614eed82615e76565b604082019050919050565b6000614f05602983615818565b9150614f1082615ec5565b604082019050919050565b6000614f28602083615818565b9150614f3382615f14565b602082019050919050565b6000614f4b601483615818565b9150614f5682615f3d565b602082019050919050565b6000614f6e602c83615818565b9150614f7982615f66565b604082019050919050565b6000614f91602083615818565b9150614f9c82615fb5565b602082019050919050565b6000614fb4602983615818565b9150614fbf82615fde565b604082019050919050565b6000614fd7602f83615818565b9150614fe28261602d565b604082019050919050565b6000614ffa602183615818565b91506150058261607c565b604082019050919050565b600061501d603183615818565b9150615028826160cb565b604082019050919050565b6000615040601783615818565b915061504b8261611a565b602082019050919050565b6000615063603083615818565b915061506e82616143565b604082019050919050565b600061010083016000830151615092600086018261513e565b5060208301516150a56020860182614b46565b5060408301516150b86040860182614bf7565b50606083015184820360608601526150d08282614c8e565b915050608083015184820360808601526150ea8282614c8e565b91505060a083015184820360a08601526151048282614c8e565b91505060c083015184820360c086015261511e8282614c8e565b91505060e083015161513360e0860182614bd9565b508091505092915050565b6151478161596d565b82525050565b6151568161596d565b82525050565b60006151688284614c4e565b915081905092915050565b600061517f8284614d00565b915081905092915050565b60006151968285614d00565b91506151a28284614d00565b91508190509392505050565b60006020820190506151c36000830184614b55565b92915050565b60006060820190506151de6000830186614b55565b6151eb6020830185614b55565b6151f8604083018461514d565b949350505050565b60006080820190506152156000830187614b55565b6152226020830186614b55565b61522f604083018561514d565b81810360608301526152418184614c15565b905095945050505050565b600061010082019050615262600083018b614b55565b61526f602083018a614be8565b61527c6040830189614c06565b818103606083015261528e8188614cc7565b905081810360808301526152a28187614cc7565b905081810360a08301526152b68186614cc7565b905081810360c08301526152ca8185614cc7565b90506152d960e083018461514d565b9998505050505050505050565b600060208201905081810360008301526153008184614b64565b905092915050565b600060208201905061531d6000830184614be8565b92915050565b60006020820190506153386000830184614c7f565b92915050565b600060208201905081810360008301526153588184614cc7565b905092915050565b6000602082019050818103600083015261537981614d31565b9050919050565b6000602082019050818103600083015261539981614d54565b9050919050565b600060208201905081810360008301526153b981614d77565b9050919050565b600060208201905081810360008301526153d981614d9a565b9050919050565b600060208201905081810360008301526153f981614dbd565b9050919050565b6000602082019050818103600083015261541981614de0565b9050919050565b6000602082019050818103600083015261543981614e03565b9050919050565b6000602082019050818103600083015261545981614e26565b9050919050565b6000602082019050818103600083015261547981614e49565b9050919050565b6000602082019050818103600083015261549981614e6c565b9050919050565b600060208201905081810360008301526154b981614e8f565b9050919050565b600060208201905081810360008301526154d981614eb2565b9050919050565b600060208201905081810360008301526154f981614ed5565b9050919050565b6000602082019050818103600083015261551981614ef8565b9050919050565b6000602082019050818103600083015261553981614f1b565b9050919050565b6000602082019050818103600083015261555981614f3e565b9050919050565b6000602082019050818103600083015261557981614f61565b9050919050565b6000602082019050818103600083015261559981614f84565b9050919050565b600060208201905081810360008301526155b981614fa7565b9050919050565b600060208201905081810360008301526155d981614fca565b9050919050565b600060208201905081810360008301526155f981614fed565b9050919050565b6000602082019050818103600083015261561981615010565b9050919050565b6000602082019050818103600083015261563981615033565b9050919050565b6000602082019050818103600083015261565981615056565b9050919050565b6000602082019050615675600083018461514d565b92915050565b600061010082019050615691600083018b61514d565b61569e602083018a614b55565b6156ab6040830189614c06565b81810360608301526156bd8188614cc7565b905081810360808301526156d18187614cc7565b905081810360a08301526156e58186614cc7565b905081810360c08301526156f98185614cc7565b905061570860e0830184614be8565b9998505050505050505050565b600061571f615730565b905061572b82826159eb565b919050565b6000604051905090565b600067ffffffffffffffff82111561575557615754615b52565b5b61575e82615b95565b9050602081019050919050565b600067ffffffffffffffff82111561578657615785615b52565b5b61578f82615b95565b9050602081019050919050565b6000819050602082019050919050565b600081519050919050565b600081519050919050565b600081519050919050565b6000602082019050919050565b600082825260208201905092915050565b600082825260208201905092915050565b600081905092915050565b600082825260208201905092915050565b600082825260208201905092915050565b600081905092915050565b600061583f8261596d565b915061584a8361596d565b9250827fffffffffffffffffffffffffffffffffffffffffffffffffffffffffffffffff0382111561587f5761587e615a96565b5b828201905092915050565b60006158958261596d565b91506158a08361596d565b9250826158b0576158af615ac5565b5b828204905092915050565b60006158c68261596d565b91506158d18361596d565b9250828210156158e4576158e3615a96565b5b828203905092915050565b60006158fa8261594d565b9050919050565b60008115159050919050565b6000819050919050565b60007fffffffff0000000000000000000000000000000000000000000000000000000082169050919050565b6000819050919050565b600073ffffffffffffffffffffffffffffffffffffffff82169050919050565b6000819050919050565b82818337600083830152505050565b60005b838110156159a4578082015181840152602081019050615989565b838111156159b3576000848401525b50505050565b600060028204905060018216806159d157607f821691505b602082108114156159e5576159e4615af4565b5b50919050565b6159f482615b95565b810181811067ffffffffffffffff82111715615a1357615a12615b52565b5b80604052505050565b6000615a278261596d565b91507fffffffffffffffffffffffffffffffffffffffffffffffffffffffffffffffff821415615a5a57615a59615a96565b5b600182019050919050565b6000615a708261596d565b9150615a7b8361596d565b925082615a8b57615a8a615ac5565b5b828206905092915050565b7f4e487b7100000000000000000000000000000000000000000000000000000000600052601160045260246000fd5b7f4e487b7100000000000000000000000000000000000000000000000000000000600052601260045260246000fd5b7f4e487b7100000000000000000000000000000000000000000000000000000000600052602260045260246000fd5b7f4e487b7100000000000000000000000000000000000000000000000000000000600052603260045260246000fd5b7f4e487b7100000000000000000000000000000000000000000000000000000000600052604160045260246000fd5b600080fd5b600080fd5b600080fd5b600080fd5b6000601f19601f8301169050919050565b7f536f7272792c20746869732055504320646f6d61696e20697320616c7265616460008201527f792074616b656e00000000000000000000000000000000000000000000000000602082015250565b7f495046532076616c7565206d7573742062652073657400000000000000000000600082015250565b7f4f6e6c79206f776e65722063616e206d696e742074686973206e667400000000600082015250565b7f4552433732313a207472616e7366657220746f206e6f6e20455243373231526560008201527f63656976657220696d706c656d656e7465720000000000000000000000000000602082015250565b7f4f776e61626c653a206e6577206f776e657220697320746865207a65726f206160008201527f6464726573730000000000000000000000000000000000000000000000000000602082015250565b7f4552433732313a20746f6b656e20616c7265616479206d696e74656400000000600082015250565b7f4552433732313a207472616e7366657220746f20746865207a65726f2061646460008201527f7265737300000000000000000000000000000000000000000000000000000000602082015250565b7f4e465420616c7265616479206d696e7465640000000000000000000000000000600082015250565b7f4552433732313a20617070726f766520746f2063616c6c657200000000000000600082015250565b7f4552433732313a206f70657261746f7220717565727920666f72206e6f6e657860008201527f697374656e7420746f6b656e0000000000000000000000000000000000000000602082015250565b7f4552433732313a20617070726f76652063616c6c6572206973206e6f74206f7760008201527f6e6572206e6f7220617070726f76656420666f7220616c6c0000000000000000602082015250565b7f4f6e6c79206f776e65722063616e207365742056520000000000000000000000600082015250565b7f4552433732313a2062616c616e636520717565727920666f7220746865207a6560008201527f726f206164647265737300000000000000000000000000000000000000000000602082015250565b7f4552433732313a206f776e657220717565727920666f72206e6f6e657869737460008201527f656e7420746f6b656e0000000000000000000000000000000000000000000000602082015250565b7f4552433732313a206d696e7420746f20746865207a65726f2061646472657373600082015250565b7f56522076616c7565206d75737420626520736574000000000000000000000000600082015250565b7f4552433732313a20617070726f76656420717565727920666f72206e6f6e657860008201527f697374656e7420746f6b656e0000000000000000000000000000000000000000602082015250565b7f4f776e61626c653a2063616c6c6572206973206e6f7420746865206f776e6572600082015250565b7f4552433732313a207472616e73666572206f6620746f6b656e2074686174206960008201527f73206e6f74206f776e0000000000000000000000000000000000000000000000602082015250565b7f4552433732314d657461646174613a2055524920717565727920666f72206e6f60008201527f6e6578697374656e7420746f6b656e0000000000000000000000000000000000602082015250565b7f4552433732313a20617070726f76616c20746f2063757272656e74206f776e6560008201527f7200000000000000000000000000000000000000000000000000000000000000602082015250565b7f4552433732313a207472616e736665722063616c6c6572206973206e6f74206f60008201527f776e6572206e6f7220617070726f766564000000000000000000000000000000602082015250565b7f4f6e6c79206f776e65722063616e207365742049504653000000000000000000600082015250565b7f4572726f7220747279696e6720746f206d696e7420616e204e4654207468617460008201527f206973206e6f7420696e2072616e676500000000000000000000000000000000602082015250565b61619b816158ef565b81146161a657600080fd5b50565b6161b281615901565b81146161bd57600080fd5b50565b6161c98161590d565b81146161d457600080fd5b50565b6161e081615917565b81146161eb57600080fd5b50565b6161f78161596d565b811461620257600080fd5b5056fea2646970667358221220db8bb9acaa7c13962a19034a23949fd045472be97da23fd1452b9614516d797c64736f6c63430008070033516d656a4e33355150706d4a585a35356a67566a5655314e6754477767476735477566576438317252435a50463468747470733a2f2f687562732e6d6f7a696c6c612e636f6d2f4b4e575a5667662f617573746572652d63617265667265652d6e6174696f6e",
  "immutableReferences": {},
  "source": "// SPDX-License-Identifier: MIT\npragma solidity ^0.8.0;\n\npragma experimental ABIEncoderV2;\n\nimport \"./openzeppelin-contracts/contracts/token/ERC721/ERC721.sol\";\nimport \"./openzeppelin-contracts/contracts/utils/Counters.sol\";\nimport \"./openzeppelin-contracts/contracts/access/Ownable.sol\";\n\nimport \"./xUPC.sol\";\n\ncontract UPCNFT is ERC721, Ownable {\n    using Counters for Counters.Counter;\n    Counters.Counter private _tokenIds;\n\n\n    struct NFTMeta {\n        uint256  tokenId;\n        address  staker;  //address of the staker\n        bytes32  upcHash;\n        string   word;\n        string   ipfs;\n        string   vr;\n        string   humanReadableName;\n        bool     minted;\n    }\n    \n    struct NFTLookup {\n        address  staker;  //address of the staker\n        bool     minted;\n        bytes32  upcHash;\n        string   word;\n        string   ipfs;\n        string   vr;\n        string   humanReadableName;\n        uint256  tokenId;\n    }    \n\n    \n    mapping(string => string)    public hashedHumanReadableLookup;\n    mapping(bytes32 => string)    public upcHashToDomain;\n\n    mapping(address => NFTMeta[])    public addressToNFTMeta;\n    mapping(address => NFTMeta[])    public nftsToMintByAddress;\n    mapping(bytes32 => NFTLookup)    public nftsToMintByHash;\n    string public defaultIpfs;\n    string public defaultVr;\n    address payable private  bank;\n    uint    public totalBalance;\n    uint256    currentNftPrice;\n    xUPC    private _token;\n\n    constructor() ERC721(\"UPCNFT\", \"UPCN\") Ownable() public {\n        bank = payable(msg.sender);\n        defaultIpfs = \"QmejN35QPpmJXZ55jgVjVU1NgTGwgGg5GufWd81rRCZPF4\";\n        defaultVr = \"https://hubs.mozilla.com/KNWZVgf/austere-carefree-nation\";\n        currentNftPrice = 1 ether;\n    }\n\n    function setPayToken(address  addy) external onlyOwner {\n        _token = xUPC(addy);\n    }\n\n    function getMyNfts() external view returns(NFTMeta[] memory) {\n        return addressToNFTMeta[msg.sender];\n    }\n    \n    function setCurrentNftPrice(uint  _price) external onlyOwner {\n        currentNftPrice = _price;\n    }\n\n\n    function buyNft(string memory upcId, string memory humanReadableName) public {\n        \n        bytes memory testStr = bytes(humanReadableName); // Uses memory\n        require(testStr.length > 0 , \"Sorry, this UPC domain is already taken\");        \n        _token.transferFrom(msg.sender, address(this), currentNftPrice);\n        bytes32 upcHash = sha256(abi.encodePacked(upcId));\n        _tokenIds.increment();\n        uint256 newNftTokenId = _tokenIds.current();\n        \n        //add the metadata to the array to alert that an nft is available for minting\n        NFTMeta memory nftMeta;\n        nftMeta.tokenId = newNftTokenId;\n        nftMeta.staker = msg.sender;\n        nftMeta.upcHash = upcHash;\n        nftMeta.word = upcId;\n        nftMeta.ipfs = defaultIpfs;\n        nftMeta.humanReadableName = humanReadableName;\n        nftMeta.minted = false;\n        nftMeta.vr = defaultVr;\n        nftsToMintByAddress[msg.sender].push(nftMeta);\n        \n        NFTLookup memory nftLookup;\n        nftLookup.tokenId = newNftTokenId;\n        nftLookup.minted = false;\n        nftLookup.staker = msg.sender;\n        \n        nftLookup.ipfs = defaultIpfs;\n        nftLookup.vr = defaultVr;\n\n        nftsToMintByHash[upcHash] = nftLookup;\n    }\n\n\n    //returns the position in the address array that an nft holds\n    function findTokenIndexByAddress(address owner, uint256 tokenId) public payable returns (int) {\n        uint i = 0;\n        int found = -1;\n        for(i = 0; i < nftsToMintByAddress[owner].length; i++) {\n            if(nftsToMintByAddress[owner][i].tokenId == tokenId) {\n               found = int(i);\n            }\n        }\n        return found;\n    }\n    \n    \n    function getVrByUpcId(string memory upcId) public view returns (string memory) {\n        bytes32 upcHash = sha256(abi.encodePacked(upcId));\n        return nftsToMintByHash[upcHash].vr;\n    }\n        \n    \n    function getVrByHash(bytes32 upcHash) public view returns (string memory) {\n        return nftsToMintByHash[upcHash].vr;\n    }\n    \n    \n    function getIpfsByHash(bytes32 upcHash) public view returns (string memory) {\n        return nftsToMintByHash[upcHash].ipfs;\n    }    \n\n    function getHumanReadableNameByHash(bytes32 upcHash) public view returns (string memory) {\n        return nftsToMintByHash[upcHash].humanReadableName;\n    }    \n\n\n    \n    function setVrByHash(bytes32 upcHash, string memory _vr) public {\n        require(msg.sender == nftsToMintByHash[upcHash].staker , \"Only owner can set VR\");\n        bytes memory testStr = bytes(_vr); // Uses memory\n        require(testStr.length > 0 , \"VR value must be set\");\n        nftsToMintByHash[upcHash].vr = _vr;\n    }\n    \n    \n    function setIpfsByHash(bytes32 upcHash, string memory _ipfs) public {\n        require(msg.sender == nftsToMintByHash[upcHash].staker , \"Only owner can set IPFS\");\n        \n        bytes memory testStr = bytes(_ipfs); // Uses memory\n\n        \n        require(testStr.length > 0 , \"IPFS value must be set\");\n        nftsToMintByHash[upcHash].ipfs = _ipfs;\n    }    \n\n\n    function mintNft(string memory upcId) public payable returns (uint256) {\n\n        address staker = msg.sender;\n        bytes32 upcHash = sha256(abi.encodePacked(upcId));\n\n        require(msg.sender == nftsToMintByHash[upcHash].staker , \"Only owner can mint this nft\");\n        require(nftsToMintByHash[upcHash].minted == false, \"NFT already minted\");\n    \n        uint256 tokenIdToMint = nftsToMintByHash[upcHash].tokenId;\n        NFTMeta memory nftToMint;\n\n        int indexToMint = findTokenIndexByAddress(msg.sender, tokenIdToMint);\n        \n\n        require(indexToMint >= 0, \"Error trying to mint an NFT that is not in range\");\n        \n        //cast the result to a uint\n        nftToMint = nftsToMintByAddress[msg.sender][uint(indexToMint)];\n\n\n        NFTMeta memory nftMeta;\n        nftMeta.tokenId = nftToMint.tokenId;\n        nftMeta.staker = nftToMint.staker;\n        nftMeta.upcHash = nftToMint.upcHash;\n        nftMeta.word = nftToMint.word;\n        nftMeta.ipfs = nftToMint.ipfs;\n        nftMeta.humanReadableName = nftToMint.humanReadableName;\n        \n        addressToNFTMeta[staker].push(nftMeta);\n        hashedHumanReadableLookup[nftToMint.humanReadableName] = defaultIpfs;\n        \n        upcHashToDomain[upcHash] = nftToMint.humanReadableName;\n        \n        //update this upc as minted\n        nftsToMintByHash[upcHash].minted = true;\n        nftsToMintByHash[upcHash].staker = msg.sender;\n        nftsToMintByHash[upcHash].humanReadableName = nftToMint.humanReadableName;\n        \n    \n        _safeMint(staker, tokenIdToMint);\n        //_setTokenURI(tokenIdToMint, defaultIpfs);\n        return tokenIdToMint;\n\n    }\n}\n",
  "sourcePath": "/home/tenten/Projects/upcgold.io/src/contracts/UPCNFT.sol",
  "compiler": {
    "name": "solc",
    "version": "0.8.7+commit.e28d00a7.Emscripten.clang"
  },
  "schemaVersion": "3.4.3",
  "updatedAt": "2021-08-20T14:44:45.345Z",
  "networkType": "ethereum",
  "devdoc": {
    "kind": "dev",
    "methods": {
      "approve(address,uint256)": {
        "details": "See {IERC721-approve}."
      },
      "balanceOf(address)": {
        "details": "See {IERC721-balanceOf}."
      },
      "getApproved(uint256)": {
        "details": "See {IERC721-getApproved}."
      },
      "isApprovedForAll(address,address)": {
        "details": "See {IERC721-isApprovedForAll}."
      },
      "name()": {
        "details": "See {IERC721Metadata-name}."
      },
      "owner()": {
        "details": "Returns the address of the current owner."
      },
      "ownerOf(uint256)": {
        "details": "See {IERC721-ownerOf}."
      },
      "renounceOwnership()": {
        "details": "Leaves the contract without owner. It will not be possible to call `onlyOwner` functions anymore. Can only be called by the current owner. NOTE: Renouncing ownership will leave the contract without an owner, thereby removing any functionality that is only available to the owner."
      },
      "safeTransferFrom(address,address,uint256)": {
        "details": "See {IERC721-safeTransferFrom}."
      },
      "safeTransferFrom(address,address,uint256,bytes)": {
        "details": "See {IERC721-safeTransferFrom}."
      },
      "setApprovalForAll(address,bool)": {
        "details": "See {IERC721-setApprovalForAll}."
      },
      "supportsInterface(bytes4)": {
        "details": "See {IERC165-supportsInterface}."
      },
      "symbol()": {
        "details": "See {IERC721Metadata-symbol}."
      },
      "tokenURI(uint256)": {
        "details": "See {IERC721Metadata-tokenURI}."
      },
      "transferFrom(address,address,uint256)": {
        "details": "See {IERC721-transferFrom}."
      },
      "transferOwnership(address)": {
        "details": "Transfers ownership of the contract to a new account (`newOwner`). Can only be called by the current owner."
      }
    },
    "version": 1
  },
  "userdoc": {
    "kind": "user",
    "methods": {},
    "version": 1
  }
}