{
  "contractName": "DummyImplementationV2",
  "abi": [
    {
      "inputs": [],
      "name": "get",
      "outputs": [
        {
          "internalType": "bool",
          "name": "",
          "type": "bool"
        }
      ],
      "stateMutability": "pure",
      "type": "function"
    },
    {
      "inputs": [
        {
          "internalType": "uint256",
          "name": "_value",
          "type": "uint256"
        },
        {
          "internalType": "string",
          "name": "_text",
          "type": "string"
        },
        {
          "internalType": "uint256[]",
          "name": "_values",
          "type": "uint256[]"
        }
      ],
      "name": "initialize",
      "outputs": [],
      "stateMutability": "nonpayable",
      "type": "function"
    },
    {
      "inputs": [],
      "name": "initializeNonPayable",
      "outputs": [],
      "stateMutability": "nonpayable",
      "type": "function"
    },
    {
      "inputs": [
        {
          "internalType": "uint256",
          "name": "_value",
          "type": "uint256"
        }
      ],
      "name": "initializeNonPayableWithValue",
      "outputs": [],
      "stateMutability": "nonpayable",
      "type": "function"
    },
    {
      "inputs": [],
      "name": "initializePayable",
      "outputs": [],
      "stateMutability": "payable",
      "type": "function"
    },
    {
      "inputs": [
        {
          "internalType": "uint256",
          "name": "_value",
          "type": "uint256"
        }
      ],
      "name": "initializePayableWithValue",
      "outputs": [],
      "stateMutability": "payable",
      "type": "function"
    },
    {
      "inputs": [],
      "name": "reverts",
      "outputs": [],
      "stateMutability": "pure",
      "type": "function"
    },
    {
      "inputs": [],
      "name": "text",
      "outputs": [
        {
          "internalType": "string",
          "name": "",
          "type": "string"
        }
      ],
      "stateMutability": "view",
      "type": "function"
    },
    {
      "inputs": [],
      "name": "value",
      "outputs": [
        {
          "internalType": "uint256",
          "name": "",
          "type": "uint256"
        }
      ],
      "stateMutability": "view",
      "type": "function"
    },
    {
      "inputs": [
        {
          "internalType": "uint256",
          "name": "",
          "type": "uint256"
        }
      ],
      "name": "values",
      "outputs": [
        {
          "internalType": "uint256",
          "name": "",
          "type": "uint256"
        }
      ],
      "stateMutability": "view",
      "type": "function"
    },
    {
      "inputs": [
        {
          "internalType": "uint256",
          "name": "newVal",
          "type": "uint256"
        }
      ],
      "name": "migrate",
      "outputs": [],
      "stateMutability": "payable",
      "type": "function"
    },
    {
      "inputs": [],
      "name": "version",
      "outputs": [
        {
          "internalType": "string",
          "name": "",
          "type": "string"
        }
      ],
      "stateMutability": "pure",
      "type": "function"
    }
  ],
  "bytecode": "0x608060405234801561001057600080fd5b50610a18806100206000396000f3fe6080604052600436106100a75760003560e01c80635e383d21116100645780635e383d21146101775780636d4ce63c146101b4578063763e2831146101df5780639fba1f9a14610208578063d31f8b6b14610212578063e79f5bee1461023b576100a7565b80631f1bd692146100ac578063227367d5146100d75780633bccbbc9146100ee5780633fa4f24514610105578063454b06081461013057806354fd4d501461014c575b600080fd5b3480156100b857600080fd5b506100c1610257565b6040516100ce9190610764565b60405180910390f35b3480156100e357600080fd5b506100ec6102e5565b005b3480156100fa57600080fd5b506101036102ef565b005b34801561011157600080fd5b5061011a610332565b60405161012791906107a6565b60405180910390f35b61014a60048036038101906101459190610617565b610338565b005b34801561015857600080fd5b50610161610342565b60405161016e9190610764565b60405180910390f35b34801561018357600080fd5b5061019e60048036038101906101999190610617565b61037f565b6040516101ab91906107a6565b60405180910390f35b3480156101c057600080fd5b506101c96103a3565b6040516101d69190610749565b60405180910390f35b3480156101eb57600080fd5b5061020660048036038101906102019190610617565b6103ac565b005b6102106103b6565b005b34801561021e57600080fd5b5061023960048036038101906102349190610644565b6103c0565b005b61025560048036038101906102509190610617565b6103fa565b005b60018054610264906108b7565b80601f0160208091040260200160405190810160405280929190818152602001828054610290906108b7565b80156102dd5780601f106102b2576101008083540402835291602001916102dd565b820191906000526020600020905b8154815290600101906020018083116102c057829003601f168201915b505050505081565b600a600081905550565b6000610330576040517f08c379a000000000000000000000000000000000000000000000000000000000815260040161032790610786565b60405180910390fd5b565b60005481565b8060008190555050565b60606040518060400160405280600281526020017f5632000000000000000000000000000000000000000000000000000000000000815250905090565b6002818154811061038f57600080fd5b906000526020600020016000915090505481565b60006001905090565b8060008190555050565b6064600081905550565b8260008190555081600190805190602001906103dd929190610404565b5080600290805190602001906103f492919061048a565b50505050565b8060008190555050565b828054610410906108b7565b90600052602060002090601f0160209004810192826104325760008555610479565b82601f1061044b57805160ff1916838001178555610479565b82800160010185558215610479579182015b8281111561047857825182559160200191906001019061045d565b5b50905061048691906104d7565b5090565b8280548282559060005260206000209081019282156104c6579160200282015b828111156104c55782518255916020019190600101906104aa565b5b5090506104d391906104d7565b5090565b5b808211156104f05760008160009055506001016104d8565b5090565b6000610507610502846107e6565b6107c1565b9050808382526020820190508285602086028201111561052a5761052961097d565b5b60005b8581101561055a57816105408882610602565b84526020840193506020830192505060018101905061052d565b5050509392505050565b600061057761057284610812565b6107c1565b90508281526020810184848401111561059357610592610982565b5b61059e848285610875565b509392505050565b600082601f8301126105bb576105ba610978565b5b81356105cb8482602086016104f4565b91505092915050565b600082601f8301126105e9576105e8610978565b5b81356105f9848260208601610564565b91505092915050565b600081359050610611816109cb565b92915050565b60006020828403121561062d5761062c61098c565b5b600061063b84828501610602565b91505092915050565b60008060006060848603121561065d5761065c61098c565b5b600061066b86828701610602565b935050602084013567ffffffffffffffff81111561068c5761068b610987565b5b610698868287016105d4565b925050604084013567ffffffffffffffff8111156106b9576106b8610987565b5b6106c5868287016105a6565b9150509250925092565b6106d88161085f565b82525050565b60006106e982610843565b6106f3818561084e565b9350610703818560208601610884565b61070c81610991565b840191505092915050565b6000610724601c8361084e565b915061072f826109a2565b602082019050919050565b6107438161086b565b82525050565b600060208201905061075e60008301846106cf565b92915050565b6000602082019050818103600083015261077e81846106de565b905092915050565b6000602082019050818103600083015261079f81610717565b9050919050565b60006020820190506107bb600083018461073a565b92915050565b60006107cb6107dc565b90506107d782826108e9565b919050565b6000604051905090565b600067ffffffffffffffff82111561080157610800610949565b5b602082029050602081019050919050565b600067ffffffffffffffff82111561082d5761082c610949565b5b61083682610991565b9050602081019050919050565b600081519050919050565b600082825260208201905092915050565b60008115159050919050565b6000819050919050565b82818337600083830152505050565b60005b838110156108a2578082015181840152602081019050610887565b838111156108b1576000848401525b50505050565b600060028204905060018216806108cf57607f821691505b602082108114156108e3576108e261091a565b5b50919050565b6108f282610991565b810181811067ffffffffffffffff8211171561091157610910610949565b5b80604052505050565b7f4e487b7100000000000000000000000000000000000000000000000000000000600052602260045260246000fd5b7f4e487b7100000000000000000000000000000000000000000000000000000000600052604160045260246000fd5b600080fd5b600080fd5b600080fd5b600080fd5b600080fd5b6000601f19601f8301169050919050565b7f44756d6d79496d706c656d656e746174696f6e20726576657274656400000000600082015250565b6109d48161086b565b81146109df57600080fd5b5056fea2646970667358221220875dd9d3aac7c6d78f9b46f4802c11f160f3d98e4a53674471bd8623e839c22964736f6c63430008070033",
  "immutableReferences": {},
  "source": "// SPDX-License-Identifier: MIT\n\npragma solidity ^0.8.0;\n\nabstract contract Impl {\n    function version() public pure virtual returns (string memory);\n}\n\ncontract DummyImplementation {\n    uint256 public value;\n    string public text;\n    uint256[] public values;\n\n    function initializeNonPayable() public {\n        value = 10;\n    }\n\n    function initializePayable() public payable {\n        value = 100;\n    }\n\n    function initializeNonPayableWithValue(uint256 _value) public {\n        value = _value;\n    }\n\n    function initializePayableWithValue(uint256 _value) public payable {\n        value = _value;\n    }\n\n    function initialize(\n        uint256 _value,\n        string memory _text,\n        uint256[] memory _values\n    ) public {\n        value = _value;\n        text = _text;\n        values = _values;\n    }\n\n    function get() public pure returns (bool) {\n        return true;\n    }\n\n    function version() public pure virtual returns (string memory) {\n        return \"V1\";\n    }\n\n    function reverts() public pure {\n        require(false, \"DummyImplementation reverted\");\n    }\n}\n\ncontract DummyImplementationV2 is DummyImplementation {\n    function migrate(uint256 newVal) public payable {\n        value = newVal;\n    }\n\n    function version() public pure override returns (string memory) {\n        return \"V2\";\n    }\n}\n",
  "sourcePath": "/home/tenten/Projects/upcgold.io/src/contracts/openzeppelin-contracts/contracts/mocks/DummyImplementation.sol",
  "compiler": {
    "name": "solc",
    "version": "0.8.7+commit.e28d00a7.Emscripten.clang"
  },
  "schemaVersion": "3.2.3",
  "updatedAt": "2021-08-12T03:39:31.199Z",
  "devdoc": {
    "kind": "dev",
    "methods": {},
    "version": 1
  },
  "userdoc": {
    "kind": "user",
    "methods": {},
    "version": 1
  }
}