{
  "contractName": "EIP712External",
  "abi": [
    {
      "inputs": [
        {
          "internalType": "string",
          "name": "name",
          "type": "string"
        },
        {
          "internalType": "string",
          "name": "version",
          "type": "string"
        }
      ],
      "stateMutability": "nonpayable",
      "type": "constructor"
    },
    {
      "inputs": [],
      "name": "domainSeparator",
      "outputs": [
        {
          "internalType": "bytes32",
          "name": "",
          "type": "bytes32"
        }
      ],
      "stateMutability": "view",
      "type": "function"
    },
    {
      "inputs": [
        {
          "internalType": "bytes",
          "name": "signature",
          "type": "bytes"
        },
        {
          "internalType": "address",
          "name": "signer",
          "type": "address"
        },
        {
          "internalType": "address",
          "name": "mailTo",
          "type": "address"
        },
        {
          "internalType": "string",
          "name": "mailContents",
          "type": "string"
        }
      ],
      "name": "verify",
      "outputs": [],
      "stateMutability": "view",
      "type": "function"
    },
    {
      "inputs": [],
      "name": "getChainId",
      "outputs": [
        {
          "internalType": "uint256",
          "name": "",
          "type": "uint256"
        }
      ],
      "stateMutability": "view",
      "type": "function"
    }
  ],
  "bytecode": "0x6101206040523480156200001257600080fd5b50604051620010b5380380620010b5833981810160405281019062000038919062000179565b818160008280519060200120905060008280519060200120905060007f8b73c3c69bb8fe3d512ecc4cf759cc79239f7b179b0ffacaa9a75d522b39400f90508260c081815250508160e081815250504660a08181525050620000a2818484620000bf60201b60201c565b6080818152505080610100818152505050505050505050620003f5565b60008383834630604051602001620000dc95949392919062000231565b6040516020818303038152906040528051906020012090509392505050565b6000620001126200010c84620002b7565b6200028e565b905082815260208101848484011115620001315762000130620003d5565b5b6200013e84828562000335565b509392505050565b600082601f8301126200015e576200015d620003d0565b5b815162000170848260208601620000fb565b91505092915050565b60008060408385031215620001935762000192620003df565b5b600083015167ffffffffffffffff811115620001b457620001b3620003da565b5b620001c28582860162000146565b925050602083015167ffffffffffffffff811115620001e657620001e5620003da565b5b620001f48582860162000146565b9150509250929050565b6200020981620002ed565b82525050565b6200021a8162000301565b82525050565b6200022b816200032b565b82525050565b600060a0820190506200024860008301886200020f565b6200025760208301876200020f565b6200026660408301866200020f565b62000275606083018562000220565b620002846080830184620001fe565b9695505050505050565b60006200029a620002ad565b9050620002a882826200036b565b919050565b6000604051905090565b600067ffffffffffffffff821115620002d557620002d4620003a1565b5b620002e082620003e4565b9050602081019050919050565b6000620002fa826200030b565b9050919050565b6000819050919050565b600073ffffffffffffffffffffffffffffffffffffffff82169050919050565b6000819050919050565b60005b838110156200035557808201518184015260208101905062000338565b8381111562000365576000848401525b50505050565b6200037682620003e4565b810181811067ffffffffffffffff82111715620003985762000397620003a1565b5b80604052505050565b7f4e487b7100000000000000000000000000000000000000000000000000000000600052604160045260246000fd5b600080fd5b600080fd5b600080fd5b600080fd5b6000601f19601f8301169050919050565b60805160a05160c05160e05161010051610c7b6200043a6000396000610281015260006102c3015260006102a20152600061022e015260006102560152610c7b6000f3fe608060405234801561001057600080fd5b50600436106100415760003560e01c806308c6e079146100465780633408e47014610062578063f698da2514610080575b600080fd5b610060600480360381019061005b9190610624565b61009e565b005b61006a61014a565b6040516100779190610966565b60405180910390f35b610088610152565b60405161009591906107fc565b60405180910390f35b60006100fa7f847fc9da8ec3c72cae85ca691245eaeb0a4a1e74f77c3a919c43afda231d39ba8484805190602001206040516020016100df93929190610817565b60405160208183030381529060405280519060200120610161565b90506000610108828761017b565b90508473ffffffffffffffffffffffffffffffffffffffff168173ffffffffffffffffffffffffffffffffffffffff161461014257600080fd5b505050505050565b600046905090565b600061015c61022a565b905090565b600061017461016e61022a565b836102ed565b9050919050565b60006041825114156101ba5760008060006020850151925060408501519150606085015160001a90506101b086828585610320565b9350505050610224565b6040825114156101e95760008060208401519150604084015190506101e08583836104ab565b92505050610224565b6040517f08c379a000000000000000000000000000000000000000000000000000000000815260040161021b90610906565b60405180910390fd5b92915050565b60007f000000000000000000000000000000000000000000000000000000000000000046141561027c577f000000000000000000000000000000000000000000000000000000000000000090506102ea565b6102e77f00000000000000000000000000000000000000000000000000000000000000007f00000000000000000000000000000000000000000000000000000000000000007f00000000000000000000000000000000000000000000000000000000000000006104f5565b90505b90565b600082826040516020016103029291906107c5565b60405160208183030381529060405280519060200120905092915050565b60007f7fffffffffffffffffffffffffffffff5d576e7357a4501ddfe92f46681b20a08260001c1115610388576040517f08c379a000000000000000000000000000000000000000000000000000000000815260040161037f90610926565b60405180910390fd5b601b8460ff16148061039d5750601c8460ff16145b6103dc576040517f08c379a00000000000000000000000000000000000000000000000000000000081526004016103d390610946565b60405180910390fd5b60006001868686866040516000815260200160405260405161040194939291906108a1565b6020604051602081039080840390855afa158015610423573d6000803e3d6000fd5b505050602060405103519050600073ffffffffffffffffffffffffffffffffffffffff168173ffffffffffffffffffffffffffffffffffffffff16141561049f576040517f08c379a0000000000000000000000000000000000000000000000000000000008152600401610496906108e6565b60405180910390fd5b80915050949350505050565b60008060007f7fffffffffffffffffffffffffffffffffffffffffffffffffffffffffffffff84169150601b8460ff1c0190506104ea86828785610320565b925050509392505050565b6000838383463060405160200161051095949392919061084e565b6040516020818303038152906040528051906020012090509392505050565b600061054261053d846109a6565b610981565b90508281526020810184848401111561055e5761055d610af5565b5b610569848285610a77565b509392505050565b600061058461057f846109d7565b610981565b9050828152602081018484840111156105a05761059f610af5565b5b6105ab848285610a77565b509392505050565b6000813590506105c281610c2e565b92915050565b600082601f8301126105dd576105dc610af0565b5b81356105ed84826020860161052f565b91505092915050565b600082601f83011261060b5761060a610af0565b5b813561061b848260208601610571565b91505092915050565b6000806000806080858703121561063e5761063d610aff565b5b600085013567ffffffffffffffff81111561065c5761065b610afa565b5b610668878288016105c8565b9450506020610679878288016105b3565b935050604061068a878288016105b3565b925050606085013567ffffffffffffffff8111156106ab576106aa610afa565b5b6106b7878288016105f6565b91505092959194509250565b6106cc81610a24565b82525050565b6106db81610a36565b82525050565b6106f26106ed82610a36565b610ab7565b82525050565b6000610705601883610a08565b915061071082610b15565b602082019050919050565b6000610728601f83610a08565b915061073382610b3e565b602082019050919050565b600061074b600283610a19565b915061075682610b67565b600282019050919050565b600061076e602283610a08565b915061077982610b90565b604082019050919050565b6000610791602283610a08565b915061079c82610bdf565b604082019050919050565b6107b081610a60565b82525050565b6107bf81610a6a565b82525050565b60006107d08261073e565b91506107dc82856106e1565b6020820191506107ec82846106e1565b6020820191508190509392505050565b600060208201905061081160008301846106d2565b92915050565b600060608201905061082c60008301866106d2565b61083960208301856106c3565b61084660408301846106d2565b949350505050565b600060a08201905061086360008301886106d2565b61087060208301876106d2565b61087d60408301866106d2565b61088a60608301856107a7565b61089760808301846106c3565b9695505050505050565b60006080820190506108b660008301876106d2565b6108c360208301866107b6565b6108d060408301856106d2565b6108dd60608301846106d2565b95945050505050565b600060208201905081810360008301526108ff816106f8565b9050919050565b6000602082019050818103600083015261091f8161071b565b9050919050565b6000602082019050818103600083015261093f81610761565b9050919050565b6000602082019050818103600083015261095f81610784565b9050919050565b600060208201905061097b60008301846107a7565b92915050565b600061098b61099c565b90506109978282610a86565b919050565b6000604051905090565b600067ffffffffffffffff8211156109c1576109c0610ac1565b5b6109ca82610b04565b9050602081019050919050565b600067ffffffffffffffff8211156109f2576109f1610ac1565b5b6109fb82610b04565b9050602081019050919050565b600082825260208201905092915050565b600081905092915050565b6000610a2f82610a40565b9050919050565b6000819050919050565b600073ffffffffffffffffffffffffffffffffffffffff82169050919050565b6000819050919050565b600060ff82169050919050565b82818337600083830152505050565b610a8f82610b04565b810181811067ffffffffffffffff82111715610aae57610aad610ac1565b5b80604052505050565b6000819050919050565b7f4e487b7100000000000000000000000000000000000000000000000000000000600052604160045260246000fd5b600080fd5b600080fd5b600080fd5b600080fd5b6000601f19601f8301169050919050565b7f45434453413a20696e76616c6964207369676e61747572650000000000000000600082015250565b7f45434453413a20696e76616c6964207369676e6174757265206c656e67746800600082015250565b7f1901000000000000000000000000000000000000000000000000000000000000600082015250565b7f45434453413a20696e76616c6964207369676e6174757265202773272076616c60008201527f7565000000000000000000000000000000000000000000000000000000000000602082015250565b7f45434453413a20696e76616c6964207369676e6174757265202776272076616c60008201527f7565000000000000000000000000000000000000000000000000000000000000602082015250565b610c3781610a24565b8114610c4257600080fd5b5056fea26469706673582212207a68aa2bc79f94ec8f84bd14f4ac44f76c0b13beb55375a48170247f53b23ee564736f6c63430008070033",
  "immutableReferences": {
    "24333": [
      {
        "length": 32,
        "start": 598
      }
    ],
    "24335": [
      {
        "length": 32,
        "start": 558
      }
    ],
    "24337": [
      {
        "length": 32,
        "start": 674
      }
    ],
    "24339": [
      {
        "length": 32,
        "start": 707
      }
    ],
    "24341": [
      {
        "length": 32,
        "start": 641
      }
    ]
  },
  "source": "// SPDX-License-Identifier: MIT\n\npragma solidity ^0.8.0;\n\nimport \"../utils/cryptography/draft-EIP712.sol\";\nimport \"../utils/cryptography/ECDSA.sol\";\n\ncontract EIP712External is EIP712 {\n    constructor(string memory name, string memory version) EIP712(name, version) {}\n\n    function domainSeparator() external view returns (bytes32) {\n        return _domainSeparatorV4();\n    }\n\n    function verify(\n        bytes memory signature,\n        address signer,\n        address mailTo,\n        string memory mailContents\n    ) external view {\n        bytes32 digest = _hashTypedDataV4(\n            keccak256(abi.encode(keccak256(\"Mail(address to,string contents)\"), mailTo, keccak256(bytes(mailContents))))\n        );\n        address recoveredSigner = ECDSA.recover(digest, signature);\n        require(recoveredSigner == signer);\n    }\n\n    function getChainId() external view returns (uint256) {\n        return block.chainid;\n    }\n}\n",
  "sourcePath": "/home/tenten/Projects/upcgold.io/src/contracts/openzeppelin-contracts/contracts/mocks/EIP712External.sol",
  "compiler": {
    "name": "solc",
    "version": "0.8.7+commit.e28d00a7.Emscripten.clang"
  },
  "schemaVersion": "3.2.3",
  "updatedAt": "2021-08-12T03:39:31.205Z",
  "devdoc": {
    "kind": "dev",
    "methods": {},
    "version": 1
  },
  "userdoc": {
    "kind": "user",
    "methods": {},
    "version": 1
  }
}