{
  "contractName": "EnumerableBytes32SetMock",
  "abi": [
    {
      "anonymous": false,
      "inputs": [
        {
          "indexed": false,
          "internalType": "bool",
          "name": "result",
          "type": "bool"
        }
      ],
      "name": "OperationResult",
      "type": "event"
    },
    {
      "inputs": [
        {
          "internalType": "bytes32",
          "name": "value",
          "type": "bytes32"
        }
      ],
      "name": "contains",
      "outputs": [
        {
          "internalType": "bool",
          "name": "",
          "type": "bool"
        }
      ],
      "stateMutability": "view",
      "type": "function"
    },
    {
      "inputs": [
        {
          "internalType": "bytes32",
          "name": "value",
          "type": "bytes32"
        }
      ],
      "name": "add",
      "outputs": [],
      "stateMutability": "nonpayable",
      "type": "function"
    },
    {
      "inputs": [
        {
          "internalType": "bytes32",
          "name": "value",
          "type": "bytes32"
        }
      ],
      "name": "remove",
      "outputs": [],
      "stateMutability": "nonpayable",
      "type": "function"
    },
    {
      "inputs": [],
      "name": "length",
      "outputs": [
        {
          "internalType": "uint256",
          "name": "",
          "type": "uint256"
        }
      ],
      "stateMutability": "view",
      "type": "function"
    },
    {
      "inputs": [
        {
          "internalType": "uint256",
          "name": "index",
          "type": "uint256"
        }
      ],
      "name": "at",
      "outputs": [
        {
          "internalType": "bytes32",
          "name": "",
          "type": "bytes32"
        }
      ],
      "stateMutability": "view",
      "type": "function"
    },
    {
      "inputs": [],
      "name": "values",
      "outputs": [
        {
          "internalType": "bytes32[]",
          "name": "",
          "type": "bytes32[]"
        }
      ],
      "stateMutability": "view",
      "type": "function"
    }
  ],
  "bytecode": "0x608060405234801561001057600080fd5b5061082e806100206000396000f3fe608060405234801561001057600080fd5b50600436106100625760003560e01c80631d1a696d146100675780631f7b6d3214610097578063446bffba146100b557806395bc2673146100d1578063971217b7146100ed578063e0886f901461010b575b600080fd5b610081600480360381019061007c919061052c565b61013b565b60405161008e919061065a565b60405180910390f35b61009f610158565b6040516100ac9190610690565b60405180910390f35b6100cf60048036038101906100ca919061052c565b610169565b005b6100eb60048036038101906100e6919061052c565b6101bc565b005b6100f561020f565b6040516101029190610638565b60405180910390f35b61012560048036038101906101209190610559565b610220565b6040516101329190610675565b60405180910390f35b600061015182600061023d90919063ffffffff16565b9050919050565b60006101646000610254565b905090565b600061017f82600061026990919063ffffffff16565b90507fed9840e0775590557ad736875d96c95cf1458b766335f74339951a32c82a9e33816040516101b0919061065a565b60405180910390a15050565b60006101d282600061028090919063ffffffff16565b90507fed9840e0775590557ad736875d96c95cf1458b766335f74339951a32c82a9e3381604051610203919061065a565b60405180910390a15050565b606061021b6000610297565b905090565b60006102368260006102ac90919063ffffffff16565b9050919050565b600061024c83600001836102c3565b905092915050565b6000610262826000016102e6565b9050919050565b600061027883600001836102f7565b905092915050565b600061028f8360000183610367565b905092915050565b60606102a58260000161047b565b9050919050565b60006102bb83600001836104d7565b905092915050565b600080836001016000848152602001908152602001600020541415905092915050565b600081600001805490509050919050565b600061030383836102c3565b61035c578260000182908060018154018082558091505060019003906000526020600020016000909190919091505582600001805490508360010160008481526020019081526020016000208190555060019050610361565b600090505b92915050565b6000808360010160008481526020019081526020016000205490506000811461046f57600060018261039991906106e4565b90506000600186600001805490506103b191906106e4565b90508181146104205760008660000182815481106103d2576103d1610796565b5b90600052602060002001549050808760000184815481106103f6576103f5610796565b5b90600052602060002001819055508387600101600083815260200190815260200160002081905550505b8560000180548061043457610433610767565b5b600190038181906000526020600020016000905590558560010160008681526020019081526020016000206000905560019350505050610475565b60009150505b92915050565b6060816000018054806020026020016040519081016040528092919081815260200182805480156104cb57602002820191906000526020600020905b8154815260200190600101908083116104b7575b50505050509050919050565b60008260000182815481106104ef576104ee610796565b5b9060005260206000200154905092915050565b600081359050610511816107ca565b92915050565b600081359050610526816107e1565b92915050565b600060208284031215610542576105416107c5565b5b600061055084828501610502565b91505092915050565b60006020828403121561056f5761056e6107c5565b5b600061057d84828501610517565b91505092915050565b6000610592838361060b565b60208301905092915050565b60006105a9826106bb565b6105b381856106d3565b93506105be836106ab565b8060005b838110156105ef5781516105d68882610586565b97506105e1836106c6565b9250506001810190506105c2565b5085935050505092915050565b61060581610718565b82525050565b61061481610724565b82525050565b61062381610724565b82525050565b6106328161072e565b82525050565b60006020820190508181036000830152610652818461059e565b905092915050565b600060208201905061066f60008301846105fc565b92915050565b600060208201905061068a600083018461061a565b92915050565b60006020820190506106a56000830184610629565b92915050565b6000819050602082019050919050565b600081519050919050565b6000602082019050919050565b600082825260208201905092915050565b60006106ef8261072e565b91506106fa8361072e565b92508282101561070d5761070c610738565b5b828203905092915050565b60008115159050919050565b6000819050919050565b6000819050919050565b7f4e487b7100000000000000000000000000000000000000000000000000000000600052601160045260246000fd5b7f4e487b7100000000000000000000000000000000000000000000000000000000600052603160045260246000fd5b7f4e487b7100000000000000000000000000000000000000000000000000000000600052603260045260246000fd5b600080fd5b6107d381610724565b81146107de57600080fd5b50565b6107ea8161072e565b81146107f557600080fd5b5056fea26469706673582212209e83f1509eb5fae3f0c62266a05a30490e6bf32c24dbe8b79f3aeb61d3d044b364736f6c63430008070033",
  "immutableReferences": {},
  "source": "// SPDX-License-Identifier: MIT\n\npragma solidity ^0.8.0;\n\nimport \"../utils/structs/EnumerableSet.sol\";\n\n// Bytes32Set\ncontract EnumerableBytes32SetMock {\n    using EnumerableSet for EnumerableSet.Bytes32Set;\n\n    event OperationResult(bool result);\n\n    EnumerableSet.Bytes32Set private _set;\n\n    function contains(bytes32 value) public view returns (bool) {\n        return _set.contains(value);\n    }\n\n    function add(bytes32 value) public {\n        bool result = _set.add(value);\n        emit OperationResult(result);\n    }\n\n    function remove(bytes32 value) public {\n        bool result = _set.remove(value);\n        emit OperationResult(result);\n    }\n\n    function length() public view returns (uint256) {\n        return _set.length();\n    }\n\n    function at(uint256 index) public view returns (bytes32) {\n        return _set.at(index);\n    }\n\n    function values() public view returns (bytes32[] memory) {\n        return _set.values();\n    }\n}\n\n// AddressSet\ncontract EnumerableAddressSetMock {\n    using EnumerableSet for EnumerableSet.AddressSet;\n\n    event OperationResult(bool result);\n\n    EnumerableSet.AddressSet private _set;\n\n    function contains(address value) public view returns (bool) {\n        return _set.contains(value);\n    }\n\n    function add(address value) public {\n        bool result = _set.add(value);\n        emit OperationResult(result);\n    }\n\n    function remove(address value) public {\n        bool result = _set.remove(value);\n        emit OperationResult(result);\n    }\n\n    function length() public view returns (uint256) {\n        return _set.length();\n    }\n\n    function at(uint256 index) public view returns (address) {\n        return _set.at(index);\n    }\n\n    function values() public view returns (address[] memory) {\n        return _set.values();\n    }\n}\n\n// UintSet\ncontract EnumerableUintSetMock {\n    using EnumerableSet for EnumerableSet.UintSet;\n\n    event OperationResult(bool result);\n\n    EnumerableSet.UintSet private _set;\n\n    function contains(uint256 value) public view returns (bool) {\n        return _set.contains(value);\n    }\n\n    function add(uint256 value) public {\n        bool result = _set.add(value);\n        emit OperationResult(result);\n    }\n\n    function remove(uint256 value) public {\n        bool result = _set.remove(value);\n        emit OperationResult(result);\n    }\n\n    function length() public view returns (uint256) {\n        return _set.length();\n    }\n\n    function at(uint256 index) public view returns (uint256) {\n        return _set.at(index);\n    }\n\n    function values() public view returns (uint256[] memory) {\n        return _set.values();\n    }\n}\n",
  "sourcePath": "/home/tenten/Projects/upcgold.io/src/contracts/openzeppelin-contracts/contracts/mocks/EnumerableSetMock.sol",
  "compiler": {
    "name": "solc",
    "version": "0.8.7+commit.e28d00a7.Emscripten.clang"
  },
  "schemaVersion": "3.2.3",
  "updatedAt": "2021-08-12T03:39:31.305Z",
  "devdoc": {
    "kind": "dev",
    "methods": {},
    "version": 1
  },
  "userdoc": {
    "kind": "user",
    "methods": {},
    "version": 1
  }
}