{
  "contractName": "EnumerableUintSetMock",
  "abi": [
    {
      "anonymous": false,
      "inputs": [
        {
          "indexed": false,
          "internalType": "bool",
          "name": "result",
          "type": "bool"
        }
      ],
      "name": "OperationResult",
      "type": "event"
    },
    {
      "inputs": [
        {
          "internalType": "uint256",
          "name": "value",
          "type": "uint256"
        }
      ],
      "name": "contains",
      "outputs": [
        {
          "internalType": "bool",
          "name": "",
          "type": "bool"
        }
      ],
      "stateMutability": "view",
      "type": "function"
    },
    {
      "inputs": [
        {
          "internalType": "uint256",
          "name": "value",
          "type": "uint256"
        }
      ],
      "name": "add",
      "outputs": [],
      "stateMutability": "nonpayable",
      "type": "function"
    },
    {
      "inputs": [
        {
          "internalType": "uint256",
          "name": "value",
          "type": "uint256"
        }
      ],
      "name": "remove",
      "outputs": [],
      "stateMutability": "nonpayable",
      "type": "function"
    },
    {
      "inputs": [],
      "name": "length",
      "outputs": [
        {
          "internalType": "uint256",
          "name": "",
          "type": "uint256"
        }
      ],
      "stateMutability": "view",
      "type": "function"
    },
    {
      "inputs": [
        {
          "internalType": "uint256",
          "name": "index",
          "type": "uint256"
        }
      ],
      "name": "at",
      "outputs": [
        {
          "internalType": "uint256",
          "name": "",
          "type": "uint256"
        }
      ],
      "stateMutability": "view",
      "type": "function"
    },
    {
      "inputs": [],
      "name": "values",
      "outputs": [
        {
          "internalType": "uint256[]",
          "name": "",
          "type": "uint256[]"
        }
      ],
      "stateMutability": "view",
      "type": "function"
    }
  ],
  "bytecode": "0x608060405234801561001057600080fd5b506107b9806100206000396000f3fe608060405234801561001057600080fd5b50600436106100625760003560e01c80631003e2d2146100675780631f7b6d32146100835780634cc82215146100a1578063971217b7146100bd578063c34052e0146100db578063e0886f901461010b575b600080fd5b610081600480360381019061007c919061052f565b61013b565b005b61008b61018e565b604051610098919061063c565b60405180910390f35b6100bb60048036038101906100b6919061052f565b61019f565b005b6100c56101f2565b6040516100d291906105ff565b60405180910390f35b6100f560048036038101906100f0919061052f565b610203565b6040516101029190610621565b60405180910390f35b6101256004803603810190610120919061052f565b610220565b604051610132919061063c565b60405180910390f35b600061015182600061023d90919063ffffffff16565b90507fed9840e0775590557ad736875d96c95cf1458b766335f74339951a32c82a9e33816040516101829190610621565b60405180910390a15050565b600061019a6000610257565b905090565b60006101b582600061026c90919063ffffffff16565b90507fed9840e0775590557ad736875d96c95cf1458b766335f74339951a32c82a9e33816040516101e69190610621565b60405180910390a15050565b60606101fe6000610286565b905090565b60006102198260006102a790919063ffffffff16565b9050919050565b60006102368260006102c190919063ffffffff16565b9050919050565b600061024f836000018360001b6102db565b905092915050565b60006102658260000161034b565b9050919050565b600061027e836000018360001b61035c565b905092915050565b6060600061029683600001610470565b905060608190508092505050919050565b60006102b9836000018360001b6104cc565b905092915050565b60006102d083600001836104ef565b60001c905092915050565b60006102e783836104cc565b610340578260000182908060018154018082558091505060019003906000526020600020016000909190919091505582600001805490508360010160008481526020019081526020016000208190555060019050610345565b600090505b92915050565b600081600001805490509050919050565b6000808360010160008481526020019081526020016000205490506000811461046457600060018261038e9190610690565b90506000600186600001805490506103a69190610690565b90508181146104155760008660000182815481106103c7576103c6610738565b5b90600052602060002001549050808760000184815481106103eb576103ea610738565b5b90600052602060002001819055508387600101600083815260200190815260200160002081905550505b8560000180548061042957610428610709565b5b60019003818190600052602060002001600090559055856001016000868152602001908152602001600020600090556001935050505061046a565b60009150505b92915050565b6060816000018054806020026020016040519081016040528092919081815260200182805480156104c057602002820191906000526020600020905b8154815260200190600101908083116104ac575b50505050509050919050565b600080836001016000848152602001908152602001600020541415905092915050565b600082600001828154811061050757610506610738565b5b9060005260206000200154905092915050565b6000813590506105298161076c565b92915050565b60006020828403121561054557610544610767565b5b60006105538482850161051a565b91505092915050565b600061056883836105e1565b60208301905092915050565b600061057f82610667565b610589818561067f565b935061059483610657565b8060005b838110156105c55781516105ac888261055c565b97506105b783610672565b925050600181019050610598565b5085935050505092915050565b6105db816106c4565b82525050565b6105ea816106d0565b82525050565b6105f9816106d0565b82525050565b600060208201905081810360008301526106198184610574565b905092915050565b600060208201905061063660008301846105d2565b92915050565b600060208201905061065160008301846105f0565b92915050565b6000819050602082019050919050565b600081519050919050565b6000602082019050919050565b600082825260208201905092915050565b600061069b826106d0565b91506106a6836106d0565b9250828210156106b9576106b86106da565b5b828203905092915050565b60008115159050919050565b6000819050919050565b7f4e487b7100000000000000000000000000000000000000000000000000000000600052601160045260246000fd5b7f4e487b7100000000000000000000000000000000000000000000000000000000600052603160045260246000fd5b7f4e487b7100000000000000000000000000000000000000000000000000000000600052603260045260246000fd5b600080fd5b610775816106d0565b811461078057600080fd5b5056fea2646970667358221220ee046d82ff781b1e988bb75e7a8494f6217858264d41d0bbcc4f5a69e9a7b28664736f6c63430008070033",
  "immutableReferences": {},
  "source": "// SPDX-License-Identifier: MIT\n\npragma solidity ^0.8.0;\n\nimport \"../utils/structs/EnumerableSet.sol\";\n\n// Bytes32Set\ncontract EnumerableBytes32SetMock {\n    using EnumerableSet for EnumerableSet.Bytes32Set;\n\n    event OperationResult(bool result);\n\n    EnumerableSet.Bytes32Set private _set;\n\n    function contains(bytes32 value) public view returns (bool) {\n        return _set.contains(value);\n    }\n\n    function add(bytes32 value) public {\n        bool result = _set.add(value);\n        emit OperationResult(result);\n    }\n\n    function remove(bytes32 value) public {\n        bool result = _set.remove(value);\n        emit OperationResult(result);\n    }\n\n    function length() public view returns (uint256) {\n        return _set.length();\n    }\n\n    function at(uint256 index) public view returns (bytes32) {\n        return _set.at(index);\n    }\n\n    function values() public view returns (bytes32[] memory) {\n        return _set.values();\n    }\n}\n\n// AddressSet\ncontract EnumerableAddressSetMock {\n    using EnumerableSet for EnumerableSet.AddressSet;\n\n    event OperationResult(bool result);\n\n    EnumerableSet.AddressSet private _set;\n\n    function contains(address value) public view returns (bool) {\n        return _set.contains(value);\n    }\n\n    function add(address value) public {\n        bool result = _set.add(value);\n        emit OperationResult(result);\n    }\n\n    function remove(address value) public {\n        bool result = _set.remove(value);\n        emit OperationResult(result);\n    }\n\n    function length() public view returns (uint256) {\n        return _set.length();\n    }\n\n    function at(uint256 index) public view returns (address) {\n        return _set.at(index);\n    }\n\n    function values() public view returns (address[] memory) {\n        return _set.values();\n    }\n}\n\n// UintSet\ncontract EnumerableUintSetMock {\n    using EnumerableSet for EnumerableSet.UintSet;\n\n    event OperationResult(bool result);\n\n    EnumerableSet.UintSet private _set;\n\n    function contains(uint256 value) public view returns (bool) {\n        return _set.contains(value);\n    }\n\n    function add(uint256 value) public {\n        bool result = _set.add(value);\n        emit OperationResult(result);\n    }\n\n    function remove(uint256 value) public {\n        bool result = _set.remove(value);\n        emit OperationResult(result);\n    }\n\n    function length() public view returns (uint256) {\n        return _set.length();\n    }\n\n    function at(uint256 index) public view returns (uint256) {\n        return _set.at(index);\n    }\n\n    function values() public view returns (uint256[] memory) {\n        return _set.values();\n    }\n}\n",
  "sourcePath": "/home/tenten/Projects/upcgold.io/src/contracts/openzeppelin-contracts/contracts/mocks/EnumerableSetMock.sol",
  "compiler": {
    "name": "solc",
    "version": "0.8.7+commit.e28d00a7.Emscripten.clang"
  },
  "schemaVersion": "3.2.3",
  "updatedAt": "2021-08-12T03:39:31.310Z",
  "devdoc": {
    "kind": "dev",
    "methods": {},
    "version": 1
  },
  "userdoc": {
    "kind": "user",
    "methods": {},
    "version": 1
  }
}