{
  "contractName": "EnumerableAddressSetMock",
  "abi": [
    {
      "anonymous": false,
      "inputs": [
        {
          "indexed": false,
          "internalType": "bool",
          "name": "result",
          "type": "bool"
        }
      ],
      "name": "OperationResult",
      "type": "event"
    },
    {
      "inputs": [
        {
          "internalType": "address",
          "name": "value",
          "type": "address"
        }
      ],
      "name": "contains",
      "outputs": [
        {
          "internalType": "bool",
          "name": "",
          "type": "bool"
        }
      ],
      "stateMutability": "view",
      "type": "function"
    },
    {
      "inputs": [
        {
          "internalType": "address",
          "name": "value",
          "type": "address"
        }
      ],
      "name": "add",
      "outputs": [],
      "stateMutability": "nonpayable",
      "type": "function"
    },
    {
      "inputs": [
        {
          "internalType": "address",
          "name": "value",
          "type": "address"
        }
      ],
      "name": "remove",
      "outputs": [],
      "stateMutability": "nonpayable",
      "type": "function"
    },
    {
      "inputs": [],
      "name": "length",
      "outputs": [
        {
          "internalType": "uint256",
          "name": "",
          "type": "uint256"
        }
      ],
      "stateMutability": "view",
      "type": "function"
    },
    {
      "inputs": [
        {
          "internalType": "uint256",
          "name": "index",
          "type": "uint256"
        }
      ],
      "name": "at",
      "outputs": [
        {
          "internalType": "address",
          "name": "",
          "type": "address"
        }
      ],
      "stateMutability": "view",
      "type": "function"
    },
    {
      "inputs": [],
      "name": "values",
      "outputs": [
        {
          "internalType": "address[]",
          "name": "",
          "type": "address[]"
        }
      ],
      "stateMutability": "view",
      "type": "function"
    }
  ],
  "bytecode": "0x608060405234801561001057600080fd5b506108b0806100206000396000f3fe608060405234801561001057600080fd5b50600436106100625760003560e01c80630a3b0a4f146100675780631f7b6d321461008357806329092d0e146100a15780635dbe47e8146100bd578063971217b7146100ed578063e0886f901461010b575b600080fd5b610081600480360381019061007c9190610586565b61013b565b005b61008b61018e565b60405161009891906106ea565b60405180910390f35b6100bb60048036038101906100b69190610586565b61019f565b005b6100d760048036038101906100d29190610586565b6101f2565b6040516100e491906106cf565b60405180910390f35b6100f561020f565b60405161010291906106ad565b60405180910390f35b610125600480360381019061012091906105b3565b610220565b6040516101329190610692565b60405180910390f35b600061015182600061023d90919063ffffffff16565b90507fed9840e0775590557ad736875d96c95cf1458b766335f74339951a32c82a9e338160405161018291906106cf565b60405180910390a15050565b600061019a600061026d565b905090565b60006101b582600061028290919063ffffffff16565b90507fed9840e0775590557ad736875d96c95cf1458b766335f74339951a32c82a9e33816040516101e691906106cf565b60405180910390a15050565b60006102088260006102b290919063ffffffff16565b9050919050565b606061021b60006102e2565b905090565b600061023682600061030390919063ffffffff16565b9050919050565b6000610265836000018373ffffffffffffffffffffffffffffffffffffffff1660001b61031d565b905092915050565b600061027b8260000161038d565b9050919050565b60006102aa836000018373ffffffffffffffffffffffffffffffffffffffff1660001b61039e565b905092915050565b60006102da836000018373ffffffffffffffffffffffffffffffffffffffff1660001b6104b2565b905092915050565b606060006102f2836000016104d5565b905060608190508092505050919050565b60006103128360000183610531565b60001c905092915050565b600061032983836104b2565b610382578260000182908060018154018082558091505060019003906000526020600020016000909190919091505582600001805490508360010160008481526020019081526020016000208190555060019050610387565b600090505b92915050565b600081600001805490509050919050565b600080836001016000848152602001908152602001600020549050600081146104a65760006001826103d0919061073e565b90506000600186600001805490506103e8919061073e565b905081811461045757600086600001828154811061040957610408610818565b5b906000526020600020015490508087600001848154811061042d5761042c610818565b5b90600052602060002001819055508387600101600083815260200190815260200160002081905550505b8560000180548061046b5761046a6107e9565b5b6001900381819060005260206000200160009055905585600101600086815260200190815260200160002060009055600193505050506104ac565b60009150505b92915050565b600080836001016000848152602001908152602001600020541415905092915050565b60608160000180548060200260200160405190810160405280929190818152602001828054801561052557602002820191906000526020600020905b815481526020019060010190808311610511575b50505050509050919050565b600082600001828154811061054957610548610818565b5b9060005260206000200154905092915050565b60008135905061056b8161084c565b92915050565b60008135905061058081610863565b92915050565b60006020828403121561059c5761059b610847565b5b60006105aa8482850161055c565b91505092915050565b6000602082840312156105c9576105c8610847565b5b60006105d784828501610571565b91505092915050565b60006105ec83836105f8565b60208301905092915050565b61060181610772565b82525050565b61061081610772565b82525050565b600061062182610715565b61062b818561072d565b935061063683610705565b8060005b8381101561066757815161064e88826105e0565b975061065983610720565b92505060018101905061063a565b5085935050505092915050565b61067d81610784565b82525050565b61068c816107b0565b82525050565b60006020820190506106a76000830184610607565b92915050565b600060208201905081810360008301526106c78184610616565b905092915050565b60006020820190506106e46000830184610674565b92915050565b60006020820190506106ff6000830184610683565b92915050565b6000819050602082019050919050565b600081519050919050565b6000602082019050919050565b600082825260208201905092915050565b6000610749826107b0565b9150610754836107b0565b925082821015610767576107666107ba565b5b828203905092915050565b600061077d82610790565b9050919050565b60008115159050919050565b600073ffffffffffffffffffffffffffffffffffffffff82169050919050565b6000819050919050565b7f4e487b7100000000000000000000000000000000000000000000000000000000600052601160045260246000fd5b7f4e487b7100000000000000000000000000000000000000000000000000000000600052603160045260246000fd5b7f4e487b7100000000000000000000000000000000000000000000000000000000600052603260045260246000fd5b600080fd5b61085581610772565b811461086057600080fd5b50565b61086c816107b0565b811461087757600080fd5b5056fea2646970667358221220a15a86d7817f8615366e168f67bfeb818a0d4fbbc2abf5d8a1fb91b5a84113b564736f6c63430008070033",
  "immutableReferences": {},
  "source": "// SPDX-License-Identifier: MIT\n\npragma solidity ^0.8.0;\n\nimport \"../utils/structs/EnumerableSet.sol\";\n\n// Bytes32Set\ncontract EnumerableBytes32SetMock {\n    using EnumerableSet for EnumerableSet.Bytes32Set;\n\n    event OperationResult(bool result);\n\n    EnumerableSet.Bytes32Set private _set;\n\n    function contains(bytes32 value) public view returns (bool) {\n        return _set.contains(value);\n    }\n\n    function add(bytes32 value) public {\n        bool result = _set.add(value);\n        emit OperationResult(result);\n    }\n\n    function remove(bytes32 value) public {\n        bool result = _set.remove(value);\n        emit OperationResult(result);\n    }\n\n    function length() public view returns (uint256) {\n        return _set.length();\n    }\n\n    function at(uint256 index) public view returns (bytes32) {\n        return _set.at(index);\n    }\n\n    function values() public view returns (bytes32[] memory) {\n        return _set.values();\n    }\n}\n\n// AddressSet\ncontract EnumerableAddressSetMock {\n    using EnumerableSet for EnumerableSet.AddressSet;\n\n    event OperationResult(bool result);\n\n    EnumerableSet.AddressSet private _set;\n\n    function contains(address value) public view returns (bool) {\n        return _set.contains(value);\n    }\n\n    function add(address value) public {\n        bool result = _set.add(value);\n        emit OperationResult(result);\n    }\n\n    function remove(address value) public {\n        bool result = _set.remove(value);\n        emit OperationResult(result);\n    }\n\n    function length() public view returns (uint256) {\n        return _set.length();\n    }\n\n    function at(uint256 index) public view returns (address) {\n        return _set.at(index);\n    }\n\n    function values() public view returns (address[] memory) {\n        return _set.values();\n    }\n}\n\n// UintSet\ncontract EnumerableUintSetMock {\n    using EnumerableSet for EnumerableSet.UintSet;\n\n    event OperationResult(bool result);\n\n    EnumerableSet.UintSet private _set;\n\n    function contains(uint256 value) public view returns (bool) {\n        return _set.contains(value);\n    }\n\n    function add(uint256 value) public {\n        bool result = _set.add(value);\n        emit OperationResult(result);\n    }\n\n    function remove(uint256 value) public {\n        bool result = _set.remove(value);\n        emit OperationResult(result);\n    }\n\n    function length() public view returns (uint256) {\n        return _set.length();\n    }\n\n    function at(uint256 index) public view returns (uint256) {\n        return _set.at(index);\n    }\n\n    function values() public view returns (uint256[] memory) {\n        return _set.values();\n    }\n}\n",
  "sourcePath": "/home/tenten/Projects/upcgold.io/src/contracts/openzeppelin-contracts/contracts/mocks/EnumerableSetMock.sol",
  "compiler": {
    "name": "solc",
    "version": "0.8.7+commit.e28d00a7.Emscripten.clang"
  },
  "schemaVersion": "3.2.3",
  "updatedAt": "2021-08-12T03:39:31.300Z",
  "devdoc": {
    "kind": "dev",
    "methods": {},
    "version": 1
  },
  "userdoc": {
    "kind": "user",
    "methods": {},
    "version": 1
  }
}