{
  "contractName": "ERC1271WalletMock",
  "abi": [
    {
      "inputs": [
        {
          "internalType": "address",
          "name": "originalOwner",
          "type": "address"
        }
      ],
      "stateMutability": "nonpayable",
      "type": "constructor"
    },
    {
      "anonymous": false,
      "inputs": [
        {
          "indexed": true,
          "internalType": "address",
          "name": "previousOwner",
          "type": "address"
        },
        {
          "indexed": true,
          "internalType": "address",
          "name": "newOwner",
          "type": "address"
        }
      ],
      "name": "OwnershipTransferred",
      "type": "event"
    },
    {
      "inputs": [],
      "name": "owner",
      "outputs": [
        {
          "internalType": "address",
          "name": "",
          "type": "address"
        }
      ],
      "stateMutability": "view",
      "type": "function"
    },
    {
      "inputs": [],
      "name": "renounceOwnership",
      "outputs": [],
      "stateMutability": "nonpayable",
      "type": "function"
    },
    {
      "inputs": [
        {
          "internalType": "address",
          "name": "newOwner",
          "type": "address"
        }
      ],
      "name": "transferOwnership",
      "outputs": [],
      "stateMutability": "nonpayable",
      "type": "function"
    },
    {
      "inputs": [
        {
          "internalType": "bytes32",
          "name": "hash",
          "type": "bytes32"
        },
        {
          "internalType": "bytes",
          "name": "signature",
          "type": "bytes"
        }
      ],
      "name": "isValidSignature",
      "outputs": [
        {
          "internalType": "bytes4",
          "name": "magicValue",
          "type": "bytes4"
        }
      ],
      "stateMutability": "view",
      "type": "function"
    }
  ],
  "bytecode": "0x60806040523480156200001157600080fd5b506040516200110738038062001107833981810160405281019062000037919062000291565b620000576200004b6200006f60201b60201c565b6200007760201b60201c565b62000068816200013b60201b60201c565b5062000431565b600033905090565b60008060009054906101000a900473ffffffffffffffffffffffffffffffffffffffff169050816000806101000a81548173ffffffffffffffffffffffffffffffffffffffff021916908373ffffffffffffffffffffffffffffffffffffffff1602179055508173ffffffffffffffffffffffffffffffffffffffff168173ffffffffffffffffffffffffffffffffffffffff167f8be0079c531659141344cd1fd0a4f28419497f9722a3daafe3b4186f6b6457e060405160405180910390a35050565b6200014b6200006f60201b60201c565b73ffffffffffffffffffffffffffffffffffffffff16620001716200025160201b60201c565b73ffffffffffffffffffffffffffffffffffffffff1614620001ca576040517f08c379a0000000000000000000000000000000000000000000000000000000008152600401620001c19062000333565b60405180910390fd5b600073ffffffffffffffffffffffffffffffffffffffff168173ffffffffffffffffffffffffffffffffffffffff1614156200023d576040517f08c379a0000000000000000000000000000000000000000000000000000000008152600401620002349062000311565b60405180910390fd5b6200024e816200007760201b60201c565b50565b60008060009054906101000a900473ffffffffffffffffffffffffffffffffffffffff16905090565b6000815190506200028b8162000417565b92915050565b600060208284031215620002aa57620002a96200039a565b5b6000620002ba848285016200027a565b91505092915050565b6000620002d260268362000355565b9150620002df826200039f565b604082019050919050565b6000620002f960208362000355565b91506200030682620003ee565b602082019050919050565b600060208201905081810360008301526200032c81620002c3565b9050919050565b600060208201905081810360008301526200034e81620002ea565b9050919050565b600082825260208201905092915050565b600062000373826200037a565b9050919050565b600073ffffffffffffffffffffffffffffffffffffffff82169050919050565b600080fd5b7f4f776e61626c653a206e6577206f776e657220697320746865207a65726f206160008201527f6464726573730000000000000000000000000000000000000000000000000000602082015250565b7f4f776e61626c653a2063616c6c6572206973206e6f7420746865206f776e6572600082015250565b620004228162000366565b81146200042e57600080fd5b50565b610cc680620004416000396000f3fe608060405234801561001057600080fd5b506004361061004c5760003560e01c80631626ba7e14610051578063715018a6146100815780638da5cb5b1461008b578063f2fde38b146100a9575b600080fd5b61006b600480360381019061006691906106e5565b6100c5565b60405161007891906108af565b60405180910390f35b610089610125565b005b6100936101ad565b6040516100a0919061084f565b60405180910390f35b6100c360048036038101906100be91906106b8565b6101d6565b005b60006100cf6101ad565b73ffffffffffffffffffffffffffffffffffffffff166100ef84846102ce565b73ffffffffffffffffffffffffffffffffffffffff161461011457600060e01b61011d565b631626ba7e60e01b5b905092915050565b61012d61037d565b73ffffffffffffffffffffffffffffffffffffffff1661014b6101ad565b73ffffffffffffffffffffffffffffffffffffffff16146101a1576040517f08c379a00000000000000000000000000000000000000000000000000000000081526004016101989061096a565b60405180910390fd5b6101ab6000610385565b565b60008060009054906101000a900473ffffffffffffffffffffffffffffffffffffffff16905090565b6101de61037d565b73ffffffffffffffffffffffffffffffffffffffff166101fc6101ad565b73ffffffffffffffffffffffffffffffffffffffff1614610252576040517f08c379a00000000000000000000000000000000000000000000000000000000081526004016102499061096a565b60405180910390fd5b600073ffffffffffffffffffffffffffffffffffffffff168173ffffffffffffffffffffffffffffffffffffffff1614156102c2576040517f08c379a00000000000000000000000000000000000000000000000000000000081526004016102b99061090a565b60405180910390fd5b6102cb81610385565b50565b600060418251141561030d5760008060006020850151925060408501519150606085015160001a905061030386828585610449565b9350505050610377565b60408251141561033c5760008060208401519150604084015190506103338583836105d4565b92505050610377565b6040517f08c379a000000000000000000000000000000000000000000000000000000000815260040161036e906108ea565b60405180910390fd5b92915050565b600033905090565b60008060009054906101000a900473ffffffffffffffffffffffffffffffffffffffff169050816000806101000a81548173ffffffffffffffffffffffffffffffffffffffff021916908373ffffffffffffffffffffffffffffffffffffffff1602179055508173ffffffffffffffffffffffffffffffffffffffff168173ffffffffffffffffffffffffffffffffffffffff167f8be0079c531659141344cd1fd0a4f28419497f9722a3daafe3b4186f6b6457e060405160405180910390a35050565b60007f7fffffffffffffffffffffffffffffff5d576e7357a4501ddfe92f46681b20a08260001c11156104b1576040517f08c379a00000000000000000000000000000000000000000000000000000000081526004016104a89061092a565b60405180910390fd5b601b8460ff1614806104c65750601c8460ff16145b610505576040517f08c379a00000000000000000000000000000000000000000000000000000000081526004016104fc9061094a565b60405180910390fd5b60006001868686866040516000815260200160405260405161052a949392919061086a565b6020604051602081039080840390855afa15801561054c573d6000803e3d6000fd5b505050602060405103519050600073ffffffffffffffffffffffffffffffffffffffff168173ffffffffffffffffffffffffffffffffffffffff1614156105c8576040517f08c379a00000000000000000000000000000000000000000000000000000000081526004016105bf906108ca565b60405180910390fd5b80915050949350505050565b60008060007f7fffffffffffffffffffffffffffffffffffffffffffffffffffffffffffffff84169150601b8460ff1c01905061061386828785610449565b925050509392505050565b600061063161062c846109af565b61098a565b90508281526020810184848401111561064d5761064c610ada565b5b610658848285610a66565b509392505050565b60008135905061066f81610c62565b92915050565b60008135905061068481610c79565b92915050565b600082601f83011261069f5761069e610ad5565b5b81356106af84826020860161061e565b91505092915050565b6000602082840312156106ce576106cd610ae4565b5b60006106dc84828501610660565b91505092915050565b600080604083850312156106fc576106fb610ae4565b5b600061070a85828601610675565b925050602083013567ffffffffffffffff81111561072b5761072a610adf565b5b6107378582860161068a565b9150509250929050565b61074a816109f1565b82525050565b61075981610a03565b82525050565b61076881610a0d565b82525050565b600061077b6018836109e0565b915061078682610afa565b602082019050919050565b600061079e601f836109e0565b91506107a982610b23565b602082019050919050565b60006107c16026836109e0565b91506107cc82610b4c565b604082019050919050565b60006107e46022836109e0565b91506107ef82610b9b565b604082019050919050565b60006108076022836109e0565b915061081282610bea565b604082019050919050565b600061082a6020836109e0565b915061083582610c39565b602082019050919050565b61084981610a59565b82525050565b60006020820190506108646000830184610741565b92915050565b600060808201905061087f6000830187610750565b61088c6020830186610840565b6108996040830185610750565b6108a66060830184610750565b95945050505050565b60006020820190506108c4600083018461075f565b92915050565b600060208201905081810360008301526108e38161076e565b9050919050565b6000602082019050818103600083015261090381610791565b9050919050565b60006020820190508181036000830152610923816107b4565b9050919050565b60006020820190508181036000830152610943816107d7565b9050919050565b60006020820190508181036000830152610963816107fa565b9050919050565b600060208201905081810360008301526109838161081d565b9050919050565b60006109946109a5565b90506109a08282610a75565b919050565b6000604051905090565b600067ffffffffffffffff8211156109ca576109c9610aa6565b5b6109d382610ae9565b9050602081019050919050565b600082825260208201905092915050565b60006109fc82610a39565b9050919050565b6000819050919050565b60007fffffffff0000000000000000000000000000000000000000000000000000000082169050919050565b600073ffffffffffffffffffffffffffffffffffffffff82169050919050565b600060ff82169050919050565b82818337600083830152505050565b610a7e82610ae9565b810181811067ffffffffffffffff82111715610a9d57610a9c610aa6565b5b80604052505050565b7f4e487b7100000000000000000000000000000000000000000000000000000000600052604160045260246000fd5b600080fd5b600080fd5b600080fd5b600080fd5b6000601f19601f8301169050919050565b7f45434453413a20696e76616c6964207369676e61747572650000000000000000600082015250565b7f45434453413a20696e76616c6964207369676e6174757265206c656e67746800600082015250565b7f4f776e61626c653a206e6577206f776e657220697320746865207a65726f206160008201527f6464726573730000000000000000000000000000000000000000000000000000602082015250565b7f45434453413a20696e76616c6964207369676e6174757265202773272076616c60008201527f7565000000000000000000000000000000000000000000000000000000000000602082015250565b7f45434453413a20696e76616c6964207369676e6174757265202776272076616c60008201527f7565000000000000000000000000000000000000000000000000000000000000602082015250565b7f4f776e61626c653a2063616c6c6572206973206e6f7420746865206f776e6572600082015250565b610c6b816109f1565b8114610c7657600080fd5b50565b610c8281610a03565b8114610c8d57600080fd5b5056fea2646970667358221220d12ec53fc5497a577c71dccce9a447c0c99ea6e4846b144d42ec7b4ed8a15b3164736f6c63430008070033",
  "immutableReferences": {},
  "source": "// SPDX-License-Identifier: MIT\n\npragma solidity ^0.8.0;\n\nimport \"../access/Ownable.sol\";\nimport \"../interfaces/IERC1271.sol\";\nimport \"../utils/cryptography/ECDSA.sol\";\n\ncontract ERC1271WalletMock is Ownable, IERC1271 {\n    constructor(address originalOwner) {\n        transferOwnership(originalOwner);\n    }\n\n    function isValidSignature(bytes32 hash, bytes memory signature) public view override returns (bytes4 magicValue) {\n        return ECDSA.recover(hash, signature) == owner() ? this.isValidSignature.selector : bytes4(0);\n    }\n}\n",
  "sourcePath": "/home/tenten/Projects/upcgold.io/src/contracts/openzeppelin-contracts/contracts/mocks/ERC1271WalletMock.sol",
  "compiler": {
    "name": "solc",
    "version": "0.8.7+commit.e28d00a7.Emscripten.clang"
  },
  "schemaVersion": "3.2.3",
  "updatedAt": "2021-08-12T03:39:31.223Z",
  "devdoc": {
    "kind": "dev",
    "methods": {
      "isValidSignature(bytes32,bytes)": {
        "details": "Should return whether the signature provided is valid for the provided data",
        "params": {
          "hash": "Hash of the data to be signed",
          "signature": "Signature byte array associated with _data"
        }
      },
      "owner()": {
        "details": "Returns the address of the current owner."
      },
      "renounceOwnership()": {
        "details": "Leaves the contract without owner. It will not be possible to call `onlyOwner` functions anymore. Can only be called by the current owner. NOTE: Renouncing ownership will leave the contract without an owner, thereby removing any functionality that is only available to the owner."
      },
      "transferOwnership(address)": {
        "details": "Transfers ownership of the contract to a new account (`newOwner`). Can only be called by the current owner."
      }
    },
    "version": 1
  },
  "userdoc": {
    "kind": "user",
    "methods": {},
    "version": 1
  }
}