{
  "contractName": "ERC1155SupplyMock",
  "abi": [
    {
      "inputs": [
        {
          "internalType": "string",
          "name": "uri",
          "type": "string"
        }
      ],
      "stateMutability": "nonpayable",
      "type": "constructor"
    },
    {
      "anonymous": false,
      "inputs": [
        {
          "indexed": true,
          "internalType": "address",
          "name": "account",
          "type": "address"
        },
        {
          "indexed": true,
          "internalType": "address",
          "name": "operator",
          "type": "address"
        },
        {
          "indexed": false,
          "internalType": "bool",
          "name": "approved",
          "type": "bool"
        }
      ],
      "name": "ApprovalForAll",
      "type": "event"
    },
    {
      "anonymous": false,
      "inputs": [
        {
          "indexed": true,
          "internalType": "address",
          "name": "operator",
          "type": "address"
        },
        {
          "indexed": true,
          "internalType": "address",
          "name": "from",
          "type": "address"
        },
        {
          "indexed": true,
          "internalType": "address",
          "name": "to",
          "type": "address"
        },
        {
          "indexed": false,
          "internalType": "uint256[]",
          "name": "ids",
          "type": "uint256[]"
        },
        {
          "indexed": false,
          "internalType": "uint256[]",
          "name": "values",
          "type": "uint256[]"
        }
      ],
      "name": "TransferBatch",
      "type": "event"
    },
    {
      "anonymous": false,
      "inputs": [
        {
          "indexed": true,
          "internalType": "address",
          "name": "operator",
          "type": "address"
        },
        {
          "indexed": true,
          "internalType": "address",
          "name": "from",
          "type": "address"
        },
        {
          "indexed": true,
          "internalType": "address",
          "name": "to",
          "type": "address"
        },
        {
          "indexed": false,
          "internalType": "uint256",
          "name": "id",
          "type": "uint256"
        },
        {
          "indexed": false,
          "internalType": "uint256",
          "name": "value",
          "type": "uint256"
        }
      ],
      "name": "TransferSingle",
      "type": "event"
    },
    {
      "anonymous": false,
      "inputs": [
        {
          "indexed": false,
          "internalType": "string",
          "name": "value",
          "type": "string"
        },
        {
          "indexed": true,
          "internalType": "uint256",
          "name": "id",
          "type": "uint256"
        }
      ],
      "name": "URI",
      "type": "event"
    },
    {
      "inputs": [
        {
          "internalType": "address",
          "name": "account",
          "type": "address"
        },
        {
          "internalType": "uint256",
          "name": "id",
          "type": "uint256"
        }
      ],
      "name": "balanceOf",
      "outputs": [
        {
          "internalType": "uint256",
          "name": "",
          "type": "uint256"
        }
      ],
      "stateMutability": "view",
      "type": "function"
    },
    {
      "inputs": [
        {
          "internalType": "address[]",
          "name": "accounts",
          "type": "address[]"
        },
        {
          "internalType": "uint256[]",
          "name": "ids",
          "type": "uint256[]"
        }
      ],
      "name": "balanceOfBatch",
      "outputs": [
        {
          "internalType": "uint256[]",
          "name": "",
          "type": "uint256[]"
        }
      ],
      "stateMutability": "view",
      "type": "function"
    },
    {
      "inputs": [
        {
          "internalType": "address",
          "name": "owner",
          "type": "address"
        },
        {
          "internalType": "uint256",
          "name": "id",
          "type": "uint256"
        },
        {
          "internalType": "uint256",
          "name": "value",
          "type": "uint256"
        }
      ],
      "name": "burn",
      "outputs": [],
      "stateMutability": "nonpayable",
      "type": "function"
    },
    {
      "inputs": [
        {
          "internalType": "address",
          "name": "owner",
          "type": "address"
        },
        {
          "internalType": "uint256[]",
          "name": "ids",
          "type": "uint256[]"
        },
        {
          "internalType": "uint256[]",
          "name": "values",
          "type": "uint256[]"
        }
      ],
      "name": "burnBatch",
      "outputs": [],
      "stateMutability": "nonpayable",
      "type": "function"
    },
    {
      "inputs": [
        {
          "internalType": "uint256",
          "name": "id",
          "type": "uint256"
        }
      ],
      "name": "exists",
      "outputs": [
        {
          "internalType": "bool",
          "name": "",
          "type": "bool"
        }
      ],
      "stateMutability": "view",
      "type": "function"
    },
    {
      "inputs": [
        {
          "internalType": "address",
          "name": "account",
          "type": "address"
        },
        {
          "internalType": "address",
          "name": "operator",
          "type": "address"
        }
      ],
      "name": "isApprovedForAll",
      "outputs": [
        {
          "internalType": "bool",
          "name": "",
          "type": "bool"
        }
      ],
      "stateMutability": "view",
      "type": "function"
    },
    {
      "inputs": [
        {
          "internalType": "address",
          "name": "to",
          "type": "address"
        },
        {
          "internalType": "uint256",
          "name": "id",
          "type": "uint256"
        },
        {
          "internalType": "uint256",
          "name": "value",
          "type": "uint256"
        },
        {
          "internalType": "bytes",
          "name": "data",
          "type": "bytes"
        }
      ],
      "name": "mint",
      "outputs": [],
      "stateMutability": "nonpayable",
      "type": "function"
    },
    {
      "inputs": [
        {
          "internalType": "address",
          "name": "to",
          "type": "address"
        },
        {
          "internalType": "uint256[]",
          "name": "ids",
          "type": "uint256[]"
        },
        {
          "internalType": "uint256[]",
          "name": "values",
          "type": "uint256[]"
        },
        {
          "internalType": "bytes",
          "name": "data",
          "type": "bytes"
        }
      ],
      "name": "mintBatch",
      "outputs": [],
      "stateMutability": "nonpayable",
      "type": "function"
    },
    {
      "inputs": [
        {
          "internalType": "address",
          "name": "from",
          "type": "address"
        },
        {
          "internalType": "address",
          "name": "to",
          "type": "address"
        },
        {
          "internalType": "uint256[]",
          "name": "ids",
          "type": "uint256[]"
        },
        {
          "internalType": "uint256[]",
          "name": "amounts",
          "type": "uint256[]"
        },
        {
          "internalType": "bytes",
          "name": "data",
          "type": "bytes"
        }
      ],
      "name": "safeBatchTransferFrom",
      "outputs": [],
      "stateMutability": "nonpayable",
      "type": "function"
    },
    {
      "inputs": [
        {
          "internalType": "address",
          "name": "from",
          "type": "address"
        },
        {
          "internalType": "address",
          "name": "to",
          "type": "address"
        },
        {
          "internalType": "uint256",
          "name": "id",
          "type": "uint256"
        },
        {
          "internalType": "uint256",
          "name": "amount",
          "type": "uint256"
        },
        {
          "internalType": "bytes",
          "name": "data",
          "type": "bytes"
        }
      ],
      "name": "safeTransferFrom",
      "outputs": [],
      "stateMutability": "nonpayable",
      "type": "function"
    },
    {
      "inputs": [
        {
          "internalType": "address",
          "name": "operator",
          "type": "address"
        },
        {
          "internalType": "bool",
          "name": "approved",
          "type": "bool"
        }
      ],
      "name": "setApprovalForAll",
      "outputs": [],
      "stateMutability": "nonpayable",
      "type": "function"
    },
    {
      "inputs": [
        {
          "internalType": "string",
          "name": "newuri",
          "type": "string"
        }
      ],
      "name": "setURI",
      "outputs": [],
      "stateMutability": "nonpayable",
      "type": "function"
    },
    {
      "inputs": [
        {
          "internalType": "bytes4",
          "name": "interfaceId",
          "type": "bytes4"
        }
      ],
      "name": "supportsInterface",
      "outputs": [
        {
          "internalType": "bool",
          "name": "",
          "type": "bool"
        }
      ],
      "stateMutability": "view",
      "type": "function"
    },
    {
      "inputs": [
        {
          "internalType": "uint256",
          "name": "id",
          "type": "uint256"
        }
      ],
      "name": "totalSupply",
      "outputs": [
        {
          "internalType": "uint256",
          "name": "",
          "type": "uint256"
        }
      ],
      "stateMutability": "view",
      "type": "function"
    },
    {
      "inputs": [
        {
          "internalType": "uint256",
          "name": "",
          "type": "uint256"
        }
      ],
      "name": "uri",
      "outputs": [
        {
          "internalType": "string",
          "name": "",
          "type": "string"
        }
      ],
      "stateMutability": "view",
      "type": "function"
    }
  ],
  "bytecode": "0x60806040523480156200001157600080fd5b5060405162003b0b38038062003b0b83398181016040528101906200003791906200019d565b80806200004a816200005360201b60201c565b50505062000372565b80600290805190602001906200006b9291906200006f565b5050565b8280546200007d9062000283565b90600052602060002090601f016020900481019282620000a15760008555620000ed565b82601f10620000bc57805160ff1916838001178555620000ed565b82800160010185558215620000ed579182015b82811115620000ec578251825591602001919060010190620000cf565b5b509050620000fc919062000100565b5090565b5b808211156200011b57600081600090555060010162000101565b5090565b600062000136620001308462000217565b620001ee565b90508281526020810184848401111562000155576200015462000352565b5b620001628482856200024d565b509392505050565b600082601f8301126200018257620001816200034d565b5b8151620001948482602086016200011f565b91505092915050565b600060208284031215620001b657620001b56200035c565b5b600082015167ffffffffffffffff811115620001d757620001d662000357565b5b620001e5848285016200016a565b91505092915050565b6000620001fa6200020d565b9050620002088282620002b9565b919050565b6000604051905090565b600067ffffffffffffffff8211156200023557620002346200031e565b5b620002408262000361565b9050602081019050919050565b60005b838110156200026d57808201518184015260208101905062000250565b838111156200027d576000848401525b50505050565b600060028204905060018216806200029c57607f821691505b60208210811415620002b357620002b2620002ef565b5b50919050565b620002c48262000361565b810181811067ffffffffffffffff82111715620002e657620002e56200031e565b5b80604052505050565b7f4e487b7100000000000000000000000000000000000000000000000000000000600052602260045260246000fd5b7f4e487b7100000000000000000000000000000000000000000000000000000000600052604160045260246000fd5b600080fd5b600080fd5b600080fd5b600080fd5b6000601f19601f8301169050919050565b61378980620003826000396000f3fe608060405234801561001057600080fd5b50600436106100f45760003560e01c80634f558e7911610097578063bd85b03911610066578063bd85b03914610291578063e985e9c5146102c1578063f242432a146102f1578063f5298aca1461030d576100f4565b80634f558e791461020d5780636b20c4541461023d578063731133e914610259578063a22cb46514610275576100f4565b80630e89341c116100d35780630e89341c146101755780631f7fdffa146101a55780632eb2c2d6146101c15780634e1273f4146101dd576100f4565b8062fdd58e146100f957806301ffc9a71461012957806302fe530514610159575b600080fd5b610113600480360381019061010e9190612588565b610329565b6040516101209190612dc9565b60405180910390f35b610143600480360381019061013e9190612716565b6103f2565b6040516101509190612bec565b60405180910390f35b610173600480360381019061016e9190612770565b6104d4565b005b61018f600480360381019061018a91906127b9565b6104e0565b60405161019c9190612c07565b60405180910390f35b6101bf60048036038101906101ba919061248d565b610574565b005b6101db60048036038101906101d6919061229c565b610586565b005b6101f760048036038101906101f2919061269e565b610627565b6040516102049190612b93565b60405180910390f35b610227600480360381019061022291906127b9565b610740565b6040516102349190612bec565b60405180910390f35b61025760048036038101906102529190612402565b610754565b005b610273600480360381019061026e919061261b565b610764565b005b61028f600480360381019061028a9190612548565b610776565b005b6102ab60048036038101906102a691906127b9565b6108f7565b6040516102b89190612dc9565b60405180910390f35b6102db60048036038101906102d6919061225c565b610914565b6040516102e89190612bec565b60405180910390f35b61030b6004803603810190610306919061236b565b6109a8565b005b610327600480360381019061032291906125c8565b610a49565b005b60008073ffffffffffffffffffffffffffffffffffffffff168373ffffffffffffffffffffffffffffffffffffffff16141561039a576040517f08c379a000000000000000000000000000000000000000000000000000000000815260040161039190612c69565b60405180910390fd5b60008083815260200190815260200160002060008473ffffffffffffffffffffffffffffffffffffffff1673ffffffffffffffffffffffffffffffffffffffff16815260200190815260200160002054905092915050565b60007fd9b67a26000000000000000000000000000000000000000000000000000000007bffffffffffffffffffffffffffffffffffffffffffffffffffffffff1916827bffffffffffffffffffffffffffffffffffffffffffffffffffffffff191614806104bd57507f0e89341c000000000000000000000000000000000000000000000000000000007bffffffffffffffffffffffffffffffffffffffffffffffffffffffff1916827bffffffffffffffffffffffffffffffffffffffffffffffffffffffff1916145b806104cd57506104cc82610a59565b5b9050919050565b6104dd81610ac3565b50565b6060600280546104ef9061309d565b80601f016020809104026020016040519081016040528092919081815260200182805461051b9061309d565b80156105685780601f1061053d57610100808354040283529160200191610568565b820191906000526020600020905b81548152906001019060200180831161054b57829003601f168201915b50505050509050919050565b61058084848484610add565b50505050565b61058e610aef565b73ffffffffffffffffffffffffffffffffffffffff168573ffffffffffffffffffffffffffffffffffffffff1614806105d457506105d3856105ce610aef565b610914565b5b610613576040517f08c379a000000000000000000000000000000000000000000000000000000000815260040161060a90612ce9565b60405180910390fd5b6106208585858585610af7565b5050505050565b6060815183511461066d576040517f08c379a000000000000000000000000000000000000000000000000000000000815260040161066490612d69565b60405180910390fd5b6000835167ffffffffffffffff81111561068a576106896131d6565b5b6040519080825280602002602001820160405280156106b85781602001602082028036833780820191505090505b50905060005b8451811015610735576107058582815181106106dd576106dc6131a7565b5b60200260200101518583815181106106f8576106f76131a7565b5b6020026020010151610329565b828281518110610718576107176131a7565b5b6020026020010181815250508061072e90613100565b90506106be565b508091505092915050565b60008061074c836108f7565b119050919050565b61075f838383610e0b565b505050565b61077084848484610e1b565b50505050565b8173ffffffffffffffffffffffffffffffffffffffff16610795610aef565b73ffffffffffffffffffffffffffffffffffffffff1614156107ec576040517f08c379a00000000000000000000000000000000000000000000000000000000081526004016107e390612d49565b60405180910390fd5b80600160006107f9610aef565b73ffffffffffffffffffffffffffffffffffffffff1673ffffffffffffffffffffffffffffffffffffffff16815260200190815260200160002060008473ffffffffffffffffffffffffffffffffffffffff1673ffffffffffffffffffffffffffffffffffffffff16815260200190815260200160002060006101000a81548160ff0219169083151502179055508173ffffffffffffffffffffffffffffffffffffffff166108a6610aef565b73ffffffffffffffffffffffffffffffffffffffff167f17307eab39ab6107e8899845ad3d59bd9653f200f220920489ca2b5937696c31836040516108eb9190612bec565b60405180910390a35050565b600060036000838152602001908152602001600020549050919050565b6000600160008473ffffffffffffffffffffffffffffffffffffffff1673ffffffffffffffffffffffffffffffffffffffff16815260200190815260200160002060008373ffffffffffffffffffffffffffffffffffffffff1673ffffffffffffffffffffffffffffffffffffffff16815260200190815260200160002060009054906101000a900460ff16905092915050565b6109b0610aef565b73ffffffffffffffffffffffffffffffffffffffff168573ffffffffffffffffffffffffffffffffffffffff1614806109f657506109f5856109f0610aef565b610914565b5b610a35576040517f08c379a0000000000000000000000000000000000000000000000000000000008152600401610a2c90612ca9565b60405180910390fd5b610a428585858585610e2d565b5050505050565b610a548383836110af565b505050565b60007f01ffc9a7000000000000000000000000000000000000000000000000000000007bffffffffffffffffffffffffffffffffffffffffffffffffffffffff1916827bffffffffffffffffffffffffffffffffffffffffffffffffffffffff1916149050919050565b8060029080519060200190610ad9929190611f34565b5050565b610ae9848484846110bf565b50505050565b600033905090565b8151835114610b3b576040517f08c379a0000000000000000000000000000000000000000000000000000000008152600401610b3290612d89565b60405180910390fd5b600073ffffffffffffffffffffffffffffffffffffffff168473ffffffffffffffffffffffffffffffffffffffff161415610bab576040517f08c379a0000000000000000000000000000000000000000000000000000000008152600401610ba290612cc9565b60405180910390fd5b6000610bb5610aef565b9050610bc581878787878761114d565b60005b8451811015610d76576000858281518110610be657610be56131a7565b5b602002602001015190506000858381518110610c0557610c046131a7565b5b60200260200101519050600080600084815260200190815260200160002060008b73ffffffffffffffffffffffffffffffffffffffff1673ffffffffffffffffffffffffffffffffffffffff16815260200190815260200160002054905081811015610ca6576040517f08c379a0000000000000000000000000000000000000000000000000000000008152600401610c9d90612d29565b60405180910390fd5b81810360008085815260200190815260200160002060008c73ffffffffffffffffffffffffffffffffffffffff1673ffffffffffffffffffffffffffffffffffffffff168152602001908152602001600020819055508160008085815260200190815260200160002060008b73ffffffffffffffffffffffffffffffffffffffff1673ffffffffffffffffffffffffffffffffffffffff1681526020019081526020016000206000828254610d5b9190612f5d565b9250508190555050505080610d6f90613100565b9050610bc8565b508473ffffffffffffffffffffffffffffffffffffffff168673ffffffffffffffffffffffffffffffffffffffff168273ffffffffffffffffffffffffffffffffffffffff167f4a39dc06d4c0dbc64b70af90fd698a233a518aa5d07e595d983b8c0526c8f7fb8787604051610ded929190612bb5565b60405180910390a4610e03818787878787611155565b505050505050565b610e1683838361133c565b505050565b610e27848484846113c8565b50505050565b600073ffffffffffffffffffffffffffffffffffffffff168473ffffffffffffffffffffffffffffffffffffffff161415610e9d576040517f08c379a0000000000000000000000000000000000000000000000000000000008152600401610e9490612cc9565b60405180910390fd5b6000610ea7610aef565b9050610ec7818787610eb888611404565b610ec188611404565b8761114d565b600080600086815260200190815260200160002060008873ffffffffffffffffffffffffffffffffffffffff1673ffffffffffffffffffffffffffffffffffffffff16815260200190815260200160002054905083811015610f5e576040517f08c379a0000000000000000000000000000000000000000000000000000000008152600401610f5590612d29565b60405180910390fd5b83810360008087815260200190815260200160002060008973ffffffffffffffffffffffffffffffffffffffff1673ffffffffffffffffffffffffffffffffffffffff168152602001908152602001600020819055508360008087815260200190815260200160002060008873ffffffffffffffffffffffffffffffffffffffff1673ffffffffffffffffffffffffffffffffffffffff16815260200190815260200160002060008282546110139190612f5d565b925050819055508573ffffffffffffffffffffffffffffffffffffffff168773ffffffffffffffffffffffffffffffffffffffff168373ffffffffffffffffffffffffffffffffffffffff167fc3d58168c5ae7397731d063d5bbf3d657854427343f4c083240f7aacaa2d0f628888604051611090929190612de4565b60405180910390a46110a682888888888861147e565b50505050505050565b6110ba838383611665565b505050565b6110cb8484848461169f565b60005b8351811015611146578281815181106110ea576110e96131a7565b5b602002602001015160036000868481518110611109576111086131a7565b5b60200260200101518152602001908152602001600020600082825461112e9190612f5d565b925050819055508061113f90613100565b90506110ce565b5050505050565b505050505050565b6111748473ffffffffffffffffffffffffffffffffffffffff166118bd565b15611334578373ffffffffffffffffffffffffffffffffffffffff1663bc197c8187878686866040518663ffffffff1660e01b81526004016111ba959493929190612ad1565b602060405180830381600087803b1580156111d457600080fd5b505af192505050801561120557506040513d601f19601f820116820180604052508101906112029190612743565b60015b6112ab57611211613205565b806308c379a0141561126e5750611226613661565b806112315750611270565b806040517f08c379a00000000000000000000000000000000000000000000000000000000081526004016112659190612c07565b60405180910390fd5b505b6040517f08c379a00000000000000000000000000000000000000000000000000000000081526004016112a290612c29565b60405180910390fd5b63bc197c8160e01b7bffffffffffffffffffffffffffffffffffffffffffffffffffffffff1916817bffffffffffffffffffffffffffffffffffffffffffffffffffffffff191614611332576040517f08c379a000000000000000000000000000000000000000000000000000000000815260040161132990612c49565b60405180910390fd5b505b505050505050565b6113478383836118d0565b60005b82518110156113c257818181518110611366576113656131a7565b5b602002602001015160036000858481518110611385576113846131a7565b5b6020026020010151815260200190815260200160002060008282546113aa9190612fb3565b92505081905550806113bb90613100565b905061134a565b50505050565b6113d484848484611b81565b816003600085815260200190815260200160002060008282546113f79190612f5d565b9250508190555050505050565b60606000600167ffffffffffffffff811115611423576114226131d6565b5b6040519080825280602002602001820160405280156114515781602001602082028036833780820191505090505b5090508281600081518110611469576114686131a7565b5b60200260200101818152505080915050919050565b61149d8473ffffffffffffffffffffffffffffffffffffffff166118bd565b1561165d578373ffffffffffffffffffffffffffffffffffffffff1663f23a6e6187878686866040518663ffffffff1660e01b81526004016114e3959493929190612b39565b602060405180830381600087803b1580156114fd57600080fd5b505af192505050801561152e57506040513d601f19601f8201168201806040525081019061152b9190612743565b60015b6115d45761153a613205565b806308c379a01415611597575061154f613661565b8061155a5750611599565b806040517f08c379a000000000000000000000000000000000000000000000000000000000815260040161158e9190612c07565b60405180910390fd5b505b6040517f08c379a00000000000000000000000000000000000000000000000000000000081526004016115cb90612c29565b60405180910390fd5b63f23a6e6160e01b7bffffffffffffffffffffffffffffffffffffffffffffffffffffffff1916817bffffffffffffffffffffffffffffffffffffffffffffffffffffffff19161461165b576040517f08c379a000000000000000000000000000000000000000000000000000000000815260040161165290612c49565b60405180910390fd5b505b505050505050565b611670838383611d17565b806003600084815260200190815260200160002060008282546116939190612fb3565b92505081905550505050565b600073ffffffffffffffffffffffffffffffffffffffff168473ffffffffffffffffffffffffffffffffffffffff16141561170f576040517f08c379a000000000000000000000000000000000000000000000000000000000815260040161170690612da9565b60405180910390fd5b8151835114611753576040517f08c379a000000000000000000000000000000000000000000000000000000000815260040161174a90612d89565b60405180910390fd5b600061175d610aef565b905061176e8160008787878761114d565b60005b84518110156118275783818151811061178d5761178c6131a7565b5b60200260200101516000808784815181106117ab576117aa6131a7565b5b6020026020010151815260200190815260200160002060008873ffffffffffffffffffffffffffffffffffffffff1673ffffffffffffffffffffffffffffffffffffffff168152602001908152602001600020600082825461180d9190612f5d565b92505081905550808061181f90613100565b915050611771565b508473ffffffffffffffffffffffffffffffffffffffff16600073ffffffffffffffffffffffffffffffffffffffff168273ffffffffffffffffffffffffffffffffffffffff167f4a39dc06d4c0dbc64b70af90fd698a233a518aa5d07e595d983b8c0526c8f7fb878760405161189f929190612bb5565b60405180910390a46118b681600087878787611155565b5050505050565b600080823b905060008111915050919050565b600073ffffffffffffffffffffffffffffffffffffffff168373ffffffffffffffffffffffffffffffffffffffff161415611940576040517f08c379a000000000000000000000000000000000000000000000000000000000815260040161193790612d09565b60405180910390fd5b8051825114611984576040517f08c379a000000000000000000000000000000000000000000000000000000000815260040161197b90612d89565b60405180910390fd5b600061198e610aef565b90506119ae8185600086866040518060200160405280600081525061114d565b60005b8351811015611afb5760008482815181106119cf576119ce6131a7565b5b6020026020010151905060008483815181106119ee576119ed6131a7565b5b60200260200101519050600080600084815260200190815260200160002060008973ffffffffffffffffffffffffffffffffffffffff1673ffffffffffffffffffffffffffffffffffffffff16815260200190815260200160002054905081811015611a8f576040517f08c379a0000000000000000000000000000000000000000000000000000000008152600401611a8690612c89565b60405180910390fd5b81810360008085815260200190815260200160002060008a73ffffffffffffffffffffffffffffffffffffffff1673ffffffffffffffffffffffffffffffffffffffff168152602001908152602001600020819055505050508080611af390613100565b9150506119b1565b50600073ffffffffffffffffffffffffffffffffffffffff168473ffffffffffffffffffffffffffffffffffffffff168273ffffffffffffffffffffffffffffffffffffffff167f4a39dc06d4c0dbc64b70af90fd698a233a518aa5d07e595d983b8c0526c8f7fb8686604051611b73929190612bb5565b60405180910390a450505050565b600073ffffffffffffffffffffffffffffffffffffffff168473ffffffffffffffffffffffffffffffffffffffff161415611bf1576040517f08c379a0000000000000000000000000000000000000000000000000000000008152600401611be890612da9565b60405180910390fd5b6000611bfb610aef565b9050611c1c81600087611c0d88611404565b611c1688611404565b8761114d565b8260008086815260200190815260200160002060008773ffffffffffffffffffffffffffffffffffffffff1673ffffffffffffffffffffffffffffffffffffffff1681526020019081526020016000206000828254611c7b9190612f5d565b925050819055508473ffffffffffffffffffffffffffffffffffffffff16600073ffffffffffffffffffffffffffffffffffffffff168273ffffffffffffffffffffffffffffffffffffffff167fc3d58168c5ae7397731d063d5bbf3d657854427343f4c083240f7aacaa2d0f628787604051611cf9929190612de4565b60405180910390a4611d108160008787878761147e565b5050505050565b600073ffffffffffffffffffffffffffffffffffffffff168373ffffffffffffffffffffffffffffffffffffffff161415611d87576040517f08c379a0000000000000000000000000000000000000000000000000000000008152600401611d7e90612d09565b60405180910390fd5b6000611d91610aef565b9050611dc181856000611da387611404565b611dac87611404565b6040518060200160405280600081525061114d565b600080600085815260200190815260200160002060008673ffffffffffffffffffffffffffffffffffffffff1673ffffffffffffffffffffffffffffffffffffffff16815260200190815260200160002054905082811015611e58576040517f08c379a0000000000000000000000000000000000000000000000000000000008152600401611e4f90612c89565b60405180910390fd5b82810360008086815260200190815260200160002060008773ffffffffffffffffffffffffffffffffffffffff1673ffffffffffffffffffffffffffffffffffffffff16815260200190815260200160002081905550600073ffffffffffffffffffffffffffffffffffffffff168573ffffffffffffffffffffffffffffffffffffffff168373ffffffffffffffffffffffffffffffffffffffff167fc3d58168c5ae7397731d063d5bbf3d657854427343f4c083240f7aacaa2d0f628787604051611f25929190612de4565b60405180910390a45050505050565b828054611f409061309d565b90600052602060002090601f016020900481019282611f625760008555611fa9565b82601f10611f7b57805160ff1916838001178555611fa9565b82800160010185558215611fa9579182015b82811115611fa8578251825591602001919060010190611f8d565b5b509050611fb69190611fba565b5090565b5b80821115611fd3576000816000905550600101611fbb565b5090565b6000611fea611fe584612e32565b612e0d565b9050808382526020820190508285602086028201111561200d5761200c61322c565b5b60005b8581101561203d5781612023888261213b565b845260208401935060208301925050600181019050612010565b5050509392505050565b600061205a61205584612e5e565b612e0d565b9050808382526020820190508285602086028201111561207d5761207c61322c565b5b60005b858110156120ad57816120938882612247565b845260208401935060208301925050600181019050612080565b5050509392505050565b60006120ca6120c584612e8a565b612e0d565b9050828152602081018484840111156120e6576120e5613231565b5b6120f184828561305b565b509392505050565b600061210c61210784612ebb565b612e0d565b90508281526020810184848401111561212857612127613231565b5b61213384828561305b565b509392505050565b60008135905061214a816136f7565b92915050565b600082601f83011261216557612164613227565b5b8135612175848260208601611fd7565b91505092915050565b600082601f83011261219357612192613227565b5b81356121a3848260208601612047565b91505092915050565b6000813590506121bb8161370e565b92915050565b6000813590506121d081613725565b92915050565b6000815190506121e581613725565b92915050565b600082601f830112612200576121ff613227565b5b81356122108482602086016120b7565b91505092915050565b600082601f83011261222e5761222d613227565b5b813561223e8482602086016120f9565b91505092915050565b6000813590506122568161373c565b92915050565b600080604083850312156122735761227261323b565b5b60006122818582860161213b565b92505060206122928582860161213b565b9150509250929050565b600080600080600060a086880312156122b8576122b761323b565b5b60006122c68882890161213b565b95505060206122d78882890161213b565b945050604086013567ffffffffffffffff8111156122f8576122f7613236565b5b6123048882890161217e565b935050606086013567ffffffffffffffff81111561232557612324613236565b5b6123318882890161217e565b925050608086013567ffffffffffffffff81111561235257612351613236565b5b61235e888289016121eb565b9150509295509295909350565b600080600080600060a086880312156123875761238661323b565b5b60006123958882890161213b565b95505060206123a68882890161213b565b94505060406123b788828901612247565b93505060606123c888828901612247565b925050608086013567ffffffffffffffff8111156123e9576123e8613236565b5b6123f5888289016121eb565b9150509295509295909350565b60008060006060848603121561241b5761241a61323b565b5b60006124298682870161213b565b935050602084013567ffffffffffffffff81111561244a57612449613236565b5b6124568682870161217e565b925050604084013567ffffffffffffffff81111561247757612476613236565b5b6124838682870161217e565b9150509250925092565b600080600080608085870312156124a7576124a661323b565b5b60006124b58782880161213b565b945050602085013567ffffffffffffffff8111156124d6576124d5613236565b5b6124e28782880161217e565b935050604085013567ffffffffffffffff81111561250357612502613236565b5b61250f8782880161217e565b925050606085013567ffffffffffffffff8111156125305761252f613236565b5b61253c878288016121eb565b91505092959194509250565b6000806040838503121561255f5761255e61323b565b5b600061256d8582860161213b565b925050602061257e858286016121ac565b9150509250929050565b6000806040838503121561259f5761259e61323b565b5b60006125ad8582860161213b565b92505060206125be85828601612247565b9150509250929050565b6000806000606084860312156125e1576125e061323b565b5b60006125ef8682870161213b565b935050602061260086828701612247565b925050604061261186828701612247565b9150509250925092565b600080600080608085870312156126355761263461323b565b5b60006126438782880161213b565b945050602061265487828801612247565b935050604061266587828801612247565b925050606085013567ffffffffffffffff81111561268657612685613236565b5b612692878288016121eb565b91505092959194509250565b600080604083850312156126b5576126b461323b565b5b600083013567ffffffffffffffff8111156126d3576126d2613236565b5b6126df85828601612150565b925050602083013567ffffffffffffffff811115612700576126ff613236565b5b61270c8582860161217e565b9150509250929050565b60006020828403121561272c5761272b61323b565b5b600061273a848285016121c1565b91505092915050565b6000602082840312156127595761275861323b565b5b6000612767848285016121d6565b91505092915050565b6000602082840312156127865761278561323b565b5b600082013567ffffffffffffffff8111156127a4576127a3613236565b5b6127b084828501612219565b91505092915050565b6000602082840312156127cf576127ce61323b565b5b60006127dd84828501612247565b91505092915050565b60006127f28383612ab3565b60208301905092915050565b61280781612fe7565b82525050565b600061281882612efc565b6128228185612f2a565b935061282d83612eec565b8060005b8381101561285e57815161284588826127e6565b975061285083612f1d565b925050600181019050612831565b5085935050505092915050565b61287481612ff9565b82525050565b600061288582612f07565b61288f8185612f3b565b935061289f81856020860161306a565b6128a881613240565b840191505092915050565b60006128be82612f12565b6128c88185612f4c565b93506128d881856020860161306a565b6128e181613240565b840191505092915050565b60006128f9603483612f4c565b91506129048261325e565b604082019050919050565b600061291c602883612f4c565b9150612927826132ad565b604082019050919050565b600061293f602b83612f4c565b915061294a826132fc565b604082019050919050565b6000612962602483612f4c565b915061296d8261334b565b604082019050919050565b6000612985602983612f4c565b91506129908261339a565b604082019050919050565b60006129a8602583612f4c565b91506129b3826133e9565b604082019050919050565b60006129cb603283612f4c565b91506129d682613438565b604082019050919050565b60006129ee602383612f4c565b91506129f982613487565b604082019050919050565b6000612a11602a83612f4c565b9150612a1c826134d6565b604082019050919050565b6000612a34602983612f4c565b9150612a3f82613525565b604082019050919050565b6000612a57602983612f4c565b9150612a6282613574565b604082019050919050565b6000612a7a602883612f4c565b9150612a85826135c3565b604082019050919050565b6000612a9d602183612f4c565b9150612aa882613612565b604082019050919050565b612abc81613051565b82525050565b612acb81613051565b82525050565b600060a082019050612ae660008301886127fe565b612af360208301876127fe565b8181036040830152612b05818661280d565b90508181036060830152612b19818561280d565b90508181036080830152612b2d818461287a565b90509695505050505050565b600060a082019050612b4e60008301886127fe565b612b5b60208301876127fe565b612b686040830186612ac2565b612b756060830185612ac2565b8181036080830152612b87818461287a565b90509695505050505050565b60006020820190508181036000830152612bad818461280d565b905092915050565b60006040820190508181036000830152612bcf818561280d565b90508181036020830152612be3818461280d565b90509392505050565b6000602082019050612c01600083018461286b565b92915050565b60006020820190508181036000830152612c2181846128b3565b905092915050565b60006020820190508181036000830152612c42816128ec565b9050919050565b60006020820190508181036000830152612c628161290f565b9050919050565b60006020820190508181036000830152612c8281612932565b9050919050565b60006020820190508181036000830152612ca281612955565b9050919050565b60006020820190508181036000830152612cc281612978565b9050919050565b60006020820190508181036000830152612ce28161299b565b9050919050565b60006020820190508181036000830152612d02816129be565b9050919050565b60006020820190508181036000830152612d22816129e1565b9050919050565b60006020820190508181036000830152612d4281612a04565b9050919050565b60006020820190508181036000830152612d6281612a27565b9050919050565b60006020820190508181036000830152612d8281612a4a565b9050919050565b60006020820190508181036000830152612da281612a6d565b9050919050565b60006020820190508181036000830152612dc281612a90565b9050919050565b6000602082019050612dde6000830184612ac2565b92915050565b6000604082019050612df96000830185612ac2565b612e066020830184612ac2565b9392505050565b6000612e17612e28565b9050612e2382826130cf565b919050565b6000604051905090565b600067ffffffffffffffff821115612e4d57612e4c6131d6565b5b602082029050602081019050919050565b600067ffffffffffffffff821115612e7957612e786131d6565b5b602082029050602081019050919050565b600067ffffffffffffffff821115612ea557612ea46131d6565b5b612eae82613240565b9050602081019050919050565b600067ffffffffffffffff821115612ed657612ed56131d6565b5b612edf82613240565b9050602081019050919050565b6000819050602082019050919050565b600081519050919050565b600081519050919050565b600081519050919050565b6000602082019050919050565b600082825260208201905092915050565b600082825260208201905092915050565b600082825260208201905092915050565b6000612f6882613051565b9150612f7383613051565b9250827fffffffffffffffffffffffffffffffffffffffffffffffffffffffffffffffff03821115612fa857612fa7613149565b5b828201905092915050565b6000612fbe82613051565b9150612fc983613051565b925082821015612fdc57612fdb613149565b5b828203905092915050565b6000612ff282613031565b9050919050565b60008115159050919050565b60007fffffffff0000000000000000000000000000000000000000000000000000000082169050919050565b600073ffffffffffffffffffffffffffffffffffffffff82169050919050565b6000819050919050565b82818337600083830152505050565b60005b8381101561308857808201518184015260208101905061306d565b83811115613097576000848401525b50505050565b600060028204905060018216806130b557607f821691505b602082108114156130c9576130c8613178565b5b50919050565b6130d882613240565b810181811067ffffffffffffffff821117156130f7576130f66131d6565b5b80604052505050565b600061310b82613051565b91507fffffffffffffffffffffffffffffffffffffffffffffffffffffffffffffffff82141561313e5761313d613149565b5b600182019050919050565b7f4e487b7100000000000000000000000000000000000000000000000000000000600052601160045260246000fd5b7f4e487b7100000000000000000000000000000000000000000000000000000000600052602260045260246000fd5b7f4e487b7100000000000000000000000000000000000000000000000000000000600052603260045260246000fd5b7f4e487b7100000000000000000000000000000000000000000000000000000000600052604160045260246000fd5b600060033d11156132245760046000803e613221600051613251565b90505b90565b600080fd5b600080fd5b600080fd5b600080fd5b600080fd5b6000601f19601f8301169050919050565b60008160e01c9050919050565b7f455243313135353a207472616e7366657220746f206e6f6e204552433131353560008201527f526563656976657220696d706c656d656e746572000000000000000000000000602082015250565b7f455243313135353a204552433131353552656365697665722072656a6563746560008201527f6420746f6b656e73000000000000000000000000000000000000000000000000602082015250565b7f455243313135353a2062616c616e636520717565727920666f7220746865207a60008201527f65726f2061646472657373000000000000000000000000000000000000000000602082015250565b7f455243313135353a206275726e20616d6f756e7420657863656564732062616c60008201527f616e636500000000000000000000000000000000000000000000000000000000602082015250565b7f455243313135353a2063616c6c6572206973206e6f74206f776e6572206e6f7260008201527f20617070726f7665640000000000000000000000000000000000000000000000602082015250565b7f455243313135353a207472616e7366657220746f20746865207a65726f20616460008201527f6472657373000000000000000000000000000000000000000000000000000000602082015250565b7f455243313135353a207472616e736665722063616c6c6572206973206e6f742060008201527f6f776e6572206e6f7220617070726f7665640000000000000000000000000000602082015250565b7f455243313135353a206275726e2066726f6d20746865207a65726f206164647260008201527f6573730000000000000000000000000000000000000000000000000000000000602082015250565b7f455243313135353a20696e73756666696369656e742062616c616e636520666f60008201527f72207472616e7366657200000000000000000000000000000000000000000000602082015250565b7f455243313135353a2073657474696e6720617070726f76616c2073746174757360008201527f20666f722073656c660000000000000000000000000000000000000000000000602082015250565b7f455243313135353a206163636f756e747320616e6420696473206c656e67746860008201527f206d69736d617463680000000000000000000000000000000000000000000000602082015250565b7f455243313135353a2069647320616e6420616d6f756e7473206c656e6774682060008201527f6d69736d61746368000000000000000000000000000000000000000000000000602082015250565b7f455243313135353a206d696e7420746f20746865207a65726f2061646472657360008201527f7300000000000000000000000000000000000000000000000000000000000000602082015250565b600060443d1015613671576136f4565b613679612e28565b60043d036004823e80513d602482011167ffffffffffffffff821117156136a15750506136f4565b808201805167ffffffffffffffff8111156136bf57505050506136f4565b80602083010160043d0385018111156136dc5750505050506136f4565b6136eb826020018501866130cf565b82955050505050505b90565b61370081612fe7565b811461370b57600080fd5b50565b61371781612ff9565b811461372257600080fd5b50565b61372e81613005565b811461373957600080fd5b50565b61374581613051565b811461375057600080fd5b5056fea264697066735822122061df013a3ae27ddbee8c4bf001e9f50d6ae1d57fa0e69b08b69cd45cc03f408464736f6c63430008070033",
  "immutableReferences": {},
  "source": "// SPDX-License-Identifier: MIT\n\npragma solidity ^0.8.0;\n\nimport \"./ERC1155Mock.sol\";\nimport \"../token/ERC1155/extensions/ERC1155Supply.sol\";\n\ncontract ERC1155SupplyMock is ERC1155Mock, ERC1155Supply {\n    constructor(string memory uri) ERC1155Mock(uri) {}\n\n    function _mint(\n        address account,\n        uint256 id,\n        uint256 amount,\n        bytes memory data\n    ) internal virtual override(ERC1155, ERC1155Supply) {\n        super._mint(account, id, amount, data);\n    }\n\n    function _mintBatch(\n        address to,\n        uint256[] memory ids,\n        uint256[] memory amounts,\n        bytes memory data\n    ) internal virtual override(ERC1155, ERC1155Supply) {\n        super._mintBatch(to, ids, amounts, data);\n    }\n\n    function _burn(\n        address account,\n        uint256 id,\n        uint256 amount\n    ) internal virtual override(ERC1155, ERC1155Supply) {\n        super._burn(account, id, amount);\n    }\n\n    function _burnBatch(\n        address account,\n        uint256[] memory ids,\n        uint256[] memory amounts\n    ) internal virtual override(ERC1155, ERC1155Supply) {\n        super._burnBatch(account, ids, amounts);\n    }\n}\n",
  "sourcePath": "/home/tenten/Projects/upcgold.io/src/contracts/openzeppelin-contracts/contracts/mocks/ERC1155SupplyMock.sol",
  "compiler": {
    "name": "solc",
    "version": "0.8.7+commit.e28d00a7.Emscripten.clang"
  },
  "schemaVersion": "3.2.3",
  "updatedAt": "2021-08-12T03:39:31.219Z",
  "devdoc": {
    "kind": "dev",
    "methods": {
      "balanceOf(address,uint256)": {
        "details": "See {IERC1155-balanceOf}. Requirements: - `account` cannot be the zero address."
      },
      "balanceOfBatch(address[],uint256[])": {
        "details": "See {IERC1155-balanceOfBatch}. Requirements: - `accounts` and `ids` must have the same length."
      },
      "exists(uint256)": {
        "details": "Indicates weither any token exist with a given id, or not."
      },
      "isApprovedForAll(address,address)": {
        "details": "See {IERC1155-isApprovedForAll}."
      },
      "safeBatchTransferFrom(address,address,uint256[],uint256[],bytes)": {
        "details": "See {IERC1155-safeBatchTransferFrom}."
      },
      "safeTransferFrom(address,address,uint256,uint256,bytes)": {
        "details": "See {IERC1155-safeTransferFrom}."
      },
      "setApprovalForAll(address,bool)": {
        "details": "See {IERC1155-setApprovalForAll}."
      },
      "supportsInterface(bytes4)": {
        "details": "See {IERC165-supportsInterface}."
      },
      "totalSupply(uint256)": {
        "details": "Total amount of tokens in with a given id."
      },
      "uri(uint256)": {
        "details": "See {IERC1155MetadataURI-uri}. This implementation returns the same URI for *all* token types. It relies on the token type ID substitution mechanism https://eips.ethereum.org/EIPS/eip-1155#metadata[defined in the EIP]. Clients calling this function must replace the `\\{id\\}` substring with the actual token type ID."
      }
    },
    "version": 1
  },
  "userdoc": {
    "kind": "user",
    "methods": {},
    "version": 1
  }
}