{
  "contractName": "ERC2771ContextMock",
  "abi": [
    {
      "inputs": [
        {
          "internalType": "address",
          "name": "trustedForwarder",
          "type": "address"
        }
      ],
      "stateMutability": "nonpayable",
      "type": "constructor"
    },
    {
      "anonymous": false,
      "inputs": [
        {
          "indexed": false,
          "internalType": "bytes",
          "name": "data",
          "type": "bytes"
        },
        {
          "indexed": false,
          "internalType": "uint256",
          "name": "integerValue",
          "type": "uint256"
        },
        {
          "indexed": false,
          "internalType": "string",
          "name": "stringValue",
          "type": "string"
        }
      ],
      "name": "Data",
      "type": "event"
    },
    {
      "anonymous": false,
      "inputs": [
        {
          "indexed": false,
          "internalType": "address",
          "name": "sender",
          "type": "address"
        }
      ],
      "name": "Sender",
      "type": "event"
    },
    {
      "inputs": [
        {
          "internalType": "address",
          "name": "forwarder",
          "type": "address"
        }
      ],
      "name": "isTrustedForwarder",
      "outputs": [
        {
          "internalType": "bool",
          "name": "",
          "type": "bool"
        }
      ],
      "stateMutability": "view",
      "type": "function"
    },
    {
      "inputs": [
        {
          "internalType": "uint256",
          "name": "integerValue",
          "type": "uint256"
        },
        {
          "internalType": "string",
          "name": "stringValue",
          "type": "string"
        }
      ],
      "name": "msgData",
      "outputs": [],
      "stateMutability": "nonpayable",
      "type": "function"
    },
    {
      "inputs": [],
      "name": "msgSender",
      "outputs": [],
      "stateMutability": "nonpayable",
      "type": "function"
    }
  ],
  "bytecode": "0x608060405234801561001057600080fd5b5060405161081e38038061081e8339818101604052810190610032919061008f565b80806000806101000a81548173ffffffffffffffffffffffffffffffffffffffff021916908373ffffffffffffffffffffffffffffffffffffffff160217905550505061010a565b600081519050610089816100f3565b92915050565b6000602082840312156100a5576100a46100ee565b5b60006100b38482850161007a565b91505092915050565b60006100c7826100ce565b9050919050565b600073ffffffffffffffffffffffffffffffffffffffff82169050919050565b600080fd5b6100fc816100bc565b811461010757600080fd5b50565b610705806101196000396000f3fe608060405234801561001057600080fd5b50600436106100415760003560e01c8063376bf26214610046578063572b6c0514610062578063d737d0c714610092575b600080fd5b610060600480360381019061005b91906102fb565b61009c565b005b61007c600480360381019061007791906102ce565b6100e3565b6040516100899190610405565b60405180910390f35b61009a61013c565b005b7faf235354a0a47c91ee171961326335cb2d1a8e55b8a89859b0e61eb049e50ea06100c561017c565b84846040516100d79493929190610420565b60405180910390a15050565b60008060009054906101000a900473ffffffffffffffffffffffffffffffffffffffff1673ffffffffffffffffffffffffffffffffffffffff168273ffffffffffffffffffffffffffffffffffffffff16149050919050565b7fd6558c3ed910d959271054471fd1c326679d9fece99c5091b00ed89627cf2bfc61016561018f565b60405161017291906103ea565b60405180910390a1565b36600061018761019e565b915091509091565b60006101996101ed565b905090565b3660006101aa336100e3565b156101dc57600036600090601460003690506101c69190610525565b926101d3939291906104ea565b915091506101e9565b6101e461021f565b915091505b9091565b60006101f8336100e3565b1561020c57601436033560601c905061021b565b61021461022c565b905061021c565b5b90565b3660008036915091509091565b600033905090565b60006102476102428461048c565b610467565b90508281526020810184848401111561026357610262610681565b5b61026e8482856105a1565b509392505050565b600081359050610285816106a1565b92915050565b600082601f8301126102a05761029f610672565b5b81356102b0848260208601610234565b91505092915050565b6000813590506102c8816106b8565b92915050565b6000602082840312156102e4576102e361068b565b5b60006102f284828501610276565b91505092915050565b600080604083850312156103125761031161068b565b5b6000610320858286016102b9565b925050602083013567ffffffffffffffff81111561034157610340610686565b5b61034d8582860161028b565b9150509250929050565b61036081610559565b82525050565b61036f8161056b565b82525050565b600061038183856104c8565b935061038e8385846105a1565b61039783610690565b840190509392505050565b60006103ad826104bd565b6103b781856104d9565b93506103c78185602086016105b0565b6103d081610690565b840191505092915050565b6103e481610597565b82525050565b60006020820190506103ff6000830184610357565b92915050565b600060208201905061041a6000830184610366565b92915050565b6000606082019050818103600083015261043b818688610375565b905061044a60208301856103db565b818103604083015261045c81846103a2565b905095945050505050565b6000610471610482565b905061047d82826105e3565b919050565b6000604051905090565b600067ffffffffffffffff8211156104a7576104a6610643565b5b6104b082610690565b9050602081019050919050565b600081519050919050565b600082825260208201905092915050565b600082825260208201905092915050565b600080858511156104fe576104fd61067c565b5b8386111561050f5761050e610677565b5b6001850283019150848603905094509492505050565b600061053082610597565b915061053b83610597565b92508282101561054e5761054d610614565b5b828203905092915050565b600061056482610577565b9050919050565b60008115159050919050565b600073ffffffffffffffffffffffffffffffffffffffff82169050919050565b6000819050919050565b82818337600083830152505050565b60005b838110156105ce5780820151818401526020810190506105b3565b838111156105dd576000848401525b50505050565b6105ec82610690565b810181811067ffffffffffffffff8211171561060b5761060a610643565b5b80604052505050565b7f4e487b7100000000000000000000000000000000000000000000000000000000600052601160045260246000fd5b7f4e487b7100000000000000000000000000000000000000000000000000000000600052604160045260246000fd5b600080fd5b600080fd5b600080fd5b600080fd5b600080fd5b600080fd5b6000601f19601f8301169050919050565b6106aa81610559565b81146106b557600080fd5b50565b6106c181610597565b81146106cc57600080fd5b5056fea264697066735822122092244847630a95162adf191f7690fbb7e14c1e26dfe114b3b27945498e8835af64736f6c63430008070033",
  "immutableReferences": {},
  "source": "// SPDX-License-Identifier: MIT\n\npragma solidity ^0.8.0;\n\nimport \"./ContextMock.sol\";\nimport \"../metatx/ERC2771Context.sol\";\n\n// By inheriting from ERC2771Context, Context's internal functions are overridden automatically\ncontract ERC2771ContextMock is ContextMock, ERC2771Context {\n    constructor(address trustedForwarder) ERC2771Context(trustedForwarder) {}\n\n    function _msgSender() internal view virtual override(Context, ERC2771Context) returns (address) {\n        return ERC2771Context._msgSender();\n    }\n\n    function _msgData() internal view virtual override(Context, ERC2771Context) returns (bytes calldata) {\n        return ERC2771Context._msgData();\n    }\n}\n",
  "sourcePath": "/home/tenten/Projects/upcgold.io/src/contracts/openzeppelin-contracts/contracts/mocks/ERC2771ContextMock.sol",
  "compiler": {
    "name": "solc",
    "version": "0.8.7+commit.e28d00a7.Emscripten.clang"
  },
  "schemaVersion": "3.2.3",
  "updatedAt": "2021-08-12T03:39:31.261Z",
  "devdoc": {
    "kind": "dev",
    "methods": {},
    "version": 1
  },
  "userdoc": {
    "kind": "user",
    "methods": {},
    "version": 1
  }
}