{
  "contractName": "ERC20VotesMock",
  "abi": [
    {
      "inputs": [
        {
          "internalType": "string",
          "name": "name",
          "type": "string"
        },
        {
          "internalType": "string",
          "name": "symbol",
          "type": "string"
        }
      ],
      "stateMutability": "nonpayable",
      "type": "constructor"
    },
    {
      "anonymous": false,
      "inputs": [
        {
          "indexed": true,
          "internalType": "address",
          "name": "owner",
          "type": "address"
        },
        {
          "indexed": true,
          "internalType": "address",
          "name": "spender",
          "type": "address"
        },
        {
          "indexed": false,
          "internalType": "uint256",
          "name": "value",
          "type": "uint256"
        }
      ],
      "name": "Approval",
      "type": "event"
    },
    {
      "anonymous": false,
      "inputs": [
        {
          "indexed": true,
          "internalType": "address",
          "name": "delegator",
          "type": "address"
        },
        {
          "indexed": true,
          "internalType": "address",
          "name": "fromDelegate",
          "type": "address"
        },
        {
          "indexed": true,
          "internalType": "address",
          "name": "toDelegate",
          "type": "address"
        }
      ],
      "name": "DelegateChanged",
      "type": "event"
    },
    {
      "anonymous": false,
      "inputs": [
        {
          "indexed": true,
          "internalType": "address",
          "name": "delegate",
          "type": "address"
        },
        {
          "indexed": false,
          "internalType": "uint256",
          "name": "previousBalance",
          "type": "uint256"
        },
        {
          "indexed": false,
          "internalType": "uint256",
          "name": "newBalance",
          "type": "uint256"
        }
      ],
      "name": "DelegateVotesChanged",
      "type": "event"
    },
    {
      "anonymous": false,
      "inputs": [
        {
          "indexed": true,
          "internalType": "address",
          "name": "from",
          "type": "address"
        },
        {
          "indexed": true,
          "internalType": "address",
          "name": "to",
          "type": "address"
        },
        {
          "indexed": false,
          "internalType": "uint256",
          "name": "value",
          "type": "uint256"
        }
      ],
      "name": "Transfer",
      "type": "event"
    },
    {
      "inputs": [],
      "name": "DOMAIN_SEPARATOR",
      "outputs": [
        {
          "internalType": "bytes32",
          "name": "",
          "type": "bytes32"
        }
      ],
      "stateMutability": "view",
      "type": "function"
    },
    {
      "inputs": [
        {
          "internalType": "address",
          "name": "owner",
          "type": "address"
        },
        {
          "internalType": "address",
          "name": "spender",
          "type": "address"
        }
      ],
      "name": "allowance",
      "outputs": [
        {
          "internalType": "uint256",
          "name": "",
          "type": "uint256"
        }
      ],
      "stateMutability": "view",
      "type": "function"
    },
    {
      "inputs": [
        {
          "internalType": "address",
          "name": "spender",
          "type": "address"
        },
        {
          "internalType": "uint256",
          "name": "amount",
          "type": "uint256"
        }
      ],
      "name": "approve",
      "outputs": [
        {
          "internalType": "bool",
          "name": "",
          "type": "bool"
        }
      ],
      "stateMutability": "nonpayable",
      "type": "function"
    },
    {
      "inputs": [
        {
          "internalType": "address",
          "name": "account",
          "type": "address"
        }
      ],
      "name": "balanceOf",
      "outputs": [
        {
          "internalType": "uint256",
          "name": "",
          "type": "uint256"
        }
      ],
      "stateMutability": "view",
      "type": "function"
    },
    {
      "inputs": [
        {
          "internalType": "address",
          "name": "account",
          "type": "address"
        },
        {
          "internalType": "uint32",
          "name": "pos",
          "type": "uint32"
        }
      ],
      "name": "checkpoints",
      "outputs": [
        {
          "components": [
            {
              "internalType": "uint32",
              "name": "fromBlock",
              "type": "uint32"
            },
            {
              "internalType": "uint224",
              "name": "votes",
              "type": "uint224"
            }
          ],
          "internalType": "struct ERC20Votes.Checkpoint",
          "name": "",
          "type": "tuple"
        }
      ],
      "stateMutability": "view",
      "type": "function"
    },
    {
      "inputs": [],
      "name": "decimals",
      "outputs": [
        {
          "internalType": "uint8",
          "name": "",
          "type": "uint8"
        }
      ],
      "stateMutability": "view",
      "type": "function"
    },
    {
      "inputs": [
        {
          "internalType": "address",
          "name": "spender",
          "type": "address"
        },
        {
          "internalType": "uint256",
          "name": "subtractedValue",
          "type": "uint256"
        }
      ],
      "name": "decreaseAllowance",
      "outputs": [
        {
          "internalType": "bool",
          "name": "",
          "type": "bool"
        }
      ],
      "stateMutability": "nonpayable",
      "type": "function"
    },
    {
      "inputs": [
        {
          "internalType": "address",
          "name": "delegatee",
          "type": "address"
        }
      ],
      "name": "delegate",
      "outputs": [],
      "stateMutability": "nonpayable",
      "type": "function"
    },
    {
      "inputs": [
        {
          "internalType": "address",
          "name": "delegatee",
          "type": "address"
        },
        {
          "internalType": "uint256",
          "name": "nonce",
          "type": "uint256"
        },
        {
          "internalType": "uint256",
          "name": "expiry",
          "type": "uint256"
        },
        {
          "internalType": "uint8",
          "name": "v",
          "type": "uint8"
        },
        {
          "internalType": "bytes32",
          "name": "r",
          "type": "bytes32"
        },
        {
          "internalType": "bytes32",
          "name": "s",
          "type": "bytes32"
        }
      ],
      "name": "delegateBySig",
      "outputs": [],
      "stateMutability": "nonpayable",
      "type": "function"
    },
    {
      "inputs": [
        {
          "internalType": "address",
          "name": "account",
          "type": "address"
        }
      ],
      "name": "delegates",
      "outputs": [
        {
          "internalType": "address",
          "name": "",
          "type": "address"
        }
      ],
      "stateMutability": "view",
      "type": "function"
    },
    {
      "inputs": [
        {
          "internalType": "uint256",
          "name": "blockNumber",
          "type": "uint256"
        }
      ],
      "name": "getPastTotalSupply",
      "outputs": [
        {
          "internalType": "uint256",
          "name": "",
          "type": "uint256"
        }
      ],
      "stateMutability": "view",
      "type": "function"
    },
    {
      "inputs": [
        {
          "internalType": "address",
          "name": "account",
          "type": "address"
        },
        {
          "internalType": "uint256",
          "name": "blockNumber",
          "type": "uint256"
        }
      ],
      "name": "getPastVotes",
      "outputs": [
        {
          "internalType": "uint256",
          "name": "",
          "type": "uint256"
        }
      ],
      "stateMutability": "view",
      "type": "function"
    },
    {
      "inputs": [
        {
          "internalType": "address",
          "name": "account",
          "type": "address"
        }
      ],
      "name": "getVotes",
      "outputs": [
        {
          "internalType": "uint256",
          "name": "",
          "type": "uint256"
        }
      ],
      "stateMutability": "view",
      "type": "function"
    },
    {
      "inputs": [
        {
          "internalType": "address",
          "name": "spender",
          "type": "address"
        },
        {
          "internalType": "uint256",
          "name": "addedValue",
          "type": "uint256"
        }
      ],
      "name": "increaseAllowance",
      "outputs": [
        {
          "internalType": "bool",
          "name": "",
          "type": "bool"
        }
      ],
      "stateMutability": "nonpayable",
      "type": "function"
    },
    {
      "inputs": [],
      "name": "name",
      "outputs": [
        {
          "internalType": "string",
          "name": "",
          "type": "string"
        }
      ],
      "stateMutability": "view",
      "type": "function"
    },
    {
      "inputs": [
        {
          "internalType": "address",
          "name": "owner",
          "type": "address"
        }
      ],
      "name": "nonces",
      "outputs": [
        {
          "internalType": "uint256",
          "name": "",
          "type": "uint256"
        }
      ],
      "stateMutability": "view",
      "type": "function"
    },
    {
      "inputs": [
        {
          "internalType": "address",
          "name": "account",
          "type": "address"
        }
      ],
      "name": "numCheckpoints",
      "outputs": [
        {
          "internalType": "uint32",
          "name": "",
          "type": "uint32"
        }
      ],
      "stateMutability": "view",
      "type": "function"
    },
    {
      "inputs": [
        {
          "internalType": "address",
          "name": "owner",
          "type": "address"
        },
        {
          "internalType": "address",
          "name": "spender",
          "type": "address"
        },
        {
          "internalType": "uint256",
          "name": "value",
          "type": "uint256"
        },
        {
          "internalType": "uint256",
          "name": "deadline",
          "type": "uint256"
        },
        {
          "internalType": "uint8",
          "name": "v",
          "type": "uint8"
        },
        {
          "internalType": "bytes32",
          "name": "r",
          "type": "bytes32"
        },
        {
          "internalType": "bytes32",
          "name": "s",
          "type": "bytes32"
        }
      ],
      "name": "permit",
      "outputs": [],
      "stateMutability": "nonpayable",
      "type": "function"
    },
    {
      "inputs": [],
      "name": "symbol",
      "outputs": [
        {
          "internalType": "string",
          "name": "",
          "type": "string"
        }
      ],
      "stateMutability": "view",
      "type": "function"
    },
    {
      "inputs": [],
      "name": "totalSupply",
      "outputs": [
        {
          "internalType": "uint256",
          "name": "",
          "type": "uint256"
        }
      ],
      "stateMutability": "view",
      "type": "function"
    },
    {
      "inputs": [
        {
          "internalType": "address",
          "name": "recipient",
          "type": "address"
        },
        {
          "internalType": "uint256",
          "name": "amount",
          "type": "uint256"
        }
      ],
      "name": "transfer",
      "outputs": [
        {
          "internalType": "bool",
          "name": "",
          "type": "bool"
        }
      ],
      "stateMutability": "nonpayable",
      "type": "function"
    },
    {
      "inputs": [
        {
          "internalType": "address",
          "name": "sender",
          "type": "address"
        },
        {
          "internalType": "address",
          "name": "recipient",
          "type": "address"
        },
        {
          "internalType": "uint256",
          "name": "amount",
          "type": "uint256"
        }
      ],
      "name": "transferFrom",
      "outputs": [
        {
          "internalType": "bool",
          "name": "",
          "type": "bool"
        }
      ],
      "stateMutability": "nonpayable",
      "type": "function"
    },
    {
      "inputs": [
        {
          "internalType": "address",
          "name": "account",
          "type": "address"
        },
        {
          "internalType": "uint256",
          "name": "amount",
          "type": "uint256"
        }
      ],
      "name": "mint",
      "outputs": [],
      "stateMutability": "nonpayable",
      "type": "function"
    },
    {
      "inputs": [
        {
          "internalType": "address",
          "name": "account",
          "type": "address"
        },
        {
          "internalType": "uint256",
          "name": "amount",
          "type": "uint256"
        }
      ],
      "name": "burn",
      "outputs": [],
      "stateMutability": "nonpayable",
      "type": "function"
    },
    {
      "inputs": [],
      "name": "getChainId",
      "outputs": [
        {
          "internalType": "uint256",
          "name": "",
          "type": "uint256"
        }
      ],
      "stateMutability": "view",
      "type": "function"
    }
  ],
  "bytecode": "0x6101406040527f6e71edae12b1b97f4d1f60370fef10105fa2faae0126114a169c64845d6126c9610120908152503480156200003a57600080fd5b5060405162003fa038038062003fa08339818101604052810190620000609190620002be565b81806040518060400160405280600181526020017f310000000000000000000000000000000000000000000000000000000000000081525084848160039080519060200190620000b292919062000190565b508060049080519060200190620000cb92919062000190565b50505060008280519060200120905060008280519060200120905060007f8b73c3c69bb8fe3d512ecc4cf759cc79239f7b179b0ffacaa9a75d522b39400f90508260c081815250508160e081815250504660a08181525050620001368184846200015460201b60201c565b6080818152505080610100818152505050505050505050506200059f565b600083838346306040516020016200017195949392919062000376565b6040516020818303038152906040528051906020012090509392505050565b8280546200019e90620004b0565b90600052602060002090601f016020900481019282620001c257600085556200020e565b82601f10620001dd57805160ff19168380011785556200020e565b828001600101855582156200020e579182015b828111156200020d578251825591602001919060010190620001f0565b5b5090506200021d919062000221565b5090565b5b808211156200023c57600081600090555060010162000222565b5090565b6000620002576200025184620003fc565b620003d3565b9050828152602081018484840111156200027657620002756200057f565b5b620002838482856200047a565b509392505050565b600082601f830112620002a357620002a26200057a565b5b8151620002b584826020860162000240565b91505092915050565b60008060408385031215620002d857620002d762000589565b5b600083015167ffffffffffffffff811115620002f957620002f862000584565b5b62000307858286016200028b565b925050602083015167ffffffffffffffff8111156200032b576200032a62000584565b5b62000339858286016200028b565b9150509250929050565b6200034e8162000432565b82525050565b6200035f8162000446565b82525050565b620003708162000470565b82525050565b600060a0820190506200038d600083018862000354565b6200039c602083018762000354565b620003ab604083018662000354565b620003ba606083018562000365565b620003c9608083018462000343565b9695505050505050565b6000620003df620003f2565b9050620003ed8282620004e6565b919050565b6000604051905090565b600067ffffffffffffffff8211156200041a57620004196200054b565b5b62000425826200058e565b9050602081019050919050565b60006200043f8262000450565b9050919050565b6000819050919050565b600073ffffffffffffffffffffffffffffffffffffffff82169050919050565b6000819050919050565b60005b838110156200049a5780820151818401526020810190506200047d565b83811115620004aa576000848401525b50505050565b60006002820490506001821680620004c957607f821691505b60208210811415620004e057620004df6200051c565b5b50919050565b620004f1826200058e565b810181811067ffffffffffffffff821117156200051357620005126200054b565b5b80604052505050565b7f4e487b7100000000000000000000000000000000000000000000000000000000600052602260045260246000fd5b7f4e487b7100000000000000000000000000000000000000000000000000000000600052604160045260246000fd5b600080fd5b600080fd5b600080fd5b600080fd5b6000601f19601f8301169050919050565b60805160a05160c05160e05161010051610120516139b1620005ef6000396000610e3c01526000611579015260006115bb0152600061159a015260006115260152600061154e01526139b16000f3fe608060405234801561001057600080fd5b50600436106101735760003560e01c80636fcfff45116100de5780639dc29fac11610097578063c3cda52011610071578063c3cda520146104c0578063d505accf146104dc578063dd62ed3e146104f8578063f1127ed81461052857610173565b80639dc29fac14610444578063a457c2d714610460578063a9059cbb1461049057610173565b80636fcfff451461033657806370a08231146103665780637ecebe00146103965780638e539e8c146103c657806395d89b41146103f65780639ab24eb01461041457610173565b80633644e515116101305780633644e51514610250578063395093511461026e5780633a46b1a81461029e57806340c10f19146102ce578063587cde1e146102ea5780635c19a95c1461031a57610173565b806306fdde0314610178578063095ea7b31461019657806318160ddd146101c657806323b872dd146101e4578063313ce567146102145780633408e47014610232575b600080fd5b610180610558565b60405161018d9190612d5d565b60405180910390f35b6101b060048036038101906101ab9190612664565b6105ea565b6040516101bd9190612be9565b60405180910390f35b6101ce610608565b6040516101db919061303a565b60405180910390f35b6101fe60048036038101906101f9919061256f565b610612565b60405161020b9190612be9565b60405180910390f35b61021c61070a565b6040516102299190613099565b60405180910390f35b61023a610713565b604051610247919061303a565b60405180910390f35b61025861071b565b6040516102659190612c04565b60405180910390f35b61028860048036038101906102839190612664565b61072a565b6040516102959190612be9565b60405180910390f35b6102b860048036038101906102b39190612664565b6107d6565b6040516102c5919061303a565b60405180910390f35b6102e860048036038101906102e39190612664565b61086a565b005b61030460048036038101906102ff9190612502565b610878565b6040516103119190612bce565b60405180910390f35b610334600480360381019061032f9190612502565b6108e1565b005b610350600480360381019061034b9190612502565b6108f5565b60405161035d919061307e565b60405180910390f35b610380600480360381019061037b9190612502565b610949565b60405161038d919061303a565b60405180910390f35b6103b060048036038101906103ab9190612502565b610991565b6040516103bd919061303a565b60405180910390f35b6103e060048036038101906103db9190612771565b6109e1565b6040516103ed919061303a565b60405180910390f35b6103fe610a37565b60405161040b9190612d5d565b60405180910390f35b61042e60048036038101906104299190612502565b610ac9565b60405161043b919061303a565b60405180910390f35b61045e60048036038101906104599190612664565b610bda565b005b61047a60048036038101906104759190612664565b610be8565b6040516104879190612be9565b60405180910390f35b6104aa60048036038101906104a59190612664565b610cd3565b6040516104b79190612be9565b60405180910390f35b6104da60048036038101906104d591906126a4565b610cf1565b005b6104f660048036038101906104f191906125c2565b610df5565b005b610512600480360381019061050d919061252f565b610f37565b60405161051f919061303a565b60405180910390f35b610542600480360381019061053d9190612731565b610fbe565b60405161054f919061301f565b60405180910390f35b60606003805461056790613260565b80601f016020809104026020016040519081016040528092919081815260200182805461059390613260565b80156105e05780601f106105b5576101008083540402835291602001916105e0565b820191906000526020600020905b8154815290600101906020018083116105c357829003601f168201915b5050505050905090565b60006105fe6105f76110ce565b84846110d6565b6001905092915050565b6000600254905090565b600061061f8484846112a1565b6000600160008673ffffffffffffffffffffffffffffffffffffffff1673ffffffffffffffffffffffffffffffffffffffff168152602001908152602001600020600061066a6110ce565b73ffffffffffffffffffffffffffffffffffffffff1673ffffffffffffffffffffffffffffffffffffffff168152602001908152602001600020549050828110156106ea576040517f08c379a00000000000000000000000000000000000000000000000000000000081526004016106e190612eff565b60405180910390fd5b6106fe856106f66110ce565b8584036110d6565b60019150509392505050565b60006012905090565b600046905090565b6000610725611522565b905090565b60006107cc6107376110ce565b8484600160006107456110ce565b73ffffffffffffffffffffffffffffffffffffffff1673ffffffffffffffffffffffffffffffffffffffff16815260200190815260200160002060008873ffffffffffffffffffffffffffffffffffffffff1673ffffffffffffffffffffffffffffffffffffffff168152602001908152602001600020546107c791906130db565b6110d6565b6001905092915050565b600043821061081a576040517f08c379a000000000000000000000000000000000000000000000000000000000815260040161081190612dbf565b60405180910390fd5b610862600760008573ffffffffffffffffffffffffffffffffffffffff1673ffffffffffffffffffffffffffffffffffffffff168152602001908152602001600020836115e5565b905092915050565b61087482826116f1565b5050565b6000600660008373ffffffffffffffffffffffffffffffffffffffff1673ffffffffffffffffffffffffffffffffffffffff16815260200190815260200160002060009054906101000a900473ffffffffffffffffffffffffffffffffffffffff169050919050565b6108f26108ec6110ce565b8261177e565b50565b6000610942600760008473ffffffffffffffffffffffffffffffffffffffff1673ffffffffffffffffffffffffffffffffffffffff16815260200190815260200160002080549050611898565b9050919050565b60008060008373ffffffffffffffffffffffffffffffffffffffff1673ffffffffffffffffffffffffffffffffffffffff168152602001908152602001600020549050919050565b60006109da600560008473ffffffffffffffffffffffffffffffffffffffff1673ffffffffffffffffffffffffffffffffffffffff1681526020019081526020016000206118eb565b9050919050565b6000438210610a25576040517f08c379a0000000000000000000000000000000000000000000000000000000008152600401610a1c90612dbf565b60405180910390fd5b610a306008836115e5565b9050919050565b606060048054610a4690613260565b80601f0160208091040260200160405190810160405280929190818152602001828054610a7290613260565b8015610abf5780601f10610a9457610100808354040283529160200191610abf565b820191906000526020600020905b815481529060010190602001808311610aa257829003601f168201915b5050505050905090565b600080600760008473ffffffffffffffffffffffffffffffffffffffff1673ffffffffffffffffffffffffffffffffffffffff16815260200190815260200160002080549050905060008114610bb157600760008473ffffffffffffffffffffffffffffffffffffffff1673ffffffffffffffffffffffffffffffffffffffff168152602001908152602001600020600182610b659190613162565b81548110610b7657610b75613329565b5b9060005260206000200160000160049054906101000a90047bffffffffffffffffffffffffffffffffffffffffffffffffffffffff16610bb4565b60005b7bffffffffffffffffffffffffffffffffffffffffffffffffffffffff16915050919050565b610be482826118f9565b5050565b60008060016000610bf76110ce565b73ffffffffffffffffffffffffffffffffffffffff1673ffffffffffffffffffffffffffffffffffffffff16815260200190815260200160002060008573ffffffffffffffffffffffffffffffffffffffff1673ffffffffffffffffffffffffffffffffffffffff16815260200190815260200160002054905082811015610cb4576040517f08c379a0000000000000000000000000000000000000000000000000000000008152600401610cab90612fdf565b60405180910390fd5b610cc8610cbf6110ce565b858584036110d6565b600191505092915050565b6000610ce7610ce06110ce565b84846112a1565b6001905092915050565b83421115610d34576040517f08c379a0000000000000000000000000000000000000000000000000000000008152600401610d2b90612ddf565b60405180910390fd5b6000610d96610d8e7fe48329057bfd03d55e49b547132e39cffd9c1820ad7b9d4c5307691425d15adf898989604051602001610d739493929190612c80565b60405160208183030381529060405280519060200120611917565b858585611931565b9050610da181611abc565b8614610de2576040517f08c379a0000000000000000000000000000000000000000000000000000000008152600401610dd990612e1f565b60405180910390fd5b610dec818861177e565b50505050505050565b83421115610e38576040517f08c379a0000000000000000000000000000000000000000000000000000000008152600401610e2f90612e5f565b60405180910390fd5b60007f0000000000000000000000000000000000000000000000000000000000000000888888610e678c611abc565b89604051602001610e7d96959493929190612c1f565b6040516020818303038152906040528051906020012090506000610ea082611917565b90506000610eb082878787611931565b90508973ffffffffffffffffffffffffffffffffffffffff168173ffffffffffffffffffffffffffffffffffffffff1614610f20576040517f08c379a0000000000000000000000000000000000000000000000000000000008152600401610f1790612edf565b60405180910390fd5b610f2b8a8a8a6110d6565b50505050505050505050565b6000600160008473ffffffffffffffffffffffffffffffffffffffff1673ffffffffffffffffffffffffffffffffffffffff16815260200190815260200160002060008373ffffffffffffffffffffffffffffffffffffffff1673ffffffffffffffffffffffffffffffffffffffff16815260200190815260200160002054905092915050565b610fc661245b565b600760008473ffffffffffffffffffffffffffffffffffffffff1673ffffffffffffffffffffffffffffffffffffffff1681526020019081526020016000208263ffffffff168154811061101d5761101c613329565b5b906000526020600020016040518060400160405290816000820160009054906101000a900463ffffffff1663ffffffff1663ffffffff1681526020016000820160049054906101000a90047bffffffffffffffffffffffffffffffffffffffffffffffffffffffff167bffffffffffffffffffffffffffffffffffffffffffffffffffffffff167bffffffffffffffffffffffffffffffffffffffffffffffffffffffff1681525050905092915050565b600033905090565b600073ffffffffffffffffffffffffffffffffffffffff168373ffffffffffffffffffffffffffffffffffffffff161415611146576040517f08c379a000000000000000000000000000000000000000000000000000000000815260040161113d90612fbf565b60405180910390fd5b600073ffffffffffffffffffffffffffffffffffffffff168273ffffffffffffffffffffffffffffffffffffffff1614156111b6576040517f08c379a00000000000000000000000000000000000000000000000000000000081526004016111ad90612e3f565b60405180910390fd5b80600160008573ffffffffffffffffffffffffffffffffffffffff1673ffffffffffffffffffffffffffffffffffffffff16815260200190815260200160002060008473ffffffffffffffffffffffffffffffffffffffff1673ffffffffffffffffffffffffffffffffffffffff168152602001908152602001600020819055508173ffffffffffffffffffffffffffffffffffffffff168373ffffffffffffffffffffffffffffffffffffffff167f8c5be1e5ebec7d5bd14f71427d1e84f3dd0314c0f7b2291e5b200ac8c7c3b92583604051611294919061303a565b60405180910390a3505050565b600073ffffffffffffffffffffffffffffffffffffffff168373ffffffffffffffffffffffffffffffffffffffff161415611311576040517f08c379a000000000000000000000000000000000000000000000000000000000815260040161130890612f7f565b60405180910390fd5b600073ffffffffffffffffffffffffffffffffffffffff168273ffffffffffffffffffffffffffffffffffffffff161415611381576040517f08c379a000000000000000000000000000000000000000000000000000000000815260040161137890612d9f565b60405180910390fd5b61138c838383611b1a565b60008060008573ffffffffffffffffffffffffffffffffffffffff1673ffffffffffffffffffffffffffffffffffffffff16815260200190815260200160002054905081811015611412576040517f08c379a000000000000000000000000000000000000000000000000000000000815260040161140990612e7f565b60405180910390fd5b8181036000808673ffffffffffffffffffffffffffffffffffffffff1673ffffffffffffffffffffffffffffffffffffffff16815260200190815260200160002081905550816000808573ffffffffffffffffffffffffffffffffffffffff1673ffffffffffffffffffffffffffffffffffffffff16815260200190815260200160002060008282546114a591906130db565b925050819055508273ffffffffffffffffffffffffffffffffffffffff168473ffffffffffffffffffffffffffffffffffffffff167fddf252ad1be2c89b69c2b068fc378daa952ba7f163c4a11628f55a4df523b3ef84604051611509919061303a565b60405180910390a361151c848484611b1f565b50505050565b60007f0000000000000000000000000000000000000000000000000000000000000000461415611574577f000000000000000000000000000000000000000000000000000000000000000090506115e2565b6115df7f00000000000000000000000000000000000000000000000000000000000000007f00000000000000000000000000000000000000000000000000000000000000007f0000000000000000000000000000000000000000000000000000000000000000611b4a565b90505b90565b6000808380549050905060005b818110156116645760006116068284611b84565b90508486828154811061161c5761161b613329565b5b9060005260206000200160000160009054906101000a900463ffffffff1663ffffffff16111561164e5780925061165e565b60018161165b91906130db565b91505b506115f2565b600082146116c6578460018361167a9190613162565b8154811061168b5761168a613329565b5b9060005260206000200160000160049054906101000a90047bffffffffffffffffffffffffffffffffffffffffffffffffffffffff166116c9565b60005b7bffffffffffffffffffffffffffffffffffffffffffffffffffffffff169250505092915050565b6116fb8282611baa565b611703611d0a565b7bffffffffffffffffffffffffffffffffffffffffffffffffffffffff16611729610608565b111561176a576040517f08c379a000000000000000000000000000000000000000000000000000000000815260040161176190612f1f565b60405180910390fd5b6117786008611d2e83611d44565b50505050565b600061178983610878565b9050600061179684610949565b905082600660008673ffffffffffffffffffffffffffffffffffffffff1673ffffffffffffffffffffffffffffffffffffffff16815260200190815260200160002060006101000a81548173ffffffffffffffffffffffffffffffffffffffff021916908373ffffffffffffffffffffffffffffffffffffffff1602179055508273ffffffffffffffffffffffffffffffffffffffff168273ffffffffffffffffffffffffffffffffffffffff168573ffffffffffffffffffffffffffffffffffffffff167f3134e8a2e6d97e929a7e54011ea5485d7d196dd5f0ba4d4ef95803e8e3fc257f60405160405180910390a4611892828483611fbc565b50505050565b600063ffffffff80168211156118e3576040517f08c379a00000000000000000000000000000000000000000000000000000000081526004016118da90612f9f565b60405180910390fd5b819050919050565b600081600001549050919050565b61190382826121b5565b611911600861238c83611d44565b50505050565b600061192a611924611522565b836123a2565b9050919050565b60007f7fffffffffffffffffffffffffffffff5d576e7357a4501ddfe92f46681b20a08260001c1115611999576040517f08c379a000000000000000000000000000000000000000000000000000000000815260040161199090612e9f565b60405180910390fd5b601b8460ff1614806119ae5750601c8460ff16145b6119ed576040517f08c379a00000000000000000000000000000000000000000000000000000000081526004016119e490612ebf565b60405180910390fd5b600060018686868660405160008152602001604052604051611a129493929190612d18565b6020604051602081039080840390855afa158015611a34573d6000803e3d6000fd5b505050602060405103519050600073ffffffffffffffffffffffffffffffffffffffff168173ffffffffffffffffffffffffffffffffffffffff161415611ab0576040517f08c379a0000000000000000000000000000000000000000000000000000000008152600401611aa790612d7f565b60405180910390fd5b80915050949350505050565b600080600560008473ffffffffffffffffffffffffffffffffffffffff1673ffffffffffffffffffffffffffffffffffffffff1681526020019081526020016000209050611b09816118eb565b9150611b14816123d5565b50919050565b505050565b611b2a8383836123eb565b611b45611b3684610878565b611b3f84610878565b83611fbc565b505050565b60008383834630604051602001611b65959493929190612cc5565b6040516020818303038152906040528051906020012090509392505050565b60006002828418611b959190613131565b828416611ba291906130db565b905092915050565b600073ffffffffffffffffffffffffffffffffffffffff168273ffffffffffffffffffffffffffffffffffffffff161415611c1a576040517f08c379a0000000000000000000000000000000000000000000000000000000008152600401611c1190612fff565b60405180910390fd5b611c2660008383611b1a565b8060026000828254611c3891906130db565b92505081905550806000808473ffffffffffffffffffffffffffffffffffffffff1673ffffffffffffffffffffffffffffffffffffffff1681526020019081526020016000206000828254611c8d91906130db565b925050819055508173ffffffffffffffffffffffffffffffffffffffff16600073ffffffffffffffffffffffffffffffffffffffff167fddf252ad1be2c89b69c2b068fc378daa952ba7f163c4a11628f55a4df523b3ef83604051611cf2919061303a565b60405180910390a3611d0660008383611b1f565b5050565b60007bffffffffffffffffffffffffffffffffffffffffffffffffffffffff905090565b60008183611d3c91906130db565b905092915050565b60008060008580549050905060008114611db25785600182611d669190613162565b81548110611d7757611d76613329565b5b9060005260206000200160000160049054906101000a90047bffffffffffffffffffffffffffffffffffffffffffffffffffffffff16611db5565b60005b7bffffffffffffffffffffffffffffffffffffffffffffffffffffffff169250611de383858763ffffffff16565b9150600081118015611e3657504386600183611dff9190613162565b81548110611e1057611e0f613329565b5b9060005260206000200160000160009054906101000a900463ffffffff1663ffffffff16145b15611ec357611e44826123f0565b86600183611e529190613162565b81548110611e6357611e62613329565b5b9060005260206000200160000160046101000a8154817bffffffffffffffffffffffffffffffffffffffffffffffffffffffff02191690837bffffffffffffffffffffffffffffffffffffffffffffffffffffffff160217905550611fb3565b856040518060400160405280611ed843611898565b63ffffffff168152602001611eec856123f0565b7bffffffffffffffffffffffffffffffffffffffffffffffffffffffff168152509080600181540180825580915050600190039060005260206000200160009091909190915060008201518160000160006101000a81548163ffffffff021916908363ffffffff16021790555060208201518160000160046101000a8154817bffffffffffffffffffffffffffffffffffffffffffffffffffffffff02191690837bffffffffffffffffffffffffffffffffffffffffffffffffffffffff16021790555050505b50935093915050565b8173ffffffffffffffffffffffffffffffffffffffff168373ffffffffffffffffffffffffffffffffffffffff1614158015611ff85750600081115b156121b057600073ffffffffffffffffffffffffffffffffffffffff168373ffffffffffffffffffffffffffffffffffffffff16146120d65760008061207f600760008773ffffffffffffffffffffffffffffffffffffffff1673ffffffffffffffffffffffffffffffffffffffff16815260200190815260200160002061238c85611d44565b915091508473ffffffffffffffffffffffffffffffffffffffff167fdec2bacdd2f05b59de34da9b523dff8be42e5e38e818c82fdb0bae774387a72483836040516120cb929190613055565b60405180910390a250505b600073ffffffffffffffffffffffffffffffffffffffff168273ffffffffffffffffffffffffffffffffffffffff16146121af57600080612158600760008673ffffffffffffffffffffffffffffffffffffffff1673ffffffffffffffffffffffffffffffffffffffff168152602001908152602001600020611d2e85611d44565b915091508373ffffffffffffffffffffffffffffffffffffffff167fdec2bacdd2f05b59de34da9b523dff8be42e5e38e818c82fdb0bae774387a72483836040516121a4929190613055565b60405180910390a250505b5b505050565b600073ffffffffffffffffffffffffffffffffffffffff168273ffffffffffffffffffffffffffffffffffffffff161415612225576040517f08c379a000000000000000000000000000000000000000000000000000000000815260040161221c90612f5f565b60405180910390fd5b61223182600083611b1a565b60008060008473ffffffffffffffffffffffffffffffffffffffff1673ffffffffffffffffffffffffffffffffffffffff168152602001908152602001600020549050818110156122b7576040517f08c379a00000000000000000000000000000000000000000000000000000000081526004016122ae90612dff565b60405180910390fd5b8181036000808573ffffffffffffffffffffffffffffffffffffffff1673ffffffffffffffffffffffffffffffffffffffff16815260200190815260200160002081905550816002600082825461230e9190613162565b92505081905550600073ffffffffffffffffffffffffffffffffffffffff168373ffffffffffffffffffffffffffffffffffffffff167fddf252ad1be2c89b69c2b068fc378daa952ba7f163c4a11628f55a4df523b3ef84604051612373919061303a565b60405180910390a361238783600084611b1f565b505050565b6000818361239a9190613162565b905092915050565b600082826040516020016123b7929190612b97565b60405160208183030381529060405280519060200120905092915050565b6001816000016000828254019250508190555050565b505050565b60007bffffffffffffffffffffffffffffffffffffffffffffffffffffffff8016821115612453576040517f08c379a000000000000000000000000000000000000000000000000000000000815260040161244a90612f3f565b60405180910390fd5b819050919050565b6040518060400160405280600063ffffffff16815260200160007bffffffffffffffffffffffffffffffffffffffffffffffffffffffff1681525090565b6000813590506124a881613908565b92915050565b6000813590506124bd8161391f565b92915050565b6000813590506124d281613936565b92915050565b6000813590506124e78161394d565b92915050565b6000813590506124fc81613964565b92915050565b60006020828403121561251857612517613358565b5b600061252684828501612499565b91505092915050565b6000806040838503121561254657612545613358565b5b600061255485828601612499565b925050602061256585828601612499565b9150509250929050565b60008060006060848603121561258857612587613358565b5b600061259686828701612499565b93505060206125a786828701612499565b92505060406125b8868287016124c3565b9150509250925092565b600080600080600080600060e0888a0312156125e1576125e0613358565b5b60006125ef8a828b01612499565b97505060206126008a828b01612499565b96505060406126118a828b016124c3565b95505060606126228a828b016124c3565b94505060806126338a828b016124ed565b93505060a06126448a828b016124ae565b92505060c06126558a828b016124ae565b91505092959891949750929550565b6000806040838503121561267b5761267a613358565b5b600061268985828601612499565b925050602061269a858286016124c3565b9150509250929050565b60008060008060008060c087890312156126c1576126c0613358565b5b60006126cf89828a01612499565b96505060206126e089828a016124c3565b95505060406126f189828a016124c3565b945050606061270289828a016124ed565b935050608061271389828a016124ae565b92505060a061272489828a016124ae565b9150509295509295509295565b6000806040838503121561274857612747613358565b5b600061275685828601612499565b9250506020612767858286016124d8565b9150509250929050565b60006020828403121561278757612786613358565b5b6000612795848285016124c3565b91505092915050565b6127a781613196565b82525050565b6127b6816131a8565b82525050565b6127c5816131b4565b82525050565b6127dc6127d7826131b4565b613292565b82525050565b60006127ed826130b4565b6127f781856130bf565b935061280781856020860161322d565b6128108161335d565b840191505092915050565b60006128286018836130bf565b91506128338261336e565b602082019050919050565b600061284b6023836130bf565b915061285682613397565b604082019050919050565b600061286e601f836130bf565b9150612879826133e6565b602082019050919050565b6000612891601d836130bf565b915061289c8261340f565b602082019050919050565b60006128b46022836130bf565b91506128bf82613438565b604082019050919050565b60006128d76019836130bf565b91506128e282613487565b602082019050919050565b60006128fa6022836130bf565b9150612905826134b0565b604082019050919050565b600061291d6002836130d0565b9150612928826134ff565b600282019050919050565b6000612940601d836130bf565b915061294b82613528565b602082019050919050565b60006129636026836130bf565b915061296e82613551565b604082019050919050565b60006129866022836130bf565b9150612991826135a0565b604082019050919050565b60006129a96022836130bf565b91506129b4826135ef565b604082019050919050565b60006129cc601e836130bf565b91506129d78261363e565b602082019050919050565b60006129ef6028836130bf565b91506129fa82613667565b604082019050919050565b6000612a126030836130bf565b9150612a1d826136b6565b604082019050919050565b6000612a356027836130bf565b9150612a4082613705565b604082019050919050565b6000612a586021836130bf565b9150612a6382613754565b604082019050919050565b6000612a7b6025836130bf565b9150612a86826137a3565b604082019050919050565b6000612a9e6026836130bf565b9150612aa9826137f2565b604082019050919050565b6000612ac16024836130bf565b9150612acc82613841565b604082019050919050565b6000612ae46025836130bf565b9150612aef82613890565b604082019050919050565b6000612b07601f836130bf565b9150612b12826138df565b602082019050919050565b604082016000820151612b336000850182612b6a565b506020820151612b466020850182612b4c565b50505050565b612b55816131de565b82525050565b612b6481613206565b82525050565b612b7381613210565b82525050565b612b8281613210565b82525050565b612b9181613220565b82525050565b6000612ba282612910565b9150612bae82856127cb565b602082019150612bbe82846127cb565b6020820191508190509392505050565b6000602082019050612be3600083018461279e565b92915050565b6000602082019050612bfe60008301846127ad565b92915050565b6000602082019050612c1960008301846127bc565b92915050565b600060c082019050612c3460008301896127bc565b612c41602083018861279e565b612c4e604083018761279e565b612c5b6060830186612b5b565b612c686080830185612b5b565b612c7560a0830184612b5b565b979650505050505050565b6000608082019050612c9560008301876127bc565b612ca2602083018661279e565b612caf6040830185612b5b565b612cbc6060830184612b5b565b95945050505050565b600060a082019050612cda60008301886127bc565b612ce760208301876127bc565b612cf460408301866127bc565b612d016060830185612b5b565b612d0e608083018461279e565b9695505050505050565b6000608082019050612d2d60008301876127bc565b612d3a6020830186612b88565b612d4760408301856127bc565b612d5460608301846127bc565b95945050505050565b60006020820190508181036000830152612d7781846127e2565b905092915050565b60006020820190508181036000830152612d988161281b565b9050919050565b60006020820190508181036000830152612db88161283e565b9050919050565b60006020820190508181036000830152612dd881612861565b9050919050565b60006020820190508181036000830152612df881612884565b9050919050565b60006020820190508181036000830152612e18816128a7565b9050919050565b60006020820190508181036000830152612e38816128ca565b9050919050565b60006020820190508181036000830152612e58816128ed565b9050919050565b60006020820190508181036000830152612e7881612933565b9050919050565b60006020820190508181036000830152612e9881612956565b9050919050565b60006020820190508181036000830152612eb881612979565b9050919050565b60006020820190508181036000830152612ed88161299c565b9050919050565b60006020820190508181036000830152612ef8816129bf565b9050919050565b60006020820190508181036000830152612f18816129e2565b9050919050565b60006020820190508181036000830152612f3881612a05565b9050919050565b60006020820190508181036000830152612f5881612a28565b9050919050565b60006020820190508181036000830152612f7881612a4b565b9050919050565b60006020820190508181036000830152612f9881612a6e565b9050919050565b60006020820190508181036000830152612fb881612a91565b9050919050565b60006020820190508181036000830152612fd881612ab4565b9050919050565b60006020820190508181036000830152612ff881612ad7565b9050919050565b6000602082019050818103600083015261301881612afa565b9050919050565b60006040820190506130346000830184612b1d565b92915050565b600060208201905061304f6000830184612b5b565b92915050565b600060408201905061306a6000830185612b5b565b6130776020830184612b5b565b9392505050565b60006020820190506130936000830184612b79565b92915050565b60006020820190506130ae6000830184612b88565b92915050565b600081519050919050565b600082825260208201905092915050565b600081905092915050565b60006130e682613206565b91506130f183613206565b9250827fffffffffffffffffffffffffffffffffffffffffffffffffffffffffffffffff038211156131265761312561329c565b5b828201905092915050565b600061313c82613206565b915061314783613206565b925082613157576131566132cb565b5b828204905092915050565b600061316d82613206565b915061317883613206565b92508282101561318b5761318a61329c565b5b828203905092915050565b60006131a1826131be565b9050919050565b60008115159050919050565b6000819050919050565b600073ffffffffffffffffffffffffffffffffffffffff82169050919050565b60007bffffffffffffffffffffffffffffffffffffffffffffffffffffffff82169050919050565b6000819050919050565b600063ffffffff82169050919050565b600060ff82169050919050565b60005b8381101561324b578082015181840152602081019050613230565b8381111561325a576000848401525b50505050565b6000600282049050600182168061327857607f821691505b6020821081141561328c5761328b6132fa565b5b50919050565b6000819050919050565b7f4e487b7100000000000000000000000000000000000000000000000000000000600052601160045260246000fd5b7f4e487b7100000000000000000000000000000000000000000000000000000000600052601260045260246000fd5b7f4e487b7100000000000000000000000000000000000000000000000000000000600052602260045260246000fd5b7f4e487b7100000000000000000000000000000000000000000000000000000000600052603260045260246000fd5b600080fd5b6000601f19601f8301169050919050565b7f45434453413a20696e76616c6964207369676e61747572650000000000000000600082015250565b7f45524332303a207472616e7366657220746f20746865207a65726f206164647260008201527f6573730000000000000000000000000000000000000000000000000000000000602082015250565b7f4552433230566f7465733a20626c6f636b206e6f7420796574206d696e656400600082015250565b7f4552433230566f7465733a207369676e61747572652065787069726564000000600082015250565b7f45524332303a206275726e20616d6f756e7420657863656564732062616c616e60008201527f6365000000000000000000000000000000000000000000000000000000000000602082015250565b7f4552433230566f7465733a20696e76616c6964206e6f6e636500000000000000600082015250565b7f45524332303a20617070726f766520746f20746865207a65726f20616464726560008201527f7373000000000000000000000000000000000000000000000000000000000000602082015250565b7f1901000000000000000000000000000000000000000000000000000000000000600082015250565b7f45524332305065726d69743a206578706972656420646561646c696e65000000600082015250565b7f45524332303a207472616e7366657220616d6f756e742065786365656473206260008201527f616c616e63650000000000000000000000000000000000000000000000000000602082015250565b7f45434453413a20696e76616c6964207369676e6174757265202773272076616c60008201527f7565000000000000000000000000000000000000000000000000000000000000602082015250565b7f45434453413a20696e76616c6964207369676e6174757265202776272076616c60008201527f7565000000000000000000000000000000000000000000000000000000000000602082015250565b7f45524332305065726d69743a20696e76616c6964207369676e61747572650000600082015250565b7f45524332303a207472616e7366657220616d6f756e742065786365656473206160008201527f6c6c6f77616e6365000000000000000000000000000000000000000000000000602082015250565b7f4552433230566f7465733a20746f74616c20737570706c79207269736b73206f60008201527f766572666c6f77696e6720766f74657300000000000000000000000000000000602082015250565b7f53616665436173743a2076616c756520646f65736e27742066697420696e203260008201527f3234206269747300000000000000000000000000000000000000000000000000602082015250565b7f45524332303a206275726e2066726f6d20746865207a65726f2061646472657360008201527f7300000000000000000000000000000000000000000000000000000000000000602082015250565b7f45524332303a207472616e736665722066726f6d20746865207a65726f20616460008201527f6472657373000000000000000000000000000000000000000000000000000000602082015250565b7f53616665436173743a2076616c756520646f65736e27742066697420696e203360008201527f3220626974730000000000000000000000000000000000000000000000000000602082015250565b7f45524332303a20617070726f76652066726f6d20746865207a65726f2061646460008201527f7265737300000000000000000000000000000000000000000000000000000000602082015250565b7f45524332303a2064656372656173656420616c6c6f77616e63652062656c6f7760008201527f207a65726f000000000000000000000000000000000000000000000000000000602082015250565b7f45524332303a206d696e7420746f20746865207a65726f206164647265737300600082015250565b61391181613196565b811461391c57600080fd5b50565b613928816131b4565b811461393357600080fd5b50565b61393f81613206565b811461394a57600080fd5b50565b61395681613210565b811461396157600080fd5b50565b61396d81613220565b811461397857600080fd5b5056fea26469706673582212206a7e6779a0d065b9444a2557eb26fcfaf11d959be6300a4a9c39b49d7d4943a364736f6c63430008070033",
  "immutableReferences": {
    "19087": [
      {
        "length": 32,
        "start": 3644
      }
    ],
    "24333": [
      {
        "length": 32,
        "start": 5454
      }
    ],
    "24335": [
      {
        "length": 32,
        "start": 5414
      }
    ],
    "24337": [
      {
        "length": 32,
        "start": 5530
      }
    ],
    "24339": [
      {
        "length": 32,
        "start": 5563
      }
    ],
    "24341": [
      {
        "length": 32,
        "start": 5497
      }
    ]
  },
  "source": "// SPDX-License-Identifier: MIT\n\npragma solidity ^0.8.0;\n\nimport \"../token/ERC20/extensions/ERC20Votes.sol\";\n\ncontract ERC20VotesMock is ERC20Votes {\n    constructor(string memory name, string memory symbol) ERC20(name, symbol) ERC20Permit(name) {}\n\n    function mint(address account, uint256 amount) public {\n        _mint(account, amount);\n    }\n\n    function burn(address account, uint256 amount) public {\n        _burn(account, amount);\n    }\n\n    function getChainId() external view returns (uint256) {\n        return block.chainid;\n    }\n}\n",
  "sourcePath": "/home/tenten/Projects/upcgold.io/src/contracts/openzeppelin-contracts/contracts/mocks/ERC20VotesMock.sol",
  "compiler": {
    "name": "solc",
    "version": "0.8.7+commit.e28d00a7.Emscripten.clang"
  },
  "schemaVersion": "3.2.3",
  "updatedAt": "2021-08-12T03:39:31.255Z",
  "devdoc": {
    "kind": "dev",
    "methods": {
      "DOMAIN_SEPARATOR()": {
        "details": "See {IERC20Permit-DOMAIN_SEPARATOR}."
      },
      "allowance(address,address)": {
        "details": "See {IERC20-allowance}."
      },
      "approve(address,uint256)": {
        "details": "See {IERC20-approve}. Requirements: - `spender` cannot be the zero address."
      },
      "balanceOf(address)": {
        "details": "See {IERC20-balanceOf}."
      },
      "checkpoints(address,uint32)": {
        "details": "Get the `pos`-th checkpoint for `account`."
      },
      "decimals()": {
        "details": "Returns the number of decimals used to get its user representation. For example, if `decimals` equals `2`, a balance of `505` tokens should be displayed to a user as `5.05` (`505 / 10 ** 2`). Tokens usually opt for a value of 18, imitating the relationship between Ether and Wei. This is the value {ERC20} uses, unless this function is overridden; NOTE: This information is only used for _display_ purposes: it in no way affects any of the arithmetic of the contract, including {IERC20-balanceOf} and {IERC20-transfer}."
      },
      "decreaseAllowance(address,uint256)": {
        "details": "Atomically decreases the allowance granted to `spender` by the caller. This is an alternative to {approve} that can be used as a mitigation for problems described in {IERC20-approve}. Emits an {Approval} event indicating the updated allowance. Requirements: - `spender` cannot be the zero address. - `spender` must have allowance for the caller of at least `subtractedValue`."
      },
      "delegate(address)": {
        "details": "Delegate votes from the sender to `delegatee`."
      },
      "delegateBySig(address,uint256,uint256,uint8,bytes32,bytes32)": {
        "details": "Delegates votes from signer to `delegatee`"
      },
      "delegates(address)": {
        "details": "Get the address `account` is currently delegating to."
      },
      "getPastTotalSupply(uint256)": {
        "details": "Retrieve the `totalSupply` at the end of `blockNumber`. Note, this value is the sum of all balances. It is but NOT the sum of all the delegated votes! Requirements: - `blockNumber` must have been already mined"
      },
      "getPastVotes(address,uint256)": {
        "details": "Retrieve the number of votes for `account` at the end of `blockNumber`. Requirements: - `blockNumber` must have been already mined"
      },
      "getVotes(address)": {
        "details": "Gets the current votes balance for `account`"
      },
      "increaseAllowance(address,uint256)": {
        "details": "Atomically increases the allowance granted to `spender` by the caller. This is an alternative to {approve} that can be used as a mitigation for problems described in {IERC20-approve}. Emits an {Approval} event indicating the updated allowance. Requirements: - `spender` cannot be the zero address."
      },
      "name()": {
        "details": "Returns the name of the token."
      },
      "nonces(address)": {
        "details": "See {IERC20Permit-nonces}."
      },
      "numCheckpoints(address)": {
        "details": "Get number of checkpoints for `account`."
      },
      "permit(address,address,uint256,uint256,uint8,bytes32,bytes32)": {
        "details": "See {IERC20Permit-permit}."
      },
      "symbol()": {
        "details": "Returns the symbol of the token, usually a shorter version of the name."
      },
      "totalSupply()": {
        "details": "See {IERC20-totalSupply}."
      },
      "transfer(address,uint256)": {
        "details": "See {IERC20-transfer}. Requirements: - `recipient` cannot be the zero address. - the caller must have a balance of at least `amount`."
      },
      "transferFrom(address,address,uint256)": {
        "details": "See {IERC20-transferFrom}. Emits an {Approval} event indicating the updated allowance. This is not required by the EIP. See the note at the beginning of {ERC20}. Requirements: - `sender` and `recipient` cannot be the zero address. - `sender` must have a balance of at least `amount`. - the caller must have allowance for ``sender``'s tokens of at least `amount`."
      }
    },
    "version": 1
  },
  "userdoc": {
    "kind": "user",
    "methods": {},
    "version": 1
  }
}