{
  "contractName": "ERC20WrapperMock",
  "abi": [
    {
      "inputs": [
        {
          "internalType": "contract IERC20",
          "name": "_underlyingToken",
          "type": "address"
        },
        {
          "internalType": "string",
          "name": "name",
          "type": "string"
        },
        {
          "internalType": "string",
          "name": "symbol",
          "type": "string"
        }
      ],
      "stateMutability": "nonpayable",
      "type": "constructor"
    },
    {
      "anonymous": false,
      "inputs": [
        {
          "indexed": true,
          "internalType": "address",
          "name": "owner",
          "type": "address"
        },
        {
          "indexed": true,
          "internalType": "address",
          "name": "spender",
          "type": "address"
        },
        {
          "indexed": false,
          "internalType": "uint256",
          "name": "value",
          "type": "uint256"
        }
      ],
      "name": "Approval",
      "type": "event"
    },
    {
      "anonymous": false,
      "inputs": [
        {
          "indexed": true,
          "internalType": "address",
          "name": "from",
          "type": "address"
        },
        {
          "indexed": true,
          "internalType": "address",
          "name": "to",
          "type": "address"
        },
        {
          "indexed": false,
          "internalType": "uint256",
          "name": "value",
          "type": "uint256"
        }
      ],
      "name": "Transfer",
      "type": "event"
    },
    {
      "inputs": [
        {
          "internalType": "address",
          "name": "owner",
          "type": "address"
        },
        {
          "internalType": "address",
          "name": "spender",
          "type": "address"
        }
      ],
      "name": "allowance",
      "outputs": [
        {
          "internalType": "uint256",
          "name": "",
          "type": "uint256"
        }
      ],
      "stateMutability": "view",
      "type": "function"
    },
    {
      "inputs": [
        {
          "internalType": "address",
          "name": "spender",
          "type": "address"
        },
        {
          "internalType": "uint256",
          "name": "amount",
          "type": "uint256"
        }
      ],
      "name": "approve",
      "outputs": [
        {
          "internalType": "bool",
          "name": "",
          "type": "bool"
        }
      ],
      "stateMutability": "nonpayable",
      "type": "function"
    },
    {
      "inputs": [
        {
          "internalType": "address",
          "name": "account",
          "type": "address"
        }
      ],
      "name": "balanceOf",
      "outputs": [
        {
          "internalType": "uint256",
          "name": "",
          "type": "uint256"
        }
      ],
      "stateMutability": "view",
      "type": "function"
    },
    {
      "inputs": [],
      "name": "decimals",
      "outputs": [
        {
          "internalType": "uint8",
          "name": "",
          "type": "uint8"
        }
      ],
      "stateMutability": "view",
      "type": "function"
    },
    {
      "inputs": [
        {
          "internalType": "address",
          "name": "spender",
          "type": "address"
        },
        {
          "internalType": "uint256",
          "name": "subtractedValue",
          "type": "uint256"
        }
      ],
      "name": "decreaseAllowance",
      "outputs": [
        {
          "internalType": "bool",
          "name": "",
          "type": "bool"
        }
      ],
      "stateMutability": "nonpayable",
      "type": "function"
    },
    {
      "inputs": [
        {
          "internalType": "address",
          "name": "account",
          "type": "address"
        },
        {
          "internalType": "uint256",
          "name": "amount",
          "type": "uint256"
        }
      ],
      "name": "depositFor",
      "outputs": [
        {
          "internalType": "bool",
          "name": "",
          "type": "bool"
        }
      ],
      "stateMutability": "nonpayable",
      "type": "function"
    },
    {
      "inputs": [
        {
          "internalType": "address",
          "name": "spender",
          "type": "address"
        },
        {
          "internalType": "uint256",
          "name": "addedValue",
          "type": "uint256"
        }
      ],
      "name": "increaseAllowance",
      "outputs": [
        {
          "internalType": "bool",
          "name": "",
          "type": "bool"
        }
      ],
      "stateMutability": "nonpayable",
      "type": "function"
    },
    {
      "inputs": [],
      "name": "name",
      "outputs": [
        {
          "internalType": "string",
          "name": "",
          "type": "string"
        }
      ],
      "stateMutability": "view",
      "type": "function"
    },
    {
      "inputs": [],
      "name": "symbol",
      "outputs": [
        {
          "internalType": "string",
          "name": "",
          "type": "string"
        }
      ],
      "stateMutability": "view",
      "type": "function"
    },
    {
      "inputs": [],
      "name": "totalSupply",
      "outputs": [
        {
          "internalType": "uint256",
          "name": "",
          "type": "uint256"
        }
      ],
      "stateMutability": "view",
      "type": "function"
    },
    {
      "inputs": [
        {
          "internalType": "address",
          "name": "recipient",
          "type": "address"
        },
        {
          "internalType": "uint256",
          "name": "amount",
          "type": "uint256"
        }
      ],
      "name": "transfer",
      "outputs": [
        {
          "internalType": "bool",
          "name": "",
          "type": "bool"
        }
      ],
      "stateMutability": "nonpayable",
      "type": "function"
    },
    {
      "inputs": [
        {
          "internalType": "address",
          "name": "sender",
          "type": "address"
        },
        {
          "internalType": "address",
          "name": "recipient",
          "type": "address"
        },
        {
          "internalType": "uint256",
          "name": "amount",
          "type": "uint256"
        }
      ],
      "name": "transferFrom",
      "outputs": [
        {
          "internalType": "bool",
          "name": "",
          "type": "bool"
        }
      ],
      "stateMutability": "nonpayable",
      "type": "function"
    },
    {
      "inputs": [],
      "name": "underlying",
      "outputs": [
        {
          "internalType": "contract IERC20",
          "name": "",
          "type": "address"
        }
      ],
      "stateMutability": "view",
      "type": "function"
    },
    {
      "inputs": [
        {
          "internalType": "address",
          "name": "account",
          "type": "address"
        },
        {
          "internalType": "uint256",
          "name": "amount",
          "type": "uint256"
        }
      ],
      "name": "withdrawTo",
      "outputs": [
        {
          "internalType": "bool",
          "name": "",
          "type": "bool"
        }
      ],
      "stateMutability": "nonpayable",
      "type": "function"
    },
    {
      "inputs": [
        {
          "internalType": "address",
          "name": "account",
          "type": "address"
        }
      ],
      "name": "recover",
      "outputs": [
        {
          "internalType": "uint256",
          "name": "",
          "type": "uint256"
        }
      ],
      "stateMutability": "nonpayable",
      "type": "function"
    }
  ],
  "bytecode": "0x60a06040523480156200001157600080fd5b50604051620026d0380380620026d08339818101604052810190620000379190620001f4565b828282816003908051906020019062000052929190620000af565b5080600490805190602001906200006b929190620000af565b5050508073ffffffffffffffffffffffffffffffffffffffff1660808173ffffffffffffffffffffffffffffffffffffffff1660601b815250505050505062000474565b828054620000bd906200036b565b90600052602060002090601f016020900481019282620000e157600085556200012d565b82601f10620000fc57805160ff19168380011785556200012d565b828001600101855582156200012d579182015b828111156200012c5782518255916020019190600101906200010f565b5b5090506200013c919062000140565b5090565b5b808211156200015b57600081600090555060010162000141565b5090565b6000620001766200017084620002b7565b6200028e565b9050828152602081018484840111156200019557620001946200043a565b5b620001a284828562000335565b509392505050565b600081519050620001bb816200045a565b92915050565b600082601f830112620001d957620001d862000435565b5b8151620001eb8482602086016200015f565b91505092915050565b60008060006060848603121562000210576200020f62000444565b5b60006200022086828701620001aa565b935050602084015167ffffffffffffffff8111156200024457620002436200043f565b5b6200025286828701620001c1565b925050604084015167ffffffffffffffff8111156200027657620002756200043f565b5b6200028486828701620001c1565b9150509250925092565b60006200029a620002ad565b9050620002a88282620003a1565b919050565b6000604051905090565b600067ffffffffffffffff821115620002d557620002d462000406565b5b620002e08262000449565b9050602081019050919050565b6000620002fa8262000315565b9050919050565b60006200030e82620002ed565b9050919050565b600073ffffffffffffffffffffffffffffffffffffffff82169050919050565b60005b838110156200035557808201518184015260208101905062000338565b8381111562000365576000848401525b50505050565b600060028204905060018216806200038457607f821691505b602082108114156200039b576200039a620003d7565b5b50919050565b620003ac8262000449565b810181811067ffffffffffffffff82111715620003ce57620003cd62000406565b5b80604052505050565b7f4e487b7100000000000000000000000000000000000000000000000000000000600052602260045260246000fd5b7f4e487b7100000000000000000000000000000000000000000000000000000000600052604160045260246000fd5b600080fd5b600080fd5b600080fd5b600080fd5b6000601f19601f8301169050919050565b620004658162000301565b81146200047157600080fd5b50565b60805160601c612228620004a860003960008181610454015281816105830152818161067c0152610ae801526122286000f3fe608060405234801561001057600080fd5b50600436106100f55760003560e01c8063313ce5671161009757806395d89b411161006657806395d89b41146102c2578063a457c2d7146102e0578063a9059cbb14610310578063dd62ed3e14610340576100f5565b8063313ce5671461022657806339509351146102445780636f307dc31461027457806370a0823114610292576100f5565b806318160ddd116100d357806318160ddd14610178578063205c28781461019657806323b872dd146101c65780632f4f21e2146101f6576100f5565b806306fdde03146100fa578063095ea7b3146101185780630cd865ec14610148575b600080fd5b610102610370565b60405161010f91906119de565b60405180910390f35b610132600480360381019061012d9190611600565b610402565b60405161013f91906119a8565b60405180910390f35b610162600480360381019061015d9190611540565b610420565b60405161016f9190611ba0565b60405180910390f35b610180610432565b60405161018d9190611ba0565b60405180910390f35b6101b060048036038101906101ab9190611600565b61043c565b6040516101bd91906119a8565b60405180910390f35b6101e060048036038101906101db91906115ad565b610484565b6040516101ed91906119a8565b60405180910390f35b610210600480360381019061020b9190611600565b61057c565b60405161021d91906119a8565b60405180910390f35b61022e6105c5565b60405161023b9190611bbb565b60405180910390f35b61025e60048036038101906102599190611600565b6105ce565b60405161026b91906119a8565b60405180910390f35b61027c61067a565b60405161028991906119c3565b60405180910390f35b6102ac60048036038101906102a79190611540565b61069e565b6040516102b99190611ba0565b60405180910390f35b6102ca6106e6565b6040516102d791906119de565b60405180910390f35b6102fa60048036038101906102f59190611600565b610778565b60405161030791906119a8565b60405180910390f35b61032a60048036038101906103259190611600565b610863565b60405161033791906119a8565b60405180910390f35b61035a6004803603810190610355919061156d565b610881565b6040516103679190611ba0565b60405180910390f35b60606003805461037f90611d50565b80601f01602080910402602001604051908101604052809291908181526020018280546103ab90611d50565b80156103f85780601f106103cd576101008083540402835291602001916103f8565b820191906000526020600020905b8154815290600101906020018083116103db57829003601f168201915b5050505050905090565b600061041661040f610908565b8484610910565b6001905092915050565b600061042b82610adb565b9050919050565b6000600254905090565b600061044f610449610908565b83610bae565b61047a7f00000000000000000000000000000000000000000000000000000000000000008484610d85565b6001905092915050565b6000610491848484610e0b565b6000600160008673ffffffffffffffffffffffffffffffffffffffff1673ffffffffffffffffffffffffffffffffffffffff16815260200190815260200160002060006104dc610908565b73ffffffffffffffffffffffffffffffffffffffff1673ffffffffffffffffffffffffffffffffffffffff1681526020019081526020016000205490508281101561055c576040517f08c379a000000000000000000000000000000000000000000000000000000000815260040161055390611aa0565b60405180910390fd5b61057085610568610908565b858403610910565b60019150509392505050565b60006105b17f00000000000000000000000000000000000000000000000000000000000000006105aa610908565b308561108c565b6105bb8383611115565b6001905092915050565b60006012905090565b60006106706105db610908565b8484600160006105e9610908565b73ffffffffffffffffffffffffffffffffffffffff1673ffffffffffffffffffffffffffffffffffffffff16815260200190815260200160002060008873ffffffffffffffffffffffffffffffffffffffff1673ffffffffffffffffffffffffffffffffffffffff1681526020019081526020016000205461066b9190611c08565b610910565b6001905092915050565b7f000000000000000000000000000000000000000000000000000000000000000081565b60008060008373ffffffffffffffffffffffffffffffffffffffff1673ffffffffffffffffffffffffffffffffffffffff168152602001908152602001600020549050919050565b6060600480546106f590611d50565b80601f016020809104026020016040519081016040528092919081815260200182805461072190611d50565b801561076e5780601f106107435761010080835404028352916020019161076e565b820191906000526020600020905b81548152906001019060200180831161075157829003601f168201915b5050505050905090565b60008060016000610787610908565b73ffffffffffffffffffffffffffffffffffffffff1673ffffffffffffffffffffffffffffffffffffffff16815260200190815260200160002060008573ffffffffffffffffffffffffffffffffffffffff1673ffffffffffffffffffffffffffffffffffffffff16815260200190815260200160002054905082811015610844576040517f08c379a000000000000000000000000000000000000000000000000000000000815260040161083b90611b60565b60405180910390fd5b61085861084f610908565b85858403610910565b600191505092915050565b6000610877610870610908565b8484610e0b565b6001905092915050565b6000600160008473ffffffffffffffffffffffffffffffffffffffff1673ffffffffffffffffffffffffffffffffffffffff16815260200190815260200160002060008373ffffffffffffffffffffffffffffffffffffffff1673ffffffffffffffffffffffffffffffffffffffff16815260200190815260200160002054905092915050565b600033905090565b600073ffffffffffffffffffffffffffffffffffffffff168373ffffffffffffffffffffffffffffffffffffffff161415610980576040517f08c379a000000000000000000000000000000000000000000000000000000000815260040161097790611b00565b60405180910390fd5b600073ffffffffffffffffffffffffffffffffffffffff168273ffffffffffffffffffffffffffffffffffffffff1614156109f0576040517f08c379a00000000000000000000000000000000000000000000000000000000081526004016109e790611a40565b60405180910390fd5b80600160008573ffffffffffffffffffffffffffffffffffffffff1673ffffffffffffffffffffffffffffffffffffffff16815260200190815260200160002060008473ffffffffffffffffffffffffffffffffffffffff1673ffffffffffffffffffffffffffffffffffffffff168152602001908152602001600020819055508173ffffffffffffffffffffffffffffffffffffffff168373ffffffffffffffffffffffffffffffffffffffff167f8c5be1e5ebec7d5bd14f71427d1e84f3dd0314c0f7b2291e5b200ac8c7c3b92583604051610ace9190611ba0565b60405180910390a3505050565b600080610ae6610432565b7f000000000000000000000000000000000000000000000000000000000000000073ffffffffffffffffffffffffffffffffffffffff166370a08231306040518263ffffffff1660e01b8152600401610b3f919061192d565b60206040518083038186803b158015610b5757600080fd5b505afa158015610b6b573d6000803e3d6000fd5b505050506040513d601f19601f82011682018060405250810190610b8f919061166d565b610b999190611c5e565b9050610ba58382611115565b80915050919050565b600073ffffffffffffffffffffffffffffffffffffffff168273ffffffffffffffffffffffffffffffffffffffff161415610c1e576040517f08c379a0000000000000000000000000000000000000000000000000000000008152600401610c1590611ac0565b60405180910390fd5b610c2a82600083611275565b60008060008473ffffffffffffffffffffffffffffffffffffffff1673ffffffffffffffffffffffffffffffffffffffff16815260200190815260200160002054905081811015610cb0576040517f08c379a0000000000000000000000000000000000000000000000000000000008152600401610ca790611a20565b60405180910390fd5b8181036000808573ffffffffffffffffffffffffffffffffffffffff1673ffffffffffffffffffffffffffffffffffffffff168152602001908152602001600020819055508160026000828254610d079190611c5e565b92505081905550600073ffffffffffffffffffffffffffffffffffffffff168373ffffffffffffffffffffffffffffffffffffffff167fddf252ad1be2c89b69c2b068fc378daa952ba7f163c4a11628f55a4df523b3ef84604051610d6c9190611ba0565b60405180910390a3610d808360008461127a565b505050565b610e068363a9059cbb60e01b8484604051602401610da492919061197f565b604051602081830303815290604052907bffffffffffffffffffffffffffffffffffffffffffffffffffffffff19166020820180517bffffffffffffffffffffffffffffffffffffffffffffffffffffffff838183161783525050505061127f565b505050565b600073ffffffffffffffffffffffffffffffffffffffff168373ffffffffffffffffffffffffffffffffffffffff161415610e7b576040517f08c379a0000000000000000000000000000000000000000000000000000000008152600401610e7290611ae0565b60405180910390fd5b600073ffffffffffffffffffffffffffffffffffffffff168273ffffffffffffffffffffffffffffffffffffffff161415610eeb576040517f08c379a0000000000000000000000000000000000000000000000000000000008152600401610ee290611a00565b60405180910390fd5b610ef6838383611275565b60008060008573ffffffffffffffffffffffffffffffffffffffff1673ffffffffffffffffffffffffffffffffffffffff16815260200190815260200160002054905081811015610f7c576040517f08c379a0000000000000000000000000000000000000000000000000000000008152600401610f7390611a60565b60405180910390fd5b8181036000808673ffffffffffffffffffffffffffffffffffffffff1673ffffffffffffffffffffffffffffffffffffffff16815260200190815260200160002081905550816000808573ffffffffffffffffffffffffffffffffffffffff1673ffffffffffffffffffffffffffffffffffffffff168152602001908152602001600020600082825461100f9190611c08565b925050819055508273ffffffffffffffffffffffffffffffffffffffff168473ffffffffffffffffffffffffffffffffffffffff167fddf252ad1be2c89b69c2b068fc378daa952ba7f163c4a11628f55a4df523b3ef846040516110739190611ba0565b60405180910390a361108684848461127a565b50505050565b61110f846323b872dd60e01b8585856040516024016110ad93929190611948565b604051602081830303815290604052907bffffffffffffffffffffffffffffffffffffffffffffffffffffffff19166020820180517bffffffffffffffffffffffffffffffffffffffffffffffffffffffff838183161783525050505061127f565b50505050565b600073ffffffffffffffffffffffffffffffffffffffff168273ffffffffffffffffffffffffffffffffffffffff161415611185576040517f08c379a000000000000000000000000000000000000000000000000000000000815260040161117c90611b80565b60405180910390fd5b61119160008383611275565b80600260008282546111a39190611c08565b92505081905550806000808473ffffffffffffffffffffffffffffffffffffffff1673ffffffffffffffffffffffffffffffffffffffff16815260200190815260200160002060008282546111f89190611c08565b925050819055508173ffffffffffffffffffffffffffffffffffffffff16600073ffffffffffffffffffffffffffffffffffffffff167fddf252ad1be2c89b69c2b068fc378daa952ba7f163c4a11628f55a4df523b3ef8360405161125d9190611ba0565b60405180910390a36112716000838361127a565b5050565b505050565b505050565b60006112e1826040518060400160405280602081526020017f5361666545524332303a206c6f772d6c6576656c2063616c6c206661696c65648152508573ffffffffffffffffffffffffffffffffffffffff166113469092919063ffffffff16565b905060008151111561134157808060200190518101906113019190611640565b611340576040517f08c379a000000000000000000000000000000000000000000000000000000000815260040161133790611b40565b60405180910390fd5b5b505050565b6060611355848460008561135e565b90509392505050565b6060824710156113a3576040517f08c379a000000000000000000000000000000000000000000000000000000000815260040161139a90611a80565b60405180910390fd5b6113ac85611472565b6113eb576040517f08c379a00000000000000000000000000000000000000000000000000000000081526004016113e290611b20565b60405180910390fd5b6000808673ffffffffffffffffffffffffffffffffffffffff1685876040516114149190611916565b60006040518083038185875af1925050503d8060008114611451576040519150601f19603f3d011682016040523d82523d6000602084013e611456565b606091505b5091509150611466828286611485565b92505050949350505050565b600080823b905060008111915050919050565b60608315611495578290506114e5565b6000835111156114a85782518084602001fd5b816040517f08c379a00000000000000000000000000000000000000000000000000000000081526004016114dc91906119de565b60405180910390fd5b9392505050565b6000813590506114fb816121ad565b92915050565b600081519050611510816121c4565b92915050565b600081359050611525816121db565b92915050565b60008151905061153a816121db565b92915050565b60006020828403121561155657611555611de0565b5b6000611564848285016114ec565b91505092915050565b6000806040838503121561158457611583611de0565b5b6000611592858286016114ec565b92505060206115a3858286016114ec565b9150509250929050565b6000806000606084860312156115c6576115c5611de0565b5b60006115d4868287016114ec565b93505060206115e5868287016114ec565b92505060406115f686828701611516565b9150509250925092565b6000806040838503121561161757611616611de0565b5b6000611625858286016114ec565b925050602061163685828601611516565b9150509250929050565b60006020828403121561165657611655611de0565b5b600061166484828501611501565b91505092915050565b60006020828403121561168357611682611de0565b5b60006116918482850161152b565b91505092915050565b6116a381611c92565b82525050565b6116b281611ca4565b82525050565b60006116c382611bd6565b6116cd8185611bec565b93506116dd818560208601611d1d565b80840191505092915050565b6116f281611ce7565b82525050565b600061170382611be1565b61170d8185611bf7565b935061171d818560208601611d1d565b61172681611de5565b840191505092915050565b600061173e602383611bf7565b915061174982611df6565b604082019050919050565b6000611761602283611bf7565b915061176c82611e45565b604082019050919050565b6000611784602283611bf7565b915061178f82611e94565b604082019050919050565b60006117a7602683611bf7565b91506117b282611ee3565b604082019050919050565b60006117ca602683611bf7565b91506117d582611f32565b604082019050919050565b60006117ed602883611bf7565b91506117f882611f81565b604082019050919050565b6000611810602183611bf7565b915061181b82611fd0565b604082019050919050565b6000611833602583611bf7565b915061183e8261201f565b604082019050919050565b6000611856602483611bf7565b91506118618261206e565b604082019050919050565b6000611879601d83611bf7565b9150611884826120bd565b602082019050919050565b600061189c602a83611bf7565b91506118a7826120e6565b604082019050919050565b60006118bf602583611bf7565b91506118ca82612135565b604082019050919050565b60006118e2601f83611bf7565b91506118ed82612184565b602082019050919050565b61190181611cd0565b82525050565b61191081611cda565b82525050565b600061192282846116b8565b915081905092915050565b6000602082019050611942600083018461169a565b92915050565b600060608201905061195d600083018661169a565b61196a602083018561169a565b61197760408301846118f8565b949350505050565b6000604082019050611994600083018561169a565b6119a160208301846118f8565b9392505050565b60006020820190506119bd60008301846116a9565b92915050565b60006020820190506119d860008301846116e9565b92915050565b600060208201905081810360008301526119f881846116f8565b905092915050565b60006020820190508181036000830152611a1981611731565b9050919050565b60006020820190508181036000830152611a3981611754565b9050919050565b60006020820190508181036000830152611a5981611777565b9050919050565b60006020820190508181036000830152611a798161179a565b9050919050565b60006020820190508181036000830152611a99816117bd565b9050919050565b60006020820190508181036000830152611ab9816117e0565b9050919050565b60006020820190508181036000830152611ad981611803565b9050919050565b60006020820190508181036000830152611af981611826565b9050919050565b60006020820190508181036000830152611b1981611849565b9050919050565b60006020820190508181036000830152611b398161186c565b9050919050565b60006020820190508181036000830152611b598161188f565b9050919050565b60006020820190508181036000830152611b79816118b2565b9050919050565b60006020820190508181036000830152611b99816118d5565b9050919050565b6000602082019050611bb560008301846118f8565b92915050565b6000602082019050611bd06000830184611907565b92915050565b600081519050919050565b600081519050919050565b600081905092915050565b600082825260208201905092915050565b6000611c1382611cd0565b9150611c1e83611cd0565b9250827fffffffffffffffffffffffffffffffffffffffffffffffffffffffffffffffff03821115611c5357611c52611d82565b5b828201905092915050565b6000611c6982611cd0565b9150611c7483611cd0565b925082821015611c8757611c86611d82565b5b828203905092915050565b6000611c9d82611cb0565b9050919050565b60008115159050919050565b600073ffffffffffffffffffffffffffffffffffffffff82169050919050565b6000819050919050565b600060ff82169050919050565b6000611cf282611cf9565b9050919050565b6000611d0482611d0b565b9050919050565b6000611d1682611cb0565b9050919050565b60005b83811015611d3b578082015181840152602081019050611d20565b83811115611d4a576000848401525b50505050565b60006002820490506001821680611d6857607f821691505b60208210811415611d7c57611d7b611db1565b5b50919050565b7f4e487b7100000000000000000000000000000000000000000000000000000000600052601160045260246000fd5b7f4e487b7100000000000000000000000000000000000000000000000000000000600052602260045260246000fd5b600080fd5b6000601f19601f8301169050919050565b7f45524332303a207472616e7366657220746f20746865207a65726f206164647260008201527f6573730000000000000000000000000000000000000000000000000000000000602082015250565b7f45524332303a206275726e20616d6f756e7420657863656564732062616c616e60008201527f6365000000000000000000000000000000000000000000000000000000000000602082015250565b7f45524332303a20617070726f766520746f20746865207a65726f20616464726560008201527f7373000000000000000000000000000000000000000000000000000000000000602082015250565b7f45524332303a207472616e7366657220616d6f756e742065786365656473206260008201527f616c616e63650000000000000000000000000000000000000000000000000000602082015250565b7f416464726573733a20696e73756666696369656e742062616c616e636520666f60008201527f722063616c6c0000000000000000000000000000000000000000000000000000602082015250565b7f45524332303a207472616e7366657220616d6f756e742065786365656473206160008201527f6c6c6f77616e6365000000000000000000000000000000000000000000000000602082015250565b7f45524332303a206275726e2066726f6d20746865207a65726f2061646472657360008201527f7300000000000000000000000000000000000000000000000000000000000000602082015250565b7f45524332303a207472616e736665722066726f6d20746865207a65726f20616460008201527f6472657373000000000000000000000000000000000000000000000000000000602082015250565b7f45524332303a20617070726f76652066726f6d20746865207a65726f2061646460008201527f7265737300000000000000000000000000000000000000000000000000000000602082015250565b7f416464726573733a2063616c6c20746f206e6f6e2d636f6e7472616374000000600082015250565b7f5361666545524332303a204552433230206f7065726174696f6e20646964206e60008201527f6f74207375636365656400000000000000000000000000000000000000000000602082015250565b7f45524332303a2064656372656173656420616c6c6f77616e63652062656c6f7760008201527f207a65726f000000000000000000000000000000000000000000000000000000602082015250565b7f45524332303a206d696e7420746f20746865207a65726f206164647265737300600082015250565b6121b681611c92565b81146121c157600080fd5b50565b6121cd81611ca4565b81146121d857600080fd5b50565b6121e481611cd0565b81146121ef57600080fd5b5056fea26469706673582212206af66c98787cdc332f3f0ee3479542d9c09bbaadfdadada1ed22a2c377009b6d64736f6c63430008070033",
  "immutableReferences": {
    "18935": [
      {
        "length": 32,
        "start": 1108
      },
      {
        "length": 32,
        "start": 1411
      },
      {
        "length": 32,
        "start": 1660
      },
      {
        "length": 32,
        "start": 2792
      }
    ]
  },
  "source": "// SPDX-License-Identifier: MIT\n\npragma solidity ^0.8.0;\n\nimport \"../token/ERC20/extensions/ERC20Wrapper.sol\";\n\ncontract ERC20WrapperMock is ERC20Wrapper {\n    constructor(\n        IERC20 _underlyingToken,\n        string memory name,\n        string memory symbol\n    ) ERC20(name, symbol) ERC20Wrapper(_underlyingToken) {}\n\n    function recover(address account) public returns (uint256) {\n        return _recover(account);\n    }\n}\n",
  "sourcePath": "/home/tenten/Projects/upcgold.io/src/contracts/openzeppelin-contracts/contracts/mocks/ERC20WrapperMock.sol",
  "compiler": {
    "name": "solc",
    "version": "0.8.7+commit.e28d00a7.Emscripten.clang"
  },
  "schemaVersion": "3.2.3",
  "updatedAt": "2021-08-12T03:39:31.259Z",
  "devdoc": {
    "kind": "dev",
    "methods": {
      "allowance(address,address)": {
        "details": "See {IERC20-allowance}."
      },
      "approve(address,uint256)": {
        "details": "See {IERC20-approve}. Requirements: - `spender` cannot be the zero address."
      },
      "balanceOf(address)": {
        "details": "See {IERC20-balanceOf}."
      },
      "decimals()": {
        "details": "Returns the number of decimals used to get its user representation. For example, if `decimals` equals `2`, a balance of `505` tokens should be displayed to a user as `5.05` (`505 / 10 ** 2`). Tokens usually opt for a value of 18, imitating the relationship between Ether and Wei. This is the value {ERC20} uses, unless this function is overridden; NOTE: This information is only used for _display_ purposes: it in no way affects any of the arithmetic of the contract, including {IERC20-balanceOf} and {IERC20-transfer}."
      },
      "decreaseAllowance(address,uint256)": {
        "details": "Atomically decreases the allowance granted to `spender` by the caller. This is an alternative to {approve} that can be used as a mitigation for problems described in {IERC20-approve}. Emits an {Approval} event indicating the updated allowance. Requirements: - `spender` cannot be the zero address. - `spender` must have allowance for the caller of at least `subtractedValue`."
      },
      "depositFor(address,uint256)": {
        "details": "Allow a user to deposit underlying tokens and mint the corresponding number of wrapped tokens."
      },
      "increaseAllowance(address,uint256)": {
        "details": "Atomically increases the allowance granted to `spender` by the caller. This is an alternative to {approve} that can be used as a mitigation for problems described in {IERC20-approve}. Emits an {Approval} event indicating the updated allowance. Requirements: - `spender` cannot be the zero address."
      },
      "name()": {
        "details": "Returns the name of the token."
      },
      "symbol()": {
        "details": "Returns the symbol of the token, usually a shorter version of the name."
      },
      "totalSupply()": {
        "details": "See {IERC20-totalSupply}."
      },
      "transfer(address,uint256)": {
        "details": "See {IERC20-transfer}. Requirements: - `recipient` cannot be the zero address. - the caller must have a balance of at least `amount`."
      },
      "transferFrom(address,address,uint256)": {
        "details": "See {IERC20-transferFrom}. Emits an {Approval} event indicating the updated allowance. This is not required by the EIP. See the note at the beginning of {ERC20}. Requirements: - `sender` and `recipient` cannot be the zero address. - `sender` must have a balance of at least `amount`. - the caller must have allowance for ``sender``'s tokens of at least `amount`."
      },
      "withdrawTo(address,uint256)": {
        "details": "Allow a user to burn a number of wrapped tokens and withdraw the corresponding number of underlying tokens."
      }
    },
    "version": 1
  },
  "userdoc": {
    "kind": "user",
    "methods": {},
    "version": 1
  }
}