{
  "contractName": "ERC20PermitMock",
  "abi": [
    {
      "inputs": [
        {
          "internalType": "string",
          "name": "name",
          "type": "string"
        },
        {
          "internalType": "string",
          "name": "symbol",
          "type": "string"
        },
        {
          "internalType": "address",
          "name": "initialAccount",
          "type": "address"
        },
        {
          "internalType": "uint256",
          "name": "initialBalance",
          "type": "uint256"
        }
      ],
      "stateMutability": "payable",
      "type": "constructor"
    },
    {
      "anonymous": false,
      "inputs": [
        {
          "indexed": true,
          "internalType": "address",
          "name": "owner",
          "type": "address"
        },
        {
          "indexed": true,
          "internalType": "address",
          "name": "spender",
          "type": "address"
        },
        {
          "indexed": false,
          "internalType": "uint256",
          "name": "value",
          "type": "uint256"
        }
      ],
      "name": "Approval",
      "type": "event"
    },
    {
      "anonymous": false,
      "inputs": [
        {
          "indexed": true,
          "internalType": "address",
          "name": "from",
          "type": "address"
        },
        {
          "indexed": true,
          "internalType": "address",
          "name": "to",
          "type": "address"
        },
        {
          "indexed": false,
          "internalType": "uint256",
          "name": "value",
          "type": "uint256"
        }
      ],
      "name": "Transfer",
      "type": "event"
    },
    {
      "inputs": [],
      "name": "DOMAIN_SEPARATOR",
      "outputs": [
        {
          "internalType": "bytes32",
          "name": "",
          "type": "bytes32"
        }
      ],
      "stateMutability": "view",
      "type": "function"
    },
    {
      "inputs": [
        {
          "internalType": "address",
          "name": "owner",
          "type": "address"
        },
        {
          "internalType": "address",
          "name": "spender",
          "type": "address"
        }
      ],
      "name": "allowance",
      "outputs": [
        {
          "internalType": "uint256",
          "name": "",
          "type": "uint256"
        }
      ],
      "stateMutability": "view",
      "type": "function"
    },
    {
      "inputs": [
        {
          "internalType": "address",
          "name": "spender",
          "type": "address"
        },
        {
          "internalType": "uint256",
          "name": "amount",
          "type": "uint256"
        }
      ],
      "name": "approve",
      "outputs": [
        {
          "internalType": "bool",
          "name": "",
          "type": "bool"
        }
      ],
      "stateMutability": "nonpayable",
      "type": "function"
    },
    {
      "inputs": [
        {
          "internalType": "address",
          "name": "account",
          "type": "address"
        }
      ],
      "name": "balanceOf",
      "outputs": [
        {
          "internalType": "uint256",
          "name": "",
          "type": "uint256"
        }
      ],
      "stateMutability": "view",
      "type": "function"
    },
    {
      "inputs": [],
      "name": "decimals",
      "outputs": [
        {
          "internalType": "uint8",
          "name": "",
          "type": "uint8"
        }
      ],
      "stateMutability": "view",
      "type": "function"
    },
    {
      "inputs": [
        {
          "internalType": "address",
          "name": "spender",
          "type": "address"
        },
        {
          "internalType": "uint256",
          "name": "subtractedValue",
          "type": "uint256"
        }
      ],
      "name": "decreaseAllowance",
      "outputs": [
        {
          "internalType": "bool",
          "name": "",
          "type": "bool"
        }
      ],
      "stateMutability": "nonpayable",
      "type": "function"
    },
    {
      "inputs": [
        {
          "internalType": "address",
          "name": "spender",
          "type": "address"
        },
        {
          "internalType": "uint256",
          "name": "addedValue",
          "type": "uint256"
        }
      ],
      "name": "increaseAllowance",
      "outputs": [
        {
          "internalType": "bool",
          "name": "",
          "type": "bool"
        }
      ],
      "stateMutability": "nonpayable",
      "type": "function"
    },
    {
      "inputs": [],
      "name": "name",
      "outputs": [
        {
          "internalType": "string",
          "name": "",
          "type": "string"
        }
      ],
      "stateMutability": "view",
      "type": "function"
    },
    {
      "inputs": [
        {
          "internalType": "address",
          "name": "owner",
          "type": "address"
        }
      ],
      "name": "nonces",
      "outputs": [
        {
          "internalType": "uint256",
          "name": "",
          "type": "uint256"
        }
      ],
      "stateMutability": "view",
      "type": "function"
    },
    {
      "inputs": [
        {
          "internalType": "address",
          "name": "owner",
          "type": "address"
        },
        {
          "internalType": "address",
          "name": "spender",
          "type": "address"
        },
        {
          "internalType": "uint256",
          "name": "value",
          "type": "uint256"
        },
        {
          "internalType": "uint256",
          "name": "deadline",
          "type": "uint256"
        },
        {
          "internalType": "uint8",
          "name": "v",
          "type": "uint8"
        },
        {
          "internalType": "bytes32",
          "name": "r",
          "type": "bytes32"
        },
        {
          "internalType": "bytes32",
          "name": "s",
          "type": "bytes32"
        }
      ],
      "name": "permit",
      "outputs": [],
      "stateMutability": "nonpayable",
      "type": "function"
    },
    {
      "inputs": [],
      "name": "symbol",
      "outputs": [
        {
          "internalType": "string",
          "name": "",
          "type": "string"
        }
      ],
      "stateMutability": "view",
      "type": "function"
    },
    {
      "inputs": [],
      "name": "totalSupply",
      "outputs": [
        {
          "internalType": "uint256",
          "name": "",
          "type": "uint256"
        }
      ],
      "stateMutability": "view",
      "type": "function"
    },
    {
      "inputs": [
        {
          "internalType": "address",
          "name": "recipient",
          "type": "address"
        },
        {
          "internalType": "uint256",
          "name": "amount",
          "type": "uint256"
        }
      ],
      "name": "transfer",
      "outputs": [
        {
          "internalType": "bool",
          "name": "",
          "type": "bool"
        }
      ],
      "stateMutability": "nonpayable",
      "type": "function"
    },
    {
      "inputs": [
        {
          "internalType": "address",
          "name": "sender",
          "type": "address"
        },
        {
          "internalType": "address",
          "name": "recipient",
          "type": "address"
        },
        {
          "internalType": "uint256",
          "name": "amount",
          "type": "uint256"
        }
      ],
      "name": "transferFrom",
      "outputs": [
        {
          "internalType": "bool",
          "name": "",
          "type": "bool"
        }
      ],
      "stateMutability": "nonpayable",
      "type": "function"
    },
    {
      "inputs": [],
      "name": "getChainId",
      "outputs": [
        {
          "internalType": "uint256",
          "name": "",
          "type": "uint256"
        }
      ],
      "stateMutability": "view",
      "type": "function"
    }
  ],
  "bytecode": "0x6101406040527f6e71edae12b1b97f4d1f60370fef10105fa2faae0126114a169c64845d6126c961012090815250604051620027fc380380620027fc833981810160405281019062000052919062000475565b83806040518060400160405280600181526020017f310000000000000000000000000000000000000000000000000000000000000081525086868160039080519060200190620000a492919062000319565b508060049080519060200190620000bd92919062000319565b50505060008280519060200120905060008280519060200120905060007f8b73c3c69bb8fe3d512ecc4cf759cc79239f7b179b0ffacaa9a75d522b39400f90508260c081815250508160e081815250504660a08181525050620001288184846200015a60201b60201c565b608081815250508061010081815250505050505050506200015082826200019660201b60201c565b50505050620008e1565b60008383834630604051602001620001779594939291906200057f565b6040516020818303038152906040528051906020012090509392505050565b600073ffffffffffffffffffffffffffffffffffffffff168273ffffffffffffffffffffffffffffffffffffffff16141562000209576040517f08c379a00000000000000000000000000000000000000000000000000000000081526004016200020090620005dc565b60405180910390fd5b6200021d600083836200030f60201b60201c565b80600260008282546200023191906200068b565b92505081905550806000808473ffffffffffffffffffffffffffffffffffffffff1673ffffffffffffffffffffffffffffffffffffffff16815260200190815260200160002060008282546200028891906200068b565b925050819055508173ffffffffffffffffffffffffffffffffffffffff16600073ffffffffffffffffffffffffffffffffffffffff167fddf252ad1be2c89b69c2b068fc378daa952ba7f163c4a11628f55a4df523b3ef83604051620002ef9190620005fe565b60405180910390a36200030b600083836200031460201b60201c565b5050565b505050565b505050565b828054620003279062000766565b90600052602060002090601f0160209004810192826200034b576000855562000397565b82601f106200036657805160ff191683800117855562000397565b8280016001018555821562000397579182015b828111156200039657825182559160200191906001019062000379565b5b509050620003a69190620003aa565b5090565b5b80821115620003c5576000816000905550600101620003ab565b5090565b6000620003e0620003da8462000644565b6200061b565b905082815260208101848484011115620003ff57620003fe62000864565b5b6200040c84828562000730565b509392505050565b6000815190506200042581620008ad565b92915050565b600082601f8301126200044357620004426200085f565b5b815162000455848260208601620003c9565b91505092915050565b6000815190506200046f81620008c7565b92915050565b600080600080608085870312156200049257620004916200086e565b5b600085015167ffffffffffffffff811115620004b357620004b262000869565b5b620004c1878288016200042b565b945050602085015167ffffffffffffffff811115620004e557620004e462000869565b5b620004f3878288016200042b565b9350506040620005068782880162000414565b925050606062000519878288016200045e565b91505092959194509250565b6200053081620006e8565b82525050565b6200054181620006fc565b82525050565b600062000556601f836200067a565b9150620005638262000884565b602082019050919050565b620005798162000726565b82525050565b600060a08201905062000596600083018862000536565b620005a5602083018762000536565b620005b4604083018662000536565b620005c360608301856200056e565b620005d2608083018462000525565b9695505050505050565b60006020820190508181036000830152620005f78162000547565b9050919050565b60006020820190506200061560008301846200056e565b92915050565b6000620006276200063a565b90506200063582826200079c565b919050565b6000604051905090565b600067ffffffffffffffff82111562000662576200066162000830565b5b6200066d8262000873565b9050602081019050919050565b600082825260208201905092915050565b6000620006988262000726565b9150620006a58362000726565b9250827fffffffffffffffffffffffffffffffffffffffffffffffffffffffffffffffff03821115620006dd57620006dc620007d2565b5b828201905092915050565b6000620006f58262000706565b9050919050565b6000819050919050565b600073ffffffffffffffffffffffffffffffffffffffff82169050919050565b6000819050919050565b60005b838110156200075057808201518184015260208101905062000733565b8381111562000760576000848401525b50505050565b600060028204905060018216806200077f57607f821691505b6020821081141562000796576200079562000801565b5b50919050565b620007a78262000873565b810181811067ffffffffffffffff82111715620007c957620007c862000830565b5b80604052505050565b7f4e487b7100000000000000000000000000000000000000000000000000000000600052601160045260246000fd5b7f4e487b7100000000000000000000000000000000000000000000000000000000600052602260045260246000fd5b7f4e487b7100000000000000000000000000000000000000000000000000000000600052604160045260246000fd5b600080fd5b600080fd5b600080fd5b600080fd5b6000601f19601f8301169050919050565b7f45524332303a206d696e7420746f20746865207a65726f206164647265737300600082015250565b620008b881620006e8565b8114620008c457600080fd5b50565b620008d28162000726565b8114620008de57600080fd5b50565b60805160a05160c05160e0516101005161012051611ecb62000931600039600061084201526000610e6f01526000610eb101526000610e9001526000610e1c01526000610e440152611ecb6000f3fe608060405234801561001057600080fd5b50600436106100f55760003560e01c80633950935111610097578063a457c2d711610066578063a457c2d71461029e578063a9059cbb146102ce578063d505accf146102fe578063dd62ed3e1461031a576100f5565b806339509351146101f057806370a08231146102205780637ecebe001461025057806395d89b4114610280576100f5565b806323b872dd116100d357806323b872dd14610166578063313ce567146101965780633408e470146101b45780633644e515146101d2576100f5565b806306fdde03146100fa578063095ea7b31461011857806318160ddd14610148575b600080fd5b61010261034a565b60405161010f9190611737565b60405180910390f35b610132600480360381019061012d919061132f565b6103dc565b60405161013f9190611608565b60405180910390f35b6101506103fa565b60405161015d91906118d9565b60405180910390f35b610180600480360381019061017b919061123a565b610404565b60405161018d9190611608565b60405180910390f35b61019e6104fc565b6040516101ab91906118f4565b60405180910390f35b6101bc610505565b6040516101c991906118d9565b60405180910390f35b6101da61050d565b6040516101e79190611623565b60405180910390f35b61020a6004803603810190610205919061132f565b61051c565b6040516102179190611608565b60405180910390f35b61023a600480360381019061023591906111cd565b6105c8565b60405161024791906118d9565b60405180910390f35b61026a600480360381019061026591906111cd565b610610565b60405161027791906118d9565b60405180910390f35b610288610660565b6040516102959190611737565b60405180910390f35b6102b860048036038101906102b3919061132f565b6106f2565b6040516102c59190611608565b60405180910390f35b6102e860048036038101906102e3919061132f565b6107dd565b6040516102f59190611608565b60405180910390f35b6103186004803603810190610313919061128d565b6107fb565b005b610334600480360381019061032f91906111fa565b61093d565b60405161034191906118d9565b60405180910390f35b60606003805461035990611a1e565b80601f016020809104026020016040519081016040528092919081815260200182805461038590611a1e565b80156103d25780601f106103a7576101008083540402835291602001916103d2565b820191906000526020600020905b8154815290600101906020018083116103b557829003601f168201915b5050505050905090565b60006103f06103e96109c4565b84846109cc565b6001905092915050565b6000600254905090565b6000610411848484610b97565b6000600160008673ffffffffffffffffffffffffffffffffffffffff1673ffffffffffffffffffffffffffffffffffffffff168152602001908152602001600020600061045c6109c4565b73ffffffffffffffffffffffffffffffffffffffff1673ffffffffffffffffffffffffffffffffffffffff168152602001908152602001600020549050828110156104dc576040517f08c379a00000000000000000000000000000000000000000000000000000000081526004016104d390611859565b60405180910390fd5b6104f0856104e86109c4565b8584036109cc565b60019150509392505050565b60006012905090565b600046905090565b6000610517610e18565b905090565b60006105be6105296109c4565b8484600160006105376109c4565b73ffffffffffffffffffffffffffffffffffffffff1673ffffffffffffffffffffffffffffffffffffffff16815260200190815260200160002060008873ffffffffffffffffffffffffffffffffffffffff1673ffffffffffffffffffffffffffffffffffffffff168152602001908152602001600020546105b99190611936565b6109cc565b6001905092915050565b60008060008373ffffffffffffffffffffffffffffffffffffffff1673ffffffffffffffffffffffffffffffffffffffff168152602001908152602001600020549050919050565b6000610659600560008473ffffffffffffffffffffffffffffffffffffffff1673ffffffffffffffffffffffffffffffffffffffff168152602001908152602001600020610edb565b9050919050565b60606004805461066f90611a1e565b80601f016020809104026020016040519081016040528092919081815260200182805461069b90611a1e565b80156106e85780601f106106bd576101008083540402835291602001916106e8565b820191906000526020600020905b8154815290600101906020018083116106cb57829003601f168201915b5050505050905090565b600080600160006107016109c4565b73ffffffffffffffffffffffffffffffffffffffff1673ffffffffffffffffffffffffffffffffffffffff16815260200190815260200160002060008573ffffffffffffffffffffffffffffffffffffffff1673ffffffffffffffffffffffffffffffffffffffff168152602001908152602001600020549050828110156107be576040517f08c379a00000000000000000000000000000000000000000000000000000000081526004016107b5906118b9565b60405180910390fd5b6107d26107c96109c4565b858584036109cc565b600191505092915050565b60006107f16107ea6109c4565b8484610b97565b6001905092915050565b8342111561083e576040517f08c379a0000000000000000000000000000000000000000000000000000000008152600401610835906117b9565b60405180910390fd5b60007f000000000000000000000000000000000000000000000000000000000000000088888861086d8c610ee9565b896040516020016108839695949392919061163e565b60405160208183030381529060405280519060200120905060006108a682610f47565b905060006108b682878787610f61565b90508973ffffffffffffffffffffffffffffffffffffffff168173ffffffffffffffffffffffffffffffffffffffff1614610926576040517f08c379a000000000000000000000000000000000000000000000000000000000815260040161091d90611839565b60405180910390fd5b6109318a8a8a6109cc565b50505050505050505050565b6000600160008473ffffffffffffffffffffffffffffffffffffffff1673ffffffffffffffffffffffffffffffffffffffff16815260200190815260200160002060008373ffffffffffffffffffffffffffffffffffffffff1673ffffffffffffffffffffffffffffffffffffffff16815260200190815260200160002054905092915050565b600033905090565b600073ffffffffffffffffffffffffffffffffffffffff168373ffffffffffffffffffffffffffffffffffffffff161415610a3c576040517f08c379a0000000000000000000000000000000000000000000000000000000008152600401610a3390611899565b60405180910390fd5b600073ffffffffffffffffffffffffffffffffffffffff168273ffffffffffffffffffffffffffffffffffffffff161415610aac576040517f08c379a0000000000000000000000000000000000000000000000000000000008152600401610aa390611799565b60405180910390fd5b80600160008573ffffffffffffffffffffffffffffffffffffffff1673ffffffffffffffffffffffffffffffffffffffff16815260200190815260200160002060008473ffffffffffffffffffffffffffffffffffffffff1673ffffffffffffffffffffffffffffffffffffffff168152602001908152602001600020819055508173ffffffffffffffffffffffffffffffffffffffff168373ffffffffffffffffffffffffffffffffffffffff167f8c5be1e5ebec7d5bd14f71427d1e84f3dd0314c0f7b2291e5b200ac8c7c3b92583604051610b8a91906118d9565b60405180910390a3505050565b600073ffffffffffffffffffffffffffffffffffffffff168373ffffffffffffffffffffffffffffffffffffffff161415610c07576040517f08c379a0000000000000000000000000000000000000000000000000000000008152600401610bfe90611879565b60405180910390fd5b600073ffffffffffffffffffffffffffffffffffffffff168273ffffffffffffffffffffffffffffffffffffffff161415610c77576040517f08c379a0000000000000000000000000000000000000000000000000000000008152600401610c6e90611779565b60405180910390fd5b610c828383836110ec565b60008060008573ffffffffffffffffffffffffffffffffffffffff1673ffffffffffffffffffffffffffffffffffffffff16815260200190815260200160002054905081811015610d08576040517f08c379a0000000000000000000000000000000000000000000000000000000008152600401610cff906117d9565b60405180910390fd5b8181036000808673ffffffffffffffffffffffffffffffffffffffff1673ffffffffffffffffffffffffffffffffffffffff16815260200190815260200160002081905550816000808573ffffffffffffffffffffffffffffffffffffffff1673ffffffffffffffffffffffffffffffffffffffff1681526020019081526020016000206000828254610d9b9190611936565b925050819055508273ffffffffffffffffffffffffffffffffffffffff168473ffffffffffffffffffffffffffffffffffffffff167fddf252ad1be2c89b69c2b068fc378daa952ba7f163c4a11628f55a4df523b3ef84604051610dff91906118d9565b60405180910390a3610e128484846110f1565b50505050565b60007f0000000000000000000000000000000000000000000000000000000000000000461415610e6a577f00000000000000000000000000000000000000000000000000000000000000009050610ed8565b610ed57f00000000000000000000000000000000000000000000000000000000000000007f00000000000000000000000000000000000000000000000000000000000000007f00000000000000000000000000000000000000000000000000000000000000006110f6565b90505b90565b600081600001549050919050565b600080600560008473ffffffffffffffffffffffffffffffffffffffff1673ffffffffffffffffffffffffffffffffffffffff1681526020019081526020016000209050610f3681610edb565b9150610f4181611130565b50919050565b6000610f5a610f54610e18565b83611146565b9050919050565b60007f7fffffffffffffffffffffffffffffff5d576e7357a4501ddfe92f46681b20a08260001c1115610fc9576040517f08c379a0000000000000000000000000000000000000000000000000000000008152600401610fc0906117f9565b60405180910390fd5b601b8460ff161480610fde5750601c8460ff16145b61101d576040517f08c379a000000000000000000000000000000000000000000000000000000000815260040161101490611819565b60405180910390fd5b60006001868686866040516000815260200160405260405161104294939291906116f2565b6020604051602081039080840390855afa158015611064573d6000803e3d6000fd5b505050602060405103519050600073ffffffffffffffffffffffffffffffffffffffff168173ffffffffffffffffffffffffffffffffffffffff1614156110e0576040517f08c379a00000000000000000000000000000000000000000000000000000000081526004016110d790611759565b60405180910390fd5b80915050949350505050565b505050565b505050565b6000838383463060405160200161111195949392919061169f565b6040516020818303038152906040528051906020012090509392505050565b6001816000016000828254019250508190555050565b6000828260405160200161115b9291906115d1565b60405160208183030381529060405280519060200120905092915050565b60008135905061118881611e39565b92915050565b60008135905061119d81611e50565b92915050565b6000813590506111b281611e67565b92915050565b6000813590506111c781611e7e565b92915050565b6000602082840312156111e3576111e2611ab8565b5b60006111f184828501611179565b91505092915050565b6000806040838503121561121157611210611ab8565b5b600061121f85828601611179565b925050602061123085828601611179565b9150509250929050565b60008060006060848603121561125357611252611ab8565b5b600061126186828701611179565b935050602061127286828701611179565b9250506040611283868287016111a3565b9150509250925092565b600080600080600080600060e0888a0312156112ac576112ab611ab8565b5b60006112ba8a828b01611179565b97505060206112cb8a828b01611179565b96505060406112dc8a828b016111a3565b95505060606112ed8a828b016111a3565b94505060806112fe8a828b016111b8565b93505060a061130f8a828b0161118e565b92505060c06113208a828b0161118e565b91505092959891949750929550565b6000806040838503121561134657611345611ab8565b5b600061135485828601611179565b9250506020611365858286016111a3565b9150509250929050565b6113788161198c565b82525050565b6113878161199e565b82525050565b611396816119aa565b82525050565b6113ad6113a8826119aa565b611a50565b82525050565b60006113be8261190f565b6113c8818561191a565b93506113d88185602086016119eb565b6113e181611abd565b840191505092915050565b60006113f960188361191a565b915061140482611ace565b602082019050919050565b600061141c60238361191a565b915061142782611af7565b604082019050919050565b600061143f60228361191a565b915061144a82611b46565b604082019050919050565b600061146260028361192b565b915061146d82611b95565b600282019050919050565b6000611485601d8361191a565b915061149082611bbe565b602082019050919050565b60006114a860268361191a565b91506114b382611be7565b604082019050919050565b60006114cb60228361191a565b91506114d682611c36565b604082019050919050565b60006114ee60228361191a565b91506114f982611c85565b604082019050919050565b6000611511601e8361191a565b915061151c82611cd4565b602082019050919050565b600061153460288361191a565b915061153f82611cfd565b604082019050919050565b600061155760258361191a565b915061156282611d4c565b604082019050919050565b600061157a60248361191a565b915061158582611d9b565b604082019050919050565b600061159d60258361191a565b91506115a882611dea565b604082019050919050565b6115bc816119d4565b82525050565b6115cb816119de565b82525050565b60006115dc82611455565b91506115e8828561139c565b6020820191506115f8828461139c565b6020820191508190509392505050565b600060208201905061161d600083018461137e565b92915050565b6000602082019050611638600083018461138d565b92915050565b600060c082019050611653600083018961138d565b611660602083018861136f565b61166d604083018761136f565b61167a60608301866115b3565b61168760808301856115b3565b61169460a08301846115b3565b979650505050505050565b600060a0820190506116b4600083018861138d565b6116c1602083018761138d565b6116ce604083018661138d565b6116db60608301856115b3565b6116e8608083018461136f565b9695505050505050565b6000608082019050611707600083018761138d565b61171460208301866115c2565b611721604083018561138d565b61172e606083018461138d565b95945050505050565b6000602082019050818103600083015261175181846113b3565b905092915050565b60006020820190508181036000830152611772816113ec565b9050919050565b600060208201905081810360008301526117928161140f565b9050919050565b600060208201905081810360008301526117b281611432565b9050919050565b600060208201905081810360008301526117d281611478565b9050919050565b600060208201905081810360008301526117f28161149b565b9050919050565b60006020820190508181036000830152611812816114be565b9050919050565b60006020820190508181036000830152611832816114e1565b9050919050565b6000602082019050818103600083015261185281611504565b9050919050565b6000602082019050818103600083015261187281611527565b9050919050565b600060208201905081810360008301526118928161154a565b9050919050565b600060208201905081810360008301526118b28161156d565b9050919050565b600060208201905081810360008301526118d281611590565b9050919050565b60006020820190506118ee60008301846115b3565b92915050565b600060208201905061190960008301846115c2565b92915050565b600081519050919050565b600082825260208201905092915050565b600081905092915050565b6000611941826119d4565b915061194c836119d4565b9250827fffffffffffffffffffffffffffffffffffffffffffffffffffffffffffffffff0382111561198157611980611a5a565b5b828201905092915050565b6000611997826119b4565b9050919050565b60008115159050919050565b6000819050919050565b600073ffffffffffffffffffffffffffffffffffffffff82169050919050565b6000819050919050565b600060ff82169050919050565b60005b83811015611a095780820151818401526020810190506119ee565b83811115611a18576000848401525b50505050565b60006002820490506001821680611a3657607f821691505b60208210811415611a4a57611a49611a89565b5b50919050565b6000819050919050565b7f4e487b7100000000000000000000000000000000000000000000000000000000600052601160045260246000fd5b7f4e487b7100000000000000000000000000000000000000000000000000000000600052602260045260246000fd5b600080fd5b6000601f19601f8301169050919050565b7f45434453413a20696e76616c6964207369676e61747572650000000000000000600082015250565b7f45524332303a207472616e7366657220746f20746865207a65726f206164647260008201527f6573730000000000000000000000000000000000000000000000000000000000602082015250565b7f45524332303a20617070726f766520746f20746865207a65726f20616464726560008201527f7373000000000000000000000000000000000000000000000000000000000000602082015250565b7f1901000000000000000000000000000000000000000000000000000000000000600082015250565b7f45524332305065726d69743a206578706972656420646561646c696e65000000600082015250565b7f45524332303a207472616e7366657220616d6f756e742065786365656473206260008201527f616c616e63650000000000000000000000000000000000000000000000000000602082015250565b7f45434453413a20696e76616c6964207369676e6174757265202773272076616c60008201527f7565000000000000000000000000000000000000000000000000000000000000602082015250565b7f45434453413a20696e76616c6964207369676e6174757265202776272076616c60008201527f7565000000000000000000000000000000000000000000000000000000000000602082015250565b7f45524332305065726d69743a20696e76616c6964207369676e61747572650000600082015250565b7f45524332303a207472616e7366657220616d6f756e742065786365656473206160008201527f6c6c6f77616e6365000000000000000000000000000000000000000000000000602082015250565b7f45524332303a207472616e736665722066726f6d20746865207a65726f20616460008201527f6472657373000000000000000000000000000000000000000000000000000000602082015250565b7f45524332303a20617070726f76652066726f6d20746865207a65726f2061646460008201527f7265737300000000000000000000000000000000000000000000000000000000602082015250565b7f45524332303a2064656372656173656420616c6c6f77616e63652062656c6f7760008201527f207a65726f000000000000000000000000000000000000000000000000000000602082015250565b611e428161198c565b8114611e4d57600080fd5b50565b611e59816119aa565b8114611e6457600080fd5b50565b611e70816119d4565b8114611e7b57600080fd5b50565b611e87816119de565b8114611e9257600080fd5b5056fea26469706673582212202815ee567388a0d4da02680a3db5fe1b92ccc133993de9e7443fdc058443474464736f6c63430008070033",
  "immutableReferences": {
    "19087": [
      {
        "length": 32,
        "start": 2114
      }
    ],
    "24333": [
      {
        "length": 32,
        "start": 3652
      }
    ],
    "24335": [
      {
        "length": 32,
        "start": 3612
      }
    ],
    "24337": [
      {
        "length": 32,
        "start": 3728
      }
    ],
    "24339": [
      {
        "length": 32,
        "start": 3761
      }
    ],
    "24341": [
      {
        "length": 32,
        "start": 3695
      }
    ]
  },
  "source": "// SPDX-License-Identifier: MIT\n\npragma solidity ^0.8.0;\n\nimport \"../token/ERC20/extensions/draft-ERC20Permit.sol\";\n\ncontract ERC20PermitMock is ERC20Permit {\n    constructor(\n        string memory name,\n        string memory symbol,\n        address initialAccount,\n        uint256 initialBalance\n    ) payable ERC20(name, symbol) ERC20Permit(name) {\n        _mint(initialAccount, initialBalance);\n    }\n\n    function getChainId() external view returns (uint256) {\n        return block.chainid;\n    }\n}\n",
  "sourcePath": "/home/tenten/Projects/upcgold.io/src/contracts/openzeppelin-contracts/contracts/mocks/ERC20PermitMock.sol",
  "compiler": {
    "name": "solc",
    "version": "0.8.7+commit.e28d00a7.Emscripten.clang"
  },
  "schemaVersion": "3.2.3",
  "updatedAt": "2021-08-12T03:39:31.247Z",
  "devdoc": {
    "kind": "dev",
    "methods": {
      "DOMAIN_SEPARATOR()": {
        "details": "See {IERC20Permit-DOMAIN_SEPARATOR}."
      },
      "allowance(address,address)": {
        "details": "See {IERC20-allowance}."
      },
      "approve(address,uint256)": {
        "details": "See {IERC20-approve}. Requirements: - `spender` cannot be the zero address."
      },
      "balanceOf(address)": {
        "details": "See {IERC20-balanceOf}."
      },
      "decimals()": {
        "details": "Returns the number of decimals used to get its user representation. For example, if `decimals` equals `2`, a balance of `505` tokens should be displayed to a user as `5.05` (`505 / 10 ** 2`). Tokens usually opt for a value of 18, imitating the relationship between Ether and Wei. This is the value {ERC20} uses, unless this function is overridden; NOTE: This information is only used for _display_ purposes: it in no way affects any of the arithmetic of the contract, including {IERC20-balanceOf} and {IERC20-transfer}."
      },
      "decreaseAllowance(address,uint256)": {
        "details": "Atomically decreases the allowance granted to `spender` by the caller. This is an alternative to {approve} that can be used as a mitigation for problems described in {IERC20-approve}. Emits an {Approval} event indicating the updated allowance. Requirements: - `spender` cannot be the zero address. - `spender` must have allowance for the caller of at least `subtractedValue`."
      },
      "increaseAllowance(address,uint256)": {
        "details": "Atomically increases the allowance granted to `spender` by the caller. This is an alternative to {approve} that can be used as a mitigation for problems described in {IERC20-approve}. Emits an {Approval} event indicating the updated allowance. Requirements: - `spender` cannot be the zero address."
      },
      "name()": {
        "details": "Returns the name of the token."
      },
      "nonces(address)": {
        "details": "See {IERC20Permit-nonces}."
      },
      "permit(address,address,uint256,uint256,uint8,bytes32,bytes32)": {
        "details": "See {IERC20Permit-permit}."
      },
      "symbol()": {
        "details": "Returns the symbol of the token, usually a shorter version of the name."
      },
      "totalSupply()": {
        "details": "See {IERC20-totalSupply}."
      },
      "transfer(address,uint256)": {
        "details": "See {IERC20-transfer}. Requirements: - `recipient` cannot be the zero address. - the caller must have a balance of at least `amount`."
      },
      "transferFrom(address,address,uint256)": {
        "details": "See {IERC20-transferFrom}. Emits an {Approval} event indicating the updated allowance. This is not required by the EIP. See the note at the beginning of {ERC20}. Requirements: - `sender` and `recipient` cannot be the zero address. - `sender` must have a balance of at least `amount`. - the caller must have allowance for ``sender``'s tokens of at least `amount`."
      }
    },
    "version": 1
  },
  "userdoc": {
    "kind": "user",
    "methods": {},
    "version": 1
  }
}