{
  "contractName": "ERC721URIStorageMock",
  "abi": [
    {
      "inputs": [
        {
          "internalType": "string",
          "name": "name",
          "type": "string"
        },
        {
          "internalType": "string",
          "name": "symbol",
          "type": "string"
        }
      ],
      "stateMutability": "nonpayable",
      "type": "constructor"
    },
    {
      "anonymous": false,
      "inputs": [
        {
          "indexed": true,
          "internalType": "address",
          "name": "owner",
          "type": "address"
        },
        {
          "indexed": true,
          "internalType": "address",
          "name": "approved",
          "type": "address"
        },
        {
          "indexed": true,
          "internalType": "uint256",
          "name": "tokenId",
          "type": "uint256"
        }
      ],
      "name": "Approval",
      "type": "event"
    },
    {
      "anonymous": false,
      "inputs": [
        {
          "indexed": true,
          "internalType": "address",
          "name": "owner",
          "type": "address"
        },
        {
          "indexed": true,
          "internalType": "address",
          "name": "operator",
          "type": "address"
        },
        {
          "indexed": false,
          "internalType": "bool",
          "name": "approved",
          "type": "bool"
        }
      ],
      "name": "ApprovalForAll",
      "type": "event"
    },
    {
      "anonymous": false,
      "inputs": [
        {
          "indexed": true,
          "internalType": "address",
          "name": "from",
          "type": "address"
        },
        {
          "indexed": true,
          "internalType": "address",
          "name": "to",
          "type": "address"
        },
        {
          "indexed": true,
          "internalType": "uint256",
          "name": "tokenId",
          "type": "uint256"
        }
      ],
      "name": "Transfer",
      "type": "event"
    },
    {
      "inputs": [
        {
          "internalType": "address",
          "name": "to",
          "type": "address"
        },
        {
          "internalType": "uint256",
          "name": "tokenId",
          "type": "uint256"
        }
      ],
      "name": "approve",
      "outputs": [],
      "stateMutability": "nonpayable",
      "type": "function"
    },
    {
      "inputs": [
        {
          "internalType": "address",
          "name": "owner",
          "type": "address"
        }
      ],
      "name": "balanceOf",
      "outputs": [
        {
          "internalType": "uint256",
          "name": "",
          "type": "uint256"
        }
      ],
      "stateMutability": "view",
      "type": "function"
    },
    {
      "inputs": [
        {
          "internalType": "uint256",
          "name": "tokenId",
          "type": "uint256"
        }
      ],
      "name": "getApproved",
      "outputs": [
        {
          "internalType": "address",
          "name": "",
          "type": "address"
        }
      ],
      "stateMutability": "view",
      "type": "function"
    },
    {
      "inputs": [
        {
          "internalType": "address",
          "name": "owner",
          "type": "address"
        },
        {
          "internalType": "address",
          "name": "operator",
          "type": "address"
        }
      ],
      "name": "isApprovedForAll",
      "outputs": [
        {
          "internalType": "bool",
          "name": "",
          "type": "bool"
        }
      ],
      "stateMutability": "view",
      "type": "function"
    },
    {
      "inputs": [],
      "name": "name",
      "outputs": [
        {
          "internalType": "string",
          "name": "",
          "type": "string"
        }
      ],
      "stateMutability": "view",
      "type": "function"
    },
    {
      "inputs": [
        {
          "internalType": "uint256",
          "name": "tokenId",
          "type": "uint256"
        }
      ],
      "name": "ownerOf",
      "outputs": [
        {
          "internalType": "address",
          "name": "",
          "type": "address"
        }
      ],
      "stateMutability": "view",
      "type": "function"
    },
    {
      "inputs": [
        {
          "internalType": "address",
          "name": "from",
          "type": "address"
        },
        {
          "internalType": "address",
          "name": "to",
          "type": "address"
        },
        {
          "internalType": "uint256",
          "name": "tokenId",
          "type": "uint256"
        }
      ],
      "name": "safeTransferFrom",
      "outputs": [],
      "stateMutability": "nonpayable",
      "type": "function"
    },
    {
      "inputs": [
        {
          "internalType": "address",
          "name": "from",
          "type": "address"
        },
        {
          "internalType": "address",
          "name": "to",
          "type": "address"
        },
        {
          "internalType": "uint256",
          "name": "tokenId",
          "type": "uint256"
        },
        {
          "internalType": "bytes",
          "name": "_data",
          "type": "bytes"
        }
      ],
      "name": "safeTransferFrom",
      "outputs": [],
      "stateMutability": "nonpayable",
      "type": "function"
    },
    {
      "inputs": [
        {
          "internalType": "address",
          "name": "operator",
          "type": "address"
        },
        {
          "internalType": "bool",
          "name": "approved",
          "type": "bool"
        }
      ],
      "name": "setApprovalForAll",
      "outputs": [],
      "stateMutability": "nonpayable",
      "type": "function"
    },
    {
      "inputs": [
        {
          "internalType": "bytes4",
          "name": "interfaceId",
          "type": "bytes4"
        }
      ],
      "name": "supportsInterface",
      "outputs": [
        {
          "internalType": "bool",
          "name": "",
          "type": "bool"
        }
      ],
      "stateMutability": "view",
      "type": "function"
    },
    {
      "inputs": [],
      "name": "symbol",
      "outputs": [
        {
          "internalType": "string",
          "name": "",
          "type": "string"
        }
      ],
      "stateMutability": "view",
      "type": "function"
    },
    {
      "inputs": [
        {
          "internalType": "uint256",
          "name": "tokenId",
          "type": "uint256"
        }
      ],
      "name": "tokenURI",
      "outputs": [
        {
          "internalType": "string",
          "name": "",
          "type": "string"
        }
      ],
      "stateMutability": "view",
      "type": "function"
    },
    {
      "inputs": [
        {
          "internalType": "address",
          "name": "from",
          "type": "address"
        },
        {
          "internalType": "address",
          "name": "to",
          "type": "address"
        },
        {
          "internalType": "uint256",
          "name": "tokenId",
          "type": "uint256"
        }
      ],
      "name": "transferFrom",
      "outputs": [],
      "stateMutability": "nonpayable",
      "type": "function"
    },
    {
      "inputs": [
        {
          "internalType": "string",
          "name": "newBaseTokenURI",
          "type": "string"
        }
      ],
      "name": "setBaseURI",
      "outputs": [],
      "stateMutability": "nonpayable",
      "type": "function"
    },
    {
      "inputs": [],
      "name": "baseURI",
      "outputs": [
        {
          "internalType": "string",
          "name": "",
          "type": "string"
        }
      ],
      "stateMutability": "view",
      "type": "function"
    },
    {
      "inputs": [
        {
          "internalType": "uint256",
          "name": "tokenId",
          "type": "uint256"
        },
        {
          "internalType": "string",
          "name": "_tokenURI",
          "type": "string"
        }
      ],
      "name": "setTokenURI",
      "outputs": [],
      "stateMutability": "nonpayable",
      "type": "function"
    },
    {
      "inputs": [
        {
          "internalType": "uint256",
          "name": "tokenId",
          "type": "uint256"
        }
      ],
      "name": "exists",
      "outputs": [
        {
          "internalType": "bool",
          "name": "",
          "type": "bool"
        }
      ],
      "stateMutability": "view",
      "type": "function"
    },
    {
      "inputs": [
        {
          "internalType": "address",
          "name": "to",
          "type": "address"
        },
        {
          "internalType": "uint256",
          "name": "tokenId",
          "type": "uint256"
        }
      ],
      "name": "mint",
      "outputs": [],
      "stateMutability": "nonpayable",
      "type": "function"
    },
    {
      "inputs": [
        {
          "internalType": "address",
          "name": "to",
          "type": "address"
        },
        {
          "internalType": "uint256",
          "name": "tokenId",
          "type": "uint256"
        },
        {
          "internalType": "bytes",
          "name": "_data",
          "type": "bytes"
        }
      ],
      "name": "safeMint",
      "outputs": [],
      "stateMutability": "nonpayable",
      "type": "function"
    },
    {
      "inputs": [
        {
          "internalType": "address",
          "name": "to",
          "type": "address"
        },
        {
          "internalType": "uint256",
          "name": "tokenId",
          "type": "uint256"
        }
      ],
      "name": "safeMint",
      "outputs": [],
      "stateMutability": "nonpayable",
      "type": "function"
    },
    {
      "inputs": [
        {
          "internalType": "uint256",
          "name": "tokenId",
          "type": "uint256"
        }
      ],
      "name": "burn",
      "outputs": [],
      "stateMutability": "nonpayable",
      "type": "function"
    }
  ],
  "bytecode": "0x60806040523480156200001157600080fd5b50604051620034cd380380620034cd8339818101604052810190620000379190620001a3565b818181600090805190602001906200005192919062000075565b5080600190805190602001906200006a92919062000075565b5050505050620003ac565b8280546200008390620002bd565b90600052602060002090601f016020900481019282620000a75760008555620000f3565b82601f10620000c257805160ff1916838001178555620000f3565b82800160010185558215620000f3579182015b82811115620000f2578251825591602001919060010190620000d5565b5b50905062000102919062000106565b5090565b5b808211156200012157600081600090555060010162000107565b5090565b60006200013c620001368462000251565b62000228565b9050828152602081018484840111156200015b576200015a6200038c565b5b6200016884828562000287565b509392505050565b600082601f83011262000188576200018762000387565b5b81516200019a84826020860162000125565b91505092915050565b60008060408385031215620001bd57620001bc62000396565b5b600083015167ffffffffffffffff811115620001de57620001dd62000391565b5b620001ec8582860162000170565b925050602083015167ffffffffffffffff81111562000210576200020f62000391565b5b6200021e8582860162000170565b9150509250929050565b60006200023462000247565b9050620002428282620002f3565b919050565b6000604051905090565b600067ffffffffffffffff8211156200026f576200026e62000358565b5b6200027a826200039b565b9050602081019050919050565b60005b83811015620002a75780820151818401526020810190506200028a565b83811115620002b7576000848401525b50505050565b60006002820490506001821680620002d657607f821691505b60208210811415620002ed57620002ec62000329565b5b50919050565b620002fe826200039b565b810181811067ffffffffffffffff8211171562000320576200031f62000358565b5b80604052505050565b7f4e487b7100000000000000000000000000000000000000000000000000000000600052602260045260246000fd5b7f4e487b7100000000000000000000000000000000000000000000000000000000600052604160045260246000fd5b600080fd5b600080fd5b600080fd5b600080fd5b6000601f19601f8301169050919050565b61311180620003bc6000396000f3fe608060405234801561001057600080fd5b50600436106101375760003560e01c806355f804b3116100b857806395d89b411161007c57806395d89b4114610348578063a144819414610366578063a22cb46514610382578063b88d4fde1461039e578063c87b56dd146103ba578063e985e9c5146103ea57610137565b806355f804b3146102925780636352211e146102ae5780636c0360eb146102de57806370a08231146102fc5780638832e6e31461032c57610137565b806323b872dd116100ff57806323b872dd146101f257806340c10f191461020e57806342842e0e1461022a57806342966c68146102465780634f558e791461026257610137565b806301ffc9a71461013c57806306fdde031461016c578063081812fc1461018a578063095ea7b3146101ba578063162094c4146101d6575b600080fd5b610156600480360381019061015191906120bc565b61041a565b6040516101639190612577565b60405180910390f35b6101746104fc565b6040516101819190612592565b60405180910390f35b6101a4600480360381019061019f9190612163565b61058e565b6040516101b19190612510565b60405180910390f35b6101d460048036038101906101cf919061200d565b610613565b005b6101f060048036038101906101eb9190612190565b61072b565b005b61020c60048036038101906102079190611ef7565b610739565b005b6102286004803603810190610223919061200d565b610799565b005b610244600480360381019061023f9190611ef7565b6107a7565b005b610260600480360381019061025b9190612163565b6107c7565b005b61027c60048036038101906102779190612163565b6107d3565b6040516102899190612577565b60405180910390f35b6102ac60048036038101906102a79190612116565b6107e5565b005b6102c860048036038101906102c39190612163565b6107fb565b6040516102d59190612510565b60405180910390f35b6102e66108ad565b6040516102f39190612592565b60405180910390f35b61031660048036038101906103119190611e8a565b6108bc565b60405161032391906127b4565b60405180910390f35b6103466004803603810190610341919061204d565b610974565b005b610350610984565b60405161035d9190612592565b60405180910390f35b610380600480360381019061037b919061200d565b610a16565b005b61039c60048036038101906103979190611fcd565b610a24565b005b6103b860048036038101906103b39190611f4a565b610ba5565b005b6103d460048036038101906103cf9190612163565b610c07565b6040516103e19190612592565b60405180910390f35b61040460048036038101906103ff9190611eb7565b610d59565b6040516104119190612577565b60405180910390f35b60007f80ac58cd000000000000000000000000000000000000000000000000000000007bffffffffffffffffffffffffffffffffffffffffffffffffffffffff1916827bffffffffffffffffffffffffffffffffffffffffffffffffffffffff191614806104e557507f5b5e139f000000000000000000000000000000000000000000000000000000007bffffffffffffffffffffffffffffffffffffffffffffffffffffffff1916827bffffffffffffffffffffffffffffffffffffffffffffffffffffffff1916145b806104f557506104f482610ded565b5b9050919050565b60606000805461050b90612a0a565b80601f016020809104026020016040519081016040528092919081815260200182805461053790612a0a565b80156105845780601f1061055957610100808354040283529160200191610584565b820191906000526020600020905b81548152906001019060200180831161056757829003601f168201915b5050505050905090565b600061059982610e57565b6105d8576040517f08c379a00000000000000000000000000000000000000000000000000000000081526004016105cf90612714565b60405180910390fd5b6004600083815260200190815260200160002060009054906101000a900473ffffffffffffffffffffffffffffffffffffffff169050919050565b600061061e826107fb565b90508073ffffffffffffffffffffffffffffffffffffffff168373ffffffffffffffffffffffffffffffffffffffff16141561068f576040517f08c379a000000000000000000000000000000000000000000000000000000000815260040161068690612774565b60405180910390fd5b8073ffffffffffffffffffffffffffffffffffffffff166106ae610ec3565b73ffffffffffffffffffffffffffffffffffffffff1614806106dd57506106dc816106d7610ec3565b610d59565b5b61071c576040517f08c379a000000000000000000000000000000000000000000000000000000000815260040161071390612654565b60405180910390fd5b6107268383610ecb565b505050565b6107358282610f84565b5050565b61074a610744610ec3565b82610ff8565b610789576040517f08c379a000000000000000000000000000000000000000000000000000000000815260040161078090612794565b60405180910390fd5b6107948383836110d6565b505050565b6107a38282611332565b5050565b6107c283838360405180602001604052806000815250610ba5565b505050565b6107d081611500565b50565b60006107de82610e57565b9050919050565b8181600791906107f6929190611b82565b505050565b6000806002600084815260200190815260200160002060009054906101000a900473ffffffffffffffffffffffffffffffffffffffff169050600073ffffffffffffffffffffffffffffffffffffffff168173ffffffffffffffffffffffffffffffffffffffff1614156108a4576040517f08c379a000000000000000000000000000000000000000000000000000000000815260040161089b90612694565b60405180910390fd5b80915050919050565b60606108b7611553565b905090565b60008073ffffffffffffffffffffffffffffffffffffffff168273ffffffffffffffffffffffffffffffffffffffff16141561092d576040517f08c379a000000000000000000000000000000000000000000000000000000000815260040161092490612674565b60405180910390fd5b600360008373ffffffffffffffffffffffffffffffffffffffff1673ffffffffffffffffffffffffffffffffffffffff168152602001908152602001600020549050919050565b61097f8383836115e5565b505050565b60606001805461099390612a0a565b80601f01602080910402602001604051908101604052809291908181526020018280546109bf90612a0a565b8015610a0c5780601f106109e157610100808354040283529160200191610a0c565b820191906000526020600020905b8154815290600101906020018083116109ef57829003601f168201915b5050505050905090565b610a208282611640565b5050565b610a2c610ec3565b73ffffffffffffffffffffffffffffffffffffffff168273ffffffffffffffffffffffffffffffffffffffff161415610a9a576040517f08c379a0000000000000000000000000000000000000000000000000000000008152600401610a9190612614565b60405180910390fd5b8060056000610aa7610ec3565b73ffffffffffffffffffffffffffffffffffffffff1673ffffffffffffffffffffffffffffffffffffffff16815260200190815260200160002060008473ffffffffffffffffffffffffffffffffffffffff1673ffffffffffffffffffffffffffffffffffffffff16815260200190815260200160002060006101000a81548160ff0219169083151502179055508173ffffffffffffffffffffffffffffffffffffffff16610b54610ec3565b73ffffffffffffffffffffffffffffffffffffffff167f17307eab39ab6107e8899845ad3d59bd9653f200f220920489ca2b5937696c3183604051610b999190612577565b60405180910390a35050565b610bb6610bb0610ec3565b83610ff8565b610bf5576040517f08c379a0000000000000000000000000000000000000000000000000000000008152600401610bec90612794565b60405180910390fd5b610c018484848461165e565b50505050565b6060610c1282610e57565b610c51576040517f08c379a0000000000000000000000000000000000000000000000000000000008152600401610c48906126f4565b60405180910390fd5b6000600660008481526020019081526020016000208054610c7190612a0a565b80601f0160208091040260200160405190810160405280929190818152602001828054610c9d90612a0a565b8015610cea5780601f10610cbf57610100808354040283529160200191610cea565b820191906000526020600020905b815481529060010190602001808311610ccd57829003601f168201915b505050505090506000610cfb611553565b9050600081511415610d11578192505050610d54565b600082511115610d46578082604051602001610d2e9291906124ec565b60405160208183030381529060405292505050610d54565b610d4f846116ba565b925050505b919050565b6000600560008473ffffffffffffffffffffffffffffffffffffffff1673ffffffffffffffffffffffffffffffffffffffff16815260200190815260200160002060008373ffffffffffffffffffffffffffffffffffffffff1673ffffffffffffffffffffffffffffffffffffffff16815260200190815260200160002060009054906101000a900460ff16905092915050565b60007f01ffc9a7000000000000000000000000000000000000000000000000000000007bffffffffffffffffffffffffffffffffffffffffffffffffffffffff1916827bffffffffffffffffffffffffffffffffffffffffffffffffffffffff1916149050919050565b60008073ffffffffffffffffffffffffffffffffffffffff166002600084815260200190815260200160002060009054906101000a900473ffffffffffffffffffffffffffffffffffffffff1673ffffffffffffffffffffffffffffffffffffffff1614159050919050565b600033905090565b816004600083815260200190815260200160002060006101000a81548173ffffffffffffffffffffffffffffffffffffffff021916908373ffffffffffffffffffffffffffffffffffffffff160217905550808273ffffffffffffffffffffffffffffffffffffffff16610f3e836107fb565b73ffffffffffffffffffffffffffffffffffffffff167f8c5be1e5ebec7d5bd14f71427d1e84f3dd0314c0f7b2291e5b200ac8c7c3b92560405160405180910390a45050565b610f8d82610e57565b610fcc576040517f08c379a0000000000000000000000000000000000000000000000000000000008152600401610fc3906126b4565b60405180910390fd5b80600660008481526020019081526020016000209080519060200190610ff3929190611c08565b505050565b600061100382610e57565b611042576040517f08c379a000000000000000000000000000000000000000000000000000000000815260040161103990612634565b60405180910390fd5b600061104d836107fb565b90508073ffffffffffffffffffffffffffffffffffffffff168473ffffffffffffffffffffffffffffffffffffffff1614806110bc57508373ffffffffffffffffffffffffffffffffffffffff166110a48461058e565b73ffffffffffffffffffffffffffffffffffffffff16145b806110cd57506110cc8185610d59565b5b91505092915050565b8273ffffffffffffffffffffffffffffffffffffffff166110f6826107fb565b73ffffffffffffffffffffffffffffffffffffffff161461114c576040517f08c379a000000000000000000000000000000000000000000000000000000000815260040161114390612734565b60405180910390fd5b600073ffffffffffffffffffffffffffffffffffffffff168273ffffffffffffffffffffffffffffffffffffffff1614156111bc576040517f08c379a00000000000000000000000000000000000000000000000000000000081526004016111b3906125f4565b60405180910390fd5b6111c7838383611761565b6111d2600082610ecb565b6001600360008573ffffffffffffffffffffffffffffffffffffffff1673ffffffffffffffffffffffffffffffffffffffff16815260200190815260200160002060008282546112229190612920565b925050819055506001600360008473ffffffffffffffffffffffffffffffffffffffff1673ffffffffffffffffffffffffffffffffffffffff16815260200190815260200160002060008282546112799190612899565b92505081905550816002600083815260200190815260200160002060006101000a81548173ffffffffffffffffffffffffffffffffffffffff021916908373ffffffffffffffffffffffffffffffffffffffff160217905550808273ffffffffffffffffffffffffffffffffffffffff168473ffffffffffffffffffffffffffffffffffffffff167fddf252ad1be2c89b69c2b068fc378daa952ba7f163c4a11628f55a4df523b3ef60405160405180910390a4505050565b600073ffffffffffffffffffffffffffffffffffffffff168273ffffffffffffffffffffffffffffffffffffffff1614156113a2576040517f08c379a0000000000000000000000000000000000000000000000000000000008152600401611399906126d4565b60405180910390fd5b6113ab81610e57565b156113eb576040517f08c379a00000000000000000000000000000000000000000000000000000000081526004016113e2906125d4565b60405180910390fd5b6113f760008383611761565b6001600360008473ffffffffffffffffffffffffffffffffffffffff1673ffffffffffffffffffffffffffffffffffffffff16815260200190815260200160002060008282546114479190612899565b92505081905550816002600083815260200190815260200160002060006101000a81548173ffffffffffffffffffffffffffffffffffffffff021916908373ffffffffffffffffffffffffffffffffffffffff160217905550808273ffffffffffffffffffffffffffffffffffffffff16600073ffffffffffffffffffffffffffffffffffffffff167fddf252ad1be2c89b69c2b068fc378daa952ba7f163c4a11628f55a4df523b3ef60405160405180910390a45050565b61150981611766565b600060066000838152602001908152602001600020805461152990612a0a565b9050146115505760066000828152602001908152602001600020600061154f9190611c8e565b5b50565b60606007805461156290612a0a565b80601f016020809104026020016040519081016040528092919081815260200182805461158e90612a0a565b80156115db5780601f106115b0576101008083540402835291602001916115db565b820191906000526020600020905b8154815290600101906020018083116115be57829003601f168201915b5050505050905090565b6115ef8383611332565b6115fc6000848484611877565b61163b576040517f08c379a0000000000000000000000000000000000000000000000000000000008152600401611632906125b4565b60405180910390fd5b505050565b61165a8282604051806020016040528060008152506115e5565b5050565b6116698484846110d6565b61167584848484611877565b6116b4576040517f08c379a00000000000000000000000000000000000000000000000000000000081526004016116ab906125b4565b60405180910390fd5b50505050565b60606116c582610e57565b611704576040517f08c379a00000000000000000000000000000000000000000000000000000000081526004016116fb90612754565b60405180910390fd5b600061170e611553565b9050600081511161172e5760405180602001604052806000815250611759565b8061173884611a0e565b6040516020016117499291906124ec565b6040516020818303038152906040525b915050919050565b505050565b6000611771826107fb565b905061177f81600084611761565b61178a600083610ecb565b6001600360008373ffffffffffffffffffffffffffffffffffffffff1673ffffffffffffffffffffffffffffffffffffffff16815260200190815260200160002060008282546117da9190612920565b925050819055506002600083815260200190815260200160002060006101000a81549073ffffffffffffffffffffffffffffffffffffffff021916905581600073ffffffffffffffffffffffffffffffffffffffff168273ffffffffffffffffffffffffffffffffffffffff167fddf252ad1be2c89b69c2b068fc378daa952ba7f163c4a11628f55a4df523b3ef60405160405180910390a45050565b60006118988473ffffffffffffffffffffffffffffffffffffffff16611b6f565b15611a01578373ffffffffffffffffffffffffffffffffffffffff1663150b7a026118c1610ec3565b8786866040518563ffffffff1660e01b81526004016118e3949392919061252b565b602060405180830381600087803b1580156118fd57600080fd5b505af192505050801561192e57506040513d601f19601f8201168201806040525081019061192b91906120e9565b60015b6119b1573d806000811461195e576040519150601f19603f3d011682016040523d82523d6000602084013e611963565b606091505b506000815114156119a9576040517f08c379a00000000000000000000000000000000000000000000000000000000081526004016119a0906125b4565b60405180910390fd5b805181602001fd5b63150b7a0260e01b7bffffffffffffffffffffffffffffffffffffffffffffffffffffffff1916817bffffffffffffffffffffffffffffffffffffffffffffffffffffffff191614915050611a06565b600190505b949350505050565b60606000821415611a56576040518060400160405280600181526020017f30000000000000000000000000000000000000000000000000000000000000008152509050611b6a565b600082905060005b60008214611a88578080611a7190612a6d565b915050600a82611a8191906128ef565b9150611a5e565b60008167ffffffffffffffff811115611aa457611aa3612ba3565b5b6040519080825280601f01601f191660200182016040528015611ad65781602001600182028036833780820191505090505b5090505b60008514611b6357600182611aef9190612920565b9150600a85611afe9190612ab6565b6030611b0a9190612899565b60f81b818381518110611b2057611b1f612b74565b5b60200101907effffffffffffffffffffffffffffffffffffffffffffffffffffffffffffff1916908160001a905350600a85611b5c91906128ef565b9450611ada565b8093505050505b919050565b600080823b905060008111915050919050565b828054611b8e90612a0a565b90600052602060002090601f016020900481019282611bb05760008555611bf7565b82601f10611bc957803560ff1916838001178555611bf7565b82800160010185558215611bf7579182015b82811115611bf6578235825591602001919060010190611bdb565b5b509050611c049190611cce565b5090565b828054611c1490612a0a565b90600052602060002090601f016020900481019282611c365760008555611c7d565b82601f10611c4f57805160ff1916838001178555611c7d565b82800160010185558215611c7d579182015b82811115611c7c578251825591602001919060010190611c61565b5b509050611c8a9190611cce565b5090565b508054611c9a90612a0a565b6000825580601f10611cac5750611ccb565b601f016020900490600052602060002090810190611cca9190611cce565b5b50565b5b80821115611ce7576000816000905550600101611ccf565b5090565b6000611cfe611cf9846127f4565b6127cf565b905082815260208101848484011115611d1a57611d19612be1565b5b611d258482856129c8565b509392505050565b6000611d40611d3b84612825565b6127cf565b905082815260208101848484011115611d5c57611d5b612be1565b5b611d678482856129c8565b509392505050565b600081359050611d7e8161307f565b92915050565b600081359050611d9381613096565b92915050565b600081359050611da8816130ad565b92915050565b600081519050611dbd816130ad565b92915050565b600082601f830112611dd857611dd7612bd7565b5b8135611de8848260208601611ceb565b91505092915050565b60008083601f840112611e0757611e06612bd7565b5b8235905067ffffffffffffffff811115611e2457611e23612bd2565b5b602083019150836001820283011115611e4057611e3f612bdc565b5b9250929050565b600082601f830112611e5c57611e5b612bd7565b5b8135611e6c848260208601611d2d565b91505092915050565b600081359050611e84816130c4565b92915050565b600060208284031215611ea057611e9f612beb565b5b6000611eae84828501611d6f565b91505092915050565b60008060408385031215611ece57611ecd612beb565b5b6000611edc85828601611d6f565b9250506020611eed85828601611d6f565b9150509250929050565b600080600060608486031215611f1057611f0f612beb565b5b6000611f1e86828701611d6f565b9350506020611f2f86828701611d6f565b9250506040611f4086828701611e75565b9150509250925092565b60008060008060808587031215611f6457611f63612beb565b5b6000611f7287828801611d6f565b9450506020611f8387828801611d6f565b9350506040611f9487828801611e75565b925050606085013567ffffffffffffffff811115611fb557611fb4612be6565b5b611fc187828801611dc3565b91505092959194509250565b60008060408385031215611fe457611fe3612beb565b5b6000611ff285828601611d6f565b925050602061200385828601611d84565b9150509250929050565b6000806040838503121561202457612023612beb565b5b600061203285828601611d6f565b925050602061204385828601611e75565b9150509250929050565b60008060006060848603121561206657612065612beb565b5b600061207486828701611d6f565b935050602061208586828701611e75565b925050604084013567ffffffffffffffff8111156120a6576120a5612be6565b5b6120b286828701611dc3565b9150509250925092565b6000602082840312156120d2576120d1612beb565b5b60006120e084828501611d99565b91505092915050565b6000602082840312156120ff576120fe612beb565b5b600061210d84828501611dae565b91505092915050565b6000806020838503121561212d5761212c612beb565b5b600083013567ffffffffffffffff81111561214b5761214a612be6565b5b61215785828601611df1565b92509250509250929050565b60006020828403121561217957612178612beb565b5b600061218784828501611e75565b91505092915050565b600080604083850312156121a7576121a6612beb565b5b60006121b585828601611e75565b925050602083013567ffffffffffffffff8111156121d6576121d5612be6565b5b6121e285828601611e47565b9150509250929050565b6121f581612954565b82525050565b61220481612966565b82525050565b600061221582612856565b61221f818561286c565b935061222f8185602086016129d7565b61223881612bf0565b840191505092915050565b600061224e82612861565b612258818561287d565b93506122688185602086016129d7565b61227181612bf0565b840191505092915050565b600061228782612861565b612291818561288e565b93506122a18185602086016129d7565b80840191505092915050565b60006122ba60328361287d565b91506122c582612c01565b604082019050919050565b60006122dd601c8361287d565b91506122e882612c50565b602082019050919050565b600061230060248361287d565b915061230b82612c79565b604082019050919050565b600061232360198361287d565b915061232e82612cc8565b602082019050919050565b6000612346602c8361287d565b915061235182612cf1565b604082019050919050565b600061236960388361287d565b915061237482612d40565b604082019050919050565b600061238c602a8361287d565b915061239782612d8f565b604082019050919050565b60006123af60298361287d565b91506123ba82612dde565b604082019050919050565b60006123d2602e8361287d565b91506123dd82612e2d565b604082019050919050565b60006123f560208361287d565b915061240082612e7c565b602082019050919050565b600061241860318361287d565b915061242382612ea5565b604082019050919050565b600061243b602c8361287d565b915061244682612ef4565b604082019050919050565b600061245e60298361287d565b915061246982612f43565b604082019050919050565b6000612481602f8361287d565b915061248c82612f92565b604082019050919050565b60006124a460218361287d565b91506124af82612fe1565b604082019050919050565b60006124c760318361287d565b91506124d282613030565b604082019050919050565b6124e6816129be565b82525050565b60006124f8828561227c565b9150612504828461227c565b91508190509392505050565b600060208201905061252560008301846121ec565b92915050565b600060808201905061254060008301876121ec565b61254d60208301866121ec565b61255a60408301856124dd565b818103606083015261256c818461220a565b905095945050505050565b600060208201905061258c60008301846121fb565b92915050565b600060208201905081810360008301526125ac8184612243565b905092915050565b600060208201905081810360008301526125cd816122ad565b9050919050565b600060208201905081810360008301526125ed816122d0565b9050919050565b6000602082019050818103600083015261260d816122f3565b9050919050565b6000602082019050818103600083015261262d81612316565b9050919050565b6000602082019050818103600083015261264d81612339565b9050919050565b6000602082019050818103600083015261266d8161235c565b9050919050565b6000602082019050818103600083015261268d8161237f565b9050919050565b600060208201905081810360008301526126ad816123a2565b9050919050565b600060208201905081810360008301526126cd816123c5565b9050919050565b600060208201905081810360008301526126ed816123e8565b9050919050565b6000602082019050818103600083015261270d8161240b565b9050919050565b6000602082019050818103600083015261272d8161242e565b9050919050565b6000602082019050818103600083015261274d81612451565b9050919050565b6000602082019050818103600083015261276d81612474565b9050919050565b6000602082019050818103600083015261278d81612497565b9050919050565b600060208201905081810360008301526127ad816124ba565b9050919050565b60006020820190506127c960008301846124dd565b92915050565b60006127d96127ea565b90506127e58282612a3c565b919050565b6000604051905090565b600067ffffffffffffffff82111561280f5761280e612ba3565b5b61281882612bf0565b9050602081019050919050565b600067ffffffffffffffff8211156128405761283f612ba3565b5b61284982612bf0565b9050602081019050919050565b600081519050919050565b600081519050919050565b600082825260208201905092915050565b600082825260208201905092915050565b600081905092915050565b60006128a4826129be565b91506128af836129be565b9250827fffffffffffffffffffffffffffffffffffffffffffffffffffffffffffffffff038211156128e4576128e3612ae7565b5b828201905092915050565b60006128fa826129be565b9150612905836129be565b92508261291557612914612b16565b5b828204905092915050565b600061292b826129be565b9150612936836129be565b92508282101561294957612948612ae7565b5b828203905092915050565b600061295f8261299e565b9050919050565b60008115159050919050565b60007fffffffff0000000000000000000000000000000000000000000000000000000082169050919050565b600073ffffffffffffffffffffffffffffffffffffffff82169050919050565b6000819050919050565b82818337600083830152505050565b60005b838110156129f55780820151818401526020810190506129da565b83811115612a04576000848401525b50505050565b60006002820490506001821680612a2257607f821691505b60208210811415612a3657612a35612b45565b5b50919050565b612a4582612bf0565b810181811067ffffffffffffffff82111715612a6457612a63612ba3565b5b80604052505050565b6000612a78826129be565b91507fffffffffffffffffffffffffffffffffffffffffffffffffffffffffffffffff821415612aab57612aaa612ae7565b5b600182019050919050565b6000612ac1826129be565b9150612acc836129be565b925082612adc57612adb612b16565b5b828206905092915050565b7f4e487b7100000000000000000000000000000000000000000000000000000000600052601160045260246000fd5b7f4e487b7100000000000000000000000000000000000000000000000000000000600052601260045260246000fd5b7f4e487b7100000000000000000000000000000000000000000000000000000000600052602260045260246000fd5b7f4e487b7100000000000000000000000000000000000000000000000000000000600052603260045260246000fd5b7f4e487b7100000000000000000000000000000000000000000000000000000000600052604160045260246000fd5b600080fd5b600080fd5b600080fd5b600080fd5b600080fd5b600080fd5b6000601f19601f8301169050919050565b7f4552433732313a207472616e7366657220746f206e6f6e20455243373231526560008201527f63656976657220696d706c656d656e7465720000000000000000000000000000602082015250565b7f4552433732313a20746f6b656e20616c7265616479206d696e74656400000000600082015250565b7f4552433732313a207472616e7366657220746f20746865207a65726f2061646460008201527f7265737300000000000000000000000000000000000000000000000000000000602082015250565b7f4552433732313a20617070726f766520746f2063616c6c657200000000000000600082015250565b7f4552433732313a206f70657261746f7220717565727920666f72206e6f6e657860008201527f697374656e7420746f6b656e0000000000000000000000000000000000000000602082015250565b7f4552433732313a20617070726f76652063616c6c6572206973206e6f74206f7760008201527f6e6572206e6f7220617070726f76656420666f7220616c6c0000000000000000602082015250565b7f4552433732313a2062616c616e636520717565727920666f7220746865207a6560008201527f726f206164647265737300000000000000000000000000000000000000000000602082015250565b7f4552433732313a206f776e657220717565727920666f72206e6f6e657869737460008201527f656e7420746f6b656e0000000000000000000000000000000000000000000000602082015250565b7f45524337323155524953746f726167653a2055524920736574206f66206e6f6e60008201527f6578697374656e7420746f6b656e000000000000000000000000000000000000602082015250565b7f4552433732313a206d696e7420746f20746865207a65726f2061646472657373600082015250565b7f45524337323155524953746f726167653a2055524920717565727920666f722060008201527f6e6f6e6578697374656e7420746f6b656e000000000000000000000000000000602082015250565b7f4552433732313a20617070726f76656420717565727920666f72206e6f6e657860008201527f697374656e7420746f6b656e0000000000000000000000000000000000000000602082015250565b7f4552433732313a207472616e73666572206f6620746f6b656e2074686174206960008201527f73206e6f74206f776e0000000000000000000000000000000000000000000000602082015250565b7f4552433732314d657461646174613a2055524920717565727920666f72206e6f60008201527f6e6578697374656e7420746f6b656e0000000000000000000000000000000000602082015250565b7f4552433732313a20617070726f76616c20746f2063757272656e74206f776e6560008201527f7200000000000000000000000000000000000000000000000000000000000000602082015250565b7f4552433732313a207472616e736665722063616c6c6572206973206e6f74206f60008201527f776e6572206e6f7220617070726f766564000000000000000000000000000000602082015250565b61308881612954565b811461309357600080fd5b50565b61309f81612966565b81146130aa57600080fd5b50565b6130b681612972565b81146130c157600080fd5b50565b6130cd816129be565b81146130d857600080fd5b5056fea26469706673582212207ae71db09b9c9ba0449f16c36de1dd06407f18ce82e4f8c46ca9cbaa95c52dcb64736f6c63430008070033",
  "immutableReferences": {},
  "source": "// SPDX-License-Identifier: MIT\n\npragma solidity ^0.8.0;\n\nimport \"../token/ERC721/extensions/ERC721URIStorage.sol\";\n\n/**\n * @title ERC721Mock\n * This mock just provides a public safeMint, mint, and burn functions for testing purposes\n */\ncontract ERC721URIStorageMock is ERC721URIStorage {\n    string private _baseTokenURI;\n\n    constructor(string memory name, string memory symbol) ERC721(name, symbol) {}\n\n    function _baseURI() internal view virtual override returns (string memory) {\n        return _baseTokenURI;\n    }\n\n    function setBaseURI(string calldata newBaseTokenURI) public {\n        _baseTokenURI = newBaseTokenURI;\n    }\n\n    function baseURI() public view returns (string memory) {\n        return _baseURI();\n    }\n\n    function setTokenURI(uint256 tokenId, string memory _tokenURI) public {\n        _setTokenURI(tokenId, _tokenURI);\n    }\n\n    function exists(uint256 tokenId) public view returns (bool) {\n        return _exists(tokenId);\n    }\n\n    function mint(address to, uint256 tokenId) public {\n        _mint(to, tokenId);\n    }\n\n    function safeMint(address to, uint256 tokenId) public {\n        _safeMint(to, tokenId);\n    }\n\n    function safeMint(\n        address to,\n        uint256 tokenId,\n        bytes memory _data\n    ) public {\n        _safeMint(to, tokenId, _data);\n    }\n\n    function burn(uint256 tokenId) public {\n        _burn(tokenId);\n    }\n}\n",
  "sourcePath": "/home/tenten/Projects/upcgold.io/src/contracts/openzeppelin-contracts/contracts/mocks/ERC721URIStorageMock.sol",
  "compiler": {
    "name": "solc",
    "version": "0.8.7+commit.e28d00a7.Emscripten.clang"
  },
  "schemaVersion": "3.2.3",
  "updatedAt": "2021-08-12T03:39:31.282Z",
  "devdoc": {
    "kind": "dev",
    "methods": {
      "approve(address,uint256)": {
        "details": "See {IERC721-approve}."
      },
      "balanceOf(address)": {
        "details": "See {IERC721-balanceOf}."
      },
      "getApproved(uint256)": {
        "details": "See {IERC721-getApproved}."
      },
      "isApprovedForAll(address,address)": {
        "details": "See {IERC721-isApprovedForAll}."
      },
      "name()": {
        "details": "See {IERC721Metadata-name}."
      },
      "ownerOf(uint256)": {
        "details": "See {IERC721-ownerOf}."
      },
      "safeTransferFrom(address,address,uint256)": {
        "details": "See {IERC721-safeTransferFrom}."
      },
      "safeTransferFrom(address,address,uint256,bytes)": {
        "details": "See {IERC721-safeTransferFrom}."
      },
      "setApprovalForAll(address,bool)": {
        "details": "See {IERC721-setApprovalForAll}."
      },
      "supportsInterface(bytes4)": {
        "details": "See {IERC165-supportsInterface}."
      },
      "symbol()": {
        "details": "See {IERC721Metadata-symbol}."
      },
      "tokenURI(uint256)": {
        "details": "See {IERC721Metadata-tokenURI}."
      },
      "transferFrom(address,address,uint256)": {
        "details": "See {IERC721-transferFrom}."
      }
    },
    "title": "ERC721Mock This mock just provides a public safeMint, mint, and burn functions for testing purposes",
    "version": 1
  },
  "userdoc": {
    "kind": "user",
    "methods": {},
    "version": 1
  }
}