{
  "contractName": "ERC777Mock",
  "abi": [
    {
      "inputs": [
        {
          "internalType": "address",
          "name": "initialHolder",
          "type": "address"
        },
        {
          "internalType": "uint256",
          "name": "initialBalance",
          "type": "uint256"
        },
        {
          "internalType": "string",
          "name": "name",
          "type": "string"
        },
        {
          "internalType": "string",
          "name": "symbol",
          "type": "string"
        },
        {
          "internalType": "address[]",
          "name": "defaultOperators",
          "type": "address[]"
        }
      ],
      "stateMutability": "nonpayable",
      "type": "constructor"
    },
    {
      "anonymous": false,
      "inputs": [
        {
          "indexed": true,
          "internalType": "address",
          "name": "owner",
          "type": "address"
        },
        {
          "indexed": true,
          "internalType": "address",
          "name": "spender",
          "type": "address"
        },
        {
          "indexed": false,
          "internalType": "uint256",
          "name": "value",
          "type": "uint256"
        }
      ],
      "name": "Approval",
      "type": "event"
    },
    {
      "anonymous": false,
      "inputs": [
        {
          "indexed": true,
          "internalType": "address",
          "name": "operator",
          "type": "address"
        },
        {
          "indexed": true,
          "internalType": "address",
          "name": "tokenHolder",
          "type": "address"
        }
      ],
      "name": "AuthorizedOperator",
      "type": "event"
    },
    {
      "anonymous": false,
      "inputs": [],
      "name": "BeforeTokenTransfer",
      "type": "event"
    },
    {
      "anonymous": false,
      "inputs": [
        {
          "indexed": true,
          "internalType": "address",
          "name": "operator",
          "type": "address"
        },
        {
          "indexed": true,
          "internalType": "address",
          "name": "from",
          "type": "address"
        },
        {
          "indexed": false,
          "internalType": "uint256",
          "name": "amount",
          "type": "uint256"
        },
        {
          "indexed": false,
          "internalType": "bytes",
          "name": "data",
          "type": "bytes"
        },
        {
          "indexed": false,
          "internalType": "bytes",
          "name": "operatorData",
          "type": "bytes"
        }
      ],
      "name": "Burned",
      "type": "event"
    },
    {
      "anonymous": false,
      "inputs": [
        {
          "indexed": true,
          "internalType": "address",
          "name": "operator",
          "type": "address"
        },
        {
          "indexed": true,
          "internalType": "address",
          "name": "to",
          "type": "address"
        },
        {
          "indexed": false,
          "internalType": "uint256",
          "name": "amount",
          "type": "uint256"
        },
        {
          "indexed": false,
          "internalType": "bytes",
          "name": "data",
          "type": "bytes"
        },
        {
          "indexed": false,
          "internalType": "bytes",
          "name": "operatorData",
          "type": "bytes"
        }
      ],
      "name": "Minted",
      "type": "event"
    },
    {
      "anonymous": false,
      "inputs": [
        {
          "indexed": true,
          "internalType": "address",
          "name": "operator",
          "type": "address"
        },
        {
          "indexed": true,
          "internalType": "address",
          "name": "tokenHolder",
          "type": "address"
        }
      ],
      "name": "RevokedOperator",
      "type": "event"
    },
    {
      "anonymous": false,
      "inputs": [
        {
          "indexed": true,
          "internalType": "address",
          "name": "operator",
          "type": "address"
        },
        {
          "indexed": true,
          "internalType": "address",
          "name": "from",
          "type": "address"
        },
        {
          "indexed": true,
          "internalType": "address",
          "name": "to",
          "type": "address"
        },
        {
          "indexed": false,
          "internalType": "uint256",
          "name": "amount",
          "type": "uint256"
        },
        {
          "indexed": false,
          "internalType": "bytes",
          "name": "data",
          "type": "bytes"
        },
        {
          "indexed": false,
          "internalType": "bytes",
          "name": "operatorData",
          "type": "bytes"
        }
      ],
      "name": "Sent",
      "type": "event"
    },
    {
      "anonymous": false,
      "inputs": [
        {
          "indexed": true,
          "internalType": "address",
          "name": "from",
          "type": "address"
        },
        {
          "indexed": true,
          "internalType": "address",
          "name": "to",
          "type": "address"
        },
        {
          "indexed": false,
          "internalType": "uint256",
          "name": "value",
          "type": "uint256"
        }
      ],
      "name": "Transfer",
      "type": "event"
    },
    {
      "inputs": [
        {
          "internalType": "address",
          "name": "holder",
          "type": "address"
        },
        {
          "internalType": "address",
          "name": "spender",
          "type": "address"
        }
      ],
      "name": "allowance",
      "outputs": [
        {
          "internalType": "uint256",
          "name": "",
          "type": "uint256"
        }
      ],
      "stateMutability": "view",
      "type": "function"
    },
    {
      "inputs": [
        {
          "internalType": "address",
          "name": "spender",
          "type": "address"
        },
        {
          "internalType": "uint256",
          "name": "value",
          "type": "uint256"
        }
      ],
      "name": "approve",
      "outputs": [
        {
          "internalType": "bool",
          "name": "",
          "type": "bool"
        }
      ],
      "stateMutability": "nonpayable",
      "type": "function"
    },
    {
      "inputs": [
        {
          "internalType": "address",
          "name": "operator",
          "type": "address"
        }
      ],
      "name": "authorizeOperator",
      "outputs": [],
      "stateMutability": "nonpayable",
      "type": "function"
    },
    {
      "inputs": [
        {
          "internalType": "address",
          "name": "tokenHolder",
          "type": "address"
        }
      ],
      "name": "balanceOf",
      "outputs": [
        {
          "internalType": "uint256",
          "name": "",
          "type": "uint256"
        }
      ],
      "stateMutability": "view",
      "type": "function"
    },
    {
      "inputs": [
        {
          "internalType": "uint256",
          "name": "amount",
          "type": "uint256"
        },
        {
          "internalType": "bytes",
          "name": "data",
          "type": "bytes"
        }
      ],
      "name": "burn",
      "outputs": [],
      "stateMutability": "nonpayable",
      "type": "function"
    },
    {
      "inputs": [],
      "name": "decimals",
      "outputs": [
        {
          "internalType": "uint8",
          "name": "",
          "type": "uint8"
        }
      ],
      "stateMutability": "pure",
      "type": "function"
    },
    {
      "inputs": [],
      "name": "defaultOperators",
      "outputs": [
        {
          "internalType": "address[]",
          "name": "",
          "type": "address[]"
        }
      ],
      "stateMutability": "view",
      "type": "function"
    },
    {
      "inputs": [],
      "name": "granularity",
      "outputs": [
        {
          "internalType": "uint256",
          "name": "",
          "type": "uint256"
        }
      ],
      "stateMutability": "view",
      "type": "function"
    },
    {
      "inputs": [
        {
          "internalType": "address",
          "name": "operator",
          "type": "address"
        },
        {
          "internalType": "address",
          "name": "tokenHolder",
          "type": "address"
        }
      ],
      "name": "isOperatorFor",
      "outputs": [
        {
          "internalType": "bool",
          "name": "",
          "type": "bool"
        }
      ],
      "stateMutability": "view",
      "type": "function"
    },
    {
      "inputs": [],
      "name": "name",
      "outputs": [
        {
          "internalType": "string",
          "name": "",
          "type": "string"
        }
      ],
      "stateMutability": "view",
      "type": "function"
    },
    {
      "inputs": [
        {
          "internalType": "address",
          "name": "account",
          "type": "address"
        },
        {
          "internalType": "uint256",
          "name": "amount",
          "type": "uint256"
        },
        {
          "internalType": "bytes",
          "name": "data",
          "type": "bytes"
        },
        {
          "internalType": "bytes",
          "name": "operatorData",
          "type": "bytes"
        }
      ],
      "name": "operatorBurn",
      "outputs": [],
      "stateMutability": "nonpayable",
      "type": "function"
    },
    {
      "inputs": [
        {
          "internalType": "address",
          "name": "sender",
          "type": "address"
        },
        {
          "internalType": "address",
          "name": "recipient",
          "type": "address"
        },
        {
          "internalType": "uint256",
          "name": "amount",
          "type": "uint256"
        },
        {
          "internalType": "bytes",
          "name": "data",
          "type": "bytes"
        },
        {
          "internalType": "bytes",
          "name": "operatorData",
          "type": "bytes"
        }
      ],
      "name": "operatorSend",
      "outputs": [],
      "stateMutability": "nonpayable",
      "type": "function"
    },
    {
      "inputs": [
        {
          "internalType": "address",
          "name": "operator",
          "type": "address"
        }
      ],
      "name": "revokeOperator",
      "outputs": [],
      "stateMutability": "nonpayable",
      "type": "function"
    },
    {
      "inputs": [
        {
          "internalType": "address",
          "name": "recipient",
          "type": "address"
        },
        {
          "internalType": "uint256",
          "name": "amount",
          "type": "uint256"
        },
        {
          "internalType": "bytes",
          "name": "data",
          "type": "bytes"
        }
      ],
      "name": "send",
      "outputs": [],
      "stateMutability": "nonpayable",
      "type": "function"
    },
    {
      "inputs": [],
      "name": "symbol",
      "outputs": [
        {
          "internalType": "string",
          "name": "",
          "type": "string"
        }
      ],
      "stateMutability": "view",
      "type": "function"
    },
    {
      "inputs": [],
      "name": "totalSupply",
      "outputs": [
        {
          "internalType": "uint256",
          "name": "",
          "type": "uint256"
        }
      ],
      "stateMutability": "view",
      "type": "function"
    },
    {
      "inputs": [
        {
          "internalType": "address",
          "name": "recipient",
          "type": "address"
        },
        {
          "internalType": "uint256",
          "name": "amount",
          "type": "uint256"
        }
      ],
      "name": "transfer",
      "outputs": [
        {
          "internalType": "bool",
          "name": "",
          "type": "bool"
        }
      ],
      "stateMutability": "nonpayable",
      "type": "function"
    },
    {
      "inputs": [
        {
          "internalType": "address",
          "name": "holder",
          "type": "address"
        },
        {
          "internalType": "address",
          "name": "recipient",
          "type": "address"
        },
        {
          "internalType": "uint256",
          "name": "amount",
          "type": "uint256"
        }
      ],
      "name": "transferFrom",
      "outputs": [
        {
          "internalType": "bool",
          "name": "",
          "type": "bool"
        }
      ],
      "stateMutability": "nonpayable",
      "type": "function"
    },
    {
      "inputs": [
        {
          "internalType": "address",
          "name": "to",
          "type": "address"
        },
        {
          "internalType": "uint256",
          "name": "amount",
          "type": "uint256"
        },
        {
          "internalType": "bytes",
          "name": "userData",
          "type": "bytes"
        },
        {
          "internalType": "bytes",
          "name": "operatorData",
          "type": "bytes"
        }
      ],
      "name": "mintInternal",
      "outputs": [],
      "stateMutability": "nonpayable",
      "type": "function"
    },
    {
      "inputs": [
        {
          "internalType": "address",
          "name": "to",
          "type": "address"
        },
        {
          "internalType": "uint256",
          "name": "amount",
          "type": "uint256"
        },
        {
          "internalType": "bytes",
          "name": "userData",
          "type": "bytes"
        },
        {
          "internalType": "bytes",
          "name": "operatorData",
          "type": "bytes"
        },
        {
          "internalType": "bool",
          "name": "requireReceptionAck",
          "type": "bool"
        }
      ],
      "name": "mintInternalExtended",
      "outputs": [],
      "stateMutability": "nonpayable",
      "type": "function"
    },
    {
      "inputs": [
        {
          "internalType": "address",
          "name": "holder",
          "type": "address"
        },
        {
          "internalType": "address",
          "name": "spender",
          "type": "address"
        },
        {
          "internalType": "uint256",
          "name": "value",
          "type": "uint256"
        }
      ],
      "name": "approveInternal",
      "outputs": [],
      "stateMutability": "nonpayable",
      "type": "function"
    }
  ],
  "bytecode": "0x60806040523480156200001157600080fd5b5060405162004371380380620043718339818101604052810190620000379190620009df565b82828282600290805190602001906200005292919062000714565b5081600390805190602001906200006b92919062000714565b50806004908051906020019062000084929190620007a5565b5060005b81518110156200011d57600160056000848481518110620000ae57620000ad62000fc5565b5b602002602001015173ffffffffffffffffffffffffffffffffffffffff1673ffffffffffffffffffffffffffffffffffffffff16815260200190815260200160002060006101000a81548160ff0219169083151502179055508080620001149062000f19565b91505062000088565b50731820a4b7618bde71dce8cdc73aab6c95905fad2473ffffffffffffffffffffffffffffffffffffffff166329965a1d307fac7fbab5f54a3ca8194167523c6753bfeb96a445279294b6125b68cce2177054306040518463ffffffff1660e01b8152600401620001919392919062000c2e565b600060405180830381600087803b158015620001ac57600080fd5b505af1158015620001c1573d6000803e3d6000fd5b50505050731820a4b7618bde71dce8cdc73aab6c95905fad2473ffffffffffffffffffffffffffffffffffffffff166329965a1d307faea199e31a596269b42cdafd93407f14436db6e4cad65417994c2eb37381e05a306040518463ffffffff1660e01b8152600401620002389392919062000c2e565b600060405180830381600087803b1580156200025357600080fd5b505af115801562000268573d6000803e3d6000fd5b50505050505050620002a185856040518060200160405280600081525060405180602001604052806000815250620002ac60201b60201c565b50505050506200111f565b620002c2848484846001620002c860201b60201c565b50505050565b600073ffffffffffffffffffffffffffffffffffffffff168573ffffffffffffffffffffffffffffffffffffffff1614156200033b576040517f08c379a0000000000000000000000000000000000000000000000000000000008152600401620003329062000c6b565b60405180910390fd5b60006200034d620004c960201b60201c565b9050620003648160008888620004d160201b60201c565b846001600082825462000378919062000dd2565b92505081905550846000808873ffffffffffffffffffffffffffffffffffffffff1673ffffffffffffffffffffffffffffffffffffffff1681526020019081526020016000206000828254620003cf919062000dd2565b92505081905550620003ee81600088888888886200050360201b60201c565b8573ffffffffffffffffffffffffffffffffffffffff168173ffffffffffffffffffffffffffffffffffffffff167f2fe5be0146f74c5bce36c0b80911af6c7d86ff27e89d5cfa61fc681327954e5d878787604051620004519392919062000ccc565b60405180910390a38573ffffffffffffffffffffffffffffffffffffffff16600073ffffffffffffffffffffffffffffffffffffffff167fddf252ad1be2c89b69c2b068fc378daa952ba7f163c4a11628f55a4df523b3ef87604051620004b9919062000caf565b60405180910390a3505050505050565b600033905090565b7f52316ab8e8b0687ce803e403dfe429541bccd4f6c4683ec65d254d382f15a26560405160405180910390a150505050565b6000731820a4b7618bde71dce8cdc73aab6c95905fad2473ffffffffffffffffffffffffffffffffffffffff1663aabbb8ca877fb281fc8c12954d22544db45de3159a39272895b169a852b314f9cc762e44c53b6040518363ffffffff1660e01b81526004016200057692919062000c01565b60206040518083038186803b1580156200058f57600080fd5b505afa158015620005a4573d6000803e3d6000fd5b505050506040513d601f19601f82011682018060405250810190620005ca9190620009ad565b9050600073ffffffffffffffffffffffffffffffffffffffff168173ffffffffffffffffffffffffffffffffffffffff16146200067f578073ffffffffffffffffffffffffffffffffffffffff166223de298989898989896040518763ffffffff1660e01b8152600401620006459695949392919062000b86565b600060405180830381600087803b1580156200066057600080fd5b505af115801562000675573d6000803e3d6000fd5b50505050620006f7565b8115620006f657620006b28673ffffffffffffffffffffffffffffffffffffffff166200070160201b620011f51760201c565b15620006f5576040517f08c379a0000000000000000000000000000000000000000000000000000000008152600401620006ec9062000c8d565b60405180910390fd5b5b5b5050505050505050565b600080823b905060008111915050919050565b828054620007229062000ead565b90600052602060002090601f01602090048101928262000746576000855562000792565b82601f106200076157805160ff191683800117855562000792565b8280016001018555821562000792579182015b828111156200079157825182559160200191906001019062000774565b5b509050620007a1919062000834565b5090565b82805482825590600052602060002090810192821562000821579160200282015b82811115620008205782518260006101000a81548173ffffffffffffffffffffffffffffffffffffffff021916908373ffffffffffffffffffffffffffffffffffffffff16021790555091602001919060010190620007c6565b5b50905062000830919062000834565b5090565b5b808211156200084f57600081600090555060010162000835565b5090565b60006200086a620008648462000d40565b62000d17565b9050808382526020820190508285602086028201111562000890576200088f62001028565b5b60005b85811015620008c45781620008a9888262000919565b84526020840193506020830192505060018101905062000893565b5050509392505050565b6000620008e5620008df8462000d6f565b62000d17565b9050828152602081018484840111156200090457620009036200102d565b5b6200091184828562000e77565b509392505050565b6000815190506200092a81620010eb565b92915050565b600082601f83011262000948576200094762001023565b5b81516200095a84826020860162000853565b91505092915050565b600082601f8301126200097b576200097a62001023565b5b81516200098d848260208601620008ce565b91505092915050565b600081519050620009a78162001105565b92915050565b600060208284031215620009c657620009c562001037565b5b6000620009d68482850162000919565b91505092915050565b600080600080600060a08688031215620009fe57620009fd62001037565b5b600062000a0e8882890162000919565b955050602062000a218882890162000996565b945050604086015167ffffffffffffffff81111562000a455762000a4462001032565b5b62000a538882890162000963565b935050606086015167ffffffffffffffff81111562000a775762000a7662001032565b5b62000a858882890162000963565b925050608086015167ffffffffffffffff81111562000aa95762000aa862001032565b5b62000ab78882890162000930565b9150509295509295909350565b62000acf8162000e2f565b82525050565b62000ae08162000e43565b82525050565b600062000af38262000da5565b62000aff818562000db0565b935062000b1181856020860162000e77565b62000b1c816200103c565b840191505092915050565b600062000b3660208362000dc1565b915062000b43826200104d565b602082019050919050565b600062000b5d604d8362000dc1565b915062000b6a8262001076565b606082019050919050565b62000b808162000e6d565b82525050565b600060c08201905062000b9d600083018962000ac4565b62000bac602083018862000ac4565b62000bbb604083018762000ac4565b62000bca606083018662000b75565b818103608083015262000bde818562000ae6565b905081810360a083015262000bf4818462000ae6565b9050979650505050505050565b600060408201905062000c18600083018562000ac4565b62000c27602083018462000ad5565b9392505050565b600060608201905062000c45600083018662000ac4565b62000c54602083018562000ad5565b62000c63604083018462000ac4565b949350505050565b6000602082019050818103600083015262000c868162000b27565b9050919050565b6000602082019050818103600083015262000ca88162000b4e565b9050919050565b600060208201905062000cc6600083018462000b75565b92915050565b600060608201905062000ce3600083018662000b75565b818103602083015262000cf7818562000ae6565b9050818103604083015262000d0d818462000ae6565b9050949350505050565b600062000d2362000d36565b905062000d31828262000ee3565b919050565b6000604051905090565b600067ffffffffffffffff82111562000d5e5762000d5d62000ff4565b5b602082029050602081019050919050565b600067ffffffffffffffff82111562000d8d5762000d8c62000ff4565b5b62000d98826200103c565b9050602081019050919050565b600081519050919050565b600082825260208201905092915050565b600082825260208201905092915050565b600062000ddf8262000e6d565b915062000dec8362000e6d565b9250827fffffffffffffffffffffffffffffffffffffffffffffffffffffffffffffffff0382111562000e245762000e2362000f67565b5b828201905092915050565b600062000e3c8262000e4d565b9050919050565b6000819050919050565b600073ffffffffffffffffffffffffffffffffffffffff82169050919050565b6000819050919050565b60005b8381101562000e9757808201518184015260208101905062000e7a565b8381111562000ea7576000848401525b50505050565b6000600282049050600182168062000ec657607f821691505b6020821081141562000edd5762000edc62000f96565b5b50919050565b62000eee826200103c565b810181811067ffffffffffffffff8211171562000f105762000f0f62000ff4565b5b80604052505050565b600062000f268262000e6d565b91507fffffffffffffffffffffffffffffffffffffffffffffffffffffffffffffffff82141562000f5c5762000f5b62000f67565b5b600182019050919050565b7f4e487b7100000000000000000000000000000000000000000000000000000000600052601160045260246000fd5b7f4e487b7100000000000000000000000000000000000000000000000000000000600052602260045260246000fd5b7f4e487b7100000000000000000000000000000000000000000000000000000000600052603260045260246000fd5b7f4e487b7100000000000000000000000000000000000000000000000000000000600052604160045260246000fd5b600080fd5b600080fd5b600080fd5b600080fd5b600080fd5b6000601f19601f8301169050919050565b7f4552433737373a206d696e7420746f20746865207a65726f2061646472657373600082015250565b7f4552433737373a20746f6b656e20726563697069656e7420636f6e747261637460008201527f20686173206e6f20696d706c656d656e74657220666f7220455243373737546f60208201527f6b656e73526563697069656e7400000000000000000000000000000000000000604082015250565b620010f68162000e2f565b81146200110257600080fd5b50565b620011108162000e6d565b81146200111c57600080fd5b50565b613242806200112f6000396000f3fe608060405234801561001057600080fd5b50600436106101375760003560e01c8063959b8c3f116100b8578063cfbfab0b1161007c578063cfbfab0b1461033c578063d95b637114610358578063dd62ed3e14610388578063fad8b32a146103b8578063fc673c4f146103d4578063fe9d9303146103f057610137565b8063959b8c3f1461029a57806395d89b41146102b65780639bd9bbc6146102d4578063a9059cbb146102f0578063b1f0b5be1461032057610137565b8063313ce567116100ff578063313ce567146101f6578063556f0dc71461021457806356189cb41461023257806362ad1b831461024e57806370a082311461026a57610137565b806306e485381461013c57806306fdde031461015a578063095ea7b31461017857806318160ddd146101a857806323b872dd146101c6575b600080fd5b61014461040c565b604051610151919061278b565b60405180910390f35b61016261049a565b60405161016f91906127c8565b60405180910390f35b610192600480360381019061018d9190612147565b61052c565b60405161019f91906127ad565b60405180910390f35b6101b061054f565b6040516101bd91906129ca565b60405180910390f35b6101e060048036038101906101db9190612041565b610559565b6040516101ed91906127ad565b60405180910390f35b6101fe6107b3565b60405161020b9190612a2a565b60405180910390f35b61021c6107bc565b60405161022991906129ca565b60405180910390f35b61024c60048036038101906102479190612041565b6107c5565b005b61026860048036038101906102639190612094565b6107d5565b005b610284600480360381019061027f9190611fa7565b61083b565b60405161029191906129ca565b60405180910390f35b6102b460048036038101906102af9190611fa7565b610883565b005b6102be610ae4565b6040516102cb91906127c8565b60405180910390f35b6102ee60048036038101906102e99190612187565b610b76565b005b61030a60048036038101906103059190612147565b610ba0565b60405161031791906127ad565b60405180910390f35b61033a600480360381019061033591906121f6565b610cae565b005b61035660048036038101906103519190612295565b610cc0565b005b610372600480360381019061036d9190612001565b610cd4565b60405161037f91906127ad565b60405180910390f35b6103a2600480360381019061039d9190612001565b610e85565b6040516103af91906129ca565b60405180910390f35b6103d260048036038101906103cd9190611fa7565b610f0c565b005b6103ee60048036038101906103e991906121f6565b61116d565b005b61040a60048036038101906104059190612348565b6111cf565b005b6060600480548060200260200160405190810160405280929190818152602001828054801561049057602002820191906000526020600020905b8160009054906101000a900473ffffffffffffffffffffffffffffffffffffffff1673ffffffffffffffffffffffffffffffffffffffff1681526020019060010190808311610446575b5050505050905090565b6060600280546104a990612c37565b80601f01602080910402602001604051908101604052809291908181526020018280546104d590612c37565b80156105225780601f106104f757610100808354040283529160200191610522565b820191906000526020600020905b81548152906001019060200180831161050557829003601f168201915b5050505050905090565b600080610537611208565b9050610544818585611210565b600191505092915050565b6000600154905090565b60008073ffffffffffffffffffffffffffffffffffffffff168373ffffffffffffffffffffffffffffffffffffffff1614156105ca576040517f08c379a00000000000000000000000000000000000000000000000000000000081526004016105c1906128ea565b60405180910390fd5b600073ffffffffffffffffffffffffffffffffffffffff168473ffffffffffffffffffffffffffffffffffffffff16141561063a576040517f08c379a00000000000000000000000000000000000000000000000000000000081526004016106319061294a565b60405180910390fd5b6000610644611208565b90506106728186868660405180602001604052806000815250604051806020016040528060008152506113db565b61069e818686866040518060200160405280600081525060405180602001604052806000815250611551565b6000600860008773ffffffffffffffffffffffffffffffffffffffff1673ffffffffffffffffffffffffffffffffffffffff16815260200190815260200160002060008373ffffffffffffffffffffffffffffffffffffffff1673ffffffffffffffffffffffffffffffffffffffff16815260200190815260200160002054905083811015610762576040517f08c379a00000000000000000000000000000000000000000000000000000000081526004016107599061292a565b60405180910390fd5b610778868386846107739190612b62565b611210565b6107a6828787876040518060200160405280600081525060405180602001604052806000815250600061176b565b6001925050509392505050565b60006012905090565b60006001905090565b6107d0838383611210565b505050565b6107e66107e0611208565b86610cd4565b610825576040517f08c379a000000000000000000000000000000000000000000000000000000000815260040161081c9061290a565b60405180910390fd5b6108348585858585600161194c565b5050505050565b60008060008373ffffffffffffffffffffffffffffffffffffffff1673ffffffffffffffffffffffffffffffffffffffff168152602001908152602001600020549050919050565b8073ffffffffffffffffffffffffffffffffffffffff166108a2611208565b73ffffffffffffffffffffffffffffffffffffffff1614156108f9576040517f08c379a00000000000000000000000000000000000000000000000000000000081526004016108f09061286a565b60405180910390fd5b600560008273ffffffffffffffffffffffffffffffffffffffff1673ffffffffffffffffffffffffffffffffffffffff16815260200190815260200160002060009054906101000a900460ff16156109e35760076000610957611208565b73ffffffffffffffffffffffffffffffffffffffff1673ffffffffffffffffffffffffffffffffffffffff16815260200190815260200160002060008273ffffffffffffffffffffffffffffffffffffffff1673ffffffffffffffffffffffffffffffffffffffff16815260200190815260200160002060006101000a81549060ff0219169055610a80565b6001600660006109f1611208565b73ffffffffffffffffffffffffffffffffffffffff1673ffffffffffffffffffffffffffffffffffffffff16815260200190815260200160002060008373ffffffffffffffffffffffffffffffffffffffff1673ffffffffffffffffffffffffffffffffffffffff16815260200190815260200160002060006101000a81548160ff0219169083151502179055505b610a88611208565b73ffffffffffffffffffffffffffffffffffffffff168173ffffffffffffffffffffffffffffffffffffffff167ff4caeb2d6ca8932a215a353d0703c326ec2d81fc68170f320eb2ab49e9df61f960405160405180910390a350565b606060038054610af390612c37565b80601f0160208091040260200160405190810160405280929190818152602001828054610b1f90612c37565b8015610b6c5780601f10610b4157610100808354040283529160200191610b6c565b820191906000526020600020905b815481529060010190602001808311610b4f57829003601f168201915b5050505050905090565b610b9b610b81611208565b84848460405180602001604052806000815250600161194c565b505050565b60008073ffffffffffffffffffffffffffffffffffffffff168373ffffffffffffffffffffffffffffffffffffffff161415610c11576040517f08c379a0000000000000000000000000000000000000000000000000000000008152600401610c08906128ea565b60405180910390fd5b6000610c1b611208565b9050610c498182868660405180602001604052806000815250604051806020016040528060008152506113db565b610c75818286866040518060200160405280600081525060405180602001604052806000815250611551565b610ca3818286866040518060200160405280600081525060405180602001604052806000815250600061176b565b600191505092915050565b610cba84848484611a6c565b50505050565b610ccd8585858585611a80565b5050505050565b60008173ffffffffffffffffffffffffffffffffffffffff168373ffffffffffffffffffffffffffffffffffffffff161480610dec5750600560008473ffffffffffffffffffffffffffffffffffffffff1673ffffffffffffffffffffffffffffffffffffffff16815260200190815260200160002060009054906101000a900460ff168015610deb5750600760008373ffffffffffffffffffffffffffffffffffffffff1673ffffffffffffffffffffffffffffffffffffffff16815260200190815260200160002060008473ffffffffffffffffffffffffffffffffffffffff1673ffffffffffffffffffffffffffffffffffffffff16815260200190815260200160002060009054906101000a900460ff16155b5b80610e7d5750600660008373ffffffffffffffffffffffffffffffffffffffff1673ffffffffffffffffffffffffffffffffffffffff16815260200190815260200160002060008473ffffffffffffffffffffffffffffffffffffffff1673ffffffffffffffffffffffffffffffffffffffff16815260200190815260200160002060009054906101000a900460ff165b905092915050565b6000600860008473ffffffffffffffffffffffffffffffffffffffff1673ffffffffffffffffffffffffffffffffffffffff16815260200190815260200160002060008373ffffffffffffffffffffffffffffffffffffffff1673ffffffffffffffffffffffffffffffffffffffff16815260200190815260200160002054905092915050565b610f14611208565b73ffffffffffffffffffffffffffffffffffffffff168173ffffffffffffffffffffffffffffffffffffffff161415610f82576040517f08c379a0000000000000000000000000000000000000000000000000000000008152600401610f799061288a565b60405180910390fd5b600560008273ffffffffffffffffffffffffffffffffffffffff1673ffffffffffffffffffffffffffffffffffffffff16815260200190815260200160002060009054906101000a900460ff161561107557600160076000610fe2611208565b73ffffffffffffffffffffffffffffffffffffffff1673ffffffffffffffffffffffffffffffffffffffff16815260200190815260200160002060008373ffffffffffffffffffffffffffffffffffffffff1673ffffffffffffffffffffffffffffffffffffffff16815260200190815260200160002060006101000a81548160ff021916908315150217905550611109565b60066000611081611208565b73ffffffffffffffffffffffffffffffffffffffff1673ffffffffffffffffffffffffffffffffffffffff16815260200190815260200160002060008273ffffffffffffffffffffffffffffffffffffffff1673ffffffffffffffffffffffffffffffffffffffff16815260200190815260200160002060006101000a81549060ff02191690555b611111611208565b73ffffffffffffffffffffffffffffffffffffffff168173ffffffffffffffffffffffffffffffffffffffff167f50546e66e5f44d728365dc3908c63bc5cfeeab470722c1677e3073a6ac294aa160405160405180910390a350565b61117e611178611208565b85610cd4565b6111bd576040517f08c379a00000000000000000000000000000000000000000000000000000000081526004016111b49061290a565b60405180910390fd5b6111c984848484611c5e565b50505050565b6111f16111da611208565b838360405180602001604052806000815250611c5e565b5050565b600080823b905060008111915050919050565b600033905090565b600073ffffffffffffffffffffffffffffffffffffffff168373ffffffffffffffffffffffffffffffffffffffff161415611280576040517f08c379a0000000000000000000000000000000000000000000000000000000008152600401611277906127ea565b60405180910390fd5b600073ffffffffffffffffffffffffffffffffffffffff168273ffffffffffffffffffffffffffffffffffffffff1614156112f0576040517f08c379a00000000000000000000000000000000000000000000000000000000081526004016112e7906129aa565b60405180910390fd5b80600860008573ffffffffffffffffffffffffffffffffffffffff1673ffffffffffffffffffffffffffffffffffffffff16815260200190815260200160002060008473ffffffffffffffffffffffffffffffffffffffff1673ffffffffffffffffffffffffffffffffffffffff168152602001908152602001600020819055508173ffffffffffffffffffffffffffffffffffffffff168373ffffffffffffffffffffffffffffffffffffffff167f8c5be1e5ebec7d5bd14f71427d1e84f3dd0314c0f7b2291e5b200ac8c7c3b925836040516113ce91906129ca565b60405180910390a3505050565b6000731820a4b7618bde71dce8cdc73aab6c95905fad2473ffffffffffffffffffffffffffffffffffffffff1663aabbb8ca877f29ddb589b1fb5fc7cf394961c1adf5f8c6454761adf795e67fe149f658abe8956040518363ffffffff1660e01b815260040161144c929190612762565b60206040518083038186803b15801561146457600080fd5b505afa158015611478573d6000803e3d6000fd5b505050506040513d601f19601f8201168201806040525081019061149c9190611fd4565b9050600073ffffffffffffffffffffffffffffffffffffffff168173ffffffffffffffffffffffffffffffffffffffff1614611548578073ffffffffffffffffffffffffffffffffffffffff166375ab97828888888888886040518763ffffffff1660e01b8152600401611515969594939291906126f3565b600060405180830381600087803b15801561152f57600080fd5b505af1158015611543573d6000803e3d6000fd5b505050505b50505050505050565b61155d86868686611eb1565b60008060008773ffffffffffffffffffffffffffffffffffffffff1673ffffffffffffffffffffffffffffffffffffffff168152602001908152602001600020549050838110156115e3576040517f08c379a00000000000000000000000000000000000000000000000000000000081526004016115da9061282a565b60405180910390fd5b8381036000808873ffffffffffffffffffffffffffffffffffffffff1673ffffffffffffffffffffffffffffffffffffffff16815260200190815260200160002081905550836000808773ffffffffffffffffffffffffffffffffffffffff1673ffffffffffffffffffffffffffffffffffffffff16815260200190815260200160002060008282546116769190612b0c565b925050819055508473ffffffffffffffffffffffffffffffffffffffff168673ffffffffffffffffffffffffffffffffffffffff168873ffffffffffffffffffffffffffffffffffffffff167f06b541ddaa720db2b10a4d0cdac39b8d360425fc073085fac19bc826146779878787876040516116f5939291906129e5565b60405180910390a48473ffffffffffffffffffffffffffffffffffffffff168673ffffffffffffffffffffffffffffffffffffffff167fddf252ad1be2c89b69c2b068fc378daa952ba7f163c4a11628f55a4df523b3ef8660405161175a91906129ca565b60405180910390a350505050505050565b6000731820a4b7618bde71dce8cdc73aab6c95905fad2473ffffffffffffffffffffffffffffffffffffffff1663aabbb8ca877fb281fc8c12954d22544db45de3159a39272895b169a852b314f9cc762e44c53b6040518363ffffffff1660e01b81526004016117dc929190612762565b60206040518083038186803b1580156117f457600080fd5b505afa158015611808573d6000803e3d6000fd5b505050506040513d601f19601f8201168201806040525081019061182c9190611fd4565b9050600073ffffffffffffffffffffffffffffffffffffffff168173ffffffffffffffffffffffffffffffffffffffff16146118db578073ffffffffffffffffffffffffffffffffffffffff166223de298989898989896040518763ffffffff1660e01b81526004016118a4969594939291906126f3565b600060405180830381600087803b1580156118be57600080fd5b505af11580156118d2573d6000803e3d6000fd5b50505050611942565b8115611941576119008673ffffffffffffffffffffffffffffffffffffffff166111f5565b15611940576040517f08c379a0000000000000000000000000000000000000000000000000000000008152600401611937906128ca565b60405180910390fd5b5b5b5050505050505050565b600073ffffffffffffffffffffffffffffffffffffffff168673ffffffffffffffffffffffffffffffffffffffff1614156119bc576040517f08c379a00000000000000000000000000000000000000000000000000000000081526004016119b39061280a565b60405180910390fd5b600073ffffffffffffffffffffffffffffffffffffffff168573ffffffffffffffffffffffffffffffffffffffff161415611a2c576040517f08c379a0000000000000000000000000000000000000000000000000000000008152600401611a239061298a565b60405180910390fd5b6000611a36611208565b9050611a468188888888886113db565b611a54818888888888611551565b611a638188888888888861176b565b50505050505050565b611a7a848484846001611a80565b50505050565b600073ffffffffffffffffffffffffffffffffffffffff168573ffffffffffffffffffffffffffffffffffffffff161415611af0576040517f08c379a0000000000000000000000000000000000000000000000000000000008152600401611ae7906128aa565b60405180910390fd5b6000611afa611208565b9050611b098160008888611eb1565b8460016000828254611b1b9190612b0c565b92505081905550846000808873ffffffffffffffffffffffffffffffffffffffff1673ffffffffffffffffffffffffffffffffffffffff1681526020019081526020016000206000828254611b709190612b0c565b92505081905550611b87816000888888888861176b565b8573ffffffffffffffffffffffffffffffffffffffff168173ffffffffffffffffffffffffffffffffffffffff167f2fe5be0146f74c5bce36c0b80911af6c7d86ff27e89d5cfa61fc681327954e5d878787604051611be8939291906129e5565b60405180910390a38573ffffffffffffffffffffffffffffffffffffffff16600073ffffffffffffffffffffffffffffffffffffffff167fddf252ad1be2c89b69c2b068fc378daa952ba7f163c4a11628f55a4df523b3ef87604051611c4e91906129ca565b60405180910390a3505050505050565b600073ffffffffffffffffffffffffffffffffffffffff168473ffffffffffffffffffffffffffffffffffffffff161415611cce576040517f08c379a0000000000000000000000000000000000000000000000000000000008152600401611cc59061284a565b60405180910390fd5b6000611cd8611208565b9050611ce9818660008787876113db565b611cf68186600087611eb1565b60008060008773ffffffffffffffffffffffffffffffffffffffff1673ffffffffffffffffffffffffffffffffffffffff16815260200190815260200160002054905084811015611d7c576040517f08c379a0000000000000000000000000000000000000000000000000000000008152600401611d739061296a565b60405180910390fd5b8481036000808873ffffffffffffffffffffffffffffffffffffffff1673ffffffffffffffffffffffffffffffffffffffff168152602001908152602001600020819055508460016000828254611dd39190612b62565b925050819055508573ffffffffffffffffffffffffffffffffffffffff168273ffffffffffffffffffffffffffffffffffffffff167fa78a9be3a7b862d26933ad85fb11d80ef66b8f972d7cbba06621d583943a4098878787604051611e3b939291906129e5565b60405180910390a3600073ffffffffffffffffffffffffffffffffffffffff168673ffffffffffffffffffffffffffffffffffffffff167fddf252ad1be2c89b69c2b068fc378daa952ba7f163c4a11628f55a4df523b3ef87604051611ea191906129ca565b60405180910390a3505050505050565b7f52316ab8e8b0687ce803e403dfe429541bccd4f6c4683ec65d254d382f15a26560405160405180910390a150505050565b6000611ef6611ef184612a6a565b612a45565b905082815260208101848484011115611f1257611f11612d2c565b5b611f1d848285612bf5565b509392505050565b600081359050611f34816131c7565b92915050565b600081519050611f49816131c7565b92915050565b600081359050611f5e816131de565b92915050565b600082601f830112611f7957611f78612d27565b5b8135611f89848260208601611ee3565b91505092915050565b600081359050611fa1816131f5565b92915050565b600060208284031215611fbd57611fbc612d36565b5b6000611fcb84828501611f25565b91505092915050565b600060208284031215611fea57611fe9612d36565b5b6000611ff884828501611f3a565b91505092915050565b6000806040838503121561201857612017612d36565b5b600061202685828601611f25565b925050602061203785828601611f25565b9150509250929050565b60008060006060848603121561205a57612059612d36565b5b600061206886828701611f25565b935050602061207986828701611f25565b925050604061208a86828701611f92565b9150509250925092565b600080600080600060a086880312156120b0576120af612d36565b5b60006120be88828901611f25565b95505060206120cf88828901611f25565b94505060406120e088828901611f92565b935050606086013567ffffffffffffffff81111561210157612100612d31565b5b61210d88828901611f64565b925050608086013567ffffffffffffffff81111561212e5761212d612d31565b5b61213a88828901611f64565b9150509295509295909350565b6000806040838503121561215e5761215d612d36565b5b600061216c85828601611f25565b925050602061217d85828601611f92565b9150509250929050565b6000806000606084860312156121a05761219f612d36565b5b60006121ae86828701611f25565b93505060206121bf86828701611f92565b925050604084013567ffffffffffffffff8111156121e0576121df612d31565b5b6121ec86828701611f64565b9150509250925092565b600080600080608085870312156122105761220f612d36565b5b600061221e87828801611f25565b945050602061222f87828801611f92565b935050604085013567ffffffffffffffff8111156122505761224f612d31565b5b61225c87828801611f64565b925050606085013567ffffffffffffffff81111561227d5761227c612d31565b5b61228987828801611f64565b91505092959194509250565b600080600080600060a086880312156122b1576122b0612d36565b5b60006122bf88828901611f25565b95505060206122d088828901611f92565b945050604086013567ffffffffffffffff8111156122f1576122f0612d31565b5b6122fd88828901611f64565b935050606086013567ffffffffffffffff81111561231e5761231d612d31565b5b61232a88828901611f64565b925050608061233b88828901611f4f565b9150509295509295909350565b6000806040838503121561235f5761235e612d36565b5b600061236d85828601611f92565b925050602083013567ffffffffffffffff81111561238e5761238d612d31565b5b61239a85828601611f64565b9150509250929050565b60006123b083836123bc565b60208301905092915050565b6123c581612b96565b82525050565b6123d481612b96565b82525050565b60006123e582612aab565b6123ef8185612ad9565b93506123fa83612a9b565b8060005b8381101561242b57815161241288826123a4565b975061241d83612acc565b9250506001810190506123fe565b5085935050505092915050565b61244181612ba8565b82525050565b61245081612bb4565b82525050565b600061246182612ab6565b61246b8185612aea565b935061247b818560208601612c04565b61248481612d3b565b840191505092915050565b600061249a82612ac1565b6124a48185612afb565b93506124b4818560208601612c04565b6124bd81612d3b565b840191505092915050565b60006124d5602583612afb565b91506124e082612d4c565b604082019050919050565b60006124f8602283612afb565b915061250382612d9b565b604082019050919050565b600061251b602783612afb565b915061252682612dea565b604082019050919050565b600061253e602283612afb565b915061254982612e39565b604082019050919050565b6000612561602483612afb565b915061256c82612e88565b604082019050919050565b6000612584602183612afb565b915061258f82612ed7565b604082019050919050565b60006125a7602083612afb565b91506125b282612f26565b602082019050919050565b60006125ca604d83612afb565b91506125d582612f4f565b606082019050919050565b60006125ed602483612afb565b91506125f882612fc4565b604082019050919050565b6000612610602c83612afb565b915061261b82613013565b604082019050919050565b6000612633602983612afb565b915061263e82613062565b604082019050919050565b6000612656602683612afb565b9150612661826130b1565b604082019050919050565b6000612679602383612afb565b915061268482613100565b604082019050919050565b600061269c602083612afb565b91506126a78261314f565b602082019050919050565b60006126bf602383612afb565b91506126ca82613178565b604082019050919050565b6126de81612bde565b82525050565b6126ed81612be8565b82525050565b600060c08201905061270860008301896123cb565b61271560208301886123cb565b61272260408301876123cb565b61272f60608301866126d5565b81810360808301526127418185612456565b905081810360a08301526127558184612456565b9050979650505050505050565b600060408201905061277760008301856123cb565b6127846020830184612447565b9392505050565b600060208201905081810360008301526127a581846123da565b905092915050565b60006020820190506127c26000830184612438565b92915050565b600060208201905081810360008301526127e2818461248f565b905092915050565b60006020820190508181036000830152612803816124c8565b9050919050565b60006020820190508181036000830152612823816124eb565b9050919050565b600060208201905081810360008301526128438161250e565b9050919050565b6000602082019050818103600083015261286381612531565b9050919050565b6000602082019050818103600083015261288381612554565b9050919050565b600060208201905081810360008301526128a381612577565b9050919050565b600060208201905081810360008301526128c38161259a565b9050919050565b600060208201905081810360008301526128e3816125bd565b9050919050565b60006020820190508181036000830152612903816125e0565b9050919050565b6000602082019050818103600083015261292381612603565b9050919050565b6000602082019050818103600083015261294381612626565b9050919050565b6000602082019050818103600083015261296381612649565b9050919050565b600060208201905081810360008301526129838161266c565b9050919050565b600060208201905081810360008301526129a38161268f565b9050919050565b600060208201905081810360008301526129c3816126b2565b9050919050565b60006020820190506129df60008301846126d5565b92915050565b60006060820190506129fa60008301866126d5565b8181036020830152612a0c8185612456565b90508181036040830152612a208184612456565b9050949350505050565b6000602082019050612a3f60008301846126e4565b92915050565b6000612a4f612a60565b9050612a5b8282612c69565b919050565b6000604051905090565b600067ffffffffffffffff821115612a8557612a84612cf8565b5b612a8e82612d3b565b9050602081019050919050565b6000819050602082019050919050565b600081519050919050565b600081519050919050565b600081519050919050565b6000602082019050919050565b600082825260208201905092915050565b600082825260208201905092915050565b600082825260208201905092915050565b6000612b1782612bde565b9150612b2283612bde565b9250827fffffffffffffffffffffffffffffffffffffffffffffffffffffffffffffffff03821115612b5757612b56612c9a565b5b828201905092915050565b6000612b6d82612bde565b9150612b7883612bde565b925082821015612b8b57612b8a612c9a565b5b828203905092915050565b6000612ba182612bbe565b9050919050565b60008115159050919050565b6000819050919050565b600073ffffffffffffffffffffffffffffffffffffffff82169050919050565b6000819050919050565b600060ff82169050919050565b82818337600083830152505050565b60005b83811015612c22578082015181840152602081019050612c07565b83811115612c31576000848401525b50505050565b60006002820490506001821680612c4f57607f821691505b60208210811415612c6357612c62612cc9565b5b50919050565b612c7282612d3b565b810181811067ffffffffffffffff82111715612c9157612c90612cf8565b5b80604052505050565b7f4e487b7100000000000000000000000000000000000000000000000000000000600052601160045260246000fd5b7f4e487b7100000000000000000000000000000000000000000000000000000000600052602260045260246000fd5b7f4e487b7100000000000000000000000000000000000000000000000000000000600052604160045260246000fd5b600080fd5b600080fd5b600080fd5b600080fd5b6000601f19601f8301169050919050565b7f4552433737373a20617070726f76652066726f6d20746865207a65726f20616460008201527f6472657373000000000000000000000000000000000000000000000000000000602082015250565b7f4552433737373a2073656e642066726f6d20746865207a65726f20616464726560008201527f7373000000000000000000000000000000000000000000000000000000000000602082015250565b7f4552433737373a207472616e7366657220616d6f756e7420657863656564732060008201527f62616c616e636500000000000000000000000000000000000000000000000000602082015250565b7f4552433737373a206275726e2066726f6d20746865207a65726f20616464726560008201527f7373000000000000000000000000000000000000000000000000000000000000602082015250565b7f4552433737373a20617574686f72697a696e672073656c66206173206f70657260008201527f61746f7200000000000000000000000000000000000000000000000000000000602082015250565b7f4552433737373a207265766f6b696e672073656c66206173206f70657261746f60008201527f7200000000000000000000000000000000000000000000000000000000000000602082015250565b7f4552433737373a206d696e7420746f20746865207a65726f2061646472657373600082015250565b7f4552433737373a20746f6b656e20726563697069656e7420636f6e747261637460008201527f20686173206e6f20696d706c656d656e74657220666f7220455243373737546f60208201527f6b656e73526563697069656e7400000000000000000000000000000000000000604082015250565b7f4552433737373a207472616e7366657220746f20746865207a65726f2061646460008201527f7265737300000000000000000000000000000000000000000000000000000000602082015250565b7f4552433737373a2063616c6c6572206973206e6f7420616e206f70657261746f60008201527f7220666f7220686f6c6465720000000000000000000000000000000000000000602082015250565b7f4552433737373a207472616e7366657220616d6f756e7420657863656564732060008201527f616c6c6f77616e63650000000000000000000000000000000000000000000000602082015250565b7f4552433737373a207472616e736665722066726f6d20746865207a65726f206160008201527f6464726573730000000000000000000000000000000000000000000000000000602082015250565b7f4552433737373a206275726e20616d6f756e7420657863656564732062616c6160008201527f6e63650000000000000000000000000000000000000000000000000000000000602082015250565b7f4552433737373a2073656e6420746f20746865207a65726f2061646472657373600082015250565b7f4552433737373a20617070726f766520746f20746865207a65726f206164647260008201527f6573730000000000000000000000000000000000000000000000000000000000602082015250565b6131d081612b96565b81146131db57600080fd5b50565b6131e781612ba8565b81146131f257600080fd5b50565b6131fe81612bde565b811461320957600080fd5b5056fea264697066735822122075beefde6f7c57d47cdf4ebaa57102af3aeae1ea628973701267d6039fc9533b64736f6c63430008070033",
  "immutableReferences": {},
  "source": "// SPDX-License-Identifier: MIT\n\npragma solidity ^0.8.0;\n\nimport \"../utils/Context.sol\";\nimport \"../token/ERC777/ERC777.sol\";\n\ncontract ERC777Mock is Context, ERC777 {\n    event BeforeTokenTransfer();\n\n    constructor(\n        address initialHolder,\n        uint256 initialBalance,\n        string memory name,\n        string memory symbol,\n        address[] memory defaultOperators\n    ) ERC777(name, symbol, defaultOperators) {\n        _mint(initialHolder, initialBalance, \"\", \"\");\n    }\n\n    function mintInternal(\n        address to,\n        uint256 amount,\n        bytes memory userData,\n        bytes memory operatorData\n    ) public {\n        _mint(to, amount, userData, operatorData);\n    }\n\n    function mintInternalExtended(\n        address to,\n        uint256 amount,\n        bytes memory userData,\n        bytes memory operatorData,\n        bool requireReceptionAck\n    ) public {\n        _mint(to, amount, userData, operatorData, requireReceptionAck);\n    }\n\n    function approveInternal(\n        address holder,\n        address spender,\n        uint256 value\n    ) public {\n        _approve(holder, spender, value);\n    }\n\n    function _beforeTokenTransfer(\n        address,\n        address,\n        address,\n        uint256\n    ) internal override {\n        emit BeforeTokenTransfer();\n    }\n}\n",
  "sourcePath": "/home/tenten/Projects/upcgold.io/src/contracts/openzeppelin-contracts/contracts/mocks/ERC777Mock.sol",
  "compiler": {
    "name": "solc",
    "version": "0.8.7+commit.e28d00a7.Emscripten.clang"
  },
  "schemaVersion": "3.2.3",
  "updatedAt": "2021-08-12T03:39:31.286Z",
  "devdoc": {
    "kind": "dev",
    "methods": {
      "allowance(address,address)": {
        "details": "See {IERC20-allowance}. Note that operator and allowance concepts are orthogonal: operators may not have allowance, and accounts with allowance may not be operators themselves."
      },
      "approve(address,uint256)": {
        "details": "See {IERC20-approve}. Note that accounts cannot have allowance issued by their operators."
      },
      "authorizeOperator(address)": {
        "details": "See {IERC777-authorizeOperator}."
      },
      "balanceOf(address)": {
        "details": "Returns the amount of tokens owned by an account (`tokenHolder`)."
      },
      "burn(uint256,bytes)": {
        "details": "See {IERC777-burn}. Also emits a {IERC20-Transfer} event for ERC20 compatibility."
      },
      "decimals()": {
        "details": "See {ERC20-decimals}. Always returns 18, as per the [ERC777 EIP](https://eips.ethereum.org/EIPS/eip-777#backward-compatibility)."
      },
      "defaultOperators()": {
        "details": "See {IERC777-defaultOperators}."
      },
      "granularity()": {
        "details": "See {IERC777-granularity}. This implementation always returns `1`."
      },
      "isOperatorFor(address,address)": {
        "details": "See {IERC777-isOperatorFor}."
      },
      "name()": {
        "details": "See {IERC777-name}."
      },
      "operatorBurn(address,uint256,bytes,bytes)": {
        "details": "See {IERC777-operatorBurn}. Emits {Burned} and {IERC20-Transfer} events."
      },
      "operatorSend(address,address,uint256,bytes,bytes)": {
        "details": "See {IERC777-operatorSend}. Emits {Sent} and {IERC20-Transfer} events."
      },
      "revokeOperator(address)": {
        "details": "See {IERC777-revokeOperator}."
      },
      "send(address,uint256,bytes)": {
        "details": "See {IERC777-send}. Also emits a {IERC20-Transfer} event for ERC20 compatibility."
      },
      "symbol()": {
        "details": "See {IERC777-symbol}."
      },
      "totalSupply()": {
        "details": "See {IERC777-totalSupply}."
      },
      "transfer(address,uint256)": {
        "details": "See {IERC20-transfer}. Unlike `send`, `recipient` is _not_ required to implement the {IERC777Recipient} interface if it is a contract. Also emits a {Sent} event."
      },
      "transferFrom(address,address,uint256)": {
        "details": "See {IERC20-transferFrom}. Note that operator and allowance concepts are orthogonal: operators cannot call `transferFrom` (unless they have allowance), and accounts with allowance cannot call `operatorSend` (unless they are operators). Emits {Sent}, {IERC20-Transfer} and {IERC20-Approval} events."
      }
    },
    "version": 1
  },
  "userdoc": {
    "kind": "user",
    "methods": {},
    "version": 1
  }
}