{
  "contractName": "GovernorTimelockCompoundMock",
  "abi": [
    {
      "inputs": [
        {
          "internalType": "string",
          "name": "name_",
          "type": "string"
        },
        {
          "internalType": "contract ERC20Votes",
          "name": "token_",
          "type": "address"
        },
        {
          "internalType": "uint256",
          "name": "votingDelay_",
          "type": "uint256"
        },
        {
          "internalType": "uint256",
          "name": "votingPeriod_",
          "type": "uint256"
        },
        {
          "internalType": "contract ICompoundTimelock",
          "name": "timelock_",
          "type": "address"
        },
        {
          "internalType": "uint256",
          "name": "quorumNumerator_",
          "type": "uint256"
        }
      ],
      "stateMutability": "nonpayable",
      "type": "constructor"
    },
    {
      "anonymous": false,
      "inputs": [
        {
          "indexed": false,
          "internalType": "uint256",
          "name": "proposalId",
          "type": "uint256"
        }
      ],
      "name": "ProposalCanceled",
      "type": "event"
    },
    {
      "anonymous": false,
      "inputs": [
        {
          "indexed": false,
          "internalType": "uint256",
          "name": "proposalId",
          "type": "uint256"
        },
        {
          "indexed": false,
          "internalType": "address",
          "name": "proposer",
          "type": "address"
        },
        {
          "indexed": false,
          "internalType": "address[]",
          "name": "targets",
          "type": "address[]"
        },
        {
          "indexed": false,
          "internalType": "uint256[]",
          "name": "values",
          "type": "uint256[]"
        },
        {
          "indexed": false,
          "internalType": "string[]",
          "name": "signatures",
          "type": "string[]"
        },
        {
          "indexed": false,
          "internalType": "bytes[]",
          "name": "calldatas",
          "type": "bytes[]"
        },
        {
          "indexed": false,
          "internalType": "uint256",
          "name": "startBlock",
          "type": "uint256"
        },
        {
          "indexed": false,
          "internalType": "uint256",
          "name": "endBlock",
          "type": "uint256"
        },
        {
          "indexed": false,
          "internalType": "string",
          "name": "description",
          "type": "string"
        }
      ],
      "name": "ProposalCreated",
      "type": "event"
    },
    {
      "anonymous": false,
      "inputs": [
        {
          "indexed": false,
          "internalType": "uint256",
          "name": "proposalId",
          "type": "uint256"
        }
      ],
      "name": "ProposalExecuted",
      "type": "event"
    },
    {
      "anonymous": false,
      "inputs": [
        {
          "indexed": false,
          "internalType": "uint256",
          "name": "proposalId",
          "type": "uint256"
        },
        {
          "indexed": false,
          "internalType": "uint256",
          "name": "eta",
          "type": "uint256"
        }
      ],
      "name": "ProposalQueued",
      "type": "event"
    },
    {
      "anonymous": false,
      "inputs": [
        {
          "indexed": false,
          "internalType": "uint256",
          "name": "oldQuorumNumerator",
          "type": "uint256"
        },
        {
          "indexed": false,
          "internalType": "uint256",
          "name": "newQuorumNumerator",
          "type": "uint256"
        }
      ],
      "name": "QuorumNumeratorUpdated",
      "type": "event"
    },
    {
      "anonymous": false,
      "inputs": [
        {
          "indexed": false,
          "internalType": "address",
          "name": "oldTimelock",
          "type": "address"
        },
        {
          "indexed": false,
          "internalType": "address",
          "name": "newTimelock",
          "type": "address"
        }
      ],
      "name": "TimelockChange",
      "type": "event"
    },
    {
      "anonymous": false,
      "inputs": [
        {
          "indexed": true,
          "internalType": "address",
          "name": "voter",
          "type": "address"
        },
        {
          "indexed": false,
          "internalType": "uint256",
          "name": "proposalId",
          "type": "uint256"
        },
        {
          "indexed": false,
          "internalType": "uint8",
          "name": "support",
          "type": "uint8"
        },
        {
          "indexed": false,
          "internalType": "uint256",
          "name": "weight",
          "type": "uint256"
        },
        {
          "indexed": false,
          "internalType": "string",
          "name": "reason",
          "type": "string"
        }
      ],
      "name": "VoteCast",
      "type": "event"
    },
    {
      "inputs": [],
      "name": "BALLOT_TYPEHASH",
      "outputs": [
        {
          "internalType": "bytes32",
          "name": "",
          "type": "bytes32"
        }
      ],
      "stateMutability": "view",
      "type": "function"
    },
    {
      "inputs": [],
      "name": "COUNTING_MODE",
      "outputs": [
        {
          "internalType": "string",
          "name": "",
          "type": "string"
        }
      ],
      "stateMutability": "pure",
      "type": "function"
    },
    {
      "inputs": [],
      "name": "__acceptAdmin",
      "outputs": [],
      "stateMutability": "nonpayable",
      "type": "function"
    },
    {
      "inputs": [
        {
          "internalType": "uint256",
          "name": "proposalId",
          "type": "uint256"
        },
        {
          "internalType": "uint8",
          "name": "support",
          "type": "uint8"
        }
      ],
      "name": "castVote",
      "outputs": [
        {
          "internalType": "uint256",
          "name": "",
          "type": "uint256"
        }
      ],
      "stateMutability": "nonpayable",
      "type": "function"
    },
    {
      "inputs": [
        {
          "internalType": "uint256",
          "name": "proposalId",
          "type": "uint256"
        },
        {
          "internalType": "uint8",
          "name": "support",
          "type": "uint8"
        },
        {
          "internalType": "uint8",
          "name": "v",
          "type": "uint8"
        },
        {
          "internalType": "bytes32",
          "name": "r",
          "type": "bytes32"
        },
        {
          "internalType": "bytes32",
          "name": "s",
          "type": "bytes32"
        }
      ],
      "name": "castVoteBySig",
      "outputs": [
        {
          "internalType": "uint256",
          "name": "",
          "type": "uint256"
        }
      ],
      "stateMutability": "nonpayable",
      "type": "function"
    },
    {
      "inputs": [
        {
          "internalType": "uint256",
          "name": "proposalId",
          "type": "uint256"
        },
        {
          "internalType": "uint8",
          "name": "support",
          "type": "uint8"
        },
        {
          "internalType": "string",
          "name": "reason",
          "type": "string"
        }
      ],
      "name": "castVoteWithReason",
      "outputs": [
        {
          "internalType": "uint256",
          "name": "",
          "type": "uint256"
        }
      ],
      "stateMutability": "nonpayable",
      "type": "function"
    },
    {
      "inputs": [
        {
          "internalType": "address[]",
          "name": "targets",
          "type": "address[]"
        },
        {
          "internalType": "uint256[]",
          "name": "values",
          "type": "uint256[]"
        },
        {
          "internalType": "bytes[]",
          "name": "calldatas",
          "type": "bytes[]"
        },
        {
          "internalType": "bytes32",
          "name": "descriptionHash",
          "type": "bytes32"
        }
      ],
      "name": "execute",
      "outputs": [
        {
          "internalType": "uint256",
          "name": "",
          "type": "uint256"
        }
      ],
      "stateMutability": "payable",
      "type": "function"
    },
    {
      "inputs": [
        {
          "internalType": "uint256",
          "name": "proposalId",
          "type": "uint256"
        },
        {
          "internalType": "address",
          "name": "account",
          "type": "address"
        }
      ],
      "name": "hasVoted",
      "outputs": [
        {
          "internalType": "bool",
          "name": "",
          "type": "bool"
        }
      ],
      "stateMutability": "view",
      "type": "function"
    },
    {
      "inputs": [
        {
          "internalType": "address[]",
          "name": "targets",
          "type": "address[]"
        },
        {
          "internalType": "uint256[]",
          "name": "values",
          "type": "uint256[]"
        },
        {
          "internalType": "bytes[]",
          "name": "calldatas",
          "type": "bytes[]"
        },
        {
          "internalType": "bytes32",
          "name": "descriptionHash",
          "type": "bytes32"
        }
      ],
      "name": "hashProposal",
      "outputs": [
        {
          "internalType": "uint256",
          "name": "",
          "type": "uint256"
        }
      ],
      "stateMutability": "pure",
      "type": "function"
    },
    {
      "inputs": [],
      "name": "name",
      "outputs": [
        {
          "internalType": "string",
          "name": "",
          "type": "string"
        }
      ],
      "stateMutability": "view",
      "type": "function"
    },
    {
      "inputs": [
        {
          "internalType": "uint256",
          "name": "proposalId",
          "type": "uint256"
        }
      ],
      "name": "proposalDeadline",
      "outputs": [
        {
          "internalType": "uint256",
          "name": "",
          "type": "uint256"
        }
      ],
      "stateMutability": "view",
      "type": "function"
    },
    {
      "inputs": [
        {
          "internalType": "uint256",
          "name": "proposalId",
          "type": "uint256"
        }
      ],
      "name": "proposalEta",
      "outputs": [
        {
          "internalType": "uint256",
          "name": "",
          "type": "uint256"
        }
      ],
      "stateMutability": "view",
      "type": "function"
    },
    {
      "inputs": [
        {
          "internalType": "uint256",
          "name": "proposalId",
          "type": "uint256"
        }
      ],
      "name": "proposalSnapshot",
      "outputs": [
        {
          "internalType": "uint256",
          "name": "",
          "type": "uint256"
        }
      ],
      "stateMutability": "view",
      "type": "function"
    },
    {
      "inputs": [
        {
          "internalType": "uint256",
          "name": "proposalId",
          "type": "uint256"
        }
      ],
      "name": "proposalVotes",
      "outputs": [
        {
          "internalType": "uint256",
          "name": "againstVotes",
          "type": "uint256"
        },
        {
          "internalType": "uint256",
          "name": "forVotes",
          "type": "uint256"
        },
        {
          "internalType": "uint256",
          "name": "abstainVotes",
          "type": "uint256"
        }
      ],
      "stateMutability": "view",
      "type": "function"
    },
    {
      "inputs": [
        {
          "internalType": "address[]",
          "name": "targets",
          "type": "address[]"
        },
        {
          "internalType": "uint256[]",
          "name": "values",
          "type": "uint256[]"
        },
        {
          "internalType": "bytes[]",
          "name": "calldatas",
          "type": "bytes[]"
        },
        {
          "internalType": "string",
          "name": "description",
          "type": "string"
        }
      ],
      "name": "propose",
      "outputs": [
        {
          "internalType": "uint256",
          "name": "",
          "type": "uint256"
        }
      ],
      "stateMutability": "nonpayable",
      "type": "function"
    },
    {
      "inputs": [
        {
          "internalType": "address[]",
          "name": "targets",
          "type": "address[]"
        },
        {
          "internalType": "uint256[]",
          "name": "values",
          "type": "uint256[]"
        },
        {
          "internalType": "bytes[]",
          "name": "calldatas",
          "type": "bytes[]"
        },
        {
          "internalType": "bytes32",
          "name": "descriptionHash",
          "type": "bytes32"
        }
      ],
      "name": "queue",
      "outputs": [
        {
          "internalType": "uint256",
          "name": "",
          "type": "uint256"
        }
      ],
      "stateMutability": "nonpayable",
      "type": "function"
    },
    {
      "inputs": [],
      "name": "quorumDenominator",
      "outputs": [
        {
          "internalType": "uint256",
          "name": "",
          "type": "uint256"
        }
      ],
      "stateMutability": "view",
      "type": "function"
    },
    {
      "inputs": [],
      "name": "quorumNumerator",
      "outputs": [
        {
          "internalType": "uint256",
          "name": "",
          "type": "uint256"
        }
      ],
      "stateMutability": "view",
      "type": "function"
    },
    {
      "inputs": [],
      "name": "timelock",
      "outputs": [
        {
          "internalType": "address",
          "name": "",
          "type": "address"
        }
      ],
      "stateMutability": "view",
      "type": "function"
    },
    {
      "inputs": [],
      "name": "token",
      "outputs": [
        {
          "internalType": "contract ERC20Votes",
          "name": "",
          "type": "address"
        }
      ],
      "stateMutability": "view",
      "type": "function"
    },
    {
      "inputs": [
        {
          "internalType": "uint256",
          "name": "newQuorumNumerator",
          "type": "uint256"
        }
      ],
      "name": "updateQuorumNumerator",
      "outputs": [],
      "stateMutability": "nonpayable",
      "type": "function"
    },
    {
      "inputs": [
        {
          "internalType": "contract ICompoundTimelock",
          "name": "newTimelock",
          "type": "address"
        }
      ],
      "name": "updateTimelock",
      "outputs": [],
      "stateMutability": "nonpayable",
      "type": "function"
    },
    {
      "inputs": [],
      "name": "version",
      "outputs": [
        {
          "internalType": "string",
          "name": "",
          "type": "string"
        }
      ],
      "stateMutability": "view",
      "type": "function"
    },
    {
      "inputs": [
        {
          "internalType": "bytes4",
          "name": "interfaceId",
          "type": "bytes4"
        }
      ],
      "name": "supportsInterface",
      "outputs": [
        {
          "internalType": "bool",
          "name": "",
          "type": "bool"
        }
      ],
      "stateMutability": "view",
      "type": "function"
    },
    {
      "inputs": [],
      "name": "votingDelay",
      "outputs": [
        {
          "internalType": "uint256",
          "name": "",
          "type": "uint256"
        }
      ],
      "stateMutability": "view",
      "type": "function"
    },
    {
      "inputs": [],
      "name": "votingPeriod",
      "outputs": [
        {
          "internalType": "uint256",
          "name": "",
          "type": "uint256"
        }
      ],
      "stateMutability": "view",
      "type": "function"
    },
    {
      "inputs": [
        {
          "internalType": "uint256",
          "name": "blockNumber",
          "type": "uint256"
        }
      ],
      "name": "quorum",
      "outputs": [
        {
          "internalType": "uint256",
          "name": "",
          "type": "uint256"
        }
      ],
      "stateMutability": "view",
      "type": "function"
    },
    {
      "inputs": [
        {
          "internalType": "address[]",
          "name": "targets",
          "type": "address[]"
        },
        {
          "internalType": "uint256[]",
          "name": "values",
          "type": "uint256[]"
        },
        {
          "internalType": "bytes[]",
          "name": "calldatas",
          "type": "bytes[]"
        },
        {
          "internalType": "bytes32",
          "name": "salt",
          "type": "bytes32"
        }
      ],
      "name": "cancel",
      "outputs": [
        {
          "internalType": "uint256",
          "name": "proposalId",
          "type": "uint256"
        }
      ],
      "stateMutability": "nonpayable",
      "type": "function"
    },
    {
      "inputs": [
        {
          "internalType": "uint256",
          "name": "proposalId",
          "type": "uint256"
        }
      ],
      "name": "state",
      "outputs": [
        {
          "internalType": "enum IGovernor.ProposalState",
          "name": "",
          "type": "uint8"
        }
      ],
      "stateMutability": "view",
      "type": "function"
    },
    {
      "inputs": [
        {
          "internalType": "address",
          "name": "account",
          "type": "address"
        },
        {
          "internalType": "uint256",
          "name": "blockNumber",
          "type": "uint256"
        }
      ],
      "name": "getVotes",
      "outputs": [
        {
          "internalType": "uint256",
          "name": "",
          "type": "uint256"
        }
      ],
      "stateMutability": "view",
      "type": "function"
    }
  ],
  "bytecode": "0x6101806040523480156200001257600080fd5b506040516200570038038062005700833981810160405281019062000038919062000497565b80858388806200004d6200015f60201b60201c565b60008280519060200120905060008280519060200120905060007f8b73c3c69bb8fe3d512ecc4cf759cc79239f7b179b0ffacaa9a75d522b39400f90508260c081815250508160e081815250504660a08181525050620000b58184846200019c60201b60201c565b6080818152505080610100818152505050505050508060009080519060200190620000e292919062000324565b5050620000f581620001d860201b60201c565b508073ffffffffffffffffffffffffffffffffffffffff166101208173ffffffffffffffffffffffffffffffffffffffff1660601b815250505062000140816200027960201b60201c565b5083610140818152505082610160818152505050505050505062000961565b60606040518060400160405280600181526020017f3100000000000000000000000000000000000000000000000000000000000000815250905090565b60008383834630604051602001620001b9959493929190620005d9565b6040516020818303038152906040528051906020012090509392505050565b7f08f74ea46ef7894f65eabfb5e6e695de773a000b47c529ab559178069b226401600260009054906101000a900473ffffffffffffffffffffffffffffffffffffffff16826040516200022d929190620005ac565b60405180910390a180600260006101000a81548173ffffffffffffffffffffffffffffffffffffffff021916908373ffffffffffffffffffffffffffffffffffffffff16021790555050565b620002896200031b60201b60201c565b811115620002ce576040517f08c379a0000000000000000000000000000000000000000000000000000000008152600401620002c59062000636565b60405180910390fd5b60006004549050816004819055507f0553476bf02ef2726e8ce5ced78d63e26e602e4a2257b1f559418e24b463399781836040516200030f92919062000658565b60405180910390a15050565b60006064905090565b8280546200033290620007af565b90600052602060002090601f016020900481019282620003565760008555620003a2565b82601f106200037157805160ff1916838001178555620003a2565b82800160010185558215620003a2579182015b82811115620003a157825182559160200191906001019062000384565b5b509050620003b19190620003b5565b5090565b5b80821115620003d0576000816000905550600101620003b6565b5090565b6000620003eb620003e584620006ae565b62000685565b9050828152602081018484840111156200040a57620004096200087e565b5b6200041784828562000779565b509392505050565b600081519050620004308162000913565b92915050565b60008151905062000447816200092d565b92915050565b600082601f83011262000465576200046462000879565b5b815162000477848260208601620003d4565b91505092915050565b600081519050620004918162000947565b92915050565b60008060008060008060c08789031215620004b757620004b662000888565b5b600087015167ffffffffffffffff811115620004d857620004d762000883565b5b620004e689828a016200044d565b9650506020620004f989828a016200041f565b95505060406200050c89828a0162000480565b94505060606200051f89828a0162000480565b93505060806200053289828a0162000436565b92505060a06200054589828a0162000480565b9150509295509295509295565b6200055d81620006f5565b82525050565b6200056e816200071d565b82525050565b600062000583604383620006e4565b915062000590826200089e565b606082019050919050565b620005a6816200076f565b82525050565b6000604082019050620005c3600083018562000552565b620005d2602083018462000552565b9392505050565b600060a082019050620005f0600083018862000563565b620005ff602083018762000563565b6200060e604083018662000563565b6200061d60608301856200059b565b6200062c608083018462000552565b9695505050505050565b60006020820190508181036000830152620006518162000574565b9050919050565b60006040820190506200066f60008301856200059b565b6200067e60208301846200059b565b9392505050565b600062000691620006a4565b90506200069f8282620007e5565b919050565b6000604051905090565b600067ffffffffffffffff821115620006cc57620006cb6200084a565b5b620006d7826200088d565b9050602081019050919050565b600082825260208201905092915050565b600062000702826200074f565b9050919050565b600062000716826200074f565b9050919050565b6000819050919050565b60006200073482620006f5565b9050919050565b6000620007488262000709565b9050919050565b600073ffffffffffffffffffffffffffffffffffffffff82169050919050565b6000819050919050565b60005b83811015620007995780820151818401526020810190506200077c565b83811115620007a9576000848401525b50505050565b60006002820490506001821680620007c857607f821691505b60208210811415620007df57620007de6200081b565b5b50919050565b620007f0826200088d565b810181811067ffffffffffffffff821117156200081257620008116200084a565b5b80604052505050565b7f4e487b7100000000000000000000000000000000000000000000000000000000600052602260045260246000fd5b7f4e487b7100000000000000000000000000000000000000000000000000000000600052604160045260246000fd5b600080fd5b600080fd5b600080fd5b600080fd5b6000601f19601f8301169050919050565b7f476f7665726e6f72566f74657351756f72756d4672616374696f6e3a2071756f60008201527f72756d4e756d657261746f72206f7665722071756f72756d44656e6f6d696e6160208201527f746f720000000000000000000000000000000000000000000000000000000000604082015250565b6200091e8162000727565b81146200092a57600080fd5b50565b62000938816200073b565b81146200094457600080fd5b50565b62000952816200076f565b81146200095e57600080fd5b50565b60805160a05160c05160e051610100516101205160601c6101405161016051614d28620009d8600039600061080101526000610f0e0152600081816116e901528181611e0f0152611ed4015260006122290152600061226b0152600061224a015260006121d6015260006121fe0152614d286000f3fe6080604052600436106101cd5760003560e01c80637b3c71d3116100f7578063c01f9e3711610095578063deaaa7cc11610064578063deaaa7cc1461071b578063eb9019d414610746578063f8ce560a14610783578063fc0c546a146107c0576101cd565b8063c01f9e371461064b578063c59057e414610688578063d33219b4146106c5578063dd4e2ba5146106f0576101cd565b8063a7713a70116100d1578063a7713a70146105a3578063a890c910146105ce578063ab58fb8e146105f7578063b9a6196114610634576101cd565b80637b3c71d3146104fe5780637d5e81e21461053b57806397c3d33414610578576101cd565b80633932abb11161016f578063452115d61161013e578063452115d61461041a578063544ffc9c1461045757806354fd4d501461049657806356781388146104c1576101cd565b80633932abb1146103385780633bccf4fd146103635780633e4f49e6146103a057806343859632146103dd576101cd565b806306fdde03116101ab57806306fdde0314610263578063160cbed71461028e5780632656227d146102cb5780632d63f693146102fb576101cd565b806301ffc9a7146101d257806302a251a31461020f57806306f3f9e61461023a575b600080fd5b3480156101de57600080fd5b506101f960048036038101906101f4919061317b565b6107eb565b6040516102069190613b6c565b60405180910390f35b34801561021b57600080fd5b506102246107fd565b6040516102319190613ee9565b60405180910390f35b34801561024657600080fd5b50610261600480360381019061025c919061321e565b610825565b005b34801561026f57600080fd5b506102786108ad565b6040516102859190613ca7565b60405180910390f35b34801561029a57600080fd5b506102b560048036038101906102b09190612f8f565b61093f565b6040516102c29190613ee9565b60405180910390f35b6102e560048036038101906102e09190612f8f565b610d69565b6040516102f29190613ee9565b60405180910390f35b34801561030757600080fd5b50610322600480360381019061031d919061321e565b610e9c565b60405161032f9190613ee9565b60405180910390f35b34801561034457600080fd5b5061034d610f0a565b60405161035a9190613ee9565b60405180910390f35b34801561036f57600080fd5b5061038a6004803603810190610385919061336c565b610f32565b6040516103979190613ee9565b60405180910390f35b3480156103ac57600080fd5b506103c760048036038101906103c2919061321e565b610fbc565b6040516103d49190613c8c565b60405180910390f35b3480156103e957600080fd5b5061040460048036038101906103ff9190613278565b610fce565b6040516104119190613b6c565b60405180910390f35b34801561042657600080fd5b50610441600480360381019061043c9190612f8f565b611039565b60405161044e9190613ee9565b60405180910390f35b34801561046357600080fd5b5061047e6004803603810190610479919061321e565b611051565b60405161048d93929190613fdd565b60405180910390f35b3480156104a257600080fd5b506104ab611089565b6040516104b89190613ca7565b60405180910390f35b3480156104cd57600080fd5b506104e860048036038101906104e391906132b8565b6110c6565b6040516104f59190613ee9565b60405180910390f35b34801561050a57600080fd5b50610525600480360381019061052091906132f8565b6110f7565b6040516105329190613ee9565b60405180910390f35b34801561054757600080fd5b50610562600480360381019061055d919061304a565b61115f565b60405161056f9190613ee9565b60405180910390f35b34801561058457600080fd5b5061058d6113ff565b60405161059a9190613ee9565b60405180910390f35b3480156105af57600080fd5b506105b8611408565b6040516105c59190613ee9565b60405180910390f35b3480156105da57600080fd5b506105f560048036038101906105f091906131f1565b611412565b005b34801561060357600080fd5b5061061e6004803603810190610619919061321e565b61149a565b60405161062b9190613ee9565b60405180910390f35b34801561064057600080fd5b50610649611508565b005b34801561065757600080fd5b50610672600480360381019061066d919061321e565b61158c565b60405161067f9190613ee9565b60405180910390f35b34801561069457600080fd5b506106af60048036038101906106aa9190612f8f565b6115fa565b6040516106bc9190613ee9565b60405180910390f35b3480156106d157600080fd5b506106da611636565b6040516106e79190613a46565b60405180910390f35b3480156106fc57600080fd5b50610705611660565b6040516107129190613ca7565b60405180910390f35b34801561072757600080fd5b5061073061169d565b60405161073d9190613b87565b60405180910390f35b34801561075257600080fd5b5061076d60048036038101906107689190612f4f565b6116c1565b60405161077a9190613ee9565b60405180910390f35b34801561078f57600080fd5b506107aa60048036038101906107a5919061321e565b6116d5565b6040516107b79190613ee9565b60405180910390f35b3480156107cc57600080fd5b506107d56116e7565b6040516107e29190613c71565b60405180910390f35b60006107f68261170b565b9050919050565b60007f0000000000000000000000000000000000000000000000000000000000000000905090565b61082d611785565b73ffffffffffffffffffffffffffffffffffffffff1661084b611794565b73ffffffffffffffffffffffffffffffffffffffff16146108a1576040517f08c379a000000000000000000000000000000000000000000000000000000000815260040161089890613ce9565b60405180910390fd5b6108aa8161179c565b50565b6060600080546108bc90614545565b80601f01602080910402602001604051908101604052809291908181526020018280546108e890614545565b80156109355780601f1061090a57610100808354040283529160200191610935565b820191906000526020600020905b81548152906001019060200180831161091857829003601f168201915b5050505050905090565b60008061094e868686866115fa565b90506004600781111561096457610963614659565b5b61096d82610fbc565b600781111561097f5761097e614659565b5b146109bf576040517f08c379a00000000000000000000000000000000000000000000000000000000081526004016109b690613e29565b60405180910390fd5b6000600260009054906101000a900473ffffffffffffffffffffffffffffffffffffffff1673ffffffffffffffffffffffffffffffffffffffff16636a42b8f86040518163ffffffff1660e01b815260040160206040518083038186803b158015610a2957600080fd5b505afa158015610a3d573d6000803e3d6000fd5b505050506040513d601f19601f82011682018060405250810190610a61919061324b565b42610a6c91906142b4565b9050610a9e610a7a82611831565b6003600085815260200190815260200160002060000161188890919063ffffffff16565b60005b8751811015610d2257600260009054906101000a900473ffffffffffffffffffffffffffffffffffffffff1673ffffffffffffffffffffffffffffffffffffffff1663f2b06537898381518110610afb57610afa6146b7565b5b6020026020010151898481518110610b1657610b156146b7565b5b6020026020010151898581518110610b3157610b306146b7565b5b602002602001015186604051602001610b4d9493929190613ab3565b604051602081830303815290604052805190602001206040518263ffffffff1660e01b8152600401610b7f9190613b87565b60206040518083038186803b158015610b9757600080fd5b505afa158015610bab573d6000803e3d6000fd5b505050506040513d601f19601f82011682018060405250810190610bcf9190613121565b15610c0f576040517f08c379a0000000000000000000000000000000000000000000000000000000008152600401610c0690613d49565b60405180910390fd5b600260009054906101000a900473ffffffffffffffffffffffffffffffffffffffff1673ffffffffffffffffffffffffffffffffffffffff16633a66f901898381518110610c6057610c5f6146b7565b5b6020026020010151898481518110610c7b57610c7a6146b7565b5b6020026020010151898581518110610c9657610c956146b7565b5b6020026020010151866040518563ffffffff1660e01b8152600401610cbe9493929190613ab3565b602060405180830381600087803b158015610cd857600080fd5b505af1158015610cec573d6000803e3d6000fd5b505050506040513d601f19601f82011682018060405250810190610d10919061314e565b5080610d1b906145a8565b9050610aa1565b507f9a2e42fd6722813d69113e7d0079d3d940171428df7373df9c7f7617cfda28928282604051610d54929190613fb4565b60405180910390a18192505050949350505050565b600080610d78868686866115fa565b90506000610d8582610fbc565b905060046007811115610d9b57610d9a614659565b5b816007811115610dae57610dad614659565b5b1480610dde575060056007811115610dc957610dc8614659565b5b816007811115610ddc57610ddb614659565b5b145b610e1d576040517f08c379a0000000000000000000000000000000000000000000000000000000008152600401610e1490613e29565b60405180910390fd5b600180600084815260200190815260200160002060020160006101000a81548160ff0219169083151502179055507f712ae1383f79ac853f8d882153778e0260ef8f03b504e2866e0593e04d2b291f82604051610e7a9190613ee9565b60405180910390a1610e8f82888888886118b7565b8192505050949350505050565b6000610ef9600160008481526020019081526020016000206000016040518060200160405290816000820160009054906101000a900467ffffffffffffffff1667ffffffffffffffff1667ffffffffffffffff16815250506118cb565b67ffffffffffffffff169050919050565b60007f0000000000000000000000000000000000000000000000000000000000000000905090565b600080610f93610f8b7f150214d74d59b7d1e90c73fc22ef3d991dd0a76b046543d4d80ab92d2a50328f8989604051602001610f7093929190613bf5565b604051602081830303815290604052805190602001206118d9565b8686866118f3565b9050610fb087828860405180602001604052806000815250611a7e565b91505095945050505050565b6000610fc782611bd2565b9050919050565b60006005600084815260200190815260200160002060030160008373ffffffffffffffffffffffffffffffffffffffff1673ffffffffffffffffffffffffffffffffffffffff16815260200190815260200160002060009054906101000a900460ff16905092915050565b600061104785858585611cfd565b9050949350505050565b600080600080600560008681526020019081526020016000209050806000015481600101548260020154935093509350509193909250565b60606040518060400160405280600181526020017f3100000000000000000000000000000000000000000000000000000000000000815250905090565b6000806110d1611794565b90506110ee84828560405180602001604052806000815250611a7e565b91505092915050565b600080611102611794565b905061115486828787878080601f016020809104026020016040519081016040528093929190818152602001838380828437600081840152601f19601f82011690508083019250505050505050611a7e565b915050949350505050565b60008061117586868686805190602001206115fa565b905084518651146111bb576040517f08c379a00000000000000000000000000000000000000000000000000000000081526004016111b290613d29565b60405180910390fd5b83518651146111ff576040517f08c379a00000000000000000000000000000000000000000000000000000000081526004016111f690613d29565b60405180910390fd5b6000865111611243576040517f08c379a000000000000000000000000000000000000000000000000000000000815260040161123a90613da9565b60405180910390fd5b60006001600083815260200190815260200160002090506112a3816000016040518060200160405290816000820160009054906101000a900467ffffffffffffffff1667ffffffffffffffff1667ffffffffffffffff1681525050611d15565b6112e2576040517f08c379a00000000000000000000000000000000000000000000000000000000081526004016112d990613ea9565b60405180910390fd5b60006112f46112ef610f0a565b611831565b6112fd43611831565b611307919061430a565b9050600061131b6113166107fd565b611831565b82611326919061430a565b905061133e8284600001611d2f90919063ffffffff16565b6113548184600101611d2f90919063ffffffff16565b7f7d84a6263ae0d98d3329bd7b46bb4e8d6f98cd35a7adb45c274c8b7fd5ebd5e08461137e611794565b8b8b8d5167ffffffffffffffff81111561139b5761139a6146e6565b5b6040519080825280602002602001820160405280156113ce57816020015b60608152602001906001900390816113b95790505b508c88888e6040516113e899989796959493929190613f04565b60405180910390a183945050505050949350505050565b60006064905090565b6000600454905090565b61141a611785565b73ffffffffffffffffffffffffffffffffffffffff16611438611794565b73ffffffffffffffffffffffffffffffffffffffff161461148e576040517f08c379a000000000000000000000000000000000000000000000000000000000815260040161148590613ce9565b60405180910390fd5b61149781611d5e565b50565b60006114f7600360008481526020019081526020016000206000016040518060200160405290816000820160009054906101000a900467ffffffffffffffff1667ffffffffffffffff1667ffffffffffffffff1681525050611dfd565b67ffffffffffffffff169050919050565b600260009054906101000a900473ffffffffffffffffffffffffffffffffffffffff1673ffffffffffffffffffffffffffffffffffffffff16630e18b6816040518163ffffffff1660e01b8152600401600060405180830381600087803b15801561157257600080fd5b505af1158015611586573d6000803e3d6000fd5b50505050565b60006115e9600160008481526020019081526020016000206001016040518060200160405290816000820160009054906101000a900467ffffffffffffffff1667ffffffffffffffff1667ffffffffffffffff16815250506118cb565b67ffffffffffffffff169050919050565b6000848484846040516020016116139493929190613b12565b6040516020818303038152906040528051906020012060001c9050949350505050565b6000600260009054906101000a900473ffffffffffffffffffffffffffffffffffffffff16905090565b60606040518060400160405280602081526020017f737570706f72743d627261766f2671756f72756d3d666f722c6162737461696e815250905090565b7f150214d74d59b7d1e90c73fc22ef3d991dd0a76b046543d4d80ab92d2a50328f81565b60006116cd8383611e0b565b905092915050565b60006116e082611ec0565b9050919050565b7f000000000000000000000000000000000000000000000000000000000000000081565b60007f6e665ced000000000000000000000000000000000000000000000000000000007bffffffffffffffffffffffffffffffffffffffffffffffffffffffff1916827bffffffffffffffffffffffffffffffffffffffffffffffffffffffff1916148061177e575061177d82611f96565b5b9050919050565b600061178f612010565b905090565b600033905090565b6117a46113ff565b8111156117e6576040517f08c379a00000000000000000000000000000000000000000000000000000000081526004016117dd90613d09565b60405180910390fd5b60006004549050816004819055507f0553476bf02ef2726e8ce5ced78d63e26e602e4a2257b1f559418e24b46339978183604051611825929190613fb4565b60405180910390a15050565b600067ffffffffffffffff8016821115611880576040517f08c379a000000000000000000000000000000000000000000000000000000000815260040161187790613de9565b60405180910390fd5b819050919050565b808260000160006101000a81548167ffffffffffffffff021916908367ffffffffffffffff1602179055505050565b6118c4858585858561203a565b5050505050565b600081600001519050919050565b60006118ec6118e66121d2565b83612295565b9050919050565b60007f7fffffffffffffffffffffffffffffff5d576e7357a4501ddfe92f46681b20a08260001c111561195b576040517f08c379a000000000000000000000000000000000000000000000000000000000815260040161195290613d69565b60405180910390fd5b601b8460ff1614806119705750601c8460ff16145b6119af576040517f08c379a00000000000000000000000000000000000000000000000000000000081526004016119a690613dc9565b60405180910390fd5b6000600186868686604051600081526020016040526040516119d49493929190613c2c565b6020604051602081039080840390855afa1580156119f6573d6000803e3d6000fd5b505050602060405103519050600073ffffffffffffffffffffffffffffffffffffffff168173ffffffffffffffffffffffffffffffffffffffff161415611a72576040517f08c379a0000000000000000000000000000000000000000000000000000000008152600401611a6990613cc9565b60405180910390fd5b80915050949350505050565b60008060016000878152602001908152602001600020905060016007811115611aaa57611aa9614659565b5b611ab387610fbc565b6007811115611ac557611ac4614659565b5b14611b05576040517f08c379a0000000000000000000000000000000000000000000000000000000008152600401611afc90613d89565b60405180910390fd5b6000611b6386611b54846000016040518060200160405290816000820160009054906101000a900467ffffffffffffffff1667ffffffffffffffff1667ffffffffffffffff16815250506118cb565b67ffffffffffffffff166116c1565b9050611b71878787846122c8565b8573ffffffffffffffffffffffffffffffffffffffff167fb8e138887d0aa13bab447e82de9d5c1777041ecd21ca36ba824ff1e6c07ddda488878488604051611bbd9493929190614014565b60405180910390a28092505050949350505050565b600080611bde836124ce565b905060046007811115611bf457611bf3614659565b5b816007811115611c0757611c06614659565b5b14611c155780915050611cf8565b6000611c208461149a565b90506000811415611c35578192505050611cf8565b600260009054906101000a900473ffffffffffffffffffffffffffffffffffffffff1673ffffffffffffffffffffffffffffffffffffffff1663c1a287e26040518163ffffffff1660e01b815260040160206040518083038186803b158015611c9d57600080fd5b505afa158015611cb1573d6000803e3d6000fd5b505050506040513d601f19601f82011682018060405250810190611cd5919061324b565b81611ce091906142b4565b4210611cf157600692505050611cf8565b6005925050505b919050565b6000611d0b85858585612695565b9050949350505050565b600080826000015167ffffffffffffffff16149050919050565b808260000160006101000a81548167ffffffffffffffff021916908367ffffffffffffffff1602179055505050565b7f08f74ea46ef7894f65eabfb5e6e695de773a000b47c529ab559178069b226401600260009054906101000a900473ffffffffffffffffffffffffffffffffffffffff1682604051611db1929190613a61565b60405180910390a180600260006101000a81548173ffffffffffffffffffffffffffffffffffffffff021916908373ffffffffffffffffffffffffffffffffffffffff16021790555050565b600081600001519050919050565b60007f000000000000000000000000000000000000000000000000000000000000000073ffffffffffffffffffffffffffffffffffffffff16633a46b1a884846040518363ffffffff1660e01b8152600401611e68929190613a8a565b60206040518083038186803b158015611e8057600080fd5b505afa158015611e94573d6000803e3d6000fd5b505050506040513d601f19601f82011682018060405250810190611eb8919061324b565b905092915050565b6000611eca6113ff565b611ed2611408565b7f000000000000000000000000000000000000000000000000000000000000000073ffffffffffffffffffffffffffffffffffffffff16638e539e8c856040518263ffffffff1660e01b8152600401611f2b9190613ee9565b60206040518083038186803b158015611f4357600080fd5b505afa158015611f57573d6000803e3d6000fd5b505050506040513d601f19601f82011682018060405250810190611f7b919061324b565b611f859190614379565b611f8f9190614348565b9050919050565b60007fbf26d897000000000000000000000000000000000000000000000000000000007bffffffffffffffffffffffffffffffffffffffffffffffffffffffff1916827bffffffffffffffffffffffffffffffffffffffffffffffffffffffff191614806120095750612008826127e7565b5b9050919050565b6000600260009054906101000a900473ffffffffffffffffffffffffffffffffffffffff16905090565b60006120458661149a565b90506000811161208a576040517f08c379a000000000000000000000000000000000000000000000000000000000815260040161208190613e49565b60405180910390fd5b60005b85518110156121c957600260009054906101000a900473ffffffffffffffffffffffffffffffffffffffff1673ffffffffffffffffffffffffffffffffffffffff16630825f38f8683815181106120e7576120e66146b7565b5b6020026020010151888481518110612102576121016146b7565b5b602002602001015188858151811061211d5761211c6146b7565b5b6020026020010151888681518110612138576121376146b7565b5b6020026020010151876040518663ffffffff1660e01b81526004016121609493929190613ab3565b6000604051808303818588803b15801561217957600080fd5b505af115801561218d573d6000803e3d6000fd5b50505050506040513d6000823e3d601f19601f820116820180604052508101906121b791906131a8565b50806121c2906145a8565b905061208d565b50505050505050565b60007f0000000000000000000000000000000000000000000000000000000000000000461415612224577f00000000000000000000000000000000000000000000000000000000000000009050612292565b61228f7f00000000000000000000000000000000000000000000000000000000000000007f00000000000000000000000000000000000000000000000000000000000000007f0000000000000000000000000000000000000000000000000000000000000000612851565b90505b90565b600082826040516020016122aa929190613a0f565b60405160208183030381529060405280519060200120905092915050565b60006005600086815260200190815260200160002090508060030160008573ffffffffffffffffffffffffffffffffffffffff1673ffffffffffffffffffffffffffffffffffffffff16815260200190815260200160002060009054906101000a900460ff161561236e576040517f08c379a000000000000000000000000000000000000000000000000000000000815260040161236590613ec9565b60405180910390fd5b60018160030160008673ffffffffffffffffffffffffffffffffffffffff1673ffffffffffffffffffffffffffffffffffffffff16815260200190815260200160002060006101000a81548160ff021916908315150217905550600060028111156123dc576123db614659565b5b60ff168360ff16141561240957818160000160008282546123fd91906142b4565b925050819055506124c7565b6001600281111561241d5761241c614659565b5b60ff168360ff16141561244a578181600101600082825461243e91906142b4565b925050819055506124c6565b60028081111561245d5761245c614659565b5b60ff168360ff16141561248a578181600201600082825461247e91906142b4565b925050819055506124c5565b6040517f08c379a00000000000000000000000000000000000000000000000000000000081526004016124bc90613e89565b60405180910390fd5b5b5b5050505050565b60008060016000848152602001908152602001600020604051806080016040529081600082016040518060200160405290816000820160009054906101000a900467ffffffffffffffff1667ffffffffffffffff1667ffffffffffffffff16815250508152602001600182016040518060200160405290816000820160009054906101000a900467ffffffffffffffff1667ffffffffffffffff1667ffffffffffffffff168152505081526020016002820160009054906101000a900460ff161515151581526020016002820160019054906101000a900460ff16151515158152505090508060400151156125c7576007915050612690565b8060600151156125db576002915050612690565b6125e8816000015161288b565b156125f7576000915050612690565b612604816020015161288b565b15612613576001915050612690565b61262081602001516128a5565b156126555761262e836128d1565b801561263f575061263e83612927565b5b61264a57600361264d565b60045b915050612690565b6040517f08c379a000000000000000000000000000000000000000000000000000000000815260040161268790613e69565b60405180910390fd5b919050565b6000806126a486868686612952565b905060006126b18261149a565b905060008111156127da5760005b87518110156127ba57600260009054906101000a900473ffffffffffffffffffffffffffffffffffffffff1673ffffffffffffffffffffffffffffffffffffffff1663591fcdfe898381518110612719576127186146b7565b5b6020026020010151898481518110612734576127336146b7565b5b602002602001015189858151811061274f5761274e6146b7565b5b6020026020010151866040518563ffffffff1660e01b81526004016127779493929190613ab3565b600060405180830381600087803b15801561279157600080fd5b505af11580156127a5573d6000803e3d6000fd5b50505050806127b3906145a8565b90506126bf565b506127d960036000848152602001908152602001600020600001612aab565b5b8192505050949350505050565b60007f01ffc9a7000000000000000000000000000000000000000000000000000000007bffffffffffffffffffffffffffffffffffffffffffffffffffffffff1916827bffffffffffffffffffffffffffffffffffffffffffffffffffffffff1916149050919050565b6000838383463060405160200161286c959493929190613ba2565b6040516020818303038152906040528051906020012090509392505050565b600043826000015167ffffffffffffffff16119050919050565b60006128b082612ada565b80156128ca575043826000015167ffffffffffffffff1611155b9050919050565b60008060056000848152602001908152602001600020905080600201548160010154826000015461290291906142b4565b61290c91906142b4565b61291d61291885610e9c565b6116d5565b1115915050919050565b6000806005600084815260200190815260200160002090508060000154816001015411915050919050565b600080612961868686866115fa565b9050600061296e82610fbc565b90506002600781111561298457612983614659565b5b81600781111561299757612996614659565b5b141580156129ca5750600660078111156129b4576129b3614659565b5b8160078111156129c7576129c6614659565b5b14155b80156129fa57506007808111156129e4576129e3614659565b5b8160078111156129f7576129f6614659565b5b14155b612a39576040517f08c379a0000000000000000000000000000000000000000000000000000000008152600401612a3090613e09565b60405180910390fd5b600180600084815260200190815260200160002060020160016101000a81548160ff0219169083151502179055507f789cf55be980739dad1d0699b93b58e806b51c9d96619bfa8fe0a28abaa7b30c82604051612a969190613ee9565b60405180910390a18192505050949350505050565b60008160000160006101000a81548167ffffffffffffffff021916908367ffffffffffffffff16021790555050565b600080826000015167ffffffffffffffff16119050919050565b6000612b07612b0284614085565b614060565b90508083825260208201905082856020860282011115612b2a57612b2961471f565b5b60005b85811015612b5a5781612b408882612d28565b845260208401935060208301925050600181019050612b2d565b5050509392505050565b6000612b77612b72846140b1565b614060565b90508083825260208201905082856020860282011115612b9a57612b9961471f565b5b60005b85811015612be857813567ffffffffffffffff811115612bc057612bbf61471a565b5b808601612bcd8982612e1b565b85526020850194506020840193505050600181019050612b9d565b5050509392505050565b6000612c05612c00846140dd565b614060565b90508083825260208201905082856020860282011115612c2857612c2761471f565b5b60005b85811015612c585781612c3e8882612f10565b845260208401935060208301925050600181019050612c2b565b5050509392505050565b6000612c75612c7084614109565b614060565b905082815260208101848484011115612c9157612c90614724565b5b612c9c848285614503565b509392505050565b6000612cb7612cb284614109565b614060565b905082815260208101848484011115612cd357612cd2614724565b5b612cde848285614512565b509392505050565b6000612cf9612cf48461413a565b614060565b905082815260208101848484011115612d1557612d14614724565b5b612d20848285614503565b509392505050565b600081359050612d3781614c51565b92915050565b600082601f830112612d5257612d5161471a565b5b8135612d62848260208601612af4565b91505092915050565b600082601f830112612d8057612d7f61471a565b5b8135612d90848260208601612b64565b91505092915050565b600082601f830112612dae57612dad61471a565b5b8135612dbe848260208601612bf2565b91505092915050565b600081519050612dd681614c68565b92915050565b600081359050612deb81614c7f565b92915050565b600081519050612e0081614c7f565b92915050565b600081359050612e1581614c96565b92915050565b600082601f830112612e3057612e2f61471a565b5b8135612e40848260208601612c62565b91505092915050565b600082601f830112612e5e57612e5d61471a565b5b8151612e6e848260208601612ca4565b91505092915050565b600081359050612e8681614cad565b92915050565b60008083601f840112612ea257612ea161471a565b5b8235905067ffffffffffffffff811115612ebf57612ebe614715565b5b602083019150836001820283011115612edb57612eda61471f565b5b9250929050565b600082601f830112612ef757612ef661471a565b5b8135612f07848260208601612ce6565b91505092915050565b600081359050612f1f81614cc4565b92915050565b600081519050612f3481614cc4565b92915050565b600081359050612f4981614cdb565b92915050565b60008060408385031215612f6657612f6561472e565b5b6000612f7485828601612d28565b9250506020612f8585828601612f10565b9150509250929050565b60008060008060808587031215612fa957612fa861472e565b5b600085013567ffffffffffffffff811115612fc757612fc6614729565b5b612fd387828801612d3d565b945050602085013567ffffffffffffffff811115612ff457612ff3614729565b5b61300087828801612d99565b935050604085013567ffffffffffffffff81111561302157613020614729565b5b61302d87828801612d6b565b925050606061303e87828801612ddc565b91505092959194509250565b600080600080608085870312156130645761306361472e565b5b600085013567ffffffffffffffff81111561308257613081614729565b5b61308e87828801612d3d565b945050602085013567ffffffffffffffff8111156130af576130ae614729565b5b6130bb87828801612d99565b935050604085013567ffffffffffffffff8111156130dc576130db614729565b5b6130e887828801612d6b565b925050606085013567ffffffffffffffff81111561310957613108614729565b5b61311587828801612ee2565b91505092959194509250565b6000602082840312156131375761313661472e565b5b600061314584828501612dc7565b91505092915050565b6000602082840312156131645761316361472e565b5b600061317284828501612df1565b91505092915050565b6000602082840312156131915761319061472e565b5b600061319f84828501612e06565b91505092915050565b6000602082840312156131be576131bd61472e565b5b600082015167ffffffffffffffff8111156131dc576131db614729565b5b6131e884828501612e49565b91505092915050565b6000602082840312156132075761320661472e565b5b600061321584828501612e77565b91505092915050565b6000602082840312156132345761323361472e565b5b600061324284828501612f10565b91505092915050565b6000602082840312156132615761326061472e565b5b600061326f84828501612f25565b91505092915050565b6000806040838503121561328f5761328e61472e565b5b600061329d85828601612f10565b92505060206132ae85828601612d28565b9150509250929050565b600080604083850312156132cf576132ce61472e565b5b60006132dd85828601612f10565b92505060206132ee85828601612f3a565b9150509250929050565b600080600080606085870312156133125761331161472e565b5b600061332087828801612f10565b945050602061333187828801612f3a565b935050604085013567ffffffffffffffff81111561335257613351614729565b5b61335e87828801612e8c565b925092505092959194509250565b600080600080600060a086880312156133885761338761472e565b5b600061339688828901612f10565b95505060206133a788828901612f3a565b94505060406133b888828901612f3a565b93505060606133c988828901612ddc565b92505060806133da88828901612ddc565b9150509295509295909350565b60006133f3838361343f565b60208301905092915050565b600061340b8383613638565b905092915050565b600061341f83836136c8565b905092915050565b600061343383836139d3565b60208301905092915050565b613448816143d3565b82525050565b613457816143d3565b82525050565b6000613468826141ab565b6134728185614221565b935061347d8361416b565b8060005b838110156134ae57815161349588826133e7565b97506134a0836141ed565b925050600181019050613481565b5085935050505092915050565b60006134c6826141b6565b6134d08185614232565b9350836020820285016134e28561417b565b8060005b8581101561351e57848403895281516134ff85826133ff565b945061350a836141fa565b925060208a019950506001810190506134e6565b50829750879550505050505092915050565b600061353b826141c1565b6135458185614243565b9350836020820285016135578561418b565b8060005b8581101561359357848403895281516135748582613413565b945061357f83614207565b925060208a0199505060018101905061355b565b50829750879550505050505092915050565b60006135b0826141cc565b6135ba8185614254565b93506135c58361419b565b8060005b838110156135f65781516135dd8882613427565b97506135e883614214565b9250506001810190506135c9565b5085935050505092915050565b61360c816143f7565b82525050565b61361b81614403565b82525050565b61363261362d82614403565b6145f1565b82525050565b6000613643826141d7565b61364d8185614265565b935061365d818560208601614512565b61366681614733565b840191505092915050565b600061367c826141d7565b6136868185614276565b9350613696818560208601614512565b61369f81614733565b840191505092915050565b6136b3816144a9565b82525050565b6136c2816144bb565b82525050565b60006136d3826141e2565b6136dd8185614287565b93506136ed818560208601614512565b6136f681614733565b840191505092915050565b600061370c826141e2565b6137168185614298565b9350613726818560208601614512565b61372f81614733565b840191505092915050565b6000613747601883614298565b915061375282614744565b602082019050919050565b600061376a601883614298565b91506137758261476d565b602082019050919050565b600061378d604383614298565b915061379882614796565b606082019050919050565b60006137b06002836142a9565b91506137bb8261480b565b600282019050919050565b60006137d3602183614298565b91506137de82614834565b604082019050919050565b60006137f6604283614298565b915061380182614883565b606082019050919050565b6000613819602283614298565b9150613824826148f8565b604082019050919050565b600061383c602383614298565b915061384782614947565b604082019050919050565b600061385f601883614298565b915061386a82614996565b602082019050919050565b6000613882602283614298565b915061388d826149bf565b604082019050919050565b60006138a5602683614298565b91506138b082614a0e565b604082019050919050565b60006138c8601d83614298565b91506138d382614a5d565b602082019050919050565b60006138eb602183614298565b91506138f682614a86565b604082019050919050565b600061390e603183614298565b915061391982614ad5565b604082019050919050565b6000613931601d83614298565b915061393c82614b24565b602082019050919050565b6000613954603583614298565b915061395f82614b4d565b604082019050919050565b6000613977602183614298565b915061398282614b9c565b604082019050919050565b600061399a600083614298565b91506139a582614beb565b600082019050919050565b60006139bd602983614298565b91506139c882614bee565b604082019050919050565b6139dc8161447e565b82525050565b6139eb8161447e565b82525050565b6139fa816144f1565b82525050565b613a098161449c565b82525050565b6000613a1a826137a3565b9150613a268285613621565b602082019150613a368284613621565b6020820191508190509392505050565b6000602082019050613a5b600083018461344e565b92915050565b6000604082019050613a76600083018561344e565b613a83602083018461344e565b9392505050565b6000604082019050613a9f600083018561344e565b613aac60208301846139e2565b9392505050565b600060a082019050613ac8600083018761344e565b613ad560208301866139e2565b8181036040830152613ae68161398d565b90508181036060830152613afa8185613671565b9050613b0960808301846139e2565b95945050505050565b60006080820190508181036000830152613b2c818761345d565b90508181036020830152613b4081866135a5565b90508181036040830152613b5481856134bb565b9050613b636060830184613612565b95945050505050565b6000602082019050613b816000830184613603565b92915050565b6000602082019050613b9c6000830184613612565b92915050565b600060a082019050613bb76000830188613612565b613bc46020830187613612565b613bd16040830186613612565b613bde60608301856139e2565b613beb608083018461344e565b9695505050505050565b6000606082019050613c0a6000830186613612565b613c1760208301856139e2565b613c246040830184613a00565b949350505050565b6000608082019050613c416000830187613612565b613c4e6020830186613a00565b613c5b6040830185613612565b613c686060830184613612565b95945050505050565b6000602082019050613c8660008301846136aa565b92915050565b6000602082019050613ca160008301846136b9565b92915050565b60006020820190508181036000830152613cc18184613701565b905092915050565b60006020820190508181036000830152613ce28161373a565b9050919050565b60006020820190508181036000830152613d028161375d565b9050919050565b60006020820190508181036000830152613d2281613780565b9050919050565b60006020820190508181036000830152613d42816137c6565b9050919050565b60006020820190508181036000830152613d62816137e9565b9050919050565b60006020820190508181036000830152613d828161380c565b9050919050565b60006020820190508181036000830152613da28161382f565b9050919050565b60006020820190508181036000830152613dc281613852565b9050919050565b60006020820190508181036000830152613de281613875565b9050919050565b60006020820190508181036000830152613e0281613898565b9050919050565b60006020820190508181036000830152613e22816138bb565b9050919050565b60006020820190508181036000830152613e42816138de565b9050919050565b60006020820190508181036000830152613e6281613901565b9050919050565b60006020820190508181036000830152613e8281613924565b9050919050565b60006020820190508181036000830152613ea281613947565b9050919050565b60006020820190508181036000830152613ec28161396a565b9050919050565b60006020820190508181036000830152613ee2816139b0565b9050919050565b6000602082019050613efe60008301846139e2565b92915050565b600061012082019050613f1a600083018c6139e2565b613f27602083018b61344e565b8181036040830152613f39818a61345d565b90508181036060830152613f4d81896135a5565b90508181036080830152613f618188613530565b905081810360a0830152613f7581876134bb565b9050613f8460c08301866139f1565b613f9160e08301856139f1565b818103610100830152613fa48184613701565b90509a9950505050505050505050565b6000604082019050613fc960008301856139e2565b613fd660208301846139e2565b9392505050565b6000606082019050613ff260008301866139e2565b613fff60208301856139e2565b61400c60408301846139e2565b949350505050565b600060808201905061402960008301876139e2565b6140366020830186613a00565b61404360408301856139e2565b81810360608301526140558184613701565b905095945050505050565b600061406a61407b565b90506140768282614577565b919050565b6000604051905090565b600067ffffffffffffffff8211156140a05761409f6146e6565b5b602082029050602081019050919050565b600067ffffffffffffffff8211156140cc576140cb6146e6565b5b602082029050602081019050919050565b600067ffffffffffffffff8211156140f8576140f76146e6565b5b602082029050602081019050919050565b600067ffffffffffffffff821115614124576141236146e6565b5b61412d82614733565b9050602081019050919050565b600067ffffffffffffffff821115614155576141546146e6565b5b61415e82614733565b9050602081019050919050565b6000819050602082019050919050565b6000819050602082019050919050565b6000819050602082019050919050565b6000819050602082019050919050565b600081519050919050565b600081519050919050565b600081519050919050565b600081519050919050565b600081519050919050565b600081519050919050565b6000602082019050919050565b6000602082019050919050565b6000602082019050919050565b6000602082019050919050565b600082825260208201905092915050565b600082825260208201905092915050565b600082825260208201905092915050565b600082825260208201905092915050565b600082825260208201905092915050565b600082825260208201905092915050565b600082825260208201905092915050565b600082825260208201905092915050565b600081905092915050565b60006142bf8261447e565b91506142ca8361447e565b9250827fffffffffffffffffffffffffffffffffffffffffffffffffffffffffffffffff038211156142ff576142fe6145fb565b5b828201905092915050565b600061431582614488565b915061432083614488565b92508267ffffffffffffffff0382111561433d5761433c6145fb565b5b828201905092915050565b60006143538261447e565b915061435e8361447e565b92508261436e5761436d61462a565b5b828204905092915050565b60006143848261447e565b915061438f8361447e565b9250817fffffffffffffffffffffffffffffffffffffffffffffffffffffffffffffffff04831182151516156143c8576143c76145fb565b5b828202905092915050565b60006143de8261445e565b9050919050565b60006143f08261445e565b9050919050565b60008115159050919050565b6000819050919050565b60007fffffffff0000000000000000000000000000000000000000000000000000000082169050919050565b6000614444826143e5565b9050919050565b600081905061445982614c3d565b919050565b600073ffffffffffffffffffffffffffffffffffffffff82169050919050565b6000819050919050565b600067ffffffffffffffff82169050919050565b600060ff82169050919050565b60006144b4826144cd565b9050919050565b60006144c68261444b565b9050919050565b60006144d8826144df565b9050919050565b60006144ea8261445e565b9050919050565b60006144fc82614488565b9050919050565b82818337600083830152505050565b60005b83811015614530578082015181840152602081019050614515565b8381111561453f576000848401525b50505050565b6000600282049050600182168061455d57607f821691505b6020821081141561457157614570614688565b5b50919050565b61458082614733565b810181811067ffffffffffffffff8211171561459f5761459e6146e6565b5b80604052505050565b60006145b38261447e565b91507fffffffffffffffffffffffffffffffffffffffffffffffffffffffffffffffff8214156145e6576145e56145fb565b5b600182019050919050565b6000819050919050565b7f4e487b7100000000000000000000000000000000000000000000000000000000600052601160045260246000fd5b7f4e487b7100000000000000000000000000000000000000000000000000000000600052601260045260246000fd5b7f4e487b7100000000000000000000000000000000000000000000000000000000600052602160045260246000fd5b7f4e487b7100000000000000000000000000000000000000000000000000000000600052602260045260246000fd5b7f4e487b7100000000000000000000000000000000000000000000000000000000600052603260045260246000fd5b7f4e487b7100000000000000000000000000000000000000000000000000000000600052604160045260246000fd5b600080fd5b600080fd5b600080fd5b600080fd5b600080fd5b600080fd5b6000601f19601f8301169050919050565b7f45434453413a20696e76616c6964207369676e61747572650000000000000000600082015250565b7f476f7665726e6f723a206f6e6c79476f7665726e616e63650000000000000000600082015250565b7f476f7665726e6f72566f74657351756f72756d4672616374696f6e3a2071756f60008201527f72756d4e756d657261746f72206f7665722071756f72756d44656e6f6d696e6160208201527f746f720000000000000000000000000000000000000000000000000000000000604082015250565b7f1901000000000000000000000000000000000000000000000000000000000000600082015250565b7f476f7665726e6f723a20696e76616c69642070726f706f73616c206c656e677460008201527f6800000000000000000000000000000000000000000000000000000000000000602082015250565b7f476f7665726e6f7254696d656c6f636b436f6d706f756e643a206964656e746960008201527f63616c2070726f706f73616c20616374696f6e20616c7265616479207175657560208201527f6564000000000000000000000000000000000000000000000000000000000000604082015250565b7f45434453413a20696e76616c6964207369676e6174757265202773272076616c60008201527f7565000000000000000000000000000000000000000000000000000000000000602082015250565b7f476f7665726e6f723a20766f7465206e6f742063757272656e746c792061637460008201527f6976650000000000000000000000000000000000000000000000000000000000602082015250565b7f476f7665726e6f723a20656d7074792070726f706f73616c0000000000000000600082015250565b7f45434453413a20696e76616c6964207369676e6174757265202776272076616c60008201527f7565000000000000000000000000000000000000000000000000000000000000602082015250565b7f53616665436173743a2076616c756520646f65736e27742066697420696e203660008201527f3420626974730000000000000000000000000000000000000000000000000000602082015250565b7f476f7665726e6f723a2070726f706f73616c206e6f7420616374697665000000600082015250565b7f476f7665726e6f723a2070726f706f73616c206e6f742073756363657373667560008201527f6c00000000000000000000000000000000000000000000000000000000000000602082015250565b7f476f7665726e6f7254696d656c6f636b436f6d706f756e643a2070726f706f7360008201527f616c206e6f742079657420717565756564000000000000000000000000000000602082015250565b7f476f7665726e6f723a20756e6b6e6f776e2070726f706f73616c206964000000600082015250565b7f476f7665726e6f72566f74696e6753696d706c653a20696e76616c696420766160008201527f6c756520666f7220656e756d20566f7465547970650000000000000000000000602082015250565b7f476f7665726e6f723a2070726f706f73616c20616c726561647920657869737460008201527f7300000000000000000000000000000000000000000000000000000000000000602082015250565b50565b7f476f7665726e6f72566f74696e6753696d706c653a20766f746520616c72656160008201527f6479206361737465640000000000000000000000000000000000000000000000602082015250565b60088110614c4e57614c4d614659565b5b50565b614c5a816143d3565b8114614c6557600080fd5b50565b614c71816143f7565b8114614c7c57600080fd5b50565b614c8881614403565b8114614c9357600080fd5b50565b614c9f8161440d565b8114614caa57600080fd5b50565b614cb681614439565b8114614cc157600080fd5b50565b614ccd8161447e565b8114614cd857600080fd5b50565b614ce48161449c565b8114614cef57600080fd5b5056fea26469706673582212200e39a42c0e2872bd1f680beaae489807280777d6fae4d48fbf5d08665a8aca5c64736f6c63430008070033",
  "immutableReferences": {
    "5527": [
      {
        "length": 32,
        "start": 5865
      },
      {
        "length": 32,
        "start": 7695
      },
      {
        "length": 32,
        "start": 7892
      }
    ],
    "10593": [
      {
        "length": 32,
        "start": 3854
      }
    ],
    "10595": [
      {
        "length": 32,
        "start": 2049
      }
    ],
    "24333": [
      {
        "length": 32,
        "start": 8702
      }
    ],
    "24335": [
      {
        "length": 32,
        "start": 8662
      }
    ],
    "24337": [
      {
        "length": 32,
        "start": 8778
      }
    ],
    "24339": [
      {
        "length": 32,
        "start": 8811
      }
    ],
    "24341": [
      {
        "length": 32,
        "start": 8745
      }
    ]
  },
  "source": "// SPDX-License-Identifier: MIT\n\npragma solidity ^0.8.0;\n\nimport \"../governance/extensions/GovernorTimelockCompound.sol\";\nimport \"../governance/extensions/GovernorCountingSimple.sol\";\nimport \"../governance/extensions/GovernorVotesQuorumFraction.sol\";\n\ncontract GovernorTimelockCompoundMock is GovernorTimelockCompound, GovernorVotesQuorumFraction, GovernorCountingSimple {\n    uint256 immutable _votingDelay;\n    uint256 immutable _votingPeriod;\n\n    constructor(\n        string memory name_,\n        ERC20Votes token_,\n        uint256 votingDelay_,\n        uint256 votingPeriod_,\n        ICompoundTimelock timelock_,\n        uint256 quorumNumerator_\n    )\n        Governor(name_)\n        GovernorTimelockCompound(timelock_)\n        GovernorVotes(token_)\n        GovernorVotesQuorumFraction(quorumNumerator_)\n    {\n        _votingDelay = votingDelay_;\n        _votingPeriod = votingPeriod_;\n    }\n\n    function supportsInterface(bytes4 interfaceId)\n        public\n        view\n        virtual\n        override(Governor, GovernorTimelockCompound)\n        returns (bool)\n    {\n        return super.supportsInterface(interfaceId);\n    }\n\n    function votingDelay() public view override(IGovernor, Governor) returns (uint256) {\n        return _votingDelay;\n    }\n\n    function votingPeriod() public view override(IGovernor, Governor) returns (uint256) {\n        return _votingPeriod;\n    }\n\n    function quorum(uint256 blockNumber)\n        public\n        view\n        override(IGovernor, Governor, GovernorVotesQuorumFraction)\n        returns (uint256)\n    {\n        return super.quorum(blockNumber);\n    }\n\n    function cancel(\n        address[] memory targets,\n        uint256[] memory values,\n        bytes[] memory calldatas,\n        bytes32 salt\n    ) public returns (uint256 proposalId) {\n        return _cancel(targets, values, calldatas, salt);\n    }\n\n    /**\n     * Overriding nightmare\n     */\n    function state(uint256 proposalId)\n        public\n        view\n        virtual\n        override(Governor, GovernorTimelockCompound)\n        returns (ProposalState)\n    {\n        return super.state(proposalId);\n    }\n\n    function _execute(\n        uint256 proposalId,\n        address[] memory targets,\n        uint256[] memory values,\n        bytes[] memory calldatas,\n        bytes32 descriptionHash\n    ) internal virtual override(Governor, GovernorTimelockCompound) {\n        super._execute(proposalId, targets, values, calldatas, descriptionHash);\n    }\n\n    function _cancel(\n        address[] memory targets,\n        uint256[] memory values,\n        bytes[] memory calldatas,\n        bytes32 salt\n    ) internal virtual override(Governor, GovernorTimelockCompound) returns (uint256 proposalId) {\n        return super._cancel(targets, values, calldatas, salt);\n    }\n\n    function getVotes(address account, uint256 blockNumber)\n        public\n        view\n        virtual\n        override(IGovernor, Governor, GovernorVotes)\n        returns (uint256)\n    {\n        return super.getVotes(account, blockNumber);\n    }\n\n    function _executor() internal view virtual override(Governor, GovernorTimelockCompound) returns (address) {\n        return super._executor();\n    }\n}\n",
  "sourcePath": "/home/tenten/Projects/upcgold.io/src/contracts/openzeppelin-contracts/contracts/mocks/GovernorTimelockCompoundMock.sol",
  "compiler": {
    "name": "solc",
    "version": "0.8.7+commit.e28d00a7.Emscripten.clang"
  },
  "schemaVersion": "3.2.3",
  "updatedAt": "2021-08-12T03:39:31.337Z",
  "devdoc": {
    "kind": "dev",
    "methods": {
      "COUNTING_MODE()": {
        "details": "See {IGovernor-COUNTING_MODE}."
      },
      "__acceptAdmin()": {
        "details": "Accept admin right over the timelock."
      },
      "castVote(uint256,uint8)": {
        "details": "See {IGovernor-castVote}."
      },
      "castVoteBySig(uint256,uint8,uint8,bytes32,bytes32)": {
        "details": "See {IGovernor-castVoteBySig}."
      },
      "castVoteWithReason(uint256,uint8,string)": {
        "details": "See {IGovernor-castVoteWithReason}."
      },
      "execute(address[],uint256[],bytes[],bytes32)": {
        "details": "See {IGovernor-execute}."
      },
      "hasVoted(uint256,address)": {
        "details": "See {IGovernor-hasVoted}."
      },
      "hashProposal(address[],uint256[],bytes[],bytes32)": {
        "details": "See {IGovernor-hashProposal}. The proposal id is produced by hashing the RLC encoded `targets` array, the `values` array, the `calldatas` array and the descriptionHash (bytes32 which itself is the keccak256 hash of the description string). This proposal id can be produced from the proposal data which is part of the {ProposalCreated} event. It can even be computed in advance, before the proposal is submitted. Note that the chainId and the governor address are not part of the proposal id computation. Consequently, the same proposal (with same operation and same description) will have the same id if submitted on multiple governors accross multiple networks. This also means that in order to execute the same operation twice (on the same governor) the proposer will have to change the description in order to avoid proposal id conflicts."
      },
      "name()": {
        "details": "See {IGovernor-name}."
      },
      "proposalDeadline(uint256)": {
        "details": "See {IGovernor-proposalDeadline}."
      },
      "proposalEta(uint256)": {
        "details": "Public accessor to check the eta of a queued proposal"
      },
      "proposalSnapshot(uint256)": {
        "details": "See {IGovernor-proposalSnapshot}."
      },
      "proposalVotes(uint256)": {
        "details": "Accessor to the internal vote counts."
      },
      "propose(address[],uint256[],bytes[],string)": {
        "details": "See {IGovernor-propose}."
      },
      "queue(address[],uint256[],bytes[],bytes32)": {
        "details": "Function to queue a proposal to the timelock."
      },
      "timelock()": {
        "details": "Public accessor to check the address of the timelock"
      },
      "updateTimelock(address)": {
        "details": "Public endpoint to update the underlying timelock instance. Restricted to the timelock itself, so updates must be proposed, scheduled and executed using the {Governor} workflow. For security reason, the timelock must be handed over to another admin before setting up a new one. The two operations (hand over the timelock) and do the update can be batched in a single proposal. Note that if the timelock admin has been handed over in a previous operation, we refuse updates made through the timelock if admin of the timelock has already been accepted and the operation is executed outside the scope of governance."
      },
      "version()": {
        "details": "See {IGovernor-version}."
      }
    },
    "version": 1
  },
  "userdoc": {
    "kind": "user",
    "methods": {
      "state(uint256)": {
        "notice": "Overriding nightmare"
      }
    },
    "version": 1
  }
}