{
  "contractName": "GovernorTimelockControlMock",
  "abi": [
    {
      "inputs": [
        {
          "internalType": "string",
          "name": "name_",
          "type": "string"
        },
        {
          "internalType": "contract ERC20Votes",
          "name": "token_",
          "type": "address"
        },
        {
          "internalType": "uint256",
          "name": "votingDelay_",
          "type": "uint256"
        },
        {
          "internalType": "uint256",
          "name": "votingPeriod_",
          "type": "uint256"
        },
        {
          "internalType": "contract TimelockController",
          "name": "timelock_",
          "type": "address"
        },
        {
          "internalType": "uint256",
          "name": "quorumNumerator_",
          "type": "uint256"
        }
      ],
      "stateMutability": "nonpayable",
      "type": "constructor"
    },
    {
      "anonymous": false,
      "inputs": [
        {
          "indexed": false,
          "internalType": "uint256",
          "name": "proposalId",
          "type": "uint256"
        }
      ],
      "name": "ProposalCanceled",
      "type": "event"
    },
    {
      "anonymous": false,
      "inputs": [
        {
          "indexed": false,
          "internalType": "uint256",
          "name": "proposalId",
          "type": "uint256"
        },
        {
          "indexed": false,
          "internalType": "address",
          "name": "proposer",
          "type": "address"
        },
        {
          "indexed": false,
          "internalType": "address[]",
          "name": "targets",
          "type": "address[]"
        },
        {
          "indexed": false,
          "internalType": "uint256[]",
          "name": "values",
          "type": "uint256[]"
        },
        {
          "indexed": false,
          "internalType": "string[]",
          "name": "signatures",
          "type": "string[]"
        },
        {
          "indexed": false,
          "internalType": "bytes[]",
          "name": "calldatas",
          "type": "bytes[]"
        },
        {
          "indexed": false,
          "internalType": "uint256",
          "name": "startBlock",
          "type": "uint256"
        },
        {
          "indexed": false,
          "internalType": "uint256",
          "name": "endBlock",
          "type": "uint256"
        },
        {
          "indexed": false,
          "internalType": "string",
          "name": "description",
          "type": "string"
        }
      ],
      "name": "ProposalCreated",
      "type": "event"
    },
    {
      "anonymous": false,
      "inputs": [
        {
          "indexed": false,
          "internalType": "uint256",
          "name": "proposalId",
          "type": "uint256"
        }
      ],
      "name": "ProposalExecuted",
      "type": "event"
    },
    {
      "anonymous": false,
      "inputs": [
        {
          "indexed": false,
          "internalType": "uint256",
          "name": "proposalId",
          "type": "uint256"
        },
        {
          "indexed": false,
          "internalType": "uint256",
          "name": "eta",
          "type": "uint256"
        }
      ],
      "name": "ProposalQueued",
      "type": "event"
    },
    {
      "anonymous": false,
      "inputs": [
        {
          "indexed": false,
          "internalType": "uint256",
          "name": "oldQuorumNumerator",
          "type": "uint256"
        },
        {
          "indexed": false,
          "internalType": "uint256",
          "name": "newQuorumNumerator",
          "type": "uint256"
        }
      ],
      "name": "QuorumNumeratorUpdated",
      "type": "event"
    },
    {
      "anonymous": false,
      "inputs": [
        {
          "indexed": false,
          "internalType": "address",
          "name": "oldTimelock",
          "type": "address"
        },
        {
          "indexed": false,
          "internalType": "address",
          "name": "newTimelock",
          "type": "address"
        }
      ],
      "name": "TimelockChange",
      "type": "event"
    },
    {
      "anonymous": false,
      "inputs": [
        {
          "indexed": true,
          "internalType": "address",
          "name": "voter",
          "type": "address"
        },
        {
          "indexed": false,
          "internalType": "uint256",
          "name": "proposalId",
          "type": "uint256"
        },
        {
          "indexed": false,
          "internalType": "uint8",
          "name": "support",
          "type": "uint8"
        },
        {
          "indexed": false,
          "internalType": "uint256",
          "name": "weight",
          "type": "uint256"
        },
        {
          "indexed": false,
          "internalType": "string",
          "name": "reason",
          "type": "string"
        }
      ],
      "name": "VoteCast",
      "type": "event"
    },
    {
      "inputs": [],
      "name": "BALLOT_TYPEHASH",
      "outputs": [
        {
          "internalType": "bytes32",
          "name": "",
          "type": "bytes32"
        }
      ],
      "stateMutability": "view",
      "type": "function"
    },
    {
      "inputs": [],
      "name": "COUNTING_MODE",
      "outputs": [
        {
          "internalType": "string",
          "name": "",
          "type": "string"
        }
      ],
      "stateMutability": "pure",
      "type": "function"
    },
    {
      "inputs": [
        {
          "internalType": "uint256",
          "name": "proposalId",
          "type": "uint256"
        },
        {
          "internalType": "uint8",
          "name": "support",
          "type": "uint8"
        }
      ],
      "name": "castVote",
      "outputs": [
        {
          "internalType": "uint256",
          "name": "",
          "type": "uint256"
        }
      ],
      "stateMutability": "nonpayable",
      "type": "function"
    },
    {
      "inputs": [
        {
          "internalType": "uint256",
          "name": "proposalId",
          "type": "uint256"
        },
        {
          "internalType": "uint8",
          "name": "support",
          "type": "uint8"
        },
        {
          "internalType": "uint8",
          "name": "v",
          "type": "uint8"
        },
        {
          "internalType": "bytes32",
          "name": "r",
          "type": "bytes32"
        },
        {
          "internalType": "bytes32",
          "name": "s",
          "type": "bytes32"
        }
      ],
      "name": "castVoteBySig",
      "outputs": [
        {
          "internalType": "uint256",
          "name": "",
          "type": "uint256"
        }
      ],
      "stateMutability": "nonpayable",
      "type": "function"
    },
    {
      "inputs": [
        {
          "internalType": "uint256",
          "name": "proposalId",
          "type": "uint256"
        },
        {
          "internalType": "uint8",
          "name": "support",
          "type": "uint8"
        },
        {
          "internalType": "string",
          "name": "reason",
          "type": "string"
        }
      ],
      "name": "castVoteWithReason",
      "outputs": [
        {
          "internalType": "uint256",
          "name": "",
          "type": "uint256"
        }
      ],
      "stateMutability": "nonpayable",
      "type": "function"
    },
    {
      "inputs": [
        {
          "internalType": "address[]",
          "name": "targets",
          "type": "address[]"
        },
        {
          "internalType": "uint256[]",
          "name": "values",
          "type": "uint256[]"
        },
        {
          "internalType": "bytes[]",
          "name": "calldatas",
          "type": "bytes[]"
        },
        {
          "internalType": "bytes32",
          "name": "descriptionHash",
          "type": "bytes32"
        }
      ],
      "name": "execute",
      "outputs": [
        {
          "internalType": "uint256",
          "name": "",
          "type": "uint256"
        }
      ],
      "stateMutability": "payable",
      "type": "function"
    },
    {
      "inputs": [
        {
          "internalType": "uint256",
          "name": "proposalId",
          "type": "uint256"
        },
        {
          "internalType": "address",
          "name": "account",
          "type": "address"
        }
      ],
      "name": "hasVoted",
      "outputs": [
        {
          "internalType": "bool",
          "name": "",
          "type": "bool"
        }
      ],
      "stateMutability": "view",
      "type": "function"
    },
    {
      "inputs": [
        {
          "internalType": "address[]",
          "name": "targets",
          "type": "address[]"
        },
        {
          "internalType": "uint256[]",
          "name": "values",
          "type": "uint256[]"
        },
        {
          "internalType": "bytes[]",
          "name": "calldatas",
          "type": "bytes[]"
        },
        {
          "internalType": "bytes32",
          "name": "descriptionHash",
          "type": "bytes32"
        }
      ],
      "name": "hashProposal",
      "outputs": [
        {
          "internalType": "uint256",
          "name": "",
          "type": "uint256"
        }
      ],
      "stateMutability": "pure",
      "type": "function"
    },
    {
      "inputs": [],
      "name": "name",
      "outputs": [
        {
          "internalType": "string",
          "name": "",
          "type": "string"
        }
      ],
      "stateMutability": "view",
      "type": "function"
    },
    {
      "inputs": [
        {
          "internalType": "uint256",
          "name": "proposalId",
          "type": "uint256"
        }
      ],
      "name": "proposalDeadline",
      "outputs": [
        {
          "internalType": "uint256",
          "name": "",
          "type": "uint256"
        }
      ],
      "stateMutability": "view",
      "type": "function"
    },
    {
      "inputs": [
        {
          "internalType": "uint256",
          "name": "proposalId",
          "type": "uint256"
        }
      ],
      "name": "proposalEta",
      "outputs": [
        {
          "internalType": "uint256",
          "name": "",
          "type": "uint256"
        }
      ],
      "stateMutability": "view",
      "type": "function"
    },
    {
      "inputs": [
        {
          "internalType": "uint256",
          "name": "proposalId",
          "type": "uint256"
        }
      ],
      "name": "proposalSnapshot",
      "outputs": [
        {
          "internalType": "uint256",
          "name": "",
          "type": "uint256"
        }
      ],
      "stateMutability": "view",
      "type": "function"
    },
    {
      "inputs": [
        {
          "internalType": "uint256",
          "name": "proposalId",
          "type": "uint256"
        }
      ],
      "name": "proposalVotes",
      "outputs": [
        {
          "internalType": "uint256",
          "name": "againstVotes",
          "type": "uint256"
        },
        {
          "internalType": "uint256",
          "name": "forVotes",
          "type": "uint256"
        },
        {
          "internalType": "uint256",
          "name": "abstainVotes",
          "type": "uint256"
        }
      ],
      "stateMutability": "view",
      "type": "function"
    },
    {
      "inputs": [
        {
          "internalType": "address[]",
          "name": "targets",
          "type": "address[]"
        },
        {
          "internalType": "uint256[]",
          "name": "values",
          "type": "uint256[]"
        },
        {
          "internalType": "bytes[]",
          "name": "calldatas",
          "type": "bytes[]"
        },
        {
          "internalType": "string",
          "name": "description",
          "type": "string"
        }
      ],
      "name": "propose",
      "outputs": [
        {
          "internalType": "uint256",
          "name": "",
          "type": "uint256"
        }
      ],
      "stateMutability": "nonpayable",
      "type": "function"
    },
    {
      "inputs": [
        {
          "internalType": "address[]",
          "name": "targets",
          "type": "address[]"
        },
        {
          "internalType": "uint256[]",
          "name": "values",
          "type": "uint256[]"
        },
        {
          "internalType": "bytes[]",
          "name": "calldatas",
          "type": "bytes[]"
        },
        {
          "internalType": "bytes32",
          "name": "descriptionHash",
          "type": "bytes32"
        }
      ],
      "name": "queue",
      "outputs": [
        {
          "internalType": "uint256",
          "name": "",
          "type": "uint256"
        }
      ],
      "stateMutability": "nonpayable",
      "type": "function"
    },
    {
      "inputs": [],
      "name": "quorumDenominator",
      "outputs": [
        {
          "internalType": "uint256",
          "name": "",
          "type": "uint256"
        }
      ],
      "stateMutability": "view",
      "type": "function"
    },
    {
      "inputs": [],
      "name": "quorumNumerator",
      "outputs": [
        {
          "internalType": "uint256",
          "name": "",
          "type": "uint256"
        }
      ],
      "stateMutability": "view",
      "type": "function"
    },
    {
      "inputs": [],
      "name": "timelock",
      "outputs": [
        {
          "internalType": "address",
          "name": "",
          "type": "address"
        }
      ],
      "stateMutability": "view",
      "type": "function"
    },
    {
      "inputs": [],
      "name": "token",
      "outputs": [
        {
          "internalType": "contract ERC20Votes",
          "name": "",
          "type": "address"
        }
      ],
      "stateMutability": "view",
      "type": "function"
    },
    {
      "inputs": [
        {
          "internalType": "uint256",
          "name": "newQuorumNumerator",
          "type": "uint256"
        }
      ],
      "name": "updateQuorumNumerator",
      "outputs": [],
      "stateMutability": "nonpayable",
      "type": "function"
    },
    {
      "inputs": [
        {
          "internalType": "contract TimelockController",
          "name": "newTimelock",
          "type": "address"
        }
      ],
      "name": "updateTimelock",
      "outputs": [],
      "stateMutability": "nonpayable",
      "type": "function"
    },
    {
      "inputs": [],
      "name": "version",
      "outputs": [
        {
          "internalType": "string",
          "name": "",
          "type": "string"
        }
      ],
      "stateMutability": "view",
      "type": "function"
    },
    {
      "inputs": [
        {
          "internalType": "bytes4",
          "name": "interfaceId",
          "type": "bytes4"
        }
      ],
      "name": "supportsInterface",
      "outputs": [
        {
          "internalType": "bool",
          "name": "",
          "type": "bool"
        }
      ],
      "stateMutability": "view",
      "type": "function"
    },
    {
      "inputs": [],
      "name": "votingDelay",
      "outputs": [
        {
          "internalType": "uint256",
          "name": "",
          "type": "uint256"
        }
      ],
      "stateMutability": "view",
      "type": "function"
    },
    {
      "inputs": [],
      "name": "votingPeriod",
      "outputs": [
        {
          "internalType": "uint256",
          "name": "",
          "type": "uint256"
        }
      ],
      "stateMutability": "view",
      "type": "function"
    },
    {
      "inputs": [
        {
          "internalType": "uint256",
          "name": "blockNumber",
          "type": "uint256"
        }
      ],
      "name": "quorum",
      "outputs": [
        {
          "internalType": "uint256",
          "name": "",
          "type": "uint256"
        }
      ],
      "stateMutability": "view",
      "type": "function"
    },
    {
      "inputs": [
        {
          "internalType": "address[]",
          "name": "targets",
          "type": "address[]"
        },
        {
          "internalType": "uint256[]",
          "name": "values",
          "type": "uint256[]"
        },
        {
          "internalType": "bytes[]",
          "name": "calldatas",
          "type": "bytes[]"
        },
        {
          "internalType": "bytes32",
          "name": "descriptionHash",
          "type": "bytes32"
        }
      ],
      "name": "cancel",
      "outputs": [
        {
          "internalType": "uint256",
          "name": "proposalId",
          "type": "uint256"
        }
      ],
      "stateMutability": "nonpayable",
      "type": "function"
    },
    {
      "inputs": [
        {
          "internalType": "uint256",
          "name": "proposalId",
          "type": "uint256"
        }
      ],
      "name": "state",
      "outputs": [
        {
          "internalType": "enum IGovernor.ProposalState",
          "name": "",
          "type": "uint8"
        }
      ],
      "stateMutability": "view",
      "type": "function"
    },
    {
      "inputs": [
        {
          "internalType": "address",
          "name": "account",
          "type": "address"
        },
        {
          "internalType": "uint256",
          "name": "blockNumber",
          "type": "uint256"
        }
      ],
      "name": "getVotes",
      "outputs": [
        {
          "internalType": "uint256",
          "name": "",
          "type": "uint256"
        }
      ],
      "stateMutability": "view",
      "type": "function"
    }
  ],
  "bytecode": "0x6101806040523480156200001257600080fd5b506040516200519038038062005190833981810160405281019062000038919062000497565b80858388806200004d6200015f60201b60201c565b60008280519060200120905060008280519060200120905060007f8b73c3c69bb8fe3d512ecc4cf759cc79239f7b179b0ffacaa9a75d522b39400f90508260c081815250508160e081815250504660a08181525050620000b58184846200019c60201b60201c565b6080818152505080610100818152505050505050508060009080519060200190620000e292919062000324565b5050620000f581620001d860201b60201c565b508073ffffffffffffffffffffffffffffffffffffffff166101208173ffffffffffffffffffffffffffffffffffffffff1660601b815250505062000140816200027960201b60201c565b5083610140818152505082610160818152505050505050505062000961565b60606040518060400160405280600181526020017f3100000000000000000000000000000000000000000000000000000000000000815250905090565b60008383834630604051602001620001b9959493929190620005d9565b6040516020818303038152906040528051906020012090509392505050565b7f08f74ea46ef7894f65eabfb5e6e695de773a000b47c529ab559178069b226401600260009054906101000a900473ffffffffffffffffffffffffffffffffffffffff16826040516200022d929190620005ac565b60405180910390a180600260006101000a81548173ffffffffffffffffffffffffffffffffffffffff021916908373ffffffffffffffffffffffffffffffffffffffff16021790555050565b620002896200031b60201b60201c565b811115620002ce576040517f08c379a0000000000000000000000000000000000000000000000000000000008152600401620002c59062000636565b60405180910390fd5b60006004549050816004819055507f0553476bf02ef2726e8ce5ced78d63e26e602e4a2257b1f559418e24b463399781836040516200030f92919062000658565b60405180910390a15050565b60006064905090565b8280546200033290620007af565b90600052602060002090601f016020900481019282620003565760008555620003a2565b82601f106200037157805160ff1916838001178555620003a2565b82800160010185558215620003a2579182015b82811115620003a157825182559160200191906001019062000384565b5b509050620003b19190620003b5565b5090565b5b80821115620003d0576000816000905550600101620003b6565b5090565b6000620003eb620003e584620006ae565b62000685565b9050828152602081018484840111156200040a57620004096200087e565b5b6200041784828562000779565b509392505050565b600081519050620004308162000913565b92915050565b60008151905062000447816200092d565b92915050565b600082601f83011262000465576200046462000879565b5b815162000477848260208601620003d4565b91505092915050565b600081519050620004918162000947565b92915050565b60008060008060008060c08789031215620004b757620004b662000888565b5b600087015167ffffffffffffffff811115620004d857620004d762000883565b5b620004e689828a016200044d565b9650506020620004f989828a016200041f565b95505060406200050c89828a0162000480565b94505060606200051f89828a0162000480565b93505060806200053289828a0162000436565b92505060a06200054589828a0162000480565b9150509295509295509295565b6200055d81620006f5565b82525050565b6200056e816200071d565b82525050565b600062000583604383620006e4565b915062000590826200089e565b606082019050919050565b620005a6816200076f565b82525050565b6000604082019050620005c3600083018562000552565b620005d2602083018462000552565b9392505050565b600060a082019050620005f0600083018862000563565b620005ff602083018762000563565b6200060e604083018662000563565b6200061d60608301856200059b565b6200062c608083018462000552565b9695505050505050565b60006020820190508181036000830152620006518162000574565b9050919050565b60006040820190506200066f60008301856200059b565b6200067e60208301846200059b565b9392505050565b600062000691620006a4565b90506200069f8282620007e5565b919050565b6000604051905090565b600067ffffffffffffffff821115620006cc57620006cb6200084a565b5b620006d7826200088d565b9050602081019050919050565b600082825260208201905092915050565b600062000702826200074f565b9050919050565b600062000716826200074f565b9050919050565b6000819050919050565b60006200073482620006f5565b9050919050565b6000620007488262000709565b9050919050565b600073ffffffffffffffffffffffffffffffffffffffff82169050919050565b6000819050919050565b60005b83811015620007995780820151818401526020810190506200077c565b83811115620007a9576000848401525b50505050565b60006002820490506001821680620007c857607f821691505b60208210811415620007df57620007de6200081b565b5b50919050565b620007f0826200088d565b810181811067ffffffffffffffff821117156200081257620008116200084a565b5b80604052505050565b7f4e487b7100000000000000000000000000000000000000000000000000000000600052602260045260246000fd5b7f4e487b7100000000000000000000000000000000000000000000000000000000600052604160045260246000fd5b600080fd5b600080fd5b600080fd5b600080fd5b6000601f19601f8301169050919050565b7f476f7665726e6f72566f74657351756f72756d4672616374696f6e3a2071756f60008201527f72756d4e756d657261746f72206f7665722071756f72756d44656e6f6d696e6160208201527f746f720000000000000000000000000000000000000000000000000000000000604082015250565b6200091e8162000727565b81146200092a57600080fd5b50565b62000938816200073b565b81146200094457600080fd5b50565b62000952816200076f565b81146200095e57600080fd5b50565b60805160a05160c05160e051610100516101205160601c61014051610160516147b8620009d860003960006107df01526000610d9a01526000818161155f01528181611c540152611d1901526000611f7401526000611fb601526000611f9501526000611f2101526000611f4901526147b86000f3fe6080604052600436106101c25760003560e01c806356781388116100f7578063c01f9e3711610095578063deaaa7cc11610064578063deaaa7cc146106f9578063eb9019d414610724578063f8ce560a14610761578063fc0c546a1461079e576101c2565b8063c01f9e3714610629578063c59057e414610666578063d33219b4146106a3578063dd4e2ba5146106ce576101c2565b806397c3d334116100d157806397c3d3341461056d578063a7713a7014610598578063a890c910146105c3578063ab58fb8e146105ec576101c2565b806356781388146104b65780637b3c71d3146104f35780637d5e81e214610530576101c2565b80633932abb111610164578063438596321161013e57806343859632146103d2578063452115d61461040f578063544ffc9c1461044c57806354fd4d501461048b576101c2565b80633932abb11461032d5780633bccf4fd146103585780633e4f49e614610395576101c2565b806306fdde03116101a057806306fdde0314610258578063160cbed7146102835780632656227d146102c05780632d63f693146102f0576101c2565b806301ffc9a7146101c757806302a251a31461020457806306f3f9e61461022f575b600080fd5b3480156101d357600080fd5b506101ee60048036038101906101e99190612dc7565b6107c9565b6040516101fb919061375b565b60405180910390f35b34801561021057600080fd5b506102196107db565b6040516102269190613a98565b60405180910390f35b34801561023b57600080fd5b5061025660048036038101906102519190612e21565b610803565b005b34801561026457600080fd5b5061026d61088b565b60405161027a9190613896565b60405180910390f35b34801561028f57600080fd5b506102aa60048036038101906102a59190612bdb565b61091d565b6040516102b79190613a98565b60405180910390f35b6102da60048036038101906102d59190612bdb565b610bf5565b6040516102e79190613a98565b60405180910390f35b3480156102fc57600080fd5b5061031760048036038101906103129190612e21565b610d28565b6040516103249190613a98565b60405180910390f35b34801561033957600080fd5b50610342610d96565b60405161034f9190613a98565b60405180910390f35b34801561036457600080fd5b5061037f600480360381019061037a9190612f6f565b610dbe565b60405161038c9190613a98565b60405180910390f35b3480156103a157600080fd5b506103bc60048036038101906103b79190612e21565b610e48565b6040516103c9919061387b565b60405180910390f35b3480156103de57600080fd5b506103f960048036038101906103f49190612e7b565b610e5a565b604051610406919061375b565b60405180910390f35b34801561041b57600080fd5b5061043660048036038101906104319190612bdb565b610ec5565b6040516104439190613a98565b60405180910390f35b34801561045857600080fd5b50610473600480360381019061046e9190612e21565b610edd565b60405161048293929190613b8c565b60405180910390f35b34801561049757600080fd5b506104a0610f15565b6040516104ad9190613896565b60405180910390f35b3480156104c257600080fd5b506104dd60048036038101906104d89190612ebb565b610f52565b6040516104ea9190613a98565b60405180910390f35b3480156104ff57600080fd5b5061051a60048036038101906105159190612efb565b610f83565b6040516105279190613a98565b60405180910390f35b34801561053c57600080fd5b5061055760048036038101906105529190612c96565b610feb565b6040516105649190613a98565b60405180910390f35b34801561057957600080fd5b5061058261128b565b60405161058f9190613a98565b60405180910390f35b3480156105a457600080fd5b506105ad611294565b6040516105ba9190613a98565b60405180910390f35b3480156105cf57600080fd5b506105ea60048036038101906105e59190612df4565b61129e565b005b3480156105f857600080fd5b50610613600480360381019061060e9190612e21565b611326565b6040516106209190613a98565b60405180910390f35b34801561063557600080fd5b50610650600480360381019061064b9190612e21565b611402565b60405161065d9190613a98565b60405180910390f35b34801561067257600080fd5b5061068d60048036038101906106889190612bdb565b611470565b60405161069a9190613a98565b60405180910390f35b3480156106af57600080fd5b506106b86114ac565b6040516106c591906135b6565b60405180910390f35b3480156106da57600080fd5b506106e36114d6565b6040516106f09190613896565b60405180910390f35b34801561070557600080fd5b5061070e611513565b60405161071b9190613776565b60405180910390f35b34801561073057600080fd5b5061074b60048036038101906107469190612b9b565b611537565b6040516107589190613a98565b60405180910390f35b34801561076d57600080fd5b5061078860048036038101906107839190612e21565b61154b565b6040516107959190613a98565b60405180910390f35b3480156107aa57600080fd5b506107b361155d565b6040516107c09190613860565b60405180910390f35b60006107d482611581565b9050919050565b60007f0000000000000000000000000000000000000000000000000000000000000000905090565b61080b6115fb565b73ffffffffffffffffffffffffffffffffffffffff1661082961160a565b73ffffffffffffffffffffffffffffffffffffffff161461087f576040517f08c379a0000000000000000000000000000000000000000000000000000000008152600401610876906138d8565b60405180910390fd5b61088881611612565b50565b60606000805461089a90614107565b80601f01602080910402602001604051908101604052809291908181526020018280546108c690614107565b80156109135780601f106108e857610100808354040283529160200191610913565b820191906000526020600020905b8154815290600101906020018083116108f657829003601f168201915b5050505050905090565b60008061092c86868686611470565b905060046007811115610942576109416141d2565b5b61094b82610e48565b600781111561095d5761095c6141d2565b5b1461099d576040517f08c379a0000000000000000000000000000000000000000000000000000000008152600401610994906139f8565b60405180910390fd5b6000600260009054906101000a900473ffffffffffffffffffffffffffffffffffffffff1673ffffffffffffffffffffffffffffffffffffffff1663f27a0c926040518163ffffffff1660e01b815260040160206040518083038186803b158015610a0757600080fd5b505afa158015610a1b573d6000803e3d6000fd5b505050506040513d601f19601f82011682018060405250810190610a3f9190612e4e565b9050600260009054906101000a900473ffffffffffffffffffffffffffffffffffffffff1673ffffffffffffffffffffffffffffffffffffffff1663b1c5f4278888886000896040518663ffffffff1660e01b8152600401610aa595949392919061367d565b60206040518083038186803b158015610abd57600080fd5b505afa158015610ad1573d6000803e3d6000fd5b505050506040513d601f19601f82011682018060405250810190610af59190612d9a565b6003600084815260200190815260200160002081905550600260009054906101000a900473ffffffffffffffffffffffffffffffffffffffff1673ffffffffffffffffffffffffffffffffffffffff16638f2a0bb0888888600089876040518763ffffffff1660e01b8152600401610b72969594939291906136e5565b600060405180830381600087803b158015610b8c57600080fd5b505af1158015610ba0573d6000803e3d6000fd5b505050507f9a2e42fd6722813d69113e7d0079d3d940171428df7373df9c7f7617cfda2892828242610bd29190613e52565b604051610be0929190613b63565b60405180910390a18192505050949350505050565b600080610c0486868686611470565b90506000610c1182610e48565b905060046007811115610c2757610c266141d2565b5b816007811115610c3a57610c396141d2565b5b1480610c6a575060056007811115610c5557610c546141d2565b5b816007811115610c6857610c676141d2565b5b145b610ca9576040517f08c379a0000000000000000000000000000000000000000000000000000000008152600401610ca0906139f8565b60405180910390fd5b600180600084815260200190815260200160002060020160006101000a81548160ff0219169083151502179055507f712ae1383f79ac853f8d882153778e0260ef8f03b504e2866e0593e04d2b291f82604051610d069190613a98565b60405180910390a1610d1b82888888886116a7565b8192505050949350505050565b6000610d85600160008481526020019081526020016000206000016040518060200160405290816000820160009054906101000a900467ffffffffffffffff1667ffffffffffffffff1667ffffffffffffffff16815250506116bb565b67ffffffffffffffff169050919050565b60007f0000000000000000000000000000000000000000000000000000000000000000905090565b600080610e1f610e177f150214d74d59b7d1e90c73fc22ef3d991dd0a76b046543d4d80ab92d2a50328f8989604051602001610dfc939291906137e4565b604051602081830303815290604052805190602001206116c9565b8686866116e3565b9050610e3c8782886040518060200160405280600081525061186e565b91505095945050505050565b6000610e53826119c2565b9050919050565b60006005600084815260200190815260200160002060030160008373ffffffffffffffffffffffffffffffffffffffff1673ffffffffffffffffffffffffffffffffffffffff16815260200190815260200160002060009054906101000a900460ff16905092915050565b6000610ed385858585611af9565b9050949350505050565b600080600080600560008681526020019081526020016000209050806000015481600101548260020154935093509350509193909250565b60606040518060400160405280600181526020017f3100000000000000000000000000000000000000000000000000000000000000815250905090565b600080610f5d61160a565b9050610f7a8482856040518060200160405280600081525061186e565b91505092915050565b600080610f8e61160a565b9050610fe086828787878080601f016020809104026020016040519081016040528093929190818152602001838380828437600081840152601f19601f8201169050808301925050505050505061186e565b915050949350505050565b6000806110018686868680519060200120611470565b90508451865114611047576040517f08c379a000000000000000000000000000000000000000000000000000000000815260040161103e90613918565b60405180910390fd5b835186511461108b576040517f08c379a000000000000000000000000000000000000000000000000000000000815260040161108290613918565b60405180910390fd5b60008651116110cf576040517f08c379a00000000000000000000000000000000000000000000000000000000081526004016110c690613978565b60405180910390fd5b600060016000838152602001908152602001600020905061112f816000016040518060200160405290816000820160009054906101000a900467ffffffffffffffff1667ffffffffffffffff1667ffffffffffffffff1681525050611b11565b61116e576040517f08c379a000000000000000000000000000000000000000000000000000000000815260040161116590613a58565b60405180910390fd5b600061118061117b610d96565b611b2b565b61118943611b2b565b6111939190613ea8565b905060006111a76111a26107db565b611b2b565b826111b29190613ea8565b90506111ca8284600001611b8290919063ffffffff16565b6111e08184600101611b8290919063ffffffff16565b7f7d84a6263ae0d98d3329bd7b46bb4e8d6f98cd35a7adb45c274c8b7fd5ebd5e08461120a61160a565b8b8b8d5167ffffffffffffffff81111561122757611226614230565b5b60405190808252806020026020018201604052801561125a57816020015b60608152602001906001900390816112455790505b508c88888e60405161127499989796959493929190613ab3565b60405180910390a183945050505050949350505050565b60006064905090565b6000600454905090565b6112a66115fb565b73ffffffffffffffffffffffffffffffffffffffff166112c461160a565b73ffffffffffffffffffffffffffffffffffffffff161461131a576040517f08c379a0000000000000000000000000000000000000000000000000000000008152600401611311906138d8565b60405180910390fd5b61132381611bb1565b50565b600080600260009054906101000a900473ffffffffffffffffffffffffffffffffffffffff1673ffffffffffffffffffffffffffffffffffffffff1663d45c443560036000868152602001908152602001600020546040518263ffffffff1660e01b81526004016113979190613776565b60206040518083038186803b1580156113af57600080fd5b505afa1580156113c3573d6000803e3d6000fd5b505050506040513d601f19601f820116820180604052508101906113e79190612e4e565b9050600181146113f757806113fa565b60005b915050919050565b600061145f600160008481526020019081526020016000206001016040518060200160405290816000820160009054906101000a900467ffffffffffffffff1667ffffffffffffffff1667ffffffffffffffff16815250506116bb565b67ffffffffffffffff169050919050565b6000848484846040516020016114899493929190613623565b6040516020818303038152906040528051906020012060001c9050949350505050565b6000600260009054906101000a900473ffffffffffffffffffffffffffffffffffffffff16905090565b60606040518060400160405280602081526020017f737570706f72743d627261766f2671756f72756d3d666f722c6162737461696e815250905090565b7f150214d74d59b7d1e90c73fc22ef3d991dd0a76b046543d4d80ab92d2a50328f81565b60006115438383611c50565b905092915050565b600061155682611d05565b9050919050565b7f000000000000000000000000000000000000000000000000000000000000000081565b60007f6e665ced000000000000000000000000000000000000000000000000000000007bffffffffffffffffffffffffffffffffffffffffffffffffffffffff1916827bffffffffffffffffffffffffffffffffffffffffffffffffffffffff191614806115f457506115f382611ddb565b5b9050919050565b6000611605611e55565b905090565b600033905090565b61161a61128b565b81111561165c576040517f08c379a0000000000000000000000000000000000000000000000000000000008152600401611653906138f8565b60405180910390fd5b60006004549050816004819055507f0553476bf02ef2726e8ce5ced78d63e26e602e4a2257b1f559418e24b4633997818360405161169b929190613b63565b60405180910390a15050565b6116b48585858585611e7f565b5050505050565b600081600001519050919050565b60006116dc6116d6611f1d565b83611fe0565b9050919050565b60007f7fffffffffffffffffffffffffffffff5d576e7357a4501ddfe92f46681b20a08260001c111561174b576040517f08c379a000000000000000000000000000000000000000000000000000000000815260040161174290613938565b60405180910390fd5b601b8460ff1614806117605750601c8460ff16145b61179f576040517f08c379a000000000000000000000000000000000000000000000000000000000815260040161179690613998565b60405180910390fd5b6000600186868686604051600081526020016040526040516117c4949392919061381b565b6020604051602081039080840390855afa1580156117e6573d6000803e3d6000fd5b505050602060405103519050600073ffffffffffffffffffffffffffffffffffffffff168173ffffffffffffffffffffffffffffffffffffffff161415611862576040517f08c379a0000000000000000000000000000000000000000000000000000000008152600401611859906138b8565b60405180910390fd5b80915050949350505050565b6000806001600087815260200190815260200160002090506001600781111561189a576118996141d2565b5b6118a387610e48565b60078111156118b5576118b46141d2565b5b146118f5576040517f08c379a00000000000000000000000000000000000000000000000000000000081526004016118ec90613958565b60405180910390fd5b600061195386611944846000016040518060200160405290816000820160009054906101000a900467ffffffffffffffff1667ffffffffffffffff1667ffffffffffffffff16815250506116bb565b67ffffffffffffffff16611537565b905061196187878784612013565b8573ffffffffffffffffffffffffffffffffffffffff167fb8e138887d0aa13bab447e82de9d5c1777041ecd21ca36ba824ff1e6c07ddda4888784886040516119ad9493929190613bc3565b60405180910390a28092505050949350505050565b6000806119ce83612219565b9050600460078111156119e4576119e36141d2565b5b8160078111156119f7576119f66141d2565b5b14611a055780915050611af4565b6000600360008581526020019081526020016000205490506000801b811415611a32578192505050611af4565b600260009054906101000a900473ffffffffffffffffffffffffffffffffffffffff1673ffffffffffffffffffffffffffffffffffffffff16632ab0f529826040518263ffffffff1660e01b8152600401611a8d9190613776565b60206040518083038186803b158015611aa557600080fd5b505afa158015611ab9573d6000803e3d6000fd5b505050506040513d601f19601f82011682018060405250810190611add9190612d6d565b15611aed57600792505050611af4565b6005925050505b919050565b6000611b07858585856123e0565b9050949350505050565b600080826000015167ffffffffffffffff16149050919050565b600067ffffffffffffffff8016821115611b7a576040517f08c379a0000000000000000000000000000000000000000000000000000000008152600401611b71906139b8565b60405180910390fd5b819050919050565b808260000160006101000a81548167ffffffffffffffff021916908367ffffffffffffffff1602179055505050565b7f08f74ea46ef7894f65eabfb5e6e695de773a000b47c529ab559178069b226401600260009054906101000a900473ffffffffffffffffffffffffffffffffffffffff1682604051611c049291906135d1565b60405180910390a180600260006101000a81548173ffffffffffffffffffffffffffffffffffffffff021916908373ffffffffffffffffffffffffffffffffffffffff16021790555050565b60007f000000000000000000000000000000000000000000000000000000000000000073ffffffffffffffffffffffffffffffffffffffff16633a46b1a884846040518363ffffffff1660e01b8152600401611cad9291906135fa565b60206040518083038186803b158015611cc557600080fd5b505afa158015611cd9573d6000803e3d6000fd5b505050506040513d601f19601f82011682018060405250810190611cfd9190612e4e565b905092915050565b6000611d0f61128b565b611d17611294565b7f000000000000000000000000000000000000000000000000000000000000000073ffffffffffffffffffffffffffffffffffffffff16638e539e8c856040518263ffffffff1660e01b8152600401611d709190613a98565b60206040518083038186803b158015611d8857600080fd5b505afa158015611d9c573d6000803e3d6000fd5b505050506040513d601f19601f82011682018060405250810190611dc09190612e4e565b611dca9190613f17565b611dd49190613ee6565b9050919050565b60007fbf26d897000000000000000000000000000000000000000000000000000000007bffffffffffffffffffffffffffffffffffffffffffffffffffffffff1916827bffffffffffffffffffffffffffffffffffffffffffffffffffffffff19161480611e4e5750611e4d826124d2565b5b9050919050565b6000600260009054906101000a900473ffffffffffffffffffffffffffffffffffffffff16905090565b600260009054906101000a900473ffffffffffffffffffffffffffffffffffffffff1673ffffffffffffffffffffffffffffffffffffffff1663e38335e5348686866000876040518763ffffffff1660e01b8152600401611ee495949392919061367d565b6000604051808303818588803b158015611efd57600080fd5b505af1158015611f11573d6000803e3d6000fd5b50505050505050505050565b60007f0000000000000000000000000000000000000000000000000000000000000000461415611f6f577f00000000000000000000000000000000000000000000000000000000000000009050611fdd565b611fda7f00000000000000000000000000000000000000000000000000000000000000007f00000000000000000000000000000000000000000000000000000000000000007f000000000000000000000000000000000000000000000000000000000000000061253c565b90505b90565b60008282604051602001611ff592919061357f565b60405160208183030381529060405280519060200120905092915050565b60006005600086815260200190815260200160002090508060030160008573ffffffffffffffffffffffffffffffffffffffff1673ffffffffffffffffffffffffffffffffffffffff16815260200190815260200160002060009054906101000a900460ff16156120b9576040517f08c379a00000000000000000000000000000000000000000000000000000000081526004016120b090613a78565b60405180910390fd5b60018160030160008673ffffffffffffffffffffffffffffffffffffffff1673ffffffffffffffffffffffffffffffffffffffff16815260200190815260200160002060006101000a81548160ff02191690831515021790555060006002811115612127576121266141d2565b5b60ff168360ff16141561215457818160000160008282546121489190613e52565b92505081905550612212565b60016002811115612168576121676141d2565b5b60ff168360ff16141561219557818160010160008282546121899190613e52565b92505081905550612211565b6002808111156121a8576121a76141d2565b5b60ff168360ff1614156121d557818160020160008282546121c99190613e52565b92505081905550612210565b6040517f08c379a000000000000000000000000000000000000000000000000000000000815260040161220790613a38565b60405180910390fd5b5b5b5050505050565b60008060016000848152602001908152602001600020604051806080016040529081600082016040518060200160405290816000820160009054906101000a900467ffffffffffffffff1667ffffffffffffffff1667ffffffffffffffff16815250508152602001600182016040518060200160405290816000820160009054906101000a900467ffffffffffffffff1667ffffffffffffffff1667ffffffffffffffff168152505081526020016002820160009054906101000a900460ff161515151581526020016002820160019054906101000a900460ff16151515158152505090508060400151156123125760079150506123db565b8060600151156123265760029150506123db565b6123338160000151612576565b156123425760009150506123db565b61234f8160200151612576565b1561235e5760019150506123db565b61236b8160200151612590565b156123a057612379836125bc565b801561238a575061238983612612565b5b612395576003612398565b60045b9150506123db565b6040517f08c379a00000000000000000000000000000000000000000000000000000000081526004016123d290613a18565b60405180910390fd5b919050565b6000806123ef8686868661263d565b90506000801b6003600083815260200190815260200160002054146124c657600260009054906101000a900473ffffffffffffffffffffffffffffffffffffffff1673ffffffffffffffffffffffffffffffffffffffff1663c4d252f560036000848152602001908152602001600020546040518263ffffffff1660e01b815260040161247c9190613776565b600060405180830381600087803b15801561249657600080fd5b505af11580156124aa573d6000803e3d6000fd5b5050505060036000828152602001908152602001600020600090555b80915050949350505050565b60007f01ffc9a7000000000000000000000000000000000000000000000000000000007bffffffffffffffffffffffffffffffffffffffffffffffffffffffff1916827bffffffffffffffffffffffffffffffffffffffffffffffffffffffff1916149050919050565b60008383834630604051602001612557959493929190613791565b6040516020818303038152906040528051906020012090509392505050565b600043826000015167ffffffffffffffff16119050919050565b600061259b82612796565b80156125b5575043826000015167ffffffffffffffff1611155b9050919050565b6000806005600084815260200190815260200160002090508060020154816001015482600001546125ed9190613e52565b6125f79190613e52565b61260861260385610d28565b61154b565b1115915050919050565b6000806005600084815260200190815260200160002090508060000154816001015411915050919050565b60008061264c86868686611470565b9050600061265982610e48565b90506002600781111561266f5761266e6141d2565b5b816007811115612682576126816141d2565b5b141580156126b557506006600781111561269f5761269e6141d2565b5b8160078111156126b2576126b16141d2565b5b14155b80156126e557506007808111156126cf576126ce6141d2565b5b8160078111156126e2576126e16141d2565b5b14155b612724576040517f08c379a000000000000000000000000000000000000000000000000000000000815260040161271b906139d8565b60405180910390fd5b600180600084815260200190815260200160002060020160016101000a81548160ff0219169083151502179055507f789cf55be980739dad1d0699b93b58e806b51c9d96619bfa8fe0a28abaa7b30c826040516127819190613a98565b60405180910390a18192505050949350505050565b600080826000015167ffffffffffffffff16119050919050565b60006127c36127be84613c34565b613c0f565b905080838252602082019050828560208602820111156127e6576127e5614269565b5b60005b8581101561281657816127fc88826129a2565b8452602084019350602083019250506001810190506127e9565b5050509392505050565b600061283361282e84613c60565b613c0f565b9050808382526020820190508285602086028201111561285657612855614269565b5b60005b858110156128a457813567ffffffffffffffff81111561287c5761287b614264565b5b8086016128898982612a95565b85526020850194506020840193505050600181019050612859565b5050509392505050565b60006128c16128bc84613c8c565b613c0f565b905080838252602082019050828560208602820111156128e4576128e3614269565b5b60005b8581101561291457816128fa8882612b5c565b8452602084019350602083019250506001810190506128e7565b5050509392505050565b600061293161292c84613cb8565b613c0f565b90508281526020810184848401111561294d5761294c61426e565b5b6129588482856140c5565b509392505050565b600061297361296e84613ce9565b613c0f565b90508281526020810184848401111561298f5761298e61426e565b5b61299a8482856140c5565b509392505050565b6000813590506129b1816146e1565b92915050565b600082601f8301126129cc576129cb614264565b5b81356129dc8482602086016127b0565b91505092915050565b600082601f8301126129fa576129f9614264565b5b8135612a0a848260208601612820565b91505092915050565b600082601f830112612a2857612a27614264565b5b8135612a388482602086016128ae565b91505092915050565b600081519050612a50816146f8565b92915050565b600081359050612a658161470f565b92915050565b600081519050612a7a8161470f565b92915050565b600081359050612a8f81614726565b92915050565b600082601f830112612aaa57612aa9614264565b5b8135612aba84826020860161291e565b91505092915050565b600081359050612ad28161473d565b92915050565b60008083601f840112612aee57612aed614264565b5b8235905067ffffffffffffffff811115612b0b57612b0a61425f565b5b602083019150836001820283011115612b2757612b26614269565b5b9250929050565b600082601f830112612b4357612b42614264565b5b8135612b53848260208601612960565b91505092915050565b600081359050612b6b81614754565b92915050565b600081519050612b8081614754565b92915050565b600081359050612b958161476b565b92915050565b60008060408385031215612bb257612bb1614278565b5b6000612bc0858286016129a2565b9250506020612bd185828601612b5c565b9150509250929050565b60008060008060808587031215612bf557612bf4614278565b5b600085013567ffffffffffffffff811115612c1357612c12614273565b5b612c1f878288016129b7565b945050602085013567ffffffffffffffff811115612c4057612c3f614273565b5b612c4c87828801612a13565b935050604085013567ffffffffffffffff811115612c6d57612c6c614273565b5b612c79878288016129e5565b9250506060612c8a87828801612a56565b91505092959194509250565b60008060008060808587031215612cb057612caf614278565b5b600085013567ffffffffffffffff811115612cce57612ccd614273565b5b612cda878288016129b7565b945050602085013567ffffffffffffffff811115612cfb57612cfa614273565b5b612d0787828801612a13565b935050604085013567ffffffffffffffff811115612d2857612d27614273565b5b612d34878288016129e5565b925050606085013567ffffffffffffffff811115612d5557612d54614273565b5b612d6187828801612b2e565b91505092959194509250565b600060208284031215612d8357612d82614278565b5b6000612d9184828501612a41565b91505092915050565b600060208284031215612db057612daf614278565b5b6000612dbe84828501612a6b565b91505092915050565b600060208284031215612ddd57612ddc614278565b5b6000612deb84828501612a80565b91505092915050565b600060208284031215612e0a57612e09614278565b5b6000612e1884828501612ac3565b91505092915050565b600060208284031215612e3757612e36614278565b5b6000612e4584828501612b5c565b91505092915050565b600060208284031215612e6457612e63614278565b5b6000612e7284828501612b71565b91505092915050565b60008060408385031215612e9257612e91614278565b5b6000612ea085828601612b5c565b9250506020612eb1858286016129a2565b9150509250929050565b60008060408385031215612ed257612ed1614278565b5b6000612ee085828601612b5c565b9250506020612ef185828601612b86565b9150509250929050565b60008060008060608587031215612f1557612f14614278565b5b6000612f2387828801612b5c565b9450506020612f3487828801612b86565b935050604085013567ffffffffffffffff811115612f5557612f54614273565b5b612f6187828801612ad8565b925092505092959194509250565b600080600080600060a08688031215612f8b57612f8a614278565b5b6000612f9988828901612b5c565b9550506020612faa88828901612b86565b9450506040612fbb88828901612b86565b9350506060612fcc88828901612a56565b9250506080612fdd88828901612a56565b9150509295509295909350565b6000612ff68383613042565b60208301905092915050565b600061300e838361323b565b905092915050565b600061302283836132a1565b905092915050565b60006130368383613543565b60208301905092915050565b61304b81613f71565b82525050565b61305a81613f71565b82525050565b600061306b82613d5a565b6130758185613dd0565b935061308083613d1a565b8060005b838110156130b15781516130988882612fea565b97506130a383613d9c565b925050600181019050613084565b5085935050505092915050565b60006130c982613d65565b6130d38185613de1565b9350836020820285016130e585613d2a565b8060005b8581101561312157848403895281516131028582613002565b945061310d83613da9565b925060208a019950506001810190506130e9565b50829750879550505050505092915050565b600061313e82613d70565b6131488185613df2565b93508360208202850161315a85613d3a565b8060005b8581101561319657848403895281516131778582613016565b945061318283613db6565b925060208a0199505060018101905061315e565b50829750879550505050505092915050565b60006131b382613d7b565b6131bd8185613e03565b93506131c883613d4a565b8060005b838110156131f95781516131e0888261302a565b97506131eb83613dc3565b9250506001810190506131cc565b5085935050505092915050565b61320f81613f95565b82525050565b61321e81613fa1565b82525050565b61323561323082613fa1565b61416a565b82525050565b600061324682613d86565b6132508185613e14565b93506132608185602086016140d4565b6132698161427d565b840191505092915050565b61327d81614051565b82525050565b61328c81614063565b82525050565b61329b81614075565b82525050565b60006132ac82613d91565b6132b68185613e25565b93506132c68185602086016140d4565b6132cf8161427d565b840191505092915050565b60006132e582613d91565b6132ef8185613e36565b93506132ff8185602086016140d4565b6133088161427d565b840191505092915050565b6000613320601883613e36565b915061332b8261429b565b602082019050919050565b6000613343601883613e36565b915061334e826142c4565b602082019050919050565b6000613366604383613e36565b9150613371826142ed565b606082019050919050565b6000613389600283613e47565b915061339482614362565b600282019050919050565b60006133ac602183613e36565b91506133b78261438b565b604082019050919050565b60006133cf602283613e36565b91506133da826143da565b604082019050919050565b60006133f2602383613e36565b91506133fd82614429565b604082019050919050565b6000613415601883613e36565b915061342082614478565b602082019050919050565b6000613438602283613e36565b9150613443826144a1565b604082019050919050565b600061345b602683613e36565b9150613466826144f0565b604082019050919050565b600061347e601d83613e36565b91506134898261453f565b602082019050919050565b60006134a1602183613e36565b91506134ac82614568565b604082019050919050565b60006134c4601d83613e36565b91506134cf826145b7565b602082019050919050565b60006134e7603583613e36565b91506134f2826145e0565b604082019050919050565b600061350a602183613e36565b91506135158261462f565b604082019050919050565b600061352d602983613e36565b91506135388261467e565b604082019050919050565b61354c81614026565b82525050565b61355b81614026565b82525050565b61356a816140b3565b82525050565b61357981614044565b82525050565b600061358a8261337c565b91506135968285613224565b6020820191506135a68284613224565b6020820191508190509392505050565b60006020820190506135cb6000830184613051565b92915050565b60006040820190506135e66000830185613051565b6135f36020830184613051565b9392505050565b600060408201905061360f6000830185613051565b61361c6020830184613552565b9392505050565b6000608082019050818103600083015261363d8187613060565b9050818103602083015261365181866131a8565b9050818103604083015261366581856130be565b90506136746060830184613215565b95945050505050565b600060a08201905081810360008301526136978188613060565b905081810360208301526136ab81876131a8565b905081810360408301526136bf81866130be565b90506136ce6060830185613292565b6136db6080830184613215565b9695505050505050565b600060c08201905081810360008301526136ff8189613060565b9050818103602083015261371381886131a8565b9050818103604083015261372781876130be565b90506137366060830186613292565b6137436080830185613215565b61375060a0830184613552565b979650505050505050565b60006020820190506137706000830184613206565b92915050565b600060208201905061378b6000830184613215565b92915050565b600060a0820190506137a66000830188613215565b6137b36020830187613215565b6137c06040830186613215565b6137cd6060830185613552565b6137da6080830184613051565b9695505050505050565b60006060820190506137f96000830186613215565b6138066020830185613552565b6138136040830184613570565b949350505050565b60006080820190506138306000830187613215565b61383d6020830186613570565b61384a6040830185613215565b6138576060830184613215565b95945050505050565b60006020820190506138756000830184613274565b92915050565b60006020820190506138906000830184613283565b92915050565b600060208201905081810360008301526138b081846132da565b905092915050565b600060208201905081810360008301526138d181613313565b9050919050565b600060208201905081810360008301526138f181613336565b9050919050565b6000602082019050818103600083015261391181613359565b9050919050565b600060208201905081810360008301526139318161339f565b9050919050565b60006020820190508181036000830152613951816133c2565b9050919050565b60006020820190508181036000830152613971816133e5565b9050919050565b6000602082019050818103600083015261399181613408565b9050919050565b600060208201905081810360008301526139b18161342b565b9050919050565b600060208201905081810360008301526139d18161344e565b9050919050565b600060208201905081810360008301526139f181613471565b9050919050565b60006020820190508181036000830152613a1181613494565b9050919050565b60006020820190508181036000830152613a31816134b7565b9050919050565b60006020820190508181036000830152613a51816134da565b9050919050565b60006020820190508181036000830152613a71816134fd565b9050919050565b60006020820190508181036000830152613a9181613520565b9050919050565b6000602082019050613aad6000830184613552565b92915050565b600061012082019050613ac9600083018c613552565b613ad6602083018b613051565b8181036040830152613ae8818a613060565b90508181036060830152613afc81896131a8565b90508181036080830152613b108188613133565b905081810360a0830152613b2481876130be565b9050613b3360c0830186613561565b613b4060e0830185613561565b818103610100830152613b5381846132da565b90509a9950505050505050505050565b6000604082019050613b786000830185613552565b613b856020830184613552565b9392505050565b6000606082019050613ba16000830186613552565b613bae6020830185613552565b613bbb6040830184613552565b949350505050565b6000608082019050613bd86000830187613552565b613be56020830186613570565b613bf26040830185613552565b8181036060830152613c0481846132da565b905095945050505050565b6000613c19613c2a565b9050613c258282614139565b919050565b6000604051905090565b600067ffffffffffffffff821115613c4f57613c4e614230565b5b602082029050602081019050919050565b600067ffffffffffffffff821115613c7b57613c7a614230565b5b602082029050602081019050919050565b600067ffffffffffffffff821115613ca757613ca6614230565b5b602082029050602081019050919050565b600067ffffffffffffffff821115613cd357613cd2614230565b5b613cdc8261427d565b9050602081019050919050565b600067ffffffffffffffff821115613d0457613d03614230565b5b613d0d8261427d565b9050602081019050919050565b6000819050602082019050919050565b6000819050602082019050919050565b6000819050602082019050919050565b6000819050602082019050919050565b600081519050919050565b600081519050919050565b600081519050919050565b600081519050919050565b600081519050919050565b600081519050919050565b6000602082019050919050565b6000602082019050919050565b6000602082019050919050565b6000602082019050919050565b600082825260208201905092915050565b600082825260208201905092915050565b600082825260208201905092915050565b600082825260208201905092915050565b600082825260208201905092915050565b600082825260208201905092915050565b600082825260208201905092915050565b600081905092915050565b6000613e5d82614026565b9150613e6883614026565b9250827fffffffffffffffffffffffffffffffffffffffffffffffffffffffffffffffff03821115613e9d57613e9c614174565b5b828201905092915050565b6000613eb382614030565b9150613ebe83614030565b92508267ffffffffffffffff03821115613edb57613eda614174565b5b828201905092915050565b6000613ef182614026565b9150613efc83614026565b925082613f0c57613f0b6141a3565b5b828204905092915050565b6000613f2282614026565b9150613f2d83614026565b9250817fffffffffffffffffffffffffffffffffffffffffffffffffffffffffffffffff0483118215151615613f6657613f65614174565b5b828202905092915050565b6000613f7c82614006565b9050919050565b6000613f8e82614006565b9050919050565b60008115159050919050565b6000819050919050565b60007fffffffff0000000000000000000000000000000000000000000000000000000082169050919050565b6000613fe282613f83565b9050919050565b6000819050613ff7826146cd565b919050565b6000819050919050565b600073ffffffffffffffffffffffffffffffffffffffff82169050919050565b6000819050919050565b600067ffffffffffffffff82169050919050565b600060ff82169050919050565b600061405c8261408f565b9050919050565b600061406e82613fe9565b9050919050565b600061408861408383613ffc565b61428e565b9050919050565b600061409a826140a1565b9050919050565b60006140ac82614006565b9050919050565b60006140be82614030565b9050919050565b82818337600083830152505050565b60005b838110156140f25780820151818401526020810190506140d7565b83811115614101576000848401525b50505050565b6000600282049050600182168061411f57607f821691505b6020821081141561413357614132614201565b5b50919050565b6141428261427d565b810181811067ffffffffffffffff8211171561416157614160614230565b5b80604052505050565b6000819050919050565b7f4e487b7100000000000000000000000000000000000000000000000000000000600052601160045260246000fd5b7f4e487b7100000000000000000000000000000000000000000000000000000000600052601260045260246000fd5b7f4e487b7100000000000000000000000000000000000000000000000000000000600052602160045260246000fd5b7f4e487b7100000000000000000000000000000000000000000000000000000000600052602260045260246000fd5b7f4e487b7100000000000000000000000000000000000000000000000000000000600052604160045260246000fd5b600080fd5b600080fd5b600080fd5b600080fd5b600080fd5b600080fd5b6000601f19601f8301169050919050565b60008160001b9050919050565b7f45434453413a20696e76616c6964207369676e61747572650000000000000000600082015250565b7f476f7665726e6f723a206f6e6c79476f7665726e616e63650000000000000000600082015250565b7f476f7665726e6f72566f74657351756f72756d4672616374696f6e3a2071756f60008201527f72756d4e756d657261746f72206f7665722071756f72756d44656e6f6d696e6160208201527f746f720000000000000000000000000000000000000000000000000000000000604082015250565b7f1901000000000000000000000000000000000000000000000000000000000000600082015250565b7f476f7665726e6f723a20696e76616c69642070726f706f73616c206c656e677460008201527f6800000000000000000000000000000000000000000000000000000000000000602082015250565b7f45434453413a20696e76616c6964207369676e6174757265202773272076616c60008201527f7565000000000000000000000000000000000000000000000000000000000000602082015250565b7f476f7665726e6f723a20766f7465206e6f742063757272656e746c792061637460008201527f6976650000000000000000000000000000000000000000000000000000000000602082015250565b7f476f7665726e6f723a20656d7074792070726f706f73616c0000000000000000600082015250565b7f45434453413a20696e76616c6964207369676e6174757265202776272076616c60008201527f7565000000000000000000000000000000000000000000000000000000000000602082015250565b7f53616665436173743a2076616c756520646f65736e27742066697420696e203660008201527f3420626974730000000000000000000000000000000000000000000000000000602082015250565b7f476f7665726e6f723a2070726f706f73616c206e6f7420616374697665000000600082015250565b7f476f7665726e6f723a2070726f706f73616c206e6f742073756363657373667560008201527f6c00000000000000000000000000000000000000000000000000000000000000602082015250565b7f476f7665726e6f723a20756e6b6e6f776e2070726f706f73616c206964000000600082015250565b7f476f7665726e6f72566f74696e6753696d706c653a20696e76616c696420766160008201527f6c756520666f7220656e756d20566f7465547970650000000000000000000000602082015250565b7f476f7665726e6f723a2070726f706f73616c20616c726561647920657869737460008201527f7300000000000000000000000000000000000000000000000000000000000000602082015250565b7f476f7665726e6f72566f74696e6753696d706c653a20766f746520616c72656160008201527f6479206361737465640000000000000000000000000000000000000000000000602082015250565b600881106146de576146dd6141d2565b5b50565b6146ea81613f71565b81146146f557600080fd5b50565b61470181613f95565b811461470c57600080fd5b50565b61471881613fa1565b811461472357600080fd5b50565b61472f81613fab565b811461473a57600080fd5b50565b61474681613fd7565b811461475157600080fd5b50565b61475d81614026565b811461476857600080fd5b50565b61477481614044565b811461477f57600080fd5b5056fea264697066735822122074db8321d1ac8d04cefb3b75803beb2e5a87a2ae431470eb20060f365762aef864736f6c63430008070033",
  "immutableReferences": {
    "5527": [
      {
        "length": 32,
        "start": 5471
      },
      {
        "length": 32,
        "start": 7252
      },
      {
        "length": 32,
        "start": 7449
      }
    ],
    "10835": [
      {
        "length": 32,
        "start": 3482
      }
    ],
    "10837": [
      {
        "length": 32,
        "start": 2015
      }
    ],
    "24333": [
      {
        "length": 32,
        "start": 8009
      }
    ],
    "24335": [
      {
        "length": 32,
        "start": 7969
      }
    ],
    "24337": [
      {
        "length": 32,
        "start": 8085
      }
    ],
    "24339": [
      {
        "length": 32,
        "start": 8118
      }
    ],
    "24341": [
      {
        "length": 32,
        "start": 8052
      }
    ]
  },
  "source": "// SPDX-License-Identifier: MIT\n\npragma solidity ^0.8.0;\n\nimport \"../governance/extensions/GovernorTimelockControl.sol\";\nimport \"../governance/extensions/GovernorCountingSimple.sol\";\nimport \"../governance/extensions/GovernorVotesQuorumFraction.sol\";\n\ncontract GovernorTimelockControlMock is GovernorTimelockControl, GovernorVotesQuorumFraction, GovernorCountingSimple {\n    uint256 immutable _votingDelay;\n    uint256 immutable _votingPeriod;\n\n    constructor(\n        string memory name_,\n        ERC20Votes token_,\n        uint256 votingDelay_,\n        uint256 votingPeriod_,\n        TimelockController timelock_,\n        uint256 quorumNumerator_\n    )\n        Governor(name_)\n        GovernorTimelockControl(timelock_)\n        GovernorVotes(token_)\n        GovernorVotesQuorumFraction(quorumNumerator_)\n    {\n        _votingDelay = votingDelay_;\n        _votingPeriod = votingPeriod_;\n    }\n\n    function supportsInterface(bytes4 interfaceId)\n        public\n        view\n        virtual\n        override(Governor, GovernorTimelockControl)\n        returns (bool)\n    {\n        return super.supportsInterface(interfaceId);\n    }\n\n    function votingDelay() public view override(IGovernor, Governor) returns (uint256) {\n        return _votingDelay;\n    }\n\n    function votingPeriod() public view override(IGovernor, Governor) returns (uint256) {\n        return _votingPeriod;\n    }\n\n    function quorum(uint256 blockNumber)\n        public\n        view\n        override(IGovernor, Governor, GovernorVotesQuorumFraction)\n        returns (uint256)\n    {\n        return super.quorum(blockNumber);\n    }\n\n    function cancel(\n        address[] memory targets,\n        uint256[] memory values,\n        bytes[] memory calldatas,\n        bytes32 descriptionHash\n    ) public returns (uint256 proposalId) {\n        return _cancel(targets, values, calldatas, descriptionHash);\n    }\n\n    /**\n     * Overriding nightmare\n     */\n    function state(uint256 proposalId)\n        public\n        view\n        virtual\n        override(Governor, GovernorTimelockControl)\n        returns (ProposalState)\n    {\n        return super.state(proposalId);\n    }\n\n    function _execute(\n        uint256 proposalId,\n        address[] memory targets,\n        uint256[] memory values,\n        bytes[] memory calldatas,\n        bytes32 descriptionHash\n    ) internal virtual override(Governor, GovernorTimelockControl) {\n        super._execute(proposalId, targets, values, calldatas, descriptionHash);\n    }\n\n    function _cancel(\n        address[] memory targets,\n        uint256[] memory values,\n        bytes[] memory calldatas,\n        bytes32 descriptionHash\n    ) internal virtual override(Governor, GovernorTimelockControl) returns (uint256 proposalId) {\n        return super._cancel(targets, values, calldatas, descriptionHash);\n    }\n\n    function getVotes(address account, uint256 blockNumber)\n        public\n        view\n        virtual\n        override(IGovernor, Governor, GovernorVotes)\n        returns (uint256)\n    {\n        return super.getVotes(account, blockNumber);\n    }\n\n    function _executor() internal view virtual override(Governor, GovernorTimelockControl) returns (address) {\n        return super._executor();\n    }\n}\n",
  "sourcePath": "/home/tenten/Projects/upcgold.io/src/contracts/openzeppelin-contracts/contracts/mocks/GovernorTimelockControlMock.sol",
  "compiler": {
    "name": "solc",
    "version": "0.8.7+commit.e28d00a7.Emscripten.clang"
  },
  "schemaVersion": "3.2.3",
  "updatedAt": "2021-08-12T03:39:31.343Z",
  "devdoc": {
    "kind": "dev",
    "methods": {
      "COUNTING_MODE()": {
        "details": "See {IGovernor-COUNTING_MODE}."
      },
      "castVote(uint256,uint8)": {
        "details": "See {IGovernor-castVote}."
      },
      "castVoteBySig(uint256,uint8,uint8,bytes32,bytes32)": {
        "details": "See {IGovernor-castVoteBySig}."
      },
      "castVoteWithReason(uint256,uint8,string)": {
        "details": "See {IGovernor-castVoteWithReason}."
      },
      "execute(address[],uint256[],bytes[],bytes32)": {
        "details": "See {IGovernor-execute}."
      },
      "hasVoted(uint256,address)": {
        "details": "See {IGovernor-hasVoted}."
      },
      "hashProposal(address[],uint256[],bytes[],bytes32)": {
        "details": "See {IGovernor-hashProposal}. The proposal id is produced by hashing the RLC encoded `targets` array, the `values` array, the `calldatas` array and the descriptionHash (bytes32 which itself is the keccak256 hash of the description string). This proposal id can be produced from the proposal data which is part of the {ProposalCreated} event. It can even be computed in advance, before the proposal is submitted. Note that the chainId and the governor address are not part of the proposal id computation. Consequently, the same proposal (with same operation and same description) will have the same id if submitted on multiple governors accross multiple networks. This also means that in order to execute the same operation twice (on the same governor) the proposer will have to change the description in order to avoid proposal id conflicts."
      },
      "name()": {
        "details": "See {IGovernor-name}."
      },
      "proposalDeadline(uint256)": {
        "details": "See {IGovernor-proposalDeadline}."
      },
      "proposalEta(uint256)": {
        "details": "Public accessor to check the eta of a queued proposal"
      },
      "proposalSnapshot(uint256)": {
        "details": "See {IGovernor-proposalSnapshot}."
      },
      "proposalVotes(uint256)": {
        "details": "Accessor to the internal vote counts."
      },
      "propose(address[],uint256[],bytes[],string)": {
        "details": "See {IGovernor-propose}."
      },
      "queue(address[],uint256[],bytes[],bytes32)": {
        "details": "Function to queue a proposal to the timelock."
      },
      "timelock()": {
        "details": "Public accessor to check the address of the timelock"
      },
      "updateTimelock(address)": {
        "details": "Public endpoint to update the underlying timelock instance. Restricted to the timelock itself, so updates must be proposed, scheduled and executed using the {Governor} workflow."
      },
      "version()": {
        "details": "See {IGovernor-version}."
      }
    },
    "version": 1
  },
  "userdoc": {
    "kind": "user",
    "methods": {
      "state(uint256)": {
        "notice": "Overriding nightmare"
      }
    },
    "version": 1
  }
}