{
  "contractName": "GovernorCompMock",
  "abi": [
    {
      "inputs": [
        {
          "internalType": "string",
          "name": "name_",
          "type": "string"
        },
        {
          "internalType": "contract ERC20VotesComp",
          "name": "token_",
          "type": "address"
        },
        {
          "internalType": "uint256",
          "name": "votingDelay_",
          "type": "uint256"
        },
        {
          "internalType": "uint256",
          "name": "votingPeriod_",
          "type": "uint256"
        }
      ],
      "stateMutability": "nonpayable",
      "type": "constructor"
    },
    {
      "anonymous": false,
      "inputs": [
        {
          "indexed": false,
          "internalType": "uint256",
          "name": "proposalId",
          "type": "uint256"
        }
      ],
      "name": "ProposalCanceled",
      "type": "event"
    },
    {
      "anonymous": false,
      "inputs": [
        {
          "indexed": false,
          "internalType": "uint256",
          "name": "proposalId",
          "type": "uint256"
        },
        {
          "indexed": false,
          "internalType": "address",
          "name": "proposer",
          "type": "address"
        },
        {
          "indexed": false,
          "internalType": "address[]",
          "name": "targets",
          "type": "address[]"
        },
        {
          "indexed": false,
          "internalType": "uint256[]",
          "name": "values",
          "type": "uint256[]"
        },
        {
          "indexed": false,
          "internalType": "string[]",
          "name": "signatures",
          "type": "string[]"
        },
        {
          "indexed": false,
          "internalType": "bytes[]",
          "name": "calldatas",
          "type": "bytes[]"
        },
        {
          "indexed": false,
          "internalType": "uint256",
          "name": "startBlock",
          "type": "uint256"
        },
        {
          "indexed": false,
          "internalType": "uint256",
          "name": "endBlock",
          "type": "uint256"
        },
        {
          "indexed": false,
          "internalType": "string",
          "name": "description",
          "type": "string"
        }
      ],
      "name": "ProposalCreated",
      "type": "event"
    },
    {
      "anonymous": false,
      "inputs": [
        {
          "indexed": false,
          "internalType": "uint256",
          "name": "proposalId",
          "type": "uint256"
        }
      ],
      "name": "ProposalExecuted",
      "type": "event"
    },
    {
      "anonymous": false,
      "inputs": [
        {
          "indexed": true,
          "internalType": "address",
          "name": "voter",
          "type": "address"
        },
        {
          "indexed": false,
          "internalType": "uint256",
          "name": "proposalId",
          "type": "uint256"
        },
        {
          "indexed": false,
          "internalType": "uint8",
          "name": "support",
          "type": "uint8"
        },
        {
          "indexed": false,
          "internalType": "uint256",
          "name": "weight",
          "type": "uint256"
        },
        {
          "indexed": false,
          "internalType": "string",
          "name": "reason",
          "type": "string"
        }
      ],
      "name": "VoteCast",
      "type": "event"
    },
    {
      "inputs": [],
      "name": "BALLOT_TYPEHASH",
      "outputs": [
        {
          "internalType": "bytes32",
          "name": "",
          "type": "bytes32"
        }
      ],
      "stateMutability": "view",
      "type": "function"
    },
    {
      "inputs": [],
      "name": "COUNTING_MODE",
      "outputs": [
        {
          "internalType": "string",
          "name": "",
          "type": "string"
        }
      ],
      "stateMutability": "pure",
      "type": "function"
    },
    {
      "inputs": [
        {
          "internalType": "uint256",
          "name": "proposalId",
          "type": "uint256"
        },
        {
          "internalType": "uint8",
          "name": "support",
          "type": "uint8"
        }
      ],
      "name": "castVote",
      "outputs": [
        {
          "internalType": "uint256",
          "name": "",
          "type": "uint256"
        }
      ],
      "stateMutability": "nonpayable",
      "type": "function"
    },
    {
      "inputs": [
        {
          "internalType": "uint256",
          "name": "proposalId",
          "type": "uint256"
        },
        {
          "internalType": "uint8",
          "name": "support",
          "type": "uint8"
        },
        {
          "internalType": "uint8",
          "name": "v",
          "type": "uint8"
        },
        {
          "internalType": "bytes32",
          "name": "r",
          "type": "bytes32"
        },
        {
          "internalType": "bytes32",
          "name": "s",
          "type": "bytes32"
        }
      ],
      "name": "castVoteBySig",
      "outputs": [
        {
          "internalType": "uint256",
          "name": "",
          "type": "uint256"
        }
      ],
      "stateMutability": "nonpayable",
      "type": "function"
    },
    {
      "inputs": [
        {
          "internalType": "uint256",
          "name": "proposalId",
          "type": "uint256"
        },
        {
          "internalType": "uint8",
          "name": "support",
          "type": "uint8"
        },
        {
          "internalType": "string",
          "name": "reason",
          "type": "string"
        }
      ],
      "name": "castVoteWithReason",
      "outputs": [
        {
          "internalType": "uint256",
          "name": "",
          "type": "uint256"
        }
      ],
      "stateMutability": "nonpayable",
      "type": "function"
    },
    {
      "inputs": [
        {
          "internalType": "address[]",
          "name": "targets",
          "type": "address[]"
        },
        {
          "internalType": "uint256[]",
          "name": "values",
          "type": "uint256[]"
        },
        {
          "internalType": "bytes[]",
          "name": "calldatas",
          "type": "bytes[]"
        },
        {
          "internalType": "bytes32",
          "name": "descriptionHash",
          "type": "bytes32"
        }
      ],
      "name": "execute",
      "outputs": [
        {
          "internalType": "uint256",
          "name": "",
          "type": "uint256"
        }
      ],
      "stateMutability": "payable",
      "type": "function"
    },
    {
      "inputs": [
        {
          "internalType": "uint256",
          "name": "proposalId",
          "type": "uint256"
        },
        {
          "internalType": "address",
          "name": "account",
          "type": "address"
        }
      ],
      "name": "hasVoted",
      "outputs": [
        {
          "internalType": "bool",
          "name": "",
          "type": "bool"
        }
      ],
      "stateMutability": "view",
      "type": "function"
    },
    {
      "inputs": [
        {
          "internalType": "address[]",
          "name": "targets",
          "type": "address[]"
        },
        {
          "internalType": "uint256[]",
          "name": "values",
          "type": "uint256[]"
        },
        {
          "internalType": "bytes[]",
          "name": "calldatas",
          "type": "bytes[]"
        },
        {
          "internalType": "bytes32",
          "name": "descriptionHash",
          "type": "bytes32"
        }
      ],
      "name": "hashProposal",
      "outputs": [
        {
          "internalType": "uint256",
          "name": "",
          "type": "uint256"
        }
      ],
      "stateMutability": "pure",
      "type": "function"
    },
    {
      "inputs": [],
      "name": "name",
      "outputs": [
        {
          "internalType": "string",
          "name": "",
          "type": "string"
        }
      ],
      "stateMutability": "view",
      "type": "function"
    },
    {
      "inputs": [
        {
          "internalType": "uint256",
          "name": "proposalId",
          "type": "uint256"
        }
      ],
      "name": "proposalDeadline",
      "outputs": [
        {
          "internalType": "uint256",
          "name": "",
          "type": "uint256"
        }
      ],
      "stateMutability": "view",
      "type": "function"
    },
    {
      "inputs": [
        {
          "internalType": "uint256",
          "name": "proposalId",
          "type": "uint256"
        }
      ],
      "name": "proposalSnapshot",
      "outputs": [
        {
          "internalType": "uint256",
          "name": "",
          "type": "uint256"
        }
      ],
      "stateMutability": "view",
      "type": "function"
    },
    {
      "inputs": [
        {
          "internalType": "uint256",
          "name": "proposalId",
          "type": "uint256"
        }
      ],
      "name": "proposalVotes",
      "outputs": [
        {
          "internalType": "uint256",
          "name": "againstVotes",
          "type": "uint256"
        },
        {
          "internalType": "uint256",
          "name": "forVotes",
          "type": "uint256"
        },
        {
          "internalType": "uint256",
          "name": "abstainVotes",
          "type": "uint256"
        }
      ],
      "stateMutability": "view",
      "type": "function"
    },
    {
      "inputs": [
        {
          "internalType": "address[]",
          "name": "targets",
          "type": "address[]"
        },
        {
          "internalType": "uint256[]",
          "name": "values",
          "type": "uint256[]"
        },
        {
          "internalType": "bytes[]",
          "name": "calldatas",
          "type": "bytes[]"
        },
        {
          "internalType": "string",
          "name": "description",
          "type": "string"
        }
      ],
      "name": "propose",
      "outputs": [
        {
          "internalType": "uint256",
          "name": "",
          "type": "uint256"
        }
      ],
      "stateMutability": "nonpayable",
      "type": "function"
    },
    {
      "inputs": [
        {
          "internalType": "uint256",
          "name": "proposalId",
          "type": "uint256"
        }
      ],
      "name": "state",
      "outputs": [
        {
          "internalType": "enum IGovernor.ProposalState",
          "name": "",
          "type": "uint8"
        }
      ],
      "stateMutability": "view",
      "type": "function"
    },
    {
      "inputs": [
        {
          "internalType": "bytes4",
          "name": "interfaceId",
          "type": "bytes4"
        }
      ],
      "name": "supportsInterface",
      "outputs": [
        {
          "internalType": "bool",
          "name": "",
          "type": "bool"
        }
      ],
      "stateMutability": "view",
      "type": "function"
    },
    {
      "inputs": [],
      "name": "token",
      "outputs": [
        {
          "internalType": "contract ERC20VotesComp",
          "name": "",
          "type": "address"
        }
      ],
      "stateMutability": "view",
      "type": "function"
    },
    {
      "inputs": [],
      "name": "version",
      "outputs": [
        {
          "internalType": "string",
          "name": "",
          "type": "string"
        }
      ],
      "stateMutability": "view",
      "type": "function"
    },
    {
      "stateMutability": "payable",
      "type": "receive"
    },
    {
      "inputs": [],
      "name": "votingDelay",
      "outputs": [
        {
          "internalType": "uint256",
          "name": "",
          "type": "uint256"
        }
      ],
      "stateMutability": "view",
      "type": "function"
    },
    {
      "inputs": [],
      "name": "votingPeriod",
      "outputs": [
        {
          "internalType": "uint256",
          "name": "",
          "type": "uint256"
        }
      ],
      "stateMutability": "view",
      "type": "function"
    },
    {
      "inputs": [
        {
          "internalType": "uint256",
          "name": "",
          "type": "uint256"
        }
      ],
      "name": "quorum",
      "outputs": [
        {
          "internalType": "uint256",
          "name": "",
          "type": "uint256"
        }
      ],
      "stateMutability": "pure",
      "type": "function"
    },
    {
      "inputs": [
        {
          "internalType": "address[]",
          "name": "targets",
          "type": "address[]"
        },
        {
          "internalType": "uint256[]",
          "name": "values",
          "type": "uint256[]"
        },
        {
          "internalType": "bytes[]",
          "name": "calldatas",
          "type": "bytes[]"
        },
        {
          "internalType": "bytes32",
          "name": "salt",
          "type": "bytes32"
        }
      ],
      "name": "cancel",
      "outputs": [
        {
          "internalType": "uint256",
          "name": "proposalId",
          "type": "uint256"
        }
      ],
      "stateMutability": "nonpayable",
      "type": "function"
    },
    {
      "inputs": [
        {
          "internalType": "address",
          "name": "account",
          "type": "address"
        },
        {
          "internalType": "uint256",
          "name": "blockNumber",
          "type": "uint256"
        }
      ],
      "name": "getVotes",
      "outputs": [
        {
          "internalType": "uint256",
          "name": "",
          "type": "uint256"
        }
      ],
      "stateMutability": "view",
      "type": "function"
    }
  ],
  "bytecode": "0x6101806040523480156200001257600080fd5b5060405162003fde38038062003fde83398181016040528101906200003891906200030c565b8284806200004b6200013760201b60201c565b60008280519060200120905060008280519060200120905060007f8b73c3c69bb8fe3d512ecc4cf759cc79239f7b179b0ffacaa9a75d522b39400f90508260c081815250508160e081815250504660a08181525050620000b38184846200017460201b60201c565b6080818152505080610100818152505050505050508060009080519060200190620000e0929190620001b0565b50508073ffffffffffffffffffffffffffffffffffffffff166101208173ffffffffffffffffffffffffffffffffffffffff1660601b81525050508161014081815250508061016081815250505050505062000641565b60606040518060400160405280600181526020017f3100000000000000000000000000000000000000000000000000000000000000815250905090565b6000838383463060405160200162000191959493929190620003d0565b6040516020818303038152906040528051906020012090509392505050565b828054620001be906200051e565b90600052602060002090601f016020900481019282620001e257600085556200022e565b82601f10620001fd57805160ff19168380011785556200022e565b828001600101855582156200022e579182015b828111156200022d57825182559160200191906001019062000210565b5b5090506200023d919062000241565b5090565b5b808211156200025c57600081600090555060010162000242565b5090565b600062000277620002718462000456565b6200042d565b905082815260208101848484011115620002965762000295620005ed565b5b620002a3848285620004e8565b509392505050565b600081519050620002bc816200060d565b92915050565b600082601f830112620002da57620002d9620005e8565b5b8151620002ec84826020860162000260565b91505092915050565b600081519050620003068162000627565b92915050565b60008060008060808587031215620003295762000328620005f7565b5b600085015167ffffffffffffffff8111156200034a5762000349620005f2565b5b6200035887828801620002c2565b94505060206200036b87828801620002ab565b93505060406200037e87828801620002f5565b92505060606200039187828801620002f5565b91505092959194509250565b620003a8816200048c565b82525050565b620003b981620004a0565b82525050565b620003ca81620004de565b82525050565b600060a082019050620003e76000830188620003ae565b620003f66020830187620003ae565b620004056040830186620003ae565b620004146060830185620003bf565b6200042360808301846200039d565b9695505050505050565b6000620004396200044c565b905062000447828262000554565b919050565b6000604051905090565b600067ffffffffffffffff821115620004745762000473620005b9565b5b6200047f82620005fc565b9050602081019050919050565b60006200049982620004be565b9050919050565b6000819050919050565b6000620004b7826200048c565b9050919050565b600073ffffffffffffffffffffffffffffffffffffffff82169050919050565b6000819050919050565b60005b8381101562000508578082015181840152602081019050620004eb565b8381111562000518576000848401525b50505050565b600060028204905060018216806200053757607f821691505b602082108114156200054e576200054d6200058a565b5b50919050565b6200055f82620005fc565b810181811067ffffffffffffffff82111715620005815762000580620005b9565b5b80604052505050565b7f4e487b7100000000000000000000000000000000000000000000000000000000600052602260045260246000fd5b7f4e487b7100000000000000000000000000000000000000000000000000000000600052604160045260246000fd5b600080fd5b600080fd5b600080fd5b600080fd5b6000601f19601f8301169050919050565b6200061881620004aa565b81146200062457600080fd5b50565b6200063281620004de565b81146200063e57600080fd5b50565b60805160a05160c05160e051610100516101205160601c610140516101605161392d620006b16000396000610678015260006108d30152600081816110a1015261180f0152600061198c015260006119ce015260006119ad0152600061193901526000611961015261392d6000f3fe6080604052600436106101395760003560e01c806354fd4d50116100ab578063c59057e41161006f578063c59057e4146104c2578063dd4e2ba5146104ff578063deaaa7cc1461052a578063eb9019d414610555578063f8ce560a14610592578063fc0c546a146105cf57610140565b806354fd4d50146103a357806356781388146103ce5780637b3c71d31461040b5780637d5e81e214610448578063c01f9e371461048557610140565b80633932abb1116100fd5780633932abb1146102455780633bccf4fd146102705780633e4f49e6146102ad57806343859632146102ea578063452115d614610327578063544ffc9c1461036457610140565b806301ffc9a71461014557806302a251a31461018257806306fdde03146101ad5780632656227d146101d85780632d63f6931461020857610140565b3661014057005b600080fd5b34801561015157600080fd5b5061016c60048036038101906101679190612203565b6105fa565b6040516101799190612a3b565b60405180910390f35b34801561018e57600080fd5b50610197610674565b6040516101a49190612d38565b60405180910390f35b3480156101b957600080fd5b506101c261069c565b6040516101cf9190612b76565b60405180910390f35b6101f260048036038101906101ed9190612071565b61072e565b6040516101ff9190612d38565b60405180910390f35b34801561021457600080fd5b5061022f600480360381019061022a9190612230565b610861565b60405161023c9190612d38565b60405180910390f35b34801561025157600080fd5b5061025a6108cf565b6040516102679190612d38565b60405180910390f35b34801561027c57600080fd5b5061029760048036038101906102929190612351565b6108f7565b6040516102a49190612d38565b60405180910390f35b3480156102b957600080fd5b506102d460048036038101906102cf9190612230565b610981565b6040516102e19190612b5b565b60405180910390f35b3480156102f657600080fd5b50610311600480360381019061030c919061225d565b610b48565b60405161031e9190612a3b565b60405180910390f35b34801561033357600080fd5b5061034e60048036038101906103499190612071565b610bb3565b60405161035b9190612d38565b60405180910390f35b34801561037057600080fd5b5061038b60048036038101906103869190612230565b610bcb565b60405161039a93929190612e03565b60405180910390f35b3480156103af57600080fd5b506103b8610c03565b6040516103c59190612b76565b60405180910390f35b3480156103da57600080fd5b506103f560048036038101906103f0919061229d565b610c40565b6040516104029190612d38565b60405180910390f35b34801561041757600080fd5b50610432600480360381019061042d91906122dd565b610c71565b60405161043f9190612d38565b60405180910390f35b34801561045457600080fd5b5061046f600480360381019061046a919061212c565b610cd9565b60405161047c9190612d38565b60405180910390f35b34801561049157600080fd5b506104ac60048036038101906104a79190612230565b610f79565b6040516104b99190612d38565b60405180910390f35b3480156104ce57600080fd5b506104e960048036038101906104e49190612071565b610fe7565b6040516104f69190612d38565b60405180910390f35b34801561050b57600080fd5b50610514611023565b6040516105219190612b76565b60405180910390f35b34801561053657600080fd5b5061053f611060565b60405161054c9190612a56565b60405180910390f35b34801561056157600080fd5b5061057c60048036038101906105779190612031565b611084565b6040516105899190612d38565b60405180910390f35b34801561059e57600080fd5b506105b960048036038101906105b49190612230565b611098565b6040516105c69190612d38565b60405180910390f35b3480156105db57600080fd5b506105e461109f565b6040516105f19190612b40565b60405180910390f35b60007fbf26d897000000000000000000000000000000000000000000000000000000007bffffffffffffffffffffffffffffffffffffffffffffffffffffffff1916827bffffffffffffffffffffffffffffffffffffffffffffffffffffffff1916148061066d575061066c826110c3565b5b9050919050565b60007f0000000000000000000000000000000000000000000000000000000000000000905090565b6060600080546106ab906132ce565b80601f01602080910402602001604051908101604052809291908181526020018280546106d7906132ce565b80156107245780601f106106f957610100808354040283529160200191610724565b820191906000526020600020905b81548152906001019060200180831161070757829003601f168201915b5050505050905090565b60008061073d86868686610fe7565b9050600061074a82610981565b9050600460078111156107605761075f6133b3565b5b816007811115610773576107726133b3565b5b14806107a357506005600781111561078e5761078d6133b3565b5b8160078111156107a1576107a06133b3565b5b145b6107e2576040517f08c379a00000000000000000000000000000000000000000000000000000000081526004016107d990612c98565b60405180910390fd5b600180600084815260200190815260200160002060020160006101000a81548160ff0219169083151502179055507f712ae1383f79ac853f8d882153778e0260ef8f03b504e2866e0593e04d2b291f8260405161083f9190612d38565b60405180910390a1610854828888888861112d565b8192505050949350505050565b60006108be600160008481526020019081526020016000206000016040518060200160405290816000820160009054906101000a900467ffffffffffffffff1667ffffffffffffffff1667ffffffffffffffff168152505061123c565b67ffffffffffffffff169050919050565b60007f0000000000000000000000000000000000000000000000000000000000000000905090565b6000806109586109507f150214d74d59b7d1e90c73fc22ef3d991dd0a76b046543d4d80ab92d2a50328f898960405160200161093593929190612ac4565b6040516020818303038152906040528051906020012061124a565b868686611264565b9050610975878288604051806020016040528060008152506113ef565b91505095945050505050565b60008060016000848152602001908152602001600020604051806080016040529081600082016040518060200160405290816000820160009054906101000a900467ffffffffffffffff1667ffffffffffffffff1667ffffffffffffffff16815250508152602001600182016040518060200160405290816000820160009054906101000a900467ffffffffffffffff1667ffffffffffffffff1667ffffffffffffffff168152505081526020016002820160009054906101000a900460ff161515151581526020016002820160019054906101000a900460ff1615151515815250509050806040015115610a7a576007915050610b43565b806060015115610a8e576002915050610b43565b610a9b8160000151611543565b15610aaa576000915050610b43565b610ab78160200151611543565b15610ac6576001915050610b43565b610ad3816020015161155d565b15610b0857610ae183611589565b8015610af25750610af1836115df565b5b610afd576003610b00565b60045b915050610b43565b6040517f08c379a0000000000000000000000000000000000000000000000000000000008152600401610b3a90612cb8565b60405180910390fd5b919050565b60006002600084815260200190815260200160002060030160008373ffffffffffffffffffffffffffffffffffffffff1673ffffffffffffffffffffffffffffffffffffffff16815260200190815260200160002060009054906101000a900460ff16905092915050565b6000610bc18585858561160a565b9050949350505050565b600080600080600260008681526020019081526020016000209050806000015481600101548260020154935093509350509193909250565b60606040518060400160405280600181526020017f3100000000000000000000000000000000000000000000000000000000000000815250905090565b600080610c4b611763565b9050610c68848285604051806020016040528060008152506113ef565b91505092915050565b600080610c7c611763565b9050610cce86828787878080601f016020809104026020016040519081016040528093929190818152602001838380828437600081840152601f19601f820116905080830192505050505050506113ef565b915050949350505050565b600080610cef8686868680519060200120610fe7565b90508451865114610d35576040517f08c379a0000000000000000000000000000000000000000000000000000000008152600401610d2c90612bb8565b60405180910390fd5b8351865114610d79576040517f08c379a0000000000000000000000000000000000000000000000000000000008152600401610d7090612bb8565b60405180910390fd5b6000865111610dbd576040517f08c379a0000000000000000000000000000000000000000000000000000000008152600401610db490612c18565b60405180910390fd5b6000600160008381526020019081526020016000209050610e1d816000016040518060200160405290816000820160009054906101000a900467ffffffffffffffff1667ffffffffffffffff1667ffffffffffffffff168152505061176b565b610e5c576040517f08c379a0000000000000000000000000000000000000000000000000000000008152600401610e5390612cf8565b60405180910390fd5b6000610e6e610e696108cf565b611785565b610e7743611785565b610e81919061312a565b90506000610e95610e90610674565b611785565b82610ea0919061312a565b9050610eb882846000016117dc90919063ffffffff16565b610ece81846001016117dc90919063ffffffff16565b7f7d84a6263ae0d98d3329bd7b46bb4e8d6f98cd35a7adb45c274c8b7fd5ebd5e084610ef8611763565b8b8b8d5167ffffffffffffffff811115610f1557610f14613440565b5b604051908082528060200260200182016040528015610f4857816020015b6060815260200190600190039081610f335790505b508c88888e604051610f6299989796959493929190612d53565b60405180910390a183945050505050949350505050565b6000610fd6600160008481526020019081526020016000206001016040518060200160405290816000820160009054906101000a900467ffffffffffffffff1667ffffffffffffffff1667ffffffffffffffff168152505061123c565b67ffffffffffffffff169050919050565b60008484848460405160200161100094939291906129e1565b6040516020818303038152906040528051906020012060001c9050949350505050565b60606040518060400160405280602081526020017f737570706f72743d627261766f2671756f72756d3d666f722c6162737461696e815250905090565b7f150214d74d59b7d1e90c73fc22ef3d991dd0a76b046543d4d80ab92d2a50328f81565b6000611090838361180b565b905092915050565b6000919050565b7f000000000000000000000000000000000000000000000000000000000000000081565b60007f01ffc9a7000000000000000000000000000000000000000000000000000000007bffffffffffffffffffffffffffffffffffffffffffffffffffffffff1916827bffffffffffffffffffffffffffffffffffffffffffffffffffffffff1916149050919050565b60006040518060600160405280602781526020016138d160279139905060005b85518110156112335760008087838151811061116c5761116b613411565b5b602002602001015173ffffffffffffffffffffffffffffffffffffffff1687848151811061119d5761119c613411565b5b60200260200101518785815181106111b8576111b7613411565b5b60200260200101516040516111cd919061296a565b60006040518083038185875af1925050503d806000811461120a576040519150601f19603f3d011682016040523d82523d6000602084013e61120f565b606091505b509150915061121f8282866118ce565b5050508061122c90613331565b905061114d565b50505050505050565b600081600001519050919050565b600061125d611257611935565b836119f8565b9050919050565b60007f7fffffffffffffffffffffffffffffff5d576e7357a4501ddfe92f46681b20a08260001c11156112cc576040517f08c379a00000000000000000000000000000000000000000000000000000000081526004016112c390612bd8565b60405180910390fd5b601b8460ff1614806112e15750601c8460ff16145b611320576040517f08c379a000000000000000000000000000000000000000000000000000000000815260040161131790612c38565b60405180910390fd5b6000600186868686604051600081526020016040526040516113459493929190612afb565b6020604051602081039080840390855afa158015611367573d6000803e3d6000fd5b505050602060405103519050600073ffffffffffffffffffffffffffffffffffffffff168173ffffffffffffffffffffffffffffffffffffffff1614156113e3576040517f08c379a00000000000000000000000000000000000000000000000000000000081526004016113da90612b98565b60405180910390fd5b80915050949350505050565b6000806001600087815260200190815260200160002090506001600781111561141b5761141a6133b3565b5b61142487610981565b6007811115611436576114356133b3565b5b14611476576040517f08c379a000000000000000000000000000000000000000000000000000000000815260040161146d90612bf8565b60405180910390fd5b60006114d4866114c5846000016040518060200160405290816000820160009054906101000a900467ffffffffffffffff1667ffffffffffffffff1667ffffffffffffffff168152505061123c565b67ffffffffffffffff16611084565b90506114e287878784611a2b565b8573ffffffffffffffffffffffffffffffffffffffff167fb8e138887d0aa13bab447e82de9d5c1777041ecd21ca36ba824ff1e6c07ddda48887848860405161152e9493929190612e3a565b60405180910390a28092505050949350505050565b600043826000015167ffffffffffffffff16119050919050565b600061156882611c31565b8015611582575043826000015167ffffffffffffffff1611155b9050919050565b6000806002600084815260200190815260200160002090508060020154816001015482600001546115ba91906130d4565b6115c491906130d4565b6115d56115d085610861565b611098565b1115915050919050565b6000806002600084815260200190815260200160002090508060000154816001015411915050919050565b60008061161986868686610fe7565b9050600061162682610981565b90506002600781111561163c5761163b6133b3565b5b81600781111561164f5761164e6133b3565b5b1415801561168257506006600781111561166c5761166b6133b3565b5b81600781111561167f5761167e6133b3565b5b14155b80156116b2575060078081111561169c5761169b6133b3565b5b8160078111156116af576116ae6133b3565b5b14155b6116f1576040517f08c379a00000000000000000000000000000000000000000000000000000000081526004016116e890612c78565b60405180910390fd5b600180600084815260200190815260200160002060020160016101000a81548160ff0219169083151502179055507f789cf55be980739dad1d0699b93b58e806b51c9d96619bfa8fe0a28abaa7b30c8260405161174e9190612d38565b60405180910390a18192505050949350505050565b600033905090565b600080826000015167ffffffffffffffff16149050919050565b600067ffffffffffffffff80168211156117d4576040517f08c379a00000000000000000000000000000000000000000000000000000000081526004016117cb90612c58565b60405180910390fd5b819050919050565b808260000160006101000a81548167ffffffffffffffff021916908367ffffffffffffffff1602179055505050565b60007f000000000000000000000000000000000000000000000000000000000000000073ffffffffffffffffffffffffffffffffffffffff1663782d6fe184846040518363ffffffff1660e01b81526004016118689291906129b8565b60206040518083038186803b15801561188057600080fd5b505afa158015611894573d6000803e3d6000fd5b505050506040513d601f19601f820116820180604052508101906118b891906123cc565b6bffffffffffffffffffffffff16905092915050565b606083156118de5782905061192e565b6000835111156118f15782518084602001fd5b816040517f08c379a00000000000000000000000000000000000000000000000000000000081526004016119259190612b76565b60405180910390fd5b9392505050565b60007f0000000000000000000000000000000000000000000000000000000000000000461415611987577f000000000000000000000000000000000000000000000000000000000000000090506119f5565b6119f27f00000000000000000000000000000000000000000000000000000000000000007f00000000000000000000000000000000000000000000000000000000000000007f0000000000000000000000000000000000000000000000000000000000000000611c4b565b90505b90565b60008282604051602001611a0d929190612981565b60405160208183030381529060405280519060200120905092915050565b60006002600086815260200190815260200160002090508060030160008573ffffffffffffffffffffffffffffffffffffffff1673ffffffffffffffffffffffffffffffffffffffff16815260200190815260200160002060009054906101000a900460ff1615611ad1576040517f08c379a0000000000000000000000000000000000000000000000000000000008152600401611ac890612d18565b60405180910390fd5b60018160030160008673ffffffffffffffffffffffffffffffffffffffff1673ffffffffffffffffffffffffffffffffffffffff16815260200190815260200160002060006101000a81548160ff02191690831515021790555060006002811115611b3f57611b3e6133b3565b5b60ff168360ff161415611b6c5781816000016000828254611b6091906130d4565b92505081905550611c2a565b60016002811115611b8057611b7f6133b3565b5b60ff168360ff161415611bad5781816001016000828254611ba191906130d4565b92505081905550611c29565b600280811115611bc057611bbf6133b3565b5b60ff168360ff161415611bed5781816002016000828254611be191906130d4565b92505081905550611c28565b6040517f08c379a0000000000000000000000000000000000000000000000000000000008152600401611c1f90612cd8565b60405180910390fd5b5b5b5050505050565b600080826000015167ffffffffffffffff16119050919050565b60008383834630604051602001611c66959493929190612a71565b6040516020818303038152906040528051906020012090509392505050565b6000611c98611c9384612eab565b612e86565b90508083825260208201905082856020860282011115611cbb57611cba613479565b5b60005b85811015611ceb5781611cd18882611e77565b845260208401935060208301925050600181019050611cbe565b5050509392505050565b6000611d08611d0384612ed7565b612e86565b90508083825260208201905082856020860282011115611d2b57611d2a613479565b5b60005b85811015611d7957813567ffffffffffffffff811115611d5157611d50613474565b5b808601611d5e8982611f40565b85526020850194506020840193505050600181019050611d2e565b5050509392505050565b6000611d96611d9184612f03565b612e86565b90508083825260208201905082856020860282011115611db957611db8613479565b5b60005b85811015611de95781611dcf8882611ff2565b845260208401935060208301925050600181019050611dbc565b5050509392505050565b6000611e06611e0184612f2f565b612e86565b905082815260208101848484011115611e2257611e2161347e565b5b611e2d84828561328c565b509392505050565b6000611e48611e4384612f60565b612e86565b905082815260208101848484011115611e6457611e6361347e565b5b611e6f84828561328c565b509392505050565b600081359050611e8681613846565b92915050565b600082601f830112611ea157611ea0613474565b5b8135611eb1848260208601611c85565b91505092915050565b600082601f830112611ecf57611ece613474565b5b8135611edf848260208601611cf5565b91505092915050565b600082601f830112611efd57611efc613474565b5b8135611f0d848260208601611d83565b91505092915050565b600081359050611f258161385d565b92915050565b600081359050611f3a81613874565b92915050565b600082601f830112611f5557611f54613474565b5b8135611f65848260208601611df3565b91505092915050565b60008083601f840112611f8457611f83613474565b5b8235905067ffffffffffffffff811115611fa157611fa061346f565b5b602083019150836001820283011115611fbd57611fbc613479565b5b9250929050565b600082601f830112611fd957611fd8613474565b5b8135611fe9848260208601611e35565b91505092915050565b6000813590506120018161388b565b92915050565b600081359050612016816138a2565b92915050565b60008151905061202b816138b9565b92915050565b6000806040838503121561204857612047613488565b5b600061205685828601611e77565b925050602061206785828601611ff2565b9150509250929050565b6000806000806080858703121561208b5761208a613488565b5b600085013567ffffffffffffffff8111156120a9576120a8613483565b5b6120b587828801611e8c565b945050602085013567ffffffffffffffff8111156120d6576120d5613483565b5b6120e287828801611ee8565b935050604085013567ffffffffffffffff81111561210357612102613483565b5b61210f87828801611eba565b925050606061212087828801611f16565b91505092959194509250565b6000806000806080858703121561214657612145613488565b5b600085013567ffffffffffffffff81111561216457612163613483565b5b61217087828801611e8c565b945050602085013567ffffffffffffffff81111561219157612190613483565b5b61219d87828801611ee8565b935050604085013567ffffffffffffffff8111156121be576121bd613483565b5b6121ca87828801611eba565b925050606085013567ffffffffffffffff8111156121eb576121ea613483565b5b6121f787828801611fc4565b91505092959194509250565b60006020828403121561221957612218613488565b5b600061222784828501611f2b565b91505092915050565b60006020828403121561224657612245613488565b5b600061225484828501611ff2565b91505092915050565b6000806040838503121561227457612273613488565b5b600061228285828601611ff2565b925050602061229385828601611e77565b9150509250929050565b600080604083850312156122b4576122b3613488565b5b60006122c285828601611ff2565b92505060206122d385828601612007565b9150509250929050565b600080600080606085870312156122f7576122f6613488565b5b600061230587828801611ff2565b945050602061231687828801612007565b935050604085013567ffffffffffffffff81111561233757612336613483565b5b61234387828801611f6e565b925092505092959194509250565b600080600080600060a0868803121561236d5761236c613488565b5b600061237b88828901611ff2565b955050602061238c88828901612007565b945050604061239d88828901612007565b93505060606123ae88828901611f16565b92505060806123bf88828901611f16565b9150509295509295909350565b6000602082840312156123e2576123e1613488565b5b60006123f08482850161201c565b91505092915050565b60006124058383612451565b60208301905092915050565b600061241d838361264a565b905092915050565b600061243183836126d2565b905092915050565b6000612445838361292e565b60208301905092915050565b61245a81613168565b82525050565b61246981613168565b82525050565b600061247a82612fd1565b6124848185613047565b935061248f83612f91565b8060005b838110156124c05781516124a788826123f9565b97506124b283613013565b925050600181019050612493565b5085935050505092915050565b60006124d882612fdc565b6124e28185613058565b9350836020820285016124f485612fa1565b8060005b8581101561253057848403895281516125118582612411565b945061251c83613020565b925060208a019950506001810190506124f8565b50829750879550505050505092915050565b600061254d82612fe7565b6125578185613069565b93508360208202850161256985612fb1565b8060005b858110156125a557848403895281516125868582612425565b94506125918361302d565b925060208a0199505060018101905061256d565b50829750879550505050505092915050565b60006125c282612ff2565b6125cc818561307a565b93506125d783612fc1565b8060005b838110156126085781516125ef8882612439565b97506125fa8361303a565b9250506001810190506125db565b5085935050505092915050565b61261e8161317a565b82525050565b61262d81613186565b82525050565b61264461263f82613186565b61337a565b82525050565b600061265582612ffd565b61265f818561308b565b935061266f81856020860161329b565b6126788161348d565b840191505092915050565b600061268e82612ffd565b612698818561309c565b93506126a881856020860161329b565b80840191505092915050565b6126bd81613232565b82525050565b6126cc81613244565b82525050565b60006126dd82613008565b6126e781856130a7565b93506126f781856020860161329b565b6127008161348d565b840191505092915050565b600061271682613008565b61272081856130b8565b935061273081856020860161329b565b6127398161348d565b840191505092915050565b60006127516018836130b8565b915061275c8261349e565b602082019050919050565b60006127746002836130c9565b915061277f826134c7565b600282019050919050565b60006127976021836130b8565b91506127a2826134f0565b604082019050919050565b60006127ba6022836130b8565b91506127c58261353f565b604082019050919050565b60006127dd6023836130b8565b91506127e88261358e565b604082019050919050565b60006128006018836130b8565b915061280b826135dd565b602082019050919050565b60006128236022836130b8565b915061282e82613606565b604082019050919050565b60006128466026836130b8565b915061285182613655565b604082019050919050565b6000612869601d836130b8565b9150612874826136a4565b602082019050919050565b600061288c6021836130b8565b9150612897826136cd565b604082019050919050565b60006128af601d836130b8565b91506128ba8261371c565b602082019050919050565b60006128d26035836130b8565b91506128dd82613745565b604082019050919050565b60006128f56021836130b8565b915061290082613794565b604082019050919050565b60006129186029836130b8565b9150612923826137e3565b604082019050919050565b612937816131ef565b82525050565b612946816131ef565b82525050565b6129558161327a565b82525050565b6129648161320d565b82525050565b60006129768284612683565b915081905092915050565b600061298c82612767565b91506129988285612633565b6020820191506129a88284612633565b6020820191508190509392505050565b60006040820190506129cd6000830185612460565b6129da602083018461293d565b9392505050565b600060808201905081810360008301526129fb818761246f565b90508181036020830152612a0f81866125b7565b90508181036040830152612a2381856124cd565b9050612a326060830184612624565b95945050505050565b6000602082019050612a506000830184612615565b92915050565b6000602082019050612a6b6000830184612624565b92915050565b600060a082019050612a866000830188612624565b612a936020830187612624565b612aa06040830186612624565b612aad606083018561293d565b612aba6080830184612460565b9695505050505050565b6000606082019050612ad96000830186612624565b612ae6602083018561293d565b612af3604083018461295b565b949350505050565b6000608082019050612b106000830187612624565b612b1d602083018661295b565b612b2a6040830185612624565b612b376060830184612624565b95945050505050565b6000602082019050612b5560008301846126b4565b92915050565b6000602082019050612b7060008301846126c3565b92915050565b60006020820190508181036000830152612b90818461270b565b905092915050565b60006020820190508181036000830152612bb181612744565b9050919050565b60006020820190508181036000830152612bd18161278a565b9050919050565b60006020820190508181036000830152612bf1816127ad565b9050919050565b60006020820190508181036000830152612c11816127d0565b9050919050565b60006020820190508181036000830152612c31816127f3565b9050919050565b60006020820190508181036000830152612c5181612816565b9050919050565b60006020820190508181036000830152612c7181612839565b9050919050565b60006020820190508181036000830152612c918161285c565b9050919050565b60006020820190508181036000830152612cb18161287f565b9050919050565b60006020820190508181036000830152612cd1816128a2565b9050919050565b60006020820190508181036000830152612cf1816128c5565b9050919050565b60006020820190508181036000830152612d11816128e8565b9050919050565b60006020820190508181036000830152612d318161290b565b9050919050565b6000602082019050612d4d600083018461293d565b92915050565b600061012082019050612d69600083018c61293d565b612d76602083018b612460565b8181036040830152612d88818a61246f565b90508181036060830152612d9c81896125b7565b90508181036080830152612db08188612542565b905081810360a0830152612dc481876124cd565b9050612dd360c083018661294c565b612de060e083018561294c565b818103610100830152612df3818461270b565b90509a9950505050505050505050565b6000606082019050612e18600083018661293d565b612e25602083018561293d565b612e32604083018461293d565b949350505050565b6000608082019050612e4f600083018761293d565b612e5c602083018661295b565b612e69604083018561293d565b8181036060830152612e7b818461270b565b905095945050505050565b6000612e90612ea1565b9050612e9c8282613300565b919050565b6000604051905090565b600067ffffffffffffffff821115612ec657612ec5613440565b5b602082029050602081019050919050565b600067ffffffffffffffff821115612ef257612ef1613440565b5b602082029050602081019050919050565b600067ffffffffffffffff821115612f1e57612f1d613440565b5b602082029050602081019050919050565b600067ffffffffffffffff821115612f4a57612f49613440565b5b612f538261348d565b9050602081019050919050565b600067ffffffffffffffff821115612f7b57612f7a613440565b5b612f848261348d565b9050602081019050919050565b6000819050602082019050919050565b6000819050602082019050919050565b6000819050602082019050919050565b6000819050602082019050919050565b600081519050919050565b600081519050919050565b600081519050919050565b600081519050919050565b600081519050919050565b600081519050919050565b6000602082019050919050565b6000602082019050919050565b6000602082019050919050565b6000602082019050919050565b600082825260208201905092915050565b600082825260208201905092915050565b600082825260208201905092915050565b600082825260208201905092915050565b600082825260208201905092915050565b600081905092915050565b600082825260208201905092915050565b600082825260208201905092915050565b600081905092915050565b60006130df826131ef565b91506130ea836131ef565b9250827fffffffffffffffffffffffffffffffffffffffffffffffffffffffffffffffff0382111561311f5761311e613384565b5b828201905092915050565b6000613135826131f9565b9150613140836131f9565b92508267ffffffffffffffff0382111561315d5761315c613384565b5b828201905092915050565b6000613173826131cf565b9050919050565b60008115159050919050565b6000819050919050565b60007fffffffff0000000000000000000000000000000000000000000000000000000082169050919050565b60008190506131ca82613832565b919050565b600073ffffffffffffffffffffffffffffffffffffffff82169050919050565b6000819050919050565b600067ffffffffffffffff82169050919050565b600060ff82169050919050565b60006bffffffffffffffffffffffff82169050919050565b600061323d82613256565b9050919050565b600061324f826131bc565b9050919050565b600061326182613268565b9050919050565b6000613273826131cf565b9050919050565b6000613285826131f9565b9050919050565b82818337600083830152505050565b60005b838110156132b957808201518184015260208101905061329e565b838111156132c8576000848401525b50505050565b600060028204905060018216806132e657607f821691505b602082108114156132fa576132f96133e2565b5b50919050565b6133098261348d565b810181811067ffffffffffffffff8211171561332857613327613440565b5b80604052505050565b600061333c826131ef565b91507fffffffffffffffffffffffffffffffffffffffffffffffffffffffffffffffff82141561336f5761336e613384565b5b600182019050919050565b6000819050919050565b7f4e487b7100000000000000000000000000000000000000000000000000000000600052601160045260246000fd5b7f4e487b7100000000000000000000000000000000000000000000000000000000600052602160045260246000fd5b7f4e487b7100000000000000000000000000000000000000000000000000000000600052602260045260246000fd5b7f4e487b7100000000000000000000000000000000000000000000000000000000600052603260045260246000fd5b7f4e487b7100000000000000000000000000000000000000000000000000000000600052604160045260246000fd5b600080fd5b600080fd5b600080fd5b600080fd5b600080fd5b600080fd5b6000601f19601f8301169050919050565b7f45434453413a20696e76616c6964207369676e61747572650000000000000000600082015250565b7f1901000000000000000000000000000000000000000000000000000000000000600082015250565b7f476f7665726e6f723a20696e76616c69642070726f706f73616c206c656e677460008201527f6800000000000000000000000000000000000000000000000000000000000000602082015250565b7f45434453413a20696e76616c6964207369676e6174757265202773272076616c60008201527f7565000000000000000000000000000000000000000000000000000000000000602082015250565b7f476f7665726e6f723a20766f7465206e6f742063757272656e746c792061637460008201527f6976650000000000000000000000000000000000000000000000000000000000602082015250565b7f476f7665726e6f723a20656d7074792070726f706f73616c0000000000000000600082015250565b7f45434453413a20696e76616c6964207369676e6174757265202776272076616c60008201527f7565000000000000000000000000000000000000000000000000000000000000602082015250565b7f53616665436173743a2076616c756520646f65736e27742066697420696e203660008201527f3420626974730000000000000000000000000000000000000000000000000000602082015250565b7f476f7665726e6f723a2070726f706f73616c206e6f7420616374697665000000600082015250565b7f476f7665726e6f723a2070726f706f73616c206e6f742073756363657373667560008201527f6c00000000000000000000000000000000000000000000000000000000000000602082015250565b7f476f7665726e6f723a20756e6b6e6f776e2070726f706f73616c206964000000600082015250565b7f476f7665726e6f72566f74696e6753696d706c653a20696e76616c696420766160008201527f6c756520666f7220656e756d20566f7465547970650000000000000000000000602082015250565b7f476f7665726e6f723a2070726f706f73616c20616c726561647920657869737460008201527f7300000000000000000000000000000000000000000000000000000000000000602082015250565b7f476f7665726e6f72566f74696e6753696d706c653a20766f746520616c72656160008201527f6479206361737465640000000000000000000000000000000000000000000000602082015250565b60088110613843576138426133b3565b5b50565b61384f81613168565b811461385a57600080fd5b50565b61386681613186565b811461387157600080fd5b50565b61387d81613190565b811461388857600080fd5b50565b613894816131ef565b811461389f57600080fd5b50565b6138ab8161320d565b81146138b657600080fd5b50565b6138c28161321a565b81146138cd57600080fd5b5056fe476f7665726e6f723a2063616c6c20726576657274656420776974686f7574206d657373616765a26469706673582212207c1a1b95944d8963a112619e30669677eb6fb62932ebdb74fd80429a99d9e91d64736f6c63430008070033",
  "immutableReferences": {
    "5567": [
      {
        "length": 32,
        "start": 4257
      },
      {
        "length": 32,
        "start": 6159
      }
    ],
    "10009": [
      {
        "length": 32,
        "start": 2259
      }
    ],
    "10011": [
      {
        "length": 32,
        "start": 1656
      }
    ],
    "24333": [
      {
        "length": 32,
        "start": 6497
      }
    ],
    "24335": [
      {
        "length": 32,
        "start": 6457
      }
    ],
    "24337": [
      {
        "length": 32,
        "start": 6573
      }
    ],
    "24339": [
      {
        "length": 32,
        "start": 6606
      }
    ],
    "24341": [
      {
        "length": 32,
        "start": 6540
      }
    ]
  },
  "source": "// SPDX-License-Identifier: MIT\n\npragma solidity ^0.8.0;\n\nimport \"../governance/Governor.sol\";\nimport \"../governance/extensions/GovernorCountingSimple.sol\";\nimport \"../governance/extensions/GovernorVotesComp.sol\";\n\ncontract GovernorCompMock is Governor, GovernorVotesComp, GovernorCountingSimple {\n    uint256 immutable _votingDelay;\n    uint256 immutable _votingPeriod;\n\n    constructor(\n        string memory name_,\n        ERC20VotesComp token_,\n        uint256 votingDelay_,\n        uint256 votingPeriod_\n    ) Governor(name_) GovernorVotesComp(token_) {\n        _votingDelay = votingDelay_;\n        _votingPeriod = votingPeriod_;\n    }\n\n    receive() external payable {}\n\n    function votingDelay() public view override returns (uint256) {\n        return _votingDelay;\n    }\n\n    function votingPeriod() public view override returns (uint256) {\n        return _votingPeriod;\n    }\n\n    function quorum(uint256) public pure override returns (uint256) {\n        return 0;\n    }\n\n    function cancel(\n        address[] memory targets,\n        uint256[] memory values,\n        bytes[] memory calldatas,\n        bytes32 salt\n    ) public returns (uint256 proposalId) {\n        return _cancel(targets, values, calldatas, salt);\n    }\n\n    function getVotes(address account, uint256 blockNumber)\n        public\n        view\n        virtual\n        override(Governor, GovernorVotesComp)\n        returns (uint256)\n    {\n        return super.getVotes(account, blockNumber);\n    }\n}\n",
  "sourcePath": "/home/tenten/Projects/upcgold.io/src/contracts/openzeppelin-contracts/contracts/mocks/GovernorCompMock.sol",
  "compiler": {
    "name": "solc",
    "version": "0.8.7+commit.e28d00a7.Emscripten.clang"
  },
  "schemaVersion": "3.2.3",
  "updatedAt": "2021-08-12T03:39:31.319Z",
  "devdoc": {
    "kind": "dev",
    "methods": {
      "COUNTING_MODE()": {
        "details": "See {IGovernor-COUNTING_MODE}."
      },
      "castVote(uint256,uint8)": {
        "details": "See {IGovernor-castVote}."
      },
      "castVoteBySig(uint256,uint8,uint8,bytes32,bytes32)": {
        "details": "See {IGovernor-castVoteBySig}."
      },
      "castVoteWithReason(uint256,uint8,string)": {
        "details": "See {IGovernor-castVoteWithReason}."
      },
      "execute(address[],uint256[],bytes[],bytes32)": {
        "details": "See {IGovernor-execute}."
      },
      "hasVoted(uint256,address)": {
        "details": "See {IGovernor-hasVoted}."
      },
      "hashProposal(address[],uint256[],bytes[],bytes32)": {
        "details": "See {IGovernor-hashProposal}. The proposal id is produced by hashing the RLC encoded `targets` array, the `values` array, the `calldatas` array and the descriptionHash (bytes32 which itself is the keccak256 hash of the description string). This proposal id can be produced from the proposal data which is part of the {ProposalCreated} event. It can even be computed in advance, before the proposal is submitted. Note that the chainId and the governor address are not part of the proposal id computation. Consequently, the same proposal (with same operation and same description) will have the same id if submitted on multiple governors accross multiple networks. This also means that in order to execute the same operation twice (on the same governor) the proposer will have to change the description in order to avoid proposal id conflicts."
      },
      "name()": {
        "details": "See {IGovernor-name}."
      },
      "proposalDeadline(uint256)": {
        "details": "See {IGovernor-proposalDeadline}."
      },
      "proposalSnapshot(uint256)": {
        "details": "See {IGovernor-proposalSnapshot}."
      },
      "proposalVotes(uint256)": {
        "details": "Accessor to the internal vote counts."
      },
      "propose(address[],uint256[],bytes[],string)": {
        "details": "See {IGovernor-propose}."
      },
      "state(uint256)": {
        "details": "See {IGovernor-state}."
      },
      "supportsInterface(bytes4)": {
        "details": "See {IERC165-supportsInterface}."
      },
      "version()": {
        "details": "See {IGovernor-version}."
      },
      "votingDelay()": {
        "details": "See {IGovernor-votingDelay}"
      },
      "votingPeriod()": {
        "details": "See {IGovernor-votingPeriod}"
      }
    },
    "version": 1
  },
  "userdoc": {
    "kind": "user",
    "methods": {},
    "version": 1
  }
}