{
  "contractName": "GovernorCompatibilityBravoMock",
  "abi": [
    {
      "inputs": [
        {
          "internalType": "string",
          "name": "name_",
          "type": "string"
        },
        {
          "internalType": "contract ERC20VotesComp",
          "name": "token_",
          "type": "address"
        },
        {
          "internalType": "uint256",
          "name": "votingDelay_",
          "type": "uint256"
        },
        {
          "internalType": "uint256",
          "name": "votingPeriod_",
          "type": "uint256"
        },
        {
          "internalType": "uint256",
          "name": "proposalThreshold_",
          "type": "uint256"
        },
        {
          "internalType": "contract ICompoundTimelock",
          "name": "timelock_",
          "type": "address"
        }
      ],
      "stateMutability": "nonpayable",
      "type": "constructor"
    },
    {
      "anonymous": false,
      "inputs": [
        {
          "indexed": false,
          "internalType": "uint256",
          "name": "proposalId",
          "type": "uint256"
        }
      ],
      "name": "ProposalCanceled",
      "type": "event"
    },
    {
      "anonymous": false,
      "inputs": [
        {
          "indexed": false,
          "internalType": "uint256",
          "name": "proposalId",
          "type": "uint256"
        },
        {
          "indexed": false,
          "internalType": "address",
          "name": "proposer",
          "type": "address"
        },
        {
          "indexed": false,
          "internalType": "address[]",
          "name": "targets",
          "type": "address[]"
        },
        {
          "indexed": false,
          "internalType": "uint256[]",
          "name": "values",
          "type": "uint256[]"
        },
        {
          "indexed": false,
          "internalType": "string[]",
          "name": "signatures",
          "type": "string[]"
        },
        {
          "indexed": false,
          "internalType": "bytes[]",
          "name": "calldatas",
          "type": "bytes[]"
        },
        {
          "indexed": false,
          "internalType": "uint256",
          "name": "startBlock",
          "type": "uint256"
        },
        {
          "indexed": false,
          "internalType": "uint256",
          "name": "endBlock",
          "type": "uint256"
        },
        {
          "indexed": false,
          "internalType": "string",
          "name": "description",
          "type": "string"
        }
      ],
      "name": "ProposalCreated",
      "type": "event"
    },
    {
      "anonymous": false,
      "inputs": [
        {
          "indexed": false,
          "internalType": "uint256",
          "name": "proposalId",
          "type": "uint256"
        }
      ],
      "name": "ProposalExecuted",
      "type": "event"
    },
    {
      "anonymous": false,
      "inputs": [
        {
          "indexed": false,
          "internalType": "uint256",
          "name": "proposalId",
          "type": "uint256"
        },
        {
          "indexed": false,
          "internalType": "uint256",
          "name": "eta",
          "type": "uint256"
        }
      ],
      "name": "ProposalQueued",
      "type": "event"
    },
    {
      "anonymous": false,
      "inputs": [
        {
          "indexed": false,
          "internalType": "address",
          "name": "oldTimelock",
          "type": "address"
        },
        {
          "indexed": false,
          "internalType": "address",
          "name": "newTimelock",
          "type": "address"
        }
      ],
      "name": "TimelockChange",
      "type": "event"
    },
    {
      "anonymous": false,
      "inputs": [
        {
          "indexed": true,
          "internalType": "address",
          "name": "voter",
          "type": "address"
        },
        {
          "indexed": false,
          "internalType": "uint256",
          "name": "proposalId",
          "type": "uint256"
        },
        {
          "indexed": false,
          "internalType": "uint8",
          "name": "support",
          "type": "uint8"
        },
        {
          "indexed": false,
          "internalType": "uint256",
          "name": "weight",
          "type": "uint256"
        },
        {
          "indexed": false,
          "internalType": "string",
          "name": "reason",
          "type": "string"
        }
      ],
      "name": "VoteCast",
      "type": "event"
    },
    {
      "inputs": [],
      "name": "BALLOT_TYPEHASH",
      "outputs": [
        {
          "internalType": "bytes32",
          "name": "",
          "type": "bytes32"
        }
      ],
      "stateMutability": "view",
      "type": "function"
    },
    {
      "inputs": [],
      "name": "COUNTING_MODE",
      "outputs": [
        {
          "internalType": "string",
          "name": "",
          "type": "string"
        }
      ],
      "stateMutability": "pure",
      "type": "function"
    },
    {
      "inputs": [],
      "name": "__acceptAdmin",
      "outputs": [],
      "stateMutability": "nonpayable",
      "type": "function"
    },
    {
      "inputs": [
        {
          "internalType": "uint256",
          "name": "proposalId",
          "type": "uint256"
        },
        {
          "internalType": "uint8",
          "name": "support",
          "type": "uint8"
        }
      ],
      "name": "castVote",
      "outputs": [
        {
          "internalType": "uint256",
          "name": "",
          "type": "uint256"
        }
      ],
      "stateMutability": "nonpayable",
      "type": "function"
    },
    {
      "inputs": [
        {
          "internalType": "uint256",
          "name": "proposalId",
          "type": "uint256"
        },
        {
          "internalType": "uint8",
          "name": "support",
          "type": "uint8"
        },
        {
          "internalType": "uint8",
          "name": "v",
          "type": "uint8"
        },
        {
          "internalType": "bytes32",
          "name": "r",
          "type": "bytes32"
        },
        {
          "internalType": "bytes32",
          "name": "s",
          "type": "bytes32"
        }
      ],
      "name": "castVoteBySig",
      "outputs": [
        {
          "internalType": "uint256",
          "name": "",
          "type": "uint256"
        }
      ],
      "stateMutability": "nonpayable",
      "type": "function"
    },
    {
      "inputs": [
        {
          "internalType": "uint256",
          "name": "proposalId",
          "type": "uint256"
        },
        {
          "internalType": "uint8",
          "name": "support",
          "type": "uint8"
        },
        {
          "internalType": "string",
          "name": "reason",
          "type": "string"
        }
      ],
      "name": "castVoteWithReason",
      "outputs": [
        {
          "internalType": "uint256",
          "name": "",
          "type": "uint256"
        }
      ],
      "stateMutability": "nonpayable",
      "type": "function"
    },
    {
      "inputs": [
        {
          "internalType": "uint256",
          "name": "proposalId",
          "type": "uint256"
        }
      ],
      "name": "getActions",
      "outputs": [
        {
          "internalType": "address[]",
          "name": "targets",
          "type": "address[]"
        },
        {
          "internalType": "uint256[]",
          "name": "values",
          "type": "uint256[]"
        },
        {
          "internalType": "string[]",
          "name": "signatures",
          "type": "string[]"
        },
        {
          "internalType": "bytes[]",
          "name": "calldatas",
          "type": "bytes[]"
        }
      ],
      "stateMutability": "view",
      "type": "function"
    },
    {
      "inputs": [
        {
          "internalType": "uint256",
          "name": "proposalId",
          "type": "uint256"
        },
        {
          "internalType": "address",
          "name": "voter",
          "type": "address"
        }
      ],
      "name": "getReceipt",
      "outputs": [
        {
          "components": [
            {
              "internalType": "bool",
              "name": "hasVoted",
              "type": "bool"
            },
            {
              "internalType": "uint8",
              "name": "support",
              "type": "uint8"
            },
            {
              "internalType": "uint96",
              "name": "votes",
              "type": "uint96"
            }
          ],
          "internalType": "struct IGovernorCompatibilityBravo.Receipt",
          "name": "",
          "type": "tuple"
        }
      ],
      "stateMutability": "view",
      "type": "function"
    },
    {
      "inputs": [
        {
          "internalType": "uint256",
          "name": "proposalId",
          "type": "uint256"
        },
        {
          "internalType": "address",
          "name": "account",
          "type": "address"
        }
      ],
      "name": "hasVoted",
      "outputs": [
        {
          "internalType": "bool",
          "name": "",
          "type": "bool"
        }
      ],
      "stateMutability": "view",
      "type": "function"
    },
    {
      "inputs": [
        {
          "internalType": "address[]",
          "name": "targets",
          "type": "address[]"
        },
        {
          "internalType": "uint256[]",
          "name": "values",
          "type": "uint256[]"
        },
        {
          "internalType": "bytes[]",
          "name": "calldatas",
          "type": "bytes[]"
        },
        {
          "internalType": "bytes32",
          "name": "descriptionHash",
          "type": "bytes32"
        }
      ],
      "name": "hashProposal",
      "outputs": [
        {
          "internalType": "uint256",
          "name": "",
          "type": "uint256"
        }
      ],
      "stateMutability": "pure",
      "type": "function"
    },
    {
      "inputs": [],
      "name": "name",
      "outputs": [
        {
          "internalType": "string",
          "name": "",
          "type": "string"
        }
      ],
      "stateMutability": "view",
      "type": "function"
    },
    {
      "inputs": [
        {
          "internalType": "uint256",
          "name": "proposalId",
          "type": "uint256"
        }
      ],
      "name": "proposalDeadline",
      "outputs": [
        {
          "internalType": "uint256",
          "name": "",
          "type": "uint256"
        }
      ],
      "stateMutability": "view",
      "type": "function"
    },
    {
      "inputs": [
        {
          "internalType": "uint256",
          "name": "proposalId",
          "type": "uint256"
        }
      ],
      "name": "proposalSnapshot",
      "outputs": [
        {
          "internalType": "uint256",
          "name": "",
          "type": "uint256"
        }
      ],
      "stateMutability": "view",
      "type": "function"
    },
    {
      "inputs": [
        {
          "internalType": "uint256",
          "name": "proposalId",
          "type": "uint256"
        }
      ],
      "name": "proposals",
      "outputs": [
        {
          "internalType": "uint256",
          "name": "id",
          "type": "uint256"
        },
        {
          "internalType": "address",
          "name": "proposer",
          "type": "address"
        },
        {
          "internalType": "uint256",
          "name": "eta",
          "type": "uint256"
        },
        {
          "internalType": "uint256",
          "name": "startBlock",
          "type": "uint256"
        },
        {
          "internalType": "uint256",
          "name": "endBlock",
          "type": "uint256"
        },
        {
          "internalType": "uint256",
          "name": "forVotes",
          "type": "uint256"
        },
        {
          "internalType": "uint256",
          "name": "againstVotes",
          "type": "uint256"
        },
        {
          "internalType": "uint256",
          "name": "abstainVotes",
          "type": "uint256"
        },
        {
          "internalType": "bool",
          "name": "canceled",
          "type": "bool"
        },
        {
          "internalType": "bool",
          "name": "executed",
          "type": "bool"
        }
      ],
      "stateMutability": "view",
      "type": "function"
    },
    {
      "inputs": [],
      "name": "quorumVotes",
      "outputs": [
        {
          "internalType": "uint256",
          "name": "",
          "type": "uint256"
        }
      ],
      "stateMutability": "view",
      "type": "function"
    },
    {
      "inputs": [],
      "name": "timelock",
      "outputs": [
        {
          "internalType": "address",
          "name": "",
          "type": "address"
        }
      ],
      "stateMutability": "view",
      "type": "function"
    },
    {
      "inputs": [],
      "name": "token",
      "outputs": [
        {
          "internalType": "contract ERC20VotesComp",
          "name": "",
          "type": "address"
        }
      ],
      "stateMutability": "view",
      "type": "function"
    },
    {
      "inputs": [
        {
          "internalType": "contract ICompoundTimelock",
          "name": "newTimelock",
          "type": "address"
        }
      ],
      "name": "updateTimelock",
      "outputs": [],
      "stateMutability": "nonpayable",
      "type": "function"
    },
    {
      "inputs": [],
      "name": "version",
      "outputs": [
        {
          "internalType": "string",
          "name": "",
          "type": "string"
        }
      ],
      "stateMutability": "view",
      "type": "function"
    },
    {
      "inputs": [
        {
          "internalType": "bytes4",
          "name": "interfaceId",
          "type": "bytes4"
        }
      ],
      "name": "supportsInterface",
      "outputs": [
        {
          "internalType": "bool",
          "name": "",
          "type": "bool"
        }
      ],
      "stateMutability": "view",
      "type": "function"
    },
    {
      "inputs": [],
      "name": "votingDelay",
      "outputs": [
        {
          "internalType": "uint256",
          "name": "",
          "type": "uint256"
        }
      ],
      "stateMutability": "view",
      "type": "function"
    },
    {
      "inputs": [],
      "name": "votingPeriod",
      "outputs": [
        {
          "internalType": "uint256",
          "name": "",
          "type": "uint256"
        }
      ],
      "stateMutability": "view",
      "type": "function"
    },
    {
      "inputs": [],
      "name": "proposalThreshold",
      "outputs": [
        {
          "internalType": "uint256",
          "name": "",
          "type": "uint256"
        }
      ],
      "stateMutability": "view",
      "type": "function"
    },
    {
      "inputs": [
        {
          "internalType": "uint256",
          "name": "",
          "type": "uint256"
        }
      ],
      "name": "quorum",
      "outputs": [
        {
          "internalType": "uint256",
          "name": "",
          "type": "uint256"
        }
      ],
      "stateMutability": "pure",
      "type": "function"
    },
    {
      "inputs": [
        {
          "internalType": "uint256",
          "name": "proposalId",
          "type": "uint256"
        }
      ],
      "name": "state",
      "outputs": [
        {
          "internalType": "enum IGovernor.ProposalState",
          "name": "",
          "type": "uint8"
        }
      ],
      "stateMutability": "view",
      "type": "function"
    },
    {
      "inputs": [
        {
          "internalType": "uint256",
          "name": "proposalId",
          "type": "uint256"
        }
      ],
      "name": "proposalEta",
      "outputs": [
        {
          "internalType": "uint256",
          "name": "",
          "type": "uint256"
        }
      ],
      "stateMutability": "view",
      "type": "function"
    },
    {
      "inputs": [
        {
          "internalType": "address[]",
          "name": "targets",
          "type": "address[]"
        },
        {
          "internalType": "uint256[]",
          "name": "values",
          "type": "uint256[]"
        },
        {
          "internalType": "bytes[]",
          "name": "calldatas",
          "type": "bytes[]"
        },
        {
          "internalType": "string",
          "name": "description",
          "type": "string"
        }
      ],
      "name": "propose",
      "outputs": [
        {
          "internalType": "uint256",
          "name": "",
          "type": "uint256"
        }
      ],
      "stateMutability": "nonpayable",
      "type": "function"
    },
    {
      "inputs": [
        {
          "internalType": "address[]",
          "name": "targets",
          "type": "address[]"
        },
        {
          "internalType": "uint256[]",
          "name": "values",
          "type": "uint256[]"
        },
        {
          "internalType": "string[]",
          "name": "signatures",
          "type": "string[]"
        },
        {
          "internalType": "bytes[]",
          "name": "calldatas",
          "type": "bytes[]"
        },
        {
          "internalType": "string",
          "name": "description",
          "type": "string"
        }
      ],
      "name": "propose",
      "outputs": [
        {
          "internalType": "uint256",
          "name": "",
          "type": "uint256"
        }
      ],
      "stateMutability": "nonpayable",
      "type": "function"
    },
    {
      "inputs": [
        {
          "internalType": "address[]",
          "name": "targets",
          "type": "address[]"
        },
        {
          "internalType": "uint256[]",
          "name": "values",
          "type": "uint256[]"
        },
        {
          "internalType": "bytes[]",
          "name": "calldatas",
          "type": "bytes[]"
        },
        {
          "internalType": "bytes32",
          "name": "salt",
          "type": "bytes32"
        }
      ],
      "name": "queue",
      "outputs": [
        {
          "internalType": "uint256",
          "name": "",
          "type": "uint256"
        }
      ],
      "stateMutability": "nonpayable",
      "type": "function"
    },
    {
      "inputs": [
        {
          "internalType": "uint256",
          "name": "proposalId",
          "type": "uint256"
        }
      ],
      "name": "queue",
      "outputs": [],
      "stateMutability": "nonpayable",
      "type": "function"
    },
    {
      "inputs": [
        {
          "internalType": "address[]",
          "name": "targets",
          "type": "address[]"
        },
        {
          "internalType": "uint256[]",
          "name": "values",
          "type": "uint256[]"
        },
        {
          "internalType": "bytes[]",
          "name": "calldatas",
          "type": "bytes[]"
        },
        {
          "internalType": "bytes32",
          "name": "salt",
          "type": "bytes32"
        }
      ],
      "name": "execute",
      "outputs": [
        {
          "internalType": "uint256",
          "name": "",
          "type": "uint256"
        }
      ],
      "stateMutability": "payable",
      "type": "function"
    },
    {
      "inputs": [
        {
          "internalType": "uint256",
          "name": "proposalId",
          "type": "uint256"
        }
      ],
      "name": "execute",
      "outputs": [],
      "stateMutability": "payable",
      "type": "function"
    },
    {
      "inputs": [
        {
          "internalType": "address[]",
          "name": "targets",
          "type": "address[]"
        },
        {
          "internalType": "uint256[]",
          "name": "values",
          "type": "uint256[]"
        },
        {
          "internalType": "bytes[]",
          "name": "calldatas",
          "type": "bytes[]"
        },
        {
          "internalType": "bytes32",
          "name": "salt",
          "type": "bytes32"
        }
      ],
      "name": "cancel",
      "outputs": [
        {
          "internalType": "uint256",
          "name": "proposalId",
          "type": "uint256"
        }
      ],
      "stateMutability": "nonpayable",
      "type": "function"
    },
    {
      "inputs": [
        {
          "internalType": "address",
          "name": "account",
          "type": "address"
        },
        {
          "internalType": "uint256",
          "name": "blockNumber",
          "type": "uint256"
        }
      ],
      "name": "getVotes",
      "outputs": [
        {
          "internalType": "uint256",
          "name": "",
          "type": "uint256"
        }
      ],
      "stateMutability": "view",
      "type": "function"
    }
  ],
  "bytecode": "0x6101a06040523480156200001257600080fd5b5060405162006a3738038062006a378339818101604052810190620000389190620003e2565b848187806200004c6200015560201b60201c565b60008280519060200120905060008280519060200120905060007f8b73c3c69bb8fe3d512ecc4cf759cc79239f7b179b0ffacaa9a75d522b39400f90508260c081815250508160e081815250504660a08181525050620000b48184846200019260201b60201c565b6080818152505080610100818152505050505050508060009080519060200190620000e19291906200026f565b5050620000f481620001ce60201b60201c565b508073ffffffffffffffffffffffffffffffffffffffff166101208173ffffffffffffffffffffffffffffffffffffffff1660601b8152505050836101408181525050826101608181525050816101808181525050505050505050620007b0565b60606040518060400160405280600181526020017f3100000000000000000000000000000000000000000000000000000000000000815250905090565b60008383834630604051602001620001af959493929190620004fd565b6040516020818303038152906040528051906020012090509392505050565b7f08f74ea46ef7894f65eabfb5e6e695de773a000b47c529ab559178069b226401600360009054906101000a900473ffffffffffffffffffffffffffffffffffffffff168260405162000223929190620004d0565b60405180910390a180600360006101000a81548173ffffffffffffffffffffffffffffffffffffffff021916908373ffffffffffffffffffffffffffffffffffffffff16021790555050565b8280546200027d9062000673565b90600052602060002090601f016020900481019282620002a15760008555620002ed565b82601f10620002bc57805160ff1916838001178555620002ed565b82800160010185558215620002ed579182015b82811115620002ec578251825591602001919060010190620002cf565b5b509050620002fc919062000300565b5090565b5b808211156200031b57600081600090555060010162000301565b5090565b600062000336620003308462000583565b6200055a565b90508281526020810184848401111562000355576200035462000742565b5b620003628482856200063d565b509392505050565b6000815190506200037b8162000762565b92915050565b60008151905062000392816200077c565b92915050565b600082601f830112620003b057620003af6200073d565b5b8151620003c28482602086016200031f565b91505092915050565b600081519050620003dc8162000796565b92915050565b60008060008060008060c087890312156200040257620004016200074c565b5b600087015167ffffffffffffffff81111562000423576200042262000747565b5b6200043189828a0162000398565b96505060206200044489828a016200036a565b95505060406200045789828a01620003cb565b94505060606200046a89828a01620003cb565b93505060806200047d89828a01620003cb565b92505060a06200049089828a0162000381565b9150509295509295509295565b620004a881620005b9565b82525050565b620004b981620005e1565b82525050565b620004ca8162000633565b82525050565b6000604082019050620004e760008301856200049d565b620004f660208301846200049d565b9392505050565b600060a082019050620005146000830188620004ae565b620005236020830187620004ae565b620005326040830186620004ae565b620005416060830185620004bf565b6200055060808301846200049d565b9695505050505050565b60006200056662000579565b9050620005748282620006a9565b919050565b6000604051905090565b600067ffffffffffffffff821115620005a157620005a06200070e565b5b620005ac8262000751565b9050602081019050919050565b6000620005c68262000613565b9050919050565b6000620005da8262000613565b9050919050565b6000819050919050565b6000620005f882620005b9565b9050919050565b60006200060c82620005cd565b9050919050565b600073ffffffffffffffffffffffffffffffffffffffff82169050919050565b6000819050919050565b60005b838110156200065d57808201518184015260208101905062000640565b838111156200066d576000848401525b50505050565b600060028204905060018216806200068c57607f821691505b60208210811415620006a357620006a2620006df565b5b50919050565b620006b48262000751565b810181811067ffffffffffffffff82111715620006d657620006d56200070e565b5b80604052505050565b7f4e487b7100000000000000000000000000000000000000000000000000000000600052602260045260246000fd5b7f4e487b7100000000000000000000000000000000000000000000000000000000600052604160045260246000fd5b600080fd5b600080fd5b600080fd5b600080fd5b6000601f19601f8301169050919050565b6200076d81620005eb565b81146200077957600080fd5b50565b6200078781620005ff565b81146200079357600080fd5b50565b620007a18162000633565b8114620007ad57600080fd5b50565b60805160a05160c05160e051610100516101205160601c61014051610160516101805161620c6200082b6000396000611102015260006109ff01526000610e300152600081816117320152612a6d01526000612c9701526000612cd901526000612cb801526000612c4401526000612c6c015261620c6000f3fe6080604052600436106101f95760003560e01c80637d5e81e21161010d578063da95691a116100a0578063e23a9a521161006f578063e23a9a52146107f6578063eb9019d414610833578063f8ce560a14610870578063fc0c546a146108ad578063fe0d94c1146108d8576101f9565b8063da95691a1461073a578063dd4e2ba514610777578063ddf0b009146107a2578063deaaa7cc146107cb576101f9565b8063b9a61961116100dc578063b9a619611461067e578063c01f9e3714610695578063c59057e4146106d2578063d33219b41461070f576101f9565b80637d5e81e2146105b0578063a890c910146105ed578063ab58fb8e14610616578063b58131b014610653576101f9565b8063328dd98211610190578063438596321161015f5780634385963214610491578063452115d6146104ce57806354fd4d501461050b57806356781388146105365780637b3c71d314610573576101f9565b8063328dd982146103ac5780633932abb1146103ec5780633bccf4fd146104175780633e4f49e614610454576101f9565b8063160cbed7116101cc578063160cbed7146102d757806324bc1a64146103145780632656227d1461033f5780632d63f6931461036f576101f9565b8063013cf08b146101fe57806301ffc9a71461024457806302a251a31461028157806306fdde03146102ac575b600080fd5b34801561020a57600080fd5b5061022560048036038101906102209190614499565b6108f4565b60405161023b9a999897969594939291906153fa565b60405180910390f35b34801561025057600080fd5b5061026b600480360381019061026691906143f6565b6109e9565b6040516102789190614f77565b60405180910390f35b34801561028d57600080fd5b506102966109fb565b6040516102a3919061532f565b60405180910390f35b3480156102b857600080fd5b506102c1610a23565b6040516102ce91906150b2565b60405180910390f35b3480156102e357600080fd5b506102fe60048036038101906102f99190614103565b610ab5565b60405161030b919061532f565b60405180910390f35b34801561032057600080fd5b50610329610acd565b604051610336919061532f565b60405180910390f35b61035960048036038101906103549190614103565b610ae9565b604051610366919061532f565b60405180910390f35b34801561037b57600080fd5b5061039660048036038101906103919190614499565b610b01565b6040516103a3919061532f565b60405180910390f35b3480156103b857600080fd5b506103d360048036038101906103ce9190614499565b610b6f565b6040516103e39493929190614f16565b60405180910390f35b3480156103f857600080fd5b50610401610e2c565b60405161040e919061532f565b60405180910390f35b34801561042357600080fd5b5061043e600480360381019061043991906145e7565b610e54565b60405161044b919061532f565b60405180910390f35b34801561046057600080fd5b5061047b60048036038101906104769190614499565b610ede565b6040516104889190615097565b60405180910390f35b34801561049d57600080fd5b506104b860048036038101906104b391906144f3565b610ef0565b6040516104c59190614f77565b60405180910390f35b3480156104da57600080fd5b506104f560048036038101906104f09190614103565b610f5e565b604051610502919061532f565b60405180910390f35b34801561051757600080fd5b50610520610f76565b60405161052d91906150b2565b60405180910390f35b34801561054257600080fd5b5061055d60048036038101906105589190614533565b610fb3565b60405161056a919061532f565b60405180910390f35b34801561057f57600080fd5b5061059a60048036038101906105959190614573565b610fe4565b6040516105a7919061532f565b60405180910390f35b3480156105bc57600080fd5b506105d760048036038101906105d291906141be565b61104c565b6040516105e4919061532f565b60405180910390f35b3480156105f957600080fd5b50610614600480360381019061060f919061446c565b611064565b005b34801561062257600080fd5b5061063d60048036038101906106389190614499565b6110ec565b60405161064a919061532f565b60405180910390f35b34801561065f57600080fd5b506106686110fe565b604051610675919061532f565b60405180910390f35b34801561068a57600080fd5b50610693611126565b005b3480156106a157600080fd5b506106bc60048036038101906106b79190614499565b6111aa565b6040516106c9919061532f565b60405180910390f35b3480156106de57600080fd5b506106f960048036038101906106f49190614103565b611218565b604051610706919061532f565b60405180910390f35b34801561071b57600080fd5b50610724611254565b6040516107319190614df0565b60405180910390f35b34801561074657600080fd5b50610761600480360381019061075c9190614295565b61127e565b60405161076e919061532f565b60405180910390f35b34801561078357600080fd5b5061078c61131b565b60405161079991906150b2565b60405180910390f35b3480156107ae57600080fd5b506107c960048036038101906107c49190614499565b611358565b005b3480156107d757600080fd5b506107e061160d565b6040516107ed9190614f92565b60405180910390f35b34801561080257600080fd5b5061081d600480360381019061081891906144f3565b611631565b60405161082a9190615314565b60405180910390f35b34801561083f57600080fd5b5061085a600480360381019061085591906140c3565b611715565b604051610867919061532f565b60405180910390f35b34801561087c57600080fd5b5061089760048036038101906108929190614499565b611729565b6040516108a4919061532f565b60405180910390f35b3480156108b957600080fd5b506108c2611730565b6040516108cf919061507c565b60405180910390f35b6108f260048036038101906108ed9190614499565b611754565b005b6000806000806000806000806000808a995061090f8b6110ec565b975061091a8b610b01565b96506109258b6111aa565b95506000600260008d815260200190815260200160002090508060000160009054906101000a900473ffffffffffffffffffffffffffffffffffffffff16995080600501549550806006015494508060070154935060006109858d610ede565b90506002600781111561099b5761099a615ad7565b5b8160078111156109ae576109ad615ad7565b5b1493506007808111156109c4576109c3615ad7565b5b8160078111156109d7576109d6615ad7565b5b14925050509193959799509193959799565b60006109f482611a09565b9050919050565b60007f0000000000000000000000000000000000000000000000000000000000000000905090565b606060008054610a32906159e8565b80601f0160208091040260200160405190810160405280929190818152602001828054610a5e906159e8565b8015610aab5780601f10610a8057610100808354040283529160200191610aab565b820191906000526020600020905b815481529060010190602001808311610a8e57829003601f168201915b5050505050905090565b6000610ac385858585611a83565b9050949350505050565b6000610ae4600143610adf919061582a565b611729565b905090565b6000610af785858585611ead565b9050949350505050565b6000610b5e600160008481526020019081526020016000206000016040518060200160405290816000820160009054906101000a900467ffffffffffffffff1667ffffffffffffffff1667ffffffffffffffff1681525050611fe0565b67ffffffffffffffff169050919050565b60608060608060006002600087815260200190815260200160002090508060010181600201826003018360040183805480602002602001604051908101604052809291908181526020018280548015610c1d57602002820191906000526020600020905b8160009054906101000a900473ffffffffffffffffffffffffffffffffffffffff1673ffffffffffffffffffffffffffffffffffffffff1681526020019060010190808311610bd3575b5050505050935082805480602002602001604051908101604052809291908181526020018280548015610c6f57602002820191906000526020600020905b815481526020019060010190808311610c5b575b5050505050925081805480602002602001604051908101604052809291908181526020016000905b82821015610d43578382906000526020600020018054610cb6906159e8565b80601f0160208091040260200160405190810160405280929190818152602001828054610ce2906159e8565b8015610d2f5780601f10610d0457610100808354040283529160200191610d2f565b820191906000526020600020905b815481529060010190602001808311610d1257829003601f168201915b505050505081526020019060010190610c97565b50505050915080805480602002602001604051908101604052809291908181526020016000905b82821015610e16578382906000526020600020018054610d89906159e8565b80601f0160208091040260200160405190810160405280929190818152602001828054610db5906159e8565b8015610e025780601f10610dd757610100808354040283529160200191610e02565b820191906000526020600020905b815481529060010190602001808311610de557829003601f168201915b505050505081526020019060010190610d6a565b5050505090509450945094509450509193509193565b60007f0000000000000000000000000000000000000000000000000000000000000000905090565b600080610eb5610ead7f150214d74d59b7d1e90c73fc22ef3d991dd0a76b046543d4d80ab92d2a50328f8989604051602001610e9293929190615000565b60405160208183030381529060405280519060200120611fee565b868686612008565b9050610ed287828860405180602001604052806000815250612193565b91505095945050505050565b6000610ee9826122e7565b9050919050565b60006002600084815260200190815260200160002060080160008373ffffffffffffffffffffffffffffffffffffffff1673ffffffffffffffffffffffffffffffffffffffff16815260200190815260200160002060000160009054906101000a900460ff16905092915050565b6000610f6c85858585612412565b9050949350505050565b60606040518060400160405280600181526020017f3100000000000000000000000000000000000000000000000000000000000000815250905090565b600080610fbe61242a565b9050610fdb84828560405180602001604052806000815250612193565b91505092915050565b600080610fef61242a565b905061104186828787878080601f016020809104026020016040519081016040528093929190818152602001838380828437600081840152601f19601f82011690508083019250505050505050612193565b915050949350505050565b600061105a85858585612432565b9050949350505050565b61106c612499565b73ffffffffffffffffffffffffffffffffffffffff1661108a61242a565b73ffffffffffffffffffffffffffffffffffffffff16146110e0576040517f08c379a00000000000000000000000000000000000000000000000000000000081526004016110d7906150f4565b60405180910390fd5b6110e9816124a8565b50565b60006110f782612547565b9050919050565b60007f0000000000000000000000000000000000000000000000000000000000000000905090565b600360009054906101000a900473ffffffffffffffffffffffffffffffffffffffff1673ffffffffffffffffffffffffffffffffffffffff16630e18b6816040518163ffffffff1660e01b8152600401600060405180830381600087803b15801561119057600080fd5b505af11580156111a4573d6000803e3d6000fd5b50505050565b6000611207600160008481526020019081526020016000206001016040518060200160405290816000820160009054906101000a900467ffffffffffffffff1667ffffffffffffffff1667ffffffffffffffff1681525050611fe0565b67ffffffffffffffff169050919050565b6000848484846040516020016112319493929190614ebc565b6040516020818303038152906040528051906020012060001c9050949350505050565b6000600360009054906101000a900473ffffffffffffffffffffffffffffffffffffffff16905090565b60006112886110fe565b61129e33600143611299919061582a565b611715565b10156112df576040517f08c379a00000000000000000000000000000000000000000000000000000000081526004016112d690615134565b60405180910390fd5b60006112f687876112f088886125b5565b866126f1565b905061130e8161130461242a565b8989898989612991565b8091505095945050505050565b60606040518060400160405280601a81526020017f737570706f72743d627261766f2671756f72756d3d627261766f000000000000815250905090565b6000600260008381526020019081526020016000209050611608816001018054806020026020016040519081016040528092919081815260200182805480156113f657602002820191906000526020600020905b8160009054906101000a900473ffffffffffffffffffffffffffffffffffffffff1673ffffffffffffffffffffffffffffffffffffffff16815260200190600101908083116113ac575b50505050508260020180548060200260200160405190810160405280929190818152602001828054801561144957602002820191906000526020600020905b815481526020019060010190808311611435575b50505050506115fe84600301805480602002602001604051908101604052809291908181526020016000905b82821015611521578382906000526020600020018054611494906159e8565b80601f01602080910402602001604051908101604052809291908181526020018280546114c0906159e8565b801561150d5780601f106114e25761010080835404028352916020019161150d565b820191906000526020600020905b8154815290600101906020018083116114f057829003601f168201915b505050505081526020019060010190611475565b5050505085600401805480602002602001604051908101604052809291908181526020016000905b828210156115f5578382906000526020600020018054611568906159e8565b80601f0160208091040260200160405190810160405280929190818152602001828054611594906159e8565b80156115e15780601f106115b6576101008083540402835291602001916115e1565b820191906000526020600020905b8154815290600101906020018083116115c457829003601f168201915b505050505081526020019060010190611549565b505050506125b5565b8460090154610ab5565b505050565b7f150214d74d59b7d1e90c73fc22ef3d991dd0a76b046543d4d80ab92d2a50328f81565b6116396137db565b6002600084815260200190815260200160002060080160008373ffffffffffffffffffffffffffffffffffffffff1673ffffffffffffffffffffffffffffffffffffffff1681526020019081526020016000206040518060600160405290816000820160009054906101000a900460ff161515151581526020016000820160019054906101000a900460ff1660ff1660ff1681526020016000820160029054906101000a90046bffffffffffffffffffffffff166bffffffffffffffffffffffff166bffffffffffffffffffffffff1681525050905092915050565b60006117218383612a69565b905092915050565b6000919050565b7f000000000000000000000000000000000000000000000000000000000000000081565b6000600260008381526020019081526020016000209050611a04816001018054806020026020016040519081016040528092919081815260200182805480156117f257602002820191906000526020600020905b8160009054906101000a900473ffffffffffffffffffffffffffffffffffffffff1673ffffffffffffffffffffffffffffffffffffffff16815260200190600101908083116117a8575b50505050508260020180548060200260200160405190810160405280929190818152602001828054801561184557602002820191906000526020600020905b815481526020019060010190808311611831575b50505050506119fa84600301805480602002602001604051908101604052809291908181526020016000905b8282101561191d578382906000526020600020018054611890906159e8565b80601f01602080910402602001604051908101604052809291908181526020018280546118bc906159e8565b80156119095780601f106118de57610100808354040283529160200191611909565b820191906000526020600020905b8154815290600101906020018083116118ec57829003601f168201915b505050505081526020019060010190611871565b5050505085600401805480602002602001604051908101604052809291908181526020016000905b828210156119f1578382906000526020600020018054611964906159e8565b80601f0160208091040260200160405190810160405280929190818152602001828054611990906159e8565b80156119dd5780601f106119b2576101008083540402835291602001916119dd565b820191906000526020600020905b8154815290600101906020018083116119c057829003601f168201915b505050505081526020019060010190611945565b505050506125b5565b8460090154610ae9565b505050565b60007f6e665ced000000000000000000000000000000000000000000000000000000007bffffffffffffffffffffffffffffffffffffffffffffffffffffffff1916827bffffffffffffffffffffffffffffffffffffffffffffffffffffffff19161480611a7c5750611a7b82612b2c565b5b9050919050565b600080611a9286868686611218565b905060046007811115611aa857611aa7615ad7565b5b611ab182610ede565b6007811115611ac357611ac2615ad7565b5b14611b03576040517f08c379a0000000000000000000000000000000000000000000000000000000008152600401611afa90615274565b60405180910390fd5b6000600360009054906101000a900473ffffffffffffffffffffffffffffffffffffffff1673ffffffffffffffffffffffffffffffffffffffff16636a42b8f86040518163ffffffff1660e01b815260040160206040518083038186803b158015611b6d57600080fd5b505afa158015611b81573d6000803e3d6000fd5b505050506040513d601f19601f82011682018060405250810190611ba591906144c6565b42611bb09190615796565b9050611be2611bbe82612ba6565b60046000858152602001908152602001600020600001612bfd90919063ffffffff16565b60005b8751811015611e6657600360009054906101000a900473ffffffffffffffffffffffffffffffffffffffff1673ffffffffffffffffffffffffffffffffffffffff1663f2b06537898381518110611c3f57611c3e615b35565b5b6020026020010151898481518110611c5a57611c59615b35565b5b6020026020010151898581518110611c7557611c74615b35565b5b602002602001015186604051602001611c919493929190614e5d565b604051602081830303815290604052805190602001206040518263ffffffff1660e01b8152600401611cc39190614f92565b60206040518083038186803b158015611cdb57600080fd5b505afa158015611cef573d6000803e3d6000fd5b505050506040513d601f19601f82011682018060405250810190611d13919061439c565b15611d53576040517f08c379a0000000000000000000000000000000000000000000000000000000008152600401611d4a90615174565b60405180910390fd5b600360009054906101000a900473ffffffffffffffffffffffffffffffffffffffff1673ffffffffffffffffffffffffffffffffffffffff16633a66f901898381518110611da457611da3615b35565b5b6020026020010151898481518110611dbf57611dbe615b35565b5b6020026020010151898581518110611dda57611dd9615b35565b5b6020026020010151866040518563ffffffff1660e01b8152600401611e029493929190614e5d565b602060405180830381600087803b158015611e1c57600080fd5b505af1158015611e30573d6000803e3d6000fd5b505050506040513d601f19601f82011682018060405250810190611e5491906143c9565b5080611e5f90615a4b565b9050611be5565b507f9a2e42fd6722813d69113e7d0079d3d940171428df7373df9c7f7617cfda28928282604051611e98929190615496565b60405180910390a18192505050949350505050565b600080611ebc86868686611218565b90506000611ec982610ede565b905060046007811115611edf57611ede615ad7565b5b816007811115611ef257611ef1615ad7565b5b1480611f22575060056007811115611f0d57611f0c615ad7565b5b816007811115611f2057611f1f615ad7565b5b145b611f61576040517f08c379a0000000000000000000000000000000000000000000000000000000008152600401611f5890615274565b60405180910390fd5b600180600084815260200190815260200160002060020160006101000a81548160ff0219169083151502179055507f712ae1383f79ac853f8d882153778e0260ef8f03b504e2866e0593e04d2b291f82604051611fbe919061532f565b60405180910390a1611fd38288888888612c2c565b8192505050949350505050565b600081600001519050919050565b6000612001611ffb612c40565b83612d03565b9050919050565b60007f7fffffffffffffffffffffffffffffff5d576e7357a4501ddfe92f46681b20a08260001c1115612070576040517f08c379a000000000000000000000000000000000000000000000000000000000815260040161206790615194565b60405180910390fd5b601b8460ff1614806120855750601c8460ff16145b6120c4576040517f08c379a00000000000000000000000000000000000000000000000000000000081526004016120bb906151f4565b60405180910390fd5b6000600186868686604051600081526020016040526040516120e99493929190615037565b6020604051602081039080840390855afa15801561210b573d6000803e3d6000fd5b505050602060405103519050600073ffffffffffffffffffffffffffffffffffffffff168173ffffffffffffffffffffffffffffffffffffffff161415612187576040517f08c379a000000000000000000000000000000000000000000000000000000000815260040161217e906150d4565b60405180910390fd5b80915050949350505050565b600080600160008781526020019081526020016000209050600160078111156121bf576121be615ad7565b5b6121c887610ede565b60078111156121da576121d9615ad7565b5b1461221a576040517f08c379a0000000000000000000000000000000000000000000000000000000008152600401612211906151b4565b60405180910390fd5b600061227886612269846000016040518060200160405290816000820160009054906101000a900467ffffffffffffffff1667ffffffffffffffff1667ffffffffffffffff1681525050611fe0565b67ffffffffffffffff16611715565b905061228687878784612d36565b8573ffffffffffffffffffffffffffffffffffffffff167fb8e138887d0aa13bab447e82de9d5c1777041ecd21ca36ba824ff1e6c07ddda4888784886040516122d294939291906154bf565b60405180910390a28092505050949350505050565b6000806122f383612f60565b90506004600781111561230957612308615ad7565b5b81600781111561231c5761231b615ad7565b5b1461232a578091505061240d565b6000612335846110ec565b9050600081141561234a57819250505061240d565b600360009054906101000a900473ffffffffffffffffffffffffffffffffffffffff1673ffffffffffffffffffffffffffffffffffffffff1663c1a287e26040518163ffffffff1660e01b815260040160206040518083038186803b1580156123b257600080fd5b505afa1580156123c6573d6000803e3d6000fd5b505050506040513d601f19601f820116820180604052508101906123ea91906144c6565b816123f59190615796565b42106124065760069250505061240d565b6005925050505b919050565b600061242085858585613127565b9050949350505050565b600033905090565b600061248f8585855167ffffffffffffffff81111561245457612453615b64565b5b60405190808252806020026020018201604052801561248757816020015b60608152602001906001900390816124725790505b50868661127e565b9050949350505050565b60006124a3613279565b905090565b7f08f74ea46ef7894f65eabfb5e6e695de773a000b47c529ab559178069b226401600360009054906101000a900473ffffffffffffffffffffffffffffffffffffffff16826040516124fb929190614e0b565b60405180910390a180600360006101000a81548173ffffffffffffffffffffffffffffffffffffffff021916908373ffffffffffffffffffffffffffffffffffffffff16021790555050565b60006125a4600460008481526020019081526020016000206000016040518060200160405290816000820160009054906101000a900467ffffffffffffffff1667ffffffffffffffff1667ffffffffffffffff16815250506132a3565b67ffffffffffffffff169050919050565b60606000825167ffffffffffffffff8111156125d4576125d3615b64565b5b60405190808252806020026020018201604052801561260757816020015b60608152602001906001900390816125f25790505b50905060005b84518110156126e657600085828151811061262b5761262a615b35565b5b6020026020010151511461269b5784818151811061264c5761264b615b35565b5b60200260200101518051906020012084828151811061266e5761266d615b35565b5b6020026020010151604051602001612687929190614d91565b6040516020818303038152906040526126b7565b8381815181106126ae576126ad615b35565b5b60200260200101515b8282815181106126ca576126c9615b35565b5b6020026020010181905250806126df90615a4b565b905061260d565b508091505092915050565b6000806127078686868680519060200120611218565b9050845186511461274d576040517f08c379a000000000000000000000000000000000000000000000000000000000815260040161274490615154565b60405180910390fd5b8351865114612791576040517f08c379a000000000000000000000000000000000000000000000000000000000815260040161278890615154565b60405180910390fd5b60008651116127d5576040517f08c379a00000000000000000000000000000000000000000000000000000000081526004016127cc906151d4565b60405180910390fd5b6000600160008381526020019081526020016000209050612835816000016040518060200160405290816000820160009054906101000a900467ffffffffffffffff1667ffffffffffffffff1667ffffffffffffffff16815250506132b1565b612874576040517f08c379a000000000000000000000000000000000000000000000000000000000815260040161286b906152f4565b60405180910390fd5b6000612886612881610e2c565b612ba6565b61288f43612ba6565b61289991906157ec565b905060006128ad6128a86109fb565b612ba6565b826128b891906157ec565b90506128d082846000016132cb90919063ffffffff16565b6128e681846001016132cb90919063ffffffff16565b7f7d84a6263ae0d98d3329bd7b46bb4e8d6f98cd35a7adb45c274c8b7fd5ebd5e08461291061242a565b8b8b8d5167ffffffffffffffff81111561292d5761292c615b64565b5b60405190808252806020026020018201604052801561296057816020015b606081526020019060019003908161294b5790505b508c88888e60405161297a9998979695949392919061534a565b60405180910390a183945050505050949350505050565b6000600260008981526020019081526020016000209050868160000160006101000a81548173ffffffffffffffffffffffffffffffffffffffff021916908373ffffffffffffffffffffffffffffffffffffffff16021790555085816001019080519060200190612a0392919061380f565b5084816002019080519060200190612a1c929190613899565b5083816003019080519060200190612a359291906138e6565b5082816004019080519060200190612a4e929190613946565b50818051906020012081600901819055505050505050505050565b60007f000000000000000000000000000000000000000000000000000000000000000073ffffffffffffffffffffffffffffffffffffffff1663782d6fe184846040518363ffffffff1660e01b8152600401612ac6929190614e34565b60206040518083038186803b158015612ade57600080fd5b505afa158015612af2573d6000803e3d6000fd5b505050506040513d601f19601f82011682018060405250810190612b169190614662565b6bffffffffffffffffffffffff16905092915050565b60007fbf26d897000000000000000000000000000000000000000000000000000000007bffffffffffffffffffffffffffffffffffffffffffffffffffffffff1916827bffffffffffffffffffffffffffffffffffffffffffffffffffffffff19161480612b9f5750612b9e826132fa565b5b9050919050565b600067ffffffffffffffff8016821115612bf5576040517f08c379a0000000000000000000000000000000000000000000000000000000008152600401612bec90615214565b60405180910390fd5b819050919050565b808260000160006101000a81548167ffffffffffffffff021916908367ffffffffffffffff1602179055505050565b612c398585858585613364565b5050505050565b60007f0000000000000000000000000000000000000000000000000000000000000000461415612c92577f00000000000000000000000000000000000000000000000000000000000000009050612d00565b612cfd7f00000000000000000000000000000000000000000000000000000000000000007f00000000000000000000000000000000000000000000000000000000000000007f00000000000000000000000000000000000000000000000000000000000000006134fc565b90505b90565b60008282604051602001612d18929190614db9565b60405160208183030381529060405280519060200120905092915050565b600060026000868152602001908152602001600020905060008160080160008673ffffffffffffffffffffffffffffffffffffffff1673ffffffffffffffffffffffffffffffffffffffff16815260200190815260200160002090508060000160009054906101000a900460ff1615612de4576040517f08c379a0000000000000000000000000000000000000000000000000000000008152600401612ddb90615234565b60405180910390fd5b60018160000160006101000a81548160ff021916908315150217905550838160000160016101000a81548160ff021916908360ff160217905550612e2783613536565b8160000160026101000a8154816bffffffffffffffffffffffff02191690836bffffffffffffffffffffffff16021790555060006002811115612e6d57612e6c615ad7565b5b60ff168460ff161415612e9a5782826006016000828254612e8e9190615796565b92505081905550612f58565b60016002811115612eae57612ead615ad7565b5b60ff168460ff161415612edb5782826005016000828254612ecf9190615796565b92505081905550612f57565b600280811115612eee57612eed615ad7565b5b60ff168460ff161415612f1b5782826007016000828254612f0f9190615796565b92505081905550612f56565b6040517f08c379a0000000000000000000000000000000000000000000000000000000008152600401612f4d906152b4565b60405180910390fd5b5b5b505050505050565b60008060016000848152602001908152602001600020604051806080016040529081600082016040518060200160405290816000820160009054906101000a900467ffffffffffffffff1667ffffffffffffffff1667ffffffffffffffff16815250508152602001600182016040518060200160405290816000820160009054906101000a900467ffffffffffffffff1667ffffffffffffffff1667ffffffffffffffff168152505081526020016002820160009054906101000a900460ff161515151581526020016002820160019054906101000a900460ff1615151515815250509050806040015115613059576007915050613122565b80606001511561306d576002915050613122565b61307a8160000151613591565b15613089576000915050613122565b6130968160200151613591565b156130a5576001915050613122565b6130b281602001516135ab565b156130e7576130c0836135d7565b80156130d157506130d08361360e565b5b6130dc5760036130df565b60045b915050613122565b6040517f08c379a0000000000000000000000000000000000000000000000000000000008152600401613119906152d4565b60405180910390fd5b919050565b60008061313686868686613639565b90506000613143826110ec565b9050600081111561326c5760005b875181101561324c57600360009054906101000a900473ffffffffffffffffffffffffffffffffffffffff1673ffffffffffffffffffffffffffffffffffffffff1663591fcdfe8983815181106131ab576131aa615b35565b5b60200260200101518984815181106131c6576131c5615b35565b5b60200260200101518985815181106131e1576131e0615b35565b5b6020026020010151866040518563ffffffff1660e01b81526004016132099493929190614e5d565b600060405180830381600087803b15801561322357600080fd5b505af1158015613237573d6000803e3d6000fd5b505050508061324590615a4b565b9050613151565b5061326b60046000848152602001908152602001600020600001613792565b5b8192505050949350505050565b6000600360009054906101000a900473ffffffffffffffffffffffffffffffffffffffff16905090565b600081600001519050919050565b600080826000015167ffffffffffffffff16149050919050565b808260000160006101000a81548167ffffffffffffffff021916908367ffffffffffffffff1602179055505050565b60007f01ffc9a7000000000000000000000000000000000000000000000000000000007bffffffffffffffffffffffffffffffffffffffffffffffffffffffff1916827bffffffffffffffffffffffffffffffffffffffffffffffffffffffff1916149050919050565b600061336f866110ec565b9050600081116133b4576040517f08c379a00000000000000000000000000000000000000000000000000000000081526004016133ab90615294565b60405180910390fd5b60005b85518110156134f357600360009054906101000a900473ffffffffffffffffffffffffffffffffffffffff1673ffffffffffffffffffffffffffffffffffffffff16630825f38f86838151811061341157613410615b35565b5b602002602001015188848151811061342c5761342b615b35565b5b602002602001015188858151811061344757613446615b35565b5b602002602001015188868151811061346257613461615b35565b5b6020026020010151876040518663ffffffff1660e01b815260040161348a9493929190614e5d565b6000604051808303818588803b1580156134a357600080fd5b505af11580156134b7573d6000803e3d6000fd5b50505050506040513d6000823e3d601f19601f820116820180604052508101906134e19190614423565b50806134ec90615a4b565b90506133b7565b50505050505050565b60008383834630604051602001613517959493929190614fad565b6040516020818303038152906040528051906020012090509392505050565b60006bffffffffffffffffffffffff8016821115613589576040517f08c379a000000000000000000000000000000000000000000000000000000000815260040161358090615114565b60405180910390fd5b819050919050565b600043826000015167ffffffffffffffff16119050919050565b60006135b6826137c1565b80156135d0575043826000015167ffffffffffffffff1611155b9050919050565b600080600260008481526020019081526020016000209050806005015461360561360085610b01565b611729565b10915050919050565b6000806002600084815260200190815260200160002090508060060154816005015411915050919050565b60008061364886868686611218565b9050600061365582610ede565b90506002600781111561366b5761366a615ad7565b5b81600781111561367e5761367d615ad7565b5b141580156136b157506006600781111561369b5761369a615ad7565b5b8160078111156136ae576136ad615ad7565b5b14155b80156136e157506007808111156136cb576136ca615ad7565b5b8160078111156136de576136dd615ad7565b5b14155b613720576040517f08c379a000000000000000000000000000000000000000000000000000000000815260040161371790615254565b60405180910390fd5b600180600084815260200190815260200160002060020160016101000a81548160ff0219169083151502179055507f789cf55be980739dad1d0699b93b58e806b51c9d96619bfa8fe0a28abaa7b30c8260405161377d919061532f565b60405180910390a18192505050949350505050565b60008160000160006101000a81548167ffffffffffffffff021916908367ffffffffffffffff16021790555050565b600080826000015167ffffffffffffffff16119050919050565b6040518060600160405280600015158152602001600060ff16815260200160006bffffffffffffffffffffffff1681525090565b828054828255906000526020600020908101928215613888579160200282015b828111156138875782518260006101000a81548173ffffffffffffffffffffffffffffffffffffffff021916908373ffffffffffffffffffffffffffffffffffffffff1602179055509160200191906001019061382f565b5b50905061389591906139a6565b5090565b8280548282559060005260206000209081019282156138d5579160200282015b828111156138d45782518255916020019190600101906138b9565b5b5090506138e291906139a6565b5090565b828054828255906000526020600020908101928215613935579160200282015b828111156139345782518290805190602001906139249291906139c3565b5091602001919060010190613906565b5b5090506139429190613a49565b5090565b828054828255906000526020600020908101928215613995579160200282015b82811115613994578251829080519060200190613984929190613a6d565b5091602001919060010190613966565b5b5090506139a29190613af3565b5090565b5b808211156139bf5760008160009055506001016139a7565b5090565b8280546139cf906159e8565b90600052602060002090601f0160209004810192826139f15760008555613a38565b82601f10613a0a57805160ff1916838001178555613a38565b82800160010185558215613a38579182015b82811115613a37578251825591602001919060010190613a1c565b5b509050613a4591906139a6565b5090565b5b80821115613a695760008181613a609190613b17565b50600101613a4a565b5090565b828054613a79906159e8565b90600052602060002090601f016020900481019282613a9b5760008555613ae2565b82601f10613ab457805160ff1916838001178555613ae2565b82800160010185558215613ae2579182015b82811115613ae1578251825591602001919060010190613ac6565b5b509050613aef91906139a6565b5090565b5b80821115613b135760008181613b0a9190613b57565b50600101613af4565b5090565b508054613b23906159e8565b6000825580601f10613b355750613b54565b601f016020900490600052602060002090810190613b5391906139a6565b5b50565b508054613b63906159e8565b6000825580601f10613b755750613b94565b601f016020900490600052602060002090810190613b9391906139a6565b5b50565b6000613baa613ba584615530565b61550b565b90508083825260208201905082856020860282011115613bcd57613bcc615b9d565b5b60005b85811015613bfd5781613be38882613e59565b845260208401935060208301925050600181019050613bd0565b5050509392505050565b6000613c1a613c158461555c565b61550b565b90508083825260208201905082856020860282011115613c3d57613c3c615b9d565b5b60005b85811015613c8b57813567ffffffffffffffff811115613c6357613c62615b98565b5b808601613c708982613f7a565b85526020850194506020840193505050600181019050613c40565b5050509392505050565b6000613ca8613ca384615588565b61550b565b90508083825260208201905082856020860282011115613ccb57613cca615b9d565b5b60005b85811015613d1957813567ffffffffffffffff811115613cf157613cf0615b98565b5b808601613cfe8982614041565b85526020850194506020840193505050600181019050613cce565b5050509392505050565b6000613d36613d31846155b4565b61550b565b90508083825260208201905082856020860282011115613d5957613d58615b9d565b5b60005b85811015613d895781613d6f888261406f565b845260208401935060208301925050600181019050613d5c565b5050509392505050565b6000613da6613da1846155e0565b61550b565b905082815260208101848484011115613dc257613dc1615ba2565b5b613dcd8482856159a6565b509392505050565b6000613de8613de3846155e0565b61550b565b905082815260208101848484011115613e0457613e03615ba2565b5b613e0f8482856159b5565b509392505050565b6000613e2a613e2584615611565b61550b565b905082815260208101848484011115613e4657613e45615ba2565b5b613e518482856159a6565b509392505050565b600081359050613e688161611e565b92915050565b600082601f830112613e8357613e82615b98565b5b8135613e93848260208601613b97565b91505092915050565b600082601f830112613eb157613eb0615b98565b5b8135613ec1848260208601613c07565b91505092915050565b600082601f830112613edf57613ede615b98565b5b8135613eef848260208601613c95565b91505092915050565b600082601f830112613f0d57613f0c615b98565b5b8135613f1d848260208601613d23565b91505092915050565b600081519050613f3581616135565b92915050565b600081359050613f4a8161614c565b92915050565b600081519050613f5f8161614c565b92915050565b600081359050613f7481616163565b92915050565b600082601f830112613f8f57613f8e615b98565b5b8135613f9f848260208601613d93565b91505092915050565b600082601f830112613fbd57613fbc615b98565b5b8151613fcd848260208601613dd5565b91505092915050565b600081359050613fe58161617a565b92915050565b60008083601f84011261400157614000615b98565b5b8235905067ffffffffffffffff81111561401e5761401d615b93565b5b60208301915083600182028301111561403a57614039615b9d565b5b9250929050565b600082601f83011261405657614055615b98565b5b8135614066848260208601613e17565b91505092915050565b60008135905061407e81616191565b92915050565b60008151905061409381616191565b92915050565b6000813590506140a8816161a8565b92915050565b6000815190506140bd816161bf565b92915050565b600080604083850312156140da576140d9615bac565b5b60006140e885828601613e59565b92505060206140f98582860161406f565b9150509250929050565b6000806000806080858703121561411d5761411c615bac565b5b600085013567ffffffffffffffff81111561413b5761413a615ba7565b5b61414787828801613e6e565b945050602085013567ffffffffffffffff81111561416857614167615ba7565b5b61417487828801613ef8565b935050604085013567ffffffffffffffff81111561419557614194615ba7565b5b6141a187828801613e9c565b92505060606141b287828801613f3b565b91505092959194509250565b600080600080608085870312156141d8576141d7615bac565b5b600085013567ffffffffffffffff8111156141f6576141f5615ba7565b5b61420287828801613e6e565b945050602085013567ffffffffffffffff81111561422357614222615ba7565b5b61422f87828801613ef8565b935050604085013567ffffffffffffffff8111156142505761424f615ba7565b5b61425c87828801613e9c565b925050606085013567ffffffffffffffff81111561427d5761427c615ba7565b5b61428987828801614041565b91505092959194509250565b600080600080600060a086880312156142b1576142b0615bac565b5b600086013567ffffffffffffffff8111156142cf576142ce615ba7565b5b6142db88828901613e6e565b955050602086013567ffffffffffffffff8111156142fc576142fb615ba7565b5b61430888828901613ef8565b945050604086013567ffffffffffffffff81111561432957614328615ba7565b5b61433588828901613eca565b935050606086013567ffffffffffffffff81111561435657614355615ba7565b5b61436288828901613e9c565b925050608086013567ffffffffffffffff81111561438357614382615ba7565b5b61438f88828901614041565b9150509295509295909350565b6000602082840312156143b2576143b1615bac565b5b60006143c084828501613f26565b91505092915050565b6000602082840312156143df576143de615bac565b5b60006143ed84828501613f50565b91505092915050565b60006020828403121561440c5761440b615bac565b5b600061441a84828501613f65565b91505092915050565b60006020828403121561443957614438615bac565b5b600082015167ffffffffffffffff81111561445757614456615ba7565b5b61446384828501613fa8565b91505092915050565b60006020828403121561448257614481615bac565b5b600061449084828501613fd6565b91505092915050565b6000602082840312156144af576144ae615bac565b5b60006144bd8482850161406f565b91505092915050565b6000602082840312156144dc576144db615bac565b5b60006144ea84828501614084565b91505092915050565b6000806040838503121561450a57614509615bac565b5b60006145188582860161406f565b925050602061452985828601613e59565b9150509250929050565b6000806040838503121561454a57614549615bac565b5b60006145588582860161406f565b925050602061456985828601614099565b9150509250929050565b6000806000806060858703121561458d5761458c615bac565b5b600061459b8782880161406f565b94505060206145ac87828801614099565b935050604085013567ffffffffffffffff8111156145cd576145cc615ba7565b5b6145d987828801613feb565b925092505092959194509250565b600080600080600060a0868803121561460357614602615bac565b5b60006146118882890161406f565b955050602061462288828901614099565b945050604061463388828901614099565b935050606061464488828901613f3b565b925050608061465588828901613f3b565b9150509295509295909350565b60006020828403121561467857614677615bac565b5b6000614686848285016140ae565b91505092915050565b600061469b83836146e7565b60208301905092915050565b60006146b38383614906565b905092915050565b60006146c783836149c7565b905092915050565b60006146db8383614d37565b60208301905092915050565b6146f08161585e565b82525050565b6146ff8161585e565b82525050565b600061471082615682565b61471a81856156f8565b935061472583615642565b8060005b8381101561475657815161473d888261468f565b9750614748836156c4565b925050600181019050614729565b5085935050505092915050565b600061476e8261568d565b6147788185615709565b93508360208202850161478a85615652565b8060005b858110156147c657848403895281516147a785826146a7565b94506147b2836156d1565b925060208a0199505060018101905061478e565b50829750879550505050505092915050565b60006147e382615698565b6147ed818561571a565b9350836020820285016147ff85615662565b8060005b8581101561483b578484038952815161481c85826146bb565b9450614827836156de565b925060208a01995050600181019050614803565b50829750879550505050505092915050565b6000614858826156a3565b614862818561572b565b935061486d83615672565b8060005b8381101561489e57815161488588826146cf565b9750614890836156eb565b925050600181019050614871565b5085935050505092915050565b6148b481615882565b82525050565b6148c381615882565b82525050565b6148d28161588e565b82525050565b6148e96148e48261588e565b615a94565b82525050565b6149006148fb82615898565b615a9e565b82525050565b6000614911826156ae565b61491b818561573c565b935061492b8185602086016159b5565b61493481615bb1565b840191505092915050565b600061494a826156ae565b614954818561574d565b93506149648185602086016159b5565b61496d81615bb1565b840191505092915050565b6000614983826156ae565b61498d818561575e565b935061499d8185602086016159b5565b80840191505092915050565b6149b28161594c565b82525050565b6149c18161595e565b82525050565b60006149d2826156b9565b6149dc8185615769565b93506149ec8185602086016159b5565b6149f581615bb1565b840191505092915050565b6000614a0b826156b9565b614a15818561577a565b9350614a258185602086016159b5565b614a2e81615bb1565b840191505092915050565b6000614a4660188361577a565b9150614a5182615bc2565b602082019050919050565b6000614a6960188361577a565b9150614a7482615beb565b602082019050919050565b6000614a8c60268361577a565b9150614a9782615c14565b604082019050919050565b6000614aaf60438361577a565b9150614aba82615c63565b606082019050919050565b6000614ad260028361578b565b9150614add82615cd8565b600282019050919050565b6000614af560218361577a565b9150614b0082615d01565b604082019050919050565b6000614b1860428361577a565b9150614b2382615d50565b606082019050919050565b6000614b3b60228361577a565b9150614b4682615dc5565b604082019050919050565b6000614b5e60238361577a565b9150614b6982615e14565b604082019050919050565b6000614b8160188361577a565b9150614b8c82615e63565b602082019050919050565b6000614ba460228361577a565b9150614baf82615e8c565b604082019050919050565b6000614bc760268361577a565b9150614bd282615edb565b604082019050919050565b6000614bea602f8361577a565b9150614bf582615f2a565b604082019050919050565b6000614c0d601d8361577a565b9150614c1882615f79565b602082019050919050565b6000614c3060218361577a565b9150614c3b82615fa2565b604082019050919050565b6000614c5360318361577a565b9150614c5e82615ff1565b604082019050919050565b6000614c76602d8361577a565b9150614c8182616040565b604082019050919050565b6000614c99601d8361577a565b9150614ca48261608f565b602082019050919050565b6000614cbc60218361577a565b9150614cc7826160b8565b604082019050919050565b6000614cdf60008361577a565b9150614cea82616107565b600082019050919050565b606082016000820151614d0b60008501826148ab565b506020820151614d1e6020850182614d64565b506040820151614d316040850182614d82565b50505050565b614d4081615909565b82525050565b614d4f81615909565b82525050565b614d5e81615994565b82525050565b614d6d81615927565b82525050565b614d7c81615927565b82525050565b614d8b81615934565b82525050565b6000614d9d82856148ef565b600482019150614dad8284614978565b91508190509392505050565b6000614dc482614ac5565b9150614dd082856148d8565b602082019150614de082846148d8565b6020820191508190509392505050565b6000602082019050614e0560008301846146f6565b92915050565b6000604082019050614e2060008301856146f6565b614e2d60208301846146f6565b9392505050565b6000604082019050614e4960008301856146f6565b614e566020830184614d46565b9392505050565b600060a082019050614e7260008301876146f6565b614e7f6020830186614d46565b8181036040830152614e9081614cd2565b90508181036060830152614ea4818561493f565b9050614eb36080830184614d46565b95945050505050565b60006080820190508181036000830152614ed68187614705565b90508181036020830152614eea818661484d565b90508181036040830152614efe8185614763565b9050614f0d60608301846148c9565b95945050505050565b60006080820190508181036000830152614f308187614705565b90508181036020830152614f44818661484d565b90508181036040830152614f5881856147d8565b90508181036060830152614f6c8184614763565b905095945050505050565b6000602082019050614f8c60008301846148ba565b92915050565b6000602082019050614fa760008301846148c9565b92915050565b600060a082019050614fc260008301886148c9565b614fcf60208301876148c9565b614fdc60408301866148c9565b614fe96060830185614d46565b614ff660808301846146f6565b9695505050505050565b600060608201905061501560008301866148c9565b6150226020830185614d46565b61502f6040830184614d73565b949350505050565b600060808201905061504c60008301876148c9565b6150596020830186614d73565b61506660408301856148c9565b61507360608301846148c9565b95945050505050565b600060208201905061509160008301846149a9565b92915050565b60006020820190506150ac60008301846149b8565b92915050565b600060208201905081810360008301526150cc8184614a00565b905092915050565b600060208201905081810360008301526150ed81614a39565b9050919050565b6000602082019050818103600083015261510d81614a5c565b9050919050565b6000602082019050818103600083015261512d81614a7f565b9050919050565b6000602082019050818103600083015261514d81614aa2565b9050919050565b6000602082019050818103600083015261516d81614ae8565b9050919050565b6000602082019050818103600083015261518d81614b0b565b9050919050565b600060208201905081810360008301526151ad81614b2e565b9050919050565b600060208201905081810360008301526151cd81614b51565b9050919050565b600060208201905081810360008301526151ed81614b74565b9050919050565b6000602082019050818103600083015261520d81614b97565b9050919050565b6000602082019050818103600083015261522d81614bba565b9050919050565b6000602082019050818103600083015261524d81614bdd565b9050919050565b6000602082019050818103600083015261526d81614c00565b9050919050565b6000602082019050818103600083015261528d81614c23565b9050919050565b600060208201905081810360008301526152ad81614c46565b9050919050565b600060208201905081810360008301526152cd81614c69565b9050919050565b600060208201905081810360008301526152ed81614c8c565b9050919050565b6000602082019050818103600083015261530d81614caf565b9050919050565b60006060820190506153296000830184614cf5565b92915050565b60006020820190506153446000830184614d46565b92915050565b600061012082019050615360600083018c614d46565b61536d602083018b6146f6565b818103604083015261537f818a614705565b90508181036060830152615393818961484d565b905081810360808301526153a781886147d8565b905081810360a08301526153bb8187614763565b90506153ca60c0830186614d55565b6153d760e0830185614d55565b8181036101008301526153ea8184614a00565b90509a9950505050505050505050565b600061014082019050615410600083018d614d46565b61541d602083018c6146f6565b61542a604083018b614d46565b615437606083018a614d46565b6154446080830189614d46565b61545160a0830188614d46565b61545e60c0830187614d46565b61546b60e0830186614d46565b6154796101008301856148ba565b6154876101208301846148ba565b9b9a5050505050505050505050565b60006040820190506154ab6000830185614d46565b6154b86020830184614d46565b9392505050565b60006080820190506154d46000830187614d46565b6154e16020830186614d73565b6154ee6040830185614d46565b81810360608301526155008184614a00565b905095945050505050565b6000615515615526565b90506155218282615a1a565b919050565b6000604051905090565b600067ffffffffffffffff82111561554b5761554a615b64565b5b602082029050602081019050919050565b600067ffffffffffffffff82111561557757615576615b64565b5b602082029050602081019050919050565b600067ffffffffffffffff8211156155a3576155a2615b64565b5b602082029050602081019050919050565b600067ffffffffffffffff8211156155cf576155ce615b64565b5b602082029050602081019050919050565b600067ffffffffffffffff8211156155fb576155fa615b64565b5b61560482615bb1565b9050602081019050919050565b600067ffffffffffffffff82111561562c5761562b615b64565b5b61563582615bb1565b9050602081019050919050565b6000819050602082019050919050565b6000819050602082019050919050565b6000819050602082019050919050565b6000819050602082019050919050565b600081519050919050565b600081519050919050565b600081519050919050565b600081519050919050565b600081519050919050565b600081519050919050565b6000602082019050919050565b6000602082019050919050565b6000602082019050919050565b6000602082019050919050565b600082825260208201905092915050565b600082825260208201905092915050565b600082825260208201905092915050565b600082825260208201905092915050565b600082825260208201905092915050565b600082825260208201905092915050565b600081905092915050565b600082825260208201905092915050565b600082825260208201905092915050565b600081905092915050565b60006157a182615909565b91506157ac83615909565b9250827fffffffffffffffffffffffffffffffffffffffffffffffffffffffffffffffff038211156157e1576157e0615aa8565b5b828201905092915050565b60006157f782615913565b915061580283615913565b92508267ffffffffffffffff0382111561581f5761581e615aa8565b5b828201905092915050565b600061583582615909565b915061584083615909565b92508282101561585357615852615aa8565b5b828203905092915050565b6000615869826158e9565b9050919050565b600061587b826158e9565b9050919050565b60008115159050919050565b6000819050919050565b60007fffffffff0000000000000000000000000000000000000000000000000000000082169050919050565b60006158cf82615870565b9050919050565b60008190506158e48261610a565b919050565b600073ffffffffffffffffffffffffffffffffffffffff82169050919050565b6000819050919050565b600067ffffffffffffffff82169050919050565b600060ff82169050919050565b60006bffffffffffffffffffffffff82169050919050565b600061595782615970565b9050919050565b6000615969826158d6565b9050919050565b600061597b82615982565b9050919050565b600061598d826158e9565b9050919050565b600061599f82615913565b9050919050565b82818337600083830152505050565b60005b838110156159d35780820151818401526020810190506159b8565b838111156159e2576000848401525b50505050565b60006002820490506001821680615a0057607f821691505b60208210811415615a1457615a13615b06565b5b50919050565b615a2382615bb1565b810181811067ffffffffffffffff82111715615a4257615a41615b64565b5b80604052505050565b6000615a5682615909565b91507fffffffffffffffffffffffffffffffffffffffffffffffffffffffffffffffff821415615a8957615a88615aa8565b5b600182019050919050565b6000819050919050565b6000819050919050565b7f4e487b7100000000000000000000000000000000000000000000000000000000600052601160045260246000fd5b7f4e487b7100000000000000000000000000000000000000000000000000000000600052602160045260246000fd5b7f4e487b7100000000000000000000000000000000000000000000000000000000600052602260045260246000fd5b7f4e487b7100000000000000000000000000000000000000000000000000000000600052603260045260246000fd5b7f4e487b7100000000000000000000000000000000000000000000000000000000600052604160045260246000fd5b600080fd5b600080fd5b600080fd5b600080fd5b600080fd5b600080fd5b6000601f19601f8301169050919050565b7f45434453413a20696e76616c6964207369676e61747572650000000000000000600082015250565b7f476f7665726e6f723a206f6e6c79476f7665726e616e63650000000000000000600082015250565b7f53616665436173743a2076616c756520646f65736e27742066697420696e203960008201527f3620626974730000000000000000000000000000000000000000000000000000602082015250565b7f476f7665726e6f72436f6d7061746962696c697479427261766f3a2070726f7060008201527f6f73657220766f7465732062656c6f772070726f706f73616c2074687265736860208201527f6f6c640000000000000000000000000000000000000000000000000000000000604082015250565b7f1901000000000000000000000000000000000000000000000000000000000000600082015250565b7f476f7665726e6f723a20696e76616c69642070726f706f73616c206c656e677460008201527f6800000000000000000000000000000000000000000000000000000000000000602082015250565b7f476f7665726e6f7254696d656c6f636b436f6d706f756e643a206964656e746960008201527f63616c2070726f706f73616c20616374696f6e20616c7265616479207175657560208201527f6564000000000000000000000000000000000000000000000000000000000000604082015250565b7f45434453413a20696e76616c6964207369676e6174757265202773272076616c60008201527f7565000000000000000000000000000000000000000000000000000000000000602082015250565b7f476f7665726e6f723a20766f7465206e6f742063757272656e746c792061637460008201527f6976650000000000000000000000000000000000000000000000000000000000602082015250565b7f476f7665726e6f723a20656d7074792070726f706f73616c0000000000000000600082015250565b7f45434453413a20696e76616c6964207369676e6174757265202776272076616c60008201527f7565000000000000000000000000000000000000000000000000000000000000602082015250565b7f53616665436173743a2076616c756520646f65736e27742066697420696e203660008201527f3420626974730000000000000000000000000000000000000000000000000000602082015250565b7f476f7665726e6f72436f6d7061746962696c697479427261766f3a20766f746560008201527f20616c7265616479206361737465640000000000000000000000000000000000602082015250565b7f476f7665726e6f723a2070726f706f73616c206e6f7420616374697665000000600082015250565b7f476f7665726e6f723a2070726f706f73616c206e6f742073756363657373667560008201527f6c00000000000000000000000000000000000000000000000000000000000000602082015250565b7f476f7665726e6f7254696d656c6f636b436f6d706f756e643a2070726f706f7360008201527f616c206e6f742079657420717565756564000000000000000000000000000000602082015250565b7f476f7665726e6f72436f6d7061746962696c697479427261766f3a20696e766160008201527f6c696420766f7465207479706500000000000000000000000000000000000000602082015250565b7f476f7665726e6f723a20756e6b6e6f776e2070726f706f73616c206964000000600082015250565b7f476f7665726e6f723a2070726f706f73616c20616c726561647920657869737460008201527f7300000000000000000000000000000000000000000000000000000000000000602082015250565b50565b6008811061611b5761611a615ad7565b5b50565b6161278161585e565b811461613257600080fd5b50565b61613e81615882565b811461614957600080fd5b50565b6161558161588e565b811461616057600080fd5b50565b61616c81615898565b811461617757600080fd5b50565b616183816158c4565b811461618e57600080fd5b50565b61619a81615909565b81146161a557600080fd5b50565b6161b181615927565b81146161bc57600080fd5b50565b6161c881615934565b81146161d357600080fd5b5056fea26469706673582212201f2106798ed708148d3918ea8c6bb1a9c5bd01d60b74332de855da2d8fba285d64736f6c63430008070033",
  "immutableReferences": {
    "5567": [
      {
        "length": 32,
        "start": 5938
      },
      {
        "length": 32,
        "start": 10861
      }
    ],
    "10128": [
      {
        "length": 32,
        "start": 3632
      }
    ],
    "10130": [
      {
        "length": 32,
        "start": 2559
      }
    ],
    "10132": [
      {
        "length": 32,
        "start": 4354
      }
    ],
    "24333": [
      {
        "length": 32,
        "start": 11372
      }
    ],
    "24335": [
      {
        "length": 32,
        "start": 11332
      }
    ],
    "24337": [
      {
        "length": 32,
        "start": 11448
      }
    ],
    "24339": [
      {
        "length": 32,
        "start": 11481
      }
    ],
    "24341": [
      {
        "length": 32,
        "start": 11415
      }
    ]
  },
  "source": "// SPDX-License-Identifier: MIT\n\npragma solidity ^0.8.0;\n\nimport \"../governance/compatibility/GovernorCompatibilityBravo.sol\";\nimport \"../governance/extensions/GovernorVotesComp.sol\";\nimport \"../governance/extensions/GovernorTimelockCompound.sol\";\n\ncontract GovernorCompatibilityBravoMock is GovernorCompatibilityBravo, GovernorTimelockCompound, GovernorVotesComp {\n    uint256 immutable _votingDelay;\n    uint256 immutable _votingPeriod;\n    uint256 immutable _proposalThreshold;\n\n    constructor(\n        string memory name_,\n        ERC20VotesComp token_,\n        uint256 votingDelay_,\n        uint256 votingPeriod_,\n        uint256 proposalThreshold_,\n        ICompoundTimelock timelock_\n    ) Governor(name_) GovernorVotesComp(token_) GovernorTimelockCompound(timelock_) {\n        _votingDelay = votingDelay_;\n        _votingPeriod = votingPeriod_;\n        _proposalThreshold = proposalThreshold_;\n    }\n\n    function supportsInterface(bytes4 interfaceId)\n        public\n        view\n        virtual\n        override(IERC165, Governor, GovernorTimelockCompound)\n        returns (bool)\n    {\n        return super.supportsInterface(interfaceId);\n    }\n\n    function votingDelay() public view override(IGovernor, Governor) returns (uint256) {\n        return _votingDelay;\n    }\n\n    function votingPeriod() public view override(IGovernor, Governor) returns (uint256) {\n        return _votingPeriod;\n    }\n\n    function proposalThreshold() public view virtual override returns (uint256) {\n        return _proposalThreshold;\n    }\n\n    function quorum(uint256) public pure override(IGovernor, Governor) returns (uint256) {\n        return 0;\n    }\n\n    function state(uint256 proposalId)\n        public\n        view\n        virtual\n        override(IGovernor, Governor, GovernorTimelockCompound)\n        returns (ProposalState)\n    {\n        return super.state(proposalId);\n    }\n\n    function proposalEta(uint256 proposalId)\n        public\n        view\n        virtual\n        override(GovernorCompatibilityBravo, GovernorTimelockCompound)\n        returns (uint256)\n    {\n        return super.proposalEta(proposalId);\n    }\n\n    function propose(\n        address[] memory targets,\n        uint256[] memory values,\n        bytes[] memory calldatas,\n        string memory description\n    ) public virtual override(IGovernor, Governor, GovernorCompatibilityBravo) returns (uint256) {\n        return super.propose(targets, values, calldatas, description);\n    }\n\n    function queue(\n        address[] memory targets,\n        uint256[] memory values,\n        bytes[] memory calldatas,\n        bytes32 salt\n    ) public virtual override(GovernorCompatibilityBravo, GovernorTimelockCompound) returns (uint256) {\n        return super.queue(targets, values, calldatas, salt);\n    }\n\n    function execute(\n        address[] memory targets,\n        uint256[] memory values,\n        bytes[] memory calldatas,\n        bytes32 salt\n    ) public payable virtual override(IGovernor, Governor) returns (uint256) {\n        return super.execute(targets, values, calldatas, salt);\n    }\n\n    function _execute(\n        uint256 proposalId,\n        address[] memory targets,\n        uint256[] memory values,\n        bytes[] memory calldatas,\n        bytes32 descriptionHash\n    ) internal virtual override(Governor, GovernorTimelockCompound) {\n        super._execute(proposalId, targets, values, calldatas, descriptionHash);\n    }\n\n    /**\n     * @notice WARNING: this is for mock purposes only. Ability to the _cancel function should be restricted for live\n     * deployments.\n     */\n    function cancel(\n        address[] memory targets,\n        uint256[] memory values,\n        bytes[] memory calldatas,\n        bytes32 salt\n    ) public returns (uint256 proposalId) {\n        return _cancel(targets, values, calldatas, salt);\n    }\n\n    function _cancel(\n        address[] memory targets,\n        uint256[] memory values,\n        bytes[] memory calldatas,\n        bytes32 salt\n    ) internal virtual override(Governor, GovernorTimelockCompound) returns (uint256 proposalId) {\n        return super._cancel(targets, values, calldatas, salt);\n    }\n\n    function getVotes(address account, uint256 blockNumber)\n        public\n        view\n        virtual\n        override(IGovernor, GovernorVotesComp)\n        returns (uint256)\n    {\n        return super.getVotes(account, blockNumber);\n    }\n\n    function _executor() internal view virtual override(Governor, GovernorTimelockCompound) returns (address) {\n        return super._executor();\n    }\n}\n",
  "sourcePath": "/home/tenten/Projects/upcgold.io/src/contracts/openzeppelin-contracts/contracts/mocks/GovernorCompatibilityBravoMock.sol",
  "compiler": {
    "name": "solc",
    "version": "0.8.7+commit.e28d00a7.Emscripten.clang"
  },
  "schemaVersion": "3.2.3",
  "updatedAt": "2021-08-12T03:39:31.326Z",
  "devdoc": {
    "kind": "dev",
    "methods": {
      "COUNTING_MODE()": {
        "details": "A description of the possible `support` values for {castVote} and the way these votes are counted, meant to be consumed by UIs to show correct vote options and interpret the results. The string is a URL-encoded sequence of key-value pairs that each describe one aspect, for example `support=bravo&quorum=for,abstain`. There are 2 standard keys: `support` and `quorum`. - `support=bravo` refers to the vote options 0 = For, 1 = Against, 2 = Abstain, as in `GovernorBravo`. - `quorum=bravo` means that only For votes are counted towards quorum. - `quorum=for,abstain` means that both For and Abstain votes are counted towards quorum. NOTE: The string can be decoded by the standard https://developer.mozilla.org/en-US/docs/Web/API/URLSearchParams[`URLSearchParams`] JavaScript class."
      },
      "__acceptAdmin()": {
        "details": "Accept admin right over the timelock."
      },
      "castVote(uint256,uint8)": {
        "details": "See {IGovernor-castVote}."
      },
      "castVoteBySig(uint256,uint8,uint8,bytes32,bytes32)": {
        "details": "See {IGovernor-castVoteBySig}."
      },
      "castVoteWithReason(uint256,uint8,string)": {
        "details": "See {IGovernor-castVoteWithReason}."
      },
      "execute(uint256)": {
        "details": "See {IGovernorCompatibilityBravo-execute}."
      },
      "getActions(uint256)": {
        "details": "See {IGovernorCompatibilityBravo-getActions}."
      },
      "getReceipt(uint256,address)": {
        "details": "See {IGovernorCompatibilityBravo-getReceipt}."
      },
      "hasVoted(uint256,address)": {
        "details": "See {IGovernor-hasVoted}."
      },
      "hashProposal(address[],uint256[],bytes[],bytes32)": {
        "details": "See {IGovernor-hashProposal}. The proposal id is produced by hashing the RLC encoded `targets` array, the `values` array, the `calldatas` array and the descriptionHash (bytes32 which itself is the keccak256 hash of the description string). This proposal id can be produced from the proposal data which is part of the {ProposalCreated} event. It can even be computed in advance, before the proposal is submitted. Note that the chainId and the governor address are not part of the proposal id computation. Consequently, the same proposal (with same operation and same description) will have the same id if submitted on multiple governors accross multiple networks. This also means that in order to execute the same operation twice (on the same governor) the proposer will have to change the description in order to avoid proposal id conflicts."
      },
      "name()": {
        "details": "See {IGovernor-name}."
      },
      "proposalDeadline(uint256)": {
        "details": "See {IGovernor-proposalDeadline}."
      },
      "proposalSnapshot(uint256)": {
        "details": "See {IGovernor-proposalSnapshot}."
      },
      "proposalThreshold()": {
        "details": "Part of the Governor Bravo's interface: _\"The number of votes required in order for a voter to become a proposer\"_."
      },
      "proposals(uint256)": {
        "details": "See {IGovernorCompatibilityBravo-proposals}."
      },
      "propose(address[],uint256[],string[],bytes[],string)": {
        "details": "See {IGovernorCompatibilityBravo-propose}."
      },
      "queue(uint256)": {
        "details": "See {IGovernorCompatibilityBravo-queue}."
      },
      "quorumVotes()": {
        "details": "See {IGovernorCompatibilityBravo-quorumVotes}."
      },
      "timelock()": {
        "details": "Public accessor to check the address of the timelock"
      },
      "updateTimelock(address)": {
        "details": "Public endpoint to update the underlying timelock instance. Restricted to the timelock itself, so updates must be proposed, scheduled and executed using the {Governor} workflow. For security reason, the timelock must be handed over to another admin before setting up a new one. The two operations (hand over the timelock) and do the update can be batched in a single proposal. Note that if the timelock admin has been handed over in a previous operation, we refuse updates made through the timelock if admin of the timelock has already been accepted and the operation is executed outside the scope of governance."
      },
      "version()": {
        "details": "See {IGovernor-version}."
      }
    },
    "version": 1
  },
  "userdoc": {
    "kind": "user",
    "methods": {
      "COUNTING_MODE()": {
        "notice": "module:voting"
      },
      "cancel(address[],uint256[],bytes[],bytes32)": {
        "notice": "WARNING: this is for mock purposes only. Ability to the _cancel function should be restricted for live deployments."
      }
    },
    "version": 1
  }
}