{
  "contractName": "GovernorMock",
  "abi": [
    {
      "inputs": [
        {
          "internalType": "string",
          "name": "name_",
          "type": "string"
        },
        {
          "internalType": "contract ERC20Votes",
          "name": "token_",
          "type": "address"
        },
        {
          "internalType": "uint256",
          "name": "votingDelay_",
          "type": "uint256"
        },
        {
          "internalType": "uint256",
          "name": "votingPeriod_",
          "type": "uint256"
        },
        {
          "internalType": "uint256",
          "name": "quorumNumerator_",
          "type": "uint256"
        }
      ],
      "stateMutability": "nonpayable",
      "type": "constructor"
    },
    {
      "anonymous": false,
      "inputs": [
        {
          "indexed": false,
          "internalType": "uint256",
          "name": "proposalId",
          "type": "uint256"
        }
      ],
      "name": "ProposalCanceled",
      "type": "event"
    },
    {
      "anonymous": false,
      "inputs": [
        {
          "indexed": false,
          "internalType": "uint256",
          "name": "proposalId",
          "type": "uint256"
        },
        {
          "indexed": false,
          "internalType": "address",
          "name": "proposer",
          "type": "address"
        },
        {
          "indexed": false,
          "internalType": "address[]",
          "name": "targets",
          "type": "address[]"
        },
        {
          "indexed": false,
          "internalType": "uint256[]",
          "name": "values",
          "type": "uint256[]"
        },
        {
          "indexed": false,
          "internalType": "string[]",
          "name": "signatures",
          "type": "string[]"
        },
        {
          "indexed": false,
          "internalType": "bytes[]",
          "name": "calldatas",
          "type": "bytes[]"
        },
        {
          "indexed": false,
          "internalType": "uint256",
          "name": "startBlock",
          "type": "uint256"
        },
        {
          "indexed": false,
          "internalType": "uint256",
          "name": "endBlock",
          "type": "uint256"
        },
        {
          "indexed": false,
          "internalType": "string",
          "name": "description",
          "type": "string"
        }
      ],
      "name": "ProposalCreated",
      "type": "event"
    },
    {
      "anonymous": false,
      "inputs": [
        {
          "indexed": false,
          "internalType": "uint256",
          "name": "proposalId",
          "type": "uint256"
        }
      ],
      "name": "ProposalExecuted",
      "type": "event"
    },
    {
      "anonymous": false,
      "inputs": [
        {
          "indexed": false,
          "internalType": "uint256",
          "name": "oldQuorumNumerator",
          "type": "uint256"
        },
        {
          "indexed": false,
          "internalType": "uint256",
          "name": "newQuorumNumerator",
          "type": "uint256"
        }
      ],
      "name": "QuorumNumeratorUpdated",
      "type": "event"
    },
    {
      "anonymous": false,
      "inputs": [
        {
          "indexed": true,
          "internalType": "address",
          "name": "voter",
          "type": "address"
        },
        {
          "indexed": false,
          "internalType": "uint256",
          "name": "proposalId",
          "type": "uint256"
        },
        {
          "indexed": false,
          "internalType": "uint8",
          "name": "support",
          "type": "uint8"
        },
        {
          "indexed": false,
          "internalType": "uint256",
          "name": "weight",
          "type": "uint256"
        },
        {
          "indexed": false,
          "internalType": "string",
          "name": "reason",
          "type": "string"
        }
      ],
      "name": "VoteCast",
      "type": "event"
    },
    {
      "inputs": [],
      "name": "BALLOT_TYPEHASH",
      "outputs": [
        {
          "internalType": "bytes32",
          "name": "",
          "type": "bytes32"
        }
      ],
      "stateMutability": "view",
      "type": "function"
    },
    {
      "inputs": [],
      "name": "COUNTING_MODE",
      "outputs": [
        {
          "internalType": "string",
          "name": "",
          "type": "string"
        }
      ],
      "stateMutability": "pure",
      "type": "function"
    },
    {
      "inputs": [
        {
          "internalType": "uint256",
          "name": "proposalId",
          "type": "uint256"
        },
        {
          "internalType": "uint8",
          "name": "support",
          "type": "uint8"
        }
      ],
      "name": "castVote",
      "outputs": [
        {
          "internalType": "uint256",
          "name": "",
          "type": "uint256"
        }
      ],
      "stateMutability": "nonpayable",
      "type": "function"
    },
    {
      "inputs": [
        {
          "internalType": "uint256",
          "name": "proposalId",
          "type": "uint256"
        },
        {
          "internalType": "uint8",
          "name": "support",
          "type": "uint8"
        },
        {
          "internalType": "uint8",
          "name": "v",
          "type": "uint8"
        },
        {
          "internalType": "bytes32",
          "name": "r",
          "type": "bytes32"
        },
        {
          "internalType": "bytes32",
          "name": "s",
          "type": "bytes32"
        }
      ],
      "name": "castVoteBySig",
      "outputs": [
        {
          "internalType": "uint256",
          "name": "",
          "type": "uint256"
        }
      ],
      "stateMutability": "nonpayable",
      "type": "function"
    },
    {
      "inputs": [
        {
          "internalType": "uint256",
          "name": "proposalId",
          "type": "uint256"
        },
        {
          "internalType": "uint8",
          "name": "support",
          "type": "uint8"
        },
        {
          "internalType": "string",
          "name": "reason",
          "type": "string"
        }
      ],
      "name": "castVoteWithReason",
      "outputs": [
        {
          "internalType": "uint256",
          "name": "",
          "type": "uint256"
        }
      ],
      "stateMutability": "nonpayable",
      "type": "function"
    },
    {
      "inputs": [
        {
          "internalType": "address[]",
          "name": "targets",
          "type": "address[]"
        },
        {
          "internalType": "uint256[]",
          "name": "values",
          "type": "uint256[]"
        },
        {
          "internalType": "bytes[]",
          "name": "calldatas",
          "type": "bytes[]"
        },
        {
          "internalType": "bytes32",
          "name": "descriptionHash",
          "type": "bytes32"
        }
      ],
      "name": "execute",
      "outputs": [
        {
          "internalType": "uint256",
          "name": "",
          "type": "uint256"
        }
      ],
      "stateMutability": "payable",
      "type": "function"
    },
    {
      "inputs": [
        {
          "internalType": "uint256",
          "name": "proposalId",
          "type": "uint256"
        },
        {
          "internalType": "address",
          "name": "account",
          "type": "address"
        }
      ],
      "name": "hasVoted",
      "outputs": [
        {
          "internalType": "bool",
          "name": "",
          "type": "bool"
        }
      ],
      "stateMutability": "view",
      "type": "function"
    },
    {
      "inputs": [
        {
          "internalType": "address[]",
          "name": "targets",
          "type": "address[]"
        },
        {
          "internalType": "uint256[]",
          "name": "values",
          "type": "uint256[]"
        },
        {
          "internalType": "bytes[]",
          "name": "calldatas",
          "type": "bytes[]"
        },
        {
          "internalType": "bytes32",
          "name": "descriptionHash",
          "type": "bytes32"
        }
      ],
      "name": "hashProposal",
      "outputs": [
        {
          "internalType": "uint256",
          "name": "",
          "type": "uint256"
        }
      ],
      "stateMutability": "pure",
      "type": "function"
    },
    {
      "inputs": [],
      "name": "name",
      "outputs": [
        {
          "internalType": "string",
          "name": "",
          "type": "string"
        }
      ],
      "stateMutability": "view",
      "type": "function"
    },
    {
      "inputs": [
        {
          "internalType": "uint256",
          "name": "proposalId",
          "type": "uint256"
        }
      ],
      "name": "proposalDeadline",
      "outputs": [
        {
          "internalType": "uint256",
          "name": "",
          "type": "uint256"
        }
      ],
      "stateMutability": "view",
      "type": "function"
    },
    {
      "inputs": [
        {
          "internalType": "uint256",
          "name": "proposalId",
          "type": "uint256"
        }
      ],
      "name": "proposalSnapshot",
      "outputs": [
        {
          "internalType": "uint256",
          "name": "",
          "type": "uint256"
        }
      ],
      "stateMutability": "view",
      "type": "function"
    },
    {
      "inputs": [
        {
          "internalType": "uint256",
          "name": "proposalId",
          "type": "uint256"
        }
      ],
      "name": "proposalVotes",
      "outputs": [
        {
          "internalType": "uint256",
          "name": "againstVotes",
          "type": "uint256"
        },
        {
          "internalType": "uint256",
          "name": "forVotes",
          "type": "uint256"
        },
        {
          "internalType": "uint256",
          "name": "abstainVotes",
          "type": "uint256"
        }
      ],
      "stateMutability": "view",
      "type": "function"
    },
    {
      "inputs": [
        {
          "internalType": "address[]",
          "name": "targets",
          "type": "address[]"
        },
        {
          "internalType": "uint256[]",
          "name": "values",
          "type": "uint256[]"
        },
        {
          "internalType": "bytes[]",
          "name": "calldatas",
          "type": "bytes[]"
        },
        {
          "internalType": "string",
          "name": "description",
          "type": "string"
        }
      ],
      "name": "propose",
      "outputs": [
        {
          "internalType": "uint256",
          "name": "",
          "type": "uint256"
        }
      ],
      "stateMutability": "nonpayable",
      "type": "function"
    },
    {
      "inputs": [
        {
          "internalType": "uint256",
          "name": "blockNumber",
          "type": "uint256"
        }
      ],
      "name": "quorum",
      "outputs": [
        {
          "internalType": "uint256",
          "name": "",
          "type": "uint256"
        }
      ],
      "stateMutability": "view",
      "type": "function"
    },
    {
      "inputs": [],
      "name": "quorumDenominator",
      "outputs": [
        {
          "internalType": "uint256",
          "name": "",
          "type": "uint256"
        }
      ],
      "stateMutability": "view",
      "type": "function"
    },
    {
      "inputs": [],
      "name": "quorumNumerator",
      "outputs": [
        {
          "internalType": "uint256",
          "name": "",
          "type": "uint256"
        }
      ],
      "stateMutability": "view",
      "type": "function"
    },
    {
      "inputs": [
        {
          "internalType": "uint256",
          "name": "proposalId",
          "type": "uint256"
        }
      ],
      "name": "state",
      "outputs": [
        {
          "internalType": "enum IGovernor.ProposalState",
          "name": "",
          "type": "uint8"
        }
      ],
      "stateMutability": "view",
      "type": "function"
    },
    {
      "inputs": [
        {
          "internalType": "bytes4",
          "name": "interfaceId",
          "type": "bytes4"
        }
      ],
      "name": "supportsInterface",
      "outputs": [
        {
          "internalType": "bool",
          "name": "",
          "type": "bool"
        }
      ],
      "stateMutability": "view",
      "type": "function"
    },
    {
      "inputs": [],
      "name": "token",
      "outputs": [
        {
          "internalType": "contract ERC20Votes",
          "name": "",
          "type": "address"
        }
      ],
      "stateMutability": "view",
      "type": "function"
    },
    {
      "inputs": [
        {
          "internalType": "uint256",
          "name": "newQuorumNumerator",
          "type": "uint256"
        }
      ],
      "name": "updateQuorumNumerator",
      "outputs": [],
      "stateMutability": "nonpayable",
      "type": "function"
    },
    {
      "inputs": [],
      "name": "version",
      "outputs": [
        {
          "internalType": "string",
          "name": "",
          "type": "string"
        }
      ],
      "stateMutability": "view",
      "type": "function"
    },
    {
      "stateMutability": "payable",
      "type": "receive"
    },
    {
      "inputs": [],
      "name": "votingDelay",
      "outputs": [
        {
          "internalType": "uint256",
          "name": "",
          "type": "uint256"
        }
      ],
      "stateMutability": "view",
      "type": "function"
    },
    {
      "inputs": [],
      "name": "votingPeriod",
      "outputs": [
        {
          "internalType": "uint256",
          "name": "",
          "type": "uint256"
        }
      ],
      "stateMutability": "view",
      "type": "function"
    },
    {
      "inputs": [
        {
          "internalType": "address[]",
          "name": "targets",
          "type": "address[]"
        },
        {
          "internalType": "uint256[]",
          "name": "values",
          "type": "uint256[]"
        },
        {
          "internalType": "bytes[]",
          "name": "calldatas",
          "type": "bytes[]"
        },
        {
          "internalType": "bytes32",
          "name": "salt",
          "type": "bytes32"
        }
      ],
      "name": "cancel",
      "outputs": [
        {
          "internalType": "uint256",
          "name": "proposalId",
          "type": "uint256"
        }
      ],
      "stateMutability": "nonpayable",
      "type": "function"
    },
    {
      "inputs": [
        {
          "internalType": "address",
          "name": "account",
          "type": "address"
        },
        {
          "internalType": "uint256",
          "name": "blockNumber",
          "type": "uint256"
        }
      ],
      "name": "getVotes",
      "outputs": [
        {
          "internalType": "uint256",
          "name": "",
          "type": "uint256"
        }
      ],
      "stateMutability": "view",
      "type": "function"
    }
  ],
  "bytecode": "0x6101806040523480156200001257600080fd5b5060405162004637380380620046378339818101604052810190620000389190620003cb565b808486806200004c6200014b60201b60201c565b60008280519060200120905060008280519060200120905060007f8b73c3c69bb8fe3d512ecc4cf759cc79239f7b179b0ffacaa9a75d522b39400f90508260c081815250508160e081815250504660a08181525050620000b48184846200018860201b60201c565b6080818152505080610100818152505050505050508060009080519060200190620000e19291906200026f565b50508073ffffffffffffffffffffffffffffffffffffffff166101208173ffffffffffffffffffffffffffffffffffffffff1660601b81525050506200012d81620001c460201b60201c565b50826101408181525050816101608181525050505050505062000812565b60606040518060400160405280600181526020017f3100000000000000000000000000000000000000000000000000000000000000815250905090565b60008383834630604051602001620001a5959493929190620004cc565b6040516020818303038152906040528051906020012090509392505050565b620001d46200026660201b60201c565b81111562000219576040517f08c379a0000000000000000000000000000000000000000000000000000000008152600401620002109062000529565b60405180910390fd5b60006002549050816002819055507f0553476bf02ef2726e8ce5ced78d63e26e602e4a2257b1f559418e24b463399781836040516200025a9291906200054b565b60405180910390a15050565b60006064905090565b8280546200027d906200067a565b90600052602060002090601f016020900481019282620002a15760008555620002ed565b82601f10620002bc57805160ff1916838001178555620002ed565b82800160010185558215620002ed579182015b82811115620002ec578251825591602001919060010190620002cf565b5b509050620002fc919062000300565b5090565b5b808211156200031b57600081600090555060010162000301565b5090565b6000620003366200033084620005a1565b62000578565b90508281526020810184848401111562000355576200035462000749565b5b6200036284828562000644565b509392505050565b6000815190506200037b81620007de565b92915050565b600082601f83011262000399576200039862000744565b5b8151620003ab8482602086016200031f565b91505092915050565b600081519050620003c581620007f8565b92915050565b600080600080600060a08688031215620003ea57620003e962000753565b5b600086015167ffffffffffffffff8111156200040b576200040a6200074e565b5b620004198882890162000381565b95505060206200042c888289016200036a565b94505060406200043f88828901620003b4565b93505060606200045288828901620003b4565b92505060806200046588828901620003b4565b9150509295509295909350565b6200047d81620005e8565b82525050565b6200048e81620005fc565b82525050565b6000620004a3604383620005d7565b9150620004b08262000769565b606082019050919050565b620004c6816200063a565b82525050565b600060a082019050620004e3600083018862000483565b620004f2602083018762000483565b62000501604083018662000483565b620005106060830185620004bb565b6200051f608083018462000472565b9695505050505050565b60006020820190508181036000830152620005448162000494565b9050919050565b6000604082019050620005626000830185620004bb565b620005716020830184620004bb565b9392505050565b60006200058462000597565b9050620005928282620006b0565b919050565b6000604051905090565b600067ffffffffffffffff821115620005bf57620005be62000715565b5b620005ca8262000758565b9050602081019050919050565b600082825260208201905092915050565b6000620005f5826200061a565b9050919050565b6000819050919050565b60006200061382620005e8565b9050919050565b600073ffffffffffffffffffffffffffffffffffffffff82169050919050565b6000819050919050565b60005b838110156200066457808201518184015260208101905062000647565b8381111562000674576000848401525b50505050565b600060028204905060018216806200069357607f821691505b60208210811415620006aa57620006a9620006e6565b5b50919050565b620006bb8262000758565b810181811067ffffffffffffffff82111715620006dd57620006dc62000715565b5b80604052505050565b7f4e487b7100000000000000000000000000000000000000000000000000000000600052602260045260246000fd5b7f4e487b7100000000000000000000000000000000000000000000000000000000600052604160045260246000fd5b600080fd5b600080fd5b600080fd5b600080fd5b6000601f19601f8301169050919050565b7f476f7665726e6f72566f74657351756f72756d4672616374696f6e3a2071756f60008201527f72756d4e756d657261746f72206f7665722071756f72756d44656e6f6d696e6160208201527f746f720000000000000000000000000000000000000000000000000000000000604082015250565b620007e98162000606565b8114620007f557600080fd5b50565b62000803816200063a565b81146200080f57600080fd5b50565b60805160a05160c05160e051610100516101205160601c6101405161016051613dae62000889600039600061072801526000610a0b0152600081816111f7015281816112bb0152611ac601526000611c3501526000611c7701526000611c5601526000611be201526000611c0a0152613dae6000f3fe60806040526004361061016a5760003560e01c806354fd4d50116100d1578063c01f9e371161008a578063deaaa7cc11610064578063deaaa7cc146105da578063eb9019d414610605578063f8ce560a14610642578063fc0c546a1461067f57610171565b8063c01f9e3714610535578063c59057e414610572578063dd4e2ba5146105af57610171565b806354fd4d50146103fd57806356781388146104285780637b3c71d3146104655780637d5e81e2146104a257806397c3d334146104df578063a7713a701461050a57610171565b80633932abb1116101235780633932abb11461029f5780633bccf4fd146102ca5780633e4f49e6146103075780634385963214610344578063452115d614610381578063544ffc9c146103be57610171565b806301ffc9a71461017657806302a251a3146101b357806306f3f9e6146101de57806306fdde03146102075780632656227d146102325780632d63f6931461026257610171565b3661017157005b600080fd5b34801561018257600080fd5b5061019d600480360381019061019891906124ac565b6106aa565b6040516101aa9190612d2a565b60405180910390f35b3480156101bf57600080fd5b506101c8610724565b6040516101d59190613067565b60405180910390f35b3480156101ea57600080fd5b50610205600480360381019061020091906124d9565b61074c565b005b34801561021357600080fd5b5061021c6107d4565b6040516102299190612e65565b60405180910390f35b61024c6004803603810190610247919061231a565b610866565b6040516102599190613067565b60405180910390f35b34801561026e57600080fd5b50610289600480360381019061028491906124d9565b610999565b6040516102969190613067565b60405180910390f35b3480156102ab57600080fd5b506102b4610a07565b6040516102c19190613067565b60405180910390f35b3480156102d657600080fd5b506102f160048036038101906102ec9190612627565b610a2f565b6040516102fe9190613067565b60405180910390f35b34801561031357600080fd5b5061032e600480360381019061032991906124d9565b610ab9565b60405161033b9190612e4a565b60405180910390f35b34801561035057600080fd5b5061036b60048036038101906103669190612533565b610c80565b6040516103789190612d2a565b60405180910390f35b34801561038d57600080fd5b506103a860048036038101906103a3919061231a565b610ceb565b6040516103b59190613067565b60405180910390f35b3480156103ca57600080fd5b506103e560048036038101906103e091906124d9565b610d03565b6040516103f49392919061315b565b60405180910390f35b34801561040957600080fd5b50610412610d3b565b60405161041f9190612e65565b60405180910390f35b34801561043457600080fd5b5061044f600480360381019061044a9190612573565b610d78565b60405161045c9190613067565b60405180910390f35b34801561047157600080fd5b5061048c600480360381019061048791906125b3565b610da9565b6040516104999190613067565b60405180910390f35b3480156104ae57600080fd5b506104c960048036038101906104c491906123d5565b610e11565b6040516104d69190613067565b60405180910390f35b3480156104eb57600080fd5b506104f46110b1565b6040516105019190613067565b60405180910390f35b34801561051657600080fd5b5061051f6110ba565b60405161052c9190613067565b60405180910390f35b34801561054157600080fd5b5061055c600480360381019061055791906124d9565b6110c4565b6040516105699190613067565b60405180910390f35b34801561057e57600080fd5b506105996004803603810190610594919061231a565b611132565b6040516105a69190613067565b60405180910390f35b3480156105bb57600080fd5b506105c461116e565b6040516105d19190612e65565b60405180910390f35b3480156105e657600080fd5b506105ef6111ab565b6040516105fc9190612d45565b60405180910390f35b34801561061157600080fd5b5061062c600480360381019061062791906122da565b6111cf565b6040516106399190613067565b60405180910390f35b34801561064e57600080fd5b50610669600480360381019061066491906124d9565b6111e3565b6040516106769190613067565b60405180910390f35b34801561068b57600080fd5b506106946112b9565b6040516106a19190612e2f565b60405180910390f35b60007fbf26d897000000000000000000000000000000000000000000000000000000007bffffffffffffffffffffffffffffffffffffffffffffffffffffffff1916827bffffffffffffffffffffffffffffffffffffffffffffffffffffffff1916148061071d575061071c826112dd565b5b9050919050565b60007f0000000000000000000000000000000000000000000000000000000000000000905090565b610754611347565b73ffffffffffffffffffffffffffffffffffffffff1661077261134f565b73ffffffffffffffffffffffffffffffffffffffff16146107c8576040517f08c379a00000000000000000000000000000000000000000000000000000000081526004016107bf90612ea7565b60405180910390fd5b6107d181611357565b50565b6060600080546107e390613699565b80601f016020809104026020016040519081016040528092919081815260200182805461080f90613699565b801561085c5780601f106108315761010080835404028352916020019161085c565b820191906000526020600020905b81548152906001019060200180831161083f57829003601f168201915b5050505050905090565b60008061087586868686611132565b9050600061088282610ab9565b905060046007811115610898576108976137ad565b5b8160078111156108ab576108aa6137ad565b5b14806108db5750600560078111156108c6576108c56137ad565b5b8160078111156108d9576108d86137ad565b5b145b61091a576040517f08c379a000000000000000000000000000000000000000000000000000000000815260040161091190612fc7565b60405180910390fd5b600180600084815260200190815260200160002060020160006101000a81548160ff0219169083151502179055507f712ae1383f79ac853f8d882153778e0260ef8f03b504e2866e0593e04d2b291f826040516109779190613067565b60405180910390a161098c82888888886113ec565b8192505050949350505050565b60006109f6600160008481526020019081526020016000206000016040518060200160405290816000820160009054906101000a900467ffffffffffffffff1667ffffffffffffffff1667ffffffffffffffff16815250506114fb565b67ffffffffffffffff169050919050565b60007f0000000000000000000000000000000000000000000000000000000000000000905090565b600080610a90610a887f150214d74d59b7d1e90c73fc22ef3d991dd0a76b046543d4d80ab92d2a50328f8989604051602001610a6d93929190612db3565b60405160208183030381529060405280519060200120611509565b868686611523565b9050610aad878288604051806020016040528060008152506116ae565b91505095945050505050565b60008060016000848152602001908152602001600020604051806080016040529081600082016040518060200160405290816000820160009054906101000a900467ffffffffffffffff1667ffffffffffffffff1667ffffffffffffffff16815250508152602001600182016040518060200160405290816000820160009054906101000a900467ffffffffffffffff1667ffffffffffffffff1667ffffffffffffffff168152505081526020016002820160009054906101000a900460ff161515151581526020016002820160019054906101000a900460ff1615151515815250509050806040015115610bb2576007915050610c7b565b806060015115610bc6576002915050610c7b565b610bd38160000151611802565b15610be2576000915050610c7b565b610bef8160200151611802565b15610bfe576001915050610c7b565b610c0b816020015161181c565b15610c4057610c1983611848565b8015610c2a5750610c298361189e565b5b610c35576003610c38565b60045b915050610c7b565b6040517f08c379a0000000000000000000000000000000000000000000000000000000008152600401610c7290612fe7565b60405180910390fd5b919050565b60006003600084815260200190815260200160002060030160008373ffffffffffffffffffffffffffffffffffffffff1673ffffffffffffffffffffffffffffffffffffffff16815260200190815260200160002060009054906101000a900460ff16905092915050565b6000610cf9858585856118c9565b9050949350505050565b600080600080600360008681526020019081526020016000209050806000015481600101548260020154935093509350509193909250565b60606040518060400160405280600181526020017f3100000000000000000000000000000000000000000000000000000000000000815250905090565b600080610d8361134f565b9050610da0848285604051806020016040528060008152506116ae565b91505092915050565b600080610db461134f565b9050610e0686828787878080601f016020809104026020016040519081016040528093929190818152602001838380828437600081840152601f19601f820116905080830192505050505050506116ae565b915050949350505050565b600080610e278686868680519060200120611132565b90508451865114610e6d576040517f08c379a0000000000000000000000000000000000000000000000000000000008152600401610e6490612ee7565b60405180910390fd5b8351865114610eb1576040517f08c379a0000000000000000000000000000000000000000000000000000000008152600401610ea890612ee7565b60405180910390fd5b6000865111610ef5576040517f08c379a0000000000000000000000000000000000000000000000000000000008152600401610eec90612f47565b60405180910390fd5b6000600160008381526020019081526020016000209050610f55816000016040518060200160405290816000820160009054906101000a900467ffffffffffffffff1667ffffffffffffffff1667ffffffffffffffff1681525050611a22565b610f94576040517f08c379a0000000000000000000000000000000000000000000000000000000008152600401610f8b90613027565b60405180910390fd5b6000610fa6610fa1610a07565b611a3c565b610faf43611a3c565b610fb99190613482565b90506000610fcd610fc8610724565b611a3c565b82610fd89190613482565b9050610ff08284600001611a9390919063ffffffff16565b6110068184600101611a9390919063ffffffff16565b7f7d84a6263ae0d98d3329bd7b46bb4e8d6f98cd35a7adb45c274c8b7fd5ebd5e08461103061134f565b8b8b8d5167ffffffffffffffff81111561104d5761104c61383a565b5b60405190808252806020026020018201604052801561108057816020015b606081526020019060019003908161106b5790505b508c88888e60405161109a99989796959493929190613082565b60405180910390a183945050505050949350505050565b60006064905090565b6000600254905090565b6000611121600160008481526020019081526020016000206001016040518060200160405290816000820160009054906101000a900467ffffffffffffffff1667ffffffffffffffff1667ffffffffffffffff16815250506114fb565b67ffffffffffffffff169050919050565b60008484848460405160200161114b9493929190612cd0565b6040516020818303038152906040528051906020012060001c9050949350505050565b60606040518060400160405280602081526020017f737570706f72743d627261766f2671756f72756d3d666f722c6162737461696e815250905090565b7f150214d74d59b7d1e90c73fc22ef3d991dd0a76b046543d4d80ab92d2a50328f81565b60006111db8383611ac2565b905092915050565b60006111ed6110b1565b6111f56110ba565b7f000000000000000000000000000000000000000000000000000000000000000073ffffffffffffffffffffffffffffffffffffffff16638e539e8c856040518263ffffffff1660e01b815260040161124e9190613067565b60206040518083038186803b15801561126657600080fd5b505afa15801561127a573d6000803e3d6000fd5b505050506040513d601f19601f8201168201806040525081019061129e9190612506565b6112a891906134f1565b6112b291906134c0565b9050919050565b7f000000000000000000000000000000000000000000000000000000000000000081565b60007f01ffc9a7000000000000000000000000000000000000000000000000000000007bffffffffffffffffffffffffffffffffffffffffffffffffffffffff1916827bffffffffffffffffffffffffffffffffffffffffffffffffffffffff1916149050919050565b600030905090565b600033905090565b61135f6110b1565b8111156113a1576040517f08c379a000000000000000000000000000000000000000000000000000000000815260040161139890612ec7565b60405180910390fd5b60006002549050816002819055507f0553476bf02ef2726e8ce5ced78d63e26e602e4a2257b1f559418e24b463399781836040516113e0929190613132565b60405180910390a15050565b6000604051806060016040528060278152602001613d5260279139905060005b85518110156114f25760008087838151811061142b5761142a61380b565b5b602002602001015173ffffffffffffffffffffffffffffffffffffffff1687848151811061145c5761145b61380b565b5b60200260200101518785815181106114775761147661380b565b5b602002602001015160405161148c9190612c59565b60006040518083038185875af1925050503d80600081146114c9576040519150601f19603f3d011682016040523d82523d6000602084013e6114ce565b606091505b50915091506114de828286611b77565b505050806114eb906136fc565b905061140c565b50505050505050565b600081600001519050919050565b600061151c611516611bde565b83611ca1565b9050919050565b60007f7fffffffffffffffffffffffffffffff5d576e7357a4501ddfe92f46681b20a08260001c111561158b576040517f08c379a000000000000000000000000000000000000000000000000000000000815260040161158290612f07565b60405180910390fd5b601b8460ff1614806115a05750601c8460ff16145b6115df576040517f08c379a00000000000000000000000000000000000000000000000000000000081526004016115d690612f67565b60405180910390fd5b6000600186868686604051600081526020016040526040516116049493929190612dea565b6020604051602081039080840390855afa158015611626573d6000803e3d6000fd5b505050602060405103519050600073ffffffffffffffffffffffffffffffffffffffff168173ffffffffffffffffffffffffffffffffffffffff1614156116a2576040517f08c379a000000000000000000000000000000000000000000000000000000000815260040161169990612e87565b60405180910390fd5b80915050949350505050565b600080600160008781526020019081526020016000209050600160078111156116da576116d96137ad565b5b6116e387610ab9565b60078111156116f5576116f46137ad565b5b14611735576040517f08c379a000000000000000000000000000000000000000000000000000000000815260040161172c90612f27565b60405180910390fd5b600061179386611784846000016040518060200160405290816000820160009054906101000a900467ffffffffffffffff1667ffffffffffffffff1667ffffffffffffffff16815250506114fb565b67ffffffffffffffff166111cf565b90506117a187878784611cd4565b8573ffffffffffffffffffffffffffffffffffffffff167fb8e138887d0aa13bab447e82de9d5c1777041ecd21ca36ba824ff1e6c07ddda4888784886040516117ed9493929190613192565b60405180910390a28092505050949350505050565b600043826000015167ffffffffffffffff16119050919050565b600061182782611eda565b8015611841575043826000015167ffffffffffffffff1611155b9050919050565b600080600360008481526020019081526020016000209050806002015481600101548260000154611879919061342c565b611883919061342c565b61189461188f85610999565b6111e3565b1115915050919050565b6000806003600084815260200190815260200160002090508060000154816001015411915050919050565b6000806118d886868686611132565b905060006118e582610ab9565b9050600260078111156118fb576118fa6137ad565b5b81600781111561190e5761190d6137ad565b5b1415801561194157506006600781111561192b5761192a6137ad565b5b81600781111561193e5761193d6137ad565b5b14155b8015611971575060078081111561195b5761195a6137ad565b5b81600781111561196e5761196d6137ad565b5b14155b6119b0576040517f08c379a00000000000000000000000000000000000000000000000000000000081526004016119a790612fa7565b60405180910390fd5b600180600084815260200190815260200160002060020160016101000a81548160ff0219169083151502179055507f789cf55be980739dad1d0699b93b58e806b51c9d96619bfa8fe0a28abaa7b30c82604051611a0d9190613067565b60405180910390a18192505050949350505050565b600080826000015167ffffffffffffffff16149050919050565b600067ffffffffffffffff8016821115611a8b576040517f08c379a0000000000000000000000000000000000000000000000000000000008152600401611a8290612f87565b60405180910390fd5b819050919050565b808260000160006101000a81548167ffffffffffffffff021916908367ffffffffffffffff1602179055505050565b60007f000000000000000000000000000000000000000000000000000000000000000073ffffffffffffffffffffffffffffffffffffffff16633a46b1a884846040518363ffffffff1660e01b8152600401611b1f929190612ca7565b60206040518083038186803b158015611b3757600080fd5b505afa158015611b4b573d6000803e3d6000fd5b505050506040513d601f19601f82011682018060405250810190611b6f9190612506565b905092915050565b60608315611b8757829050611bd7565b600083511115611b9a5782518084602001fd5b816040517f08c379a0000000000000000000000000000000000000000000000000000000008152600401611bce9190612e65565b60405180910390fd5b9392505050565b60007f0000000000000000000000000000000000000000000000000000000000000000461415611c30577f00000000000000000000000000000000000000000000000000000000000000009050611c9e565b611c9b7f00000000000000000000000000000000000000000000000000000000000000007f00000000000000000000000000000000000000000000000000000000000000007f0000000000000000000000000000000000000000000000000000000000000000611ef4565b90505b90565b60008282604051602001611cb6929190612c70565b60405160208183030381529060405280519060200120905092915050565b60006003600086815260200190815260200160002090508060030160008573ffffffffffffffffffffffffffffffffffffffff1673ffffffffffffffffffffffffffffffffffffffff16815260200190815260200160002060009054906101000a900460ff1615611d7a576040517f08c379a0000000000000000000000000000000000000000000000000000000008152600401611d7190613047565b60405180910390fd5b60018160030160008673ffffffffffffffffffffffffffffffffffffffff1673ffffffffffffffffffffffffffffffffffffffff16815260200190815260200160002060006101000a81548160ff02191690831515021790555060006002811115611de857611de76137ad565b5b60ff168360ff161415611e155781816000016000828254611e09919061342c565b92505081905550611ed3565b60016002811115611e2957611e286137ad565b5b60ff168360ff161415611e565781816001016000828254611e4a919061342c565b92505081905550611ed2565b600280811115611e6957611e686137ad565b5b60ff168360ff161415611e965781816002016000828254611e8a919061342c565b92505081905550611ed1565b6040517f08c379a0000000000000000000000000000000000000000000000000000000008152600401611ec890613007565b60405180910390fd5b5b5b5050505050565b600080826000015167ffffffffffffffff16119050919050565b60008383834630604051602001611f0f959493929190612d60565b6040516020818303038152906040528051906020012090509392505050565b6000611f41611f3c84613203565b6131de565b90508083825260208201905082856020860282011115611f6457611f63613873565b5b60005b85811015611f945781611f7a8882612120565b845260208401935060208301925050600181019050611f67565b5050509392505050565b6000611fb1611fac8461322f565b6131de565b90508083825260208201905082856020860282011115611fd457611fd3613873565b5b60005b8581101561202257813567ffffffffffffffff811115611ffa57611ff961386e565b5b80860161200789826121e9565b85526020850194506020840193505050600181019050611fd7565b5050509392505050565b600061203f61203a8461325b565b6131de565b9050808382526020820190508285602086028201111561206257612061613873565b5b60005b858110156120925781612078888261229b565b845260208401935060208301925050600181019050612065565b5050509392505050565b60006120af6120aa84613287565b6131de565b9050828152602081018484840111156120cb576120ca613878565b5b6120d6848285613657565b509392505050565b60006120f16120ec846132b8565b6131de565b90508281526020810184848401111561210d5761210c613878565b5b612118848285613657565b509392505050565b60008135905061212f81613cde565b92915050565b600082601f83011261214a5761214961386e565b5b813561215a848260208601611f2e565b91505092915050565b600082601f8301126121785761217761386e565b5b8135612188848260208601611f9e565b91505092915050565b600082601f8301126121a6576121a561386e565b5b81356121b684826020860161202c565b91505092915050565b6000813590506121ce81613cf5565b92915050565b6000813590506121e381613d0c565b92915050565b600082601f8301126121fe576121fd61386e565b5b813561220e84826020860161209c565b91505092915050565b60008083601f84011261222d5761222c61386e565b5b8235905067ffffffffffffffff81111561224a57612249613869565b5b60208301915083600182028301111561226657612265613873565b5b9250929050565b600082601f8301126122825761228161386e565b5b81356122928482602086016120de565b91505092915050565b6000813590506122aa81613d23565b92915050565b6000815190506122bf81613d23565b92915050565b6000813590506122d481613d3a565b92915050565b600080604083850312156122f1576122f0613882565b5b60006122ff85828601612120565b92505060206123108582860161229b565b9150509250929050565b6000806000806080858703121561233457612333613882565b5b600085013567ffffffffffffffff8111156123525761235161387d565b5b61235e87828801612135565b945050602085013567ffffffffffffffff81111561237f5761237e61387d565b5b61238b87828801612191565b935050604085013567ffffffffffffffff8111156123ac576123ab61387d565b5b6123b887828801612163565b92505060606123c9878288016121bf565b91505092959194509250565b600080600080608085870312156123ef576123ee613882565b5b600085013567ffffffffffffffff81111561240d5761240c61387d565b5b61241987828801612135565b945050602085013567ffffffffffffffff81111561243a5761243961387d565b5b61244687828801612191565b935050604085013567ffffffffffffffff8111156124675761246661387d565b5b61247387828801612163565b925050606085013567ffffffffffffffff8111156124945761249361387d565b5b6124a08782880161226d565b91505092959194509250565b6000602082840312156124c2576124c1613882565b5b60006124d0848285016121d4565b91505092915050565b6000602082840312156124ef576124ee613882565b5b60006124fd8482850161229b565b91505092915050565b60006020828403121561251c5761251b613882565b5b600061252a848285016122b0565b91505092915050565b6000806040838503121561254a57612549613882565b5b60006125588582860161229b565b925050602061256985828601612120565b9150509250929050565b6000806040838503121561258a57612589613882565b5b60006125988582860161229b565b92505060206125a9858286016122c5565b9150509250929050565b600080600080606085870312156125cd576125cc613882565b5b60006125db8782880161229b565b94505060206125ec878288016122c5565b935050604085013567ffffffffffffffff81111561260d5761260c61387d565b5b61261987828801612217565b925092505092959194509250565b600080600080600060a0868803121561264357612642613882565b5b60006126518882890161229b565b9550506020612662888289016122c5565b9450506040612673888289016122c5565b9350506060612684888289016121bf565b9250506080612695888289016121bf565b9150509295509295909350565b60006126ae83836126fa565b60208301905092915050565b60006126c683836128f3565b905092915050565b60006126da838361297b565b905092915050565b60006126ee8383612c1d565b60208301905092915050565b6127038161354b565b82525050565b6127128161354b565b82525050565b600061272382613329565b61272d818561339f565b9350612738836132e9565b8060005b8381101561276957815161275088826126a2565b975061275b8361336b565b92505060018101905061273c565b5085935050505092915050565b600061278182613334565b61278b81856133b0565b93508360208202850161279d856132f9565b8060005b858110156127d957848403895281516127ba85826126ba565b94506127c583613378565b925060208a019950506001810190506127a1565b50829750879550505050505092915050565b60006127f68261333f565b61280081856133c1565b93508360208202850161281285613309565b8060005b8581101561284e578484038952815161282f85826126ce565b945061283a83613385565b925060208a01995050600181019050612816565b50829750879550505050505092915050565b600061286b8261334a565b61287581856133d2565b935061288083613319565b8060005b838110156128b157815161289888826126e2565b97506128a383613392565b925050600181019050612884565b5085935050505092915050565b6128c78161355d565b82525050565b6128d681613569565b82525050565b6128ed6128e882613569565b613745565b82525050565b60006128fe82613355565b61290881856133e3565b9350612918818560208601613666565b61292181613887565b840191505092915050565b600061293782613355565b61294181856133f4565b9350612951818560208601613666565b80840191505092915050565b612966816135fd565b82525050565b6129758161360f565b82525050565b600061298682613360565b61299081856133ff565b93506129a0818560208601613666565b6129a981613887565b840191505092915050565b60006129bf82613360565b6129c98185613410565b93506129d9818560208601613666565b6129e281613887565b840191505092915050565b60006129fa601883613410565b9150612a0582613898565b602082019050919050565b6000612a1d601883613410565b9150612a28826138c1565b602082019050919050565b6000612a40604383613410565b9150612a4b826138ea565b606082019050919050565b6000612a63600283613421565b9150612a6e8261395f565b600282019050919050565b6000612a86602183613410565b9150612a9182613988565b604082019050919050565b6000612aa9602283613410565b9150612ab4826139d7565b604082019050919050565b6000612acc602383613410565b9150612ad782613a26565b604082019050919050565b6000612aef601883613410565b9150612afa82613a75565b602082019050919050565b6000612b12602283613410565b9150612b1d82613a9e565b604082019050919050565b6000612b35602683613410565b9150612b4082613aed565b604082019050919050565b6000612b58601d83613410565b9150612b6382613b3c565b602082019050919050565b6000612b7b602183613410565b9150612b8682613b65565b604082019050919050565b6000612b9e601d83613410565b9150612ba982613bb4565b602082019050919050565b6000612bc1603583613410565b9150612bcc82613bdd565b604082019050919050565b6000612be4602183613410565b9150612bef82613c2c565b604082019050919050565b6000612c07602983613410565b9150612c1282613c7b565b604082019050919050565b612c26816135d2565b82525050565b612c35816135d2565b82525050565b612c4481613645565b82525050565b612c53816135f0565b82525050565b6000612c65828461292c565b915081905092915050565b6000612c7b82612a56565b9150612c8782856128dc565b602082019150612c9782846128dc565b6020820191508190509392505050565b6000604082019050612cbc6000830185612709565b612cc96020830184612c2c565b9392505050565b60006080820190508181036000830152612cea8187612718565b90508181036020830152612cfe8186612860565b90508181036040830152612d128185612776565b9050612d2160608301846128cd565b95945050505050565b6000602082019050612d3f60008301846128be565b92915050565b6000602082019050612d5a60008301846128cd565b92915050565b600060a082019050612d7560008301886128cd565b612d8260208301876128cd565b612d8f60408301866128cd565b612d9c6060830185612c2c565b612da96080830184612709565b9695505050505050565b6000606082019050612dc860008301866128cd565b612dd56020830185612c2c565b612de26040830184612c4a565b949350505050565b6000608082019050612dff60008301876128cd565b612e0c6020830186612c4a565b612e1960408301856128cd565b612e2660608301846128cd565b95945050505050565b6000602082019050612e44600083018461295d565b92915050565b6000602082019050612e5f600083018461296c565b92915050565b60006020820190508181036000830152612e7f81846129b4565b905092915050565b60006020820190508181036000830152612ea0816129ed565b9050919050565b60006020820190508181036000830152612ec081612a10565b9050919050565b60006020820190508181036000830152612ee081612a33565b9050919050565b60006020820190508181036000830152612f0081612a79565b9050919050565b60006020820190508181036000830152612f2081612a9c565b9050919050565b60006020820190508181036000830152612f4081612abf565b9050919050565b60006020820190508181036000830152612f6081612ae2565b9050919050565b60006020820190508181036000830152612f8081612b05565b9050919050565b60006020820190508181036000830152612fa081612b28565b9050919050565b60006020820190508181036000830152612fc081612b4b565b9050919050565b60006020820190508181036000830152612fe081612b6e565b9050919050565b6000602082019050818103600083015261300081612b91565b9050919050565b6000602082019050818103600083015261302081612bb4565b9050919050565b6000602082019050818103600083015261304081612bd7565b9050919050565b6000602082019050818103600083015261306081612bfa565b9050919050565b600060208201905061307c6000830184612c2c565b92915050565b600061012082019050613098600083018c612c2c565b6130a5602083018b612709565b81810360408301526130b7818a612718565b905081810360608301526130cb8189612860565b905081810360808301526130df81886127eb565b905081810360a08301526130f38187612776565b905061310260c0830186612c3b565b61310f60e0830185612c3b565b81810361010083015261312281846129b4565b90509a9950505050505050505050565b60006040820190506131476000830185612c2c565b6131546020830184612c2c565b9392505050565b60006060820190506131706000830186612c2c565b61317d6020830185612c2c565b61318a6040830184612c2c565b949350505050565b60006080820190506131a76000830187612c2c565b6131b46020830186612c4a565b6131c16040830185612c2c565b81810360608301526131d381846129b4565b905095945050505050565b60006131e86131f9565b90506131f482826136cb565b919050565b6000604051905090565b600067ffffffffffffffff82111561321e5761321d61383a565b5b602082029050602081019050919050565b600067ffffffffffffffff82111561324a5761324961383a565b5b602082029050602081019050919050565b600067ffffffffffffffff8211156132765761327561383a565b5b602082029050602081019050919050565b600067ffffffffffffffff8211156132a2576132a161383a565b5b6132ab82613887565b9050602081019050919050565b600067ffffffffffffffff8211156132d3576132d261383a565b5b6132dc82613887565b9050602081019050919050565b6000819050602082019050919050565b6000819050602082019050919050565b6000819050602082019050919050565b6000819050602082019050919050565b600081519050919050565b600081519050919050565b600081519050919050565b600081519050919050565b600081519050919050565b600081519050919050565b6000602082019050919050565b6000602082019050919050565b6000602082019050919050565b6000602082019050919050565b600082825260208201905092915050565b600082825260208201905092915050565b600082825260208201905092915050565b600082825260208201905092915050565b600082825260208201905092915050565b600081905092915050565b600082825260208201905092915050565b600082825260208201905092915050565b600081905092915050565b6000613437826135d2565b9150613442836135d2565b9250827fffffffffffffffffffffffffffffffffffffffffffffffffffffffffffffffff038211156134775761347661374f565b5b828201905092915050565b600061348d826135dc565b9150613498836135dc565b92508267ffffffffffffffff038211156134b5576134b461374f565b5b828201905092915050565b60006134cb826135d2565b91506134d6836135d2565b9250826134e6576134e561377e565b5b828204905092915050565b60006134fc826135d2565b9150613507836135d2565b9250817fffffffffffffffffffffffffffffffffffffffffffffffffffffffffffffffff04831182151516156135405761353f61374f565b5b828202905092915050565b6000613556826135b2565b9050919050565b60008115159050919050565b6000819050919050565b60007fffffffff0000000000000000000000000000000000000000000000000000000082169050919050565b60008190506135ad82613cca565b919050565b600073ffffffffffffffffffffffffffffffffffffffff82169050919050565b6000819050919050565b600067ffffffffffffffff82169050919050565b600060ff82169050919050565b600061360882613621565b9050919050565b600061361a8261359f565b9050919050565b600061362c82613633565b9050919050565b600061363e826135b2565b9050919050565b6000613650826135dc565b9050919050565b82818337600083830152505050565b60005b83811015613684578082015181840152602081019050613669565b83811115613693576000848401525b50505050565b600060028204905060018216806136b157607f821691505b602082108114156136c5576136c46137dc565b5b50919050565b6136d482613887565b810181811067ffffffffffffffff821117156136f3576136f261383a565b5b80604052505050565b6000613707826135d2565b91507fffffffffffffffffffffffffffffffffffffffffffffffffffffffffffffffff82141561373a5761373961374f565b5b600182019050919050565b6000819050919050565b7f4e487b7100000000000000000000000000000000000000000000000000000000600052601160045260246000fd5b7f4e487b7100000000000000000000000000000000000000000000000000000000600052601260045260246000fd5b7f4e487b7100000000000000000000000000000000000000000000000000000000600052602160045260246000fd5b7f4e487b7100000000000000000000000000000000000000000000000000000000600052602260045260246000fd5b7f4e487b7100000000000000000000000000000000000000000000000000000000600052603260045260246000fd5b7f4e487b7100000000000000000000000000000000000000000000000000000000600052604160045260246000fd5b600080fd5b600080fd5b600080fd5b600080fd5b600080fd5b600080fd5b6000601f19601f8301169050919050565b7f45434453413a20696e76616c6964207369676e61747572650000000000000000600082015250565b7f476f7665726e6f723a206f6e6c79476f7665726e616e63650000000000000000600082015250565b7f476f7665726e6f72566f74657351756f72756d4672616374696f6e3a2071756f60008201527f72756d4e756d657261746f72206f7665722071756f72756d44656e6f6d696e6160208201527f746f720000000000000000000000000000000000000000000000000000000000604082015250565b7f1901000000000000000000000000000000000000000000000000000000000000600082015250565b7f476f7665726e6f723a20696e76616c69642070726f706f73616c206c656e677460008201527f6800000000000000000000000000000000000000000000000000000000000000602082015250565b7f45434453413a20696e76616c6964207369676e6174757265202773272076616c60008201527f7565000000000000000000000000000000000000000000000000000000000000602082015250565b7f476f7665726e6f723a20766f7465206e6f742063757272656e746c792061637460008201527f6976650000000000000000000000000000000000000000000000000000000000602082015250565b7f476f7665726e6f723a20656d7074792070726f706f73616c0000000000000000600082015250565b7f45434453413a20696e76616c6964207369676e6174757265202776272076616c60008201527f7565000000000000000000000000000000000000000000000000000000000000602082015250565b7f53616665436173743a2076616c756520646f65736e27742066697420696e203660008201527f3420626974730000000000000000000000000000000000000000000000000000602082015250565b7f476f7665726e6f723a2070726f706f73616c206e6f7420616374697665000000600082015250565b7f476f7665726e6f723a2070726f706f73616c206e6f742073756363657373667560008201527f6c00000000000000000000000000000000000000000000000000000000000000602082015250565b7f476f7665726e6f723a20756e6b6e6f776e2070726f706f73616c206964000000600082015250565b7f476f7665726e6f72566f74696e6753696d706c653a20696e76616c696420766160008201527f6c756520666f7220656e756d20566f7465547970650000000000000000000000602082015250565b7f476f7665726e6f723a2070726f706f73616c20616c726561647920657869737460008201527f7300000000000000000000000000000000000000000000000000000000000000602082015250565b7f476f7665726e6f72566f74696e6753696d706c653a20766f746520616c72656160008201527f6479206361737465640000000000000000000000000000000000000000000000602082015250565b60088110613cdb57613cda6137ad565b5b50565b613ce78161354b565b8114613cf257600080fd5b50565b613cfe81613569565b8114613d0957600080fd5b50565b613d1581613573565b8114613d2057600080fd5b50565b613d2c816135d2565b8114613d3757600080fd5b50565b613d43816135f0565b8114613d4e57600080fd5b5056fe476f7665726e6f723a2063616c6c20726576657274656420776974686f7574206d657373616765a264697066735822122037d58e3885731583538cb7b94b57c2c121ca26ffd12e00a194a6eb46d67a2fb964736f6c63430008070033",
  "immutableReferences": {
    "5527": [
      {
        "length": 32,
        "start": 4599
      },
      {
        "length": 32,
        "start": 4795
      },
      {
        "length": 32,
        "start": 6854
      }
    ],
    "10480": [
      {
        "length": 32,
        "start": 2571
      }
    ],
    "10482": [
      {
        "length": 32,
        "start": 1832
      }
    ],
    "24333": [
      {
        "length": 32,
        "start": 7178
      }
    ],
    "24335": [
      {
        "length": 32,
        "start": 7138
      }
    ],
    "24337": [
      {
        "length": 32,
        "start": 7254
      }
    ],
    "24339": [
      {
        "length": 32,
        "start": 7287
      }
    ],
    "24341": [
      {
        "length": 32,
        "start": 7221
      }
    ]
  },
  "source": "// SPDX-License-Identifier: MIT\n\npragma solidity ^0.8.0;\n\nimport \"../governance/Governor.sol\";\nimport \"../governance/extensions/GovernorCountingSimple.sol\";\nimport \"../governance/extensions/GovernorVotesQuorumFraction.sol\";\n\ncontract GovernorMock is Governor, GovernorVotesQuorumFraction, GovernorCountingSimple {\n    uint256 immutable _votingDelay;\n    uint256 immutable _votingPeriod;\n\n    constructor(\n        string memory name_,\n        ERC20Votes token_,\n        uint256 votingDelay_,\n        uint256 votingPeriod_,\n        uint256 quorumNumerator_\n    ) Governor(name_) GovernorVotes(token_) GovernorVotesQuorumFraction(quorumNumerator_) {\n        _votingDelay = votingDelay_;\n        _votingPeriod = votingPeriod_;\n    }\n\n    receive() external payable {}\n\n    function votingDelay() public view override returns (uint256) {\n        return _votingDelay;\n    }\n\n    function votingPeriod() public view override returns (uint256) {\n        return _votingPeriod;\n    }\n\n    function cancel(\n        address[] memory targets,\n        uint256[] memory values,\n        bytes[] memory calldatas,\n        bytes32 salt\n    ) public returns (uint256 proposalId) {\n        return _cancel(targets, values, calldatas, salt);\n    }\n\n    function getVotes(address account, uint256 blockNumber)\n        public\n        view\n        virtual\n        override(Governor, GovernorVotes)\n        returns (uint256)\n    {\n        return super.getVotes(account, blockNumber);\n    }\n}\n",
  "sourcePath": "/home/tenten/Projects/upcgold.io/src/contracts/openzeppelin-contracts/contracts/mocks/GovernorMock.sol",
  "compiler": {
    "name": "solc",
    "version": "0.8.7+commit.e28d00a7.Emscripten.clang"
  },
  "schemaVersion": "3.2.3",
  "updatedAt": "2021-08-12T03:39:31.333Z",
  "devdoc": {
    "kind": "dev",
    "methods": {
      "COUNTING_MODE()": {
        "details": "See {IGovernor-COUNTING_MODE}."
      },
      "castVote(uint256,uint8)": {
        "details": "See {IGovernor-castVote}."
      },
      "castVoteBySig(uint256,uint8,uint8,bytes32,bytes32)": {
        "details": "See {IGovernor-castVoteBySig}."
      },
      "castVoteWithReason(uint256,uint8,string)": {
        "details": "See {IGovernor-castVoteWithReason}."
      },
      "execute(address[],uint256[],bytes[],bytes32)": {
        "details": "See {IGovernor-execute}."
      },
      "hasVoted(uint256,address)": {
        "details": "See {IGovernor-hasVoted}."
      },
      "hashProposal(address[],uint256[],bytes[],bytes32)": {
        "details": "See {IGovernor-hashProposal}. The proposal id is produced by hashing the RLC encoded `targets` array, the `values` array, the `calldatas` array and the descriptionHash (bytes32 which itself is the keccak256 hash of the description string). This proposal id can be produced from the proposal data which is part of the {ProposalCreated} event. It can even be computed in advance, before the proposal is submitted. Note that the chainId and the governor address are not part of the proposal id computation. Consequently, the same proposal (with same operation and same description) will have the same id if submitted on multiple governors accross multiple networks. This also means that in order to execute the same operation twice (on the same governor) the proposer will have to change the description in order to avoid proposal id conflicts."
      },
      "name()": {
        "details": "See {IGovernor-name}."
      },
      "proposalDeadline(uint256)": {
        "details": "See {IGovernor-proposalDeadline}."
      },
      "proposalSnapshot(uint256)": {
        "details": "See {IGovernor-proposalSnapshot}."
      },
      "proposalVotes(uint256)": {
        "details": "Accessor to the internal vote counts."
      },
      "propose(address[],uint256[],bytes[],string)": {
        "details": "See {IGovernor-propose}."
      },
      "quorum(uint256)": {
        "details": "See {IGovernor-quorum}"
      },
      "state(uint256)": {
        "details": "See {IGovernor-state}."
      },
      "supportsInterface(bytes4)": {
        "details": "See {IERC165-supportsInterface}."
      },
      "version()": {
        "details": "See {IGovernor-version}."
      },
      "votingDelay()": {
        "details": "See {IGovernor-votingDelay}"
      },
      "votingPeriod()": {
        "details": "See {IGovernor-votingPeriod}"
      }
    },
    "version": 1
  },
  "userdoc": {
    "kind": "user",
    "methods": {},
    "version": 1
  }
}