{
  "contractName": "ifroX",
  "abi": [
    {
      "inputs": [],
      "stateMutability": "nonpayable",
      "type": "constructor"
    },
    {
      "anonymous": false,
      "inputs": [
        {
          "indexed": true,
          "internalType": "address",
          "name": "owner",
          "type": "address"
        },
        {
          "indexed": true,
          "internalType": "address",
          "name": "spender",
          "type": "address"
        },
        {
          "indexed": false,
          "internalType": "uint256",
          "name": "value",
          "type": "uint256"
        }
      ],
      "name": "Approval",
      "type": "event"
    },
    {
      "anonymous": false,
      "inputs": [
        {
          "indexed": true,
          "internalType": "address",
          "name": "from",
          "type": "address"
        },
        {
          "indexed": true,
          "internalType": "address",
          "name": "to",
          "type": "address"
        },
        {
          "indexed": false,
          "internalType": "uint256",
          "name": "value",
          "type": "uint256"
        }
      ],
      "name": "Transfer",
      "type": "event"
    },
    {
      "inputs": [
        {
          "internalType": "uint256",
          "name": "amount",
          "type": "uint256"
        },
        {
          "internalType": "string",
          "name": "winningHash",
          "type": "string"
        }
      ],
      "name": "addReward",
      "outputs": [],
      "stateMutability": "payable",
      "type": "function"
    },
    {
      "inputs": [
        {
          "internalType": "address",
          "name": "owner",
          "type": "address"
        },
        {
          "internalType": "address",
          "name": "spender",
          "type": "address"
        }
      ],
      "name": "allowance",
      "outputs": [
        {
          "internalType": "uint256",
          "name": "",
          "type": "uint256"
        }
      ],
      "stateMutability": "view",
      "type": "function"
    },
    {
      "inputs": [
        {
          "internalType": "address",
          "name": "spender",
          "type": "address"
        },
        {
          "internalType": "uint256",
          "name": "amount",
          "type": "uint256"
        }
      ],
      "name": "approve",
      "outputs": [
        {
          "internalType": "bool",
          "name": "",
          "type": "bool"
        }
      ],
      "stateMutability": "nonpayable",
      "type": "function"
    },
    {
      "inputs": [],
      "name": "balance",
      "outputs": [
        {
          "internalType": "uint256",
          "name": "",
          "type": "uint256"
        }
      ],
      "stateMutability": "view",
      "type": "function"
    },
    {
      "inputs": [
        {
          "internalType": "address",
          "name": "account",
          "type": "address"
        }
      ],
      "name": "balanceOf",
      "outputs": [
        {
          "internalType": "uint256",
          "name": "",
          "type": "uint256"
        }
      ],
      "stateMutability": "view",
      "type": "function"
    },
    {
      "inputs": [
        {
          "internalType": "uint256",
          "name": "amount",
          "type": "uint256"
        }
      ],
      "name": "burn",
      "outputs": [],
      "stateMutability": "nonpayable",
      "type": "function"
    },
    {
      "inputs": [
        {
          "internalType": "address",
          "name": "account",
          "type": "address"
        },
        {
          "internalType": "uint256",
          "name": "amount",
          "type": "uint256"
        }
      ],
      "name": "burnFrom",
      "outputs": [],
      "stateMutability": "nonpayable",
      "type": "function"
    },
    {
      "inputs": [],
      "name": "decimals",
      "outputs": [
        {
          "internalType": "uint8",
          "name": "",
          "type": "uint8"
        }
      ],
      "stateMutability": "view",
      "type": "function"
    },
    {
      "inputs": [
        {
          "internalType": "address",
          "name": "spender",
          "type": "address"
        },
        {
          "internalType": "uint256",
          "name": "subtractedValue",
          "type": "uint256"
        }
      ],
      "name": "decreaseAllowance",
      "outputs": [
        {
          "internalType": "bool",
          "name": "",
          "type": "bool"
        }
      ],
      "stateMutability": "nonpayable",
      "type": "function"
    },
    {
      "inputs": [
        {
          "internalType": "address",
          "name": "spender",
          "type": "address"
        },
        {
          "internalType": "uint256",
          "name": "addedValue",
          "type": "uint256"
        }
      ],
      "name": "increaseAllowance",
      "outputs": [
        {
          "internalType": "bool",
          "name": "",
          "type": "bool"
        }
      ],
      "stateMutability": "nonpayable",
      "type": "function"
    },
    {
      "inputs": [],
      "name": "mine",
      "outputs": [],
      "stateMutability": "nonpayable",
      "type": "function"
    },
    {
      "inputs": [],
      "name": "name",
      "outputs": [
        {
          "internalType": "string",
          "name": "",
          "type": "string"
        }
      ],
      "stateMutability": "view",
      "type": "function"
    },
    {
      "inputs": [
        {
          "internalType": "uint256",
          "name": "",
          "type": "uint256"
        }
      ],
      "name": "rewards",
      "outputs": [
        {
          "internalType": "uint256",
          "name": "amount",
          "type": "uint256"
        },
        {
          "internalType": "string",
          "name": "winningHash",
          "type": "string"
        }
      ],
      "stateMutability": "view",
      "type": "function"
    },
    {
      "inputs": [],
      "name": "swap",
      "outputs": [],
      "stateMutability": "payable",
      "type": "function"
    },
    {
      "inputs": [],
      "name": "symbol",
      "outputs": [
        {
          "internalType": "string",
          "name": "",
          "type": "string"
        }
      ],
      "stateMutability": "view",
      "type": "function"
    },
    {
      "inputs": [],
      "name": "totalSupply",
      "outputs": [
        {
          "internalType": "uint256",
          "name": "",
          "type": "uint256"
        }
      ],
      "stateMutability": "view",
      "type": "function"
    },
    {
      "inputs": [
        {
          "internalType": "address",
          "name": "recipient",
          "type": "address"
        },
        {
          "internalType": "uint256",
          "name": "amount",
          "type": "uint256"
        }
      ],
      "name": "transfer",
      "outputs": [
        {
          "internalType": "bool",
          "name": "",
          "type": "bool"
        }
      ],
      "stateMutability": "nonpayable",
      "type": "function"
    },
    {
      "inputs": [
        {
          "internalType": "address",
          "name": "sender",
          "type": "address"
        },
        {
          "internalType": "address",
          "name": "recipient",
          "type": "address"
        },
        {
          "internalType": "uint256",
          "name": "amount",
          "type": "uint256"
        }
      ],
      "name": "transferFrom",
      "outputs": [
        {
          "internalType": "bool",
          "name": "",
          "type": "bool"
        }
      ],
      "stateMutability": "nonpayable",
      "type": "function"
    },
    {
      "inputs": [],
      "name": "withdraw",
      "outputs": [],
      "stateMutability": "nonpayable",
      "type": "function"
    }
  ],
  "bytecode": "0x608060405260036005553480156200001657600080fd5b506040518060400160405280600a81526020017f555043204d6174726978000000000000000000000000000000000000000000008152506040518060400160405280600481526020017f585550430000000000000000000000000000000000000000000000000000000081525081600390805190602001906200009b929190620002e2565b508060049080519060200190620000b4929190620002e2565b50505062000107620000cb6200014e60201b60201c565b620000db6200015660201b60201c565b60ff16600a620000ec9190620004d2565b612710620000fb91906200060f565b6200015f60201b60201c565b33600660006101000a81548173ffffffffffffffffffffffffffffffffffffffff021916908373ffffffffffffffffffffffffffffffffffffffff16021790555062000744565b600033905090565b60006012905090565b600073ffffffffffffffffffffffffffffffffffffffff168273ffffffffffffffffffffffffffffffffffffffff161415620001d2576040517f08c379a0000000000000000000000000000000000000000000000000000000008152600401620001c990620003ca565b60405180910390fd5b620001e660008383620002d860201b60201c565b8060026000828254620001fa91906200041a565b92505081905550806000808473ffffffffffffffffffffffffffffffffffffffff1673ffffffffffffffffffffffffffffffffffffffff16815260200190815260200160002060008282546200025191906200041a565b925050819055508173ffffffffffffffffffffffffffffffffffffffff16600073ffffffffffffffffffffffffffffffffffffffff167fddf252ad1be2c89b69c2b068fc378daa952ba7f163c4a11628f55a4df523b3ef83604051620002b89190620003ec565b60405180910390a3620002d460008383620002dd60201b60201c565b5050565b505050565b505050565b828054620002f0906200067a565b90600052602060002090601f01602090048101928262000314576000855562000360565b82601f106200032f57805160ff191683800117855562000360565b8280016001018555821562000360579182015b828111156200035f57825182559160200191906001019062000342565b5b5090506200036f919062000373565b5090565b5b808211156200038e57600081600090555060010162000374565b5090565b6000620003a1601f8362000409565b9150620003ae826200071b565b602082019050919050565b620003c48162000670565b82525050565b60006020820190508181036000830152620003e58162000392565b9050919050565b6000602082019050620004036000830184620003b9565b92915050565b600082825260208201905092915050565b6000620004278262000670565b9150620004348362000670565b9250827fffffffffffffffffffffffffffffffffffffffffffffffffffffffffffffffff038211156200046c576200046b620006b0565b5b828201905092915050565b6000808291508390505b6001851115620004c957808604811115620004a157620004a0620006b0565b5b6001851615620004b15780820291505b8081029050620004c1856200070e565b945062000481565b94509492505050565b6000620004df8262000670565b9150620004ec8362000670565b92506200051b7fffffffffffffffffffffffffffffffffffffffffffffffffffffffffffffffff848462000523565b905092915050565b60008262000535576001905062000608565b8162000545576000905062000608565b81600181146200055e576002811462000569576200059f565b600191505062000608565b60ff8411156200057e576200057d620006b0565b5b8360020a915084821115620005985762000597620006b0565b5b5062000608565b5060208310610133831016604e8410600b8410161715620005d95782820a905083811115620005d357620005d2620006b0565b5b62000608565b620005e8848484600162000477565b92509050818404811115620006025762000601620006b0565b5b81810290505b9392505050565b60006200061c8262000670565b9150620006298362000670565b9250817fffffffffffffffffffffffffffffffffffffffffffffffffffffffffffffffff0483118215151615620006655762000664620006b0565b5b828202905092915050565b6000819050919050565b600060028204905060018216806200069357607f821691505b60208210811415620006aa57620006a9620006df565b5b50919050565b7f4e487b7100000000000000000000000000000000000000000000000000000000600052601160045260246000fd5b7f4e487b7100000000000000000000000000000000000000000000000000000000600052602260045260246000fd5b60008160011c9050919050565b7f45524332303a206d696e7420746f20746865207a65726f206164647265737300600082015250565b6121c380620007546000396000f3fe6080604052600436106100fe5760003560e01c806379cc679011610095578063a457c2d711610064578063a457c2d714610328578063a9059cbb14610365578063dd62ed3e146103a2578063e22223d5146103df578063f301af42146103f6576100fe565b806379cc6790146102a15780637d6aeb9d146102ca57806395d89b41146102e657806399f4b25114610311576100fe565b8063313ce567116100d1578063313ce567146101d357806339509351146101fe57806342966c681461023b57806370a0823114610264576100fe565b806306fdde0314610103578063095ea7b31461012e57806318160ddd1461016b57806323b872dd14610196575b600080fd5b34801561010f57600080fd5b50610118610434565b6040516101259190611947565b60405180910390f35b34801561013a57600080fd5b5061015560048036038101906101509190611659565b6104c6565b604051610162919061192c565b60405180910390f35b34801561017757600080fd5b506101806104e4565b60405161018d9190611ae9565b60405180910390f35b3480156101a257600080fd5b506101bd60048036038101906101b89190611606565b6104ee565b6040516101ca919061192c565b60405180910390f35b3480156101df57600080fd5b506101e86105e6565b6040516101f59190611b34565b60405180910390f35b34801561020a57600080fd5b5061022560048036038101906102209190611659565b6105ef565b604051610232919061192c565b60405180910390f35b34801561024757600080fd5b50610262600480360381019061025d9190611699565b61069b565b005b34801561027057600080fd5b5061028b60048036038101906102869190611599565b6106af565b6040516102989190611ae9565b60405180910390f35b3480156102ad57600080fd5b506102c860048036038101906102c39190611659565b6106f7565b005b6102e460048036038101906102df91906116c6565b610772565b005b3480156102f257600080fd5b506102fb610877565b6040516103089190611947565b60405180910390f35b34801561031d57600080fd5b50610326610909565b005b34801561033457600080fd5b5061034f600480360381019061034a9190611659565b61092e565b60405161035c919061192c565b60405180910390f35b34801561037157600080fd5b5061038c60048036038101906103879190611659565b610a19565b604051610399919061192c565b60405180910390f35b3480156103ae57600080fd5b506103c960048036038101906103c491906115c6565b610a37565b6040516103d69190611ae9565b60405180910390f35b3480156103eb57600080fd5b506103f4610abe565b005b34801561040257600080fd5b5061041d60048036038101906104189190611699565b610b5e565b60405161042b929190611b04565b60405180910390f35b60606003805461044390611ce2565b80601f016020809104026020016040519081016040528092919081815260200182805461046f90611ce2565b80156104bc5780601f10610491576101008083540402835291602001916104bc565b820191906000526020600020905b81548152906001019060200180831161049f57829003601f168201915b5050505050905090565b60006104da6104d3610c1a565b8484610c22565b6001905092915050565b6000600254905090565b60006104fb848484610ded565b6000600160008673ffffffffffffffffffffffffffffffffffffffff1673ffffffffffffffffffffffffffffffffffffffff1681526020019081526020016000206000610546610c1a565b73ffffffffffffffffffffffffffffffffffffffff1673ffffffffffffffffffffffffffffffffffffffff168152602001908152602001600020549050828110156105c6576040517f08c379a00000000000000000000000000000000000000000000000000000000081526004016105bd906119e9565b60405180910390fd5b6105da856105d2610c1a565b858403610c22565b60019150509392505050565b60006012905090565b60006106916105fc610c1a565b84846001600061060a610c1a565b73ffffffffffffffffffffffffffffffffffffffff1673ffffffffffffffffffffffffffffffffffffffff16815260200190815260200160002060008873ffffffffffffffffffffffffffffffffffffffff1673ffffffffffffffffffffffffffffffffffffffff1681526020019081526020016000205461068c9190611bc1565b610c22565b6001905092915050565b6106ac6106a6610c1a565b8261106e565b50565b60008060008373ffffffffffffffffffffffffffffffffffffffff1673ffffffffffffffffffffffffffffffffffffffff168152602001908152602001600020549050919050565b600061070a83610705610c1a565b610a37565b90508181101561074f576040517f08c379a000000000000000000000000000000000000000000000000000000000815260040161074690611a09565b60405180910390fd5b6107638361075b610c1a565b848403610c22565b61076d838361106e565b505050565b600660009054906101000a900473ffffffffffffffffffffffffffffffffffffffff1673ffffffffffffffffffffffffffffffffffffffff163373ffffffffffffffffffffffffffffffffffffffff1614610802576040517f08c379a00000000000000000000000000000000000000000000000000000000081526004016107f990611ac9565b60405180910390fd5b61080a6113af565b82816000018181525050818160200181905250600781908060018154018082558091505060019003906000526020600020906002020160009091909190915060008201518160000155602082015181600101908051906020019061086f9291906113c9565b505050505050565b60606004805461088690611ce2565b80601f01602080910402602001604051908101604052809291908181526020018280546108b290611ce2565b80156108ff5780601f106108d4576101008083540402835291602001916108ff565b820191906000526020600020905b8154815290600101906020018083116108e257829003601f168201915b5050505050905090565b61091a33662386f26fc10000611245565b61092c30670de0b6b3a7640000611245565b565b6000806001600061093d610c1a565b73ffffffffffffffffffffffffffffffffffffffff1673ffffffffffffffffffffffffffffffffffffffff16815260200190815260200160002060008573ffffffffffffffffffffffffffffffffffffffff1673ffffffffffffffffffffffffffffffffffffffff168152602001908152602001600020549050828110156109fa576040517f08c379a00000000000000000000000000000000000000000000000000000000081526004016109f190611a89565b60405180910390fd5b610a0e610a05610c1a565b85858403610c22565b600191505092915050565b6000610a2d610a26610c1a565b8484610ded565b6001905092915050565b6000600160008473ffffffffffffffffffffffffffffffffffffffff1673ffffffffffffffffffffffffffffffffffffffff16815260200190815260200160002060008373ffffffffffffffffffffffffffffffffffffffff1673ffffffffffffffffffffffffffffffffffffffff16815260200190815260200160002054905092915050565b600660009054906101000a900473ffffffffffffffffffffffffffffffffffffffff1673ffffffffffffffffffffffffffffffffffffffff163373ffffffffffffffffffffffffffffffffffffffff1614610b4e576040517f08c379a0000000000000000000000000000000000000000000000000000000008152600401610b4590611ac9565b60405180910390fd5b60076000610b5c919061144f565b565b60078181548110610b6e57600080fd5b9060005260206000209060020201600091509050806000015490806001018054610b9790611ce2565b80601f0160208091040260200160405190810160405280929190818152602001828054610bc390611ce2565b8015610c105780601f10610be557610100808354040283529160200191610c10565b820191906000526020600020905b815481529060010190602001808311610bf357829003601f168201915b5050505050905082565b600033905090565b600073ffffffffffffffffffffffffffffffffffffffff168373ffffffffffffffffffffffffffffffffffffffff161415610c92576040517f08c379a0000000000000000000000000000000000000000000000000000000008152600401610c8990611a69565b60405180910390fd5b600073ffffffffffffffffffffffffffffffffffffffff168273ffffffffffffffffffffffffffffffffffffffff161415610d02576040517f08c379a0000000000000000000000000000000000000000000000000000000008152600401610cf9906119a9565b60405180910390fd5b80600160008573ffffffffffffffffffffffffffffffffffffffff1673ffffffffffffffffffffffffffffffffffffffff16815260200190815260200160002060008473ffffffffffffffffffffffffffffffffffffffff1673ffffffffffffffffffffffffffffffffffffffff168152602001908152602001600020819055508173ffffffffffffffffffffffffffffffffffffffff168373ffffffffffffffffffffffffffffffffffffffff167f8c5be1e5ebec7d5bd14f71427d1e84f3dd0314c0f7b2291e5b200ac8c7c3b92583604051610de09190611ae9565b60405180910390a3505050565b600073ffffffffffffffffffffffffffffffffffffffff168373ffffffffffffffffffffffffffffffffffffffff161415610e5d576040517f08c379a0000000000000000000000000000000000000000000000000000000008152600401610e5490611a49565b60405180910390fd5b600073ffffffffffffffffffffffffffffffffffffffff168273ffffffffffffffffffffffffffffffffffffffff161415610ecd576040517f08c379a0000000000000000000000000000000000000000000000000000000008152600401610ec490611969565b60405180910390fd5b610ed88383836113a5565b60008060008573ffffffffffffffffffffffffffffffffffffffff1673ffffffffffffffffffffffffffffffffffffffff16815260200190815260200160002054905081811015610f5e576040517f08c379a0000000000000000000000000000000000000000000000000000000008152600401610f55906119c9565b60405180910390fd5b8181036000808673ffffffffffffffffffffffffffffffffffffffff1673ffffffffffffffffffffffffffffffffffffffff16815260200190815260200160002081905550816000808573ffffffffffffffffffffffffffffffffffffffff1673ffffffffffffffffffffffffffffffffffffffff1681526020019081526020016000206000828254610ff19190611bc1565b925050819055508273ffffffffffffffffffffffffffffffffffffffff168473ffffffffffffffffffffffffffffffffffffffff167fddf252ad1be2c89b69c2b068fc378daa952ba7f163c4a11628f55a4df523b3ef846040516110559190611ae9565b60405180910390a36110688484846113aa565b50505050565b600073ffffffffffffffffffffffffffffffffffffffff168273ffffffffffffffffffffffffffffffffffffffff1614156110de576040517f08c379a00000000000000000000000000000000000000000000000000000000081526004016110d590611a29565b60405180910390fd5b6110ea826000836113a5565b60008060008473ffffffffffffffffffffffffffffffffffffffff1673ffffffffffffffffffffffffffffffffffffffff16815260200190815260200160002054905081811015611170576040517f08c379a000000000000000000000000000000000000000000000000000000000815260040161116790611989565b60405180910390fd5b8181036000808573ffffffffffffffffffffffffffffffffffffffff1673ffffffffffffffffffffffffffffffffffffffff1681526020019081526020016000208190555081600260008282546111c79190611c17565b92505081905550600073ffffffffffffffffffffffffffffffffffffffff168373ffffffffffffffffffffffffffffffffffffffff167fddf252ad1be2c89b69c2b068fc378daa952ba7f163c4a11628f55a4df523b3ef8460405161122c9190611ae9565b60405180910390a3611240836000846113aa565b505050565b600073ffffffffffffffffffffffffffffffffffffffff168273ffffffffffffffffffffffffffffffffffffffff1614156112b5576040517f08c379a00000000000000000000000000000000000000000000000000000000081526004016112ac90611aa9565b60405180910390fd5b6112c1600083836113a5565b80600260008282546112d39190611bc1565b92505081905550806000808473ffffffffffffffffffffffffffffffffffffffff1673ffffffffffffffffffffffffffffffffffffffff16815260200190815260200160002060008282546113289190611bc1565b925050819055508173ffffffffffffffffffffffffffffffffffffffff16600073ffffffffffffffffffffffffffffffffffffffff167fddf252ad1be2c89b69c2b068fc378daa952ba7f163c4a11628f55a4df523b3ef8360405161138d9190611ae9565b60405180910390a36113a1600083836113aa565b5050565b505050565b505050565b604051806040016040528060008152602001606081525090565b8280546113d590611ce2565b90600052602060002090601f0160209004810192826113f7576000855561143e565b82601f1061141057805160ff191683800117855561143e565b8280016001018555821561143e579182015b8281111561143d578251825591602001919060010190611422565b5b50905061144b9190611473565b5090565b50805460008255600202906000526020600020908101906114709190611490565b50565b5b8082111561148c576000816000905550600101611474565b5090565b5b808211156114bb576000808201600090556001820160006114b291906114bf565b50600201611491565b5090565b5080546114cb90611ce2565b6000825580601f106114dd57506114fc565b601f0160209004906000526020600020908101906114fb9190611473565b5b50565b600061151261150d84611b74565b611b4f565b90508281526020810184848401111561152e5761152d611dd7565b5b611539848285611ca0565b509392505050565b6000813590506115508161215f565b92915050565b600082601f83011261156b5761156a611dd2565b5b813561157b8482602086016114ff565b91505092915050565b60008135905061159381612176565b92915050565b6000602082840312156115af576115ae611de1565b5b60006115bd84828501611541565b91505092915050565b600080604083850312156115dd576115dc611de1565b5b60006115eb85828601611541565b92505060206115fc85828601611541565b9150509250929050565b60008060006060848603121561161f5761161e611de1565b5b600061162d86828701611541565b935050602061163e86828701611541565b925050604061164f86828701611584565b9150509250925092565b600080604083850312156116705761166f611de1565b5b600061167e85828601611541565b925050602061168f85828601611584565b9150509250929050565b6000602082840312156116af576116ae611de1565b5b60006116bd84828501611584565b91505092915050565b600080604083850312156116dd576116dc611de1565b5b60006116eb85828601611584565b925050602083013567ffffffffffffffff81111561170c5761170b611ddc565b5b61171885828601611556565b9150509250929050565b61172b81611c5d565b82525050565b600061173c82611ba5565b6117468185611bb0565b9350611756818560208601611caf565b61175f81611de6565b840191505092915050565b6000611777602383611bb0565b915061178282611df7565b604082019050919050565b600061179a602283611bb0565b91506117a582611e46565b604082019050919050565b60006117bd602283611bb0565b91506117c882611e95565b604082019050919050565b60006117e0602683611bb0565b91506117eb82611ee4565b604082019050919050565b6000611803602883611bb0565b915061180e82611f33565b604082019050919050565b6000611826602483611bb0565b915061183182611f82565b604082019050919050565b6000611849602183611bb0565b915061185482611fd1565b604082019050919050565b600061186c602583611bb0565b915061187782612020565b604082019050919050565b600061188f602483611bb0565b915061189a8261206f565b604082019050919050565b60006118b2602583611bb0565b91506118bd826120be565b604082019050919050565b60006118d5601f83611bb0565b91506118e08261210d565b602082019050919050565b60006118f8601683611bb0565b915061190382612136565b602082019050919050565b61191781611c89565b82525050565b61192681611c93565b82525050565b60006020820190506119416000830184611722565b92915050565b600060208201905081810360008301526119618184611731565b905092915050565b600060208201905081810360008301526119828161176a565b9050919050565b600060208201905081810360008301526119a28161178d565b9050919050565b600060208201905081810360008301526119c2816117b0565b9050919050565b600060208201905081810360008301526119e2816117d3565b9050919050565b60006020820190508181036000830152611a02816117f6565b9050919050565b60006020820190508181036000830152611a2281611819565b9050919050565b60006020820190508181036000830152611a428161183c565b9050919050565b60006020820190508181036000830152611a628161185f565b9050919050565b60006020820190508181036000830152611a8281611882565b9050919050565b60006020820190508181036000830152611aa2816118a5565b9050919050565b60006020820190508181036000830152611ac2816118c8565b9050919050565b60006020820190508181036000830152611ae2816118eb565b9050919050565b6000602082019050611afe600083018461190e565b92915050565b6000604082019050611b19600083018561190e565b8181036020830152611b2b8184611731565b90509392505050565b6000602082019050611b49600083018461191d565b92915050565b6000611b59611b6a565b9050611b658282611d14565b919050565b6000604051905090565b600067ffffffffffffffff821115611b8f57611b8e611da3565b5b611b9882611de6565b9050602081019050919050565b600081519050919050565b600082825260208201905092915050565b6000611bcc82611c89565b9150611bd783611c89565b9250827fffffffffffffffffffffffffffffffffffffffffffffffffffffffffffffffff03821115611c0c57611c0b611d45565b5b828201905092915050565b6000611c2282611c89565b9150611c2d83611c89565b925082821015611c4057611c3f611d45565b5b828203905092915050565b6000611c5682611c69565b9050919050565b60008115159050919050565b600073ffffffffffffffffffffffffffffffffffffffff82169050919050565b6000819050919050565b600060ff82169050919050565b82818337600083830152505050565b60005b83811015611ccd578082015181840152602081019050611cb2565b83811115611cdc576000848401525b50505050565b60006002820490506001821680611cfa57607f821691505b60208210811415611d0e57611d0d611d74565b5b50919050565b611d1d82611de6565b810181811067ffffffffffffffff82111715611d3c57611d3b611da3565b5b80604052505050565b7f4e487b7100000000000000000000000000000000000000000000000000000000600052601160045260246000fd5b7f4e487b7100000000000000000000000000000000000000000000000000000000600052602260045260246000fd5b7f4e487b7100000000000000000000000000000000000000000000000000000000600052604160045260246000fd5b600080fd5b600080fd5b600080fd5b600080fd5b6000601f19601f8301169050919050565b7f45524332303a207472616e7366657220746f20746865207a65726f206164647260008201527f6573730000000000000000000000000000000000000000000000000000000000602082015250565b7f45524332303a206275726e20616d6f756e7420657863656564732062616c616e60008201527f6365000000000000000000000000000000000000000000000000000000000000602082015250565b7f45524332303a20617070726f766520746f20746865207a65726f20616464726560008201527f7373000000000000000000000000000000000000000000000000000000000000602082015250565b7f45524332303a207472616e7366657220616d6f756e742065786365656473206260008201527f616c616e63650000000000000000000000000000000000000000000000000000602082015250565b7f45524332303a207472616e7366657220616d6f756e742065786365656473206160008201527f6c6c6f77616e6365000000000000000000000000000000000000000000000000602082015250565b7f45524332303a206275726e20616d6f756e74206578636565647320616c6c6f7760008201527f616e636500000000000000000000000000000000000000000000000000000000602082015250565b7f45524332303a206275726e2066726f6d20746865207a65726f2061646472657360008201527f7300000000000000000000000000000000000000000000000000000000000000602082015250565b7f45524332303a207472616e736665722066726f6d20746865207a65726f20616460008201527f6472657373000000000000000000000000000000000000000000000000000000602082015250565b7f45524332303a20617070726f76652066726f6d20746865207a65726f2061646460008201527f7265737300000000000000000000000000000000000000000000000000000000602082015250565b7f45524332303a2064656372656173656420616c6c6f77616e63652062656c6f7760008201527f207a65726f000000000000000000000000000000000000000000000000000000602082015250565b7f45524332303a206d696e7420746f20746865207a65726f206164647265737300600082015250565b7f53656e646572206e6f7420617574686f72697a65642e00000000000000000000600082015250565b61216881611c4b565b811461217357600080fd5b50565b61217f81611c89565b811461218a57600080fd5b5056fea26469706673582212206f4fab2acd4c454df5908864d93e1f7962b3596bd409e479200c20abfcc6741764736f6c63430008070033",
  "immutableReferences": {},
  "source": "// SPDX-License-Identifier: MIT\npragma solidity ^0.8.0;\n\nimport \"./openzeppelin-contracts/contracts/token/ERC20/ERC20.sol\";\nimport \"./openzeppelin-contracts/contracts/token/ERC20/extensions/ERC20Burnable.sol\";\nimport \"./openzeppelin-contracts/contracts/utils/Context.sol\";\n//import \"./stringUtils.sol\";\n\n/**\n * @title SimpleToken\n * @dev Very simple ERC20 Token example, where all tokens are pre-assigned to the creator.\n * Note they can later distribute these tokens as they wish using `transfer` and other\n * `ERC20` functions.\n */\ncontract xUPC is Context, ERC20, ERC20Burnable {\n\n\n    uint rehash = 3;\n    address private owner;\n    struct Reward {\n        uint256  amount;\n        string  winningHash;\n    }\n    \n    Reward[] public rewards;\n    /**\n     * @dev Constructor that gives _msgSender() all of existing tokens.\n     */\n    constructor () ERC20(\"UPC Matrix\", \"XUPC\") public{\n        _mint(_msgSender(), 10000 * (10 ** uint256(decimals())));\n        owner = msg.sender;\n    }\n    \n    modifier onlyOwner\n    {\n        require(\n            msg.sender == owner,\n            \"Sender not authorized.\"\n        );\n        // Do not forget the \"_;\"! It will\n        // be replaced by the actual function\n        // body when the modifier is used.\n        _;\n    }\n\n    \n    function addReward(uint256 amount, string memory winningHash) public payable onlyOwner {\n        Reward memory newRewreward;\n        newRewreward.amount = amount;\n        newRewreward.winningHash = winningHash;\n        rewards.push(newRewreward);\n    }\n    \n    function clearRewards() public  onlyOwner{\n        delete rewards;\n    }\n    \n\n    function mine () public {\n                _mint(msg.sender, 1 * (10 ** 16));\n                _mint(address(this), 1 * (10 ** 18));\n    }\n    \n}\n",
  "sourcePath": "/home/tenten/Projects/upcgold.io/src/contracts/xUPC.sol",
  "compiler": {
    "name": "solc",
    "version": "0.8.7+commit.e28d00a7.Emscripten.clang"
  },
  "schemaVersion": "3.4.3",
  "updatedAt": "2021-08-20T14:44:45.331Z",
  "networkType": "ethereum",
  "devdoc": {
    "details": "Very simple ERC20 Token example, where all tokens are pre-assigned to the creator. Note they can later distribute these tokens as they wish using `transfer` and other `ERC20` functions.",
    "kind": "dev",
    "methods": {
      "allowance(address,address)": {
        "details": "See {IERC20-allowance}."
      },
      "approve(address,uint256)": {
        "details": "See {IERC20-approve}. Requirements: - `spender` cannot be the zero address."
      },
      "balanceOf(address)": {
        "details": "See {IERC20-balanceOf}."
      },
      "burn(uint256)": {
        "details": "Destroys `amount` tokens from the caller. See {ERC20-_burn}."
      },
      "burnFrom(address,uint256)": {
        "details": "Destroys `amount` tokens from `account`, deducting from the caller's allowance. See {ERC20-_burn} and {ERC20-allowance}. Requirements: - the caller must have allowance for ``accounts``'s tokens of at least `amount`."
      },
      "constructor": {
        "details": "Constructor that gives _msgSender() all of existing tokens."
      },
      "decimals()": {
        "details": "Returns the number of decimals used to get its user representation. For example, if `decimals` equals `2`, a balance of `505` tokens should be displayed to a user as `5.05` (`505 / 10 ** 2`). Tokens usually opt for a value of 18, imitating the relationship between Ether and Wei. This is the value {ERC20} uses, unless this function is overridden; NOTE: This information is only used for _display_ purposes: it in no way affects any of the arithmetic of the contract, including {IERC20-balanceOf} and {IERC20-transfer}."
      },
      "decreaseAllowance(address,uint256)": {
        "details": "Atomically decreases the allowance granted to `spender` by the caller. This is an alternative to {approve} that can be used as a mitigation for problems described in {IERC20-approve}. Emits an {Approval} event indicating the updated allowance. Requirements: - `spender` cannot be the zero address. - `spender` must have allowance for the caller of at least `subtractedValue`."
      },
      "increaseAllowance(address,uint256)": {
        "details": "Atomically increases the allowance granted to `spender` by the caller. This is an alternative to {approve} that can be used as a mitigation for problems described in {IERC20-approve}. Emits an {Approval} event indicating the updated allowance. Requirements: - `spender` cannot be the zero address."
      },
      "name()": {
        "details": "Returns the name of the token."
      },
      "symbol()": {
        "details": "Returns the symbol of the token, usually a shorter version of the name."
      },
      "totalSupply()": {
        "details": "See {IERC20-totalSupply}."
      },
      "transfer(address,uint256)": {
        "details": "See {IERC20-transfer}. Requirements: - `recipient` cannot be the zero address. - the caller must have a balance of at least `amount`."
      },
      "transferFrom(address,address,uint256)": {
        "details": "See {IERC20-transferFrom}. Emits an {Approval} event indicating the updated allowance. This is not required by the EIP. See the note at the beginning of {ERC20}. Requirements: - `sender` and `recipient` cannot be the zero address. - `sender` must have a balance of at least `amount`. - the caller must have allowance for ``sender``'s tokens of at least `amount`."
      }
    },
    "title": "SimpleToken",
    "version": 1
  },
  "userdoc": {
    "kind": "user",
    "methods": {},
    "version": 1
  }
}