{
  "contractName": "MulticallTokenMock",
  "abi": [
    {
      "inputs": [
        {
          "internalType": "uint256",
          "name": "initialBalance",
          "type": "uint256"
        }
      ],
      "stateMutability": "nonpayable",
      "type": "constructor"
    },
    {
      "anonymous": false,
      "inputs": [
        {
          "indexed": true,
          "internalType": "address",
          "name": "owner",
          "type": "address"
        },
        {
          "indexed": true,
          "internalType": "address",
          "name": "spender",
          "type": "address"
        },
        {
          "indexed": false,
          "internalType": "uint256",
          "name": "value",
          "type": "uint256"
        }
      ],
      "name": "Approval",
      "type": "event"
    },
    {
      "anonymous": false,
      "inputs": [
        {
          "indexed": true,
          "internalType": "address",
          "name": "from",
          "type": "address"
        },
        {
          "indexed": true,
          "internalType": "address",
          "name": "to",
          "type": "address"
        },
        {
          "indexed": false,
          "internalType": "uint256",
          "name": "value",
          "type": "uint256"
        }
      ],
      "name": "Transfer",
      "type": "event"
    },
    {
      "inputs": [
        {
          "internalType": "address",
          "name": "owner",
          "type": "address"
        },
        {
          "internalType": "address",
          "name": "spender",
          "type": "address"
        }
      ],
      "name": "allowance",
      "outputs": [
        {
          "internalType": "uint256",
          "name": "",
          "type": "uint256"
        }
      ],
      "stateMutability": "view",
      "type": "function"
    },
    {
      "inputs": [
        {
          "internalType": "address",
          "name": "spender",
          "type": "address"
        },
        {
          "internalType": "uint256",
          "name": "amount",
          "type": "uint256"
        }
      ],
      "name": "approve",
      "outputs": [
        {
          "internalType": "bool",
          "name": "",
          "type": "bool"
        }
      ],
      "stateMutability": "nonpayable",
      "type": "function"
    },
    {
      "inputs": [
        {
          "internalType": "address",
          "name": "owner",
          "type": "address"
        },
        {
          "internalType": "address",
          "name": "spender",
          "type": "address"
        },
        {
          "internalType": "uint256",
          "name": "value",
          "type": "uint256"
        }
      ],
      "name": "approveInternal",
      "outputs": [],
      "stateMutability": "nonpayable",
      "type": "function"
    },
    {
      "inputs": [
        {
          "internalType": "address",
          "name": "account",
          "type": "address"
        }
      ],
      "name": "balanceOf",
      "outputs": [
        {
          "internalType": "uint256",
          "name": "",
          "type": "uint256"
        }
      ],
      "stateMutability": "view",
      "type": "function"
    },
    {
      "inputs": [
        {
          "internalType": "address",
          "name": "account",
          "type": "address"
        },
        {
          "internalType": "uint256",
          "name": "amount",
          "type": "uint256"
        }
      ],
      "name": "burn",
      "outputs": [],
      "stateMutability": "nonpayable",
      "type": "function"
    },
    {
      "inputs": [],
      "name": "decimals",
      "outputs": [
        {
          "internalType": "uint8",
          "name": "",
          "type": "uint8"
        }
      ],
      "stateMutability": "view",
      "type": "function"
    },
    {
      "inputs": [
        {
          "internalType": "address",
          "name": "spender",
          "type": "address"
        },
        {
          "internalType": "uint256",
          "name": "subtractedValue",
          "type": "uint256"
        }
      ],
      "name": "decreaseAllowance",
      "outputs": [
        {
          "internalType": "bool",
          "name": "",
          "type": "bool"
        }
      ],
      "stateMutability": "nonpayable",
      "type": "function"
    },
    {
      "inputs": [
        {
          "internalType": "address",
          "name": "spender",
          "type": "address"
        },
        {
          "internalType": "uint256",
          "name": "addedValue",
          "type": "uint256"
        }
      ],
      "name": "increaseAllowance",
      "outputs": [
        {
          "internalType": "bool",
          "name": "",
          "type": "bool"
        }
      ],
      "stateMutability": "nonpayable",
      "type": "function"
    },
    {
      "inputs": [
        {
          "internalType": "address",
          "name": "account",
          "type": "address"
        },
        {
          "internalType": "uint256",
          "name": "amount",
          "type": "uint256"
        }
      ],
      "name": "mint",
      "outputs": [],
      "stateMutability": "nonpayable",
      "type": "function"
    },
    {
      "inputs": [
        {
          "internalType": "bytes[]",
          "name": "data",
          "type": "bytes[]"
        }
      ],
      "name": "multicall",
      "outputs": [
        {
          "internalType": "bytes[]",
          "name": "results",
          "type": "bytes[]"
        }
      ],
      "stateMutability": "nonpayable",
      "type": "function"
    },
    {
      "inputs": [],
      "name": "name",
      "outputs": [
        {
          "internalType": "string",
          "name": "",
          "type": "string"
        }
      ],
      "stateMutability": "view",
      "type": "function"
    },
    {
      "inputs": [],
      "name": "symbol",
      "outputs": [
        {
          "internalType": "string",
          "name": "",
          "type": "string"
        }
      ],
      "stateMutability": "view",
      "type": "function"
    },
    {
      "inputs": [],
      "name": "totalSupply",
      "outputs": [
        {
          "internalType": "uint256",
          "name": "",
          "type": "uint256"
        }
      ],
      "stateMutability": "view",
      "type": "function"
    },
    {
      "inputs": [
        {
          "internalType": "address",
          "name": "recipient",
          "type": "address"
        },
        {
          "internalType": "uint256",
          "name": "amount",
          "type": "uint256"
        }
      ],
      "name": "transfer",
      "outputs": [
        {
          "internalType": "bool",
          "name": "",
          "type": "bool"
        }
      ],
      "stateMutability": "nonpayable",
      "type": "function"
    },
    {
      "inputs": [
        {
          "internalType": "address",
          "name": "sender",
          "type": "address"
        },
        {
          "internalType": "address",
          "name": "recipient",
          "type": "address"
        },
        {
          "internalType": "uint256",
          "name": "amount",
          "type": "uint256"
        }
      ],
      "name": "transferFrom",
      "outputs": [
        {
          "internalType": "bool",
          "name": "",
          "type": "bool"
        }
      ],
      "stateMutability": "nonpayable",
      "type": "function"
    },
    {
      "inputs": [
        {
          "internalType": "address",
          "name": "from",
          "type": "address"
        },
        {
          "internalType": "address",
          "name": "to",
          "type": "address"
        },
        {
          "internalType": "uint256",
          "name": "value",
          "type": "uint256"
        }
      ],
      "name": "transferInternal",
      "outputs": [],
      "stateMutability": "nonpayable",
      "type": "function"
    }
  ],
  "bytecode": "0x60806040523480156200001157600080fd5b50604051620025bc380380620025bc833981810160405281019062000037919062000342565b6040518060400160405280600e81526020017f4d756c746963616c6c546f6b656e0000000000000000000000000000000000008152506040518060400160405280600381526020017f4243540000000000000000000000000000000000000000000000000000000000815250338383838160039080519060200190620000bf9291906200027b565b508060049080519060200190620000d89291906200027b565b505050620000ed8282620000f860201b60201c565b50505050506200053f565b600073ffffffffffffffffffffffffffffffffffffffff168273ffffffffffffffffffffffffffffffffffffffff1614156200016b576040517f08c379a00000000000000000000000000000000000000000000000000000000081526004016200016290620003ac565b60405180910390fd5b6200017f600083836200027160201b60201c565b8060026000828254620001939190620003fc565b92505081905550806000808473ffffffffffffffffffffffffffffffffffffffff1673ffffffffffffffffffffffffffffffffffffffff1681526020019081526020016000206000828254620001ea9190620003fc565b925050819055508173ffffffffffffffffffffffffffffffffffffffff16600073ffffffffffffffffffffffffffffffffffffffff167fddf252ad1be2c89b69c2b068fc378daa952ba7f163c4a11628f55a4df523b3ef83604051620002519190620003ce565b60405180910390a36200026d600083836200027660201b60201c565b5050565b505050565b505050565b828054620002899062000463565b90600052602060002090601f016020900481019282620002ad5760008555620002f9565b82601f10620002c857805160ff1916838001178555620002f9565b82800160010185558215620002f9579182015b82811115620002f8578251825591602001919060010190620002db565b5b5090506200030891906200030c565b5090565b5b80821115620003275760008160009055506001016200030d565b5090565b6000815190506200033c8162000525565b92915050565b6000602082840312156200035b576200035a620004f7565b5b60006200036b848285016200032b565b91505092915050565b600062000383601f83620003eb565b91506200039082620004fc565b602082019050919050565b620003a68162000459565b82525050565b60006020820190508181036000830152620003c78162000374565b9050919050565b6000602082019050620003e560008301846200039b565b92915050565b600082825260208201905092915050565b6000620004098262000459565b9150620004168362000459565b9250827fffffffffffffffffffffffffffffffffffffffffffffffffffffffffffffffff038211156200044e576200044d62000499565b5b828201905092915050565b6000819050919050565b600060028204905060018216806200047c57607f821691505b60208210811415620004935762000492620004c8565b5b50919050565b7f4e487b7100000000000000000000000000000000000000000000000000000000600052601160045260246000fd5b7f4e487b7100000000000000000000000000000000000000000000000000000000600052602260045260246000fd5b600080fd5b7f45524332303a206d696e7420746f20746865207a65726f206164647265737300600082015250565b620005308162000459565b81146200053c57600080fd5b50565b61206d806200054f6000396000f3fe608060405234801561001057600080fd5b50600436106101005760003560e01c806356189cb411610097578063a457c2d711610066578063a457c2d7146102ad578063a9059cbb146102dd578063ac9650d81461030d578063dd62ed3e1461033d57610100565b806356189cb41461022757806370a082311461024357806395d89b41146102735780639dc29fac1461029157610100565b806323b872dd116100d357806323b872dd1461018d578063313ce567146101bd57806339509351146101db57806340c10f191461020b57610100565b806306fdde0314610105578063095ea7b31461012357806318160ddd14610153578063222f5be014610171575b600080fd5b61010d61036d565b60405161011a919061178a565b60405180910390f35b61013d600480360381019061013891906113cf565b6103ff565b60405161014a919061176f565b60405180910390f35b61015b61041d565b604051610168919061190c565b60405180910390f35b61018b6004803603810190610186919061137c565b610427565b005b6101a760048036038101906101a2919061137c565b610437565b6040516101b4919061176f565b60405180910390f35b6101c561052f565b6040516101d29190611927565b60405180910390f35b6101f560048036038101906101f091906113cf565b610538565b604051610202919061176f565b60405180910390f35b610225600480360381019061022091906113cf565b6105e4565b005b610241600480360381019061023c919061137c565b6105f2565b005b61025d6004803603810190610258919061130f565b610602565b60405161026a919061190c565b60405180910390f35b61027b61064a565b604051610288919061178a565b60405180910390f35b6102ab60048036038101906102a691906113cf565b6106dc565b005b6102c760048036038101906102c291906113cf565b6106ea565b6040516102d4919061176f565b60405180910390f35b6102f760048036038101906102f291906113cf565b6107d5565b604051610304919061176f565b60405180910390f35b6103276004803603810190610322919061140f565b6107f3565b604051610334919061174d565b60405180910390f35b6103576004803603810190610352919061133c565b6108ff565b604051610364919061190c565b60405180910390f35b60606003805461037c90611b33565b80601f01602080910402602001604051908101604052809291908181526020018280546103a890611b33565b80156103f55780601f106103ca576101008083540402835291602001916103f5565b820191906000526020600020905b8154815290600101906020018083116103d857829003601f168201915b5050505050905090565b600061041361040c610986565b848461098e565b6001905092915050565b6000600254905090565b610432838383610b59565b505050565b6000610444848484610b59565b6000600160008673ffffffffffffffffffffffffffffffffffffffff1673ffffffffffffffffffffffffffffffffffffffff168152602001908152602001600020600061048f610986565b73ffffffffffffffffffffffffffffffffffffffff1673ffffffffffffffffffffffffffffffffffffffff1681526020019081526020016000205490508281101561050f576040517f08c379a00000000000000000000000000000000000000000000000000000000081526004016105069061182c565b60405180910390fd5b6105238561051b610986565b85840361098e565b60019150509392505050565b60006012905090565b60006105da610545610986565b848460016000610553610986565b73ffffffffffffffffffffffffffffffffffffffff1673ffffffffffffffffffffffffffffffffffffffff16815260200190815260200160002060008873ffffffffffffffffffffffffffffffffffffffff1673ffffffffffffffffffffffffffffffffffffffff168152602001908152602001600020546105d59190611a21565b61098e565b6001905092915050565b6105ee8282610dda565b5050565b6105fd83838361098e565b505050565b60008060008373ffffffffffffffffffffffffffffffffffffffff1673ffffffffffffffffffffffffffffffffffffffff168152602001908152602001600020549050919050565b60606004805461065990611b33565b80601f016020809104026020016040519081016040528092919081815260200182805461068590611b33565b80156106d25780601f106106a7576101008083540402835291602001916106d2565b820191906000526020600020905b8154815290600101906020018083116106b557829003601f168201915b5050505050905090565b6106e68282610f3a565b5050565b600080600160006106f9610986565b73ffffffffffffffffffffffffffffffffffffffff1673ffffffffffffffffffffffffffffffffffffffff16815260200190815260200160002060008573ffffffffffffffffffffffffffffffffffffffff1673ffffffffffffffffffffffffffffffffffffffff168152602001908152602001600020549050828110156107b6576040517f08c379a00000000000000000000000000000000000000000000000000000000081526004016107ad906118cc565b60405180910390fd5b6107ca6107c1610986565b8585840361098e565b600191505092915050565b60006107e96107e2610986565b8484610b59565b6001905092915050565b60608282905067ffffffffffffffff81111561081257610811611c3b565b5b60405190808252806020026020018201604052801561084557816020015b60608152602001906001900390816108305790505b50905060005b838390508110156108f8576108c73085858481811061086d5761086c611c0c565b5b905060200281019061087f9190611942565b8080601f016020809104026020016040519081016040528093929190818152602001838380828437600081840152601f19601f82011690508083019250505050505050611111565b8282815181106108da576108d9611c0c565b5b602002602001018190525080806108f090611b65565b91505061084b565b5092915050565b6000600160008473ffffffffffffffffffffffffffffffffffffffff1673ffffffffffffffffffffffffffffffffffffffff16815260200190815260200160002060008373ffffffffffffffffffffffffffffffffffffffff1673ffffffffffffffffffffffffffffffffffffffff16815260200190815260200160002054905092915050565b600033905090565b600073ffffffffffffffffffffffffffffffffffffffff168373ffffffffffffffffffffffffffffffffffffffff1614156109fe576040517f08c379a00000000000000000000000000000000000000000000000000000000081526004016109f5906118ac565b60405180910390fd5b600073ffffffffffffffffffffffffffffffffffffffff168273ffffffffffffffffffffffffffffffffffffffff161415610a6e576040517f08c379a0000000000000000000000000000000000000000000000000000000008152600401610a65906117ec565b60405180910390fd5b80600160008573ffffffffffffffffffffffffffffffffffffffff1673ffffffffffffffffffffffffffffffffffffffff16815260200190815260200160002060008473ffffffffffffffffffffffffffffffffffffffff1673ffffffffffffffffffffffffffffffffffffffff168152602001908152602001600020819055508173ffffffffffffffffffffffffffffffffffffffff168373ffffffffffffffffffffffffffffffffffffffff167f8c5be1e5ebec7d5bd14f71427d1e84f3dd0314c0f7b2291e5b200ac8c7c3b92583604051610b4c919061190c565b60405180910390a3505050565b600073ffffffffffffffffffffffffffffffffffffffff168373ffffffffffffffffffffffffffffffffffffffff161415610bc9576040517f08c379a0000000000000000000000000000000000000000000000000000000008152600401610bc09061188c565b60405180910390fd5b600073ffffffffffffffffffffffffffffffffffffffff168273ffffffffffffffffffffffffffffffffffffffff161415610c39576040517f08c379a0000000000000000000000000000000000000000000000000000000008152600401610c30906117ac565b60405180910390fd5b610c4483838361113e565b60008060008573ffffffffffffffffffffffffffffffffffffffff1673ffffffffffffffffffffffffffffffffffffffff16815260200190815260200160002054905081811015610cca576040517f08c379a0000000000000000000000000000000000000000000000000000000008152600401610cc19061180c565b60405180910390fd5b8181036000808673ffffffffffffffffffffffffffffffffffffffff1673ffffffffffffffffffffffffffffffffffffffff16815260200190815260200160002081905550816000808573ffffffffffffffffffffffffffffffffffffffff1673ffffffffffffffffffffffffffffffffffffffff1681526020019081526020016000206000828254610d5d9190611a21565b925050819055508273ffffffffffffffffffffffffffffffffffffffff168473ffffffffffffffffffffffffffffffffffffffff167fddf252ad1be2c89b69c2b068fc378daa952ba7f163c4a11628f55a4df523b3ef84604051610dc1919061190c565b60405180910390a3610dd4848484611143565b50505050565b600073ffffffffffffffffffffffffffffffffffffffff168273ffffffffffffffffffffffffffffffffffffffff161415610e4a576040517f08c379a0000000000000000000000000000000000000000000000000000000008152600401610e41906118ec565b60405180910390fd5b610e566000838361113e565b8060026000828254610e689190611a21565b92505081905550806000808473ffffffffffffffffffffffffffffffffffffffff1673ffffffffffffffffffffffffffffffffffffffff1681526020019081526020016000206000828254610ebd9190611a21565b925050819055508173ffffffffffffffffffffffffffffffffffffffff16600073ffffffffffffffffffffffffffffffffffffffff167fddf252ad1be2c89b69c2b068fc378daa952ba7f163c4a11628f55a4df523b3ef83604051610f22919061190c565b60405180910390a3610f3660008383611143565b5050565b600073ffffffffffffffffffffffffffffffffffffffff168273ffffffffffffffffffffffffffffffffffffffff161415610faa576040517f08c379a0000000000000000000000000000000000000000000000000000000008152600401610fa19061184c565b60405180910390fd5b610fb68260008361113e565b60008060008473ffffffffffffffffffffffffffffffffffffffff1673ffffffffffffffffffffffffffffffffffffffff1681526020019081526020016000205490508181101561103c576040517f08c379a0000000000000000000000000000000000000000000000000000000008152600401611033906117cc565b60405180910390fd5b8181036000808573ffffffffffffffffffffffffffffffffffffffff1673ffffffffffffffffffffffffffffffffffffffff1681526020019081526020016000208190555081600260008282546110939190611a77565b92505081905550600073ffffffffffffffffffffffffffffffffffffffff168373ffffffffffffffffffffffffffffffffffffffff167fddf252ad1be2c89b69c2b068fc378daa952ba7f163c4a11628f55a4df523b3ef846040516110f8919061190c565b60405180910390a361110c83600084611143565b505050565b6060611136838360405180606001604052806027815260200161201160279139611148565b905092915050565b505050565b505050565b606061115384611215565b611192576040517f08c379a00000000000000000000000000000000000000000000000000000000081526004016111899061186c565b60405180910390fd5b6000808573ffffffffffffffffffffffffffffffffffffffff16856040516111ba9190611736565b600060405180830381855af49150503d80600081146111f5576040519150601f19603f3d011682016040523d82523d6000602084013e6111fa565b606091505b509150915061120a828286611228565b925050509392505050565b600080823b905060008111915050919050565b6060831561123857829050611288565b60008351111561124b5782518084602001fd5b816040517f08c379a000000000000000000000000000000000000000000000000000000000815260040161127f919061178a565b60405180910390fd5b9392505050565b60008135905061129e81611fe2565b92915050565b60008083601f8401126112ba576112b9611c6f565b5b8235905067ffffffffffffffff8111156112d7576112d6611c6a565b5b6020830191508360208202830111156112f3576112f2611c7e565b5b9250929050565b60008135905061130981611ff9565b92915050565b60006020828403121561132557611324611c8d565b5b60006113338482850161128f565b91505092915050565b6000806040838503121561135357611352611c8d565b5b60006113618582860161128f565b92505060206113728582860161128f565b9150509250929050565b60008060006060848603121561139557611394611c8d565b5b60006113a38682870161128f565b93505060206113b48682870161128f565b92505060406113c5868287016112fa565b9150509250925092565b600080604083850312156113e6576113e5611c8d565b5b60006113f48582860161128f565b9250506020611405858286016112fa565b9150509250929050565b6000806020838503121561142657611425611c8d565b5b600083013567ffffffffffffffff81111561144457611443611c88565b5b611450858286016112a4565b92509250509250929050565b600061146883836114f4565b905092915050565b600061147b826119b5565b61148581856119e3565b935083602082028501611497856119a5565b8060005b858110156114d357848403895281516114b4858261145c565b94506114bf836119d6565b925060208a0199505060018101905061149b565b50829750879550505050505092915050565b6114ee81611abd565b82525050565b60006114ff826119c0565b61150981856119f4565b9350611519818560208601611b00565b61152281611c92565b840191505092915050565b6000611538826119c0565b6115428185611a05565b9350611552818560208601611b00565b80840191505092915050565b6000611569826119cb565b6115738185611a10565b9350611583818560208601611b00565b61158c81611c92565b840191505092915050565b60006115a4602383611a10565b91506115af82611ca3565b604082019050919050565b60006115c7602283611a10565b91506115d282611cf2565b604082019050919050565b60006115ea602283611a10565b91506115f582611d41565b604082019050919050565b600061160d602683611a10565b915061161882611d90565b604082019050919050565b6000611630602883611a10565b915061163b82611ddf565b604082019050919050565b6000611653602183611a10565b915061165e82611e2e565b604082019050919050565b6000611676602683611a10565b915061168182611e7d565b604082019050919050565b6000611699602583611a10565b91506116a482611ecc565b604082019050919050565b60006116bc602483611a10565b91506116c782611f1b565b604082019050919050565b60006116df602583611a10565b91506116ea82611f6a565b604082019050919050565b6000611702601f83611a10565b915061170d82611fb9565b602082019050919050565b61172181611ae9565b82525050565b61173081611af3565b82525050565b6000611742828461152d565b915081905092915050565b600060208201905081810360008301526117678184611470565b905092915050565b600060208201905061178460008301846114e5565b92915050565b600060208201905081810360008301526117a4818461155e565b905092915050565b600060208201905081810360008301526117c581611597565b9050919050565b600060208201905081810360008301526117e5816115ba565b9050919050565b60006020820190508181036000830152611805816115dd565b9050919050565b6000602082019050818103600083015261182581611600565b9050919050565b6000602082019050818103600083015261184581611623565b9050919050565b6000602082019050818103600083015261186581611646565b9050919050565b6000602082019050818103600083015261188581611669565b9050919050565b600060208201905081810360008301526118a58161168c565b9050919050565b600060208201905081810360008301526118c5816116af565b9050919050565b600060208201905081810360008301526118e5816116d2565b9050919050565b60006020820190508181036000830152611905816116f5565b9050919050565b60006020820190506119216000830184611718565b92915050565b600060208201905061193c6000830184611727565b92915050565b6000808335600160200384360303811261195f5761195e611c79565b5b80840192508235915067ffffffffffffffff82111561198157611980611c74565b5b60208301925060018202360383131561199d5761199c611c83565b5b509250929050565b6000819050602082019050919050565b600081519050919050565b600081519050919050565b600081519050919050565b6000602082019050919050565b600082825260208201905092915050565b600082825260208201905092915050565b600081905092915050565b600082825260208201905092915050565b6000611a2c82611ae9565b9150611a3783611ae9565b9250827fffffffffffffffffffffffffffffffffffffffffffffffffffffffffffffffff03821115611a6c57611a6b611bae565b5b828201905092915050565b6000611a8282611ae9565b9150611a8d83611ae9565b925082821015611aa057611a9f611bae565b5b828203905092915050565b6000611ab682611ac9565b9050919050565b60008115159050919050565b600073ffffffffffffffffffffffffffffffffffffffff82169050919050565b6000819050919050565b600060ff82169050919050565b60005b83811015611b1e578082015181840152602081019050611b03565b83811115611b2d576000848401525b50505050565b60006002820490506001821680611b4b57607f821691505b60208210811415611b5f57611b5e611bdd565b5b50919050565b6000611b7082611ae9565b91507fffffffffffffffffffffffffffffffffffffffffffffffffffffffffffffffff821415611ba357611ba2611bae565b5b600182019050919050565b7f4e487b7100000000000000000000000000000000000000000000000000000000600052601160045260246000fd5b7f4e487b7100000000000000000000000000000000000000000000000000000000600052602260045260246000fd5b7f4e487b7100000000000000000000000000000000000000000000000000000000600052603260045260246000fd5b7f4e487b7100000000000000000000000000000000000000000000000000000000600052604160045260246000fd5b600080fd5b600080fd5b600080fd5b600080fd5b600080fd5b600080fd5b600080fd5b600080fd5b6000601f19601f8301169050919050565b7f45524332303a207472616e7366657220746f20746865207a65726f206164647260008201527f6573730000000000000000000000000000000000000000000000000000000000602082015250565b7f45524332303a206275726e20616d6f756e7420657863656564732062616c616e60008201527f6365000000000000000000000000000000000000000000000000000000000000602082015250565b7f45524332303a20617070726f766520746f20746865207a65726f20616464726560008201527f7373000000000000000000000000000000000000000000000000000000000000602082015250565b7f45524332303a207472616e7366657220616d6f756e742065786365656473206260008201527f616c616e63650000000000000000000000000000000000000000000000000000602082015250565b7f45524332303a207472616e7366657220616d6f756e742065786365656473206160008201527f6c6c6f77616e6365000000000000000000000000000000000000000000000000602082015250565b7f45524332303a206275726e2066726f6d20746865207a65726f2061646472657360008201527f7300000000000000000000000000000000000000000000000000000000000000602082015250565b7f416464726573733a2064656c65676174652063616c6c20746f206e6f6e2d636f60008201527f6e74726163740000000000000000000000000000000000000000000000000000602082015250565b7f45524332303a207472616e736665722066726f6d20746865207a65726f20616460008201527f6472657373000000000000000000000000000000000000000000000000000000602082015250565b7f45524332303a20617070726f76652066726f6d20746865207a65726f2061646460008201527f7265737300000000000000000000000000000000000000000000000000000000602082015250565b7f45524332303a2064656372656173656420616c6c6f77616e63652062656c6f7760008201527f207a65726f000000000000000000000000000000000000000000000000000000602082015250565b7f45524332303a206d696e7420746f20746865207a65726f206164647265737300600082015250565b611feb81611aab565b8114611ff657600080fd5b50565b61200281611ae9565b811461200d57600080fd5b5056fe416464726573733a206c6f772d6c6576656c2064656c65676174652063616c6c206661696c6564a2646970667358221220394fbab43810375e6a2f0ed16cf4a4d93d6c49113867ae92f3a16c603bad79d064736f6c63430008070033",
  "immutableReferences": {},
  "source": "// SPDX-License-Identifier: MIT\n\npragma solidity ^0.8.0;\n\nimport \"../utils/Multicall.sol\";\nimport \"./ERC20Mock.sol\";\n\ncontract MulticallTokenMock is ERC20Mock, Multicall {\n    constructor(uint256 initialBalance) ERC20Mock(\"MulticallToken\", \"BCT\", msg.sender, initialBalance) {}\n}\n",
  "sourcePath": "/home/tenten/Projects/upcgold.io/src/contracts/openzeppelin-contracts/contracts/mocks/MulticallTokenMock.sol",
  "compiler": {
    "name": "solc",
    "version": "0.8.7+commit.e28d00a7.Emscripten.clang"
  },
  "schemaVersion": "3.2.3",
  "updatedAt": "2021-08-12T03:39:31.355Z",
  "devdoc": {
    "kind": "dev",
    "methods": {
      "allowance(address,address)": {
        "details": "See {IERC20-allowance}."
      },
      "approve(address,uint256)": {
        "details": "See {IERC20-approve}. Requirements: - `spender` cannot be the zero address."
      },
      "balanceOf(address)": {
        "details": "See {IERC20-balanceOf}."
      },
      "decimals()": {
        "details": "Returns the number of decimals used to get its user representation. For example, if `decimals` equals `2`, a balance of `505` tokens should be displayed to a user as `5.05` (`505 / 10 ** 2`). Tokens usually opt for a value of 18, imitating the relationship between Ether and Wei. This is the value {ERC20} uses, unless this function is overridden; NOTE: This information is only used for _display_ purposes: it in no way affects any of the arithmetic of the contract, including {IERC20-balanceOf} and {IERC20-transfer}."
      },
      "decreaseAllowance(address,uint256)": {
        "details": "Atomically decreases the allowance granted to `spender` by the caller. This is an alternative to {approve} that can be used as a mitigation for problems described in {IERC20-approve}. Emits an {Approval} event indicating the updated allowance. Requirements: - `spender` cannot be the zero address. - `spender` must have allowance for the caller of at least `subtractedValue`."
      },
      "increaseAllowance(address,uint256)": {
        "details": "Atomically increases the allowance granted to `spender` by the caller. This is an alternative to {approve} that can be used as a mitigation for problems described in {IERC20-approve}. Emits an {Approval} event indicating the updated allowance. Requirements: - `spender` cannot be the zero address."
      },
      "multicall(bytes[])": {
        "details": "Receives and executes a batch of function calls on this contract."
      },
      "name()": {
        "details": "Returns the name of the token."
      },
      "symbol()": {
        "details": "Returns the symbol of the token, usually a shorter version of the name."
      },
      "totalSupply()": {
        "details": "See {IERC20-totalSupply}."
      },
      "transfer(address,uint256)": {
        "details": "See {IERC20-transfer}. Requirements: - `recipient` cannot be the zero address. - the caller must have a balance of at least `amount`."
      },
      "transferFrom(address,address,uint256)": {
        "details": "See {IERC20-transferFrom}. Emits an {Approval} event indicating the updated allowance. This is not required by the EIP. See the note at the beginning of {ERC20}. Requirements: - `sender` and `recipient` cannot be the zero address. - `sender` must have a balance of at least `amount`. - the caller must have allowance for ``sender``'s tokens of at least `amount`."
      }
    },
    "version": 1
  },
  "userdoc": {
    "kind": "user",
    "methods": {},
    "version": 1
  }
}