{
  "contractName": "RewardGranter",
  "abi": [
    {
      "inputs": [],
      "stateMutability": "nonpayable",
      "type": "constructor"
    },
    {
      "anonymous": false,
      "inputs": [
        {
          "indexed": true,
          "internalType": "address",
          "name": "owner",
          "type": "address"
        },
        {
          "indexed": true,
          "internalType": "address",
          "name": "spender",
          "type": "address"
        },
        {
          "indexed": false,
          "internalType": "uint256",
          "name": "value",
          "type": "uint256"
        }
      ],
      "name": "Approval",
      "type": "event"
    },
    {
      "anonymous": false,
      "inputs": [
        {
          "indexed": false,
          "internalType": "address",
          "name": "currentStaker",
          "type": "address"
        },
        {
          "indexed": false,
          "internalType": "uint256",
          "name": "amountStaked",
          "type": "uint256"
        },
        {
          "indexed": false,
          "internalType": "bool",
          "name": "isOwned",
          "type": "bool"
        },
        {
          "indexed": false,
          "internalType": "uint256",
          "name": "lastRewardTimestamp",
          "type": "uint256"
        },
        {
          "indexed": false,
          "internalType": "uint256",
          "name": "stakingStartTimestamp",
          "type": "uint256"
        },
        {
          "indexed": false,
          "internalType": "uint256",
          "name": "rewards",
          "type": "uint256"
        },
        {
          "indexed": false,
          "internalType": "bytes32",
          "name": "upcHash",
          "type": "bytes32"
        }
      ],
      "name": "GrantRewardEvent",
      "type": "event"
    },
    {
      "anonymous": false,
      "inputs": [
        {
          "indexed": true,
          "internalType": "address",
          "name": "from",
          "type": "address"
        },
        {
          "indexed": true,
          "internalType": "address",
          "name": "to",
          "type": "address"
        },
        {
          "indexed": false,
          "internalType": "uint256",
          "name": "value",
          "type": "uint256"
        }
      ],
      "name": "Transfer",
      "type": "event"
    },
    {
      "inputs": [
        {
          "internalType": "address",
          "name": "owner",
          "type": "address"
        },
        {
          "internalType": "address",
          "name": "spender",
          "type": "address"
        }
      ],
      "name": "allowance",
      "outputs": [
        {
          "internalType": "uint256",
          "name": "",
          "type": "uint256"
        }
      ],
      "stateMutability": "view",
      "type": "function"
    },
    {
      "inputs": [
        {
          "internalType": "address",
          "name": "spender",
          "type": "address"
        },
        {
          "internalType": "uint256",
          "name": "amount",
          "type": "uint256"
        }
      ],
      "name": "approve",
      "outputs": [
        {
          "internalType": "bool",
          "name": "",
          "type": "bool"
        }
      ],
      "stateMutability": "nonpayable",
      "type": "function"
    },
    {
      "inputs": [
        {
          "internalType": "address",
          "name": "account",
          "type": "address"
        }
      ],
      "name": "balanceOf",
      "outputs": [
        {
          "internalType": "uint256",
          "name": "",
          "type": "uint256"
        }
      ],
      "stateMutability": "view",
      "type": "function"
    },
    {
      "inputs": [],
      "name": "decimals",
      "outputs": [
        {
          "internalType": "uint8",
          "name": "",
          "type": "uint8"
        }
      ],
      "stateMutability": "view",
      "type": "function"
    },
    {
      "inputs": [
        {
          "internalType": "address",
          "name": "spender",
          "type": "address"
        },
        {
          "internalType": "uint256",
          "name": "subtractedValue",
          "type": "uint256"
        }
      ],
      "name": "decreaseAllowance",
      "outputs": [
        {
          "internalType": "bool",
          "name": "",
          "type": "bool"
        }
      ],
      "stateMutability": "nonpayable",
      "type": "function"
    },
    {
      "inputs": [
        {
          "internalType": "address",
          "name": "spender",
          "type": "address"
        },
        {
          "internalType": "uint256",
          "name": "addedValue",
          "type": "uint256"
        }
      ],
      "name": "increaseAllowance",
      "outputs": [
        {
          "internalType": "bool",
          "name": "",
          "type": "bool"
        }
      ],
      "stateMutability": "nonpayable",
      "type": "function"
    },
    {
      "inputs": [],
      "name": "name",
      "outputs": [
        {
          "internalType": "string",
          "name": "",
          "type": "string"
        }
      ],
      "stateMutability": "view",
      "type": "function"
    },
    {
      "inputs": [],
      "name": "owner",
      "outputs": [
        {
          "internalType": "address",
          "name": "",
          "type": "address"
        }
      ],
      "stateMutability": "view",
      "type": "function"
    },
    {
      "inputs": [
        {
          "internalType": "bytes32",
          "name": "",
          "type": "bytes32"
        }
      ],
      "name": "payouts",
      "outputs": [
        {
          "internalType": "address",
          "name": "currentStaker",
          "type": "address"
        },
        {
          "internalType": "uint256",
          "name": "amountStaked",
          "type": "uint256"
        },
        {
          "internalType": "bool",
          "name": "isOwned",
          "type": "bool"
        },
        {
          "internalType": "uint256",
          "name": "lastRewardTimestamp",
          "type": "uint256"
        },
        {
          "internalType": "uint256",
          "name": "stakingStartTimestamp",
          "type": "uint256"
        },
        {
          "internalType": "uint256",
          "name": "rewards",
          "type": "uint256"
        },
        {
          "internalType": "string",
          "name": "word",
          "type": "string"
        },
        {
          "internalType": "string",
          "name": "gameId",
          "type": "string"
        }
      ],
      "stateMutability": "view",
      "type": "function"
    },
    {
      "inputs": [
        {
          "internalType": "uint256",
          "name": "",
          "type": "uint256"
        }
      ],
      "name": "rewardToScannable",
      "outputs": [
        {
          "internalType": "bytes32",
          "name": "",
          "type": "bytes32"
        }
      ],
      "stateMutability": "view",
      "type": "function"
    },
    {
      "inputs": [],
      "name": "symbol",
      "outputs": [
        {
          "internalType": "string",
          "name": "",
          "type": "string"
        }
      ],
      "stateMutability": "view",
      "type": "function"
    },
    {
      "inputs": [],
      "name": "testVal",
      "outputs": [
        {
          "internalType": "uint256",
          "name": "",
          "type": "uint256"
        }
      ],
      "stateMutability": "view",
      "type": "function"
    },
    {
      "inputs": [],
      "name": "totalSupply",
      "outputs": [
        {
          "internalType": "uint256",
          "name": "",
          "type": "uint256"
        }
      ],
      "stateMutability": "view",
      "type": "function"
    },
    {
      "inputs": [
        {
          "internalType": "address",
          "name": "recipient",
          "type": "address"
        },
        {
          "internalType": "uint256",
          "name": "amount",
          "type": "uint256"
        }
      ],
      "name": "transfer",
      "outputs": [
        {
          "internalType": "bool",
          "name": "",
          "type": "bool"
        }
      ],
      "stateMutability": "nonpayable",
      "type": "function"
    },
    {
      "inputs": [
        {
          "internalType": "address",
          "name": "sender",
          "type": "address"
        },
        {
          "internalType": "address",
          "name": "recipient",
          "type": "address"
        },
        {
          "internalType": "uint256",
          "name": "amount",
          "type": "uint256"
        }
      ],
      "name": "transferFrom",
      "outputs": [
        {
          "internalType": "bool",
          "name": "",
          "type": "bool"
        }
      ],
      "stateMutability": "nonpayable",
      "type": "function"
    },
    {
      "inputs": [],
      "name": "getOwnershipPeroid",
      "outputs": [
        {
          "internalType": "uint256",
          "name": "",
          "type": "uint256"
        }
      ],
      "stateMutability": "view",
      "type": "function"
    },
    {
      "inputs": [
        {
          "internalType": "uint256",
          "name": "duration",
          "type": "uint256"
        }
      ],
      "name": "setOwnershipPeroid",
      "outputs": [],
      "stateMutability": "nonpayable",
      "type": "function"
    },
    {
      "inputs": [],
      "name": "getRewardableScannables",
      "outputs": [
        {
          "internalType": "bytes32[]",
          "name": "",
          "type": "bytes32[]"
        }
      ],
      "stateMutability": "view",
      "type": "function"
    },
    {
      "inputs": [
        {
          "internalType": "address",
          "name": "address1",
          "type": "address"
        }
      ],
      "name": "setBank",
      "outputs": [
        {
          "internalType": "uint256",
          "name": "",
          "type": "uint256"
        }
      ],
      "stateMutability": "nonpayable",
      "type": "function"
    },
    {
      "inputs": [
        {
          "internalType": "bytes32",
          "name": "upcHash",
          "type": "bytes32"
        }
      ],
      "name": "isOwned",
      "outputs": [
        {
          "internalType": "bool",
          "name": "",
          "type": "bool"
        }
      ],
      "stateMutability": "view",
      "type": "function"
    },
    {
      "inputs": [
        {
          "internalType": "bytes32",
          "name": "upcHash",
          "type": "bytes32"
        }
      ],
      "name": "getOwner",
      "outputs": [
        {
          "internalType": "address",
          "name": "",
          "type": "address"
        }
      ],
      "stateMutability": "view",
      "type": "function"
    },
    {
      "inputs": [
        {
          "internalType": "bytes32",
          "name": "upcHash",
          "type": "bytes32"
        }
      ],
      "name": "getPayoutByHash",
      "outputs": [
        {
          "internalType": "address",
          "name": "currentStaker",
          "type": "address"
        },
        {
          "internalType": "uint256",
          "name": "totalBalance",
          "type": "uint256"
        },
        {
          "internalType": "string",
          "name": "upcId",
          "type": "string"
        },
        {
          "internalType": "bool",
          "name": "isOwned",
          "type": "bool"
        },
        {
          "internalType": "uint256",
          "name": "stakingStartTimestamp",
          "type": "uint256"
        },
        {
          "internalType": "uint256",
          "name": "rewards",
          "type": "uint256"
        }
      ],
      "stateMutability": "view",
      "type": "function"
    },
    {
      "inputs": [
        {
          "internalType": "bytes32",
          "name": "upcHash",
          "type": "bytes32"
        },
        {
          "internalType": "string",
          "name": "gameId",
          "type": "string"
        }
      ],
      "name": "addGameToScannable",
      "outputs": [],
      "stateMutability": "nonpayable",
      "type": "function"
    },
    {
      "inputs": [
        {
          "internalType": "bytes32",
          "name": "upcHash",
          "type": "bytes32"
        },
        {
          "internalType": "uint256",
          "name": "totalBalance",
          "type": "uint256"
        },
        {
          "internalType": "string",
          "name": "upcId",
          "type": "string"
        },
        {
          "internalType": "uint256",
          "name": "stakingStartTimestamp",
          "type": "uint256"
        },
        {
          "internalType": "address",
          "name": "currentStaker",
          "type": "address"
        }
      ],
      "name": "addRewardableScannable",
      "outputs": [],
      "stateMutability": "nonpayable",
      "type": "function"
    },
    {
      "inputs": [
        {
          "internalType": "bytes32",
          "name": "upcHash",
          "type": "bytes32"
        }
      ],
      "name": "removeRewardableScannable",
      "outputs": [],
      "stateMutability": "nonpayable",
      "type": "function"
    },
    {
      "inputs": [
        {
          "internalType": "bytes32",
          "name": "upcHash",
          "type": "bytes32"
        }
      ],
      "name": "cashOutRewards",
      "outputs": [],
      "stateMutability": "nonpayable",
      "type": "function"
    },
    {
      "inputs": [
        {
          "internalType": "bytes32",
          "name": "upcHash",
          "type": "bytes32"
        }
      ],
      "name": "getGameIdByHash",
      "outputs": [
        {
          "internalType": "string",
          "name": "",
          "type": "string"
        }
      ],
      "stateMutability": "view",
      "type": "function"
    },
    {
      "inputs": [],
      "name": "grantRewards",
      "outputs": [
        {
          "internalType": "uint256",
          "name": "interestPaid",
          "type": "uint256"
        },
        {
          "internalType": "uint256",
          "name": "addressesPaid",
          "type": "uint256"
        }
      ],
      "stateMutability": "nonpayable",
      "type": "function"
    }
  ],
  "bytecode": "0x60806040526000600755610258600a556000600b60006101000a81548160ff0219169083151502179055503480156200003757600080fd5b506040518060400160405280600781526020017f555043476f6c64000000000000000000000000000000000000000000000000008152506040518060400160405280600481526020017f55504347000000000000000000000000000000000000000000000000000000008152508160039080519060200190620000bc92919062000389565b508060049080519060200190620000d592919062000389565b506012600560006101000a81548160ff021916908360ff160217905550505033600960006101000a81548173ffffffffffffffffffffffffffffffffffffffff021916908373ffffffffffffffffffffffffffffffffffffffff16021790555062000160336200014a6200016660201b60201c565b60ff16600a0a6103e8026200017d60201b60201c565b62000540565b6000600560009054906101000a900460ff16905090565b600073ffffffffffffffffffffffffffffffffffffffff168273ffffffffffffffffffffffffffffffffffffffff161415620001f0576040517f08c379a0000000000000000000000000000000000000000000000000000000008152600401620001e790620004e6565b60405180910390fd5b62000204600083836200032c60201b60201c565b62000220816002546200033160201b6200171e1790919060201c565b6002819055506200027e816000808573ffffffffffffffffffffffffffffffffffffffff1673ffffffffffffffffffffffffffffffffffffffff168152602001908152602001600020546200033160201b6200171e1790919060201c565b6000808473ffffffffffffffffffffffffffffffffffffffff1673ffffffffffffffffffffffffffffffffffffffff168152602001908152602001600020819055508173ffffffffffffffffffffffffffffffffffffffff16600073ffffffffffffffffffffffffffffffffffffffff167fddf252ad1be2c89b69c2b068fc378daa952ba7f163c4a11628f55a4df523b3ef8360405162000320919062000508565b60405180910390a35050565b505050565b6000808284019050838110156200037f576040517f08c379a00000000000000000000000000000000000000000000000000000000081526004016200037690620004c4565b60405180910390fd5b8091505092915050565b828054600181600116156101000203166002900490600052602060002090601f016020900481019282601f10620003cc57805160ff1916838001178555620003fd565b82800160010185558215620003fd579182015b82811115620003fc578251825591602001919060010190620003df565b5b5090506200040c919062000410565b5090565b5b808211156200042b57600081600090555060010162000411565b5090565b60006200043e601b8362000525565b91507f536166654d6174683a206164646974696f6e206f766572666c6f7700000000006000830152602082019050919050565b600062000480601f8362000525565b91507f45524332303a206d696e7420746f20746865207a65726f2061646472657373006000830152602082019050919050565b620004be8162000536565b82525050565b60006020820190508181036000830152620004df816200042f565b9050919050565b60006020820190508181036000830152620005018162000471565b9050919050565b60006020820190506200051f6000830184620004b3565b92915050565b600082825260208201905092915050565b6000819050919050565b61295280620005506000396000f3fe608060405234801561001057600080fd5b50600436106101c45760003560e01c806377001dd6116100f9578063ace4d83011610097578063dd62ed3e11610071578063dd62ed3e14610576578063deb931a2146105a6578063df85461f146105d6578063fe54f4a4146105f2576101c4565b8063ace4d830146104f1578063aeddb90514610521578063b849a8bf14610558576101c4565b806395d89b41116100d357806395d89b411461045757806398edc88b14610475578063a457c2d714610491578063a9059cbb146104c1576101c4565b806377001dd6146103ff5780638da5cb5b1461041d5780638da719031461043b576101c4565b8063313ce56711610166578063463291be11610140578063463291be14610364578063558cb7f7146103805780635ff1a0961461039f57806370a08231146103cf576101c4565b8063313ce567146102e157806334911bf0146102ff5780633950935114610334576101c4565b806318160ddd116101a257806318160ddd1461024757806319d4715e146102655780631f33d35b1461028157806323b872dd146102b1576101c4565b806306fdde03146101c9578063090d23b9146101e7578063095ea7b314610217575b600080fd5b6101d1610610565b6040516101de9190612583565b60405180910390f35b61020160048036038101906101fc9190611e30565b6106b2565b60405161020e91906126a5565b60405180910390f35b610231600480360381019061022c9190611ee4565b610715565b60405161023e919061254d565b60405180910390f35b61024f610733565b60405161025c91906126a5565b60405180910390f35b61027f600480360381019061027a9190611f20565b61073d565b005b61029b60048036038101906102969190611f20565b610740565b6040516102a8919061254d565b60405180910390f35b6102cb60048036038101906102c69190611e95565b61076d565b6040516102d8919061254d565b60405180910390f35b6102e9610846565b6040516102f691906126e9565b60405180910390f35b61031960048036038101906103149190611f20565b61085d565b60405161032b969594939291906124c3565b60405180910390f35b61034e60048036038101906103499190611ee4565b6109cb565b60405161035b919061254d565b60405180910390f35b61037e6004803603810190610379919061202c565b610a7e565b005b610388610b18565b6040516103969291906126c0565b60405180910390f35b6103b960048036038101906103b49190611f20565b610dcf565b6040516103c69190612583565b60405180910390f35b6103e960048036038101906103e49190611e30565b610e87565b6040516103f691906126a5565b60405180910390f35b610407610ecf565b60405161041491906126a5565b60405180910390f35b610425610ed5565b604051610432919061241c565b60405180910390f35b61045560048036038101906104509190611f9d565b610efb565b005b61045f611031565b60405161046c9190612583565b60405180910390f35b61048f600480360381019061048a9190611f49565b6110d3565b005b6104ab60048036038101906104a69190611ee4565b611102565b6040516104b8919061254d565b60405180910390f35b6104db60048036038101906104d69190611ee4565b6111cf565b6040516104e8919061254d565b60405180910390f35b61050b6004803603810190610506919061202c565b6111ed565b6040516105189190612568565b60405180910390f35b61053b60048036038101906105369190611f20565b61120e565b60405161054f989796959493929190612437565b60405180910390f35b6105606113b3565b60405161056d919061252b565b60405180910390f35b610590600480360381019061058b9190611e59565b61140b565b60405161059d91906126a5565b60405180910390f35b6105c060048036038101906105bb9190611f20565b611492565b6040516105cd919061241c565b60405180910390f35b6105f060048036038101906105eb9190611f20565b6114d2565b005b6105fa611714565b60405161060791906126a5565b60405180910390f35b606060038054600181600116156101000203166002900480601f0160208091040260200160405190810160405280929190818152602001828054600181600116156101000203166002900480156106a85780601f1061067d576101008083540402835291602001916106a8565b820191906000526020600020905b81548152906001019060200180831161068b57829003601f168201915b5050505050905090565b600081600b60016101000a81548173ffffffffffffffffffffffffffffffffffffffff021916908373ffffffffffffffffffffffffffffffffffffffff1602179055506001600b60006101000a81548160ff021916908315150217905550919050565b6000610729610722611773565b848461177b565b6001905092915050565b6000600254905090565b50565b60006008600083815260200190815260200160002060020160009054906101000a900460ff169050919050565b600061077a848484611946565b61083b84610786611773565b610836856040518060600160405280602881526020016128d060289139600160008b73ffffffffffffffffffffffffffffffffffffffff1673ffffffffffffffffffffffffffffffffffffffff16815260200190815260200160002060006107ec611773565b73ffffffffffffffffffffffffffffffffffffffff1673ffffffffffffffffffffffffffffffffffffffff16815260200190815260200160002054611bdb9092919063ffffffff16565b61177b565b600190509392505050565b6000600560009054906101000a900460ff16905090565b600080606060008060006008600088815260200190815260200160002060000160009054906101000a900473ffffffffffffffffffffffffffffffffffffffff169550600860008881526020019081526020016000206001015494506008600088815260200190815260200160002060020160009054906101000a900460ff1692506008600088815260200190815260200160002060040154915060086000888152602001908152602001600020600501549050600860008881526020019081526020016000206006018054600181600116156101000203166002900480601f0160208091040260200160405190810160405280929190818152602001828054600181600116156101000203166002900480156109bb5780601f10610990576101008083540402835291602001916109bb565b820191906000526020600020905b81548152906001019060200180831161099e57829003601f168201915b5050505050935091939550919395565b6000610a746109d8611773565b84610a6f85600160006109e9611773565b73ffffffffffffffffffffffffffffffffffffffff1673ffffffffffffffffffffffffffffffffffffffff16815260200190815260200160002060008973ffffffffffffffffffffffffffffffffffffffff1673ffffffffffffffffffffffffffffffffffffffff1681526020019081526020016000205461171e90919063ffffffff16565b61177b565b6001905092915050565b600960009054906101000a900473ffffffffffffffffffffffffffffffffffffffff1673ffffffffffffffffffffffffffffffffffffffff163373ffffffffffffffffffffffffffffffffffffffff1614610b0e576040517f08c379a0000000000000000000000000000000000000000000000000000000008152600401610b0590612685565b60405180910390fd5b80600a8190555050565b600080600960009054906101000a900473ffffffffffffffffffffffffffffffffffffffff1673ffffffffffffffffffffffffffffffffffffffff163373ffffffffffffffffffffffffffffffffffffffff1614610bab576040517f08c379a0000000000000000000000000000000000000000000000000000000008152600401610ba2906125c5565b60405180910390fd5b60005b6001600680549050038111610dca57600060068281548110610bcc57fe5b9060005260206000200154905060008060606000806000610bec8761085d565b9550955095509550955095506000600860008981526020019081526020016000206005015490506000610c1e87611c36565b905060008183019050610c2f611ca3565b89816000019073ffffffffffffffffffffffffffffffffffffffff16908173ffffffffffffffffffffffffffffffffffffffff168152505088816020018181525050600a54864203118015610c88575060001515871515145b15610c9257600196505b8681604001901515908115158152505060004290508082606001818152505080826080018181525050828260a0018181525050888260c0018190525081600860008e815260200190815260200160002060008201518160000160006101000a81548173ffffffffffffffffffffffffffffffffffffffff021916908373ffffffffffffffffffffffffffffffffffffffff1602179055506020820151816001015560408201518160020160006101000a81548160ff021916908315150217905550606082015181600301556080820151816004015560a0820151816005015560c0820151816006019080519060200190610d8d929190611d00565b5060e0820151816007019080519060200190610daa929190611d00565b509050508c9d505050505050505050505050508080600101915050610bae565b509091565b6060600860008381526020019081526020016000206007018054600181600116156101000203166002900480601f016020809104026020016040519081016040528092919081815260200182805460018160011615610100020316600290048015610e7b5780601f10610e5057610100808354040283529160200191610e7b565b820191906000526020600020905b815481529060010190602001808311610e5e57829003601f168201915b50505050509050919050565b60008060008373ffffffffffffffffffffffffffffffffffffffff1673ffffffffffffffffffffffffffffffffffffffff168152602001908152602001600020549050919050565b60075481565b600960009054906101000a900473ffffffffffffffffffffffffffffffffffffffff1681565b60006001905060005b600680549050811015610f425760068181548110610f1e57fe5b9060005260206000200154871415610f3557600091505b8080600101915050610f04565b508015610f735760068690806001815401808255809150506001900390600052602060002001600090919091909150555b816008600088815260200190815260200160002060000160006101000a81548173ffffffffffffffffffffffffffffffffffffffff021916908373ffffffffffffffffffffffffffffffffffffffff16021790555084600860008881526020019081526020016000206001018190555082600860008881526020019081526020016000206004018190555083600860008881526020019081526020016000206006019080519060200190611028929190611d00565b50505050505050565b606060048054600181600116156101000203166002900480601f0160208091040260200160405190810160405280929190818152602001828054600181600116156101000203166002900480156110c95780601f1061109e576101008083540402835291602001916110c9565b820191906000526020600020905b8154815290600101906020018083116110ac57829003601f168201915b5050505050905090565b806008600084815260200190815260200160002060070190805190602001906110fd929190611d00565b505050565b60006111c561110f611773565b846111c0856040518060600160405280602581526020016128f86025913960016000611139611773565b73ffffffffffffffffffffffffffffffffffffffff1673ffffffffffffffffffffffffffffffffffffffff16815260200190815260200160002060008a73ffffffffffffffffffffffffffffffffffffffff1673ffffffffffffffffffffffffffffffffffffffff16815260200190815260200160002054611bdb9092919063ffffffff16565b61177b565b6001905092915050565b60006111e36111dc611773565b8484611946565b6001905092915050565b600681815481106111fa57fe5b906000526020600020016000915090505481565b60086020528060005260406000206000915090508060000160009054906101000a900473ffffffffffffffffffffffffffffffffffffffff16908060010154908060020160009054906101000a900460ff1690806003015490806004015490806005015490806006018054600181600116156101000203166002900480601f01602080910402602001604051908101604052809291908181526020018280546001816001161561010002031660029004801561130b5780601f106112e05761010080835404028352916020019161130b565b820191906000526020600020905b8154815290600101906020018083116112ee57829003601f168201915b505050505090806007018054600181600116156101000203166002900480601f0160208091040260200160405190810160405280929190818152602001828054600181600116156101000203166002900480156113a95780601f1061137e576101008083540402835291602001916113a9565b820191906000526020600020905b81548152906001019060200180831161138c57829003601f168201915b5050505050905088565b6060600680548060200260200160405190810160405280929190818152602001828054801561140157602002820191906000526020600020905b8154815260200190600101908083116113ed575b5050505050905090565b6000600160008473ffffffffffffffffffffffffffffffffffffffff1673ffffffffffffffffffffffffffffffffffffffff16815260200190815260200160002060008373ffffffffffffffffffffffffffffffffffffffff1673ffffffffffffffffffffffffffffffffffffffff16815260200190815260200160002054905092915050565b60006008600083815260200190815260200160002060000160009054906101000a900473ffffffffffffffffffffffffffffffffffffffff169050919050565b60008080600090505b60068054905081101561151c57600681815481106114f557fe5b906000526020600020015484141561150f57600192508091505b80806001019150506114db565b5060006008600085815260200190815260200160002060000160006101000a81548173ffffffffffffffffffffffffffffffffffffffff021916908373ffffffffffffffffffffffffffffffffffffffff1602179055506000600860008581526020019081526020016000206001018190555060006008600085815260200190815260200160002060020160006101000a81548160ff02191690831515021790555060006008600085815260200190815260200160002060030181905550600060086000858152602001908152602001600020600501819055506040518060200160405280600081525060086000858152602001908152602001600020600701908051906020019061162f929190611d00565b5060405180602001604052806000815250600860008581526020019081526020016000206006019080519060200190611669929190611d00565b5060008190505b6001600680549050038110156116c3576006600182018154811061169057fe5b9060005260206000200154600682815481106116a857fe5b90600052602060002001819055508080600101915050611670565b50811561170f576006600160068054905003815481106116df57fe5b906000526020600020016000905560068054806116f857fe5b600190038181906000526020600020016000905590555b505050565b6000600a54905090565b600080828401905083811015611769576040517f08c379a000000000000000000000000000000000000000000000000000000000815260040161176090612605565b60405180910390fd5b8091505092915050565b600033905090565b600073ffffffffffffffffffffffffffffffffffffffff168373ffffffffffffffffffffffffffffffffffffffff1614156117eb576040517f08c379a00000000000000000000000000000000000000000000000000000000081526004016117e290612665565b60405180910390fd5b600073ffffffffffffffffffffffffffffffffffffffff168273ffffffffffffffffffffffffffffffffffffffff16141561185b576040517f08c379a0000000000000000000000000000000000000000000000000000000008152600401611852906125e5565b60405180910390fd5b80600160008573ffffffffffffffffffffffffffffffffffffffff1673ffffffffffffffffffffffffffffffffffffffff16815260200190815260200160002060008473ffffffffffffffffffffffffffffffffffffffff1673ffffffffffffffffffffffffffffffffffffffff168152602001908152602001600020819055508173ffffffffffffffffffffffffffffffffffffffff168373ffffffffffffffffffffffffffffffffffffffff167f8c5be1e5ebec7d5bd14f71427d1e84f3dd0314c0f7b2291e5b200ac8c7c3b9258360405161193991906126a5565b60405180910390a3505050565b600073ffffffffffffffffffffffffffffffffffffffff168373ffffffffffffffffffffffffffffffffffffffff1614156119b6576040517f08c379a00000000000000000000000000000000000000000000000000000000081526004016119ad90612645565b60405180910390fd5b600073ffffffffffffffffffffffffffffffffffffffff168273ffffffffffffffffffffffffffffffffffffffff161415611a26576040517f08c379a0000000000000000000000000000000000000000000000000000000008152600401611a1d906125a5565b60405180910390fd5b611a31838383611c9e565b611a9c816040518060600160405280602681526020016128aa602691396000808773ffffffffffffffffffffffffffffffffffffffff1673ffffffffffffffffffffffffffffffffffffffff16815260200190815260200160002054611bdb9092919063ffffffff16565b6000808573ffffffffffffffffffffffffffffffffffffffff1673ffffffffffffffffffffffffffffffffffffffff16815260200190815260200160002081905550611b2f816000808573ffffffffffffffffffffffffffffffffffffffff1673ffffffffffffffffffffffffffffffffffffffff1681526020019081526020016000205461171e90919063ffffffff16565b6000808473ffffffffffffffffffffffffffffffffffffffff1673ffffffffffffffffffffffffffffffffffffffff168152602001908152602001600020819055508173ffffffffffffffffffffffffffffffffffffffff168373ffffffffffffffffffffffffffffffffffffffff167fddf252ad1be2c89b69c2b068fc378daa952ba7f163c4a11628f55a4df523b3ef83604051611bce91906126a5565b60405180910390a3505050565b6000838311158290611c23576040517f08c379a0000000000000000000000000000000000000000000000000000000008152600401611c1a9190612583565b60405180910390fd5b5060008385039050809150509392505050565b600081612710808481611c4557fe5b040214611c87576040517f08c379a0000000000000000000000000000000000000000000000000000000008152600401611c7e90612625565b60405180910390fd5b6127106102bc830281611c9657fe5b049050919050565b505050565b604051806101000160405280600073ffffffffffffffffffffffffffffffffffffffff1681526020016000815260200160001515815260200160008152602001600081526020016000815260200160608152602001606081525090565b828054600181600116156101000203166002900490600052602060002090601f016020900481019282601f10611d4157805160ff1916838001178555611d6f565b82800160010185558215611d6f579182015b82811115611d6e578251825591602001919060010190611d53565b5b509050611d7c9190611d80565b5090565b5b80821115611d99576000816000905550600101611d81565b5090565b600081359050611dac81612864565b92915050565b600081359050611dc18161287b565b92915050565b600082601f830112611dd857600080fd5b8135611deb611de682612731565b612704565b91508082526020830160208301858383011115611e0757600080fd5b611e12838284612811565b50505092915050565b600081359050611e2a81612892565b92915050565b600060208284031215611e4257600080fd5b6000611e5084828501611d9d565b91505092915050565b60008060408385031215611e6c57600080fd5b6000611e7a85828601611d9d565b9250506020611e8b85828601611d9d565b9150509250929050565b600080600060608486031215611eaa57600080fd5b6000611eb886828701611d9d565b9350506020611ec986828701611d9d565b9250506040611eda86828701611e1b565b9150509250925092565b60008060408385031215611ef757600080fd5b6000611f0585828601611d9d565b9250506020611f1685828601611e1b565b9150509250929050565b600060208284031215611f3257600080fd5b6000611f4084828501611db2565b91505092915050565b60008060408385031215611f5c57600080fd5b6000611f6a85828601611db2565b925050602083013567ffffffffffffffff811115611f8757600080fd5b611f9385828601611dc7565b9150509250929050565b600080600080600060a08688031215611fb557600080fd5b6000611fc388828901611db2565b9550506020611fd488828901611e1b565b945050604086013567ffffffffffffffff811115611ff157600080fd5b611ffd88828901611dc7565b935050606061200e88828901611e1b565b925050608061201f88828901611d9d565b9150509295509295909350565b60006020828403121561203e57600080fd5b600061204c84828501611e1b565b91505092915050565b600061206183836120e9565b60208301905092915050565b612076816127b2565b82525050565b60006120878261276d565b6120918185612790565b935061209c8361275d565b8060005b838110156120cd5781516120b48882612055565b97506120bf83612783565b9250506001810190506120a0565b5085935050505092915050565b6120e3816127c4565b82525050565b6120f2816127d0565b82525050565b612101816127d0565b82525050565b600061211282612778565b61211c81856127a1565b935061212c818560208601612820565b61213581612853565b840191505092915050565b600061214d6023836127a1565b91507f45524332303a207472616e7366657220746f20746865207a65726f206164647260008301527f65737300000000000000000000000000000000000000000000000000000000006020830152604082019050919050565b60006121b3601d836127a1565b91507f556e617574686f72697a656420746f206772616e7420726577617264730000006000830152602082019050919050565b60006121f36022836127a1565b91507f45524332303a20617070726f766520746f20746865207a65726f20616464726560008301527f73730000000000000000000000000000000000000000000000000000000000006020830152604082019050919050565b6000612259601b836127a1565b91507f536166654d6174683a206164646974696f6e206f766572666c6f7700000000006000830152602082019050919050565b60006122996009836127a1565b91507f746f6f20736d616c6c00000000000000000000000000000000000000000000006000830152602082019050919050565b60006122d96025836127a1565b91507f45524332303a207472616e736665722066726f6d20746865207a65726f20616460008301527f64726573730000000000000000000000000000000000000000000000000000006020830152604082019050919050565b600061233f6024836127a1565b91507f45524332303a20617070726f76652066726f6d20746865207a65726f2061646460008301527f72657373000000000000000000000000000000000000000000000000000000006020830152604082019050919050565b60006123a56024836127a1565b91507f556e617574686f72697a656420746f20736574206f776e65727368697020706560008301527f72696f64000000000000000000000000000000000000000000000000000000006020830152604082019050919050565b612407816127fa565b82525050565b61241681612804565b82525050565b6000602082019050612431600083018461206d565b92915050565b60006101008201905061244d600083018b61206d565b61245a602083018a6123fe565b61246760408301896120da565b61247460608301886123fe565b61248160808301876123fe565b61248e60a08301866123fe565b81810360c08301526124a08185612107565b905081810360e08301526124b48184612107565b90509998505050505050505050565b600060c0820190506124d8600083018961206d565b6124e560208301886123fe565b81810360408301526124f78187612107565b905061250660608301866120da565b61251360808301856123fe565b61252060a08301846123fe565b979650505050505050565b60006020820190508181036000830152612545818461207c565b905092915050565b600060208201905061256260008301846120da565b92915050565b600060208201905061257d60008301846120f8565b92915050565b6000602082019050818103600083015261259d8184612107565b905092915050565b600060208201905081810360008301526125be81612140565b9050919050565b600060208201905081810360008301526125de816121a6565b9050919050565b600060208201905081810360008301526125fe816121e6565b9050919050565b6000602082019050818103600083015261261e8161224c565b9050919050565b6000602082019050818103600083015261263e8161228c565b9050919050565b6000602082019050818103600083015261265e816122cc565b9050919050565b6000602082019050818103600083015261267e81612332565b9050919050565b6000602082019050818103600083015261269e81612398565b9050919050565b60006020820190506126ba60008301846123fe565b92915050565b60006040820190506126d560008301856123fe565b6126e260208301846123fe565b9392505050565b60006020820190506126fe600083018461240d565b92915050565b6000604051905081810181811067ffffffffffffffff8211171561272757600080fd5b8060405250919050565b600067ffffffffffffffff82111561274857600080fd5b601f19601f8301169050602081019050919050565b6000819050602082019050919050565b600081519050919050565b600081519050919050565b6000602082019050919050565b600082825260208201905092915050565b600082825260208201905092915050565b60006127bd826127da565b9050919050565b60008115159050919050565b6000819050919050565b600073ffffffffffffffffffffffffffffffffffffffff82169050919050565b6000819050919050565b600060ff82169050919050565b82818337600083830152505050565b60005b8381101561283e578082015181840152602081019050612823565b8381111561284d576000848401525b50505050565b6000601f19601f8301169050919050565b61286d816127b2565b811461287857600080fd5b50565b612884816127d0565b811461288f57600080fd5b50565b61289b816127fa565b81146128a657600080fd5b5056fe45524332303a207472616e7366657220616d6f756e7420657863656564732062616c616e636545524332303a207472616e7366657220616d6f756e74206578636565647320616c6c6f77616e636545524332303a2064656372656173656420616c6c6f77616e63652062656c6f77207a65726fa264697066735822122056318bdca264411ff76d2668aa9ffe0c6ad69439a3ec641ba3bee01c47b028ae64736f6c634300060c0033",
  "immutableReferences": {},
  "source": "//pragma solidity ^0.5.16;\npragma experimental ABIEncoderV2;\npragma solidity ^0.6.2;\nimport \"./ERC20.sol\";\nimport \"./UPCGoldBank.sol\";\n\ncontract RewardGranter is ERC20 {\n\n    //will not remove items from this array.  the rewarding class will loop through and will reward only scannables that have a staker\n    bytes32[] public rewardToScannable;  //the scannables that will recieve the reward for staking\n    uint public testVal = 0;\n    mapping(bytes32 => PayoutMeta)     public payouts;\n    address public owner;\n\n\n    //uint public ownershipWaitingPeriod = 86400;\n    uint private ownershipWaitingPeriod = 600;\n\n\n    //the bank setter can only be called once\n    bool bankPresent = false;\n    UPCGoldBank bank;    \n    \n\n    struct PayoutMeta {\n        address currentStaker;\n        uint amountStaked;\n        bool isOwned;\n        uint lastRewardTimestamp;\n        uint stakingStartTimestamp;\n        uint rewards;\n        string word;\n        string gameId;\n    }\n\n\n    event GrantRewardEvent (\n        address currentStaker,\n        uint amountStaked,\n        bool isOwned,\n        uint lastRewardTimestamp,\n        uint stakingStartTimestamp,\n        uint rewards,\n        bytes32 upcHash\n    );    \n\n    \n    constructor () public ERC20(\"UPCGold\", \"UPCG\") {\n        owner = msg.sender;\n        _mint(msg.sender, 1000 * (10 ** uint256(decimals())));\n    }\n    \n    function getOwnershipPeroid() public view returns (uint) {\n        return ownershipWaitingPeriod;\n    }\n    \n    function setOwnershipPeroid(uint duration) public {\n        require(msg.sender == owner , 'Unauthorized to set ownership period');\n        ownershipWaitingPeriod = duration;\n    }\n    \n    function calculateInterest(uint amount) private pure returns (uint) {\n        require((amount / 10000) * 10000 == amount , 'too small');\n        return amount * 700 / 10000;  //7%\n    }    \n    \n\n    //TODO: access control for this function\n    //returns the array of scannables that are elgible for a reward\n    function getRewardableScannables() public view returns(bytes32[] memory ) {\n        return rewardToScannable;\n    }\n \n    //function can be called once\n    function setBank(address address1) public returns (uint) {\n        bank = UPCGoldBank(address1);\n        bankPresent = true;\n    }\n    \n \n     function isOwned(bytes32 upcHash) public view returns (bool) {\n         return payouts[upcHash].isOwned;\n    }\n    \n    \n    function getOwner(bytes32 upcHash) public view returns (address) {\n         return payouts[upcHash].currentStaker;\n    }\n \n \n     \n    function getPayoutByHash(bytes32 upcHash) public view returns (address currentStaker, uint totalBalance, string memory upcId, bool isOwned, uint stakingStartTimestamp, uint rewards) {\n        currentStaker = payouts[upcHash].currentStaker;\n        totalBalance = payouts[upcHash].amountStaked;\n        isOwned = payouts[upcHash].isOwned;\n        //lastRewardTimestamp = payouts[upcHash].lastRewardTimestamp;\n        stakingStartTimestamp = payouts[upcHash].stakingStartTimestamp;\n        rewards =  payouts[upcHash].rewards;\n        upcId = payouts[upcHash].word;\n    }\n \n \n \n \n \n         //pass the upcHash, total balance, word, starttimestamp, user\n        //rewardGranter.addRewardableScannable(upcHash, balanceReceived[msg.sender].totalBalance, upcId, lm.stakingStartTimestamp, msg.sender);\n\n\n\n\n\n\n    function addGameToScannable(bytes32 upcHash, string memory gameId) public {\n        payouts[upcHash].gameId = gameId;\n    }\n    \n\n\n\n\n\n\n\n    function addRewardableScannable(bytes32 upcHash, uint totalBalance, string memory upcId, uint stakingStartTimestamp, address currentStaker) public {\n        bool doAdd = true;\n        for(uint i=0; i<rewardToScannable.length; i++) {\n            if(upcHash == rewardToScannable[i]) {\n                doAdd=false;\n            }\n        }\n        if(doAdd) {\n            rewardToScannable.push(upcHash);\n        }\n        payouts[upcHash].currentStaker = currentStaker;\n        payouts[upcHash].amountStaked = totalBalance;\n        payouts[upcHash].stakingStartTimestamp = stakingStartTimestamp;\n        payouts[upcHash].word = upcId;\n    }\n    \n    \n    //remove upc from the address to lease structure\n    function removeRewardableScannable(bytes32 upcHash)  public {\n        \n        bool doRemove = false;\n        uint removeIndex;\n        for(uint i=0; i<rewardToScannable.length; i++) {\n            if(upcHash == rewardToScannable[i]) {\n                doRemove=true;\n                removeIndex = i;\n            }\n        }\n        \n        payouts[upcHash].currentStaker = address(0x0);\n        payouts[upcHash].amountStaked = 0;\n        payouts[upcHash].isOwned = false;\n        payouts[upcHash].lastRewardTimestamp = 0;\n        payouts[upcHash].rewards = 0;\n        payouts[upcHash].gameId = \"\";\n        payouts[upcHash].word = \"\";\n\n\n\n        for (uint i = removeIndex; i<rewardToScannable.length-1; i++){\n            rewardToScannable[i] = rewardToScannable[i+1];\n        }\n        \n        if(doRemove) {\n            delete rewardToScannable[rewardToScannable.length-1];\n            rewardToScannable.pop();   \n        }\n\n    }\n\n\n \n \n    function cashOutRewards(bytes32 upcHash) public {\n        /*\n        (address currentStaker, uint amountStaked, bool isOwned, , , ,string memory word) = bank.getScannable(upcHash);\n        \n        require( currentStaker == msg.sender, 'Must own scannable code before cashing out rewards.');\n        require( isOwned == true, 'Must own scannable code before cashing out rewards.');\n\n        address payable _to = msg.sender;\n        uint payoutAmount = payouts[upcHash].rewards;\n        \n        //reset the rewards\n        payouts[upcHash].rewards = 0;\n        \n        _mint(_to, payoutAmount);\n        */\n    }\n   \n   \n   \n   function getGameIdByHash(bytes32 upcHash) public view returns(string memory) {\n       return payouts[upcHash].gameId;\n   }\n\n\n    function grantRewards() public returns(uint interestPaid, uint addressesPaid) {\n        require(msg.sender == owner , 'Unauthorized to grant rewards');\n\n        for (uint i = 0; i<=rewardToScannable.length-1; i++) {\n            bytes32 upcHash = rewardToScannable[i];\n            (address currentStaker, uint amountStaked, string memory word, bool isOwned, uint stakingStartTimestamp, uint rewards) = getPayoutByHash(upcHash);\n            uint currentReward = payouts[upcHash].rewards;\n            uint cycleInterestPayment = calculateInterest(amountStaked);\n            uint newInterestAmount = currentReward + cycleInterestPayment;\n\n            PayoutMeta memory pm;\n            \n            pm.currentStaker = currentStaker;\n            pm.amountStaked = amountStaked;\n            \n            \n            if( (now - stakingStartTimestamp > ownershipWaitingPeriod) && (isOwned==false)) {\n                isOwned = true;\n            }\n            \n            pm.isOwned = isOwned;\n            uint currentTimestamp = now;\n            pm.lastRewardTimestamp = currentTimestamp;\n            pm.stakingStartTimestamp = currentTimestamp;\n            pm.rewards = newInterestAmount;\n            pm.word = word;\n\n            payouts[upcHash] = pm;\n            //emit GrantRewardEvent(currentStaker, amountStaked, isOwned, currentTimestamp, currentTimestamp, newInterestAmount, upcHash);\n            //interestPaid += newInterestAmount;\n            addressesPaid = i;\n        }\n    }   \n\n}\n",
  "sourcePath": "/home/tenten/Projects/upcgold.io_slideshow_view/src/contracts/RewardGranter.sol",
  "compiler": {
    "name": "solc",
    "version": "0.6.12+commit.27d51765.Emscripten.clang"
  },
  "schemaVersion": "3.2.3",
  "updatedAt": "2021-07-14T20:07:56.796Z",
  "networkType": "ethereum",
  "devdoc": {
    "kind": "dev",
    "methods": {
      "allowance(address,address)": {
        "details": "See {IERC20-allowance}."
      },
      "approve(address,uint256)": {
        "details": "See {IERC20-approve}. Requirements: - `spender` cannot be the zero address."
      },
      "balanceOf(address)": {
        "details": "See {IERC20-balanceOf}."
      },
      "decimals()": {
        "details": "Returns the number of decimals used to get its user representation. For example, if `decimals` equals `2`, a balance of `505` tokens should be displayed to a user as `5,05` (`505 / 10 ** 2`). Tokens usually opt for a value of 18, imitating the relationship between Ether and Wei. This is the value {ERC20} uses, unless {_setupDecimals} is called. NOTE: This information is only used for _display_ purposes: it in no way affects any of the arithmetic of the contract, including {IERC20-balanceOf} and {IERC20-transfer}."
      },
      "decreaseAllowance(address,uint256)": {
        "details": "Atomically decreases the allowance granted to `spender` by the caller. This is an alternative to {approve} that can be used as a mitigation for problems described in {IERC20-approve}. Emits an {Approval} event indicating the updated allowance. Requirements: - `spender` cannot be the zero address. - `spender` must have allowance for the caller of at least `subtractedValue`."
      },
      "increaseAllowance(address,uint256)": {
        "details": "Atomically increases the allowance granted to `spender` by the caller. This is an alternative to {approve} that can be used as a mitigation for problems described in {IERC20-approve}. Emits an {Approval} event indicating the updated allowance. Requirements: - `spender` cannot be the zero address."
      },
      "name()": {
        "details": "Returns the name of the token."
      },
      "symbol()": {
        "details": "Returns the symbol of the token, usually a shorter version of the name."
      },
      "totalSupply()": {
        "details": "See {IERC20-totalSupply}."
      },
      "transfer(address,uint256)": {
        "details": "See {IERC20-transfer}. Requirements: - `recipient` cannot be the zero address. - the caller must have a balance of at least `amount`."
      },
      "transferFrom(address,address,uint256)": {
        "details": "See {IERC20-transferFrom}. Emits an {Approval} event indicating the updated allowance. This is not required by the EIP. See the note at the beginning of {ERC20}. Requirements: - `sender` and `recipient` cannot be the zero address. - `sender` must have a balance of at least `amount`. - the caller must have allowance for ``sender``'s tokens of at least `amount`."
      }
    },
    "version": 1
  },
  "userdoc": {
    "kind": "user",
    "methods": {},
    "version": 1
  }
}