{
  "contractName": "SafeCastMock",
  "abi": [
    {
      "inputs": [
        {
          "internalType": "int256",
          "name": "a",
          "type": "int256"
        }
      ],
      "name": "toUint256",
      "outputs": [
        {
          "internalType": "uint256",
          "name": "",
          "type": "uint256"
        }
      ],
      "stateMutability": "pure",
      "type": "function"
    },
    {
      "inputs": [
        {
          "internalType": "uint256",
          "name": "a",
          "type": "uint256"
        }
      ],
      "name": "toUint224",
      "outputs": [
        {
          "internalType": "uint224",
          "name": "",
          "type": "uint224"
        }
      ],
      "stateMutability": "pure",
      "type": "function"
    },
    {
      "inputs": [
        {
          "internalType": "uint256",
          "name": "a",
          "type": "uint256"
        }
      ],
      "name": "toUint128",
      "outputs": [
        {
          "internalType": "uint128",
          "name": "",
          "type": "uint128"
        }
      ],
      "stateMutability": "pure",
      "type": "function"
    },
    {
      "inputs": [
        {
          "internalType": "uint256",
          "name": "a",
          "type": "uint256"
        }
      ],
      "name": "toUint96",
      "outputs": [
        {
          "internalType": "uint96",
          "name": "",
          "type": "uint96"
        }
      ],
      "stateMutability": "pure",
      "type": "function"
    },
    {
      "inputs": [
        {
          "internalType": "uint256",
          "name": "a",
          "type": "uint256"
        }
      ],
      "name": "toUint64",
      "outputs": [
        {
          "internalType": "uint64",
          "name": "",
          "type": "uint64"
        }
      ],
      "stateMutability": "pure",
      "type": "function"
    },
    {
      "inputs": [
        {
          "internalType": "uint256",
          "name": "a",
          "type": "uint256"
        }
      ],
      "name": "toUint32",
      "outputs": [
        {
          "internalType": "uint32",
          "name": "",
          "type": "uint32"
        }
      ],
      "stateMutability": "pure",
      "type": "function"
    },
    {
      "inputs": [
        {
          "internalType": "uint256",
          "name": "a",
          "type": "uint256"
        }
      ],
      "name": "toUint16",
      "outputs": [
        {
          "internalType": "uint16",
          "name": "",
          "type": "uint16"
        }
      ],
      "stateMutability": "pure",
      "type": "function"
    },
    {
      "inputs": [
        {
          "internalType": "uint256",
          "name": "a",
          "type": "uint256"
        }
      ],
      "name": "toUint8",
      "outputs": [
        {
          "internalType": "uint8",
          "name": "",
          "type": "uint8"
        }
      ],
      "stateMutability": "pure",
      "type": "function"
    },
    {
      "inputs": [
        {
          "internalType": "uint256",
          "name": "a",
          "type": "uint256"
        }
      ],
      "name": "toInt256",
      "outputs": [
        {
          "internalType": "int256",
          "name": "",
          "type": "int256"
        }
      ],
      "stateMutability": "pure",
      "type": "function"
    },
    {
      "inputs": [
        {
          "internalType": "int256",
          "name": "a",
          "type": "int256"
        }
      ],
      "name": "toInt128",
      "outputs": [
        {
          "internalType": "int128",
          "name": "",
          "type": "int128"
        }
      ],
      "stateMutability": "pure",
      "type": "function"
    },
    {
      "inputs": [
        {
          "internalType": "int256",
          "name": "a",
          "type": "int256"
        }
      ],
      "name": "toInt64",
      "outputs": [
        {
          "internalType": "int64",
          "name": "",
          "type": "int64"
        }
      ],
      "stateMutability": "pure",
      "type": "function"
    },
    {
      "inputs": [
        {
          "internalType": "int256",
          "name": "a",
          "type": "int256"
        }
      ],
      "name": "toInt32",
      "outputs": [
        {
          "internalType": "int32",
          "name": "",
          "type": "int32"
        }
      ],
      "stateMutability": "pure",
      "type": "function"
    },
    {
      "inputs": [
        {
          "internalType": "int256",
          "name": "a",
          "type": "int256"
        }
      ],
      "name": "toInt16",
      "outputs": [
        {
          "internalType": "int16",
          "name": "",
          "type": "int16"
        }
      ],
      "stateMutability": "pure",
      "type": "function"
    },
    {
      "inputs": [
        {
          "internalType": "int256",
          "name": "a",
          "type": "int256"
        }
      ],
      "name": "toInt8",
      "outputs": [
        {
          "internalType": "int8",
          "name": "",
          "type": "int8"
        }
      ],
      "stateMutability": "pure",
      "type": "function"
    }
  ],
  "bytecode": "0x608060405234801561001057600080fd5b50611385806100206000396000f3fe608060405234801561001057600080fd5b50600436106100ea5760003560e01c8063c81932551161008c578063dd2a031611610066578063dd2a0316146102cf578063dfbe873b146102ff578063f136dc021461032f578063fdcf791b1461035f576100ea565b8063c81932551461023f578063cf65b4d31461026f578063d6bd32aa1461029f576100ea565b80635bb79860116100c85780635bb798601461017f578063809fdd33146101af5780639374068f146101df5780639c6f59be1461020f576100ea565b80630cc4681e146100ef5780631cf887fc1461011f5780632665fad01461014f575b600080fd5b61010960048036038101906101049190610aa6565b61038f565b6040516101169190610f44565b60405180910390f35b61013960048036038101906101349190610aa6565b6103a1565b6040516101469190610f5f565b60405180910390f35b61016960048036038101906101649190610aa6565b6103b3565b6040516101769190610f29565b60405180910390f35b61019960048036038101906101949190610aa6565b6103c5565b6040516101a69190610ed8565b60405180910390f35b6101c960048036038101906101c49190610aa6565b6103d7565b6040516101d69190610ea2565b60405180910390f35b6101f960048036038101906101f49190610aa6565b6103e9565b6040516102069190610ebd565b60405180910390f35b61022960048036038101906102249190610a79565b6103fb565b6040516102369190610d31565b60405180910390f35b61025960048036038101906102549190610aa6565b61040d565b6040516102669190610f0e565b60405180910390f35b61028960048036038101906102849190610a79565b61041f565b6040516102969190610cfb565b60405180910390f35b6102b960048036038101906102b49190610a79565b610431565b6040516102c69190610d4c565b60405180910390f35b6102e960048036038101906102e49190610a79565b610443565b6040516102f69190610ce0565b60405180910390f35b61031960048036038101906103149190610aa6565b610455565b6040516103269190610d16565b60405180910390f35b61034960048036038101906103449190610a79565b610467565b6040516103569190610d67565b60405180910390f35b61037960048036038101906103749190610a79565b610479565b6040516103869190610ef3565b60405180910390f35b600061039a8261048b565b9050919050565b60006103ac826104db565b9050919050565b60006103be82610536565b9050919050565b60006103d08261058d565b9050919050565b60006103e2826105f8565b9050919050565b60006103f482610657565b9050919050565b6000610406826106a8565b9050919050565b60006104188261072b565b9050919050565b600061042a8261077e565b9050919050565b600061043c826107ff565b9050919050565b600061044e82610886565b9050919050565b600061046082610915565b9050919050565b600061047282610982565b9050919050565b600061048482610a02565b9050919050565b600060ff80168211156104d3576040517f08c379a00000000000000000000000000000000000000000000000000000000081526004016104ca90610dc2565b60405180910390fd5b819050919050565b60006bffffffffffffffffffffffff801682111561052e576040517f08c379a000000000000000000000000000000000000000000000000000000000815260040161052590610d82565b60405180910390fd5b819050919050565b600067ffffffffffffffff8016821115610585576040517f08c379a000000000000000000000000000000000000000000000000000000000815260040161057c90610e22565b60405180910390fd5b819050919050565b60007bffffffffffffffffffffffffffffffffffffffffffffffffffffffff80168211156105f0576040517f08c379a00000000000000000000000000000000000000000000000000000000081526004016105e790610e42565b60405180910390fd5b819050919050565b60006fffffffffffffffffffffffffffffffff801682111561064f576040517f08c379a000000000000000000000000000000000000000000000000000000000815260040161064690610de2565b60405180910390fd5b819050919050565b600061ffff80168211156106a0576040517f08c379a000000000000000000000000000000000000000000000000000000000815260040161069790610da2565b60405180910390fd5b819050919050565b60007fffffffffffffffffffffffffffffffffffffffffffffffffffffffff8000000060030b82121580156106e45750637fffffff60030b8213155b610723576040517f08c379a000000000000000000000000000000000000000000000000000000000815260040161071a90610e62565b60405180910390fd5b819050919050565b600063ffffffff8016821115610776576040517f08c379a000000000000000000000000000000000000000000000000000000000815260040161076d90610e62565b60405180910390fd5b819050919050565b60007fffffffffffffffffffffffffffffffffffffffffffffffffffffffffffff800060010b82121580156107b85750617fff60010b8213155b6107f7576040517f08c379a00000000000000000000000000000000000000000000000000000000081526004016107ee90610da2565b60405180910390fd5b819050919050565b60007fffffffffffffffffffffffffffffffffffffffffffffffff800000000000000060070b821215801561083f5750677fffffffffffffff60070b8213155b61087e576040517f08c379a000000000000000000000000000000000000000000000000000000000815260040161087590610e22565b60405180910390fd5b819050919050565b60007fffffffffffffffffffffffffffffffff80000000000000000000000000000000600f0b82121580156108ce57506f7fffffffffffffffffffffffffffffff600f0b8213155b61090d576040517f08c379a000000000000000000000000000000000000000000000000000000000815260040161090490610de2565b60405180910390fd5b819050919050565b60007f7fffffffffffffffffffffffffffffffffffffffffffffffffffffffffffffff82111561097a576040517f08c379a000000000000000000000000000000000000000000000000000000000815260040161097190610e82565b60405180910390fd5b819050919050565b60007fffffffffffffffffffffffffffffffffffffffffffffffffffffffffffffff8060000b82121580156109bb5750607f60000b8213155b6109fa576040517f08c379a00000000000000000000000000000000000000000000000000000000081526004016109f190610dc2565b60405180910390fd5b819050919050565b600080821215610a47576040517f08c379a0000000000000000000000000000000000000000000000000000000008152600401610a3e90610e02565b60405180910390fd5b819050919050565b600081359050610a5e81611321565b92915050565b600081359050610a7381611338565b92915050565b600060208284031215610a8f57610a8e61107b565b5b6000610a9d84828501610a4f565b91505092915050565b600060208284031215610abc57610abb61107b565b5b6000610aca84828501610a64565b91505092915050565b610adc81610f8b565b82525050565b610aeb81610f98565b82525050565b610afa81610fa5565b82525050565b610b0981610faf565b82525050565b610b1881610fbc565b82525050565b610b2781610fc9565b82525050565b6000610b3a602683610f7a565b9150610b4582611080565b604082019050919050565b6000610b5d602683610f7a565b9150610b68826110cf565b604082019050919050565b6000610b80602583610f7a565b9150610b8b8261111e565b604082019050919050565b6000610ba3602783610f7a565b9150610bae8261116d565b604082019050919050565b6000610bc6602083610f7a565b9150610bd1826111bc565b602082019050919050565b6000610be9602683610f7a565b9150610bf4826111e5565b604082019050919050565b6000610c0c602783610f7a565b9150610c1782611234565b604082019050919050565b6000610c2f602683610f7a565b9150610c3a82611283565b604082019050919050565b6000610c52602883610f7a565b9150610c5d826112d2565b604082019050919050565b610c7181610fd6565b82525050565b610c8081610ff2565b82525050565b610c8f81611000565b82525050565b610c9e81611028565b82525050565b610cad81611032565b82525050565b610cbc81611042565b82525050565b610ccb81611056565b82525050565b610cda81611063565b82525050565b6000602082019050610cf56000830184610ad3565b92915050565b6000602082019050610d106000830184610ae2565b92915050565b6000602082019050610d2b6000830184610af1565b92915050565b6000602082019050610d466000830184610b00565b92915050565b6000602082019050610d616000830184610b0f565b92915050565b6000602082019050610d7c6000830184610b1e565b92915050565b60006020820190508181036000830152610d9b81610b2d565b9050919050565b60006020820190508181036000830152610dbb81610b50565b9050919050565b60006020820190508181036000830152610ddb81610b73565b9050919050565b60006020820190508181036000830152610dfb81610b96565b9050919050565b60006020820190508181036000830152610e1b81610bb9565b9050919050565b60006020820190508181036000830152610e3b81610bdc565b9050919050565b60006020820190508181036000830152610e5b81610bff565b9050919050565b60006020820190508181036000830152610e7b81610c22565b9050919050565b60006020820190508181036000830152610e9b81610c45565b9050919050565b6000602082019050610eb76000830184610c68565b92915050565b6000602082019050610ed26000830184610c77565b92915050565b6000602082019050610eed6000830184610c86565b92915050565b6000602082019050610f086000830184610c95565b92915050565b6000602082019050610f236000830184610ca4565b92915050565b6000602082019050610f3e6000830184610cb3565b92915050565b6000602082019050610f596000830184610cc2565b92915050565b6000602082019050610f746000830184610cd1565b92915050565b600082825260208201905092915050565b600081600f0b9050919050565b60008160010b9050919050565b6000819050919050565b60008160030b9050919050565b60008160070b9050919050565b60008160000b9050919050565b60006fffffffffffffffffffffffffffffffff82169050919050565b600061ffff82169050919050565b60007bffffffffffffffffffffffffffffffffffffffffffffffffffffffff82169050919050565b6000819050919050565b600063ffffffff82169050919050565b600067ffffffffffffffff82169050919050565b600060ff82169050919050565b60006bffffffffffffffffffffffff82169050919050565b600080fd5b7f53616665436173743a2076616c756520646f65736e27742066697420696e203960008201527f3620626974730000000000000000000000000000000000000000000000000000602082015250565b7f53616665436173743a2076616c756520646f65736e27742066697420696e203160008201527f3620626974730000000000000000000000000000000000000000000000000000602082015250565b7f53616665436173743a2076616c756520646f65736e27742066697420696e203860008201527f2062697473000000000000000000000000000000000000000000000000000000602082015250565b7f53616665436173743a2076616c756520646f65736e27742066697420696e203160008201527f3238206269747300000000000000000000000000000000000000000000000000602082015250565b7f53616665436173743a2076616c7565206d75737420626520706f736974697665600082015250565b7f53616665436173743a2076616c756520646f65736e27742066697420696e203660008201527f3420626974730000000000000000000000000000000000000000000000000000602082015250565b7f53616665436173743a2076616c756520646f65736e27742066697420696e203260008201527f3234206269747300000000000000000000000000000000000000000000000000602082015250565b7f53616665436173743a2076616c756520646f65736e27742066697420696e203360008201527f3220626974730000000000000000000000000000000000000000000000000000602082015250565b7f53616665436173743a2076616c756520646f65736e27742066697420696e206160008201527f6e20696e74323536000000000000000000000000000000000000000000000000602082015250565b61132a81610fa5565b811461133557600080fd5b50565b61134181611028565b811461134c57600080fd5b5056fea26469706673582212203ef0d7d7b5bed7d1766a26279d9851d669e4d9435df7ec9fd5733cf25e2b305c64736f6c63430008070033",
  "immutableReferences": {},
  "source": "// SPDX-License-Identifier: MIT\n\npragma solidity ^0.8.0;\n\nimport \"../utils/math/SafeCast.sol\";\n\ncontract SafeCastMock {\n    using SafeCast for uint256;\n    using SafeCast for int256;\n\n    function toUint256(int256 a) public pure returns (uint256) {\n        return a.toUint256();\n    }\n\n    function toUint224(uint256 a) public pure returns (uint224) {\n        return a.toUint224();\n    }\n\n    function toUint128(uint256 a) public pure returns (uint128) {\n        return a.toUint128();\n    }\n\n    function toUint96(uint256 a) public pure returns (uint96) {\n        return a.toUint96();\n    }\n\n    function toUint64(uint256 a) public pure returns (uint64) {\n        return a.toUint64();\n    }\n\n    function toUint32(uint256 a) public pure returns (uint32) {\n        return a.toUint32();\n    }\n\n    function toUint16(uint256 a) public pure returns (uint16) {\n        return a.toUint16();\n    }\n\n    function toUint8(uint256 a) public pure returns (uint8) {\n        return a.toUint8();\n    }\n\n    function toInt256(uint256 a) public pure returns (int256) {\n        return a.toInt256();\n    }\n\n    function toInt128(int256 a) public pure returns (int128) {\n        return a.toInt128();\n    }\n\n    function toInt64(int256 a) public pure returns (int64) {\n        return a.toInt64();\n    }\n\n    function toInt32(int256 a) public pure returns (int32) {\n        return a.toInt32();\n    }\n\n    function toInt16(int256 a) public pure returns (int16) {\n        return a.toInt16();\n    }\n\n    function toInt8(int256 a) public pure returns (int8) {\n        return a.toInt8();\n    }\n}\n",
  "sourcePath": "/home/tenten/Projects/upcgold.io/src/contracts/openzeppelin-contracts/contracts/mocks/SafeCastMock.sol",
  "compiler": {
    "name": "solc",
    "version": "0.8.7+commit.e28d00a7.Emscripten.clang"
  },
  "schemaVersion": "3.2.3",
  "updatedAt": "2021-08-12T03:39:31.384Z",
  "devdoc": {
    "kind": "dev",
    "methods": {},
    "version": 1
  },
  "userdoc": {
    "kind": "user",
    "methods": {},
    "version": 1
  }
}