{
  "contractName": "SafeMathMock",
  "abi": [
    {
      "inputs": [
        {
          "internalType": "uint256",
          "name": "a",
          "type": "uint256"
        },
        {
          "internalType": "uint256",
          "name": "b",
          "type": "uint256"
        }
      ],
      "name": "tryAdd",
      "outputs": [
        {
          "internalType": "bool",
          "name": "flag",
          "type": "bool"
        },
        {
          "internalType": "uint256",
          "name": "value",
          "type": "uint256"
        }
      ],
      "stateMutability": "pure",
      "type": "function"
    },
    {
      "inputs": [
        {
          "internalType": "uint256",
          "name": "a",
          "type": "uint256"
        },
        {
          "internalType": "uint256",
          "name": "b",
          "type": "uint256"
        }
      ],
      "name": "trySub",
      "outputs": [
        {
          "internalType": "bool",
          "name": "flag",
          "type": "bool"
        },
        {
          "internalType": "uint256",
          "name": "value",
          "type": "uint256"
        }
      ],
      "stateMutability": "pure",
      "type": "function"
    },
    {
      "inputs": [
        {
          "internalType": "uint256",
          "name": "a",
          "type": "uint256"
        },
        {
          "internalType": "uint256",
          "name": "b",
          "type": "uint256"
        }
      ],
      "name": "tryMul",
      "outputs": [
        {
          "internalType": "bool",
          "name": "flag",
          "type": "bool"
        },
        {
          "internalType": "uint256",
          "name": "value",
          "type": "uint256"
        }
      ],
      "stateMutability": "pure",
      "type": "function"
    },
    {
      "inputs": [
        {
          "internalType": "uint256",
          "name": "a",
          "type": "uint256"
        },
        {
          "internalType": "uint256",
          "name": "b",
          "type": "uint256"
        }
      ],
      "name": "tryDiv",
      "outputs": [
        {
          "internalType": "bool",
          "name": "flag",
          "type": "bool"
        },
        {
          "internalType": "uint256",
          "name": "value",
          "type": "uint256"
        }
      ],
      "stateMutability": "pure",
      "type": "function"
    },
    {
      "inputs": [
        {
          "internalType": "uint256",
          "name": "a",
          "type": "uint256"
        },
        {
          "internalType": "uint256",
          "name": "b",
          "type": "uint256"
        }
      ],
      "name": "tryMod",
      "outputs": [
        {
          "internalType": "bool",
          "name": "flag",
          "type": "bool"
        },
        {
          "internalType": "uint256",
          "name": "value",
          "type": "uint256"
        }
      ],
      "stateMutability": "pure",
      "type": "function"
    },
    {
      "inputs": [
        {
          "internalType": "uint256",
          "name": "a",
          "type": "uint256"
        },
        {
          "internalType": "uint256",
          "name": "b",
          "type": "uint256"
        }
      ],
      "name": "doAdd",
      "outputs": [
        {
          "internalType": "uint256",
          "name": "",
          "type": "uint256"
        }
      ],
      "stateMutability": "pure",
      "type": "function"
    },
    {
      "inputs": [
        {
          "internalType": "uint256",
          "name": "a",
          "type": "uint256"
        },
        {
          "internalType": "uint256",
          "name": "b",
          "type": "uint256"
        }
      ],
      "name": "doSub",
      "outputs": [
        {
          "internalType": "uint256",
          "name": "",
          "type": "uint256"
        }
      ],
      "stateMutability": "pure",
      "type": "function"
    },
    {
      "inputs": [
        {
          "internalType": "uint256",
          "name": "a",
          "type": "uint256"
        },
        {
          "internalType": "uint256",
          "name": "b",
          "type": "uint256"
        }
      ],
      "name": "doMul",
      "outputs": [
        {
          "internalType": "uint256",
          "name": "",
          "type": "uint256"
        }
      ],
      "stateMutability": "pure",
      "type": "function"
    },
    {
      "inputs": [
        {
          "internalType": "uint256",
          "name": "a",
          "type": "uint256"
        },
        {
          "internalType": "uint256",
          "name": "b",
          "type": "uint256"
        }
      ],
      "name": "doDiv",
      "outputs": [
        {
          "internalType": "uint256",
          "name": "",
          "type": "uint256"
        }
      ],
      "stateMutability": "pure",
      "type": "function"
    },
    {
      "inputs": [
        {
          "internalType": "uint256",
          "name": "a",
          "type": "uint256"
        },
        {
          "internalType": "uint256",
          "name": "b",
          "type": "uint256"
        }
      ],
      "name": "doMod",
      "outputs": [
        {
          "internalType": "uint256",
          "name": "",
          "type": "uint256"
        }
      ],
      "stateMutability": "pure",
      "type": "function"
    },
    {
      "inputs": [
        {
          "internalType": "uint256",
          "name": "a",
          "type": "uint256"
        },
        {
          "internalType": "uint256",
          "name": "b",
          "type": "uint256"
        },
        {
          "internalType": "string",
          "name": "errorMessage",
          "type": "string"
        }
      ],
      "name": "subWithMessage",
      "outputs": [
        {
          "internalType": "uint256",
          "name": "",
          "type": "uint256"
        }
      ],
      "stateMutability": "pure",
      "type": "function"
    },
    {
      "inputs": [
        {
          "internalType": "uint256",
          "name": "a",
          "type": "uint256"
        },
        {
          "internalType": "uint256",
          "name": "b",
          "type": "uint256"
        },
        {
          "internalType": "string",
          "name": "errorMessage",
          "type": "string"
        }
      ],
      "name": "divWithMessage",
      "outputs": [
        {
          "internalType": "uint256",
          "name": "",
          "type": "uint256"
        }
      ],
      "stateMutability": "pure",
      "type": "function"
    },
    {
      "inputs": [
        {
          "internalType": "uint256",
          "name": "a",
          "type": "uint256"
        },
        {
          "internalType": "uint256",
          "name": "b",
          "type": "uint256"
        },
        {
          "internalType": "string",
          "name": "errorMessage",
          "type": "string"
        }
      ],
      "name": "modWithMessage",
      "outputs": [
        {
          "internalType": "uint256",
          "name": "",
          "type": "uint256"
        }
      ],
      "stateMutability": "pure",
      "type": "function"
    },
    {
      "inputs": [],
      "name": "addMemoryCheck",
      "outputs": [
        {
          "internalType": "uint256",
          "name": "mem",
          "type": "uint256"
        }
      ],
      "stateMutability": "pure",
      "type": "function"
    },
    {
      "inputs": [],
      "name": "subMemoryCheck",
      "outputs": [
        {
          "internalType": "uint256",
          "name": "mem",
          "type": "uint256"
        }
      ],
      "stateMutability": "pure",
      "type": "function"
    },
    {
      "inputs": [],
      "name": "mulMemoryCheck",
      "outputs": [
        {
          "internalType": "uint256",
          "name": "mem",
          "type": "uint256"
        }
      ],
      "stateMutability": "pure",
      "type": "function"
    },
    {
      "inputs": [],
      "name": "divMemoryCheck",
      "outputs": [
        {
          "internalType": "uint256",
          "name": "mem",
          "type": "uint256"
        }
      ],
      "stateMutability": "pure",
      "type": "function"
    },
    {
      "inputs": [],
      "name": "modMemoryCheck",
      "outputs": [
        {
          "internalType": "uint256",
          "name": "mem",
          "type": "uint256"
        }
      ],
      "stateMutability": "pure",
      "type": "function"
    }
  ],
  "bytecode": "0x608060405234801561001057600080fd5b50610e9e806100206000396000f3fe608060405234801561001057600080fd5b50600436106101165760003560e01c80639f5cec89116100a2578063dcc721d211610071578063dcc721d21461035a578063fb1191981461038a578063fb24c860146103ba578063fb999ded146103d8578063fc0ce503146103f657610116565b80639f5cec89146102ab578063a155bd62146102db578063a29962b11461030b578063c460ae041461033c57610116565b80636f91e802116100e95780636f91e802146101dd578063736ecb18146101fb5780637e86d25c1461022c578063869f602f1461024a578063884557bf1461027a57610116565b80633449b5fb1461011b57806338dc08671461014b5780636281efa41461017c5780636c7ac637146101ad575b600080fd5b610135600480360381019061013091906109e9565b610426565b6040516101429190610afa565b60405180910390f35b610165600480360381019061016091906109a9565b61043c565b604051610173929190610aaf565b60405180910390f35b610196600480360381019061019191906109a9565b610454565b6040516101a4929190610aaf565b60405180910390f35b6101c760048036038101906101c291906109a9565b61046c565b6040516101d49190610afa565b60405180910390f35b6101e5610480565b6040516101f29190610afa565b60405180910390f35b610215600480360381019061021091906109a9565b6104c0565b604051610223929190610aaf565b60405180910390f35b6102346104d8565b6040516102419190610afa565b60405180910390f35b610264600480360381019061025f91906109a9565b610518565b6040516102719190610afa565b60405180910390f35b610294600480360381019061028f91906109a9565b61052c565b6040516102a2929190610aaf565b60405180910390f35b6102c560048036038101906102c091906109e9565b610544565b6040516102d29190610afa565b60405180910390f35b6102f560048036038101906102f091906109e9565b61055a565b6040516103029190610afa565b60405180910390f35b610325600480360381019061032091906109a9565b610570565b604051610333929190610aaf565b60405180910390f35b610344610588565b6040516103519190610afa565b60405180910390f35b610374600480360381019061036f91906109a9565b6105c8565b6040516103819190610afa565b60405180910390f35b6103a4600480360381019061039f91906109a9565b6105dc565b6040516103b19190610afa565b60405180910390f35b6103c26105f0565b6040516103cf9190610afa565b60405180910390f35b6103e0610630565b6040516103ed9190610afa565b60405180910390f35b610410600480360381019061040b91906109a9565b610670565b60405161041d9190610afa565b60405180910390f35b6000610433848484610684565b90509392505050565b60008061044984846106e6565b915091509250929050565b600080610461848461071d565b915091509250929050565b60006104788383610771565b905092915050565b60008060209050604051915060005b818110156104b4576104a2600180610787565b50806104ad90610d25565b905061048f565b50816040510391505090565b6000806104cd848461079d565b915091509250929050565b60008060209050604051915060005b8181101561050c576104fa6001806107d4565b508061050590610d25565b90506104e7565b50816040510391505090565b60006105248383610787565b905092915050565b60008061053984846107ea565b915091509250929050565b6000610551848484610819565b90509392505050565b600061056784848461086e565b90509392505050565b60008061057d84846108d0565b915091509250929050565b60008060209050604051915060005b818110156105bc576105aa6001806108f8565b50806105b590610d25565b9050610597565b50816040510391505090565b60006105d4838361090e565b905092915050565b60006105e883836107d4565b905092915050565b60008060209050604051915060005b818110156106245761061260018061090e565b508061061d90610d25565b90506105ff565b50816040510391505090565b60008060209050604051915060005b8181101561066457610652600180610771565b508061065d90610d25565b905061063f565b50816040510391505090565b600061067c83836108f8565b905092915050565b600080831182906106cb576040517f08c379a00000000000000000000000000000000000000000000000000000000081526004016106c29190610ad8565b60405180910390fd5b508284816106dc576106db610dce565b5b0490509392505050565b60008060008314156106fe5760008091509150610716565b60018385816107105761070f610dce565b5b06915091505b9250929050565b600080600084141561073657600160009150915061076a565b600083850290508385828161074e5761074d610dce565b5b041461076157600080925092505061076a565b60018192509250505b9250929050565b6000818361077f9190610c68565b905092915050565b600081836107959190610d6e565b905092915050565b60008060008314156107b557600080915091506107cd565b60018385816107c7576107c6610dce565b5b04915091505b9250929050565b600081836107e29190610c0e565b905092915050565b6000806000838501905084811015610809576000809250925050610812565b60018192509250505b9250929050565b6000838311158290610861576040517f08c379a00000000000000000000000000000000000000000000000000000000081526004016108589190610ad8565b60405180910390fd5b5082840390509392505050565b600080831182906108b5576040517f08c379a00000000000000000000000000000000000000000000000000000000081526004016108ac9190610ad8565b60405180910390fd5b508284816108c6576108c5610dce565b5b0690509392505050565b600080838311156108e757600080915091506108f1565b6001838503915091505b9250929050565b600081836109069190610bdd565b905092915050565b6000818361091c9190610b87565b905092915050565b600061093761093284610b3a565b610b15565b90508281526020810184848401111561095357610952610e31565b5b61095e848285610cb2565b509392505050565b600082601f83011261097b5761097a610e2c565b5b813561098b848260208601610924565b91505092915050565b6000813590506109a381610e51565b92915050565b600080604083850312156109c0576109bf610e3b565b5b60006109ce85828601610994565b92505060206109df85828601610994565b9150509250929050565b600080600060608486031215610a0257610a01610e3b565b5b6000610a1086828701610994565b9350506020610a2186828701610994565b925050604084013567ffffffffffffffff811115610a4257610a41610e36565b5b610a4e86828701610966565b9150509250925092565b610a6181610c9c565b82525050565b6000610a7282610b6b565b610a7c8185610b76565b9350610a8c818560208601610cc1565b610a9581610e40565b840191505092915050565b610aa981610ca8565b82525050565b6000604082019050610ac46000830185610a58565b610ad16020830184610aa0565b9392505050565b60006020820190508181036000830152610af28184610a67565b905092915050565b6000602082019050610b0f6000830184610aa0565b92915050565b6000610b1f610b30565b9050610b2b8282610cf4565b919050565b6000604051905090565b600067ffffffffffffffff821115610b5557610b54610dfd565b5b610b5e82610e40565b9050602081019050919050565b600081519050919050565b600082825260208201905092915050565b6000610b9282610ca8565b9150610b9d83610ca8565b9250827fffffffffffffffffffffffffffffffffffffffffffffffffffffffffffffffff03821115610bd257610bd1610d9f565b5b828201905092915050565b6000610be882610ca8565b9150610bf383610ca8565b925082610c0357610c02610dce565b5b828204905092915050565b6000610c1982610ca8565b9150610c2483610ca8565b9250817fffffffffffffffffffffffffffffffffffffffffffffffffffffffffffffffff0483118215151615610c5d57610c5c610d9f565b5b828202905092915050565b6000610c7382610ca8565b9150610c7e83610ca8565b925082821015610c9157610c90610d9f565b5b828203905092915050565b60008115159050919050565b6000819050919050565b82818337600083830152505050565b60005b83811015610cdf578082015181840152602081019050610cc4565b83811115610cee576000848401525b50505050565b610cfd82610e40565b810181811067ffffffffffffffff82111715610d1c57610d1b610dfd565b5b80604052505050565b6000610d3082610ca8565b91507fffffffffffffffffffffffffffffffffffffffffffffffffffffffffffffffff821415610d6357610d62610d9f565b5b600182019050919050565b6000610d7982610ca8565b9150610d8483610ca8565b925082610d9457610d93610dce565b5b828206905092915050565b7f4e487b7100000000000000000000000000000000000000000000000000000000600052601160045260246000fd5b7f4e487b7100000000000000000000000000000000000000000000000000000000600052601260045260246000fd5b7f4e487b7100000000000000000000000000000000000000000000000000000000600052604160045260246000fd5b600080fd5b600080fd5b600080fd5b600080fd5b6000601f19601f8301169050919050565b610e5a81610ca8565b8114610e6557600080fd5b5056fea2646970667358221220ef5cad64f789698462d07f71e261a10dc37c9104c2e604525394d67c0925148664736f6c63430008070033",
  "immutableReferences": {},
  "source": "// SPDX-License-Identifier: MIT\n\npragma solidity ^0.8.0;\n\nimport \"../utils/math/SafeMath.sol\";\n\ncontract SafeMathMock {\n    function tryAdd(uint256 a, uint256 b) public pure returns (bool flag, uint256 value) {\n        return SafeMath.tryAdd(a, b);\n    }\n\n    function trySub(uint256 a, uint256 b) public pure returns (bool flag, uint256 value) {\n        return SafeMath.trySub(a, b);\n    }\n\n    function tryMul(uint256 a, uint256 b) public pure returns (bool flag, uint256 value) {\n        return SafeMath.tryMul(a, b);\n    }\n\n    function tryDiv(uint256 a, uint256 b) public pure returns (bool flag, uint256 value) {\n        return SafeMath.tryDiv(a, b);\n    }\n\n    function tryMod(uint256 a, uint256 b) public pure returns (bool flag, uint256 value) {\n        return SafeMath.tryMod(a, b);\n    }\n\n    // using the do* naming convention to avoid warnings due to clashing opcode names\n\n    function doAdd(uint256 a, uint256 b) public pure returns (uint256) {\n        return SafeMath.add(a, b);\n    }\n\n    function doSub(uint256 a, uint256 b) public pure returns (uint256) {\n        return SafeMath.sub(a, b);\n    }\n\n    function doMul(uint256 a, uint256 b) public pure returns (uint256) {\n        return SafeMath.mul(a, b);\n    }\n\n    function doDiv(uint256 a, uint256 b) public pure returns (uint256) {\n        return SafeMath.div(a, b);\n    }\n\n    function doMod(uint256 a, uint256 b) public pure returns (uint256) {\n        return SafeMath.mod(a, b);\n    }\n\n    function subWithMessage(\n        uint256 a,\n        uint256 b,\n        string memory errorMessage\n    ) public pure returns (uint256) {\n        return SafeMath.sub(a, b, errorMessage);\n    }\n\n    function divWithMessage(\n        uint256 a,\n        uint256 b,\n        string memory errorMessage\n    ) public pure returns (uint256) {\n        return SafeMath.div(a, b, errorMessage);\n    }\n\n    function modWithMessage(\n        uint256 a,\n        uint256 b,\n        string memory errorMessage\n    ) public pure returns (uint256) {\n        return SafeMath.mod(a, b, errorMessage);\n    }\n\n    function addMemoryCheck() public pure returns (uint256 mem) {\n        uint256 length = 32;\n        assembly {\n            mem := mload(0x40)\n        }\n        for (uint256 i = 0; i < length; ++i) {\n            SafeMath.add(1, 1);\n        }\n        assembly {\n            mem := sub(mload(0x40), mem)\n        }\n    }\n\n    function subMemoryCheck() public pure returns (uint256 mem) {\n        uint256 length = 32;\n        assembly {\n            mem := mload(0x40)\n        }\n        for (uint256 i = 0; i < length; ++i) {\n            SafeMath.sub(1, 1);\n        }\n        assembly {\n            mem := sub(mload(0x40), mem)\n        }\n    }\n\n    function mulMemoryCheck() public pure returns (uint256 mem) {\n        uint256 length = 32;\n        assembly {\n            mem := mload(0x40)\n        }\n        for (uint256 i = 0; i < length; ++i) {\n            SafeMath.mul(1, 1);\n        }\n        assembly {\n            mem := sub(mload(0x40), mem)\n        }\n    }\n\n    function divMemoryCheck() public pure returns (uint256 mem) {\n        uint256 length = 32;\n        assembly {\n            mem := mload(0x40)\n        }\n        for (uint256 i = 0; i < length; ++i) {\n            SafeMath.div(1, 1);\n        }\n        assembly {\n            mem := sub(mload(0x40), mem)\n        }\n    }\n\n    function modMemoryCheck() public pure returns (uint256 mem) {\n        uint256 length = 32;\n        assembly {\n            mem := mload(0x40)\n        }\n        for (uint256 i = 0; i < length; ++i) {\n            SafeMath.mod(1, 1);\n        }\n        assembly {\n            mem := sub(mload(0x40), mem)\n        }\n    }\n}\n",
  "sourcePath": "/home/tenten/Projects/upcgold.io/src/contracts/openzeppelin-contracts/contracts/mocks/SafeMathMock.sol",
  "compiler": {
    "name": "solc",
    "version": "0.8.7+commit.e28d00a7.Emscripten.clang"
  },
  "schemaVersion": "3.2.3",
  "updatedAt": "2021-08-12T03:39:31.410Z",
  "devdoc": {
    "kind": "dev",
    "methods": {},
    "version": 1
  },
  "userdoc": {
    "kind": "user",
    "methods": {},
    "version": 1
  }
}