{
  "contractName": "SignatureCheckerMock",
  "abi": [
    {
      "inputs": [
        {
          "internalType": "address",
          "name": "signer",
          "type": "address"
        },
        {
          "internalType": "bytes32",
          "name": "hash",
          "type": "bytes32"
        },
        {
          "internalType": "bytes",
          "name": "signature",
          "type": "bytes"
        }
      ],
      "name": "isValidSignatureNow",
      "outputs": [
        {
          "internalType": "bool",
          "name": "",
          "type": "bool"
        }
      ],
      "stateMutability": "view",
      "type": "function"
    }
  ],
  "bytecode": "0x608060405234801561001057600080fd5b50610ae3806100206000396000f3fe608060405234801561001057600080fd5b506004361061002b5760003560e01c80636ccea65214610030575b600080fd5b61004a6004803603810190610045919061050f565b610060565b604051610057919061069d565b60405180910390f35b600061008d83838673ffffffffffffffffffffffffffffffffffffffff166100969092919063ffffffff16565b90509392505050565b60006100a1846101c9565b15610187578373ffffffffffffffffffffffffffffffffffffffff16631626ba7e84846040518363ffffffff1660e01b81526004016100e19291906106b8565b60206040518083038186803b1580156100f957600080fd5b505afa92505050801561012a57506040513d601f19601f82011682018060405250810190610127919061057e565b60015b61013757600090506101c2565b631626ba7e60e01b7bffffffffffffffffffffffffffffffffffffffffffffffffffffffff1916817bffffffffffffffffffffffffffffffffffffffffffffffffffffffff1916149150506101c2565b8373ffffffffffffffffffffffffffffffffffffffff166101a884846101dc565b73ffffffffffffffffffffffffffffffffffffffff161490505b9392505050565b600080823b905060008111915050919050565b600060418251141561021b5760008060006020850151925060408501519150606085015160001a90506102118682858561028b565b9350505050610285565b60408251141561024a576000806020840151915060408401519050610241858383610416565b92505050610285565b6040517f08c379a000000000000000000000000000000000000000000000000000000000815260040161027c9061074d565b60405180910390fd5b92915050565b60007f7fffffffffffffffffffffffffffffff5d576e7357a4501ddfe92f46681b20a08260001c11156102f3576040517f08c379a00000000000000000000000000000000000000000000000000000000081526004016102ea9061076d565b60405180910390fd5b601b8460ff1614806103085750601c8460ff16145b610347576040517f08c379a000000000000000000000000000000000000000000000000000000000815260040161033e9061078d565b60405180910390fd5b60006001868686866040516000815260200160405260405161036c94939291906106e8565b6020604051602081039080840390855afa15801561038e573d6000803e3d6000fd5b505050602060405103519050600073ffffffffffffffffffffffffffffffffffffffff168173ffffffffffffffffffffffffffffffffffffffff16141561040a576040517f08c379a00000000000000000000000000000000000000000000000000000000081526004016104019061072d565b60405180910390fd5b80915050949350505050565b60008060007f7fffffffffffffffffffffffffffffffffffffffffffffffffffffffffffffff84169150601b8460ff1c0190506104558682878561028b565b925050509392505050565b600061047361046e846107d2565b6107ad565b90508281526020810184848401111561048f5761048e610958565b5b61049a8482856108b1565b509392505050565b6000813590506104b181610a68565b92915050565b6000813590506104c681610a7f565b92915050565b6000815190506104db81610a96565b92915050565b600082601f8301126104f6576104f5610953565b5b8135610506848260208601610460565b91505092915050565b60008060006060848603121561052857610527610962565b5b6000610536868287016104a2565b9350506020610547868287016104b7565b925050604084013567ffffffffffffffff8111156105685761056761095d565b5b610574868287016104e1565b9150509250925092565b60006020828403121561059457610593610962565b5b60006105a2848285016104cc565b91505092915050565b6105b481610842565b82525050565b6105c38161084e565b82525050565b60006105d482610803565b6105de818561080e565b93506105ee8185602086016108c0565b6105f781610967565b840191505092915050565b600061060f60188361081f565b915061061a82610978565b602082019050919050565b6000610632601f8361081f565b915061063d826109a1565b602082019050919050565b600061065560228361081f565b9150610660826109ca565b604082019050919050565b600061067860228361081f565b915061068382610a19565b604082019050919050565b610697816108a4565b82525050565b60006020820190506106b260008301846105ab565b92915050565b60006040820190506106cd60008301856105ba565b81810360208301526106df81846105c9565b90509392505050565b60006080820190506106fd60008301876105ba565b61070a602083018661068e565b61071760408301856105ba565b61072460608301846105ba565b95945050505050565b6000602082019050818103600083015261074681610602565b9050919050565b6000602082019050818103600083015261076681610625565b9050919050565b6000602082019050818103600083015261078681610648565b9050919050565b600060208201905081810360008301526107a68161066b565b9050919050565b60006107b76107c8565b90506107c382826108f3565b919050565b6000604051905090565b600067ffffffffffffffff8211156107ed576107ec610924565b5b6107f682610967565b9050602081019050919050565b600081519050919050565b600082825260208201905092915050565b600082825260208201905092915050565b600061083b82610884565b9050919050565b60008115159050919050565b6000819050919050565b60007fffffffff0000000000000000000000000000000000000000000000000000000082169050919050565b600073ffffffffffffffffffffffffffffffffffffffff82169050919050565b600060ff82169050919050565b82818337600083830152505050565b60005b838110156108de5780820151818401526020810190506108c3565b838111156108ed576000848401525b50505050565b6108fc82610967565b810181811067ffffffffffffffff8211171561091b5761091a610924565b5b80604052505050565b7f4e487b7100000000000000000000000000000000000000000000000000000000600052604160045260246000fd5b600080fd5b600080fd5b600080fd5b600080fd5b6000601f19601f8301169050919050565b7f45434453413a20696e76616c6964207369676e61747572650000000000000000600082015250565b7f45434453413a20696e76616c6964207369676e6174757265206c656e67746800600082015250565b7f45434453413a20696e76616c6964207369676e6174757265202773272076616c60008201527f7565000000000000000000000000000000000000000000000000000000000000602082015250565b7f45434453413a20696e76616c6964207369676e6174757265202776272076616c60008201527f7565000000000000000000000000000000000000000000000000000000000000602082015250565b610a7181610830565b8114610a7c57600080fd5b50565b610a888161084e565b8114610a9357600080fd5b50565b610a9f81610858565b8114610aaa57600080fd5b5056fea26469706673582212204f0e696691271d0f6ebfb6a8e649151a32176ae3be2513d6aa845a040fb505f164736f6c63430008070033",
  "immutableReferences": {},
  "source": "// SPDX-License-Identifier: MIT\n\npragma solidity ^0.8.0;\n\nimport \"../utils/cryptography/SignatureChecker.sol\";\n\ncontract SignatureCheckerMock {\n    using SignatureChecker for address;\n\n    function isValidSignatureNow(\n        address signer,\n        bytes32 hash,\n        bytes memory signature\n    ) public view returns (bool) {\n        return signer.isValidSignatureNow(hash, signature);\n    }\n}\n",
  "sourcePath": "/home/tenten/Projects/upcgold.io/src/contracts/openzeppelin-contracts/contracts/mocks/SignatureCheckerMock.sol",
  "compiler": {
    "name": "solc",
    "version": "0.8.7+commit.e28d00a7.Emscripten.clang"
  },
  "schemaVersion": "3.2.3",
  "updatedAt": "2021-08-12T03:39:31.417Z",
  "devdoc": {
    "kind": "dev",
    "methods": {},
    "version": 1
  },
  "userdoc": {
    "kind": "user",
    "methods": {},
    "version": 1
  }
}