{
  "contractName": "StorageSlotMock",
  "abi": [
    {
      "inputs": [
        {
          "internalType": "bytes32",
          "name": "slot",
          "type": "bytes32"
        },
        {
          "internalType": "bool",
          "name": "value",
          "type": "bool"
        }
      ],
      "name": "setBoolean",
      "outputs": [],
      "stateMutability": "nonpayable",
      "type": "function"
    },
    {
      "inputs": [
        {
          "internalType": "bytes32",
          "name": "slot",
          "type": "bytes32"
        },
        {
          "internalType": "address",
          "name": "value",
          "type": "address"
        }
      ],
      "name": "setAddress",
      "outputs": [],
      "stateMutability": "nonpayable",
      "type": "function"
    },
    {
      "inputs": [
        {
          "internalType": "bytes32",
          "name": "slot",
          "type": "bytes32"
        },
        {
          "internalType": "bytes32",
          "name": "value",
          "type": "bytes32"
        }
      ],
      "name": "setBytes32",
      "outputs": [],
      "stateMutability": "nonpayable",
      "type": "function"
    },
    {
      "inputs": [
        {
          "internalType": "bytes32",
          "name": "slot",
          "type": "bytes32"
        },
        {
          "internalType": "uint256",
          "name": "value",
          "type": "uint256"
        }
      ],
      "name": "setUint256",
      "outputs": [],
      "stateMutability": "nonpayable",
      "type": "function"
    },
    {
      "inputs": [
        {
          "internalType": "bytes32",
          "name": "slot",
          "type": "bytes32"
        }
      ],
      "name": "getBoolean",
      "outputs": [
        {
          "internalType": "bool",
          "name": "",
          "type": "bool"
        }
      ],
      "stateMutability": "view",
      "type": "function"
    },
    {
      "inputs": [
        {
          "internalType": "bytes32",
          "name": "slot",
          "type": "bytes32"
        }
      ],
      "name": "getAddress",
      "outputs": [
        {
          "internalType": "address",
          "name": "",
          "type": "address"
        }
      ],
      "stateMutability": "view",
      "type": "function"
    },
    {
      "inputs": [
        {
          "internalType": "bytes32",
          "name": "slot",
          "type": "bytes32"
        }
      ],
      "name": "getBytes32",
      "outputs": [
        {
          "internalType": "bytes32",
          "name": "",
          "type": "bytes32"
        }
      ],
      "stateMutability": "view",
      "type": "function"
    },
    {
      "inputs": [
        {
          "internalType": "bytes32",
          "name": "slot",
          "type": "bytes32"
        }
      ],
      "name": "getUint256",
      "outputs": [
        {
          "internalType": "uint256",
          "name": "",
          "type": "uint256"
        }
      ],
      "stateMutability": "view",
      "type": "function"
    }
  ],
  "bytecode": "0x608060405234801561001057600080fd5b5061061d806100206000396000f3fe608060405234801561001057600080fd5b50600436106100885760003560e01c80634f3029c21161005b5780634f3029c214610139578063a6ed563e14610155578063ca446dd914610185578063f8715b3e146101a157610088565b806321f8a7211461008d57806333598b00146100bd5780633848207a146100ed5780634e91db081461011d575b600080fd5b6100a760048036038101906100a2919061035f565b6101bd565b6040516100b491906104c8565b60405180910390f35b6100d760048036038101906100d2919061035f565b6101f3565b6040516100e49190610519565b60405180910390f35b6101076004803603810190610102919061035f565b610209565b60405161011491906104e3565b60405180910390f35b6101376004803603810190610132919061040c565b61022c565b005b610153600480360381019061014e919061044c565b610241565b005b61016f600480360381019061016a919061035f565b610256565b60405161017c91906104fe565b60405180910390f35b61019f600480360381019061019a919061038c565b61026c565b005b6101bb60048036038101906101b691906103cc565b6102bb565b005b60006101c8826102e3565b60000160009054906101000a900473ffffffffffffffffffffffffffffffffffffffff169050919050565b60006101fe826102ed565b600001549050919050565b6000610214826102f7565b60000160009054906101000a900460ff169050919050565b8061023683610301565b600001819055505050565b8061024b836102ed565b600001819055505050565b600061026182610301565b600001549050919050565b80610276836102e3565b60000160006101000a81548173ffffffffffffffffffffffffffffffffffffffff021916908373ffffffffffffffffffffffffffffffffffffffff1602179055505050565b806102c5836102f7565b60000160006101000a81548160ff0219169083151502179055505050565b6000819050919050565b6000819050919050565b6000819050919050565b6000819050919050565b60008135905061031a8161058b565b92915050565b60008135905061032f816105a2565b92915050565b600081359050610344816105b9565b92915050565b600081359050610359816105d0565b92915050565b60006020828403121561037557610374610586565b5b600061038384828501610335565b91505092915050565b600080604083850312156103a3576103a2610586565b5b60006103b185828601610335565b92505060206103c28582860161030b565b9150509250929050565b600080604083850312156103e3576103e2610586565b5b60006103f185828601610335565b925050602061040285828601610320565b9150509250929050565b6000806040838503121561042357610422610586565b5b600061043185828601610335565b925050602061044285828601610335565b9150509250929050565b6000806040838503121561046357610462610586565b5b600061047185828601610335565b92505060206104828582860161034a565b9150509250929050565b61049581610534565b82525050565b6104a481610546565b82525050565b6104b381610552565b82525050565b6104c28161057c565b82525050565b60006020820190506104dd600083018461048c565b92915050565b60006020820190506104f8600083018461049b565b92915050565b600060208201905061051360008301846104aa565b92915050565b600060208201905061052e60008301846104b9565b92915050565b600061053f8261055c565b9050919050565b60008115159050919050565b6000819050919050565b600073ffffffffffffffffffffffffffffffffffffffff82169050919050565b6000819050919050565b600080fd5b61059481610534565b811461059f57600080fd5b50565b6105ab81610546565b81146105b657600080fd5b50565b6105c281610552565b81146105cd57600080fd5b50565b6105d98161057c565b81146105e457600080fd5b5056fea2646970667358221220d0d0aee1769db9738949e3d01316509bfb66ec03a1fe8466415e8e606af0bd7664736f6c63430008070033",
  "immutableReferences": {},
  "source": "// SPDX-License-Identifier: MIT\n\npragma solidity ^0.8.0;\n\nimport \"../utils/StorageSlot.sol\";\n\ncontract StorageSlotMock {\n    using StorageSlot for bytes32;\n\n    function setBoolean(bytes32 slot, bool value) public {\n        slot.getBooleanSlot().value = value;\n    }\n\n    function setAddress(bytes32 slot, address value) public {\n        slot.getAddressSlot().value = value;\n    }\n\n    function setBytes32(bytes32 slot, bytes32 value) public {\n        slot.getBytes32Slot().value = value;\n    }\n\n    function setUint256(bytes32 slot, uint256 value) public {\n        slot.getUint256Slot().value = value;\n    }\n\n    function getBoolean(bytes32 slot) public view returns (bool) {\n        return slot.getBooleanSlot().value;\n    }\n\n    function getAddress(bytes32 slot) public view returns (address) {\n        return slot.getAddressSlot().value;\n    }\n\n    function getBytes32(bytes32 slot) public view returns (bytes32) {\n        return slot.getBytes32Slot().value;\n    }\n\n    function getUint256(bytes32 slot) public view returns (uint256) {\n        return slot.getUint256Slot().value;\n    }\n}\n",
  "sourcePath": "/home/tenten/Projects/upcgold.io/src/contracts/openzeppelin-contracts/contracts/mocks/StorageSlotMock.sol",
  "compiler": {
    "name": "solc",
    "version": "0.8.7+commit.e28d00a7.Emscripten.clang"
  },
  "schemaVersion": "3.2.3",
  "updatedAt": "2021-08-12T03:39:31.426Z",
  "devdoc": {
    "kind": "dev",
    "methods": {},
    "version": 1
  },
  "userdoc": {
    "kind": "user",
    "methods": {},
    "version": 1
  }
}