{
  "contractName": "StringsMock",
  "abi": [
    {
      "inputs": [
        {
          "internalType": "uint256",
          "name": "value",
          "type": "uint256"
        }
      ],
      "name": "fromUint256",
      "outputs": [
        {
          "internalType": "string",
          "name": "",
          "type": "string"
        }
      ],
      "stateMutability": "pure",
      "type": "function"
    },
    {
      "inputs": [
        {
          "internalType": "uint256",
          "name": "value",
          "type": "uint256"
        }
      ],
      "name": "fromUint256Hex",
      "outputs": [
        {
          "internalType": "string",
          "name": "",
          "type": "string"
        }
      ],
      "stateMutability": "pure",
      "type": "function"
    },
    {
      "inputs": [
        {
          "internalType": "uint256",
          "name": "value",
          "type": "uint256"
        },
        {
          "internalType": "uint256",
          "name": "length",
          "type": "uint256"
        }
      ],
      "name": "fromUint256HexFixed",
      "outputs": [
        {
          "internalType": "string",
          "name": "",
          "type": "string"
        }
      ],
      "stateMutability": "pure",
      "type": "function"
    }
  ],
  "bytecode": "0x608060405234801561001057600080fd5b506109ab806100206000396000f3fe608060405234801561001057600080fd5b50600436106100415760003560e01c806302c5b75f1461004657806392b0ed1a14610076578063a2bd3644146100a6575b600080fd5b610060600480360381019061005b9190610546565b6100d6565b60405161006d919061060f565b60405180910390f35b610090600480360381019061008b9190610573565b6100e8565b60405161009d919061060f565b60405180910390f35b6100c060048036038101906100bb9190610546565b6100fc565b6040516100cd919061060f565b60405180910390f35b60606100e18261010e565b9050919050565b60606100f48383610194565b905092915050565b6060610107826103d0565b9050919050565b60606000821415610156576040518060400160405280600481526020017f3078303000000000000000000000000000000000000000000000000000000000815250905061018f565b600082905060005b60008214610180578080610171906107e9565b915050600882901c915061015e565b61018a8482610194565b925050505b919050565b6060600060028360026101a791906106f4565b6101b1919061066d565b67ffffffffffffffff8111156101ca576101c96108f0565b5b6040519080825280601f01601f1916602001820160405280156101fc5781602001600182028036833780820191505090505b5090507f300000000000000000000000000000000000000000000000000000000000000081600081518110610234576102336108c1565b5b60200101907effffffffffffffffffffffffffffffffffffffffffffffffffffffffffffff1916908160001a9053507f780000000000000000000000000000000000000000000000000000000000000081600181518110610298576102976108c1565b5b60200101907effffffffffffffffffffffffffffffffffffffffffffffffffffffffffffff1916908160001a905350600060018460026102d891906106f4565b6102e2919061066d565b90505b6001811115610382577f3031323334353637383961626364656600000000000000000000000000000000600f861660108110610324576103236108c1565b5b1a60f81b82828151811061033b5761033a6108c1565b5b60200101907effffffffffffffffffffffffffffffffffffffffffffffffffffffffffffff1916908160001a905350600485901c94508061037b906107bf565b90506102e5565b50600084146103c6576040517f08c379a00000000000000000000000000000000000000000000000000000000081526004016103bd90610631565b60405180910390fd5b8091505092915050565b60606000821415610418576040518060400160405280600181526020017f3000000000000000000000000000000000000000000000000000000000000000815250905061052c565b600082905060005b6000821461044a578080610433906107e9565b915050600a8261044391906106c3565b9150610420565b60008167ffffffffffffffff811115610466576104656108f0565b5b6040519080825280601f01601f1916602001820160405280156104985781602001600182028036833780820191505090505b5090505b60008514610525576001826104b1919061074e565b9150600a856104c09190610832565b60306104cc919061066d565b60f81b8183815181106104e2576104e16108c1565b5b60200101907effffffffffffffffffffffffffffffffffffffffffffffffffffffffffffff1916908160001a905350600a8561051e91906106c3565b945061049c565b8093505050505b919050565b6000813590506105408161095e565b92915050565b60006020828403121561055c5761055b61091f565b5b600061056a84828501610531565b91505092915050565b6000806040838503121561058a5761058961091f565b5b600061059885828601610531565b92505060206105a985828601610531565b9150509250929050565b60006105be82610651565b6105c8818561065c565b93506105d881856020860161078c565b6105e181610924565b840191505092915050565b60006105f960208361065c565b915061060482610935565b602082019050919050565b6000602082019050818103600083015261062981846105b3565b905092915050565b6000602082019050818103600083015261064a816105ec565b9050919050565b600081519050919050565b600082825260208201905092915050565b600061067882610782565b915061068383610782565b9250827fffffffffffffffffffffffffffffffffffffffffffffffffffffffffffffffff038211156106b8576106b7610863565b5b828201905092915050565b60006106ce82610782565b91506106d983610782565b9250826106e9576106e8610892565b5b828204905092915050565b60006106ff82610782565b915061070a83610782565b9250817fffffffffffffffffffffffffffffffffffffffffffffffffffffffffffffffff048311821515161561074357610742610863565b5b828202905092915050565b600061075982610782565b915061076483610782565b92508282101561077757610776610863565b5b828203905092915050565b6000819050919050565b60005b838110156107aa57808201518184015260208101905061078f565b838111156107b9576000848401525b50505050565b60006107ca82610782565b915060008214156107de576107dd610863565b5b600182039050919050565b60006107f482610782565b91507fffffffffffffffffffffffffffffffffffffffffffffffffffffffffffffffff82141561082757610826610863565b5b600182019050919050565b600061083d82610782565b915061084883610782565b92508261085857610857610892565b5b828206905092915050565b7f4e487b7100000000000000000000000000000000000000000000000000000000600052601160045260246000fd5b7f4e487b7100000000000000000000000000000000000000000000000000000000600052601260045260246000fd5b7f4e487b7100000000000000000000000000000000000000000000000000000000600052603260045260246000fd5b7f4e487b7100000000000000000000000000000000000000000000000000000000600052604160045260246000fd5b600080fd5b6000601f19601f8301169050919050565b7f537472696e67733a20686578206c656e67746820696e73756666696369656e74600082015250565b61096781610782565b811461097257600080fd5b5056fea26469706673582212206c9555967074d53337ef3d607f595bff8c1ef78ad26ed6e4469e8d08f55fdc3b64736f6c63430008070033",
  "immutableReferences": {},
  "source": "// SPDX-License-Identifier: MIT\n\npragma solidity ^0.8.0;\n\nimport \"../utils/Strings.sol\";\n\ncontract StringsMock {\n    function fromUint256(uint256 value) public pure returns (string memory) {\n        return Strings.toString(value);\n    }\n\n    function fromUint256Hex(uint256 value) public pure returns (string memory) {\n        return Strings.toHexString(value);\n    }\n\n    function fromUint256HexFixed(uint256 value, uint256 length) public pure returns (string memory) {\n        return Strings.toHexString(value, length);\n    }\n}\n",
  "sourcePath": "/home/tenten/Projects/upcgold.io/src/contracts/openzeppelin-contracts/contracts/mocks/StringsMock.sol",
  "compiler": {
    "name": "solc",
    "version": "0.8.7+commit.e28d00a7.Emscripten.clang"
  },
  "schemaVersion": "3.2.3",
  "updatedAt": "2021-08-12T03:39:31.428Z",
  "devdoc": {
    "kind": "dev",
    "methods": {},
    "version": 1
  },
  "userdoc": {
    "kind": "user",
    "methods": {},
    "version": 1
  }
}