{
  "contractName": "UPCGoldBank",
  "abi": [
    {
      "inputs": [
        {
          "internalType": "address payable",
          "name": "addy",
          "type": "address"
        }
      ],
      "name": "addPayee",
      "outputs": [],
      "stateMutability": "nonpayable",
      "type": "function"
    },
    {
      "inputs": [
        {
          "internalType": "string",
          "name": "upcId",
          "type": "string"
        },
        {
          "internalType": "string",
          "name": "gameId",
          "type": "string"
        },
        {
          "internalType": "string",
          "name": "humanReadableName",
          "type": "string"
        }
      ],
      "name": "depositMoney",
      "outputs": [],
      "stateMutability": "payable",
      "type": "function"
    },
    {
      "inputs": [
        {
          "internalType": "address",
          "name": "_to",
          "type": "address"
        },
        {
          "internalType": "uint256",
          "name": "_amount",
          "type": "uint256"
        }
      ],
      "name": "internalTransfer",
      "outputs": [],
      "stateMutability": "nonpayable",
      "type": "function"
    },
    {
      "inputs": [
        {
          "internalType": "address",
          "name": "staker",
          "type": "address"
        },
        {
          "internalType": "bytes32",
          "name": "upcHash",
          "type": "bytes32"
        },
        {
          "internalType": "string",
          "name": "upcRaw",
          "type": "string"
        },
        {
          "internalType": "string",
          "name": "ipfs",
          "type": "string"
        },
        {
          "internalType": "string",
          "name": "humanReadableName",
          "type": "string"
        }
      ],
      "name": "mintNft",
      "outputs": [
        {
          "internalType": "uint256",
          "name": "",
          "type": "uint256"
        }
      ],
      "stateMutability": "nonpayable",
      "type": "function"
    },
    {
      "inputs": [
        {
          "internalType": "uint256",
          "name": "coins",
          "type": "uint256"
        }
      ],
      "name": "payBills",
      "outputs": [
        {
          "internalType": "uint256",
          "name": "",
          "type": "uint256"
        }
      ],
      "stateMutability": "nonpayable",
      "type": "function"
    },
    {
      "inputs": [
        {
          "internalType": "string",
          "name": "_ipfs",
          "type": "string"
        }
      ],
      "name": "setDefaultIPFSSite",
      "outputs": [],
      "stateMutability": "nonpayable",
      "type": "function"
    },
    {
      "inputs": [
        {
          "internalType": "string",
          "name": "word",
          "type": "string"
        },
        {
          "internalType": "string",
          "name": "_humanReadableName",
          "type": "string"
        }
      ],
      "name": "setHumanReadableName",
      "outputs": [],
      "stateMutability": "nonpayable",
      "type": "function"
    },
    {
      "inputs": [
        {
          "internalType": "bytes32",
          "name": "upcHash",
          "type": "bytes32"
        },
        {
          "internalType": "string",
          "name": "ipfsHash",
          "type": "string"
        }
      ],
      "name": "setIpfsForScannable",
      "outputs": [],
      "stateMutability": "nonpayable",
      "type": "function"
    },
    {
      "inputs": [
        {
          "internalType": "address",
          "name": "nftContract",
          "type": "address"
        }
      ],
      "name": "setNftContract",
      "outputs": [],
      "stateMutability": "nonpayable",
      "type": "function"
    },
    {
      "inputs": [
        {
          "internalType": "string",
          "name": "upcId",
          "type": "string"
        }
      ],
      "name": "withdraw",
      "outputs": [],
      "stateMutability": "nonpayable",
      "type": "function"
    },
    {
      "inputs": [],
      "stateMutability": "nonpayable",
      "type": "constructor"
    },
    {
      "inputs": [],
      "name": "actionPot",
      "outputs": [
        {
          "internalType": "uint256",
          "name": "",
          "type": "uint256"
        }
      ],
      "stateMutability": "view",
      "type": "function"
    },
    {
      "inputs": [
        {
          "internalType": "address",
          "name": "",
          "type": "address"
        },
        {
          "internalType": "uint256",
          "name": "",
          "type": "uint256"
        }
      ],
      "name": "addressToUpc",
      "outputs": [
        {
          "internalType": "address",
          "name": "staker",
          "type": "address"
        },
        {
          "internalType": "uint256",
          "name": "amountStaked",
          "type": "uint256"
        },
        {
          "internalType": "bool",
          "name": "isOwned",
          "type": "bool"
        },
        {
          "internalType": "uint256",
          "name": "interestGained",
          "type": "uint256"
        },
        {
          "internalType": "uint256",
          "name": "stakingStartTimestamp",
          "type": "uint256"
        },
        {
          "internalType": "uint256",
          "name": "lastRewardTimestamp",
          "type": "uint256"
        },
        {
          "internalType": "bytes32",
          "name": "upcHash",
          "type": "bytes32"
        },
        {
          "internalType": "string",
          "name": "word",
          "type": "string"
        },
        {
          "internalType": "string",
          "name": "gameId",
          "type": "string"
        },
        {
          "internalType": "string",
          "name": "ipfs",
          "type": "string"
        },
        {
          "internalType": "string",
          "name": "humanReadableName",
          "type": "string"
        }
      ],
      "stateMutability": "view",
      "type": "function"
    },
    {
      "inputs": [
        {
          "internalType": "address",
          "name": "",
          "type": "address"
        }
      ],
      "name": "balanceReceived",
      "outputs": [
        {
          "internalType": "uint256",
          "name": "totalBalance",
          "type": "uint256"
        },
        {
          "internalType": "uint256",
          "name": "numPayments",
          "type": "uint256"
        }
      ],
      "stateMutability": "view",
      "type": "function"
    },
    {
      "inputs": [
        {
          "internalType": "uint256",
          "name": "amount",
          "type": "uint256"
        }
      ],
      "name": "calculateFee",
      "outputs": [
        {
          "internalType": "uint256",
          "name": "",
          "type": "uint256"
        }
      ],
      "stateMutability": "pure",
      "type": "function"
    },
    {
      "inputs": [],
      "name": "defaultIpfs",
      "outputs": [
        {
          "internalType": "string",
          "name": "",
          "type": "string"
        }
      ],
      "stateMutability": "view",
      "type": "function"
    },
    {
      "inputs": [],
      "name": "getAddressBalance",
      "outputs": [
        {
          "internalType": "uint256",
          "name": "",
          "type": "uint256"
        }
      ],
      "stateMutability": "view",
      "type": "function"
    },
    {
      "inputs": [],
      "name": "getBalance",
      "outputs": [
        {
          "internalType": "uint256",
          "name": "",
          "type": "uint256"
        }
      ],
      "stateMutability": "view",
      "type": "function"
    },
    {
      "inputs": [],
      "name": "getMyScannables",
      "outputs": [
        {
          "internalType": "bytes32[]",
          "name": "",
          "type": "bytes32[]"
        }
      ],
      "stateMutability": "view",
      "type": "function"
    },
    {
      "inputs": [
        {
          "internalType": "string",
          "name": "upcId",
          "type": "string"
        }
      ],
      "name": "getScannableByUpc",
      "outputs": [
        {
          "components": [
            {
              "internalType": "address",
              "name": "staker",
              "type": "address"
            },
            {
              "internalType": "uint256",
              "name": "amountStaked",
              "type": "uint256"
            },
            {
              "internalType": "bool",
              "name": "isOwned",
              "type": "bool"
            },
            {
              "internalType": "uint256",
              "name": "interestGained",
              "type": "uint256"
            },
            {
              "internalType": "uint256",
              "name": "stakingStartTimestamp",
              "type": "uint256"
            },
            {
              "internalType": "uint256",
              "name": "lastRewardTimestamp",
              "type": "uint256"
            },
            {
              "internalType": "bytes32",
              "name": "upcHash",
              "type": "bytes32"
            },
            {
              "internalType": "string",
              "name": "word",
              "type": "string"
            },
            {
              "internalType": "string",
              "name": "gameId",
              "type": "string"
            },
            {
              "internalType": "string",
              "name": "ipfs",
              "type": "string"
            },
            {
              "internalType": "string",
              "name": "humanReadableName",
              "type": "string"
            }
          ],
          "internalType": "struct UPCGoldBank.UpcMeta",
          "name": "",
          "type": "tuple"
        }
      ],
      "stateMutability": "view",
      "type": "function"
    },
    {
      "inputs": [
        {
          "internalType": "uint256",
          "name": "amount",
          "type": "uint256"
        }
      ],
      "name": "harvestRewardForScannable",
      "outputs": [
        {
          "internalType": "uint256",
          "name": "",
          "type": "uint256"
        }
      ],
      "stateMutability": "pure",
      "type": "function"
    },
    {
      "inputs": [
        {
          "internalType": "bytes32",
          "name": "",
          "type": "bytes32"
        }
      ],
      "name": "scannables",
      "outputs": [
        {
          "internalType": "address",
          "name": "staker",
          "type": "address"
        },
        {
          "internalType": "uint256",
          "name": "amountStaked",
          "type": "uint256"
        },
        {
          "internalType": "bool",
          "name": "isOwned",
          "type": "bool"
        },
        {
          "internalType": "uint256",
          "name": "interestGained",
          "type": "uint256"
        },
        {
          "internalType": "uint256",
          "name": "stakingStartTimestamp",
          "type": "uint256"
        },
        {
          "internalType": "uint256",
          "name": "lastRewardTimestamp",
          "type": "uint256"
        },
        {
          "internalType": "bytes32",
          "name": "upcHash",
          "type": "bytes32"
        },
        {
          "internalType": "string",
          "name": "word",
          "type": "string"
        },
        {
          "internalType": "string",
          "name": "gameId",
          "type": "string"
        },
        {
          "internalType": "string",
          "name": "ipfs",
          "type": "string"
        },
        {
          "internalType": "string",
          "name": "humanReadableName",
          "type": "string"
        }
      ],
      "stateMutability": "view",
      "type": "function"
    }
  ],
  "bytecode": "0x60806040526000600460146101000a81548160ff02191690831515021790555034801561002b57600080fd5b5033600660006101000a81548173ffffffffffffffffffffffffffffffffffffffff021916908373ffffffffffffffffffffffffffffffffffffffff1602179055506134a08061007c6000396000f3fe6080604052600436106100fe5760003560e01c80638ea7842e11610095578063b389d92a11610064578063b389d92a1461037d578063d18a42e114610399578063d8f814f2146103d7578063dce59c001461041b578063f32aa1f814610444576100fe565b80638ea7842e1461027c57806399a5d747146102c05780639a63db94146102fd578063a1eed17f14610340576100fe565b80633e7ba166116100d15780633e7ba166146101c257806357525fc1146101eb5780636261a9c21461021457806375eb2ad114610251576100fe565b806312065fe014610103578063154fd1b81461012e57806315c59fcc1461016e57806331fb67c214610199575b600080fd5b34801561010f57600080fd5b5061011861046f565b60405161012591906131f7565b60405180910390f35b34801561013a57600080fd5b5061015560048036038101906101509190612a12565b61048e565b6040516101659493929190612f29565b60405180910390f35b34801561017a57600080fd5b50610183610584565b60405161019091906131f7565b60405180910390f35b3480156101a557600080fd5b506101c060048036038101906101bb9190612a12565b61058a565b005b3480156101ce57600080fd5b506101e960048036038101906101e491906128ba565b6109df565b005b3480156101f757600080fd5b50610212600480360381019061020d919061283f565b610b08565b005b34801561022057600080fd5b5061023b60048036038101906102369190612b00565b610bdc565b60405161024891906131f7565b60405180910390f35b34801561025d57600080fd5b50610266610c93565b60405161027391906131f7565b60405180910390f35b34801561028857600080fd5b506102a3600480360381019061029e91906128ba565b610cdd565b6040516102b7989796959493929190612feb565b60405180910390f35b3480156102cc57600080fd5b506102e760048036038101906102e29190612b00565b610e04565b6040516102f491906131f7565b60405180910390f35b34801561030957600080fd5b50610324600480360381019061031f91906129c0565b610e6b565b6040516103379796959493929190612f6e565b60405180910390f35b34801561034c57600080fd5b5061036760048036038101906103629190612b00565b611011565b60405161037491906131f7565b60405180910390f35b61039760048036038101906103929190612a94565b611078565b005b3480156103a557600080fd5b506103c060048036038101906103bb919061283f565b611b2d565b6040516103ce929190613212565b60405180910390f35b3480156103e357600080fd5b506103fe60048036038101906103f991906129c0565b611b51565b604051610412989796959493929190612feb565b60405180910390f35b34801561042757600080fd5b50610442600480360381019061043d9190612891565b611c5e565b005b34801561045057600080fd5b50610459611d54565b6040516104669190613070565b60405180910390f35b60003073ffffffffffffffffffffffffffffffffffffffff1631905090565b6000806000806002856040516020016104a79190612f12565b6040516020818303038152906040526040516104c39190612efb565b602060405180830381855afa1580156104e0573d6000803e3d6000fd5b5050506040513d601f19601f8201168201806040525081019061050391906129e9565b90506002600082815260200190815260200160002060000160009054906101000a900473ffffffffffffffffffffffffffffffffffffffff169350600260008281526020019081526020016000206001015492506002600082815260200190815260200160002060020160009054906101000a900460ff1691509193509193565b60035481565b600060028260405160200161059f9190612f12565b6040516020818303038152906040526040516105bb9190612efb565b602060405180830381855afa1580156105d8573d6000803e3d6000fd5b5050506040513d601f19601f820116820180604052508101906105fb91906129e9565b90506002600082815260200190815260200160002060000160009054906101000a900473ffffffffffffffffffffffffffffffffffffffff1673ffffffffffffffffffffffffffffffffffffffff163373ffffffffffffffffffffffffffffffffffffffff16146106a1576040517f08c379a000000000000000000000000000000000000000000000000000000000815260040161069890613177565b60405180910390fd5b60003073ffffffffffffffffffffffffffffffffffffffff166399a5d74760026000858152602001908152602001600020600101546040518263ffffffff1660e01b81526004016106f291906131f7565b60206040518083038186803b15801561070a57600080fd5b505afa15801561071e573d6000803e3d6000fd5b505050506040513d601f19601f820116820180604052508101906107429190612b29565b9050600081600260008581526020019081526020016000206001015403905060003390506000600160003373ffffffffffffffffffffffffffffffffffffffff1673ffffffffffffffffffffffffffffffffffffffff168152602001908152602001600020600001819055506000600260008681526020019081526020016000206001018190555060006002600086815260200190815260200160002060000160006101000a81548173ffffffffffffffffffffffffffffffffffffffff021916908373ffffffffffffffffffffffffffffffffffffffff16021790555060008060005b6000803373ffffffffffffffffffffffffffffffffffffffff1673ffffffffffffffffffffffffffffffffffffffff168152602001908152602001600020805490508110156108e657866000803373ffffffffffffffffffffffffffffffffffffffff1673ffffffffffffffffffffffffffffffffffffffff16815260200190815260200160002082815481106108b957fe5b90600052602060002090600802016006015414156108d957600192508091505b8080600101915050610826565b5081156108f8576108f78133611eb5565b5b600460009054906101000a900473ffffffffffffffffffffffffffffffffffffffff1673ffffffffffffffffffffffffffffffffffffffff1663df85461f876040518263ffffffff1660e01b81526004016109539190613092565b600060405180830381600087803b15801561096d57600080fd5b505af1158015610981573d6000803e3d6000fd5b505050508273ffffffffffffffffffffffffffffffffffffffff166108fc859081150290604051600060405180830381858888f193505050501580156109cb573d6000803e3d6000fd5b506109d585610bdc565b5050505050505050565b80600160003373ffffffffffffffffffffffffffffffffffffffff1673ffffffffffffffffffffffffffffffffffffffff168152602001908152602001600020600001541015610a64576040517f08c379a0000000000000000000000000000000000000000000000000000000008152600401610a5b906131d7565b60405180910390fd5b80600160003373ffffffffffffffffffffffffffffffffffffffff1673ffffffffffffffffffffffffffffffffffffffff1681526020019081526020016000206000016000828254039250508190555080600160008473ffffffffffffffffffffffffffffffffffffffff1673ffffffffffffffffffffffffffffffffffffffff168152602001908152602001600020600001600082825401925050819055505050565b3373ffffffffffffffffffffffffffffffffffffffff16600660009054906101000a900473ffffffffffffffffffffffffffffffffffffffff1673ffffffffffffffffffffffffffffffffffffffff1614610b98576040517f08c379a0000000000000000000000000000000000000000000000000000000008152600401610b8f906131b7565b60405180910390fd5b80600460006101000a81548173ffffffffffffffffffffffffffffffffffffffff021916908373ffffffffffffffffffffffffffffffffffffffff16021790555050565b600080600580549050905060005b81811015610c8c576000828581610bfd57fe5b04905060058281548110610c0d57fe5b9060005260206000200160009054906101000a900473ffffffffffffffffffffffffffffffffffffffff1673ffffffffffffffffffffffffffffffffffffffff166108fc829081150290604051600060405180830381858888f19350505050158015610c7d573d6000803e3d6000fd5b50508080600101915050610bea565b5050919050565b6000600160003373ffffffffffffffffffffffffffffffffffffffff1673ffffffffffffffffffffffffffffffffffffffff16815260200190815260200160002060000154905090565b60006020528160005260406000208181548110610cf657fe5b9060005260206000209060080201600091509150508060000160009054906101000a900473ffffffffffffffffffffffffffffffffffffffff16908060010154908060020160009054906101000a900460ff1690806003015490806004015490806005015490806006015490806007018054600181600116156101000203166002900480601f016020809104026020016040519081016040528092919081815260200182805460018160011615610100020316600290048015610dfa5780601f10610dcf57610100808354040283529160200191610dfa565b820191906000526020600020905b815481529060010190602001808311610ddd57829003601f168201915b5050505050905088565b600081612710808481610e1357fe5b040214610e55576040517f08c379a0000000000000000000000000000000000000000000000000000000008152600401610e4c90613157565b60405180910390fd5b61271060c8830281610e6357fe5b049050919050565b600080600080600060608060008060606000806000600460009054906101000a900473ffffffffffffffffffffffffffffffffffffffff1673ffffffffffffffffffffffffffffffffffffffff166334911bf08f6040518263ffffffff1660e01b8152600401610edb9190613092565b60006040518083038186803b158015610ef357600080fd5b505afa158015610f07573d6000803e3d6000fd5b505050506040513d6000823e3d601f19601f82011682018060405250810190610f3091906128f6565b955095509550955095509550600460009054906101000a900473ffffffffffffffffffffffffffffffffffffffff1673ffffffffffffffffffffffffffffffffffffffff16635ff1a0968f6040518263ffffffff1660e01b8152600401610f979190613092565b60006040518083038186803b158015610faf57600080fd5b505afa158015610fc3573d6000803e3d6000fd5b505050506040513d6000823e3d601f19601f82011682018060405250810190610fec9190612a53565b9650859c50849b50839750829a50819850809950505050505050919395979092949650565b60008161271080848161102057fe5b040214611062576040517f08c379a000000000000000000000000000000000000000000000000000000000815260040161105990613157565b60405180910390fd5b61271060c883028161107057fe5b049050919050565b600060028360405160200161108d9190612f12565b6040516020818303038152906040526040516110a99190612efb565b602060405180830381855afa1580156110c6573d6000803e3d6000fd5b5050506040513d601f19601f820116820180604052508101906110e991906129e9565b905060003073ffffffffffffffffffffffffffffffffffffffff166399a5d747346040518263ffffffff1660e01b815260040161112691906131f7565b60206040518083038186803b15801561113e57600080fd5b505afa158015611152573d6000803e3d6000fd5b505050506040513d601f19601f820116820180604052508101906111769190612b29565b9050600081340390506000600460009054906101000a900473ffffffffffffffffffffffffffffffffffffffff1673ffffffffffffffffffffffffffffffffffffffff16631f33d35b856040518263ffffffff1660e01b81526004016111dc9190613092565b60206040518083038186803b1580156111f457600080fd5b505afa158015611208573d6000803e3d6000fd5b505050506040513d601f19601f8201168201806040525081019061122c9190612997565b9050600081156112e457600460009054906101000a900473ffffffffffffffffffffffffffffffffffffffff1673ffffffffffffffffffffffffffffffffffffffff1663deb931a2866040518263ffffffff1660e01b81526004016112919190613092565b60206040518083038186803b1580156112a957600080fd5b505afa1580156112bd573d6000803e3d6000fd5b505050506040513d601f19601f820116820180604052508101906112e19190612868565b90505b8115611359573373ffffffffffffffffffffffffffffffffffffffff168173ffffffffffffffffffffffffffffffffffffffff1614611358576040517f08c379a000000000000000000000000000000000000000000000000000000000815260040161134f90613197565b60405180910390fd5b5b60006002600087815260200190815260200160002060010154905060008073ffffffffffffffffffffffffffffffffffffffff166002600089815260200190815260200160002060000160009054906101000a900473ffffffffffffffffffffffffffffffffffffffff1673ffffffffffffffffffffffffffffffffffffffff161415801561144a57506002600088815260200190815260200160002060000160009054906101000a900473ffffffffffffffffffffffffffffffffffffffff1673ffffffffffffffffffffffffffffffffffffffff163373ffffffffffffffffffffffffffffffffffffffff1614155b1561149657818511611491576040517f08c379a000000000000000000000000000000000000000000000000000000000815260040161148890613137565b60405180910390fd5b61149b565b600190505b6002600088815260200190815260200160002060000160009054906101000a900473ffffffffffffffffffffffffffffffffffffffff1673ffffffffffffffffffffffffffffffffffffffff163373ffffffffffffffffffffffffffffffffffffffff161461152c57600061150f886122ed565b905060026000898152602001908152602001600020600101549250505b611534612509565b33816000019073ffffffffffffffffffffffffffffffffffffffff16908173ffffffffffffffffffffffffffffffffffffffff1681525050858301816020018181525050816115935760008160400190151590811515815250506115a5565b60018160400190151590811515815250505b42816080018181525050878160c0018181525050898160e0018190525080600260008a815260200190815260200160002060008201518160000160006101000a81548173ffffffffffffffffffffffffffffffffffffffff021916908373ffffffffffffffffffffffffffffffffffffffff1602179055506020820151816001015560408201518160020160006101000a81548160ff021916908315150217905550606082015181600301556080820151816004015560a0820151816005015560c0820151816006015560e082015181600701908051906020019061168b929190612569565b5090505060006001905060005b6000803373ffffffffffffffffffffffffffffffffffffffff1673ffffffffffffffffffffffffffffffffffffffff1681526020019081526020016000208054905081101561175557896000803373ffffffffffffffffffffffffffffffffffffffff1673ffffffffffffffffffffffffffffffffffffffff168152602001908152602001600020828154811061172b57fe5b906000526020600020906008020160060154141561174857600091505b8080600101915050611698565b50801561187d576000803373ffffffffffffffffffffffffffffffffffffffff1673ffffffffffffffffffffffffffffffffffffffff16815260200190815260200160002082908060018154018082558091505060019003906000526020600020906008020160009091909190915060008201518160000160006101000a81548173ffffffffffffffffffffffffffffffffffffffff021916908373ffffffffffffffffffffffffffffffffffffffff1602179055506020820151816001015560408201518160020160006101000a81548160ff021916908315150217905550606082015181600301556080820151816004015560a0820151816005015560c0820151816006015560e0820151816007019080519060200190611879929190612569565b5050505b86600160003373ffffffffffffffffffffffffffffffffffffffff1673ffffffffffffffffffffffffffffffffffffffff168152602001908152602001600020600001600082825401925050819055506118d56125e9565b604051806040016040528089815260200142815250905080600160003373ffffffffffffffffffffffffffffffffffffffff1673ffffffffffffffffffffffffffffffffffffffff1681526020019081526020016000206002016000600160003373ffffffffffffffffffffffffffffffffffffffff1673ffffffffffffffffffffffffffffffffffffffff1681526020019081526020016000206001015481526020019081526020016000206000820151816000015560208201518160010155905050600160003373ffffffffffffffffffffffffffffffffffffffff1673ffffffffffffffffffffffffffffffffffffffff16815260200190815260200160002060010160008154809291906001019190505550600460009054906101000a900473ffffffffffffffffffffffffffffffffffffffff1673ffffffffffffffffffffffffffffffffffffffff16638da719038b8a88018f8760800151336040518663ffffffff1660e01b8152600401611a549594939291906130dd565b600060405180830381600087803b158015611a6e57600080fd5b505af1158015611a82573d6000803e3d6000fd5b50505050600460009054906101000a900473ffffffffffffffffffffffffffffffffffffffff1673ffffffffffffffffffffffffffffffffffffffff166398edc88b8b8d6040518363ffffffff1660e01b8152600401611ae39291906130ad565b600060405180830381600087803b158015611afd57600080fd5b505af1158015611b11573d6000803e3d6000fd5b50505050611b1e89610bdc565b50505050505050505050505050565b60016020528060005260406000206000915090508060000154908060010154905082565b60026020528060005260406000206000915090508060000160009054906101000a900473ffffffffffffffffffffffffffffffffffffffff16908060010154908060020160009054906101000a900460ff1690806003015490806004015490806005015490806006015490806007018054600181600116156101000203166002900480601f016020809104026020016040519081016040528092919081815260200182805460018160011615610100020316600290048015611c545780601f10611c2957610100808354040283529160200191611c54565b820191906000526020600020905b815481529060010190602001808311611c3757829003601f168201915b5050505050905088565b3373ffffffffffffffffffffffffffffffffffffffff16600660009054906101000a900473ffffffffffffffffffffffffffffffffffffffff1673ffffffffffffffffffffffffffffffffffffffff1614611cee576040517f08c379a0000000000000000000000000000000000000000000000000000000008152600401611ce5906131b7565b60405180910390fd5b6005819080600181540180825580915050600190039060005260206000200160009091909190916101000a81548173ffffffffffffffffffffffffffffffffffffffff021916908373ffffffffffffffffffffffffffffffffffffffff16021790555050565b6060806000803373ffffffffffffffffffffffffffffffffffffffff1673ffffffffffffffffffffffffffffffffffffffff1681526020019081526020016000208054905067ffffffffffffffff81118015611daf57600080fd5b50604051908082528060200260200182016040528015611dde5781602001602082028036833780820191505090505b50905060005b6000803373ffffffffffffffffffffffffffffffffffffffff1673ffffffffffffffffffffffffffffffffffffffff16815260200190815260200160002080549050811015611ead576000803373ffffffffffffffffffffffffffffffffffffffff1673ffffffffffffffffffffffffffffffffffffffff1681526020019081526020016000208181548110611e7657fe5b906000526020600020906008020160060154828281518110611e9457fe5b6020026020010181815250508080600101915050611de4565b508091505090565b6000808273ffffffffffffffffffffffffffffffffffffffff1673ffffffffffffffffffffffffffffffffffffffff168152602001908152602001600020805490508210611f02576122e9565b60008290505b60016000808473ffffffffffffffffffffffffffffffffffffffff1673ffffffffffffffffffffffffffffffffffffffff1681526020019081526020016000208054905003811015612103576000808373ffffffffffffffffffffffffffffffffffffffff1673ffffffffffffffffffffffffffffffffffffffff1681526020019081526020016000206001820181548110611fa057fe5b90600052602060002090600802016000808473ffffffffffffffffffffffffffffffffffffffff1673ffffffffffffffffffffffffffffffffffffffff1681526020019081526020016000208281548110611ff757fe5b90600052602060002090600802016000820160009054906101000a900473ffffffffffffffffffffffffffffffffffffffff168160000160006101000a81548173ffffffffffffffffffffffffffffffffffffffff021916908373ffffffffffffffffffffffffffffffffffffffff160217905550600182015481600101556002820160009054906101000a900460ff168160020160006101000a81548160ff02191690831515021790555060038201548160030155600482015481600401556005820154816005015560068201548160060155600782018160070190805460018160011615610100020316600290046120f2929190612603565b509050508080600101915050611f08565b506000808273ffffffffffffffffffffffffffffffffffffffff1673ffffffffffffffffffffffffffffffffffffffff16815260200190815260200160002060016000808473ffffffffffffffffffffffffffffffffffffffff1673ffffffffffffffffffffffffffffffffffffffff16815260200190815260200160002080549050038154811061219157fe5b9060005260206000209060080201600080820160006101000a81549073ffffffffffffffffffffffffffffffffffffffff021916905560018201600090556002820160006101000a81549060ff02191690556003820160009055600482016000905560058201600090556006820160009055600782016000612213919061268a565b50506000808273ffffffffffffffffffffffffffffffffffffffff1673ffffffffffffffffffffffffffffffffffffffff16815260200190815260200160002080548061225c57fe5b6001900381819060005260206000209060080201600080820160006101000a81549073ffffffffffffffffffffffffffffffffffffffff021916905560018201600090556002820160006101000a81549060ff021916905560038201600090556004820160009055600582016000905560068201600090556007820160006122e4919061268a565b505090555b5050565b6000806002600084815260200190815260200160002060010154905060006002600085815260200190815260200160002060000160009054906101000a900473ffffffffffffffffffffffffffffffffffffffff16905081600160008373ffffffffffffffffffffffffffffffffffffffff1673ffffffffffffffffffffffffffffffffffffffff168152602001908152602001600020600001600082825403925050819055506000600260008681526020019081526020016000206001018190555060006002600086815260200190815260200160002060000160009054906101000a900473ffffffffffffffffffffffffffffffffffffffff1690506000805b6000808473ffffffffffffffffffffffffffffffffffffffff1673ffffffffffffffffffffffffffffffffffffffff168152602001908152602001600020805490508110156124ab57866000808573ffffffffffffffffffffffffffffffffffffffff1673ffffffffffffffffffffffffffffffffffffffff168152602001908152602001600020828154811061248257fe5b906000526020600020906008020160060154141561249e578091505b80806001019150506123ef565b506124b68183611eb5565b8273ffffffffffffffffffffffffffffffffffffffff166108fc859081150290604051600060405180830381858888f193505050501580156124fc573d6000803e3d6000fd5b5083945050505050919050565b604051806101000160405280600073ffffffffffffffffffffffffffffffffffffffff1681526020016000815260200160001515815260200160008152602001600081526020016000815260200160008019168152602001606081525090565b828054600181600116156101000203166002900490600052602060002090601f016020900481019282601f106125aa57805160ff19168380011785556125d8565b828001600101855582156125d8579182015b828111156125d75782518255916020019190600101906125bc565b5b5090506125e591906126d2565b5090565b604051806040016040528060008152602001600081525090565b828054600181600116156101000203166002900490600052602060002090601f016020900481019282601f1061263c5780548555612679565b8280016001018555821561267957600052602060002091601f016020900482015b8281111561267857825482559160010191906001019061265d565b5b50905061268691906126d2565b5090565b50805460018160011615610100020316600290046000825580601f106126b057506126cf565b601f0160209004906000526020600020908101906126ce91906126d2565b5b50565b5b808211156126eb5760008160009055506001016126d3565b5090565b6000813590506126fe816133f7565b92915050565b600081519050612713816133f7565b92915050565b6000813590506127288161340e565b92915050565b60008151905061273d81613425565b92915050565b6000813590506127528161343c565b92915050565b6000815190506127678161343c565b92915050565b600082601f83011261277e57600080fd5b813561279161278c82613268565b61323b565b915080825260208301602083018583830111156127ad57600080fd5b6127b88382846133a4565b50505092915050565b600082601f8301126127d257600080fd5b81516127e56127e082613268565b61323b565b9150808252602083016020830185838301111561280157600080fd5b61280c8382846133b3565b50505092915050565b60008135905061282481613453565b92915050565b60008151905061283981613453565b92915050565b60006020828403121561285157600080fd5b600061285f848285016126ef565b91505092915050565b60006020828403121561287a57600080fd5b600061288884828501612704565b91505092915050565b6000602082840312156128a357600080fd5b60006128b184828501612719565b91505092915050565b600080604083850312156128cd57600080fd5b60006128db858286016126ef565b92505060206128ec85828601612815565b9150509250929050565b60008060008060008060c0878903121561290f57600080fd5b600061291d89828a01612704565b965050602061292e89828a0161282a565b955050604087015167ffffffffffffffff81111561294b57600080fd5b61295789828a016127c1565b945050606061296889828a0161272e565b935050608061297989828a0161282a565b92505060a061298a89828a0161282a565b9150509295509295509295565b6000602082840312156129a957600080fd5b60006129b78482850161272e565b91505092915050565b6000602082840312156129d257600080fd5b60006129e084828501612743565b91505092915050565b6000602082840312156129fb57600080fd5b6000612a0984828501612758565b91505092915050565b600060208284031215612a2457600080fd5b600082013567ffffffffffffffff811115612a3e57600080fd5b612a4a8482850161276d565b91505092915050565b600060208284031215612a6557600080fd5b600082015167ffffffffffffffff811115612a7f57600080fd5b612a8b848285016127c1565b91505092915050565b60008060408385031215612aa757600080fd5b600083013567ffffffffffffffff811115612ac157600080fd5b612acd8582860161276d565b925050602083013567ffffffffffffffff811115612aea57600080fd5b612af68582860161276d565b9150509250929050565b600060208284031215612b1257600080fd5b6000612b2084828501612815565b91505092915050565b600060208284031215612b3b57600080fd5b6000612b498482850161282a565b91505092915050565b6000612b5e8383612bf5565b60208301905092915050565b612b738161336e565b82525050565b612b828161330a565b82525050565b6000612b93826132a4565b612b9d81856132d2565b9350612ba883613294565b8060005b83811015612bd9578151612bc08882612b52565b9750612bcb836132c5565b925050600181019050612bac565b5085935050505092915050565b612bef8161332e565b82525050565b612bfe8161333a565b82525050565b612c0d8161333a565b82525050565b6000612c1e826132af565b612c2881856132e3565b9350612c388185602086016133b3565b80840191505092915050565b6000612c4f826132ba565b612c5981856132ee565b9350612c698185602086016133b3565b612c72816133e6565b840191505092915050565b6000612c88826132ba565b612c9281856132ff565b9350612ca28185602086016133b3565b80840191505092915050565b6000612cbb603c836132ee565b91507f596f75206d757374206f75747374616b65207468652063757272656e7420737460008301527f616b65686f6c64657220746f2077696e2074686973206c656173652e000000006020830152604082019050919050565b6000612d216009836132ee565b91507f746f6f20736d616c6c00000000000000000000000000000000000000000000006000830152602082019050919050565b6000612d616022836132ee565b91507f4f6e6c7920746865207374616b65722063616e2077697468647261772066756e60008301527f64730000000000000000000000000000000000000000000000000000000000006020830152604082019050919050565b6000612dc76028836132ee565b91507f47657420796f7572206f776e20636f64652e202054686973206f6e652069732060008301527f74616b656e203a700000000000000000000000000000000000000000000000006020830152604082019050919050565b6000612e2d6022836132ee565b91507f4572726f723a204f6e6c79206f776e65722063616e207365652074686520677560008301527f69640000000000000000000000000000000000000000000000000000000000006020830152604082019050919050565b6000612e936028836132ee565b91507f496e73756666696369656e742066756e647320666f7220696e7465726e616c2060008301527f7472616e736665720000000000000000000000000000000000000000000000006020830152604082019050919050565b612ef581613364565b82525050565b6000612f078284612c13565b915081905092915050565b6000612f1e8284612c7d565b915081905092915050565b6000608082019050612f3e6000830187612b79565b612f4b6020830186612eec565b612f586040830185612be6565b612f656060830184612c04565b95945050505050565b600060e082019050612f83600083018a612b79565b612f906020830189612eec565b612f9d6040830188612be6565b612faa6060830187612eec565b612fb76080830186612eec565b81810360a0830152612fc98185612c44565b905081810360c0830152612fdd8184612c44565b905098975050505050505050565b600061010082019050613001600083018b612b79565b61300e602083018a612eec565b61301b6040830189612be6565b6130286060830188612eec565b6130356080830187612eec565b61304260a0830186612eec565b61304f60c0830185612c04565b81810360e08301526130618184612c44565b90509998505050505050505050565b6000602082019050818103600083015261308a8184612b88565b905092915050565b60006020820190506130a76000830184612c04565b92915050565b60006040820190506130c26000830185612c04565b81810360208301526130d48184612c44565b90509392505050565b600060a0820190506130f26000830188612c04565b6130ff6020830187612eec565b81810360408301526131118186612c44565b90506131206060830185612eec565b61312d6080830184612b6a565b9695505050505050565b6000602082019050818103600083015261315081612cae565b9050919050565b6000602082019050818103600083015261317081612d14565b9050919050565b6000602082019050818103600083015261319081612d54565b9050919050565b600060208201905081810360008301526131b081612dba565b9050919050565b600060208201905081810360008301526131d081612e20565b9050919050565b600060208201905081810360008301526131f081612e86565b9050919050565b600060208201905061320c6000830184612eec565b92915050565b60006040820190506132276000830185612eec565b6132346020830184612eec565b9392505050565b6000604051905081810181811067ffffffffffffffff8211171561325e57600080fd5b8060405250919050565b600067ffffffffffffffff82111561327f57600080fd5b601f19601f8301169050602081019050919050565b6000819050602082019050919050565b600081519050919050565b600081519050919050565b600081519050919050565b6000602082019050919050565b600082825260208201905092915050565b600081905092915050565b600082825260208201905092915050565b600081905092915050565b600061331582613344565b9050919050565b600061332782613344565b9050919050565b60008115159050919050565b6000819050919050565b600073ffffffffffffffffffffffffffffffffffffffff82169050919050565b6000819050919050565b600061337982613380565b9050919050565b600061338b82613392565b9050919050565b600061339d82613344565b9050919050565b82818337600083830152505050565b60005b838110156133d15780820151818401526020810190506133b6565b838111156133e0576000848401525b50505050565b6000601f19601f8301169050919050565b6134008161330a565b811461340b57600080fd5b50565b6134178161331c565b811461342257600080fd5b50565b61342e8161332e565b811461343957600080fd5b50565b6134458161333a565b811461345057600080fd5b50565b61345c81613364565b811461346757600080fd5b5056fea26469706673582212206c0ee67f5e14fffbdd336c90436cf844a609cd74045bd67a378aba53e2aeafc064736f6c634300060c0033",
  "immutableReferences": {},
  "source": "pragma solidity ^0.6.2;\npragma experimental ABIEncoderV2;\nimport \"./RewardGranter.sol\";\n\ncontract UPCGoldBank { \n     \n    struct Deposit {\n        uint amount;\n        uint timestamps;\n    }\n    \n    struct Balance {\n        uint                        totalBalance;\n        uint                        numPayments;\n        mapping(uint => Deposit)    deposits;\n    }\n    \n    struct LeaseMeta {\n        address  staker;  //address of the staker\n        uint     amountStaked;\n        bool     isOwned;\n        uint     interestGained;\n        uint     stakingStartTimestamp;\n        uint     lastRewardTimestamp;\n        bytes32  upcHash;\n        string   word;\n    }\n\n    \n    //declare an array of AddressToLeases\n    //each will have the address of the staker and the upcHash/meta\n    mapping(address  => LeaseMeta[])   public addressToLease;       //one-to-many relation between an address and scannables (leases/upcs)\n    mapping(address => Balance)     public balanceReceived;\n    \n    /*\n    *  all possible scannables already exist.  this mapping defines the current information about the scannables\n    *  the addressToLease mapping defines which address owns which scannable\n    */\n    mapping(bytes32  => LeaseMeta)   public scannables;       //pass in the upcId and look up the meta about the upc\n    uint public actionPot;\n    RewardGranter rewardGranter;\n    bool isRewardGranterPresent = false;\n    address payable[] payees;  //addresss of the wallets to pay back\n    address private owner;\n\n\n    constructor () public {\n        owner = msg.sender;\n    }\n   \n\n    //use block100 modifier to control access to the payout function\n    modifier ownerGuid() {\n        require( owner == msg.sender , \"Error: Only owner can see the guid\");\n        _;\n    }\n    \n\n    function addPayee(address payable addy) public ownerGuid {\n        payees.push(addy);\n    }\n\n\n    function getScannable(bytes32 upcHash) public view returns(address currentStaker, uint amountStaked, bool isOwned, uint rewards,  uint stakingStartTimestamp, string memory word, string memory gameId) {\n\n        (address _currentStaker, uint _amountStaked, string memory _word, bool _isOwned, uint _stakingStartTimestamp, uint _rewards) = rewardGranter.getPayoutByHash(upcHash);\n        gameId = rewardGranter.getGameIdByHash(upcHash);\n        \n        //(address currentStaker, uint totalBalance, string memory upcId, bool isOwned, uint stakingStartTimestamp, uint rewards, uint lastRewardTimestamp)\n\n\n        currentStaker = _currentStaker;\n        amountStaked = _amountStaked;\n        word = _word;\n        isOwned = _isOwned;\n        stakingStartTimestamp = _stakingStartTimestamp;\n        rewards = _rewards;\n        //lastRewardTimestamp = _lastRewardTimestamp;\n    }\n\n\n\n    function setRewardGranter(address addy) public ownerGuid {\n        //to harvest a reward from a scannable, the caller must be the staker\n        //require(isRewardGranterPresent == false , 'reward granter already set');\n        //rewardGranter =  RewardGranter();\n        rewardGranter = RewardGranter(addy);\n    }\n\n    \n    \n    function harvestRewardForScannable(uint amount) external pure returns (uint) {\n        //to harvest a reward from a scannable, the caller must be the staker\n        require((amount / 10000) * 10000 == amount , 'too small');\n        return amount * 200 / 10000;  //2%\n    }\n    \n\n    function internalTransfer(address _to, uint _amount) public {\n        require(balanceReceived[msg.sender].totalBalance >= _amount, \"Insufficient funds for internal transfer\" );\n        balanceReceived[msg.sender].totalBalance -= _amount;\n        balanceReceived[_to].totalBalance += _amount; \n    }\n\n    function getBalance() public view returns(uint) {\n        return address(this).balance;\n    }\n\n    function getAddressBalance() public view returns(uint) {\n        return balanceReceived[msg.sender].totalBalance;\n    }\n\n    \n    function getMyScannables() public view returns(bytes32[] memory ) {\n        //initialize array to the length of the scannables array\n        bytes32[] memory localScannables = new bytes32[](addressToLease[msg.sender].length);\n\n        for(uint i = 0; i< addressToLease[msg.sender].length; i++) {\n            localScannables[i] = addressToLease[msg.sender][i].upcHash;\n        }       \n\n        return localScannables;\n    }\n    \n    \n    function getCostToEvict(string memory upcId) public view returns(address currentStaker, uint currentAmountStaked, bool currentIsOwned, bytes32 upcHash) {\n        upcHash = sha256(abi.encodePacked(upcId));\n        currentStaker = scannables[upcHash].staker;\n        currentAmountStaked = scannables[upcHash].amountStaked;\n        currentIsOwned = scannables[upcHash].isOwned;\n    }\n\n    function depositMoney(string memory upcId, string memory gameId) public payable {\n        bytes32 upcHash = sha256(abi.encodePacked(upcId));\n\n        \n        uint _coinsToPayBills = this.calculateFee(msg.value);  //half goes to the pot, half goes to pay bills\n        \n        \n        uint _addToBalance = msg.value - _coinsToPayBills; //take eth out to do good with\n\n        //look into registering an unstoppable domain id.  verify on the blockchain that the msg.sender == the owner of the domain\n        //(, uint currentAmountStaked ,) = this.getCostToEvict(upcId);\n        bool owned = rewardGranter.isOwned(upcHash);\n        address currentStaker;\n        if(owned) {\n            currentStaker = rewardGranter.getOwner(upcHash);\n        }\n        \n        if(owned) {\n            require(currentStaker == msg.sender , \"Get your own code.  This one is taken :p\");\n        }\n\n        uint currentAmountStaked = scannables[upcHash].amountStaked;\n        bool restaking = false;\n        \n        if( (scannables[upcHash].staker != address(0x0)) && (msg.sender != scannables[upcHash].staker) ) {\n            require(_addToBalance > currentAmountStaked, \"You must outstake the current stakeholder to win this lease.\");\n        }\n        else {\n            restaking = true;\n        }\n        \n        if(msg.sender != scannables[upcHash].staker) {\n            uint evictionPrice = evict(upcHash);\n            \n            //after an eviction, currentAmountStaked should equal zero to make way for the new owner's currentAmountStaked\n            currentAmountStaked = scannables[upcHash].amountStaked;\n            \n            //AFTER EVICTION, REMOVE THE UPC FROM THE UPC TO ADDRESS MAPPING AND ADD IT TO THE NEW OWNER'S MAPPING\n        }\n\n        LeaseMeta memory lm;\n        lm.staker = msg.sender;\n        lm.amountStaked = currentAmountStaked + _addToBalance;\n        \n        if(!restaking) {\n            lm.isOwned =  false;\n        }\n        else {\n            lm.isOwned =  true;\n        }\n        \n        lm.stakingStartTimestamp = now;\n        lm.upcHash = upcHash;\n        lm.word = upcId;\n        scannables[upcHash] = lm;\n        \n        //look through the current scannables and only add if \n        //the upcId is not already with user.  dont want to add new entry if user increases their stake\n        bool addScannableToAddress = true;\n        \n        for(uint i = 0; i< addressToLease[msg.sender].length; i++) {\n            if(addressToLease[msg.sender][i].upcHash == upcHash) {\n                addScannableToAddress = false;\n            }\n        }\n        \n        if(addScannableToAddress) {\n            addressToLease[msg.sender].push(lm);\n        }\n\n        //require(balanceReceived[msg.sender].totalBalance >= _amount, \"Insufficient funds for internal transfer\" );\n\n        balanceReceived[msg.sender].totalBalance += _addToBalance;\n        Deposit memory deposit = Deposit(_addToBalance, now);\n        balanceReceived[msg.sender].deposits[balanceReceived[msg.sender].numPayments] = deposit;\n        balanceReceived[msg.sender].numPayments++;\n        \n        \n        \n        //rewardGranter = RewardGranter(address1);\n        //add this scannable to the rewards array\n        //pass the upcHash, total balance, word, starttimestamp, user\n        rewardGranter.addRewardableScannable(upcHash, (currentAmountStaked + _addToBalance), upcId, lm.stakingStartTimestamp, msg.sender);\n        rewardGranter.addGameToScannable(upcHash, gameId);\n\n\n        payBills(_coinsToPayBills);\n\n    }\n    \n    function payBills(uint coins) public returns (uint) {\n        uint numPayees = payees.length;\n        for(uint i=0; i<numPayees; i++) {\n            uint myShare = coins / numPayees;\n            payees[i].transfer(myShare);\n        }\n    }\n    \n    \n    function calculateFee(uint amount) external pure returns (uint) {\n        require((amount / 10000) * 10000 == amount , 'too small');\n        return amount * 200 / 10000;  //2%\n    }\n\n    function evict(bytes32 upcHash) private returns (uint) {\n\n        //require(scannables[upcHash].isOwned == false, \"Can not evict from an occupied scannable.\");\n        uint toWithdraw = scannables[upcHash].amountStaked;\n        address payable _to = address(uint160(scannables[upcHash].staker));\n        balanceReceived[_to].totalBalance -= toWithdraw;\n        scannables[upcHash].amountStaked = 0;\n        \n        \n        //find current owner and remove them so that the new owner can be recorded in the addressToLease\n        address currentOwner = scannables[upcHash].staker;\n        uint deleteIndex = 0;\n        for(uint i = 0; i< addressToLease[currentOwner].length; i++) {\n            if(addressToLease[currentOwner][i].upcHash == upcHash) {\n                deleteIndex = i;\n            }\n        }\n        \n        removeUpcFromA2L(deleteIndex,currentOwner);\n        \n        _to.transfer(toWithdraw);\n        return toWithdraw;\n    }\n    \n    //remove upc from the address to lease structure\n    function removeUpcFromA2L(uint index, address sender)  private {\n        if (index >= addressToLease[sender].length) return;\n\n        for (uint i = index; i<addressToLease[sender].length-1; i++){\n            addressToLease[sender][i] = addressToLease[sender][i+1];\n        }\n        delete addressToLease[sender][addressToLease[sender].length-1];\n        addressToLease[sender].pop();\n    }\n    \n    \n    \n    //withdraw function should be the only instance where the scannable is removed from the rewardToScannable structure\n    function withdraw(string memory upcId) public {\n        bytes32 upcHash = sha256(abi.encodePacked(upcId));\n        require(msg.sender == scannables[upcHash].staker, \"Only the staker can withdraw funds\" );\n        \n        uint _coinsToPayBills = this.calculateFee(scannables[upcHash].amountStaked);\n        uint toWithdraw = scannables[upcHash].amountStaked - _coinsToPayBills;\n        address payable _to = msg.sender;\n        balanceReceived[msg.sender].totalBalance = 0;\n        scannables[upcHash].amountStaked = 0;\n        scannables[upcHash].staker = address(0x0);\n        \n        bool doDelete = false;\n        uint deleteIndex = 0;\n        for(uint i = 0; i< addressToLease[msg.sender].length; i++) {\n            if(addressToLease[msg.sender][i].upcHash == upcHash) {\n                doDelete = true;\n                deleteIndex = i;\n            }\n        }\n        \n        if(doDelete) {\n            removeUpcFromA2L(deleteIndex,msg.sender);\n        }\n        \n        //\n        rewardGranter.removeRewardableScannable(upcHash);\n\n        _to.transfer(toWithdraw);\n        payBills(_coinsToPayBills);\n\n    }\n    \n}\n",
  "sourcePath": "/root/Projects/upcgold.io/src/contracts/UPCGoldBank.sol",
  "compiler": {
    "name": "solc",
    "version": "0.6.12+commit.27d51765.Emscripten.clang"
  },
  "schemaVersion": "3.2.3",
  "updatedAt": "2021-06-01T23:53:12.410Z",
  "networkType": "ethereum",
  "devdoc": {
    "kind": "dev",
    "methods": {},
    "version": 1
  },
  "userdoc": {
    "kind": "user",
    "methods": {},
    "version": 1
  }
}